:100000000C94C7020C940E030C940E030C940E0374
:100010000C940E030C940E030C940E030C940E031C
:100020000C940E030C940E030C941E1C0C94F01CE8
:100030000C9460170C940E030C940E030C940E0396
:100040000C940E030C940E030C940E030C940E03EC
:100050000C940E030C94B9170C940E030C940E031D
:100060000C940E030C940E030C940E030C940E03CC
:100070000C940E030C940E030C940E030C940E03BC
:100080000C940E030C940E030C940E030C940E03AC
:100090000C940E030C940E030C940E030C940E039C
:1000A0000C940E030C940E030C940E038F058F0515
:1000B000C105C1050E064207420742072C06C106CC
:1000C000D206D2063207420742073B07DE07DE07A9
:1000D000F007F007E707F007F007F007DE07DE0795
:1000E000EC07F007F007EC075D1D841D7C1E841DE6
:1000F0007C1ED01DF31D7C1E4A1E591E4D004E0055
:1001000029003B003D003F004100430045004A00FC
:100110004B003A003C003E004000420044004C00CE
:100120005600540035001F00210023002500270041
:100130002E0055002A001E00200022002400260068
:100140002D003100570060002B001A0015001C0024
:100150000C001300300061005F001400080017005D
:10016000180012002F002A0057005D00E000160062
:1001700009000B000E00330028005E005C00040044
:1001800007000A000D000F003400000058005A005C
:1001900052001D000600050010003700E5005B005E
:1001A0005900E1001B001900110036003800015110
:1001B00058006200510001510000000000000000E2
:1001C000E700630050004F00E20000002C00000038
:1001D000E600E4000100010001000100010001004F
:1001E0000100010001000100010001000100010007
:1001F00001000100010001000100010001000100F7
:1002000001000100010001000100010001000100E6
:1002100001000100010001000100010001000100D6
:10022000010052002A00010001000100010001004C
:1002300001004E004E00010001000100010001001C
:10024000010001000100510028000100010001002F
:1002500001000100010050004F00010001000100F9
:1002600001000000010001000100AE00AA00010031
:1002700001000100010001000100AC00AB00A90079
:100280000100010001000100010001000100010066
:10029000000000000000000001000100010001005A
:1002A0000100000001000000010001000100010048
:1002B0000100010001000100010001000100010036
:1002C0000100010001000100010001000100010026
:1002D0000100010001000100010001000100010016
:1002E0000100010001000100010001000100010006
:1002F00001000100010001000100010001000100F6
:1003000001000100010001000100010001000100E5
:1003100001000100010001000100010001000100D5
:1003200001000100010001000100010001000100C5
:1003300001000100010001000100000001000100B6
:1003400001000100010001000100010001000100A5
:100350000100010001000100010001000100010095
:100360000100010001000100000000000000000089
:100370000100010001000100010000000100000077
:100380000100010001000100010001000100010065
:100390000100010001000100010001000100010055
:1003A0000100010001000100010001000100010045
:1003B0000100010001000100010001000100010035
:1003C0000100010001000100010001000100010025
:1003D0000100010001000100010001000100010015
:1003E0000100010001000100010001000100010005
:1003F00001000100010001000100010001000100F5
:1004000001000100010001000100010001000100E4
:1004100001000000010001000100010001000100D5
:1004200001000100010001000100010001000100C4
:1004300001000100010001000100010001000100B4
:1004400000000000000000000100010001000100A8
:100450000100000001000000010001001E03410036
:10046000450062006F0061007200640073002000AC
:10047000410065006700690073000000120341003D
:10048000450062006F0061007200640073000000AC
:100490000403090409023B00020100A0FA09040058
:1004A00000010301010009211101000122400007A0
:1004B00005810308000A0904010001030000000986
:1004C0002111010001226D000705820320000A129C
:1004D0000100020000000845410708010001020078
:1004E0000105010980A101850319012AB700150141
:1004F00026B700950175108100C0050C0901A10106
:10050000850419012AA002150126A0029501751083
:100510008100C005010906A1018505050719E0292B
:10052000E7150025019508750181020507190029C5
:10053000EF1500250195F0750181020508190129C3
:1005400005950575019102950175039101C005019D
:100550000906A101050719E029E7150025019508FD
:10056000750181029501750881010507190029FFB0
:10057000150026FF00950675088100050819012958
:1005800005950575019102950175039101C011242E
:100590001FBECFEFDAE0DEBFCDBF04B603FE27C03B
:1005A0008091CA029091CB02A091CC02B091CD0271
:1005B0008730904BA740B04BD1F41092CA021092F2
:1005C000CB021092CC021092CD0214BE84B7877F6A
:1005D00084BF0FB6F894A8958091600088618093DD
:1005E0006000109260000FBEE0E0F8E3099511E0B2
:1005F000A0E0B1E0EEE0FEE302C005900D92A43869
:10060000B107D9F722E0A4E8B1E001C01D92AA3CED
:10061000B207E1F70E94C8130C94051F0C94000068
:1006200081E0089581E008950C94120308950C94DC
:1006300016031F93CF93DF9300D000D01F92CDB746
:10064000DEB749835A836B833091860189819A8111
:10065000311114C0662359F0222349F00E94820907
:10066000182F682F89819A810E942B0903C00E944C
:100670005609182F69817A81812F04C00E9482094E
:1006800069817A810F900F900F900F900F90DF91FA
:10069000CF911F910C941B10FC01262F408151819A
:1006A0006281738184810C94190381E00895CF9352
:1006B000DF93EC0160E00E944C03BE01DF91CF911B
:1006C0000C9417030E9441120E94D3030C947E12D3
:1006D0000C947A1208950E94CC070E946A032FEFAF
:1006E00084E39CE0215080409040E1F700C000008E
:1006F0000C94DF170F931F93CF93DF938C0161E06E
:100700000E944C03EC01B8010E9414038823F1F10C
:10071000B801CE010E9446148823C1F1B801CE0170
:100720000E949814882391F1B801CE010E94C3154C
:10073000882361F1F8018281882309F1CB358DE5A9
:10074000D807C1F050F4C115FCE5DF0781F0CF3DBB
:10075000DC45A9F40E941D0F19C0CC35EDE5DE077C
:1007600061F0CD35DD4559F40E94A10D08C00E940D
:100770006B030CC00E94AA0D02C00E94AD0DC801FF
:10078000DF91CF911F910F910C94100380E0DF91C6
:10079000CF911F910F91089508950C94CC0381E09F
:1007A00008950C94CF030895CF93C82F0E94CD03D2
:1007B0008C2F0E94D103CF910895CF93DF93CDB7B3
:1007C000DEB72B970FB6F894DEBF0FBECDBF4F83B9
:1007D000588769877A878B8761110E94D00D9E01A7
:1007E0002F5F3F4F86E0F90111928A95E9F785E086
:1007F000FE013796D90101900D928A95E1F7898122
:100800009A814C815D81452B31F09F3F31F491E01D
:100810008F3F19F403C091E001C090E090FF09C040
:1008200049815A816B817C818D819E810E94D00C8F
:1008300005C0C9010E9455038111F2CF2B960FB656
:10084000F894DEBF0FBECDBFDF91CF910895FC01BC
:10085000808191810E94C4090895CF93882309F46F
:100860009CC0C82F8238C1F40E94F91581FD95C043
:1008700069E380910001909101010E94E1160E94BC
:10088000020E2FEF81EE94E0215080409040E1F77E
:1008900000C0000069E319C0833801F50E94F91512
:1008A00080FD7BC063E580910001909101010E9471
:1008B000E1160E94020E2FEF81EE94E0215080405D
:1008C0009040E1F700C0000063E580910001909145
:1008D00001010E94EC16CF910C94020E8438C1F4F1
:1008E0000E94F91582FD59C067E480910001909142
:1008F00001010E94E1160E94020E2FEF81EE94E0AA
:10090000215080409040E1F700C0000067E4DDCF57
:100910008CEF8C0F813AD0F46C2F80910001909174
:1009200001010E946116882349F06C2F809100011B
:10093000909101010E94EC160E94020E6C2F809192
:100940000001909101010E94E116C5CF80E28C0F59
:10095000883048F4C77081E001C0880FCA95EAF773
:100960000E94B30DB8CFEBE5EC0FE33040F4F0E0BC
:10097000E55CFE4F808190E0CF910C941F16C85A21
:10098000C73158F4EC2FF0E0EE0FFF1FE35FFE4F8E
:1009900080819181CF910C943516CF910895882351
:1009A00009F45BC0682F823879F40E94F91581FF41
:1009B00054C069E380910001909101010E94E11609
:1009C0000E94020E69E310C08338B1F40E94F91549
:1009D00080FF43C063E580910001909101010E9476
:1009E000E1160E94020E63E58091000190910101E1
:1009F0000E94EC160C94020E843879F40E94F915CA
:100A000082FF2BC067E480910001909101010E9458
:100A1000E1160E94020E67E4E7CF8CEF860F813A61
:100A200018F380E2860F883048F4677081E001C0D7
:100A3000880F6A95EAF70E94B90DDCCF8BE5860F27
:100A4000833020F480E090E00C941F16685A6731E0
:100A500020F480E090E00C94351608951F93CF9316
:100A6000DF93182FEB010E942D04209741F08FE9AE
:100A70009FE00197F1F700C000002197F6CF812F8A
:100A8000DF91CF911F910C94CF04893319F060E06E
:100A900070E002C060E570E00C942E05882321F020
:100AA0000E94B30D0C94020E0895882321F00E9439
:100AB000B90D0C94020E0895CF92DF92EF92FF923F
:100AC0000F931F93CF93DF937C01062FC72FFC0159
:100AD000D281158112951F700E94880D882399F08C
:100AE000DD2389F08C2F807F803421F080E2800F1D
:100AF000883048F082E00E94520E0E94880D91E0FA
:100B0000D82ED92601C0D12CCC2EC2948FE0C82279
:100B10008C2D90E0FC01EA5AFF4F0C94B01E8C2FF4
:100B2000807FCF70882311F0C295C07FDD2399F0BC
:100B3000CC2309F482C180E2800F883010F00111CB
:100B400004C08C2F0E94B30D03C08C2F0E94C30DD4
:100B50000E94020E72C1802F0E94CF04CC2309F4A0
:100B600091C180E2800F883010F0011104C08C2FF9
:100B70000E94B90D03C08C2F0E94C90D0E94020E65
:100B800081C18C2F807FCF70803211F0C295C07FE1
:100B9000002319F00130C9F022C0DD2371F01123C8
:100BA00041F0113031F40E94E30D8C2B0E94EB0DCB
:100BB00069C10E94E30D8C2B1DC0112319F0113067
:100BC00009F460C10E94F80D25C0DD2321F0163024
:100BD00008F058C10EC0153008F054C11BC0DD2309
:100BE00061F0112331F0F701858180FF26C18F70FC
:100BF00085838C2F0E944E0545C1112359F009337E
:100C000009F02CC1FFEF27EE83E0F1502040804037
:100C1000E1F722C18C2F0E94550534C18C2F869597
:100C20008695837019F0813061F02CC1DD2321F0AD
:100C3000802F9C2F937002C080E090E00E941F16CE
:100C400029C1DD2321F0802F9C2F937002C080E00A
:100C500090E00E9435161EC18C2F837009F045C0AC
:100C6000D11114C1402F429546954770440F440F4F
:100C7000602F6F70862F90E0A0E0B0E0042E04C0DB
:100C8000880F991FAA1FBB1F0A94D2F704FF10C038
:100C90000FE010E020E030E004C0000F111F221F21
:100CA000331F4A95D2F7009510952095309503C0D3
:100CB00000E010E09801C695C695C370BC01CD0157
:100CC000602B712B822B932BC23049F058F4C1302A
:100CD00019F00E944108DAC00E942F08D7C00E9474
:100CE0005308D4C00E942D08D1C0DD2319F08C2FE9
:100CF000817001C08695882309F4C8C0402F4295B1
:100D000046954770440F440F602F6F70862F90E018
:100D1000A0E0B0E0042E04C0880F991FAA1FBB1FDB
:100D20000A94D2F704FF10C00FE010E020E030E09A
:100D300004C0000F111F221F331F4A95D2F70095E0
:100D400010952095309503C000E010E09801C695FD
:100D5000C695C370BC01CD01602B712B822B932BE8
:100D6000C23049F058F4C13019F00E9406098EC013
:100D70000E94F4088BC00E94180988C00E9467086E
:100D800085C0CF70DD2339F08C2F0E948D08802F15
:100D90000E944E057BC0802F0E9455058C2F0E941B
:100DA000AE0874C0023F01F128F4003F41F0013F5A
:100DB000A1F03FC0033FF9F0043F39F13AC0DD2311
:100DC00041F0153008F05EC08C2F8F710E94D3085F
:100DD00059C0163008F056C0F7CFDD2339F08C2FFC
:100DE0008F710E948D084EC0DD23C9F38C2F8F7147
:100DF0000E94AE0847C0DD2329F08C2F8F710E941E
:100E0000780840C00E9473083DC0DD2349F0CF71CF
:100E10008C2F0E948D0863E08C2F0E94370E32C009
:100E200081E00E94520E123068F182E00E94520E60
:100E300029C0DD2331F0112391F2802F0E942D046F
:100E400021C0112399F2093349F49FEFE7EEF3E053
:100E50009150E040F040E1F700C00000802F0E9478
:100E6000CF0410C04C2F4F70602FC7010E94171085
:100E70000E94F2090FC04C2F4F70602FC7010E94D3
:100E80001A1008C088EF8C0D843020F40E94F915E8
:100E90000E94D403DD20C9F00E94840D80FD15C09E
:100EA000F70112820E947E0D0E948D08C7010E94E8
:100EB00086070E947E0DDF91CF911F910F91FF90C9
:100EC000EF90DF90CF900C94AE08DF91CF911F91FF
:100ED0000F91FF90EF90DF90CF9008950F931F93A5
:100EE000CF93DF93EC01688179818A810E94CF09D9
:100EF0008C010E942A090E941B08B801CE010E94A1
:100F00005C05DF91CF911F910F910895CF93DF93EF
:100F1000EC01988189812B813C81232B31F08F3F1B
:100F200031F481E09F3F19F403C081E001C080E00B
:100F300080FD19C0CE010E947A0381110CC00E946D
:100F4000880D882381F08A81882369F082E0DF910F
:100F5000CF910C94520ECE010E946E07CE01DF910C
:100F6000CF910C945703DF91CF91089580E090E0EA
:100F70000E941F1680E090E00E9435160E94D00D5E
:100F80000E94E00D0C94020E8091000190910101ED
:100F90000E94F7160C94B6070E94C00D0C94C4076B
:100FA000E92FE295EF704E2F50E0FA013297EE30C4
:100FB000F105B0F4EA59FF4F0C94B01E803F91F058
:100FC00018F4883E68F40EC0843F51F40BC0883E8C
:100FD00048F0813F29F406C093FB882780F90895E3
:100FE00080E0089581E00895FC01808191810E9454
:100FF000C4090E94D0070895CF93DF9300D000D09A
:101000001F92CDB7DEB70F900F900F900F900F90FB
:10101000DF91CF910895CF93DF9300D000D000D01F
:10102000CDB7DEB726960FB6F894DEBF0FBECDBFA4
:10103000DF91CF910895089508950C941C080C94A5
:101040001D080E941F086093D1017093D201809304
:10105000D3019093D4010C94B6070C9421080F93FC
:101060001F930091D1011091D2012091D3013091B1
:10107000D401602B712B822B932B1F910F910C9419
:1010800021080F931F930091D1011091D20120915B
:10109000D3013091D40160237123822393231F91C4
:1010A0000F910C9421080F931F930091D10110917F
:1010B000D2012091D3013091D4016027712782277A
:1010C00093271F910F910C9421080C941C080E94E7
:1010D00065086093CD017093CE018093CF0190930A
:1010E000D0010C94B60760E070E0CB010C94670867
:1010F0000F931F9341E050E060E070E08A019B0194
:1011000004C0000F111F221F331F8A95D2F7C90197
:10111000B8011F910F910C9467080F931F9341E042
:1011200050E060E070E004C0440F551F661F771F59
:101130008A95D2F78091CD019091CE01A091CF01F7
:10114000B091D0018A019B01082B192B2A2B3B2B34
:10115000C901B8011F910F910C9467080F931F9359
:1011600041E050E060E070E004C0440F551F661F8E
:10117000771F8A95D2F7409550956095709580912C
:10118000CD019091CE01A091CF01B091D0018A0103
:101190009B01082319232A233B23C901B8011F916E
:1011A0000F910C9467080F931F9341E050E060E0AB
:1011B00070E004C0440F551F661F771F8A95D2F751
:1011C0008091CD019091CE01A091CF01B091D0013D
:1011D0008A019B01082719272A273B27C901B80143
:1011E0001F910F910C9467080F931F930091CD01ED
:1011F0001091CE012091CF013091D001602B712B45
:10120000822B932B1F910F910C9467080F931F93C0
:101210000091CD011091CE012091CF013091D001EC
:1012200060237123822393231F910F910C946708ED
:101230000F931F930091CD011091CE012091CF010A
:101240003091D00160277127822793271F910F913A
:101250000C946708089529E0929F800D1124E82FCF
:10126000E695E695E695877051E001C0550F8A95A1
:10127000EAF785E0E89FF0011124E957FE4F20E0EE
:1012800030E070E04081CB01022E02C09695879538
:101290000A94E2F7817081958427852384278193BE
:1012A0002F5F3F4F2530310569F7089529E0929F60
:1012B000800D1124682F669566956695982F977016
:1012C00085E0689FB001112440E050E080E0FB0120
:1012D000E40FF51FE957FE4F208130E0092E02C0D0
:1012E000369527950A94E2F721703327042E01C022
:1012F000220F0A94EAF7822B4F5F5F4F453051056A
:1013000031F70895BF92CF92DF92EF92FF920F9341
:101310001F93CF93DF938C01C090CD01D090CE016D
:10132000E090CF01F090D0018091D1019091D20155
:10133000A091D301B091D401C82AD92AEA2AFB2A64
:10134000CFE1D0E0D701C6010C2E04C0B695A79519
:10135000979587950A94D2F780FD04C0219790F75E
:10136000B12C07C0BC2EB8018C2F0E944B110197E5
:10137000A9F38B2DDF91CF911F910F91FF90EF90EB
:10138000DF90CF90BF900895CF93DF93EC010E9440
:101390008209BE010E944B11DF91CF9108951F93E6
:1013A000CF93DF93EB0190918601992321F0CB013C
:1013B0000E94C40913C0882349F0CB010E9482090E
:1013C000182F682FCE010E942B0904C0CB010E9468
:1013D0005609182FBE01812F0E944B11DF91CF912A
:1013E0001F910895EF92FF920F931F93CF93DF9376
:1013F0008C01892B09F46CC0F12CEE24E394E801F4
:101400002196F8018491843740F4843008F051C06B
:10141000813081F0823019F15BC0853709F444C016
:10142000A8F19CE7980F903708F052C08F770E9480
:10143000CF0441C00E5F1F4FFE01849190E2980FD0
:10144000983050F48770FE2D01C0FF0F8A95EAF79F
:101450008F2F0E94D30D14C00E942D042DC00E5F4B
:101460001F4FFE01849190E2980F983060F48770CE
:10147000FE2D01C0FF0F8A95EAF78F2F0E94D90D2C
:101480000E94020E19C00E94CF0416C00E5F1F4FAB
:10149000FE01C491CC2381F08FE99FE00197F1F721
:1014A00000C00000C150F6CF0E5F1F4FFE01F49048
:1014B00003C00E942D048E018F2D882309F49FCF35
:1014C000EFE9FFE03197F1F700C000008150F5CF60
:1014D000DF91CF911F910F91FF90EF9008951F938F
:1014E000CF93DF93C091D50116E08091D601C81744
:1014F00099F0D0E01C9FF0011D9FF00D1124E952DE
:10150000FE4F4081518162817381848195810E9467
:101510000B082196C770E9CFDF91CF911F910895F5
:1015200040910702509108026091090270910A02ED
:1015300080910B0290910C020C940B080F931F9357
:10154000CF93DF9380910C0282958F7009F05DC07C
:1015500080910902882309F458C08091D501109127
:10156000D6016091070270910802C0910A02D091E1
:101570000B0291E06F3F09F090E0292F06E0811700
:1015800009F443C0209721F07F3F21F030E003C0F1
:1015900031E001C0322F90E030FD34C0089FF001EF
:1015A000099FF00D1124DF01A952BE4F11963C9105
:1015B0001197371327C03C91361324C012963C91E3
:1015C000129731111FC013964D915C9114974C1BCB
:1015D0005D0B483C5105B0F480910C028F70806126
:1015E00080930C02E452FE4F80818F708061808373
:1015F00087E092E00E948607DF91CF911F910F91C3
:101600000C946F0A01968770BACFDF91CF911F912A
:101610000F9108959F92AF92BF92CF92DF92EF9277
:10162000FF920F931F93CF93DF93CDB7DEB76197F0
:101630000FB6F894DEBF0FBECDBF8C0185E0F80178
:10164000DE011D9601900D928A95E1F7F801E28086
:10165000909107026091080220910A0230910B02DA
:101660002115310531F06F3F31F481E09F3F19F4CE
:1016700003C081E001C080E0F82FF1709F2E80FD53
:101680003FC1F80140815181A380B48087E0C82E1A
:1016900082E0D82EF0900902F501E21BF30BFF2047
:1016A00009F4D9C080910C02E83CF10508F095C01E
:1016B000282F207F09F052C0561313C0491311C0C0
:1016C000FE2CE1100EC08F70806180930C020E948E
:1016D000900AC6010E94860780910C02F80185835A
:1016E0004CC1AB2831F05F3F31F481E04F3F19F43A
:1016F00003C081E001C080E080FD03C081E08E2551
:1017000002C080E090E0F82FF170FF2E80FF1CC037
:101710008091D5012091D60136E0821709F40BC1E2
:1017200090E0389FF001399FF00D1124E952FE4FEF
:101730006181561306C06081461303C06281E612C0
:1017400003C001968770E9CFFE2CEE2009F415C185
:1017500080910C02816080930C0254C0561306C025
:10176000491304C0E11002C0F80199C0C8010E94E9
:10177000F407882361F1EE2051F120910C02822FB1
:1017800082958F7090E0029774F08091070290919B
:10179000080298878F831986BB86AA862C87CE017C
:1017A00007960E94860786E0F801A7E0B2E0019064
:1017B0000D928A95E1F70E949E0A0E94900A0AC043
:1017C000561711F1C8010E94F40781112CC0C801FD
:1017D0000E948607FF24F394D0C0282F207F81F732
:1017E0007A2DB98AA88A6E2D89890E94FC0787E024
:1017F00092E00E94860786E0F60111928A95E9F749
:101800000E94900AF12CB9C04913DCCFE110DACF65
:10181000F8018583C8010E94860786E0F6011192CF
:101820008A95E9F7AAC0EE2091F220910C02822F4E
:1018300082958F7090E002970CF4B5CF80910702EB
:10184000909108029A8389831B82BD82AC822E8389
:10185000CE010196A6CFE83CF10508F044C0FE2C6D
:10186000EE2009F4B4CF561330C049132EC0209196
:101870000C0220FD21C0822F82958F70482F50E0EE
:1018800041155105C9F0F80125834F30510541F04C
:101890008F5F982F9295907F822F8F70892B8583F1
:1018A000C8010E94860786E0F801A7E0B2E0019037
:1018B0000D928A95E1F73CC086E0F801A7E0B2E01E
:1018C00001900D928A95E1F758C0C8010E94F40773
:1018D000811169CF80910C02816080930C02C80154
:1018E0000E9486074AC07A2DB98AA88A6E2D8989F6
:1018F0000E94FC0786E0F60111928A95E9F718C06C
:10190000EE2009F464CFC8010E94F407F82E882362
:1019100009F45DCF86E0F801A7E0B2E001900D92F6
:101920008A95E1F787E092E00E9427040E949E0AD0
:101930000E94900A22C04D875E878D859E850E94F9
:10194000C409292F22952F70223028F49F7039F076
:10195000811105C00BC0243028F49F7049F4805ECB
:10196000883020F0C8010E9486079F2CF92C05C002
:10197000F8019581907F99F7F9CF8F2D61960FB679
:10198000F894DEBF0FBECDBFDF91CF911F910F91B5
:10199000FF90EF90DF90CF90BF90AF909F90089511
:1019A0001F93CF93DF93CDB7DEB72C970FB6F89484
:1019B000DEBF0FBECDBF4F83588769877A878B877D
:1019C0009C87CE0107960E940A0B8823D1F09F8145
:1019D00088852A853B85232B31F08F3F31F481E0C8
:1019E0009F3F19F403C081E001C080E080FD47C043
:1019F0004F81588569857A858B859C850E940B0867
:101A00003EC086E0FE013796DE01119601900D92F0
:101A10008A95E1F7FF81E8856A857B856115710507
:101A200031F0EF3F31F481E0FF3F19F403C081E072
:101A300001C080E080FD23C02091D60130E0C901C3
:101A40000196877099274091D50150E0841795073A
:101A5000F1F1F983EA837D836C8396E0929FD00154
:101A6000939FB00D1124A952BE4FFE0131960190F3
:101A70000D929A95E1F78093D6010E946F0A16E0C5
:101A80008091D5019091D601891771F1189FC001FD
:101A9000112489529E4F0E940A0B882329F1E0915C
:101AA000D5011E9FF0011124E952FE4F4081518162
:101AB00062817381848195810E940B088091D50198
:101AC00090E00196877099278093D501D9CF0E9425
:101AD000CC071092D6011092D501E7E0F2E086E043
:101AE000DF011D928A95E9F72C960FB6F894DEBFB8
:101AF0000FBECDBFDF91CF911F91089580910D0250
:101B0000859585958595089580910D028770089536
:101B100090910D02977081E009F480E00895909112
:101B2000880292FB222720F9281751F080FB92F9B6
:101B30009093880280918702909188020C94990E6C
:101B400008958091880282FB882780F991E0892797
:101B50000C948F0D81E00C948F0D80E00C948F0D10
:101B600080913102089590913102892B8093310246
:101B700008958095909131028923809331020895D0
:101B800010923102089590913002892B8093300297
:101B900008958095909130028923809330020895B2
:101BA00010923002089590912F02892B80932F027A
:101BB0000895809590912F02892380932F02089594
:101BC00010922F02089580910E02089508950C94AA
:101BD000E60D0C94E70D9091880292FD08C090915B
:101BE0000E02981721F080930E020C94E90D0895CF
:101BF00080910E02882329F010920E0280E00C944E
:101C0000E90D0895E0910001F09101018091310208
:101C10008083E0910001F091010190818091300278
:101C2000892B8083E0910001F091010190818091E6
:101C30002F02892B808380910E02882381F0E0910E
:101C40000001F09101019081892B80838091000136
:101C5000909101010E944B1681110E94F80D809114
:101C60000001909101010C9405160C94E60D9091E1
:101C7000880292FD10C098E0899F90011124262BC4
:101C800020930D020E948D0880910D028595859507
:101C900085950C94350E0C948D0810920D0280E001
:101CA0000C94350E20910D028095822380930D02B5
:101CB000982F977041F430E0482F082E000C550BF8
:101CC0002417350721F49091880292FF07C085956B
:101CD000859585950E94AE080C944D0E08956FEF82
:101CE0007FEF80E090E00C94EF1E80E090E00E9497
:101CF000CB1E21E0893E9E4F09F020E0822F0895FF
:101D000082E090E00C94C31E83E090E00C94C31E2C
:101D1000CF9384E090E00E94C31EC82F82E290E03F
:101D20000E94C31E2C2F30E0A901582BCA01CF916D
:101D30000895CF93C92F682F84E090E00E94D11EB0
:101D40006C2F82E290E0CF910C94D11EAB01BC01CC
:101D50008FE090E00C94E31EAB01BC0183E190E0C6
:101D60000C94E31E60E070E0CB010C94AC0E60E0DC
:101D700070E0CB010E94A60E0C94B20E69EE7EEFCD
:101D800080E090E00E94EF1E60E082E090E00E9420
:101D9000D11E60E083E090E00E94D11E1092D1013C
:101DA0001092D2011092D3011092D40160E084E02D
:101DB00090E00E94D11E60E082E290E00E94D11E7D
:101DC00060E085E090E00E94D11E60E086E090E057
:101DD0000E94D11E6FEF87E090E00E94D11E40E08C
:101DE00050E0BA0188E090E00E94E31E60E08DE0E0
:101DF00090E00E94D11E40E050E0BA0188E190E0FE
:101E00000E94E31E60E087E190E00E94D11E40E066
:101E100050E0BA018CE190E00E94E31E60E070E0C7
:101E200080E290E00E94EF1E40E050E0BA0188E1BD
:101E300090E00E94E31E0C94B70E0C94BE0E682F27
:101E40008EE090E00C94D11E0E949E1760934F028A
:101E500070935002809351029093520260934B0210
:101E600070934C0280934D0290934E02089585B773
:101E7000806885BF85B7806885BF089581E0089533
:101E80000C943E0F08950C94420F0C94420F0C9446
:101E9000450F0C94420F0C94490F0C94420F0E9472
:101EA000370F87E292E10E9403180E944D0F0C94B5
:101EB0004B0F0E94430F0C94420F0E9489170E94FF
:101EC0002F130C94470F6F927F928F929F92AF9235
:101ED000BF92CF92DF92EF92FF920F931F93CF9317
:101EE000DF93CDB7DEB72A970FB6F894DEBF0FBEEB
:101EF000CDBF0E94421381110E94240F33E3832E31
:101F000032E0932E00E010E0C02E802F0E94651278
:101F10005C01F401619071904F016826792661148B
:101F20007104B1F40F5F1F4F0C30110569F78FEF8B
:101F300089838A831B820E9492178160782F9D83F8
:101F40008C8349815A816B818D810E94DD033AC067
:101F50008091530281FD0E946E12D12CEE24E394F5
:101F6000F12CC3018E219F21892B29F10E94400F62
:101F70008823A9F0DE82CF82AE20BF2081E0AB288B
:101F800009F480E088870E9492178160782F9A87F1
:101F900089874E815F8168858A850E94DD03000FF5
:101FA000111FF801ED5CFD4F80819181E826F92633
:101FB000F182E08207C0D394EE0CFF1CF9E0DF123F
:101FC000D0CFB0CF0E94F915909132028917D1F08D
:101FD0000E94F915809332022A960FB6F894DEBF5C
:101FE0000FBECDBFDF91CF911F910F91FF90EF906A
:101FF000DF90CF90BF90AF909F908F907F906F9029
:102000000C94D4032A960FB6F894DEBF0FBECDBF52
:10201000DF91CF911F910F91FF90EF90DF90CF90C4
:10202000BF90AF909F908F907F906F90089580E0C9
:1020300090E0089508952CE6829FC0011124FC01D0
:1020400029E0729FE00DF11D1124E60FF11DEE0F46
:10205000FF1FE450FF4F859194910895880F991FB9
:10206000FC01E45AFB4F859194910895CF93DF933F
:102070000E945011EC01811520E5920708F041C043
:10208000811540E4940708F0CBC0803E910520F50F
:10209000803C910508F0B8C0883A910570F4853A03
:1020A000910508F0A8C08130910509F4A1C008F499
:1020B000EBC0049708F0EBC0E7C08F3B910508F038
:1020C000E3C0885AC82FD0E0CC0FDD1FC25CDE4FC2
:1020D000888199819464DCC0811550E2950750F4A1
:1020E000C11581E0D80708F0D2C0C83ED10508F478
:1020F000CEC0CAC0811520E3920708F08AC09F7045
:1021000085C0811545E5940708F046C0811554E562
:10211000950708F09DC0C11582E5D80718F5C115CF
:1021200021E5D20708F07FC0CE01F4E096958795AF
:10213000FA95E1F7282F23703C2F337081E090E06F
:1021400002C0880F991F3A95E2F79C68922B2C2FBA
:102150002F702695269540E2249F90011124822B12
:10216000932B96C09E01237033279C2F96959695AE
:10217000C115D34508F05CC041E050E002C0440FF7
:10218000551F2A95E2F780E2989F90011124CA0119
:10219000822B932B9C687CC0811559E5950798F498
:1021A000C11588E5D80708F058C0C11526E5D20743
:1021B00008F06AC08C2F0E94E4118F7190E0982F74
:1021C0008827906265C081154AE5940708F44AC0E3
:1021D00090568115904208F057C08D2F8F710E9444
:1021E000E4119E01332730628F71A901582B4AC038
:1021F00081E090E04DC0855AC82FD0E0C459DE4F31
:10220000888190E0906444C0805C91090E942E1007
:102210003FC09927D3FF02C0986C3AC0906C38C079
:102220009F70906A35C09C2F8827816F906A30C05C
:1022300041E050E002C0440F551F2A95E2F780E2CA
:10224000989F90011124CA01822B932B9A6820C079
:10225000982F8827846F906A1BC09C2F8827806FD7
:10226000906A16C08F700E94E4119E0194E036952A
:1022700027959A95E1F72F7030E0322F22273069A9
:10228000A901482BCA0104C080E090E001C0CE0142
:10229000DF91CF9108950E941B100E94361008957F
:1022A0008238910569F1B0F48133910509F46DC06C
:1022B00048F48932910509F463C08A32910509F422
:1022C00069C008958533910509F455C08933910596
:1022D000B9F00895833E910569F138F4803E910587
:1022E000B1F0823E910509F10895863E9105A9F16C
:1022F000873E9105B9F1843E910509F064C023C081
:102300002091870220FD4FC021FD4DC0089580918E
:10231000870280FD44C08091880280FF44C0809184
:10232000870284FD42C083EE4DC08091870282FF08
:1023300038C0F5CF8091870282FD33C0809188023A
:1023400080FD31C0ECCF8091880281FF32C0809146
:10235000870284FD2AC087EE35C08091870283FF03
:1023600026C0F5CF8091870283FD21C0809188022D
:1023700081FD1FC0ECCF8091870285FD1CC01DC070
:102380008091870285FD19C016C08091870286FD65
:1023900016C017C08091870286FD13C010C089E364
:1023A00011C082EE0FC080EE0DC080E00BC086EE43
:1023B00009C084EE07C089E205C085E303C08AE254
:1023C00001C081E390E008959091870292FF0DC0D3
:1023D000282F2871283019F4877F846006C0282FA1
:1023E0002471243011F48B7F886093FF0DC0282F57
:1023F0002871283119F4877E846106C0282F247142
:10240000243111F48B7E88612091880220FF0DC059
:10241000382F3871383019F4877F816006C0382F23
:102420003171313011F48E7F886021FF0DC0282F6B
:102430002871283119F4877E816106C0282F217107
:10244000213111F48E7E886194FD877E089580E0AD
:1024500008950C946F0E0E9442138FE39CE901973C
:10246000F1F700C000000E94421380E00E94651254
:1024700080FF04C00E9429120C94DF1708950C9469
:102480002B120E94750E811102C00E941D0F0E9426
:10249000800E809353020E94880E9093880280934E
:1024A00087020E943F120E94840E682F70E080E035
:1024B00090E00E942D086091CD017091CE01809135
:1024C000CF019091D0010C946508E82FF0E0EE0F59
:1024D000FF1FEF55FD4F808191810895089580EA97
:1024E0008A95F1F7089500C008950C946F1208952D
:1024F0000C9477120C9478120C9477120C947C1232
:10250000F894E82FE295EF70F0E031A1282F2F70BA
:1025100081E090E001C0880F2A95EAF7982F909506
:10252000932391A392A1892B82A3789408950F936A
:102530001F93CF93DF93C8E7D1E089918F3F11F0CC
:102540000E94801281E0C438D807B9F7CFE6D1E005
:1025500008E711E089918F3F11F00E9480120C175B
:102560001D07C1F7DF91CF911F910F910895AF9291
:10257000BF92CF92DF92EF92FF920F931F93CF9370
:10258000DF938C01C62FD0E0CE0188589E4F6C019E
:10259000DC019C919F3F09F457C0B62EF894E92FB7
:1025A000E295EF70F0E081A19F7021E030E001C082
:1025B000220F9A95EAF7822B81A382A120952823E6
:1025C00022A378940E947312EFE6F1E020E030E05D
:1025D000E12CF12C41E050E081918F3FC1F0A82F18
:1025E000A295AF70B0E090966C9170E08F70DB01B7
:1025F00002C0B595A7958A95E2F7A0FD08C0CA016B
:10260000022E02C0880F991F0A94E2F702C080E0F0
:1026100090E0E82AF92A2F5F3F4F29303105E1F693
:10262000F60180818F3F11F00E94801261E0E11479
:10263000F10409F460E08B2D0E947512CC0FDD1FB0
:10264000C00FD11FF982E882DF91CF911F910F91C6
:10265000FF90EF90DF90CF90BF90AF9008950E94D1
:102660009712E9E8F2E0A1EAB2E0119211921D920C
:102670001D9282E0E13AF807C1F78CE00E948D13C9
:102680000C946203FF920F931F93CF93DF93CDB708
:10269000DEB768970FB6F894DEBF0FBECDBF8E01D0
:1026A0000F5F1F4F88E1F80111928A95E9F7F12C2D
:1026B0006F2DC8010E94B712F394FCE0FF12F8CF0F
:1026C00048E150E0B80189E892E00E94B61EFF247C
:1026D000F394009709F4F12C892B41F088E1F8017B
:1026E000A9E8B2E001900D928A95E1F72F2D4CE018
:1026F00061EA72E089E892E00E948E130E9468030A
:102700008F2D68960FB6F894DEBF0FBECDBFDF9158
:10271000CF911F910F91FF9008950895FF920F930D
:102720001F93CF93DF93F82E092F162FD72FC42F87
:10273000222349F081E0809356020E9492179093E1
:10274000550280935402809156028823D9F08091DB
:102750005402909155020E94AA17059798F0EF2D08
:10276000F02FA12FBD2F80E090E04C2F50E0841778
:10277000950734F4219131912D933D930196F7CF34
:1027800010925602DF91CF911F910F91FF90089503
:102790000E9409170E945B190E9474190E948619F1
:1027A0000E94590FFBCF0F931F93CF93DF93C42F3A
:1027B000D22FFC0182818823C9F0409359020E94E4
:1027C0009217909358028093570280E28C0F8830C2
:1027D00008F057C0C77081E001C0880FCA95EAF7BA
:1027E000DF91CF911F910F910C944E05809159026A
:1027F000481330C080915702909158020E94AA1746
:10280000883C910538F510E21D0FCD17B9F080E234
:102810008C0F883040F4C77081E001C0880FCA95E2
:10282000EAF70E945505183028F581E09D2F977032
:1028300001C0880F9A95EAF70E944E05802F0E94EA
:1028400045051830F0F4D77081E001C0880FDA95A3
:10285000EAF70AC080E28C0F883098F4C77081E0F4
:1028600001C0880FCA95EAF7DF91CF911F910F91B0
:102870000C945505802FDF91CF911F910F910C94EF
:102880004505DF91CF911F910F9108950F939C0102
:10289000CB01243F4CE5340731F188F4293DFCE5B8
:1028A0003F07D9F02A3D4CE5340779F1283D3C45F6
:1028B000A9F506E221EE41EE68ED7CE52BC0263F4E
:1028C000FCE53F07E1F0A8F0273F3C4539F507E27A
:1028D00025EE46EE67EF7CE51DC007E225EE45EEEE
:1028E00069ED7CE517C006E221EE40EE64EF7CE581
:1028F00011C007E225EE44EE65EF7CE50BC006E271
:1029000021EE42EE66EF7CE505C008E221E045EEEF
:102910006AED7CE50E94D31380E008C0FC0182814F
:10292000882319F01092590201C081E00F91089597
:10293000CF93DF93EC01FB018281882309F41FC14F
:10294000C230FCE5DF0708F41BC1C6319CE5D9079E
:1029500038F09E012B5F3C452930310508F010C14D
:102960000E94880E9093880280938702C031ECE524
:10297000DE0709F4C3C008F041C0C8308CE5D807B1
:1029800009F49AC0F0F4C430ECE5DE0709F487C01E
:1029900068F4C2308CE5D80709F477C0C330DC4551
:1029A00009F0E3C080918702826076C0C630ECE512
:1029B000DE0709F46EC008F07BC080918702886052
:1029C0006BC0CC308CE5D80709F485C068F4CA30F8
:1029D000ECE5DE0709F474C008F079C00E94CC076A
:1029E00080918702806858C0CE308CE5D80709F402
:1029F00076C008F07FC0809187028BC0CC3FECE5A9
:102A0000DE0709F44FC018F5C3318CE5D80709F487
:102A10007DC078F4C131ECE5DE0709F473C0C23142
:102A2000DC4509F0A2C00E94CC07809187028F7715
:102A300033C0C5318CE5D80709F472C008F486C0EC
:102A4000CB3FDC4509F091C0809188023EC0C115A2
:102A5000FDE5DF0709F45FC058F4CE3F9CE5D907D8
:102A600009F444C008F43FC08091880282602DC000
:102A7000C230FDE5DF0709F475C008F45DC0C3305E
:102A8000DD4509F072C080E06EC0809187028160F0
:102A900003C08091870280618093870266C0809125
:102AA000870211C0809188028260809388025DC095
:102AB000809187028062F0CF809187028064ECCFA2
:102AC0008091870288608460E7CF8160EECF80913B
:102AD00087028E7FE1CF809187028D7FDDCF80914D
:102AE0008702877FD9CF8091880218C080918802A1
:102AF0008D7FDBCF809187028F7ECECF8091870242
:102B00008F7DCACF809187028F7BC6CF809187024D
:102B1000877F8B7FC1CF809188028D7F8E7FC5CFCD
:102B20008091870282FB222720F991E0922790FB77
:102B300082F990FB83F9B0CF80918802982F90950D
:102B400091708E7F892B90FB81F9AFCF0E94CC07CB
:102B50008091870287FB222720F991E0922790FB42
:102B600087F99ACF81E00E941F0F80918702909190
:102B700088020E94990E0E94CC0780E001C081E08B
:102B8000DF91CF910895CF93DF9386319C4541F536
:102B9000EB010E94B00D982F8A81209100013091A5
:102BA0000101882379F09A7A81E009F480E080932A
:102BB0005A02911102C069E201C065E3C9010E9495
:102BC000E1160AC080915A02811102C069E201C077
:102BD00065E3C9010E94EC160E94020E80E001C06C
:102BE00081E0DF91CF9108959093600280935F021E
:102BF0000895E0915F02F0916002309721F001901A
:102C0000F081E02D099480E00895E0915F02F09159
:102C10006002309799F020910C01222359F0209105
:102C2000870227FF07C0DC012C9111962C93119786
:102C300025E02C930280F381E02D099408952091E2
:102C40005D0230915E022817390771F090935E02A1
:102C500080935D02E0915F02F0916002309721F075
:102C60000680F781E02D0994089520915B02309150
:102C70005C022817390771F090935C0280935B0225
:102C8000E0915F02F0916002309721F00084F185BD
:102C9000E02D09940895FC01329680910C0188235F
:102CA00031F08091870287FF02C09EE101C096E06B
:102CB00080E0915028F021912223D9F38F5FF9CF42
:102CC0000895662351F120910C012223E9F020910F
:102CD000870227FF19C0462F4695469546954E31E7
:102CE000E0F4677021E030E002C0220F331F6A95E4
:102CF000E2F7FC01E40FF11D828190E028233923E3
:102D000081E0232B69F409C0FC01329608962191D9
:102D1000621729F0E817F907D1F780E0089581E0FC
:102D200008959C01FC0132969FEF80E04191461787
:102D300089F09F3F19F4411101C0982F8F5F8630B1
:102D4000A9F79F3F39F0F901E90FF11D97FDFA95B9
:102D50006283089508959C012A5F3F4FFC014281E0
:102D6000461301C01282019682179307B9F708959E
:102D7000262F2695269526952E3168F4FC01E20F24
:102D8000F11D677021E030E001C0220F6A95EAF77B
:102D90008281282B22830895262F26952695269515
:102DA0002E3170F4FC01E20FF11D677021E030E07C
:102DB00001C0220F6A95EAF7209582812823228399
:102DC000089520910C01222329F02091870227FDEC
:102DD0000C94B8160C94911620910C01222329F022
:102DE0002091870227FD0C94CC160C94AB162091F1
:102DF0000C01FC013296222331F08091870287FF7B
:102E000002C08EE101C086E0DF011D928A95E9F7DC
:102E10000895089508950C940A170C940A17CF93F7
:102E20000E940D170E9442130E940B17C0E08C2FC6
:102E30000E946512892B29F4CF5FCC30C1F780E066
:102E400001C081E0CF9108950C940A170C942417C7
:102E50008091C102843049F10E94261780E00E94CF
:102E6000D4031092610220E488E190E00FB6F89458
:102E7000A895809360000FBE2093600083B7817F88
:102E8000846083BF83B7816083BF7894889583B75C
:102E90008E7F83BF0FB6F894A895809160008861FB
:102EA00080936000109260000FBE08950C940A1782
:102EB0000E94CC070E94F9150E94D4030C94561767
:102EC0001F920F920FB60F9211248F939F93AF937F
:102ED000BF9380916102811113C08091B9029091DA
:102EE000BA02A091BB02B091BC024196A11DB11DD6
:102EF0008093B9029093BA02A093BB02B093BC0234
:102F0000BF91AF919F918F910F900FBE0F901F9027
:102F1000189582E084BD93E095BD9AEF97BD8093AC
:102F20006E0008952FB7F8948091B9029091BA027B
:102F3000A091BB02B091BC022FBF08952FB7F894A7
:102F40006091B9027091BA028091BB029091BC026B
:102F50002FBF08959C014FB7F8948091B9029091CA
:102F6000BA02A091BB02B091BC024FBF821B930B6F
:102F7000089578941F920F920FB60F9211248F9399
:102F80009F93AF93BF938091B9029091BA02A091A1
:102F9000BB02B091BC020196A11DB11D8093B90284
:102FA0009093BA02A093BB02B093BC02BF91AF91C1
:102FB0009F918F910F900FBE0F901F90189581E0F9
:102FC0008093E00080E28093D8001092C9008FE1E6
:102FD0009EE40197F1F700C0000087E090EBDC0170
:102FE0008093CA029093CB02A093CC02B093CD02FF
:102FF0009CE088E10FB6F894A895809360000FBE1E
:1030000090936000FFCF9093850180938401089591
:103010008091850208959091C102943031F580939A
:103020006202709364026093630282E08093E9001D
:103030008FEF9091E800815095FD06C095ED9A952F
:10304000F1F700008111F5CF8091E80085FF0DC0F8
:1030500040E050E063E070E082E692E00E94121AE5
:103060008091E8008E778093E8000895BC0184E0A9
:103070000C940B18BC0183E00C940B18CF93DF93D6
:1030800020910C01222339F02091870227FF03C0F1
:1030900060E222E002C068E021E02093E9002FEF27
:1030A0003091E800215035FD06C035ED3A95F1F735
:1030B00000002111F5CF2091E80025FF1DC0EC0193
:1030C00080910C01811105C040E050E068E070E0A3
:1030D00003C070E040E050E0CE010E94121A8091DF
:1030E000E8008E778093E80080E2FE01A5E6B2E07A
:1030F00001900D928A95E1F7DF91CF91089508959F
:103100008091C002811109C00E94A31B0E94001C73
:103110008091E20084608093E20008951092C002E2
:10312000089508950895089542E061EC81E00E94B9
:103130001C1B42E261EC82E00C941C1B8091C302D8
:10314000833009F460C030F4813071F0823009F4CA
:1031500099C008958A3009F485C08B3009F46BC09A
:10316000893009F0A7C020C08091C202813A09F0DD
:10317000A1C08091E800877F8093E8008091C6021B
:103180009091C702892B21F460E285E692E003C0AA
:1031900060E080E090E070E00E945D1A8091E800BD
:1031A0008B778093E80008958091C202813209F004
:1031B00081C08091C6029091C702029708F07AC040
:1031C0008091E800877F8093E8008091E80082FD8D
:1031D00005C08091C1028111F8CF6CC02091F3002D
:1031E0008091F20090E0922B029729F48091F100F7
:1031F0008B7F813021F48091F10080938502809152
:10320000E8008B7753C08091C202813A09F052C026
:103210008091C6029091C702892B09F04BC0809122
:10322000E800877F8093E8008091E80080FFFCCF72
:1032300080910C0136C08091C2028132D9F5809113
:10324000C6029091C702892BA9F58091E800877F7B
:103250008093E8000E94511B8091C40280930C016E
:103260000C94CC078091C202813221F58091E80054
:10327000877F8093E8000E94511B8091C502809354
:10328000860208958091C202813AA1F48091E800FB
:10329000877F8093E8008091E80080FFFCCF8091D9
:1032A00086028093F1008091E8008E778093E80099
:1032B0000C94511B089584B7877F84BF0FB6F89490
:1032C000A8958091600088618093600010926000F2
:1032D0000FBE90E080E80FB6F89480936100909361
:1032E00061000FBE0C944F0F0E94A31B0E94001C94
:1032F000E2EEF0E080818460808378940E94951EE5
:103300000E945D0F82E091E00C94F4158091C1025F
:103310008530A9F48091C102853079F40E94281784
:103320008091BF028823B1F30E940F17882391F385
:103330000E94FC190E94CC07EDCF0E9458170C94F4
:10334000630F0C94A319292F332723303105C9F0BB
:1033500060F42130310581F02230310509F044C09C
:103360008BE390E024E934E043C021323105E1F001
:103370002232310549F138C082E190E02FEC34E08F
:1033800037C099278130910549F028F0029761F5FF
:10339000ECE5F4E005C0E0E9F4E002C0ECE7F4E0BD
:1033A000849190E09F0124C06115710541F0613066
:1033B0007105D1F489E090E02FEB34E019C089E089
:1033C00090E026EA34E014C06115710541F06130E7
:1033D000710551F48DE690E021EE34E009C080E4FF
:1033E00090E02EE435E004C080E090E020E030E0A2
:1033F000FA0131832083089580E189BD82E189BD8E
:1034000009B400FEFDCF8091D8008F7D8093D80055
:103410008091E00082608093E0008091E00081FD77
:10342000FCCF0895CF92DF92EF92FF920F931F93FC
:10343000CF93DF93EC018B017A010E94701B811105
:1034400033C0E114F10439F0F70180819181081B48
:10345000190BC80FD91FC12CD12C0115110519F159
:103460008091E80085FD16C08091E8008E778093FA
:10347000E800E114F10449F0F70180819181C80E60
:10348000D91ED182C08285E00FC00E94701B8823A4
:1034900021F30AC089918093F10001501109FFEFD7
:1034A000CF1ADF0ADACF80E0DF91CF911F910F9121
:1034B000FF90EF90DF90CF9008952091C802309157
:1034C000C9022617370748F06115710539F42091B4
:1034D000E8002E772093E80001C0B901FC0120E04C
:1034E0006115710579F18091C1028823F1F1853070
:1034F000F1F18091E80083FD3CC08091E80082FDFD
:103500002EC08091E80080FFEBCF2091F3008091E6
:10351000F20090E0922B6115710551F08830910511
:1035200038F421912093F100615071090196F3CF95
:1035300021E0089709F020E08091E8008E778093E1
:10354000E800CECF2111CFCF0AC08091C1028823DD
:1035500061F0853061F08091E80083FD0AC08091C0
:10356000E80082FFF2CF80E0089582E0089583E0D2
:10357000089581E008952091C8023091C90226176C
:10358000370748F06115710539F42091E8002E776E
:103590002093E80001C0B901FC0120E0611571052C
:1035A00091F18091C102882309F440C0853009F46B
:1035B0003FC08091E80083FD3DC08091E80082FD1E
:1035C0002FC08091E80080FFE9CF2091F300809127
:1035D000F20090E0922B6115710559F08830910549
:1035E00040F424912093F1003196615071090196C5
:1035F000F2CF21E0089709F020E08091E8008E7773
:103600008093E800CBCF2111CCCF0AC08091C102BA
:10361000882361F0853061F08091E80083FD0AC065
:103620008091E80082FFF2CF80E0089582E0089563
:1036300083E0089581E00895982F973068F590937E
:10364000E900981739F07091EC002091ED0050914D
:10365000F00003C0242F762F50E021FD02C09F5FB1
:10366000ECCF3091EB003E7F3093EB003091ED00DA
:103670003D7F3093ED003091EB0031603093EB00F3
:103680007093EC002093ED005093F0002091EE0039
:1036900027FDE5CF80E008958F708093E90081E0F9
:1036A00008958091C20287FF11C08091E80082FDD9
:1036B00005C08091C1028111F8CF11C08091E8004E
:1036C0008B770BC08091C102882349F08091E8007C
:1036D00080FFF8CF8091E8008E778093E80008950E
:1036E0002091E4003091E50095E64091EC00842FB4
:1036F000817040FF23C08091E80080FD1DC0809153
:10370000C102882399F0853099F08091EB0085FD06
:1037100011C04091E4005091E5002417350729F3CA
:10372000915011F09A01E1CF84E0089582E008956C
:1037300083E0089581E0089580E008954091E800D5
:1037400042FFDDCF08950E94111C0E94191CE0EE7B
:10375000F0E0808181608083E8EDF0E080818F7708
:10376000808319BCA7EDB0E08C918E7F8C93808113
:103770008F7E80831092C00208950F931F93CF9382
:10378000DF930E94111C0E94191CC8EDD0E08881B3
:103790008F77888388818068888388818F7D8883FC
:1037A00019BC1092C1021092BD021092BF02109279
:1037B000BE0200EE10E0F80180818B7F808388815B
:1037C0008160888342E060E080E00E941C1BE1EEA3
:1037D000F0E080818E7F8083E2EEF0E08081816086
:1037E0008083808188608083F80180818E7F8083E0
:1037F000888180618883DF91CF911F910F91089517
:10380000E8EDF0E080818F7E8083E7EDF0E080815D
:103810008160808384E082BF81E08093C0020C9449
:10382000BD1BE8EDF0E080818E7F80831092E20086
:1038300008951092DA001092E10008951F920F92FD
:103840000FB60F9211242F933F934F935F936F9373
:103850007F938F939F93AF93BF93EF93FF93809149
:10386000E10082FF0BC08091E20082FF07C08091DF
:10387000E1008B7F8093E1000E94941E8091DA002A
:1038800080FF1FC08091D80080FF1BC08091DA00AC
:103890008E7F8093DA008091D90080FF0DC080E197
:1038A00089BD82E189BD09B400FEFDCF81E080932E
:1038B000C1020E94801805C019BC1092C1020E946A
:1038C0008E188091E10080FF19C08091E20080FF96
:1038D00015C08091E2008E7F8093E2008091E2002B
:1038E00080618093E2008091D80080628093D8004C
:1038F00019BC85E08093C1020E9492188091E1007A
:1039000084FF30C08091E20084FF2CC080E189BD3B
:1039100082E189BD09B400FEFDCF8091D8008F7D82
:103920008093D8008091E1008F7E8093E1008091A8
:10393000E2008F7E8093E2008091E20081608093BC
:10394000E2008091BD02882311F084E007C08091DD
:10395000E30087FD02C081E001C083E08093C102E3
:103960000E9493188091E10083FF29C08091E200BA
:1039700083FF25C08091E100877F8093E10082E092
:103980008093C1021092BD028091E1008E7F8093EE
:10399000E1008091E2008E7F8093E2008091E2005E
:1039A00080618093E20042E060E080E00E941C1BA6
:1039B0008091F00088608093F0000E949118FF9140
:1039C000EF91BF91AF919F918F917F916F915F9197
:1039D0004F913F912F910F900FBE0F901F90189510
:1039E0001F920F920FB60F9211242F933F934F9374
:1039F0005F936F937F938F939F93AF93BF93CF9377
:103A0000DF93EF93FF93C091E900CF708091EC00BA
:103A1000D82FD17080FDD0E81092E9008091F0009D
:103A2000877F8093F00078940E94341D1092E90003
:103A30008091F00088608093F000CD2BCF70C09310
:103A4000E900FF91EF91DF91CF91BF91AF919F91ED
:103A50008F917F916F915F914F913F912F910F9037
:103A60000FBE0F901F9018951F93CF93DF93CDB784
:103A7000DEB7AA970FB6F894DEBF0FBECDBFE2EC5B
:103A8000F2E08091F100819322E0EA3CF207C9F76D
:103A90000E949E188091E80083FF2EC18091C2028F
:103AA0009091C302492F50E04A30510508F024C1DB
:103AB000FA01EC58FF4F0C94B01E803821F0823888
:103AC00009F01AC108C08091BE029091BF029923EB
:103AD00089F082600FC08091C6028F70873008F035
:103AE0000BC18093E9008091EB0085FB882780F96A
:103AF0001092E9009091E800977F9093E8008093FE
:103B0000F1001092F100D1C0282F2D7F09F0F4C0F0
:103B1000882319F0823061F0EFC08091C4028130B7
:103B200009F0EAC0933009F080E08093BF022EC014
:103B30008091C40281112AC08091C6028F702FEF3C
:103B4000280F263008F0D8C08093E9002091EB00C0
:103B500020FF1CC0933021F48091EB00806214C0E0
:103B60009091EB0090619093EB0021E030E0A9018F
:103B700002C0440F551F8A95E2F74093EA00109265
:103B8000EA008091EB0088608093EB001092E900DE
:103B90008091E800877F8093E8000E94511BACC0B1
:103BA0008111AAC01091C4021F778091E300807830
:103BB000812B8093E3008091E800877F8093E80069
:103BC0000E94511B8091E80080FFFCCF8091E300B0
:103BD00080688093E300111102C082E001C083E09D
:103BE0008093C10289C08058823008F085C08091DE
:103BF000C4029091C5028C3D53E0950779F583E0AE
:103C00008A838AE289834FB7F894DE01139620E015
:103C10003EE051E2E32FF0E050935700E49120FFA3
:103C200003C0E295EF703F5FEF708E2F90E0EA30B7
:103C300010F0C79601C0C0968D939D932F5F2431DD
:103C400049F74FBF8091E800877F8093E8006AE2E0
:103C500070E0CE0101960E945D1A16C06091C60206
:103C60007091C702AE014F5F5F4F0E94A119BC0166
:103C7000892B09F441C09091E800977F9093E80068
:103C800089819A810E94BB1A8091E8008B7780938A
:103C9000E80032C0803881F58091E800877F80930A
:103CA000E8008091BD028093F1008091E8008E775A
:103CB00072CF811121C08091C4029091C5029927D1
:103CC0000297D4F48091E800877F8093E800809188
:103CD000C4028093BD020E94511B8091BD028111DC
:103CE00006C08091E30087FD02C081E001C084E04E
:103CF0008093C1020E9494188091E80083FF0AC05B
:103D00008091E800877F8093E8008091EB008062DB
:103D10008093EB00AA960FB6F894DEBF0FBECDBF1E
:103D2000DF91CF911F9108950895CF938091C102A3
:103D30008823A1F0C091E900CF709091EC00892F09
:103D4000817090FD80E8C82B1092E9008091E80016
:103D500083FD0E94341DCF70C093E900CF91089578
:103D6000EE0FFF1F0590F491E02D0994FB01DC019B
:103D700004C08D910190801921F441505040C8F742
:103D8000881B990B0895F999FECF92BD81BDF89AD1
:103D9000992780B50895A8E1B0E042E050E00C9486
:103DA000F71E262FF999FECF92BD81BDF89A019793
:103DB00000B4021639F01FBA20BD0FB6F894FA9A73
:103DC000F99A0FBE08950396272F0E94D21E0E94D3
:103DD000D11E252F0E94D21E242F0C94D21E019694
:103DE000272F0E94D21E0C94D11EDC01CB01FC01B6
:103DF000F999FECF06C0F2BDE1BDF89A319600B444
:0E3E00000D9241505040B8F70895F894FFCF4E
:103E0E000F0208183E187F183A18361801E200E91A
:103E1E0000EA00B500B600B700CD008301CC008AE1
:103E2E000192019401210223022402250226022777
:103E3E00022A02B300B4006F007000818283E20098
:103E4E00E900EA00B500B600B700CD008301CC0052
:103E5E008A019201940121022302240225022602E4
:103E6E0027022A02B300B4006F00700081828367BC
:103E7E006637929333323130F5F6C6F791909694B9
:043E8E0034973635FA
:00000001FF
