:100000000C94EC040C9433050C9433050C943305D8
:100010000C9433050C9433050C9433050C94330580
:100020000C9433050C9433050C9475240C944725DB
:100030000C94F81E0C9433050C9433050C94330582
:100040000C9433050C9433050C9433050C94330550
:100050000C9433050C94511F0C9433050C94330508
:100060000C9433050C9433050C9433050C94330530
:100070000C9433050C9433050C9433050C94330520
:100080000C9433050C9433050C9433050C94330510
:100090000C9433050C9433050C9433050C94330500
:1000A0000C9433050C9433050C943305AE08AE085C
:1000B000E008E0082D09610A610A610A4B09E009BC
:1000C000F109F109510A610A610A5A0AFD0AFD0A99
:1000D0000F0B0F0B060B0F0B0F0B0F0BFD0AFD0A7F
:1000E0000B0B0F0B0F0B0B0BFB17E9170218581715
:1000F000AF18AF18E617AF18AF182F18AF1843187E
:100100008F18AF18AF18AF18AF186318AF18AF1823
:100110006018AF181B18AF18AF18A918A918A9189C
:10012000A918A918A918A918A918A918AB18AF18BF
:10013000FB17DE17AF18AF18AF18AF18AF18AF180E
:10014000AF18AF18AF18AF18AB18AF18AF18E61745
:10015000AF18A718A718A718A718A718A718A7189F
:10016000A718A718AB18B425DB25D326DB25D32683
:1001700027264A26D326A126B02629002B002A00AE
:10018000670053005400550056005F006000610096
:1001900057005C005D005E00000059005A005B00E3
:1001A0005800620000006341000029002B002A0073
:1001B000670053005400550056005F006000610066
:1001C000005C5C005D005E00000059005A005B00AE
:1001D0005800620000006341000044454255473A20
:1001E0002064697361626C65642E0A00444542555F
:1001F000473A20656E61626C65642E0A004F6E6539
:1002000073686F743A206163746976653A20256477
:100210000A000A0025303258006B6579626F6172FE
:10022000645F7365745F6C65643A20000A00253072
:100230003862003A200025303258000A722F6320BD
:1002400030313233343536370A003F00433E200028
:100250004C25640A000A092D2053746174757320BB
:100260002D0A686F73745F6B6579626F6172645F8A
:100270006C65647328293A20253032580A6B6579F9
:10028000626F6172645F70726F746F636F6C3A203B
:10029000253032580A6B6579626F6172645F6964F8
:1002A0006C653A20253032580A6B65796D61705F54
:1002B000636F6E6669672E6E6B726F3A20253032FF
:1002C000580A74696D65725F7265616433322829FA
:1002D0003A202530386C580A000A092D20566572DC
:1002E00073696F6E202D0A5649443A20307846458E
:1002F000454428414D4A29205049443A2030783617
:100300003036302850414429205645523A20307822
:10031000303030330A4255494C443A202028417548
:10032000672033312032303231290A4F5054494F3F
:100330004E533A204C5546412045585452414B4566
:100340005920434F4E534F4C4520434F4D4D414E46
:1003500044204E4B524F20343039360A4743433AFB
:1003600020352E342E30204156522D4C4942433AEE
:1003700020322E302E30204156525F415243483AAF
:1003800020617672350A000A092D20436F6E736F63
:100390006C65202D0A4553432F713A0971756974B4
:1003A0000A000A092D204D61676963202D0A443A2D
:1003B000094465627567204D6573736167652054F4
:1003C0006F67676C650A583A094D617472697820E5
:1003D0004465627567204D6F646520546F67676C74
:1003E00065202D2053686F77206B65797072657377
:1003F00073657320696E206D61747269782067720D
:1004000069640A4B3A094B6579626F6172642044F2
:100410006562756720546F67676C65202D2053688F
:100420006F77206B65797072657373207265706F7A
:1004300072740A4D3A094465627567204D6F757391
:100440006520546F67676C650A563A095665727382
:10045000696F6E0A533A095374617475730A433AAB
:1004600009416374697661746520436F6E736F6CC4
:1004700065204D6F64650A46312D4631303A095387
:10048000776974636820746F204C617965722030DD
:100490002D392028463130203D204C30290A302D7E
:1004A000393A0953776974636820746F204C617915
:1004B000657220302D390A47524156453A09537723
:1004C0006974636820746F204C61796572203020F4
:1004D00028616C7465726E617465290A423A094A32
:1004E000756D7020746F20426F6F746C6F616465FE
:1004F000720A4553433A094A756D7020746F204261
:100500006F6F746C6F616465722028616C746572C2
:100510006E617465290A453A095072696E74204506
:100520004550524F4D2053657474696E67730A428B
:1005300053504143453A09436C656172204545502B
:10054000524F4D0A4E3A094E4B524F20546F676737
:100550006C650A006261636B6C696768745F636FE6
:100560006E6669672E7261773A20253032580A2EFE
:10057000656E61626C653A2025750A2E6C6576653C
:100580006C3A2025750A006B65796D61705F636F49
:100590006E6669672E7261773A20253032580A2ECE
:1005A000737761705F636F6E74726F6C5F6361709D
:1005B000736C6F636B3A2025750A2E636170736CE0
:1005C0006F636B5F746F5F636F6E74726F6C3A20F2
:1005D00025750A2E737761705F6C63746C5F6C674E
:1005E00075693A2025750A2E737761705F7263749E
:1005F0006C5F726775693A2025750A2E7377617092
:100600005F6C616C745F6C6775693A2025750A2EA2
:10061000737761705F72616C745F726775693A209D
:1006200025750A2E6E6F5F6775693A2025750A2E4B
:10063000737761705F67726176655F6573633A2097
:1006400025750A2E737761705F6261636B736C61ED
:1006500073685F6261636B73706163653A202575CF
:100660000A2E6E6B726F3A2025750A0064656275FA
:10067000675F636F6E6669672E7261773A20253017
:1006800032580A2E656E61626C653A2025750A2E15
:100690006D61747269783A2025750A2E6B657962EE
:1006A0006F6172643A2025750A2E6D6F7573653A15
:1006B0002025750A006565636F6E6669673A0A648E
:1006C000656661756C745F6C617965723A20257539
:1006D0000A003F004E4B524F3A206F66660A004EAA
:1006E0004B524F3A206F6E0A000A6D6F7573653A70
:1006F000206F66660A000A6D6F7573653A206F6E2B
:100700000A000A6B6579626F6172643A206F6666EF
:100710000A000A6B6579626F6172643A206F6E0A33
:10072000000A6D61747269783A206F66660A000A81
:100730006D61747269783A206F6E0A000A646562AE
:1007400075673A206F66660A000A64656275673AE3
:10075000206F6E0A000A0A4A756D70696E67207410
:100760006F20626F6F746C6F616465722E2E2E2025
:1007700000433E2000436C656172696E6720454509
:1007800050524F4D0A006261636B6C696768742058
:10079000737465703A2025750A006261636B6C6939
:1007A0006768742064697361626C650A00626163E2
:1007B0006B6C6967687420656E61626C650A0062C3
:1007C00061636B6C6967687420746F67676C653A06
:1007D0002025750A006261636B6C69676874206428
:1007E000656372656173653A2025750A006261630D
:1007F0006B6C6967687420696E6372656173653AD2
:100800002025750A000A002530325820006B6579D2
:10081000626F6172645F7265706F72743A20006417
:10082000656C5F6B65795F6269743A2063616E27FE
:10083000742064656C3A20253032580A0061646483
:100840005F6B65795F6269743A2063616E2774201B
:100850006164643A20253032580A005B735D004BB6
:100860006579626F6172642073746172742E0A001C
:100870005B575D005B535D005B525D005B445D0058
:100880005B435D0008035000410044000000080382
:1008900041004D004A0000000403090409025B0006
:1008A000030100A0FA09040000010301010009216D
:1008B000110100012240000705810308000A090414
:1008C00001000103000000092111010001226D0057
:1008D0000705820320000A09040200020300000049
:1008E00009211101000122220007058303200001D4
:1008F000070503032000011201000200000008EDBB
:10090000FE60600300010200010631FF0974A101CD
:100910000975150026FF00952075088102097615D6
:100920000026FF00952075089102C005010980A1ED
:1009300001850319012AB700150126B70095017535
:10094000108100C0050C0901A101850419012AA02C
:1009500002150126A002950175108100C00501094C
:1009600006A1018505050719E029E7150025019570
:1009700008750181020507190029EF150025019569
:10098000F075018102050819012905950575019188
:1009900002950175039101C005010906A101050732
:1009A00019E029E7150025019508750181029501D7
:1009B000750881010507190029FF150026FF00951C
:1009C000067508810005081901290595057501912D
:1009D00002950175039101C011241FBECFEFDAE02B
:1009E000DEBFCDBF04B603FE27C0809166029091A2
:1009F0006702A0916802B09169028730904BA740CE
:100A0000B04BD1F410926602109267021092680205
:100A10001092690214BE84B7877F84BF0FB6F89422
:100A2000A8958091600088618093600010926000BA
:100A30000FBEE0E0F8E3099511E0A0E0B1E0E2E9E3
:100A4000FFE402C005900D92A838B107D9F722E063
:100A5000A8E8B1E001C01D92A636B207E1F70E94F6
:100A60001A170C94C7270C940000FF93EF93E091A2
:100A70008801F0918901309709F00995EF91FF9174
:100A80000895FC018591803011F0EFDFFBCF0895D0
:100A9000FF27E0E230E247FF0CC0419597FF09C015
:100AA000EDE26095709580959095611D711D811D99
:100AB000911D27FF02C0219530E350E2AA27660F5F
:100AC000771F881F991FAA1FA41710F0A41B6395F6
:100AD0005A95A9F7AA3008F0A95FA05DAF93F395E6
:100AE000611571058105910541F7ED3211F4EF9320
:100AF000F395F21718F43F93F395FBCF8F91B5DF81
:100B0000FA95E1F70895E991F9918591803021F006
:100B1000853219F0AADFF9CF089520E0E8945591C5
:100B20005532C1F3503311F4689455915A3348F457
:100B3000505390F3220F022E220F220F200D250F6B
:100B4000F4CF0EF4219589919991533619F35337C7
:100B500029F1533559F1BC0188279927E8945C366F
:100B600021F48991999168945591543639F446EF5E
:100B70007EF077FF0DC08FEF9FEF0AC055374AE038
:100B800039F0583540E121F0523642E009F008953D
:100B9000FF93EF937DDFEF91FF91B7CFFF93EF933B
:100BA000FC0181918030B9F360DFFBCFFF93EF93BD
:100BB00068DFF1CFDF93CF93CDB7DEB72596A3DF04
:100BC000CF91DF91089581E0089581E008950C941C
:100BD000E50508950C94E9051F93CF93DF9300D0AA
:100BE00000D01F92CDB7DEB749835A836B83309113
:100BF0008A0189819A81311114C0662359F0222318
:100C000049F00E949F0C182F682F89819A810E94B9
:100C10004A0C03C00E94740C182F69817A81812FBD
:100C200004C00E949F0C69817A810F900F900F90F1
:100C30000F900F90DF91CF911F910C945A13FC01EC
:100C4000262F408151816281738184810C94EC054F
:100C500081E00895CF93DF93EC0160E00E941F06CE
:100C6000BE01DF91CF910C94EA050E9468150E94A5
:100C7000EB060E94FA1A0C94E7150C94E3150895FC
:100C80000E94EB0A0E943F062FEF84E39CE0215074
:100C900080409040E1F700C000000C94771F0F9354
:100CA0001F93CF93DF938C0161E00E941F06EC013C
:100CB000B8010E94E705882309F462C0B801CE019B
:100CC0000E94631A882309F45BC0B801CE010E9418
:100CD0007D1B882309F454C0B801CE010E94CF1BAC
:100CE000882309F44DC0B801CE010E94FA1C882364
:100CF00009F446C0F80182818823D9F1CF3D8CE503
:100D0000D80779F140F4C115FCE5DF0791F0C13057
:100D1000DC4591F02EC0CC35EDE5DE0741F1CD3557
:100D2000FDE5DF0709F1CB35DD4519F50E94DB1044
:100D300020C00E94400624C080910E02C82FC0959A
:100D4000C170C0FB80F980930E02CC2329F08CEE99
:100D500091E00E94410514C08AED91E00E94410596
:100D600010C00E9448120CC00E94D21002C00E9403
:100D7000DE10C801DF91CF911F910F910C94E30514
:100D8000C0E08C2FDF91CF911F910F910895829534
:100D9000982F937344E0949F900111248C7C869546
:100DA0008695282B822F8575880F2A7A2695822B87
:100DB000089508950C94D90681E00895CF93C82F23
:100DC0000E94DC06882329F0C0FD02C05E9A01C0A3
:100DD0005E98CF910895569A5E9A0895CF93C82F42
:100DE0000E94DA068C2F0E94DE06CF910895CF93E1
:100DF000DF93CDB7DEB72B970FB6F894DEBF0FBEEB
:100E0000CDBF4F83588769877A878B8761110E948E
:100E100001119E012F5F3F4F86E0F90111928A95E3
:100E2000E9F785E0FE013796D90101900D928A9588
:100E3000E1F789819A814C815D81452B31F09F3F9B
:100E400031F491E08F3F19F403C091E001C090E0CC
:100E500090FF09C049815A816B817C818D819E817F
:100E60000E94ED0F05C0C9010E9428068111F2CF32
:100E70002B960FB6F894DEBF0FBECDBFDF91CF919A
:100E80000895FC01808191810E94E10C0895CF9327
:100E9000882309F4A1C0C82F8238C1F40E94301DF4
:100EA00081FD9AC069E380910001909101010E9447
:100EB000751E0E9433112FEF81EE94E02150804087
:100EC0009040E1F700C0000069E319C0833801F5E4
:100ED0000E94301D80FD80C063E5809100019091EB
:100EE00001010E94751E0E9433112FEF81EE94E0E4
:100EF000215080409040E1F700C0000063E5809100
:100F00000001909101010E94801ECF910C94331139
:100F10008438C1F40E94301D82FD5EC067E4809178
:100F20000001909101010E94751E0E9433112FEF64
:100F300081EE94E0215080409040E1F700C0000035
:100F400067E4DDCF8CEF8C0F813AF8F48C2F0E9490
:100F5000C118811141C06C2F809100019091010155
:100F60000E94D31D882349F06C2F8091000190913D
:100F700001010E94801E0E9433116C2F809100019C
:100F8000909101010E94751EC0CF80E28C0F8830C5
:100F900048F4C77081E001C0880FCA95EAF70E9443
:100FA000E410B3CFEBE5EC0FE33040F4F0E0E55CA8
:100FB000FE4F808190E0CF910C94911DC85AC731AB
:100FC00058F4EC2FF0E0EE0FFF1FE35FFE4F80813F
:100FD0009181CF910C94A71DCF910895882309F496
:100FE0005BC0682F823879F40E94301D81FF54C0A5
:100FF00069E380910001909101010E94751E0E9499
:10100000331169E310C08338B1F40E94301D80FFB2
:1010100043C063E580910001909101010E94751E1B
:101020000E94331163E580910001909101010E94BB
:10103000801E0C943311843879F40E94301D82FF95
:101040002BC067E480910001909101010E94751E00
:101050000E94331167E4E7CF8CEF860F813A18F3D3
:1010600080E2860F883048F4677081E001C0880F05
:101070006A95EAF70E94EA10DCCF8BE5860F833091
:1010800020F480E090E00C94911D685A673120F4C0
:1010900080E090E00C94A71D08951F93CF93DF93F9
:1010A000182FEB010E944707209741F08FE99FE03E
:1010B0000197F1F700C000002197F6CF812FDF9153
:1010C000CF911F910C94EE07893319F060E070E026
:1010D00002C060E570E00C944D08882321F00E9466
:1010E000E4100C9433110895882321F00E94EA1033
:1010F0000C9433110895CF92DF92EF92FF920F93E9
:101100001F93CF93DF937C01062FC72FFC01D28161
:10111000158112951F700E94A510882399F0DD2378
:1011200089F08C2F807F803421F080E2800F88301E
:1011300048F082E00E9483110E94A51091E0D82E11
:10114000D92601C0D12CCC2EC2948FE0C8228C2D80
:1011500090E0FC01EA5AFF4F0C9458278C2F807FB7
:10116000CF70882311F0C295C07FDD2399F0CC2386
:1011700009F482C180E2800F883010F0011104C0B0
:101180008C2F0E94E41003C08C2F0E94F4100E9448
:10119000331172C1802F0E94EE07CC2309F491C154
:1011A00080E2800F883010F0011104C08C2F0E9463
:1011B000EA1003C08C2F0E94FA100E94331181C1E3
:1011C0008C2F807FCF70803211F0C295C07F0023BA
:1011D00019F00130C9F022C0DD2371F0112341F074
:1011E000113031F40E9414118C2B0E941C1169C122
:1011F0000E9414118C2B1DC0112319F0113009F419
:1012000060C10E94291125C0DD2321F0163008F0AD
:1012100058C10EC0153008F054C11BC0DD2361F069
:10122000112331F0F701858180FF26C18F708583FE
:101230008C2F0E946D0845C1112359F0093309F024
:101240002CC1FFEF27EE83E0F15020408040E1F712
:1012500022C18C2F0E94740834C18C2F86958695EC
:10126000837019F0813061F02CC1DD2321F0802FD3
:101270009C2F937002C080E090E00E94911D29C1D4
:10128000DD2321F0802F9C2F937002C080E090E03E
:101290000E94A71D1EC18C2F837009F045C0D1117B
:1012A00014C1402F429546954770440F440F602F5C
:1012B0006F70862F90E0A0E0B0E0042E04C0880F8D
:1012C000991FAA1FBB1F0A94D2F704FF10C00FE09A
:1012D00010E020E030E004C0000F111F221F331F78
:1012E0004A95D2F7009510952095309503C000E0FF
:1012F00010E09801C695C695C370BC01CD01602B66
:10130000712B822B932BC23049F058F4C13019F065
:101310000E94600BDAC00E944E0BD7C00E94720B75
:10132000D4C00E944C0BD1C0DD2319F08C2F8170EA
:1013300001C08695882309F4C8C0402F4295469580
:101340004770440F440F602F6F70862F90E0A0E02D
:10135000B0E0042E04C0880F991FAA1FBB1F0A9477
:10136000D2F704FF10C00FE010E020E030E004C02E
:10137000000F111F221F331F4A95D2F700951095B9
:101380002095309503C000E010E09801C695C69501
:10139000C370BC01CD01602B712B822B932BC2300B
:1013A00049F058F4C13019F00E94250C8EC00E94FB
:1013B000130C8BC00E94370C88C00E94860B85C01E
:1013C000CF70DD2339F08C2F0E94AC0B802F0E9450
:1013D0006D087BC0802F0E9474088C2F0E94CD0B5B
:1013E00074C0023F01F128F4003F41F0013FA1F039
:1013F0003FC0033FF9F0043F39F13AC0DD2341F02B
:10140000153008F05EC08C2F8F710E94F20B59C00E
:10141000163008F056C0F7CFDD2339F08C2F8F71CE
:101420000E94AC0B4EC0DD23C9F38C2F8F710E943C
:10143000CD0B47C0DD2329F08C2F8F710E94970BB5
:1014400040C00E94920B3DC0DD2349F0CF718C2F2C
:101450000E94AC0B63E08C2F0E94681132C081E0C7
:101460000E948311123068F182E00E94831129C02A
:10147000DD2331F0112391F2802F0E94470721C014
:10148000112399F2093349F49FEFE7EEF3E091500D
:10149000E040F040E1F700C00000802F0E94EE071E
:1014A00010C04C2F4F70602FC7010E9456130E942E
:1014B0000F0D0FC04C2F4F70602FC7010E945913A2
:1014C00008C088EF8C0D843020F40E94301D0E94EB
:1014D000EE06DD20C9F00E94A11080FD15C0F701C5
:1014E00012820E949B100E94AC0BC7010E94A50AA9
:1014F0000E949B10DF91CF911F910F91FF90EF9071
:10150000DF90CF900C94CD0BDF91CF911F910F9175
:10151000FF90EF90DF90CF9008950F931F93CF939C
:10152000DF93EC01688179818A810E94EC0C8C0147
:101530000E94490C0E943A0BB801CE010E947B0820
:10154000DF91CF911F910F910895CF93DF93EC011D
:10155000988189812B813C81232B31F08F3F31F49D
:1015600081E09F3F19F403C081E001C080E080FD6D
:1015700019C0CE010E944F0681110CC00E94A51017
:10158000882381F08A81882369F082E0DF91CF91FE
:101590000C948311CE010E948D0ACE01DF91CF9170
:1015A0000C942A06DF91CF91089580E090E00E948C
:1015B000911D80E090E00E94A71D0E9401110E94F1
:1015C00011110C94331180910001909101010E943E
:1015D0008B1E0C94D50A0E94F1100C94E30AE92F9B
:1015E000E295EF704E2F50E0FA013297EE30F105A0
:1015F000B0F4EA59FF4F0C945827803F91F018F44B
:10160000883E68F40EC0843F51F40BC0883E48F019
:10161000813F29F406C093FB882780F9089580E074
:10162000089581E00895FC01808191810E94E10C80
:101630000E94EF0A0895CF93DF9300D000D01F924D
:10164000CDB7DEB70F900F900F900F900F90DF91F6
:10165000CF910895CF93DF9300D000D000D0CDB7C5
:10166000DEB726960FB6F894DEBF0FBECDBFDF9172
:10167000CF910895089508950C943B0B0C943C0B66
:101680000E943E0B60939E0170939F018093A00186
:101690009093A1010C94D50A0C94400B0F931F93C7
:1016A00000919E0110919F012091A0013091A10114
:1016B000602B712B822B932B1F910F910C94400B5D
:1016C0000F931F9300919E0110919F012091A00103
:1016D0003091A10160237123822393231F910F91E5
:1016E0000C94400B0F931F9300919E0110919F014A
:1016F0002091A0013091A1016027712782279327B3
:101700001F910F910C94400B0C943B0B0E94840B87
:1017100060939A0170939B0180939C0190939D012B
:101720000C94D50A60E070E0CB010C94860B0F930B
:101730001F9341E050E060E070E08A019B0104C02B
:10174000000F111F221F331F8A95D2F7C901B8015C
:101750001F910F910C94860B0F931F9341E050E063
:1017600060E070E004C0440F551F661F771F8A9524
:10177000D2F780919A0190919B01A0919C01B09128
:101780009D018A019B01082B192B2A2B3B2BC90198
:10179000B8011F910F910C94860B0F931F9341E09A
:1017A00050E060E070E004C0440F551F661F771FD3
:1017B0008A95D2F7409550956095709580919A01E1
:1017C00090919B01A0919C01B0919D018A019B0188
:1017D000082319232A233B23C901B8011F910F9124
:1017E0000C94860B0F931F9341E050E060E070E093
:1017F00004C0440F551F661F771F8A95D2F780914A
:101800009A0190919B01A0919C01B0919D018A0148
:101810009B01082719272A273B27C901B8011F91D7
:101820000F910C94860B0F931F9300919A011091C6
:101830009B0120919C0130919D01602B712B822B8B
:10184000932B1F910F910C94860B0F931F93009174
:101850009A0110919B0120919C0130919D01602380
:101860007123822393231F910F910C94860B0F9366
:101870001F9300919A0110919B0120919C0130913E
:101880009D0160277127822793271F910F910C9448
:10189000860B0895990F990F890FE82FE695E69525
:1018A000E695877051E001C0550F8A95EAF785E00B
:1018B000E89FF0011124E557FE4F20E030E070E092
:1018C0004081CB01022E02C0969587950A94E2F7DB
:1018D0008170819584278523842781932F5F3F4FD3
:1018E0002530310569F70895990F990F890F682FF1
:1018F000669566956695982F977085E0689FB0010C
:10190000112440E050E080E0FB01E40FF51FE557B3
:10191000FE4F208130E0092E02C0369527950A94AB
:10192000E2F721703327042E01C0220F0A94EAF750
:10193000822B4F5F5F4F4530510531F70895BF92BD
:10194000CF92DF92EF92FF920F931F93CF93DF938B
:101950008C01C0909A01D0909B01E0909C01F09086
:101960009D0180919E0190919F01A091A001B09155
:10197000A101C82AD92AEA2AFB2ACFE1D0E0D7015F
:10198000C6010C2E04C0B695A795979587950A9425
:10199000D2F780FD04C0219790F7B12C07C0BC2E70
:1019A000B8018C2F0E948B140197A9F38B2DDF9126
:1019B000CF911F910F91FF90EF90DF90CF90BF904C
:1019C0000895CF93DF93EC010E949F0CBE010E940B
:1019D0008B14DF91CF9108951F93CF93DF93EB0189
:1019E00090918A01992321F0CB010E94E10C13C050
:1019F000882349F0CB010E949F0C182F682FCE013D
:101A00000E944A0C04C0CB010E94740C182FBE0126
:101A1000812F0E948B14DF91CF911F910895EF9237
:101A2000FF920F931F93CF93DF938C01892B09F4BF
:101A30006CC0F12CEE24E394E8012196F801849126
:101A4000843740F4843008F051C0813081F0823016
:101A500019F15BC0853709F444C0A8F19CE7980FE1
:101A6000903708F052C08F770E94EE0741C00E5F9A
:101A70001F4FFE01849190E2980F983050F48770C8
:101A8000FE2D01C0FF0F8A95EAF78F2F0E940411E7
:101A900014C00E9447072DC00E5F1F4FFE018491A6
:101AA00090E2980F983060F48770FE2D01C0FF0F10
:101AB0008A95EAF78F2F0E940A110E94331119C0EC
:101AC0000E94EE0716C00E5F1F4FFE01C491CC238B
:101AD00081F08FE99FE00197F1F700C00000C1504D
:101AE000F6CF0E5F1F4FFE01F49003C00E94470720
:101AF0008E018F2D882309F49FCFEFE9FFE0319706
:101B0000F1F700C000008150F5CFDF91CF911F9118
:101B10000F91FF90EF9008951F93CF93DF93C091A3
:101B2000A20116E08091A301C81799F0D0E01C9F94
:101B3000F0011D9FF00D1124EC55FE4F40815181A5
:101B400062817381848195810E942A0B2196C770DE
:101B5000E9CFDF91CF911F9108954091D401509129
:101B6000D5016091D6017091D7018091D8019091F3
:101B7000D9010C942A0B0F931F93CF93DF9380917D
:101B8000D90182958F7009F05DC08091D6018823BC
:101B900009F458C08091A2011091A3016091D40171
:101BA0007091D501C091D701D091D80191E06F3FDC
:101BB00009F090E0292F06E0811709F443C020972F
:101BC00021F07F3F21F030E003C031E001C0322F2F
:101BD00090E030FD34C0089FF001099FF00D112402
:101BE000DF01AC55BE4F11963C911197371327C0BA
:101BF0003C91361324C012963C91129731111FC0AC
:101C000013964D915C9114974C1B5D0B483C51050C
:101C1000B0F48091D9018F7080618093D901E7552C
:101C2000FE4F80818F708061808384ED91E00E94FF
:101C3000A50ADF91CF911F910F910C948C0D019605
:101C40008770BACFDF91CF911F910F9108959F9226
:101C5000AF92BF92CF92DF92EF92FF920F931F93BA
:101C6000CF93DF93CDB7DEB761970FB6F894DEBFA1
:101C70000FBECDBF8C0185E0F801DE011D960190FD
:101C80000D928A95E1F7F801E2809091D40160917C
:101C9000D5012091D7013091D8012115310531F0BE
:101CA0006F3F31F481E09F3F19F403C081E001C030
:101CB00080E0F82FF1709F2E80FD3FC1F801408138
:101CC0005181A380B48084EDC82E81E0D82EF0909D
:101CD000D601F501E21BF30BFF2009F4D9C0809176
:101CE000D901E83CF10508F095C0282F207F09F0C4
:101CF00052C0561313C0491311C0FE2CE1100EC080
:101D00008F7080618093D9010E94AD0DC6010E9441
:101D1000A50A8091D901F80185834CC1AB2831F027
:101D20005F3F31F481E04F3F19F403C081E001C00F
:101D300080E080FD03C081E08E2502C080E090E05D
:101D4000F82FF170FF2E80FF1CC08091A20120911E
:101D5000A30136E0821709F40BC190E0389FF0012F
:101D6000399FF00D1124EC55FE4F6181561306C0CA
:101D70006081461303C06281E61203C0019687703A
:101D8000E9CFFE2CEE2009F415C18091D9018160C4
:101D90008093D90154C0561306C0491304C0E11002
:101DA00002C0F80199C0C8010E94130B882361F199
:101DB000EE2051F12091D901822F82958F7090E011
:101DC000029774F08091D4019091D50198878F8308
:101DD0001986BB86AA862C87CE0107960E94A50A83
:101DE00086E0F801A4EDB1E001900D928A95E1F74B
:101DF0000E94BB0D0E94AD0D0AC0561711F1C8011B
:101E00000E94130B81112CC0C8010E94A50AFF2457
:101E1000F394D0C0282F207F81F77A2DB98AA88A21
:101E20006E2D89890E941B0B84ED91E00E94A50A0A
:101E300086E0F60111928A95E9F70E94AD0DF12C2A
:101E4000B9C04913DCCFE110DACFF8018583C801AE
:101E50000E94A50A86E0F60111928A95E9F7AAC0C8
:101E6000EE2091F22091D901822F82958F7090E01F
:101E700002970CF4B5CF8091D4019091D5019A834B
:101E800089831B82BD82AC822E83CE010196A6CFB0
:101E9000E83CF10508F044C0FE2CEE2009F4B4CF74
:101EA000561330C049132EC02091D90120FD21C006
:101EB000822F82958F70482F50E041155105C9F04F
:101EC000F80125834F30510541F08F5F982F92958F
:101ED000907F822F8F70892B8583C8010E94A50A6D
:101EE00086E0F801A4EDB1E001900D928A95E1F74A
:101EF0003CC086E0F801A4EDB1E001900D928A9516
:101F0000E1F758C0C8010E94130B811169CF80917D
:101F1000D90181608093D901C8010E94A50A4AC0F5
:101F20007A2DB98AA88A6E2D89890E941B0B86E0BA
:101F3000F60111928A95E9F718C0EE2009F464CFF2
:101F4000C8010E94130BF82E882309F45DCF86E0A8
:101F5000F801A4EDB1E001900D928A95E1F784EDCE
:101F600091E00E9441070E94BB0D0E94AD0D22C06E
:101F70004D875E878D859E850E94E10C292F2295D5
:101F80002F70223028F49F7039F0811105C00BC0EA
:101F9000243028F49F7049F4805E883020F0C80116
:101FA0000E94A50A9F2CF92C05C0F8019581907F0D
:101FB00099F7F9CF8F2D61960FB6F894DEBF0FBE5B
:101FC000CDBFDF91CF911F910F91FF90EF90DF90E8
:101FD000CF90BF90AF909F9008951F93CF93DF93C2
:101FE000CDB7DEB72C970FB6F894DEBF0FBECDBFCE
:101FF0004F83588769877A878B879C87CE0107969E
:102000000E94270E8823D1F09F8188852A853B85F1
:10201000232B31F08F3F31F481E09F3F19F403C04F
:1020200081E001C080E080FD47C04F81588569850F
:102030007A858B859C850E942A0B3EC086E0FE0136
:102040003796DE01119601900D928A95E1F7FF8196
:10205000E8856A857B856115710531F0EF3F31F4C4
:1020600081E0FF3F19F403C081E001C080E080FD02
:1020700023C02091A30130E0C90101968770992700
:102080004091A20150E084179507F1F1F983EA83AA
:102090007D836C8396E0929FD001939FB00D1124B5
:1020A000AC55BE4FFE01319601900D929A95E1F725
:1020B0008093A3010E948C0D16E08091A201909163
:1020C000A301891771F1189FC00111248C559E4FEF
:1020D0000E94270E882329F1E091A2011E9FF001A2
:1020E0001124EC55FE4F40815181628173818481BE
:1020F00095810E942A0B8091A20190E00196877041
:1021000099278093A201D9CF0E94EB0A1092A301D4
:102110001092A201E4EDF1E086E0DF011D928A95C4
:10212000E9F72C960FB6F894DEBF0FBECDBFDF9156
:10213000CF911F9108958091DA01859585958595B8
:1021400008958091DA01877008959091DA0197706F
:1021500081E009F480E00895CF939091470292FBCB
:10216000222720F92817E1F0C82F892FC0FB82F918
:102170008093470280914602909147020E94C411C9
:1021800080910E0280FF0CC01F92CF938DEF91E0E3
:102190009F938F930E94DA050F900F900F900F90EE
:1021A000CF9108958091470282FB882780F991E0C2
:1021B00089270C94AC1081E00C94AC1080E00C9456
:1021C000AC108091FE0108959091FE01892B8093BF
:1021D000FE01089580959091FE0189238093FE0170
:1021E00008951092FE0108959091FD01892B80932E
:1021F000FD01089580959091FD0189238093FD0153
:1022000008951092FD0108959091FC01892B80930F
:10221000FC01089580959091FC0189238093FC0135
:1022200008951092FC0108958091DB0108950895AE
:102230000C9417110C9418119091470292FD08C04C
:102240009091DB01981721F08093DB010C941A1117
:1022500008958091DB01882329F01092DB0180E052
:102260000C941A110895E0910001F0910101809100
:10227000FE018083E0910001F09101019081809145
:10228000FD01892B8083E0910001F0910101908193
:102290008091FC01892B80838091DB01882381F070
:1022A000E0910001F09101019081892B8083809160
:1022B0000001909101010E94BD1D81110E94291110
:1022C00080910001909101010C943C1D0C94171118
:1022D0009091470292FD10C098E0899F90011124CF
:1022E000262B2093DA010E94AC0B8091DA018595B0
:1022F000859585950C9466110C94AC0B1092DA01BF
:1023000080E00C9466112091DA01809582238093FD
:10231000DA01982F977041F430E0482F082E000C16
:10232000550B2417350721F49091470292FF07C0FF
:102330008595859585950E94CD0B0C947E11089509
:1023400080E090E00E948D2721E0893E9E4F09F0B9
:1023500020E0822F089582E090E00C94852783E0AE
:1023600090E00C948527CF9384E090E00E9485272D
:10237000C82F82E290E00E9485272C2F30E0A9012F
:10238000582BCA01CF910895CF93C92F682F84E0AD
:1023900090E00E9493276C2F82E290E0CF910C9402
:1023A0009327AB01BC018FE090E00C94A527AB0113
:1023B000BC0183E190E00C94A52760E070E0CB01C4
:1023C0000C94D71160E070E0CB010E94D1110C9405
:1023D000DD1169EE7EEF80E090E00E94B12760E0C1
:1023E00082E090E00E94932760E083E090E00E940A
:1023F000932710929E0110929F011092A0011092BB
:10240000A10160E084E090E00E94932760E082E216
:1024100090E00E94932760E085E090E00E9493277F
:1024200060E086E090E00E9493276FEF87E090E005
:102430000E94932740E050E0BA0188E090E00E94BB
:10244000A52760E08DE090E00E94932740E050E0F7
:10245000BA0188E190E00E94A52760E087E190E062
:102460000E94932740E050E0BA018CE190E00E9486
:10247000A52760E070E080E290E00E94B12740E094
:1024800050E0BA0188E190E00E94A5270C94E21187
:102490000C94E911682F8EE090E00C9493270E9431
:1024A000361F60930A0270930B0280930C02909384
:1024B0000D026093060270930702809308029093C6
:1024C0000902089585B7806885BF85B7806885BF94
:1024D000089581E008950C94691208950C946D128A
:1024E0000C946D120C9470120C946D120C94741266
:1024F0000C946D120E9462128AE491E20E949B1F6A
:102500000E9478120C9476120E946E120C946D1236
:102510000E94211F0E948A160E941B190C9472129D
:10252000CF93C82F80910E0282FF1EC080FF04C08F
:1025300089E192E00E94410580910E0280FF0CC06B
:102540001F92CF9384E192E09F938F930E94DA05CC
:102550000F900F900F900F9080910E0280FF04C09B
:1025600082E192E00E9441058C2FCF910C94EE06FF
:102570009F92AF92BF92CF92DF92EF92FF920F9312
:102580001F93CF93DF93CDB7DEB72A970FB6F8949A
:10259000DEBF0FBECDBF0E949B1681110E944F125D
:1025A00080E0A82E82E0B82E00E010E0902E802F70
:1025B0000E948C15D82EF501C1905F01C826B1F498
:1025C0000F5F1F4F0630110589F78FEF89838A83CC
:1025D0001B820E942A1F8160782F9D838C834981F2
:1025E0005A816B818D810E94F7062FC080910E0267
:1025F00081FD0E949215E12CFF24F3948C2D8F21F4
:10260000F1F00E946B12882399F0EE829F82DF2006
:1026100081E009F480E088870E942A1F8160782F7A
:102620009A8789874E815F8168858A850E94F7062F
:10263000F801E050FE4F8081F826F08206C0E39456
:10264000FF0CF4E0EF12DACFBBCF0E94F91A0E9420
:10265000301D9091FF018917B9F00E94301D8093C1
:10266000FF012A960FB6F894DEBF0FBECDBFDF91F3
:10267000CF911F910F91FF90EF90DF90CF90BF907F
:10268000AF909F900C9490122A960FB6F894DEBFEC
:102690000FBECDBFDF91CF911F910F91FF90EF90B3
:1026A000DF90CF90BF90AF909F90089580E090E032
:1026B00008950895E72FF0E096E0899FE00DF11D61
:1026C0001124EE0FFF1FEE0FFF1FE60FF11DEE0F9F
:1026D000FF1FE658FE4F859194910895880F991F2A
:1026E000FC01E45DFD4F859194910895CF93DF93B4
:1026F0000E949014EC01811520E5920708F041C07A
:10270000811540E4940708F0CBC0803E910520F588
:10271000803C910508F0B8C0883A910570F4853A7C
:10272000910508F0A8C08130910509F4A1C008F412
:10273000EBC0049708F0EBC0E7C08F3B910508F0B1
:10274000E3C0885AC82FD0E0CC0FDD1FC25CDE4F3B
:10275000888199819464DCC0811550E2950750F41A
:10276000C11581E0D80708F0D2C0C83ED10508F4F1
:10277000CEC0CAC0811520E3920708F08AC09F70BE
:1027800085C0811545E5940708F046C0811554E5DC
:10279000950708F09DC0C11582E5D80718F5C11549
:1027A00021E5D20708F07FC0CE01F4E09695879529
:1027B000FA95E1F7282F23703C2F337081E090E0E9
:1027C00002C0880F991F3A95E2F79C68922B2C2F34
:1027D0002F702695269540E2249F90011124822B8C
:1027E000932B96C09E01237033279C2F9695969528
:1027F000C115D34508F05CC041E050E002C0440F71
:10280000551F2A95E2F780E2989F90011124CA0192
:10281000822B932B9C687CC0811559E5950798F411
:10282000C11588E5D80708F058C0C11526E5D207BC
:1028300008F06AC08C2F0E9424158F7190E0982FA9
:102840008827906265C081154AE5940708F44AC05C
:1028500090568115904208F057C08D2F8F710E94BD
:1028600024159E01332730628F71A901582B4AC06D
:1028700081E090E04DC0855AC82FD0E0C459DE4FAA
:10288000888190E0906444C0805C91090E946E133E
:102890003FC09927D3FF02C0986C3AC0906C38C0F3
:1028A0009F70906A35C09C2F8827816F906A30C0D6
:1028B00041E050E002C0440F551F2A95E2F780E244
:1028C000989F90011124CA01822B932B9A6820C0F3
:1028D000982F8827846F906A1BC09C2F8827806F51
:1028E000906A16C08F700E9424159E0194E0369560
:1028F00027959A95E1F72F7030E0322F2227306923
:10290000A901482BCA0104C080E090E001C0CE01BB
:10291000DF91CF9108950E945A130E947613089573
:102920008238910569F1B0F48133910509F46DC0E5
:1029300048F48932910509F463C08A32910509F49B
:1029400069C008958533910509F455C0893391050F
:10295000B9F00895833E910569F138F4803E910500
:10296000B1F0823E910509F10895863E9105A9F1E5
:10297000873E9105B9F1843E910509F064C023C0FA
:102980002091460220FD4FC021FD4DC00895809149
:10299000460280FD44C08091470280FF44C0809180
:1029A000460284FD42C083EE4DC08091460282FF04
:1029B00038C0F5CF8091460282FD33C08091470236
:1029C00080FD31C0ECCF8091470281FF32C0809101
:1029D000460284FD2AC087EE35C08091460283FFFF
:1029E00026C0F5CF8091460283FD21C08091470229
:1029F00081FD1FC0ECCF8091460285FD1CC01DC02B
:102A00008091460285FD19C016C08091460286FD60
:102A100016C017C08091460286FD13C010C089E31E
:102A200011C082EE0FC080EE0DC080E00BC086EEBC
:102A300009C084EE07C089E205C085E303C08AE2CD
:102A400001C081E390E008959091460292FF0DC08D
:102A5000282F2871283019F4877F846006C0282F1A
:102A60002471243011F48B7F886093FF0DC0282FD0
:102A70002871283119F4877E846106C0282F2471BB
:102A8000243111F48B7E88612091470220FF0DC014
:102A9000382F3871383019F4877F816006C0382F9D
:102AA0003171313011F48E7F886021FF0DC0282FE5
:102AB0002871283119F4877E816106C0282F217181
:102AC000213111F48E7E886194FD877E08950895EA
:102AD0000E94A011811102C00E9448120E94AB11F5
:102AE00080930E020E94B311909347028093460296
:102AF0000E9467150E94AF11682F70E080E090E09F
:102B00000E944C0B60919A0170919B0180919C01F5
:102B100090919D010C94840BE82FF0E0E25BFD4F57
:102B200080810895CF92DF92EF92FF920F931F93CF
:102B3000CF93DF938BE392E00E9441058EE4E82E71
:102B400082E0F82EC0E0D0E096E3C92E92E0D92EC4
:102B50000EE212E0DF93CF93DF92CF920E94DA056C
:102B600083E392E00E944105F70181917F010E9479
:102B7000C7061F928F931F930F930E94DA058CE272
:102B800092E00E94410521968DB79EB708960FB638
:102B9000F8949EBF0FBE8DBFC630D105D9F6DF9128
:102BA000CF911F910F91FF90EF90DF90CF900895FC
:102BB00080EA8A95F1F7089500C008950C94D8151D
:102BC00008950C94E0150C94E1150C94E0150C9408
:102BD000E515F894E82FE295EF70F0E031A1282F89
:102BE0002F7081E090E001C0880F2A95EAF7982FB6
:102BF0009095932391A392A1892B82A37894089511
:102C00000F931F93CF93DF93C3E7D1E089918F3F59
:102C100011F00E94E91581E0C937D807B9F7CFE66E
:102C2000D1E003E711E089918F3F11F00E94E9158F
:102C30000C171D07C1F7DF91CF911F910F910895D8
:102C4000CF92DF92EF92FF920F931F93CF93DF9378
:102C50008C01C62FD0E0CE018D589E4F7C01FC0127
:102C600090819F3F09F44DC0D62EF894E92FE2954C
:102C7000EF70F0E081A19F7021E030E001C0220FF1
:102C80009A95EAF7822B81A382A12095282322A37B
:102C900078940E94DC15EFE6F1E020E030E0C12CF2
:102CA00051E041914F3FB1F0A42FA295AF70B0E039
:102CB00090968C9190E04F7002C0959587954A95BB
:102CC000E2F780FD07C0852F022E01C0880F0A940D
:102CD000EAF701C080E0C82A2F5F3F4F243031055A
:102CE00001F7F70180818F3F11F00E94E91561E043
:102CF000C11001C060E08D2D0E94DE15C00FD11FF4
:102D0000C882DF91CF911F910F91FF90EF90DF90DC
:102D1000CF9008950E940016E8E4F2E0AEE4B2E03D
:102D200011921D9282E0EE34F807D1F786E00E94FE
:102D3000E3160C943506FF920F931F93CF93DF9306
:102D400000D000D000D0CDB7DEB78E010F5F1F4F8F
:102D500086E0F80111928A95E9F7F12C6F2DC801F0
:102D60000E942016F394F6E0FF12F8CF46E050E000
:102D7000B80188E492E00E947827FF24F39400973A
:102D800009F4F12C892B41F086E0F801A8E4B2E0C7
:102D900001900D928A95E1F72F2D46E06EE472E0E6
:102DA00088E492E00E94E4160E943D068F2D26964C
:102DB0000FB6F894DEBF0FBECDBFDF91CF911F914C
:102DC0000F91FF9008950895FF920F931F93CF9353
:102DD000DF938C01F62ED72FC42F222349F081E0F8
:102DE000809311020E942A1F9093100280930F0279
:102DF000809111028823C1F080910F0290911002FE
:102E00000E94421F059780F0EF2DFD2FD8014C2F17
:102E100050E0CD01801B910B841795071CF48D9118
:102E20008193F7CF10921102DF91CF911F910F91F3
:102E3000FF9008950E949D1E0E94AD210E94C62110
:102E40000E94DC210E948412FBCFCF93C82F1F92D7
:102E50008F9380E592E09F938F930E94DA0581E043
:102E600090E0A0E0B0E0BC01CD0104C0660F771F88
:102E7000881F991FCA95D2F70E944C0B0F900F9094
:102E80000F900F90CF910C94EB0ADF92EF92FF928C
:102E90000F931F93CF93DF93482F50E0FA0135979C
:102EA000EF33F10508F05BC1EC58FF4F0C94582745
:102EB0000E94AF111F928F9385EB96E09F938F93A3
:102EC0000E94DA050E94AB1183FB992790F91F92AB
:102ED0009F9382FB992790F91F929F9381FB9927DB
:102EE00090F91F929F93982F91701F929F931F921A
:102EF0008F938CE696E09F938F930E94DA050E9451
:102F0000B31187FB222720F91F922F9386FB2227DC
:102F100020F91F922F9385FB222720F91F922F93D0
:102F200084FB222720F91F922F9383FB222720F96D
:102F30001F922F9382FB222720F91F922F9391FB40
:102F4000222720F91F922F93292F21701F922F9350
:102F500081FB222720F91F922F93282F21701F9287
:102F60002F939F938F9387E895E09F938F930E9471
:102F7000DA058DB79EB788960FB6F8949EBF0FBE40
:102F80008DBF0E940A19982F9695969596951F9237
:102F90009F93982F91701F929F931F928F9384E518
:102FA00095E09F938F930E94DA058DB79EB70896A0
:102FB0000FB6F8949EBF0FBE8DBF06C085E797E0A1
:102FC0000E9441050E944812C1E0CEC082EA93E00F
:102FD00074C080910E02817F8E7F80930E0287E8FD
:102FE00093E00E94410581E797E00E94410581E05E
:102FF00080931202E9CF85E597E00E9441050E9487
:103000004006E2CF80910E02C82FC095C170C0FB70
:1030100080F980930E02CC2319F089E497E091C0E7
:103020008CE397E00E94410580910E02897F877FA3
:1030300080930E02C9CF90910E0291FBCC27C0F96C
:1030400081E0C827892FC0FB81F980930E02CC2331
:1030500019F08FE297E027C081E297E02EC09091AF
:103060000E0292FBCC27C0F981E0C827892FC0FB54
:1030700082F980930E02CC2319F082E197E013C00D
:1030800082E097E01AC090910E0293FBCC27C0F922
:1030900081E0C827892FC0FB83F980930E02CC23DF
:1030A00051F086EF96E00E94410580910E0281600A
:1030B00080930E0259C089EE96E00E94410584CFAC
:1030C00089ED92E0FACF0E94361F062FF72EE82EE8
:1030D000D92EC0914602C7FBCC27C0F910914502FA
:1030E000D0910C010E94301DDF92EF92FF920F935E
:1030F0001F92CF931F921F931F92DF931F928F9364
:1031000085E592E09F938F930E94DA058DB79EB775
:103110000E960FB6F8949EBF0FBE8DBF55CF0E947E
:10312000EB0A9091460297FBCC27C0F981E0C827B3
:10313000892FC0FB87F980934602CC2329F08FEDBD
:1031400096E00E94410510C084ED96E0B6CF895309
:1031500003C08D5101C080E00E94251735CF82ED5C
:1031600096E00E944105C0E08C2FDF91CF911F9126
:103170000F91FF90EF90DF90089580E008950C94F8
:10318000BD18CF93C82F80911202882319F0813087
:1031900031F038C00E94E1108232B1F504C00E94C3
:1031A000E110823261F48C2F0E94BF18811104C09B
:1031B0008C2F0E94451724C081E090E021C08C2F05
:1031C0000E94BD1881111BC0C43189F018F4CB30A6
:1031D00029F010C0C93259F0C83361F487E893E090
:1031E0000E9441058CE492E00E94410508C01092C3
:1031F00012020CC08AE492E00E94410507C081E0FF
:10320000817006C01092120280E002C080E0F8CF08
:10321000CF91089586E090E00C948527682F86E092
:1032200090E00C9493278091540284708162809383
:1032300054020C940E190E94A011811104C00E9426
:1032400048120E9413190E940A1980935402282FD1
:1032500026952695269530E02530310524F0877097
:103260008062809354028091540280FF04C086954E
:103270008695869501C080E00C94981A209154029E
:10328000822F869586958695482F50E044305105CB
:1032900054F48F5F982F990F990F990F822F877091
:1032A000892B809354028091540281608093540250
:1032B0000E940E1980910E0280FF11C0809154026D
:1032C0008695869586951F928F938DEE97E09F93B6
:1032D0008F930E94DA050F900F900F900F908091BE
:1032E00054028695869586950C94981A809154027E
:1032F000982F969596959695A1F0915E990F990FB6
:10330000990F8770892B80935402887F91E009F48C
:1033100090E08091540290FB80F9809354020E94C7
:103320000E1980910E0280FF11C080915402869583
:10333000869586951F928F9385ED97E09F938F9347
:103340000E94DA050F900F900F900F908091540219
:103350008695869586950C94981A8091540280FDE6
:103360001FC0816080935402813019F489E08093FA
:103370005402809154020E940E1980910E0280FF27
:1033800008C08DEA97E09F938F930E94DA050F9013
:103390000F90809154028695869586950C94981A84
:1033A00008958091540280FF14C08E7F8093540250
:1033B0000E940E1980910E0280FF08C08AE997E0F2
:1033C0009F938F930E94DA050F900F9080E00C94EA
:1033D000981A0895CF93C0915402C17080910E0243
:1033E00080FF0CC01F92CF938FEB97E09F938F933A
:1033F0000E94DA050F900F900F900F90CC2319F0D8
:10340000CF910C94D119CF910C94AD199091540295
:10341000892F8695869586958F5F8F7197708530F9
:1034200038F4880F880F880F892B8093540202C0CC
:103430009093540280915402887F91E009F490E0C7
:103440008091540290FB80F9809354020E940E19DF
:1034500080910E0280FF11C080915402869586955E
:1034600086951F928F9386E897E09F938F930E9493
:10347000DA050F900F900F900F908091540286956F
:10348000869586950C94981A853008F084E0909182
:1034900054029770282F220F220F220F922B909305
:1034A0005402987F21E009F420E09091540220FB1F
:1034B00090F9909354020C94981A0E94441A8091A7
:1034C00054020C940E199C01FB018281882349F15E
:1034D0002E3BFCE53F07C9F040F42C3BECE53E07F2
:1034E00069F02D3B3C4561F00895203C9CE539078F
:1034F00091F070F0213C3C4589F0089584E001C0D2
:1035000080E00E945D1A80E008950E947619FBCF4A
:103510000E943E19F8CF0E94EA19F5CF0E94061AC0
:10352000F2CF81E00895269A2E9808952E98089556
:10353000CF92DF92EF92FF92CF93C82F853050F455
:10354000811109C0809180008F7D809380000E944E
:10355000961A06C0C4E0809180008062809380004B
:103560002C2F30E0AFEFBFEF0E945E27DC01CB01D4
:1035700042E0B695A795979587954A95D1F78C37F0
:1035800044E1940728F469E070E00E94222727C0F4
:103590008A50974DAF4FBF4F6627782F892F9A2FAC
:1035A00025EF38E241E050E00E94362769017A01B8
:1035B000CA01B9010E9406279B01AC01C701B601EF
:1035C0000E940627BB27A92F982F872F009721E05D
:1035D000A207B10511F0BC0102C06FEF7FEF70933D
:1035E0008B0060938A00CF91FF90EF90DF90CF9097
:1035F000089508950E94931A82E28093800089E1E1
:10360000809381008FEF9FEF9093870080938600D7
:103610000C941B190F931F93CF93DF93C42FD22FBA
:10362000FC0182818823C9F0409315020E942A1F61
:10363000909314028093130280E28C0F883008F07C
:1036400057C0C77081E001C0880FCA95EAF7DF91C3
:10365000CF911F910F910C946D0880911502481322
:1036600030C080911302909114020E94421F883C46
:10367000910538F510E21D0FCD17B9F080E28C0FDF
:10368000883040F4C77081E001C0880FCA95EAF71E
:103690000E947408183028F581E09D2F977001C0B2
:1036A000880F9A95EAF70E946D08802F0E9464089F
:1036B0001830F0F4D77081E001C0880FDA95EAF78E
:1036C0000AC080E28C0F883098F4C77081E001C096
:1036D000880FCA95EAF7DF91CF911F910F910C9453
:1036E0007408802FDF91CF911F910F910C94640883
:1036F000DF91CF911F910F9108950F939C01CB0102
:10370000243F4CE5340731F188F4293DFCE53F07BF
:10371000D9F02A3D4CE5340779F1283D3C45A9F51F
:1037200006E221EE41EE68ED7CE52BC0263FFCE58C
:103730003F07E1F0A8F0273F3C4539F507E225EEC9
:1037400046EE67EF7CE51DC007E225EE45EE69ED2C
:103750007CE517C006E221EE40EE64EF7CE511C087
:1037600007E225EE44EE65EF7CE50BC006E221EEB4
:1037700042EE66EF7CE505C008E221E045EE6AED29
:103780007CE50E940A1B80E008C0FC01828188233E
:1037900019F01092150201C081E00F910895CF93A6
:1037A000DF93EC01FB018281882309F41FC1C23041
:1037B000FCE5DF0708F41BC1C6319CE5D90738F0EA
:1037C0009E012B5F3C452930310508F010C10E9455
:1037D000B3119093470280934602C031ECE5DE07B7
:1037E00009F4C3C008F041C0C8308CE5D80709F41B
:1037F0009AC0F0F4C430ECE5DE0709F487C068F441
:10380000C2308CE5D80709F477C0C330DC4509F035
:10381000E3C080914602826076C0C630ECE5DE07E8
:1038200009F46EC008F07BC08091460288606BC0CE
:10383000CC308CE5D80709F485C068F4CA30ECE5D3
:10384000DE0709F474C008F079C00E94EB0A809189
:103850004602806858C0CE308CE5D80709F476C09F
:1038600008F07FC0809146028BC0CC3FECE5DE07BC
:1038700009F44FC018F5C3318CE5D80709F47DC0B1
:1038800078F4C131ECE5DE0709F473C0C231DC45E0
:1038900009F0A2C00E94EB0A809146028F7733C0E4
:1038A000C5318CE5D80709F472C008F486C0CB3F57
:1038B000DC4509F091C0809147023EC0C115FDE58D
:1038C000DF0709F45FC058F4CE3F9CE5D90709F43F
:1038D00044C008F43FC08091470282602DC0C230CE
:1038E000FDE5DF0709F475C008F45DC0C330DD45B0
:1038F00009F072C080E06EC080914602816003C012
:103900008091460280618093460266C080914602A3
:1039100011C0809147028260809347025DC0809110
:1039200046028062F0CF809146028064ECCF8091A5
:10393000460288608460E7CF8160EECF80914602C6
:103940008E7FE1CF809146028D7FDDCF8091460250
:10395000877FD9CF8091470218C0809147028D7F21
:10396000DBCF809146028F7ECECF809146028F7D45
:10397000CACF809146028F7BC6CF80914602877F57
:103980008B7FC1CF809147028D7F8E7FC5CF809185
:10399000460282FB222720F991E0922790FB82F9D0
:1039A00090FB83F9B0CF80914702982F909591704A
:1039B0008E7F892B90FB81F9AFCF0E94EB0A80911B
:1039C000460287FB222720F991E0922790FB87F996
:1039D0009ACF81E00E944A1280914602909147025C
:1039E0000E94C4110E94EB0A80E001C081E0DF91D7
:1039F000CF910895CF93DF9386319C4541F5EB013C
:103A00000E94E110982F8A812091000130910101DC
:103A1000882379F09A7A81E009F480E08093160295
:103A2000911102C069E201C065E3C9010E94751EDF
:103A30000AC080911602811102C069E201C065E3EB
:103A4000C9010E94801E0E94331180E001C081E004
:103A5000DF91CF91089590931C0280931B020895EB
:103A6000E0911B02F0911C02309721F00190F0814F
:103A7000E02D099480E00895EF92FF921F93CF9379
:103A8000DF93FC01A0911B02B0911C02109709F476
:103A900042C080910C01882341F08091460287FF4B
:103AA00004C08081818385E08083EF011296ED91CF
:103AB000FC911397CE01099580910E0282FF2BC0D5
:103AC00080FF04C08DE098E00E94410518E087E087
:103AD000E82E88E0F82E80910E0280FF0BC08881CE
:103AE0001F928F93FF92EF920E94DA050F900F9032
:103AF0000F900F90115021961111EDCF80910E0271
:103B000080FF09C085E098E0DF91CF911F91FF9081
:103B1000EF900C944105DF91CF911F91FF90EF90B2
:103B200008952091190230911A022817390771F06F
:103B300090931A0280931902E0911B02F0911C02EB
:103B4000309721F00680F781E02D099408952091A7
:103B50001702309118022817390771F09093180254
:103B600080931702E0911B02F0911C02309721F024
:103B70000084F185E02D09940895FC01329680912E
:103B80000C01882331F08091460287FF02C09EE13C
:103B900001C096E080E0915028F021912223D9F3D2
:103BA0008F5FF9CF0895662351F120910C012223F4
:103BB000E9F02091460227FF19C0462F4695469509
:103BC00046954E31E0F4677021E030E002C0220FEC
:103BD000331F6A95E2F7FC01E40FF11D828190E04A
:103BE0002823392381E0232B69F409C0FC01329694
:103BF00008962191621729F0E817F907D1F780E0BC
:103C0000089581E008959C01FC0132969FEF80E0C9
:103C10004191461789F09F3F19F4411101C0982F37
:103C20008F5F8630A9F79F3F39F0F901E90FF11D49
:103C300097FDFA956283089508959C012A5F3F4F8E
:103C4000FC014281461301C012820196821793073C
:103C5000B9F70895262F2695269526952E3170F4CE
:103C6000FC01E20FF11D677021E030E001C0220F7E
:103C70006A95EAF78281282B2283089580910E02AB
:103C800080FF0CC01F926F938DE398E09F938F93FA
:103C90000E94DA050F900F900F900F900895262F35
:103CA0002695269526952E3178F4FC01E20FF11D1C
:103CB000677021E030E001C0220F6A95EAF7209595
:103CC000828128232283089580910E0280FF0CC0F8
:103CD0001F926F938FE198E09F938F930E94DA0574
:103CE0000F900F900F900F90089520910C012223B8
:103CF00029F02091460227FD0C942A1E0C94031EE5
:103D000020910C01222329F02091460227FD0C94DA
:103D10004F1E0C941D1E20910C01FC013296222393
:103D200031F08091460287FF02C08EE101C086E03B
:103D3000DF011D928A95E9F70895089508950C947E
:103D40009E1E0C949E1ECF930E94A11E0E949B1645
:103D50000E949F1EC0E08C2F0E948C15811104C010
:103D6000CF5FC630C1F701C081E0CF9108950C94B8
:103D70009E1E0C94B71E80915D02843061F10E94FA
:103D8000B91E80E00E94981A80E00E94EE06109210
:103D90001D0220E488E190E00FB6F894A895809386
:103DA00060000FBE2093600083B7817F846083BF73
:103DB00083B7816083BF7894889583B78E7F83BFF4
:103DC0000FB6F894A8958091600088618093600098
:103DD000109260000FBE08950C949E1E0E94EB0A84
:103DE0000E941B190E94301D0E94EE060C94EC1ECE
:103DF0001F920F920FB60F9211248F939F93AF9340
:103E0000BF9380911D02811113C080915502909142
:103E10005602A0915702B09158024196A11DB11DC2
:103E20008093550290935602A0935702B093580284
:103E3000BF91AF919F918F910F900FBE0F901F90E8
:103E4000189582E084BD93E095BD9AEF97BD80936D
:103E50006E0008952FB7F894809155029091560204
:103E6000A0915702B09158022FBF08952FB7F89430
:103E700060915502709156028091570290915802BC
:103E80002FBF08959C014FB7F894809155029091EF
:103E90005602A0915702B09158024FBF821B930B5C
:103EA000089578941F920F920FB60F9211248F935A
:103EB0009F93AF93BF938091550290915602A0912A
:103EC0005702B09158020196A11DB11D8093550271
:103ED00090935602A0935702B0935802BF91AF91AE
:103EE0009F918F910F900FBE0F901F90189581E0BA
:103EF0008093E00080E28093D8001092C9008FE1A7
:103F00009EE40197F1F700C0000087E090EBDC0130
:103F10008093660290936702A0936802B09369024F
:103F20009CE088E10FB6F894A895809360000FBEDE
:103F300090936000FFCF909389018093880108954A
:103F400080914402089590915D02943031F5809300
:103F50002002709322026093210282E08093E900A4
:103F60008FEF9091E800815095FD06C095ED9A95F0
:103F7000F1F700008111F5CF8091E80085FF0DC0B9
:103F800040E050E063E070E080E292E00E9469224D
:103F90008091E8008E778093E8000895BC0184E06A
:103FA0000C94A31FBC0183E00C94A31FCF93DF9359
:103FB00020910C01222339F02091460227FF03C0F3
:103FC00060E222E002C068E021E02093E9002FEFE8
:103FD0003091E800215035FD06C035ED3A95F1F7F6
:103FE00000002111F5CF2091E80025FF1DC0EC0154
:103FF00080910C01811105C040E050E068E070E064
:1040000003C070E040E050E0CE010E946922809140
:10401000E8008E778093E80080E2FE01A4E2B2E03F
:1040200001900D928A95E1F7DF91CF91089508955F
:1040300080E898E00E94410580915C02811109C0EE
:104040000E94FA230E9457248091E20084608093AA
:10405000E20008958CE798E00E94410510925C020E
:10406000089588E798E00C94410584E798E00C9463
:10407000410580E798E00C94410520911F022F5FD5
:10408000822F62E30E941627992319F020931F02C2
:10409000089510921F0280912302882371F180916C
:1040A0005D02843041F58091E9008F702091EC0031
:1040B000922F917020FD90E8892B93E09093E90076
:1040C0009091EB0090FF14C09091EE0097FF10C00C
:1040D0009091E80095FF03C01092F100F9CF909104
:1040E000E80090FF05C09091E8009E779093E8006B
:1040F0008F708093E90010922302089542E061ECF2
:1041000081E00E94732342E261EC82E00E9473230B
:1041100042E261EC83E00C94732380915F02833070
:1041200009F460C030F4813071F0823009F499C034
:1041300008958A3009F485C08B3009F46BC089304A
:1041400009F0A7C020C080915E02813A09F0A1C0A9
:104150008091E800877F8093E800809162029091CF
:104160006302892B21F460E284E292E003C060E004
:1041700080E090E070E00E94B4228091E8008B77AC
:104180008093E800089580915E02813209F081C039
:104190008091620290916302029708F07AC0809148
:1041A000E800877F8093E8008091E80082FD05C0E9
:1041B00080915D028111F8CF6CC02091F300809155
:1041C000F20090E0922B029729F48091F1008B7F0E
:1041D000813021F48091F100809344028091E800C5
:1041E0008B7753C080915E02813A09F052C0809172
:1041F000620290916302892B09F04BC08091E80024
:10420000877F8093E8008091E80080FFFCCF809159
:104210000C0136C080915E028132D9F58091620234
:1042200090916302892BA9F58091E800877F8093A4
:10423000E8000E94A8238091600280930C010C94F6
:10424000EB0A80915E02813221F58091E800877F40
:104250008093E8000E94A823809161028093450228
:10426000089580915E02813AA1F48091E800877FF1
:104270008093E8008091E80080FFFCCF80914502A8
:104280008093F1008091E8008E778093E8000C9491
:10429000A82308959FB7F894109223029FBF90918E
:1042A0005D02943009F057C09091E9009F70309101
:1042B000EC00232F217030FD20E8922B23E0209387
:1042C000E9002091EB0020FF43C02091EE0027FF82
:1042D0003FC020911E02222321F02091E80025FFFB
:1042E00037C010921E0226E03091E80035FD15C05F
:1042F00030915D02343061F53091EB0035FD28C01E
:10430000215021F481E080931E0222C0EFE9FFE0FA
:104310003197F1F700C00000E7CF8093F100809162
:10432000E80085FD0AC08091E80080FFFCCF809105
:10433000E8008E778093E80006C08FB7F89421E0FC
:10434000209323028FBF9F709093E90080E008952F
:104350009F709093E9008FEF089584B7877F84BFA3
:104360000FB6F894A89580916000886180936000F2
:10437000109260000FBE90E080E80FB6F894809332
:104380006100909361000FBE0C947A120E94FA2390
:104390000E945724E2EEF0E080818460808378946C
:1043A0000E94EB260E94881282E091E00E942B1D61
:1043B0008FE598E00C94410580915D028530C9F449
:1043C0008BE598E00E94410580915D02853079F48B
:1043D0000E94BB1E80915B028823B1F30E94A31E42
:1043E000882391F30E9453220E94EB0AEDCF0E9492
:1043F000EE1E0C94B8120C94FD21292F3327233084
:104400003105C9F060F42130310581F022303105E9
:1044100009F041C08BE590E02CE938E040C0213242
:104420003105E1F02232310531F135C082E190E011
:1044300027EF38E034C099278130910549F028F002
:10444000029749F5E4E8F8E005C0E8E9F8E002C0C1
:10445000EEE8F8E0849190E09F0121C0633071059F
:10446000D0F4660F771FFB01EE57FE4F208131819C
:1044700089E090E014C06330710568F4FB01EE0F31
:10448000FF1FE458FE4F20813181FB01E758FE4FAA
:10449000808190E004C080E090E020E030E0FA010C
:1044A00031832083089580E189BD82E189BD09B40B
:1044B00000FEFDCF8091D8008F7D8093D800809141
:1044C000E00082608093E0008091E00081FDFCCFFD
:1044D0000895CF92DF92EF92FF920F931F93CF93A5
:1044E000DF93EC018B017A010E94C723811133C055
:1044F000E114F10439F0F70180819181081B190B57
:10450000C80FD91FC12CD12C0115110519F18091AB
:10451000E80085FD16C08091E8008E778093E80062
:10452000E114F10449F0F70180819181C80ED91E90
:10453000D182C08285E00FC00E94C723882321F367
:104540000AC089918093F10001501109FFEFCF1A41
:10455000DF0ADACF80E0DF91CF911F910F91FF90BA
:10456000EF90DF90CF900895209164023091650222
:104570002617370748F06115710539F42091E800D6
:104580002E772093E80001C0B901FC0120E06115FD
:10459000710579F180915D028823F1F18530F1F1A7
:1045A0008091E80083FD3CC08091E80082FD2EC030
:1045B0008091E80080FFEBCF2091F3008091F20022
:1045C00090E0922B6115710551F08830910538F417
:1045D00021912093F100615071090196F3CF21E000
:1045E000089709F020E08091E8008E778093E8003A
:1045F000CECF2111CFCF0AC080915D02882361F018
:10460000853061F08091E80083FD0AC08091E80068
:1046100082FFF2CF80E0089582E0089583E008955C
:1046200081E00895209164023091650226173707D2
:1046300048F06115710539F42091E8002E77209338
:10464000E80001C0B901FC0120E06115710591F19C
:1046500080915D02882309F440C0853009F43FC091
:104660008091E80083FD3DC08091E80082FD2FC06D
:104670008091E80080FFE9CF2091F3008091F20063
:1046800090E0922B6115710559F08830910540F446
:1046900024912093F1003196615071090196F2CF77
:1046A00021E0089709F020E08091E8008E77809360
:1046B000E800CBCF2111CCCF0AC080915D028823C6
:1046C00061F0853061F08091E80083FD0AC080913F
:1046D000E80082FFF2CF80E0089582E0089583E051
:1046E000089581E00895982F973068F59093E90038
:1046F000981739F07091EC002091ED005091F00086
:1047000003C0242F762F50E021FD02C09F5FECCF25
:104710003091EB003E7F3093EB003091ED003D7F18
:104720003093ED003091EB0031603093EB007093EB
:10473000EC002093ED005093F0002091EE0027FD57
:10474000E5CF80E008958F708093E90081E00895BF
:1047500080915E0287FF11C08091E80082FD05C054
:1047600080915D028111F8CF11C08091E8008B77B4
:104770000BC080915D02882349F08091E80080FFA2
:10478000F8CF8091E8008E778093E800089520911B
:10479000E4003091E50095E64091EC00842F8170B3
:1047A00040FF23C08091E80080FD1DC080915D0224
:1047B000882399F0853099F08091EB0085FD11C038
:1047C0004091E4005091E5002417350729F39150FA
:1047D00011F09A01E1CF84E0089582E0089583E02A
:1047E000089581E0089580E008954091E80042FF37
:1047F000DDCF08950E9468240E947024E0EEF0E06E
:10480000808181608083E8EDF0E080818F77808314
:1048100019BCA7EDB0E08C918E7F8C9380818F7E48
:10482000808310925C0208950F931F93CF93DF93C0
:104830000E9468240E947024C8EDD0E088818F77A0
:10484000888388818068888388818F7D888319BC6C
:1048500010925D021092590210925B0210925A025D
:1048600000EE10E0F80180818B7F80838881816079
:10487000888342E060E080E00E947323E1EEF0E094
:1048800080818E7F8083E2EEF0E080818160808392
:10489000808188608083F80180818E7F8083888119
:1048A00080618883DF91CF911F910F910895E8ED8A
:1048B000F0E080818F7E8083E7EDF0E08081816091
:1048C000808384E082BF81E080935C020C94142496
:1048D000E8EDF0E080818E7F80831092E200089501
:1048E0001092DA001092E10008951F920F920FB615
:1048F0000F9211242F933F934F935F936F937F9366
:104900008F939F93AF93BF93EF93FF938091E100B9
:1049100082FF0BC08091E20082FF07C08091E1001E
:104920008B7F8093E1000E943D208091DA0080FF20
:104930001FC08091D80080FF1BC08091DA008E7F5D
:104940008093DA008091D90080FF0DC080E189BD9D
:1049500082E189BD09B400FEFDCF81E080935D0254
:104960000E94182005C019BC10925D020E942A20E6
:104970008091E10080FF19C08091E20080FF15C0A6
:104980008091E2008E7F8093E2008091E20080615E
:104990008093E2008091D80080628093D80019BC97
:1049A00085E080935D020E9435208091E10084FFC4
:1049B00030C08091E20084FF2CC080E189BD82E19B
:1049C00089BD09B400FEFDCF8091D8008F7D809312
:1049D000D8008091E1008F7E8093E1008091E20019
:1049E0008F7E8093E2008091E20081608093E200FC
:1049F00080915902882311F084E007C08091E30080
:104A000087FD02C081E001C083E080935D020E94C7
:104A100039208091E10083FF29C08091E20083FF6B
:104A200025C08091E100877F8093E10082E0809340
:104A30005D02109259028091E1008E7F8093E10027
:104A40008091E2008E7F8093E2008091E20080619D
:104A50008093E20042E060E080E00E947323809156
:104A6000F00088608093F0000E943120FF91EF9168
:104A7000BF91AF919F918F917F916F915F914F9176
:104A80003F912F910F900FBE0F901F9018951F927E
:104A90000F920FB60F9211242F933F934F935F9372
:104AA0006F937F938F939F93AF93BF93CF93DF9336
:104AB000EF93FF93C091E900CF708091EC00D82F65
:104AC000D17080FDD0E81092E9008091F000877FDE
:104AD0008093F00078940E948B251092E9008091D9
:104AE000F00088608093F000CD2BCF70C093E90078
:104AF000FF91EF91DF91CF91BF91AF919F918F91F6
:104B00007F916F915F914F913F912F910F900FBEC9
:104B10000F901F9018951F93CF93DF93CDB7DEB7FB
:104B2000AA970FB6F894DEBF0FBECDBFEEE5F2E058
:104B30008091F100819322E0E636F207C9F70E94E6
:104B40008D208091E80083FF2EC180915E029091BC
:104B50005F02492F50E04A30510508F024C1FA01A4
:104B6000ED54FF4F0C945827803821F0823809F01B
:104B70001AC108C080915A0290915B02992389F072
:104B800082600FC0809162028F70873008F00BC185
:104B90008093E9008091EB0085FB882780F91092D3
:104BA000E9009091E800977F9093E8008093F100EE
:104BB0001092F100D1C0282F2D7F09F0F4C0882376
:104BC00019F0823061F0EFC080916002813009F00D
:104BD000EAC0933009F080E080935B022EC08091A0
:104BE000600281112AC0809162028F702FEF280F1E
:104BF000263008F0D8C08093E9002091EB0020FF18
:104C00001CC0933021F48091EB00806214C090911D
:104C1000EB0090619093EB0021E030E0A90102C02D
:104C2000440F551F8A95E2F74093EA001092EA007C
:104C30008091EB0088608093EB001092E9008091F6
:104C4000E800877F8093E8000E94A823ACC0811110
:104C5000AAC0109160021F778091E3008078812BB9
:104C60008093E3008091E800877F8093E8000E94B2
:104C7000A8238091E80080FFFCCF8091E30080684A
:104C80008093E300111102C082E001C083E08093B1
:104C90005D0289C08058823008F085C08091600232
:104CA000909161028C3D53E0950779F583E08A830A
:104CB0008AE289834FB7F894DE01139620E03EE044
:104CC00051E2E32FF0E050935700E49120FF03C03E
:104CD000E295EF703F5FEF708E2F90E0EA3010F0BA
:104CE000C79601C0C0968D939D932F5F243149F7DD
:104CF0004FBF8091E800877F8093E8006AE270E010
:104D0000CE0101960E94B42216C060916202709199
:104D10006302AE014F5F5F4F0E94FB21BC01892BF4
:104D200009F441C09091E800977F9093E800898151
:104D30009A810E9412238091E8008B778093E8008B
:104D400032C0803881F58091E800877F8093E80049
:104D5000809159028093F1008091E8008E7772CFA4
:104D6000811121C080916002909161029927029780
:104D7000D4F48091E800877F8093E80080916002FE
:104D8000809359020E94A82380915902811106C084
:104D90008091E30087FD02C081E001C084E0809340
:104DA0005D020E947E208091E80083FF0AC080910E
:104DB000E800877F8093E8008091EB008062809319
:104DC000EB00AA960FB6F894DEBF0FBECDBFDF9101
:104DD000CF911F910895CF9380915D028823A1F018
:104DE000C091E900CF709091EC00892F817090FD07
:104DF00080E8C82B1092E9008091E80083FD0E94B2
:104E00008B25CF70C093E900CF910895DB018F937C
:104E10009F930E946D27BF91AF91A29F800D911D1E
:104E2000A39F900DB29F900D11240895991B79E0D6
:104E300004C0991F961708F0961B881F7A95C9F72A
:104E400080950895AA1BBB1B51E107C0AA1FBB1F79
:104E5000A617B70710F0A61BB70B881F991F5A9506
:104E6000A9F780959095BC01CD010895A1E21A2E75
:104E7000AA1BBB1BFD010DC0AA1FBB1FEE1FFF1FFE
:104E8000A217B307E407F50720F0A21BB30BE40B4E
:104E9000F50B661F771F881F991F1A9469F7609595
:104EA0007095809590959B01AC01BD01CF0108954F
:104EB000EE0FFF1F0590F491E02D0994A29FB00121
:104EC000B39FC001A39F700D811D1124911DB29F3E
:104ED000700D811D1124911D08950E945E27A59FCC
:104EE000900DB49F900DA49F800D911D11240895E5
:104EF000FB01DC0104C08D910190801921F4415027
:104F00005040C8F7881B990B0895F999FECF92BDC0
:104F100081BDF89A992780B50895A8E1B0E042E0F4
:104F200050E00C94B927262FF999FECF92BD81BD90
:104F3000F89A019700B4021639F01FBA20BD0FB6D7
:104F4000F894FA9AF99A0FBE08950396272F0E94B3
:104F500094270E949327252F0E949427242F0C9496
:104F600094270196272F0E9494270C949327DC0105
:104F7000CB01FC01F999FECF06C0F2BDE1BDF89A64
:104F8000319600B40D9241505040B8F70895F8940E
:024F9000FFCF51
:104F9200DC01A01FD61F1720D21FCE1F01E200E99D
:104FA20000EA00B500B600B700CD008301CC008A4C
:104FB20001920194012102230224022502260227E2
:104FC200022A02B300B4006F007000818283E20003
:104FD200E900EA00B500B600B700CD008301CC00BD
:104FE2008A0192019401210223022402250226024F
:104FF20027022A02B300B4006F007000818283F19D
:10500200F0C667F7F6F5F49590406D2298092B09E2
:085012000909AE08C708E00817
:00000001FF
