:100000000C9428060C946F060C946F060C946F06E3
:100010000C946F060C946F060C946F060C946F068C
:100020000C946F060C946F060C94652A0C94372B75
:100030000C94DD240C946F060C946F060C946F06E0
:100040000C946F060C946F060C946F060C946F065C
:100050000C946F060C9436250C946F060C946F0666
:100060000C946F060C946F060C946F060C946F063C
:100070000C946F060C946F060C946F060C946F062C
:100080000C946F060C946F060C946F060C946F061C
:100090000C946F060C946F060C946F060C946F060C
:1000A0000C946F060C946F060C946F06EC0AEC0A25
:1000B000180B180B800B9E0BC30CC30CA90B3E0C2A
:1000C0004F0C4F0CB30CC30CC30CBC0C750D750D51
:1000D000870D870D7E0D870D870D870D750D750DAD
:1000E000830D870D870D830DA42BCB2BC32CCB2B1E
:1000F000C32C172C3A2CC32C912CA02C29001E00A9
:100100001F00200021002200000023002400250001
:10011000260027002D00310014001A0008001500E9
:10012000170000001C0018000C0012001300300023
:100130002B0004001600070009000A0000000B0055
:100140000D000E000F0033003400E1001D001B0005
:100150000600190005004C001100100036003700A1
:1001600038002F00E000E300E200350001512A00D2
:1001700028002C002E002D0034002800E70010502D
:100180003A003B003C003D003E0000003F004000C4
:100190004100420043004400010001000100010051
:1001A00001000100000045000100520001000100B3
:1001B0000100010001000100010001000100000038
:1001C0000100500051004F000100010012500100D9
:1001D0000100010001000100010001000100010017
:1001E0000100010001000100010001000100010007
:1001F00001000100010001000100010001000100F7
:10020000105000000000000000000000000000008E
:1002100000000000000000000000000000000000DE
:1002200000000000000000000000000000000000CE
:1002300000000000000000000000000000000000BE
:1002400000000000000000000000000000000000AE
:10025000000000000000000000000000000000009E
:10026000000000000000000000000000000000008E
:10027000000000000000000000000000000000007E
:10028000005C44454255473A2064697361626C657D
:10029000642E0A0044454255473A20656E61626CFF
:1002A00065642E0A0000000000000000002A2B28D0
:1002B000000000000000000000000000000000003E
:1002C00029000000002C1E3420212224342627255A
:1002D0002E362D3738271E1F202122232425263392
:1002E00033362E37381F0405060708090A0B0C0D94
:1002F0000E0F101112131415161718191A1B1C1DA6
:100300002F3130232D350405060708090A0B0C0D83
:100310000E0F101112131415161718191A1B1C1D85
:100320002F3130354C0000000000000000000000BC
:1003300000000000000000000000000000000000BD
:100340000000000000000000007E0F00D4FFFFFF4F
:10035000C7000000784F6E6573686F743A20616360
:10036000746976653A2025640A000A0025303258FF
:10037000006B6579626F6172645F7365745F6C6551
:10038000643A20000A002530313662003A20002508
:10039000303258000A722F63203031323334353610
:1003A0003738394142434445460A00290A00257539
:1003B000002F002575005D280025640020002564BD
:1003C00000200025640020002564007C00253032D8
:1003D00058006D6F7573656B6579205B62746E7C18
:1003E000782079207620685D287265702F61636CB3
:1003F000293A205B00556E69636F646520696E70F1
:100400007574206D6F64652073657420746F3A2075
:1004100025750A00556E69636F646520696E707595
:1004200074206D6F646520696E697420746F3A2062
:1004300025750A00313A0964656C6179282A3130E2
:100440006D73293A2025750A323A09696E7465720E
:1004500076616C286D73293A2025750A333A096D47
:1004600061785F73706565643A2025750A343A09CE
:1004700074696D655F746F5F6D61783A2025750AE8
:10048000353A09776865656C5F6D61785F73706593
:1004900065643A2025750A363A09776865656C5FA8
:1004A00074696D655F746F5F6D61783A2025750AB8
:1004B00000703A097072696E742076616C756573AC
:1004C0000A643A097365742064656661756C7473B7
:1004D0000A75703A092B310A646E3A092D310A6C9B
:1004E000743A092B31300A72743A092D31300A45B9
:1004F00053432F713A09717569740A0A73706565FF
:1005000064203D2064656C7461202A206D61785FF1
:100510007370656564202A20287265706561742097
:100520002F2074696D655F746F5F6D6178290A773C
:10053000686572652064656C74613A2063757273D6
:100540006F723D25642C20776865656C3D25640AD3
:1005500053656520687474703A2F2F656E2E776925
:100560006B6970656469612E6F72672F77696B695B
:100570002F4D6F7573655F6B6579730A004D3E2073
:10058000004D25753A25733E20003F0A003D202589
:10059000750A003F0A0064656661756C74730A0031
:1005A00025750A003F0A000A092D2056616C756501
:1005B00073202D0A00710A000A092D204D6F7573F2
:1005C000656B6579202D0A003F00433E20004C25D5
:1005D000640A000A092D20537461747573202D0A72
:1005E000686F73745F6B6579626F6172645F6C656D
:1005F000647328293A20253032580A6B6579626F76
:100600006172645F70726F746F636F6C3A20253033
:1006100032580A6B6579626F6172645F69646C65F8
:100620003A20253032580A74696D65725F726561CF
:1006300064333228293A202530386C580A000A09D8
:100640002D2056657273696F6E202D0A5649443A03
:10065000203078464545442850726F6665742920DD
:100660005049443A20307836303632284174726529
:100670007573363229205645523A20307830303062
:10068000310A4255494C443A2020284665622031BF
:10069000362032303232290A4F5054494F4E533AA5
:1006A000204C554641204D4F5553454B455920450B
:1006B000585452414B455920434F4E534F4C4520BF
:1006C000434F4D4D414E4420343039360A47434361
:1006D0003A20352E342E30204156522D4C4942437B
:1006E0003A20322E302E30204156525F415243483C
:1006F0003A20617672350A000A092D20436F6E7325
:100700006F6C65202D0A4553432F713A0971756945
:10071000740A6D3A096D6F7573656B65790A000A25
:10072000092D204D61676963202D0A443A0944650B
:10073000627567204D65737361676520546F6767E5
:100740006C650A583A094D61747269782044656293
:100750007567204D6F646520546F67676C65202D49
:100760002053686F77206B6579707265737365735A
:1007700020696E206D617472697820677269640AFD
:100780004B3A094B6579626F61726420446562750A
:100790006720546F67676C65202D2053686F772042
:1007A0006B65797072657373207265706F72740A0D
:1007B0004D3A094465627567204D6F757365205425
:1007C0006F67676C650A563A0956657273696F6E92
:1007D0000A533A095374617475730A433A094163C1
:1007E00074697661746520436F6E736F6C65204D1C
:1007F0006F64650A46312D4631303A095377697482
:10080000636820746F204C6179657220302D392027
:1008100028463130203D204C30290A302D393A0904
:1008200053776974636820746F204C617965722016
:10083000302D390A47524156453A09537769746356
:100840006820746F204C6179657220302028616CBB
:100850007465726E617465290A423A094A756D7051
:1008600020746F20426F6F746C6F616465720A450B
:1008700053433A094A756D7020746F20426F6F744C
:100880006C6F616465722028616C7465726E61744E
:1008900065290A453A095072696E742045455052DF
:1008A0004F4D2053657474696E67730A425350410B
:1008B00043453A09436C65617220454550524F4D9E
:1008C0000A006B65796D61705F636F6E6669672E94
:1008D0007261773A20253032580A2E737761705F43
:1008E000636F6E74726F6C5F636170736C6F636B58
:1008F0003A2025750A2E636170736C6F636B5F74A9
:100900006F5F636F6E74726F6C3A2025750A2E7379
:100910007761705F6C63746C5F6C6775693A2025F2
:10092000750A2E737761705F7263746C5F7267759E
:10093000693A2025750A2E737761705F6C616C745B
:100940005F6C6775693A2025750A2E737761705F51
:1009500072616C745F726775693A2025750A2E6E34
:100960006F5F6775693A2025750A2E737761705F2E
:1009700067726176655F6573633A2025750A2E7329
:100980007761705F6261636B736C6173685F6261F2
:10099000636B73706163653A2025750A2E6E6B7206
:1009A0006F3A2025750A0064656275675F636F6E34
:1009B0006669672E7261773A20253032580A2E65B3
:1009C0006E61626C653A2025750A2E6D61747269DC
:1009D000783A2025750A2E6B6579626F6172643AE8
:1009E0002025750A2E6D6F7573653A2025750A00EE
:1009F0006565636F6E6669673A0A64656661756C02
:100A0000745F6C617965723A2025750A003F000AAF
:100A10006D6F7573653A206F66660A000A6D6F75B3
:100A200073653A206F6E0A000A6B6579626F6172B6
:100A3000643A206F66660A000A6B6579626F6172BC
:100A4000643A206F6E0A000A6D61747269783A2008
:100A50006F66660A000A6D61747269783A206F6E7B
:100A60000A000A64656275673A206F66660A000AC2
:100A700064656275673A206F6E0A000A0A4A756DEE
:100A800070696E6720746F20626F6F746C6F616441
:100A900065722E2E2E2000433E2000436C6561724D
:100AA000696E6720454550524F4D0A000A002530B7
:100AB000325820006B6579626F6172645F72657095
:100AC0006F72743A20005B735D005B575D005B538F
:100AD0005D005B525D005B445D005B435D001203A3
:100AE000410074007200650075007300360032002A
:100AF00000000E03500072006F0066006500740075
:100B000000000403090409025B00030100A0FA09C4
:100B1000040000010301010009211101000122402C
:100B2000000705810308000A090401000103000011
:100B300000092111010001227B000705820320002A
:100B40000A0904020002030000000921110100014A
:100B5000222200070583032000010705030320006C
:100B6000011201000200000008EDFE6260010001B8
:100B70000200010631FF0974A1010975150026FF65
:100B8000009520750881020976150026FF00952042
:100B900075089102C005010902A10185020901A1A0
:100BA000000509190129081500250195087501811D
:100BB000020501093009311581257F9502750881EB
:100BC0000609381581257F950175088106050C0AEF
:100BD00038021581257F950175088106C0C0050181
:100BE0000980A101850319012AB700150126B70064
:100BF000950175108100C0050C0901A1018504193A
:100C0000012AA002150126A002950175108100C0DD
:100C100005010906A101050719E029E715002501CD
:100C20009508750181029501750881010507190074
:100C300029FF150026FF0095067508810005081993
:100C4000012905950575019102950175039101C072
:100C500011241FBECFEFDAE0DEBFCDBF04B603FE26
:100C600027C08091EB029091EC02A091ED02B0912F
:100C7000EE028730904BA740B04BD1F41092EB02BC
:100C80001092EC021092ED021092EE0214BE84B7A4
:100C9000877F84BF0FB6F894A89580916000886123
:100CA00080936000109260000FBEE0E0F8E30995C9
:100CB00011E0A0E0B1E0E2E0FBE502C005900D929A
:100CC000AA3FB107D9F722E0AAEFB1E001C01D9217
:100CD000AB3EB207E1F70E94051A0C947F2D0C94ED
:100CE0000000FF93EF93E091FA01F091FB01309740
:100CF00009F00995EF91FF910895FC0185918030ED
:100D000011F0EFDFFBCF0895FF27E0E230E247FF6D
:100D10000CC0419597FF09C0EDE2609570958095F4
:100D20009095611D711D811D911D27FF02C02195A8
:100D300030E350E2AA27660F771F881F991FAA1F6A
:100D4000A41710F0A41B63955A95A9F7AA3008F0D0
:100D5000A95FA05DAF93F3956115710581059105BC
:100D600041F7ED3211F4EF93F395F21718F43F9336
:100D7000F395FBCF8F91B5DFFA95E1F70895E991EF
:100D8000F9918591803021F0853219F0AADFF9CFF1
:100D9000089520E0E89455915532C1F3503311F491
:100DA000689455915A3348F4505390F3220F022E11
:100DB000220F220F200D250FF4CF0EF421958991DB
:100DC0009991533619F3533729F1533559F1BC0131
:100DD00088279927E8945C3621F489919991689441
:100DE0005591543639F446EF7EF077FF0DC08FEF02
:100DF0009FEF0AC055374AE039F0583540E121F0FD
:100E0000523642E009F00895FF93EF937DDFEF91B2
:100E1000FF91B7CFFF93EF93FC0181918030B9F33D
:100E200060DFFBCFFF93EF9368DFF1CFDF93CF93CA
:100E3000CDB7DEB72596A3DFCF91DF9108959C0152
:100E40003A9521153F4130F5BC0166277270AC011F
:100E5000442754709C012227387094FF0FC090FFE4
:100E600002C080E101C080E0672B09F08062452B61
:100E700009F08064232B79F080680895892F8170B0
:100E8000672B09F08260452B09F08460232B19F051
:100E90008860089580E00895CF93DF93EC01805E31
:100EA0009109089710F0209731F4CE010E941F0796
:100EB0000E94A70A05C0CE010E941F070E943B0D99
:100EC0008C2FDF91CF910C947009CF93DF93EC01BD
:100ED0000E941F0ACE01805E9109089710F02097AA
:100EE00039F4CE010E941F07DF91CF910C94AE0A16
:100EF000CE010E941F07DF91CF910C94420DCF933A
:100F0000DF93EC010E944C07CE01DF91CF910C944E
:100F1000650781E0089581E008950C948B0708959A
:100F20000C948F071F93CF93DF9300D000D01F92B4
:100F3000CDB7DEB749835A836B833091FC01898139
:100F40009A81311114C0662359F0222349F00E947E
:100F5000190F182F682F89819A810E94C20E03C031
:100F60000E94ED0E182F69817A81812F04C00E94A2
:100F7000190F69817A810F900F900F900F900F9049
:100F8000DF91CF911F910C940616FC01262F408112
:100F900051816281738184810C94920781E008956C
:100FA000CF93DF93EC0160E00E94C507BE01DF91A3
:100FB000CF910C9490070E941A180E9416090E9463
:100FC0004F1D0C949D180C94991880E00C941709EF
:100FD00008950C94E8070E94630D0E94E9072FEF23
:100FE00084E39CE0215080409040E1F700C0000085
:100FF0000C945C250F931F93CF93DF938C0161E0DA
:101000000E94C507EC01B8010E948D07882309F4EE
:1010100062C0B801CE010E941C1E882309F45BC087
:10102000B801CE010E944023882309F454C0B801BE
:10103000CE010E94381E882309F44DC0B801CE01AC
:101040000E949C22882309F446C0F80182818823EB
:10105000D9F1CF3D8CE5D80779F140F4C115FCE515
:10106000DF0791F0C130DC4591F02EC0CC35EDE5C5
:10107000DE0741F1CD35FDE5DF0709F1CB35DD4573
:1010800019F50E94301420C00E94EB0724C0809103
:101090008A02C82FC095C170C0FB80F980938A0274
:1010A000CC2329F084E992E00E947D0614C082E8F6
:1010B00092E00E947D0610C00E94DE140CC00E94C7
:1010C000271402C00E943314C801DF91CF911F91F1
:1010D0000F910C948907C0E08C2FDF91CF911F9165
:1010E0000F9108950C94E8070E949C230E94170911
:1010F0000C947208DF92EF92FF920F931F93CF939D
:10110000DF93E82FF0E0EB55FD4FD490282F269584
:101110002695269530E0F901EB5BFC4F0491877032
:1011200010E0082E02C0159507950A94E2F70170A9
:101130001127F901EB5CFC4FE490F12C082E02C062
:10114000F594E7940A94E2F791E0E922FF24F9018B
:10115000EB5DFC4FC491D0E002C0D595C7958A9550
:10116000E2F7C170DD270115110519F081EE0E942B
:101170007009E114F10419F086EE0E9470098D2DBA
:101180000E949E0AEF2819F086EE0E941F0A012B8A
:1011900019F081EE0E941F0ACD2B51F08CE2DF91F5
:1011A000CF911F910F91FF90EF90DF900C949E0ACA
:1011B000DF91CF911F910F91FF90EF90DF900895F5
:1011C000982F9F709A50963010F0805D01C0895A18
:1011D0000C947A088295982F937344E0949F900121
:1011E00011248C7C86958695282B822F8575880FF7
:1011F0002A7A2695822B0895CF93DF93D92F0E94C8
:10120000EA08C82F8D2F0E94EA082C2F30E0322FD9
:101210002227A901482BCA01DF91CF910895089593
:101220000C940F0981E008950C9412090895CF934E
:10123000C82F0E9410098C2F0E941409CF91089585
:10124000CF93DF93CDB7DEB72B970FB6F894DEBF01
:101250000FBECDBF4F83588769877A878B8761110F
:101260000E945F139E012F5F3F4F86E0F9011192AC
:101270008A95E9F785E0FE013796D90101900D9234
:101280008A95E1F789819A814C815D81452B31F006
:101290009F3F31F491E08F3F19F403C091E001C00A
:1012A00090E090FF09C049815A816B817C818D81DA
:1012B0009E810E947D1205C0C9010E94CE07811146
:1012C000F2CF2B960FB6F894DEBF0FBECDBFDF91E5
:1012D000CF910895FC01808191810E945B0F089558
:1012E000CF93882309F4A9C0C82F8238C1F40E9483
:1012F0009C2381FDA2C069E38091020190910301CA
:101300000E9470240E9491132FEF81EE94E02150EF
:1013100080409040E1F700C0000069E319C08338C5
:1013200001F50E949C2380FD88C063E58091020145
:10133000909103010E9470240E9491132FEF81EE7F
:1013400094E0215080409040E1F700C0000063E548
:1013500080910201909103010E947224CF910C941C
:1013600091138438C1F40E949C2382FD66C067E417
:1013700080910201909103010E9470240E949113B8
:101380002FEF81EE94E0215080409040E1F700C0C3
:10139000000067E4DDCF8CEF8C0F813AF8F48C2FDE
:1013A0000E944522811149C06C2F809102019091C9
:1013B00003010E943A24882349F06C2F8091020196
:1013C000909103010E9472240E9491136C2F8091CE
:1013D0000201909103010E947024C0CF80E28C0F23
:1013E000883048F4C77081E001C0880FCA95EAF7D9
:1013F0000E943F13B3CFEBE5EC0FE33040F4F0E095
:10140000E95BFE4F808190E0CF910C940224E8E5E7
:10141000EC0FE73150F4F0E0EE0FFF1FE75EFE4FF8
:1014200080819181CF910C941824CD3E30F08C2F87
:101430000E94941ACF910C94661BCF910895882333
:1014400009F464C0823879F40E949C2381FF5EC055
:1014500069E380910201909103010E9470240E942F
:10146000911369E310C08338B1F40E949C2380FF7C
:101470004DC063E580910201909103010E947024A8
:101480000E94911363E580910201909103010E94F3
:1014900072240C949113843879F40E949C2382FF67
:1014A00035C067E480910201909103010E9470248D
:1014B0000E94911367E4E7CF9CEF980F913A10F4E4
:1014C000682FE1CF90E2980F983050F4877091E048
:1014D00001C0990F8A95EAF7892F0E944513D9CF49
:1014E0009BE5980F933020F480E090E00C94022468
:1014F00098E5980F973120F480E090E00C94182440
:101500008D3E20F00E94EF1A0C94661B08951F93E5
:10151000CF93DF93182FEB010E947009209741F0C1
:101520008FE99FE00197F1F700C000002197F6CF07
:10153000812FDF91CF911F910C941F0A893319F0ED
:1015400060E070E002C060E570E00C94870A8823D8
:1015500021F00E943F130C9491130895882321F0E9
:101560000E9445130C9491130895CF92DF92EF924D
:10157000FF920F931F93CF93DF937C01162FC72FFA
:10158000FC01D281058102950F700E9435138823DA
:10159000B9F0DD23A9F08C2F807F803421F080E228
:1015A000810F883068F08091BE0282FD09C082E020
:1015B0000E94E1130E94351391E0D82ED92601C074
:1015C000D12CCC2EC2948FE0C8228C2D90E0FC014F
:1015D000EA5AFF4F0C94162D8C2F807FCF708823F2
:1015E00011F0C295C07FDD2399F0CC2309F4A6C188
:1015F00080E2810F883010F0111104C08C2F0E94FE
:101600003F1303C08C2F0E9452130E94911396C166
:10161000812F0E941F0ACC2309F4B5C180E2810FFB
:10162000883038F1112329F18C2F0E94581324C0DF
:101630008C2F807FCF70803211F0C295C07F112334
:1016400019F01130A1F13DC08091BE0282FF17C098
:10165000DD2349F0CC2329F08C2F0E943F130E94F8
:10166000911380E06CC180E00E941F0ACC2309F432
:101670008AC18C2F0E9445130E94911384C1DD23DF
:1016800071F0002341F0013031F40E9472138C2B71
:101690000E947A1378C10E9472138C2B1DC0002304
:1016A00019F0013009F46FC10E94871325C0DD23B2
:1016B00021F0063008F067C10EC0053008F063C1A4
:1016C0001BC0DD2361F0002331F0F701858180FF2D
:1016D00035C18F7085838C2F0E94A70A54C10023C7
:1016E00059F0193309F03BC1FFEF27EE83E0F150C9
:1016F00020408040E1F731C18C2F0E94AE0A43C1E7
:101700008C2F86958695837019F0813061F03BC1EE
:10171000DD2321F0812F9C2F937002C080E090E0A8
:101720000E94022438C1DD2321F0812F9C2F937069
:1017300002C080E090E00E9418242DC1812FDD239B
:1017400019F00E94941A02C00E94EF1A0E94661BB0
:1017500022C18C2F837009F045C0D11118C1412FCF
:10176000429546954770440F440F612F6F70862F46
:1017700090E0A0E0B0E0042E04C0880F991FAA1FDB
:10178000BB1F0A94D2F714FF10C00FE010E020E056
:1017900030E004C0000F111F221F331F4A95D2F7FB
:1017A000009510952095309503C000E010E0980159
:1017B000C695C695C370BC01CD01602B712B822BE1
:1017C000932BC23049F058F4C13019F00E94D80D63
:1017D000DEC00E94C60DDBC00E94EA0DD8C00E9488
:1017E000C40DD5C0DD2319F08C2F817001C0869502
:1017F000882309F4CCC0412F429546954770440F89
:10180000440F612F6F70862F90E0A0E0B0E0042EAF
:1018100004C0880F991FAA1FBB1F0A94D2F714FF98
:1018200010C00FE010E020E030E004C0000F111FF6
:10183000221F331F4A95D2F70095109520953095B9
:1018400003C000E010E09801C695C695C370BC01C6
:10185000CD01602B712B822B932BC23049F058F4B1
:10186000C13019F00E949D0E92C00E948B0E8FC055
:101870000E94AF0E8CC00E94FE0D89C0CF70DD2388
:1018800039F08C2F0E94240E812F0E94A70A7FC05E
:10189000812F0E94AE0A8C2F0E94450E78C0123F05
:1018A00021F128F4103F41F0113FC1F043C0133F34
:1018B00019F1143F79F03EC0DD2341F0053008F006
:1018C00062C08C2F8F710E946A0E5DC0063008F0D6
:1018D0005AC0F7CF8091BE0282FF18C0DD2339F0D5
:1018E0008C2F8F710E94240E4EC0DD23C9F38C2FE4
:1018F0008F710E94450E47C0DD2329F08C2F8F7118
:101900000E940F0E40C00E940A0E3DC0DD2349F028
:10191000CF718C2F0E94240E63E08C2F0E94C6137F
:1019200032C081E00E94E113023068F182E00E943F
:10193000E11329C0DD2331F0002391F2812F0E94B1
:10194000700921C0002399F2193349F49FEFE7EEA3
:10195000F3E09150E040F040E1F700C00000812F3B
:101960000E941F0A10C04C2F4F70612FC7010E94A8
:1019700002160E94890F0FC04C2F4F70612FC701B4
:101980000E94051608C088EF8C0D843020F40E9458
:101990009C230E941709DD20C9F00E94311380FDAD
:1019A00015C0F70112820E942B130E94240EC7015A
:1019B0000E94070D0E942B13DF91CF911F910F9171
:1019C000FF90EF90DF90CF900C94450EDF91CF9178
:1019D0001F910F91FF90EF90DF90CF9008950F939C
:1019E0001F93CF93DF93EC01688179818A810E94F4
:1019F000660F8C010E94C10E0E94B20DB801CE018B
:101A00000E94B50ADF91CF911F910F910895CF9356
:101A1000DF93EC01988189812B813C81232B31F06C
:101A20008F3F31F481E09F3F19F403C081E001C092
:101A300080E080FD1DC0CE010E94FA07811110C018
:101A40000E9435138823A1F08A81882389F0809130
:101A5000BE0282FD0DC082E0DF91CF910C94E113B4
:101A6000CE010E94EF0CCE01DF91CF910C94D007F4
:101A7000DF91CF910895882321F00E9452130C9496
:101A800091130895882321F00E9458130C94911308
:101A9000089580E090E00E94022480E090E00E949F
:101AA00018240E945F130E946F130E9491130E94DA
:101AB000191D0C94661B80910201909103010E94F4
:101AC00074240C94490D0E944F130C945B0DE92F64
:101AD000E295EF704E2F50E0FA013297EE30F105AB
:101AE000B0F4EA59FF4F0C94162D803F91F018F492
:101AF000883E68F40EC0843F51F40BC0883E48F025
:101B0000813F29F406C093FB882780F9089580E07F
:101B1000089581E00895FC01808191810E945B0F0E
:101B20000E94670D0895CF93DF9300D000D01F92DD
:101B3000CDB7DEB70F900F900F900F900F90DF9101
:101B4000CF910895CF93DF9300D000D000D0CDB7D0
:101B5000DEB726960FB6F894DEBF0FBECDBFDF917D
:101B6000CF910895089508950C94B30D0C94B40D7D
:101B70000E94B60D60932E0270932F028093300264
:101B8000909331020C94490D0C94B80D0F931F9350
:101B900000912E0210912F022091300230913102DB
:101BA000602B712B822B932B1F910F910C94B80DEE
:101BB0000F931F9300912E0210912F02209130025B
:101BC0003091310260237123822393231F910F915F
:101BD0000C94B80D0F931F9300912E0210912F02B9
:101BE000209130023091310260277127822793279C
:101BF0001F910F910C94B80D0C94B30D0E94FC0D25
:101C000060932A0270932B0280932C0290932D02F2
:101C10000C94490D60E070E0CB010C94FE0D0F9325
:101C20001F9341E050E060E070E08A019B0104C036
:101C3000000F111F221F331F8A95D2F7C901B80167
:101C40001F910F910C94FE0D0F931F9341E050E0F4
:101C500060E070E004C0440F551F661F771F8A952F
:101C6000D2F780912A0290912B02A0912C02B09180
:101C70002D028A019B01082B192B2A2B3B2BC90112
:101C8000B8011F910F910C94FE0D0F931F9341E02B
:101C900050E060E070E004C0440F551F661F771FDE
:101CA0008A95D2F7409550956095709580912A025B
:101CB00090912B02A0912C02B0912D028A019B01E0
:101CC000082319232A233B23C901B8011F910F912F
:101CD0000C94FE0D0F931F9341E050E060E070E024
:101CE00004C0440F551F661F771F8A95D2F7809155
:101CF0002A0290912B02A0912C02B0912D028A0110
:101D00009B01082719272A273B27C901B8011F91E2
:101D10000F910C94FE0D0F931F9300912A021091C6
:101D20002B0220912C0230912D02602B712B822BE3
:101D3000932B1F910F910C94FE0D0F931F93009105
:101D40002A0210912B0220912C0230912D02602347
:101D50007123822393231F910F910C94FE0D0F93F7
:101D60001F9300912A0210912B0220912C02309196
:101D70002D0260277127822793271F910F910C94C2
:101D8000FE0D08952DE0929F800D1124E82FE69519
:101D9000E695E695877051E001C0550F8A95EAF700
:101DA00085E0E89FF0011124E350FE4F20E030E091
:101DB00070E04081CB01022E02C0969587950A946F
:101DC000E2F78170819584278523842781932F5F93
:101DD0003F4F2530310569F708952DE0929F800D22
:101DE0001124682F669566956695982F977085E003
:101DF000689FB001112440E050E080E0FB01E40F57
:101E0000F51FE350FE4F208130E0092E02C03695C9
:101E100027950A94E2F721703327042E01C0220F80
:101E20000A94EAF7822B4F5F5F4F4530510531F737
:101E30000895BF92CF92DF92EF92FF920F931F937C
:101E4000CF93DF938C01C0902A02D0902B02E090B8
:101E50002C02F0902D0280912E0290912F02A091E1
:101E60003002B0913102C82AD92AEA2AFB2ACFE1EE
:101E7000D0E0D701C6010C2E04C0B695A795979562
:101E800087950A94D2F780FD04C0219790F7B12C72
:101E900007C0BC2EB8018C2F0E943D170197A9F3F3
:101EA0008B2DDF91CF911F910F91FF90EF90DF90DD
:101EB000CF90BF900895CF93DF93EC010E94190F4C
:101EC000BE010E943D17DF91CF9108951F93CF93DC
:101ED000DF93EB019091FC01992321F0CB010E944B
:101EE0005B0F13C0882349F0CB010E94190F182FF4
:101EF000682FCE010E94C20E04C0CB010E94ED0EDD
:101F0000182FBE01812F0E943D17DF91CF911F91A5
:101F10000895EF92FF920F931F93CF93DF938C015D
:101F2000892B09F46CC0F12CEE24E394E80121968E
:101F3000F8018491843740F4843008F051C0813036
:101F400081F0823019F15BC0853709F444C0A8F1F3
:101F50009CE7980F903708F052C08F770E941F0AB5
:101F600041C00E5F1F4FFE01849190E2980F9830A0
:101F700050F48770FE2D01C0FF0F8A95EAF78F2F6E
:101F80000E94621314C00E9470092DC00E5F1F4F83
:101F9000FE01849190E2980F983060F48770FE2DD6
:101FA00001C0FF0F8A95EAF78F2F0E9468130E94E5
:101FB000911319C00E941F0A16C00E5F1F4FFE0129
:101FC000C491CC2381F08FE99FE00197F1F700C025
:101FD0000000C150F6CF0E5F1F4FFE01F49003C00A
:101FE0000E9470098E018F2D882309F49FCFEFE99D
:101FF000FFE03197F1F700C000008150F5CFDF918D
:10200000CF911F910F91FF90EF9008951F93CF9361
:10201000DF93C091320216E080913302C81799F025
:10202000D0E01C9FF0011D9FF00D1124EC5CFD4FD2
:102030004081518162817381848195810E94A20DCA
:102040002196C770E9CFDF91CF911F9108954091FC
:1020500064025091650260916602709167028091FE
:102060006802909169020C94A20DEF92FF920F9377
:102070001F93CF93DF938091690282958F7009F04F
:1020800065C080916602882309F460C080913202A5
:10209000F090330210916402009165026091670232
:1020A0007091680291E01F3F09F090E0C09100013B
:1020B000D0910101292F96E0E92E8F1509F446C031
:1020C0006115710521F00F3F21F030E003C031E0D0
:1020D00001C0322F90E030FD36C0E89EF001E99E4D
:1020E000F00D1124DF01AC5CBD4F11963C911197AE
:1020F000301329C03C91311326C012963C9112979F
:10210000311121C013964D915C911497461B570BCA
:102110004C175D07C0F4809169028F7080618093D5
:102120006902E75CFD4F80818F708061808384E667
:1021300092E00E94070DDF91CF911F910F91FF90C8
:10214000EF900C94061001968770B7CFDF91CF9176
:102150001F910F91FF90EF9008959F92AF92BF92C1
:10216000CF92DF92EF92FF920F931F93CF93DF9363
:10217000CDB7DEB761970FB6F894DEBF0FBECDBF07
:102180008C0185E0F801DE011D9601900D928A9583
:10219000E1F7D8011296EC9090916402E09165020B
:1021A00020916702309168022115310531F0EF3F2F
:1021B00031F481E09F3F19F403C081E001C080E069
:1021C000B82FB1709B2E80FD47C1D8014C9111965C
:1021D0005C9111971396AD90BC90149784E6C82E2D
:1021E00082E0D82EF0906602B501621B730B20913D
:1021F000000130910101FF2009F4D9C080916902EA
:102200006217730708F095C0282F207F09F052C08D
:102210005E1313C0491311C0FE2CE1100EC08F7065
:102220008061809369020E942710C6010E94070DF9
:1022300080916902F80185834DC1AB2831F05F3F81
:1022400031F481E04F3F19F403C081E001C080E028
:1022500080FD03C081E08E2502C080E090E0F82F71
:10226000F170FF2E80FF1CC080913202209133025A
:1022700036E0821709F40BC190E0389FF001399FD6
:10228000F00D1124EC5CFD4F6181561306C0608196
:10229000461303C06281E61203C001968770E9CF3E
:1022A000FE2CEE2009F416C18091690281608093B2
:1022B000690254C05E1306C0491304C0E11002C095
:1022C000F80199C0C8010E948B0D882361F1EE20AE
:1022D00051F120916902822F82958F7090E00297D0
:1022E00074F0809164029091650298878F831986BB
:1022F000BB86AA862C87CE0107960E94070D86E032
:10230000F801A4E6B2E001900D928A95E1F70E94EF
:1023100035100E9427100AC05E1711F1C8010E94F3
:102320008B0D81112CC0C8010E94070DFF24F3946E
:10233000D1C0282F207F81F77A2DB98AA88A6E2DE7
:1023400089890E94930D84E692E00E94070D86E041
:10235000D6011D928A95E9F70E942710F12CBAC088
:102360004913DCCFE110DACFF8018583C8010E9460
:10237000070D86E0D6011D928A95E9F7ABC0EE20E5
:1023800091F220916902822F82958F7090E00297DE
:102390000CF4B5CF80916402909165029A83898391
:1023A0001B82BD82AC822E83CE010196A6CF62171E
:1023B000730708F044C0FE2CEE2009F4B4CF5E137E
:1023C00030C049132EC02091690220FD21C0822F08
:1023D00082958F70482F50E041155105C9F0F801E2
:1023E00025834F30510541F08F5F982F9295907F54
:1023F000822F8F70892B8583C8010E94070D86E08C
:10240000F801A4E6B2E001900D928A95E1F73CC094
:1024100086E0F801A4E6B2E001900D928A95E1F71A
:1024200059C0C8010E948B0D811169CF809169024A
:10243000816080936902C8010E94070D4BC07A2D0C
:10244000B98AA88A6E2D89890E94930D86E0D601EB
:102450001D928A95E9F718C0EE2009F464CFC801EF
:102460000E948B0DF82E882309F45DCF86E0F801D9
:10247000A4E6B2E001900D928A95E1F784E692E03D
:102480000E946A090E9435100E94271023C04D87C0
:102490005E878D859E850E945B0F292F22952F7068
:1024A000223028F49F7039F0811105C00BC0243010
:1024B00028F49F7049F4805E883020F0C8010E94A3
:1024C000070D9F2CF92C06C0D80115969C91907F82
:1024D00091F7F8CF8F2D61960FB6F894DEBF0FBE3F
:1024E000CDBFDF91CF911F910F91FF90EF90DF90C3
:1024F000CF90BF90AF909F9008951F93CF93DF939D
:10250000CDB7DEB72C970FB6F894DEBF0FBECDBFA8
:102510004F83588769877A878B879C87CE01079678
:102520000E94AD108823D1F09F8188852A853B8544
:10253000232B31F08F3F31F481E09F3F19F403C02A
:1025400081E001C080E080FD47C04F8158856985EA
:102550007A858B859C850E94A20D3EC086E0FE0197
:102560003796DE01119601900D928A95E1F7FF8171
:10257000E8856A857B856115710531F0EF3F31F49F
:1025800081E0FF3F19F403C081E001C080E080FDDD
:1025900023C02091330230E0C9010196877099274A
:1025A0004091320250E084179507F1F1F983EA83F4
:1025B0007D836C8396E0929FD001939FB00D112490
:1025C000AC5CBD4FFE01319601900D929A95E1F7FA
:1025D000809333020E94061016E08091320290919F
:1025E0003302891771F1189FC00111248C5C9D4F33
:1025F0000E94AD10882329F1E09132021E9FF00164
:102600001124EC5CFD4F4081518162817381848192
:1026100095810E94A20D8091320290E00196877010
:10262000992780933202D9CF0E94630D1092330212
:1026300010923202E4E6F2E086E0DF011D928A9514
:10264000E9F72C960FB6F894DEBF0FBECDBFDF9131
:10265000CF911F91089580916A0285958595859502
:10266000089580916A028770089590916A02977028
:1026700081E009F480E008958091760208959091B8
:102680007602892B80937602089580959091760248
:10269000892380937602089580937602089510929C
:1026A0007602089590917502892B809375020895A2
:1026B00080959091750289238093750208951092F8
:1026C0007502089590917402892B80937402089585
:1026D00080959091740289238093740208951092DA
:1026E0007402089580916B02089508950C947513F7
:1026F0000C9476139091BE0292FD08C090916B02EB
:10270000981721F080936B020C94781308958091B0
:102710006B02882329F010926B0280E00C947813EE
:102720000895E0910201F091030180917602808387
:10273000E0910201F0910301908180917502892B53
:102740008083E0910201F0910301908180917402F5
:10275000892B808380916B02882381F0E0910201B4
:10276000F09103019081892B8083809102019091E7
:1027700003010E942E2481110E948713809102017F
:10278000909103010C94AB230C9475139091BE02AD
:1027900092FD10C098E0899F90011124262B209370
:1027A0006A020E94240E80916A028595859585951E
:1027B0000C94C4130C94240E10926A0280E00C94C2
:1027C000C41320916A028095822380936A02982F15
:1027D000977099F430E0482F082E000C550B241701
:1027E000350759F09091BE0292FD07C085958595F9
:1027F00085950E94450E0C94DC130895CF9390911B
:10280000BE0292FB222720F92817F9F0C82F892F42
:10281000C0FB82F98093BE028091BD029091BE02FE
:102820000E945A1482E00E94E11380918A0280FF84
:102830000CC01F92CF9385E593E09F938F930E94E6
:1028400016070F900F900F900F90CF9108958091E1
:10285000BE0282FB882780F991E089270C94FE1341
:1028600081E00C94FE1380E00C94FE1380E090E075
:102870000E94452D21E0893E9E4F09F020E0822FE5
:10288000089582E090E00C943D2D83E090E00C945C
:102890003D2DCF9384E090E00E943D2DC82F82E231
:1028A00090E00E943D2D2C2F30E0A901582BCA0149
:1028B000CF910895CF93C92F682F84E090E00E94B4
:1028C0004B2D6C2F82E290E0CF910C944B2DAB01FD
:1028D000BC018FE090E00C945D2DAB01BC0183E165
:1028E00090E00C945D2D60E070E0CB010C946D14D1
:1028F00060E070E0CB010E9467140C94731469EEE1
:102900007EEF80E090E00E94692D60E082E090E040
:102910000E944B2D60E083E090E00E944B2D1092CE
:102920002E0210922F02109230021092310260E0BB
:1029300084E090E00E944B2D60E082E290E00E94F3
:102940004B2D60E085E090E00E944B2D60E086E03A
:1029500090E00E944B2D6FEF87E090E00E944B2D9E
:1029600040E050E0BA0188E090E00E945D2D60E018
:102970008DE090E00E944B2D40E050E0BA0188E1EC
:1029800090E00E945D2D60E087E190E00E944B2D79
:1029900040E050E0BA018CE190E00E945D2D60E0E3
:1029A00070E080E290E00E94692D40E050E0BA01C2
:1029B00088E190E00E945D2D0C9478140C947F14B3
:1029C000682F8EE090E00C944B2D0E941B256093A5
:1029D00086027093870280938802909389026093A5
:1029E00082027093830280938402909385020895FB
:1029F00085B7806885BF85B7806885BF089581E009
:102A000008950C94FF1408950C9403150C94031569
:102A10000C9406150C9403150C940A150C940315CC
:102A20000E94F81480E497E20E9492230E940E15FF
:102A30000C940C150E9404150C9403150E94062595
:102A40000E9454190C940815CF93C82F80918A02C4
:102A500082FF1EC080FF04C081E793E00E947D06D4
:102A600080918A0280FF0CC01F92CF938CE693E086
:102A70009F938F930E9416070F900F900F900F90C7
:102A800080918A0280FF04C08AE693E00E947D065E
:102A90008C2FCF910C9417096F927F928F929F92F7
:102AA000AF92BF92CF92DF92EF92FF920F931F935C
:102AB000CF93DF93CDB7DEB72A970FB6F894DEBF7A
:102AC0000FBECDBF0E94691981110E94E51438E73D
:102AD000832E32E0932E00E010E0C02E802F0E9463
:102AE0003E185C01F401619071904F0168267926CF
:102AF00061147104B1F40F5F1F4F0530110569F7C0
:102B00008FEF89838A831B820E940F258160782F33
:102B10009D838C8349815A816B818D810E9420091C
:102B20003AC080918A0281FD0E944718D12CEE2480
:102B3000E394F12CC3018E219F21892B29F10E945E
:102B400001158823A9F0DE82CF82AE20BF2081E06C
:102B5000AB2809F480E088870E940F258160782FD8
:102B60009A8789874E815F8168858A850E942009BE
:102B7000000F111FF801E858FD4F80819181E82670
:102B8000F926F182E08207C0D394EE0CFF1CFDE031
:102B9000DF12D0CFB0CF0E94061C0E949C239091E0
:102BA00077028917D1F00E949C23809377022A969E
:102BB0000FB6F894DEBF0FBECDBFDF91CF911F914E
:102BC0000F91FF90EF90DF90CF90BF90AF909F90CC
:102BD0008F907F906F900C9424152A960FB6F894DE
:102BE000DEBF0FBECDBFDF91CF911F910F91FF9040
:102BF000EF90DF90CF90BF90AF909F908F907F909D
:102C00006F90089580E090E00895089521E4829FF8
:102C1000C0011124FC012DE0729FE00DF11D112473
:102C2000E60FF11DEE0FFF1FE450FF4F85919491C9
:102C30000895880F991FFC01EC57FC4F85919491E2
:102C40000895CF93DF930E944217EC01811520E590
:102C5000920708F03FC0811540E4940708F0D2C005
:102C6000883E910500F5803E910508F002C1883A42
:102C7000910570F4853A910508F0A6C08130910560
:102C800009F49FC008F4F2C0049708F0F2C0EEC047
:102C90008F3B910508F4A1C0803C910508F4E6C083
:102CA000805C9109A5C0811550E2950760F4C115BB
:102CB00081E0D80708F0DDC0CD3ED10508F4D6C0CC
:102CC000CE019065D7C0811520E3920708F093C02C
:102CD0009F708EC0811545E5940708F046C08115A8
:102CE00054E5950708F0A6C0C11582E5D80718F588
:102CF000C11521E5D20708F088C0CE01F4E0969511
:102D00008795FA95E1F7282F23703C2F337081E0E7
:102D100090E002C0880F991F3A95E2F79C68922BC9
:102D20002C2F2F702695269540E2249F9001112488
:102D3000822B932B9FC09E01237033279C2F969547
:102D40009695C115D34508F065C041E050E002C03A
:102D5000440F551F2A95E2F780E2989F90011124B5
:102D6000CA01822B932B9C6885C0811559E5950774
:102D700098F4C11588E5D80708F061C0C11526E5AB
:102D8000D20708F073C08C2F0E94D6178F7190E085
:102D9000982F882790626EC081154AE5940708F441
:102DA00053C090568115904208F060C08D2F8F71EE
:102DB0000E94D6179E01332730628F71A901582BCC
:102DC00053C081E090E056C0855AC82FD0E0C85863
:102DD000DE4F888190E090644DC0885AC82FD0E0C3
:102DE000CC0FDD1FC65BDE4F88819981946442C0A1
:102DF0000E9419163FC09927D3FF02C0986C3AC0B1
:102E0000906C38C09F70906A35C09C2F8827816F66
:102E1000906A30C041E050E002C0440F551F2A952F
:102E2000E2F780E2989F90011124CA01822B932B34
:102E30009A6820C0982F8827846F906A1BC09C2FA7
:102E40008827806F906A16C08F700E94D6179E01E7
:102E500094E0369527959A95E1F72F7030E0322F60
:102E600022273069A901482BCA0104C080E090E004
:102E700001C0CE01DF91CF9108950E9406160E94F5
:102E8000211608958238910569F1B0F481339105D6
:102E900009F46DC048F48932910509F463C08A329F
:102EA000910509F469C008958533910509F455C069
:102EB00089339105B9F00895833E910569F138F49D
:102EC000803E9105B1F0823E910509F10895863E5C
:102ED0009105A9F1873E9105B9F1843E910509F06C
:102EE00064C023C02091BD0220FD4FC021FD4DC014
:102EF00008958091BD0280FD44C08091BE0280FF94
:102F000044C08091BD0284FD42C083EE4DC08091DB
:102F1000BD0282FF38C0F5CF8091BD0282FD33C073
:102F20008091BE0280FD31C0ECCF8091BE0281FF56
:102F300032C08091BD0284FD2AC087EE35C08091E9
:102F4000BD0283FF26C0F5CF8091BD0283FD21C065
:102F50008091BE0281FD1FC0ECCF8091BD0285FD36
:102F60001CC01DC08091BD0285FD19C016C0809196
:102F7000BD0286FD16C017C08091BD0286FD13C03C
:102F800010C089E311C082EE0FC080EE0DC080E05A
:102F90000BC086EE09C084EE07C089E205C085E358
:102FA00003C08AE201C081E390E008959091BD02E0
:102FB00092FF0DC0282F2871283019F4877F846074
:102FC00006C0282F2471243011F48B7F886093FF72
:102FD0000DC0282F2871283119F4877E846106C01E
:102FE000282F2471243111F48B7E88612091BE0238
:102FF00020FF0DC0382F3871383019F4877F816079
:1030000006C0382F3171313011F48E7F886021FF76
:103010000DC0282F2871283119F4877E816106C0E0
:10302000282F2171213111F48E7E886194FD877ED5
:10303000089508950E943614811102C00E94DE1482
:103040000E94411480938A020E9449149093BE0208
:103050008093BD020E9419180E944514682F70E0E9
:1030600080E090E00E94C40D60912A0270912B02D2
:1030700080912C0290912D020C94FC0DE82FF0E031
:10308000EE0FFF1FE753FD4F808191810895CF928E
:10309000DF92EF92FF920F931F93CF93DF9384E918
:1030A00093E00E947D0689ECE82E82E0F82EC0E0D5
:1030B000D0E09FE8C92E93E0D92E06E813E0DF9315
:1030C000CF93DF92CF920E9416078CE893E00E9484
:1030D0007D06F701819191917F010E94FC089F93E9
:1030E0008F931F930F930E94160784E893E00E942A
:1030F0007D0621968DB79EB708960FB6F8949EBFB1
:103100000FBE8DBFC530D105D1F6DF91CF911F9194
:103110000F91FF90EF90DF90CF90089580EA8A950D
:10312000F1F7089500C008950C948E1808950C943A
:1031300096180C9497180C9496180C949B18F89465
:10314000E82FE295EF70F0E031A1282F2F7081E099
:1031500090E001C0880F2A95EAF7982F9095932365
:1031600091A392A1892B82A3789408950F931F9322
:10317000CF93DF93CBE7D1E089918F3F11F00E948D
:103180009F1881E0C838D807B9F7C8E8D1E00DE842
:1031900011E089918F3F11F00E949F180C171D07B5
:1031A000C1F7DF91CF911F910F910895AF92BF9218
:1031B000DF92EF92FF920F931F93CF93DF93C62F6F
:1031C000D0E0C558DE4F28812F3F09F463C08A0143
:1031D000F62EE92ED82EF894E22FE295EF70F0E06B
:1031E00091A1822F8F7021E030E001C0220F8A95DB
:1031F000EAF7892F822B81A382A12095282322A37D
:1032000078940E94921888E8A82E81E0B82EED2DBF
:10321000FE2D9F01265F3F4FE12CA8014095509560
:10322000D5016D915D016F3FC9F0862F82958F703A
:1032300090E0DC0190968C9190E06F7002C09595C3
:1032400087956A95E2F780FD09C080819181802B86
:10325000912B91838083EE24E39406C08081918139
:1032600084239523918380833296E217F307C1F676
:1032700088818F3F11F00E949F186E2D8F2DDF9156
:10328000CF911F910F91FF90EF90DF90BF90AF9083
:103290000C949418DF91CF911F910F91FF90EF90B4
:1032A000DF90BF90AF9008950E94B6188AE0E9ECD5
:1032B000F2E0DF01982F1D929A95E9F7EFEBF2E02B
:1032C000DF011D928A95E9F785E00E94BE190C94F2
:1032D000DB07CF92DF92FF920F931F93CF93DF9381
:1032E000CDB7DEB72A970FB6F894DEBF0FBECDBFBD
:1032F0008E010F5F1F4F8AE0F80111928A95E9F75E
:10330000F12CCC24C394D12CA6016F2DC8010E94AE
:10331000D618F394CC0CDD1CFDE0FF12F5CF4AE08B
:1033200050E0B8018FEB92E00E94302DFF24F3941F
:10333000009709F4F12C892B41F08AE0F801AFEBFA
:10334000B2E001900D928A95E1F72F2D45E069ECEE
:1033500072E08FEB92E00E94BF190E94E3078F2D6D
:103360002A960FB6F894DEBF0FBECDBFDF91CF9186
:103370001F910F91FF90DF90CF9008950895FF92D5
:103380000F931F93CF93DF93F82E092F162FD72F6C
:10339000C42F222349F081E080938D020E940F25E3
:1033A00090938C0280938B0280918D028823D9F0B8
:1033B00080918B0290918C020E942725059798F0AE
:1033C000EF2DF02FA12FBD2F80E090E04C2F50E08B
:1033D0008417950734F4219131912D933D930196F3
:1033E000F7CF10928D02DF91CF911F910F91FF9037
:1033F00008950E94BC270E941E150C94C8270E94A5
:10340000CC270E944C150C94EA270E9495240E9418
:10341000A3270E9410150E94F9190E94FF190E940B
:103420001A15FBCF8091940280FF0BC060910901B7
:1034300085E0689FB001112475956795759567952E
:103440002BC081FF09C06091090185E0689FB00130
:1034500011247595679520C082FF07C0609109010E
:1034600085E0689FB001112417C0909193029923C1
:10347000D1F060910801961788F72091090185E045
:10348000289F90011124929FA001939F500D112419
:1034900070E0CA010E94022D6038710540F4611588
:1034A000710519F406C065E070E0862F08958FE776
:1034B000089581E008958091940280FF08C0609192
:1034C000050170E0759567957595679521C081FF39
:1034D00006C06091050170E07595679519C082FF7F
:1034E00004C06091050170E010C090919202992390
:1034F00099F0609104019617A0F780910501899FCA
:10350000C001112470E00E94022D6038710540F462
:103510006115710519F406C061E070E0862F089509
:103520008FE7089581E008958D3E21F40E94121ADC
:10353000819504C08E3E29F40E94121A809398024D
:1035400008958F3E21F40E94121A819504C0803F95
:1035500029F40E94121A809397020895893F19F462
:103560000E945B1A05C08A3F31F40E945B1A819564
:103570008093990208958B3F21F40E945B1A8195F4
:1035800004C08C3F29F40E945B1A80939A0208952C
:103590009FE0980F983078F421E030E0A90102C054
:1035A000440F551F9A95E2F7CA0190919602892B14
:1035B0008093960208958D3F21F48091940281605A
:1035C0000BC08E3F21F480919402826005C08F3F32
:1035D00029F48091940284608093940208958D3E32
:1035E00039F49091980297FF35C01092980259C013
:1035F0008E3E29F4909198021916BCF32BC090913D
:1036000097028F3E29F497FF25C01092970249C078
:10361000803F19F41916CCF31DC090919902893F8F
:1036200029F41916BCF4109299023BC08A3F19F490
:1036300097FF10C0F8CF8B3F39F490919A0297FF13
:1036400009C010929A022DC08C3F21F490919A02E9
:103650001916BCF39FE0980F983080F421E030E019
:10366000A90102C0440F551F9A95E2F7CA0180953F
:103670009091960289238093960213C08D3F21F486
:10368000809194028E7F0BC08E3F21F48091940232
:103690008D7F05C08F3F29F4809194028B7F8093AA
:1036A000940280919702811106C080919802811145
:1036B00002C01092930280919902811106C08091FC
:1036C0009A02811102C010929202089580918A029A
:1036D00083FF7EC082ED93E00E947D06809196027A
:1036E0001F928F938DEC93E09F938F930E94160708
:1036F0008BEC93E00E947D0680919702282F082E84
:10370000000C330B3F938F9388EC93E09F938F9340
:103710000E94160786EC93E00E947D068091980235
:10372000282F082E000C330B3F938F9383EC93E0EC
:103730009F938F930E94160781EC93E00E947D0671
:1037400080919902282F082E000C330B3F938F9302
:103750008EEB93E09F938F930E9416078CEB93E080
:103760000E947D0680919A02282F082E000C330BB0
:103770003F938F9389EB93E09F938F930E9416075B
:1037800086EB93E00E947D06809193021F928F93B7
:1037900083EB93E09F938F930E94160781EB93E056
:1037A0000E947D06809194021F928F938EEA93E08F
:1037B0009F938F930E9416078BEA93E00E947D06E9
:1037C0008DB79EB74C960FB6F8949EBF0FBE8DBFB7
:1037D0000E940F2520919702211104C02091980288
:1037E000222321F0909391028093900220919902DC
:1037F000211104C020919A02222321F090938F027C
:1038000080938E0285E992E00C94F423EF92FF926C
:103810000F931F93CF93DF9300D000D000D0CDB78C
:10382000DEB786E0E5E9F2E0DE01119601900D9247
:103830008A95E1F7E0909702F09098020091990242
:1038400010919A0210929702109298021092990287
:1038500010929A02E11003C0FF2009F45DC080912C
:103860009002909191020E942725AC0190919302C1
:10387000992339F020910A0130E02417350758F0D8
:103880004BC020910B018AE0289F9001112424173E
:10389000350718F041C09F3F19F09F5F9093930246
:1038A000EE2061F00E94121A1E1414F09FEF01C066
:1038B00091E0989F902D112490939702FF2061F042
:1038C0000E94121A1F1414F09FEF01C091E0989FFC
:1038D000902D112490939802309197023323E1F0B8
:1038E000209198022223C1F045EB3403C00111243A
:1038F000992319F09093970203C081E08093970277
:1039000035EB2303C0011124992319F090939802F9
:1039100003C081E080939802011103C0112309F4D0
:103920005DC080918E0290918F020E942725AC018C
:1039300090919202992339F02091060130E02417EA
:10394000350758F04BC0209107018AE0289F90016D
:1039500011242417350718F041C09F3F19F09F5FCD
:1039600090939202002361F00E945B1A101614F0EB
:103970009FEF01C091E0989F902D112490939902A0
:10398000112361F00E945B1A111614F09FEF01C021
:1039900091E0989F902D112490939A023091990272
:1039A0003323E1F020919A022223C1F045EB340346
:1039B000C0011124992319F09093990203C081E06A
:1039C0008093990235EB2303C0011124992319F048
:1039D00090939A0203C081E080939A0280919702AB
:1039E00081110BC080919802811107C080919902CA
:1039F000811103C080919A0281110E94661BEB82A3
:103A0000FC820D831E8386E0FE013196A5E9B2E0BB
:103A100001900D928A95E1F726960FB6F894DEBFD5
:103A20000FBECDBFDF91CF911F910F91FF90EF900F
:103A30000895E5E9F2E086E0DF011D928A95E9F755
:103A40001092930210929202109294020895CF93D2
:103A5000DF9397FF0DC0FB012281222349F0EC0187
:103A60000E948E1DCE019F770E94011E0E94DB1DC9
:103A700081E0DF91CF9108959091D402923069F462
:103A80008A3040F490E009966AE070E00E94022DCE
:103A9000875A01C086500C949E0A0C94E0088CE072
:103AA00090E00E943D2D90E0A0E0B0E08093D40231
:103AB0009093D502A093D602B093D70280918A0248
:103AC00080FF0EC08091D4021F928F9384E194E016
:103AD0009F938F930E9416070F900F900F900F9057
:103AE00008956091D4028CE090E00C944B2D80936B
:103AF000D4020E94711D80918A0280FF0EC08091C5
:103B0000D4021F928F9385EF93E09F938F930E942F
:103B100016070F900F900F900F9008950E94A82302
:103B2000869581708093D9020E94A823817080932A
:103B3000D3028091D402813039F48091D902882354
:103B400019F089E30E949E0A0E943C138093D802D8
:103B50000E944F138091D402813071F048F082307E
:103B600081F0843009F586EE0E949E0A88E11AC031
:103B700082EE0E94700918C088E193E00E947F07DE
:103B800013C08091D302811103C083E50E949E0A75
:103B900082EE0E9470098FE39CE90197F1F700C063
:103BA000000087E50E949E0A8FE39CE90197F1F7E8
:103BB00000C0000008958091D402813059F030F0A7
:103BC000823089F08430C9F488E215C082EE0E9408
:103BD0001F0A13C08CE20E949E0A8091D90288239A
:103BE00061F089E308C082EE0E941F0A8091D3022F
:103BF000811103C083E50E949E0A8091D8020C9433
:103C00004C130F931F93CF93DF938C01CCE0D0E044
:103C1000C8010C2E02C0969587950A94E2F78F7022
:103C20000E943C1D2497CC3F8FEFD80789F7DF9186
:103C3000CF911F910F9108950F931F93CF93DF930F
:103C4000EC018B01FB018281882351F00E943C131F
:103C5000CE01825E9C458530910510F40E94771D4F
:103C6000B801CE01DF91CF911F910F910C94271DC8
:103C7000CF93DF93EC01FB018281882309F426C1F5
:103C8000C430FDE5DF0760F4CB3F9CE5D90768F45D
:103C90009E0122503C452431310508F018C105C071
:103CA000C236EDE5DE0709F012C10E944914909377
:103CB000BE028093BD02C031FCE5DF0709F4CAC033
:103CC00008F041C0C8309CE5D90709F4A4C0F0F45D
:103CD000C430FCE5DF0709F48CC068F4C2309CE511
:103CE000D90709F482C0C330DC4509F0E5C08091F2
:103CF000BD028260DFC0C630FCE5DF0709F483C087
:103D000008F085C08091BD028860D4C0CC309CE5AD
:103D1000D90709F490C068F4CA30FCE5DF0709F45C
:103D20007EC008F084C00E94630D8091BD0280684F
:103D3000C1C0CE309CE5D90709F481C008F086C027
:103D40008091BD0294C0CD3FFCE5DF0709F47BC044
:103D500038F5C4319CE5D90709F49AC058F4C2314A
:103D6000FCE5DF0709F47AC008F07EC08091BD024F
:103D70008F7BA0C0CB3F9CE5D907F1F108F03FC095
:103D8000C531DC4509F098C08091BD0282FB222735
:103D900020F991E0922790FB82F990FB83F98AC089
:103DA000C1308DE5D80709F467C050F48091BE0298
:103DB000CF3FECE5DE07C1F108F05BC08D7F65C049
:103DC000C3308DE5D80709F471C008F46DC0C23660
:103DD000DD4509F071C08091BD0284FB222720F9E6
:103DE00091E0922790FB84F965C08091BD028160CB
:103DF00061C08091BD0216C08091BE0216C0809144
:103E0000BE02826042C08091BD02806153C0809139
:103E1000BD0280624FC08091BD0280644BC0809122
:103E2000BD028860846046C0826081602EC080913F
:103E3000BD028E7F3FC08091BD028D7F3BC08091CF
:103E4000BD02877F37C08091BE0214C08091BD0241
:103E50008F7E30C08091BD028F7D2CC00E94630D8B
:103E60008091BD028F7726C08091BD02877F8B7FB6
:103E700021C08D7F8E7F09C08091BE02982F9095C2
:103E800091708E7F892B90FB81F98093BE0214C0C4
:103E90000E94630D8091BD0287FB222720F991E0EB
:103EA000922790FB87F906C081E001C080E00E9464
:103EB000E01402C08093BD028091BD029091BE02C9
:103EC0000E945A140E94630D80E001C081E0DF91DE
:103ED000CF910895809104011F928F9380910501E5
:103EE0001F928F93809108011F928F9380910901F7
:103EF0001F928F9380910A011F928F9380910B01E3
:103F00001F928F9384E394E09F938F930E941607F0
:103F10008DB79EB70E960FB6F8949EBF0FBE8DBF9D
:103F20000895883220F58E3108F068C08B3091F109
:103F3000C0F4873009F0BEC08EE180930B0182E3AC
:103F400080930A018AE08093090184E1809308014B
:103F500088E08093050188E28093040186E995E07A
:103F6000C6C0833109F443C0843169F1A3C08F34E2
:103F700009F49EC028F4893231F1883359F09AC08F
:103F8000813531F008F4D4C0823509F4A7C092C05D
:103F90008FEFA5C088EB95E00E947D060E946A1F06
:103FA0001F9281E08F931F9285E08F9381EB94E0C5
:103FB0009F938F930E9416070F900F900F900F9072
:103FC0000F900F9096C085EB95E00E947D06809142
:103FD0009F02882309F4AAC010929F0210929E02A9
:103FE00010929D0210929C0210929B02B1C087EA2F
:103FF00095E00E947D060E946A1F7BC08D518093D0
:104000009F02833031F170F48130D1F0823009F0B9
:104010003FC08AE091E090939E0280939D028AE9DE
:1040200091E01FC0853059F108F1863089F584E0B0
:1040300091E090939E0280939D0285ED91E011C0E6
:104040008BE091E090939E0280939D0281E991E044
:1040500008C089E091E090939E0280939D0286EAD9
:1040600091E090939C0280939B0218C088E091E0BD
:1040700090939E0280939D0283EB91E0F2CF85E0C6
:1040800091E090939E0280939D0282EC91E0E9CFB3
:1040900010929F0284EA95E00E947D0680919F0223
:1040A000882309F455C01F928F9380EA95E00DC0D4
:1040B0008AE015C083E995E01AC097FF47C01082D7
:1040C00080811F928F938DE895E09F938F930E943C
:1040D00016070F900F900F900F900BC081E0E091AA
:1040E0009D02F0919E02309729F58AE895E00E94A2
:1040F0007D0620919F02222359F180919B0290918D
:104100009C02009711F48DE891E09F938F931F928A
:104110002F9381E895E09F938F930E9416070F904D
:104120000F900F900F900F900F9016C080E00895A1
:1041300086EFD5CF2081082E000C990B820F911DA0
:104140008F3F910509F00CF4B8CF8FEF8083B8CF83
:104150008DE795E00E947D0681E00895CF93C82FFA
:104160001F928F938EEC95E09F938F930E9416077A
:1041700081E090E0A0E0B0E0BC01CD0104C0660F9A
:10418000771F881F991FCA95D2F70E94C40D0F9000
:104190000F900F900F90CF910C94630DEF92FF92C0
:1041A0000F931F93CF93DF938B3109F4EDC008F089
:1041B0008EC08B3009F4B1C008F078C0863009F4A5
:1041C000AFC020F4853009F4BDC04EC1873009F47A
:1041D000C0C0883009F048C10E9445141F928F93D7
:1041E00080EF99E09F938F930E9416070E944114DD
:1041F00083FB992790F91F929F9382FB992790F94F
:104200001F929F9381FB992790F91F929F93982F5C
:1042100091701F929F931F928F9387EA99E09F93CB
:104220008F930E9416070E94491487FB222720F9CA
:104230001F922F9386FB222720F91F922F9385FB35
:10424000222720F91F922F9384FB222720F91F9207
:104250002F9383FB222720F91F922F9382FB222783
:1042600020F91F922F9391FB222720F91F922F9361
:10427000292F21701F922F9381FB222720F91F9253
:104280002F93282F21701F922F939F938F9382EC4F
:1042900098E09F938F930E9416078DB79EB78896DC
:1042A0000FB6F8949EBF0FBE8DBF35C0803109F4A4
:1042B00095C020F48E3009F47BC0D6C0863109F455
:1042C000A8C0893109F0D0C08EE396E084C08A325C
:1042D000E1F060F4873209F4C3C028F48E3108F4A9
:1042E000C3C08D51BEC0893269F1BEC0833448F469
:1042F0008A3308F0B3C0853309F4B2C0883369F05B
:10430000B3C0833409F4ACC0AFC08BE99AE00E941B
:104310007D060E94DE14C1E0ACC08FE197E05BC077
:1043200080918A02817F8E7F80938A0288EF96E057
:104330000E947D0687E99AE00E947D0681E08093D5
:10434000A002E9CF8BE79AE00E947D060E94EB076E
:10435000E2CF80918A02C82FC095C170C0FB80F95E
:1043600080938A02CC2329F08FE69AE00E947D0692
:1043700080C082E69AE00E947D0680918A02897F51
:10438000877F80938A02C7CF90918A0291FBCC27C6
:10439000C0F981E0C827892FC0FB81F980938A0288
:1043A000CC2319F085E59AE029C087E49AE013C090
:1043B00090918A0292FBCC27C0F981E0C827892F0F
:1043C000C0FB82F980938A02CC2319F088E39AE03B
:1043D00015C088E29AE00E947D069DCF90918A02E6
:1043E00093FBCC27C0F981E0C827892FC0FB83F954
:1043F00080938A02CC2351F08CE19AE00E947D06E2
:1044000080918A02816080938A0233C08FE09AE0B3
:10441000E2CF0E941B25162F072FF82EE92ED091F0
:10442000BC02C09118010E949C23EF92FF920F934F
:104430001F931F92DF931F92CF931F928F9383ED51
:1044400095E09F938F930E9416078DB79EB70C96A9
:104450000FB6F8949EBF0FBE8DBF5DCF895301C0CC
:1044600080E00E94AE2057CF8DE09AE00E947D064A
:10447000C0E08C2FDF91CF911F910F91FF90EF90B3
:10448000089580E008950C944122CF93C82F809125
:10449000A002813071F040F0823009F045C08C2FCD
:1044A0000E94911F81E046C00E943C138232F1F5C8
:1044B00004C00E943C13823261F48C2F0E9443227C
:1044C000811104C08C2F0E94CE202CC081E090E08E
:1044D00029C08C2F0E944122811123C0C431C9F010
:1044E00058F4CB3069F0C031B9F482E08093A00277
:1044F00088E30E94911F15C0C93259F0C83361F496
:1045000088EF96E00E947D068AEC95E00E947D0689
:1045100008C01092A0020CC088EC95E00E947D06B5
:1045200007C081E0817006C01092A00280E002C046
:1045300080E0F8CFCF910895CF93DF9386319C45EB
:1045400041F5EB010E943C13982F8A8120910201D2
:1045500030910301882379F09A7A81E009F480E0B0
:104560008093A102911102C069E201C065E3C90113
:104570000E9470240AC08091A102811102C069E2E8
:1045800001C065E3C9010E9472240E94911380E07A
:1045900001C081E0DF91CF9108950F931F93CF93D6
:1045A000DF93C42FD22FFC0182818823C9F040936E
:1045B000A4020E940F259093A3028093A20280E29E
:1045C0008C0F883008F057C0C77081E001C0880F99
:1045D000CA95EAF7DF91CF911F910F910C94A70A2A
:1045E0008091A402481330C08091A2029091A3024E
:1045F0000E942725883C910538F510E21D0FCD1744
:10460000B9F080E28C0F883040F4C77081E001C0BF
:10461000880FCA95EAF70E94AE0A183028F581E0A3
:104620009D2F977001C0880F9A95EAF70E94A70AFC
:10463000802F0E949E0A1830F0F4D77081E001C0EC
:10464000880FDA95EAF70AC080E28C0F883098F478
:10465000C77081E001C0880FCA95EAF7DF91CF915A
:104660001F910F910C94AE0A802FDF91CF911F9173
:104670000F910C949E0ADF91CF911F910F91089595
:104680000F939C01CB01243F4CE5340731F188F4B2
:10469000293DFCE53F07D9F02A3D4CE5340779F187
:1046A000283D3C45A9F506E221EE41EE68ED7CE5AA
:1046B0002BC0263FFCE53F07E1F0A8F0273F3C4533
:1046C00039F507E225EE46EE67EF7CE51DC007E20F
:1046D00025EE45EE69ED7CE517C006E221EE40EEE1
:1046E00064EF7CE511C007E225EE44EE65EF7CE562
:1046F0000BC006E221EE42EE66EF7CE505C008E263
:1047000021E045EE6AED7CE50E94CD2280E008C004
:10471000FC018281882319F01092A40201C081E07B
:104720000F9108959093FB018093FA01089590935F
:10473000AA028093A9020895E091A902F091AA0229
:10474000309721F00190F081E02D099480E00895E8
:104750000E949C230895EF92FF920F931F93CF9393
:10476000DF93E091A902F091AA023097B1F18C0198
:104770000280F381E02D099580918A0282FF2DC08D
:1047800080FF04C084EB9AE00E947D06E80118E0F7
:104790008EEAE82E8AE0F82E80918A0280FF0BC014
:1047A00088811F928F93FF92EF920E9416070F90BD
:1047B0000F900F900F90115021961111EDCF809115
:1047C0008A0280FF0AC08CEA9AE0DF91CF911F91A4
:1047D0000F91FF90EF900C947D06DF91CF911F9188
:1047E0000F91FF90EF900895E091A902F091AA0235
:1047F000309739F022E0DC012C930480F581E02D24
:10480000099408952091A7023091A802281739072A
:1048100071F09093A8028093A702E091A902F09111
:10482000AA02309721F00680F781E02D09940895BF
:104830002091A5023091A6022817390771F09093B4
:10484000A6028093A502E091A902F091AA023097F6
:1048500021F00084F185E02D09940895FC01329641
:1048600097E080E0915029F021912223D9F38F5FC6
:10487000F9CF0895662349F0FC01329608962191FC
:10488000621729F0E817F907D1F780E0089581E071
:1048900008959C01FC0132969FEF80E041914617FC
:1048A00089F09F3F19F4411101C0982F8F5F863026
:1048B000A9F79F3F39F0F901E90FF11D97FDFA952E
:1048C0006283089508959C012A5F3F4FFC01428155
:1048D000461301C01282019682179307B9F7089513
:1048E0000C9449240C946324029626E0FC01119256
:1048F0002A95E9F7089508950C947B2483E080932A
:10490000AB020C947C24811102C081E001C082E0E2
:104910008093AB020C947C240C94832481E08093DC
:10492000AB020C947C240C948E2408958091E202B6
:10493000843031F10E94E5071092AC0220E488E156
:1049400090E00FB6F894A895809360000FBE209376
:10495000600083B7817F846083BF83B7816083BF3A
:104960007894889583B78E7F83BF0FB6F894A89507
:1049700080916000886180936000109260000FBE9B
:10498000089508950C94C124CF930E94C2240E94DC
:1049900069190E94C124C0E08C2F0E943E18892B07
:1049A00029F4CF5FC530C1F780E001C081E0CF912D
:1049B00008950E94630D0C9474081F920F920FB615
:1049C0000F9211248F939F93AF93BF938091AC026A
:1049D000811113C08091DA029091DB02A091DC0278
:1049E000B091DD024196A11DB11D8093DA02909332
:1049F000DB02A093DC02B093DD02BF91AF919F91E7
:104A00008F910F900FBE0F901F90189582E084BD7C
:104A100093E095BD9AEF97BD80936E0008952FB7F0
:104A2000F8948091DA029091DB02A091DC02B091BF
:104A3000DD022FBF08952FB7F8946091DA027091CC
:104A4000DB028091DC029091DD022FBF08959C0172
:104A50004FB7F8948091DA029091DB02A091DC02CA
:104A6000B091DD024FBF821B930B089578941F9283
:104A70000F920FB60F9211248F939F93AF93BF9312
:104A80008091DA029091DB02A091DC02B091DD020C
:104A90000196A11DB11D8093DA029093DB02A093D1
:104AA000DC02B093DD02BF91AF919F918F910F9087
:104AB0000FBE0F901F90189587E797E79093010816
:104AC000809300089AE088E10FB6F894A895809347
:104AD00060000FBE90936000FFCF8091BB020895ED
:104AE000089522E02093E9002FEF3091E800215053
:104AF00035FD06C035ED3A95F1F700002111F5CFEF
:104B00002091E80025FF0BC040E050E066E070E037
:104B10000E9459288091E8008E778093E8000895DC
:104B2000CF93DF9321E02093E9002FEF3091E8004D
:104B3000215035FD06C035ED3A95F1F70000211101
:104B4000F5CF2091E80025FF14C0EC0140E050E0D3
:104B500068E070E00E9459288091E8008E77809389
:104B6000E80088E0FE01A3EBB2E001900D928A9587
:104B7000E1F7DF91CF9108958093AF027093B10276
:104B80006093B0028091E202843001F582E080936C
:104B9000E9008FEF9091E800815095FD06C095EDFA
:104BA0009A95F1F700008111F5CF8091E80085FF1B
:104BB0000DC040E050E063E070E08FEA92E00E94B8
:104BC00059288091E8008E778093E8000895BC0111
:104BD00084E00C94BC25BC0183E00C94BC258AEDD8
:104BE0009AE00E947D068091E102811109C00E9435
:104BF000EA290E94472A8091E20084608093E200C3
:104C0000089586ED9AE00E947D061092E1020895D3
:104C100082ED9AE00E947D060C9493248EEC9AE03B
:104C20000E947D066091DE0281E0611101C080E09A
:104C30000C947E248AEC9AE00E947D069091E20218
:104C400081E0943009F080E06091DE020C948324CE
:104C50002091AE022F5F822F62E30E94F62C9923EF
:104C600019F02093AE0208951092AE028091B20224
:104C7000882371F18091E202843041F58091E9004E
:104C80008F702091EC00922F917020FD90E8892B7D
:104C900093E09093E9009091EB0090FF14C0909105
:104CA000EE0097FF10C09091E80095FF03C01092AE
:104CB000F100F9CF9091E80090FF05C09091E800D5
:104CC0009E779093E8008F708093E9001092B20273
:104CD000089542E061EC81E00E94632942E261ECC8
:104CE00082E00E94632942E261EC83E00E94632932
:104CF0009091E20281E0943009F080E06091DE0260
:104D00000C948C248091E402833009F461C030F467
:104D1000813071F0823009F49AC008958A3009F424
:104D200086C08B3009F46CC0893009F0A8C020C05F
:104D30008091E302813A09F0A2C08091E800877F68
:104D40008093E8008091E7029091E802892B21F49A
:104D500068E083EB92E003C060E080E090E070E008
:104D60000E94A4288091E8008B778093E800089542
:104D70008091E302813209F082C08091E702909134
:104D8000E802029708F07BC08091E800877F80935B
:104D9000E8008091E80082FD05C08091E202811167
:104DA000F8CF6DC02091F3008091F20090E0922B3B
:104DB000029731F48091F100813011F0863021F4B6
:104DC0008091F1008093BB028091E8008B7753C003
:104DD0008091E302813A09F052C08091E7029091FC
:104DE000E802892B09F04BC08091E800877F80930F
:104DF000E8008091E80080FFFCCF8091180136C068
:104E00008091E3028132D9F58091E7029091E80226
:104E1000892BA9F58091E800877F8093E8000E94A4
:104E200098298091E502809318010C94630D80917C
:104E3000E302813221F58091E800877F8093E800CA
:104E40000E9498298091E6028093BC020895809187
:104E5000E302813AA1F48091E800877F8093E80023
:104E60008091E80080FFFCCF8091BC028093F1002C
:104E70008091E8008E778093E8000C94982908953B
:104E80009FB7F8941092B2029FBF9091E2029430C3
:104E900009F057C09091E9009F703091EC00232FEA
:104EA000217030FD20E8922B23E02093E90020912F
:104EB000EB0020FF43C02091EE0027FF3FC0209170
:104EC000AD02222321F02091E80025FF37C0109287
:104ED000AD0226E03091E80035FD15C03091E202C8
:104EE000343061F53091EB0035FD28C0215021F4BC
:104EF00081E08093AD0222C0EFE9FFE03197F1F746
:104F000000C00000E7CF8093F1008091E80085FDAC
:104F10000AC08091E80080FFFCCF8091E8008E7786
:104F20008093E80006C08FB7F89421E02093B20286
:104F30008FBF9F709093E90080E008959F709093D9
:104F4000E9008FEF089584B7877F84BF0FB6F89488
:104F5000A895809160008861809360001092600045
:104F60000FBE90E080E80FB6F894809361009093B4
:104F700061000FBE0C948E240E94EA290E94472AE9
:104F8000E2EEF0E080818460808378940C94DB2CE6
:104F90008CE091E00C9497238091E2028530C9F473
:104FA00086EC9AE00E947D068091E202853079F4D9
:104FB0000E9496248091E0028823B1F30E94C424C9
:104FC000882391F30E9443280E94630DEDCF0C9437
:104FD000D924089508950C94ED27292F33272330E1
:104FE0003105C9F060F42130310581F022303105FE
:104FF00009F041C08BE590E026E03BE040C0213263
:105000003105E1F02232310531F135C082E190E025
:1050100021E63BE034C099278130910549F028F022
:10502000029749F5EEEDFAE005C0E2E0FBE002C0D0
:10503000E2EFFAE0849190E09F0121C063307105B6
:10504000D0F4660F771FFB01ED50FE4F20813181B8
:1050500089E090E014C06330710568F4FB01EE0F45
:10506000FF1FE351FE4F20813181FB01E651FE4FCE
:10507000808190E004C080E090E020E030E0FA0120
:1050800031832083089580E189BD82E189BD09B41F
:1050900000FEFDCF8091D8008F7D8093D800809155
:1050A000E00082608093E0008091E00081FDFCCF11
:1050B0000895CF92DF92EF92FF920F931F93CF93B9
:1050C000DF93EC018B017A010E94B729811133C073
:1050D000E114F10439F0F70180819181081B190B6B
:1050E000C80FD91FC12CD12C0115110519F18091C0
:1050F000E80085FD16C08091E8008E778093E80077
:10510000E114F10449F0F70180819181C80ED91EA4
:10511000D182C08285E00FC00E94B729882321F385
:105120000AC089918093F10001501109FFEFCF1A55
:10513000DF0ADACF80E0DF91CF911F910F91FF90CE
:10514000EF90DF90CF9008952091E9023091EA022C
:105150002617370748F06115710539F42091E800EA
:105160002E772093E80001C0B901FC0120E0611511
:10517000710579F18091E2028823F1F18530F1F136
:105180008091E80083FD3CC08091E80082FD2EC044
:105190008091E80080FFEBCF2091F3008091F20036
:1051A00090E0922B6115710551F08830910538F42B
:1051B00021912093F100615071090196F3CF21E014
:1051C000089709F020E08091E8008E778093E8004E
:1051D000CECF2111CFCF0AC08091E202882361F0A7
:1051E000853061F08091E80083FD0AC08091E8007D
:1051F00082FFF2CF80E0089582E0089583E0089571
:1052000081E008952091E9023091EA0226173707DC
:1052100048F06115710539F42091E8002E7720934C
:10522000E80001C0B901FC0120E06115710591F1B0
:105230008091E202882309F440C0853009F43FC020
:105240008091E80083FD3DC08091E80082FD2FC081
:105250008091E80080FFE9CF2091F3008091F20077
:1052600090E0922B6115710559F08830910540F45A
:1052700024912093F1003196615071090196F2CF8B
:1052800021E0089709F020E08091E8008E77809374
:10529000E800CBCF2111CCCF0AC08091E202882355
:1052A00061F0853061F08091E80083FD0AC0809153
:1052B000E80082FFF2CF80E0089582E0089583E065
:1052C000089581E00895982F973068F59093E9004C
:1052D000981739F07091EC002091ED005091F0009A
:1052E00003C0242F762F50E021FD02C09F5FECCF3A
:1052F0003091EB003E7F3093EB003091ED003D7F2D
:105300003093ED003091EB0031603093EB007093FF
:10531000EC002093ED005093F0002091EE0027FD6B
:10532000E5CF80E008958F708093E90081E00895D3
:105330008091E30287FF11C08091E80082FD05C0E3
:105340008091E2028111F8CF11C08091E8008B7743
:105350000BC08091E202882349F08091E80080FF31
:10536000F8CF8091E8008E778093E800089520912F
:10537000E4003091E50095E64091EC00842F8170C7
:1053800040FF23C08091E80080FD1DC08091E202B3
:10539000882399F0853099F08091EB0085FD11C04C
:1053A0004091E4005091E5002417350729F391500E
:1053B00011F09A01E1CF84E0089582E0089583E03E
:1053C000089581E0089580E008954091E80042FF4B
:1053D000DDCF08950E94582A0E94602AE0EEF0E096
:1053E000808181608083E8EDF0E080818F77808329
:1053F00019BCA7EDB0E08C918E7F8C9380818F7E5D
:1054000080831092E10208950F931F93CF93DF934F
:105410000E94582A0E94602AC8EDD0E088818F77C8
:10542000888388818068888388818F7D888319BC80
:105430001092E2021092DE021092E0021092DF025D
:1054400000EE10E0F80180818B7F8083888181608D
:10545000888342E060E080E00E946329E1EEF0E0B2
:1054600080818E7F8083E2EEF0E0808181608083A6
:10547000808188608083F80180818E7F808388812D
:1054800080618883DF91CF911F910F910895E8ED9E
:10549000F0E080818F7E8083E7EDF0E080818160A5
:1054A000808384E082BF81E08093E1020C94042A2F
:1054B000E8EDF0E080818E7F80831092E200089515
:1054C0001092DA001092E10008951F920F920FB629
:1054D0000F9211242F933F934F935F936F937F937A
:1054E0008F939F93AF93BF93EF93FF938091E100CE
:1054F00082FF0BC08091E20082FF07C08091E10033
:105500008B7F8093E1000E9428268091DA0080FF43
:105510001FC08091D80080FF1BC08091DA008E7F71
:105520008093DA008091D90080FF0DC080E189BDB1
:1055300082E189BD09B400FEFDCF81E08093E202E3
:105540000E94EF2505C019BC1092E2020E940126BC
:105550008091E10080FF19C08091E20080FF15C0BA
:105560008091E2008E7F8093E2008091E200806172
:105570008093E2008091D80080628093D80019BCAB
:1055800085E08093E2020E940E268091E10084FF74
:1055900030C08091E20084FF2CC080E189BD82E1AF
:1055A00089BD09B400FEFDCF8091D8008F7D809326
:1055B000D8008091E1008F7E8093E1008091E2002D
:1055C0008F7E8093E2008091E20081608093E20010
:1055D0008091DE02882311F084E007C08091E3000F
:1055E00087FD02C081E001C083E08093E2020E9457
:1055F0001A268091E10083FF29C08091E20083FF99
:1056000025C08091E100877F8093E10082E0809354
:10561000E2021092DE028091E1008E7F8093E10031
:105620008091E2008E7F8093E2008091E2008061B1
:105630008093E20042E060E080E00E946329809174
:10564000F00088608093F0000E940826FF91EF919F
:10565000BF91AF919F918F917F916F915F914F918A
:105660003F912F910F900FBE0F901F9018951F9292
:105670000F920FB60F9211242F933F934F935F9386
:105680006F937F938F939F93AF93BF93CF93DF934A
:10569000EF93FF93C091E900CF708091EC00D82F79
:1056A000D17080FDD0E81092E9008091F000877FF2
:1056B0008093F00078940E947B2B1092E9008091F7
:1056C000F00088608093F000CD2BCF70C093E9008C
:1056D000FF91EF91DF91CF91BF91AF919F918F910A
:1056E0007F916F915F914F913F912F910F900FBEDE
:1056F0000F901F9018951F93CF93DF93CDB7DEB710
:10570000AA970FB6F894DEBF0FBECDBFE3EEF2E06E
:105710008091F100819322E0EB3EF207C9F70E94ED
:1057200082268091E80083FF2EC18091E302909150
:10573000E402492F50E04A30510508F024C1FA0133
:10574000EC58FF4F0C94162D803821F0823809F068
:105750001AC108C08091DF029091E002992389F07C
:1057600082600FC08091E7028F70873008F00BC114
:105770008093E9008091EB0085FB882780F91092E7
:10578000E9009091E800977F9093E8008093F10002
:105790001092F100D1C0282F2D7F09F0F4C088238A
:1057A00019F0823061F0EFC08091E502813009F09C
:1057B000EAC0933009F080E08093E0022EC080912F
:1057C000E50281112AC08091E7028F702FEF280F28
:1057D000263008F0D8C08093E9002091EB0020FF2C
:1057E0001CC0933021F48091EB00806214C0909132
:1057F000EB0090619093EB0021E030E0A90102C042
:10580000440F551F8A95E2F74093EA001092EA0090
:105810008091EB0088608093EB001092E90080910A
:10582000E800877F8093E8000E949829ACC081112E
:10583000AAC01091E5021F778091E3008078812B48
:105840008093E3008091E800877F8093E8000E94C6
:1058500098298091E80080FFFCCF8091E300806868
:105860008093E300111102C082E001C083E08093C5
:10587000E20289C08058823008F085C08091E5023C
:105880009091E6028C3D53E0950779F583E08A8399
:105890008AE289834FB7F894DE01139620E03EE058
:1058A00051E2E32FF0E050935700E49120FF03C052
:1058B000E295EF703F5FEF708E2F90E0EA3010F0CE
:1058C000C79601C0C0968D939D932F5F243149F7F1
:1058D0004FBF8091E800877F8093E8006AE270E024
:1058E000CE0101960E94A42816C06091E702709133
:1058F000E802AE014F5F5F4F0E94EB27BC01892B8E
:1059000009F441C09091E800977F9093E800898165
:105910009A810E9402298091E8008B778093E800A9
:1059200032C0803881F58091E800877F8093E8005D
:105930008091DE028093F1008091E8008E7772CF33
:10594000811121C08091E5029091E602992702978A
:10595000D4F48091E800877F8093E8008091E5028D
:105960008093DE020E9498298091DE02811106C098
:105970008091E30087FD02C081E001C084E0809354
:10598000E2020E9469268091E80083FF0AC08091AC
:10599000E800877F8093E8008091EB00806280932D
:1059A000EB00AA960FB6F894DEBF0FBECDBFDF9115
:1059B000CF911F910895CF938091E2028823A1F0A7
:1059C000C091E900CF709091EC00892F817090FD1B
:1059D00080E8C82B1092E9008091E80083FD0E94C6
:1059E0007B2BCF70C093E900CF910895991B79E08C
:1059F00004C0991F961708F0961B881F7A95C9F75F
:105A00008095089597FB072E16F4009407D077FD34
:105A100009D00E941C2D07FC05D03EF4909581957D
:105A20009F4F0895709561957F4F0895EE0FFF1F6A
:105A30000590F491E02D0994AA1BBB1B51E107C00E
:105A4000AA1FBB1FA617B70710F0A61BB70B881F0E
:105A5000991F5A95A9F780959095BC01CD0108959D
:105A6000FB01DC0104C08D910190801921F44150AB
:105A70005040C8F7881B990B0895F999FECF92BD45
:105A800081BDF89A992780B50895A8E1B0E042E079
:105A900050E00C94712D262FF999FECF92BD81BD57
:105AA000F89A019700B4021639F01FBA20BD0FB65C
:105AB000F894FA9AF99A0FBE08950396272F0E9438
:105AC0004C2D0E944B2D252F0E944C2D242F0C94E1
:105AD0004C2D0196272F0E944C2D0C944B2DDC0150
