:100000000C949E010C94E5010C94E5010C94E5011F
:100010000C94E5010C94E5010C94E5010C94E501C8
:100020000C94E5010C94E5010C94281A0C94FA1A2E
:100030000C947F150C94E5010C94E5010C94E501FA
:100040000C94E5010C94E5010C94E5010C94E50198
:100050000C94E5010C94D8150C94E5010C94E50181
:100060000C94E5010C94E5010C94E5010C94E50178
:100070000C94E5010C94E5010C94E5010C94E50168
:100080000C94E5010C94E5010C94E5010C94E50158
:100090000C94E5010C94E5010C94E5010C94E50148
:1000A0000C94E5010C94E5010C94E501DF03DF03FA
:1000B000110411045E049205920592057C04110559
:1000C000220522058205920592058B052E062E0635
:1000D0004006400637064006400640062E062E061D
:1000E0003C06400640063C06671B8E1B861C8E1B8A
:1000F000861CDA1BFD1B861C541C631C29001E0079
:100100001F002000210022002300240025002600DB
:1001100027002D002E002A00000049004A002B0075
:1001200014001A000800150017001C0018000C002D
:10013000120013002F00300031004C004D00000071
:10014000390004001600070009000A000B000D002A
:100150000E000F00330034000000280000000000F3
:100160000000E10000001D001B0006001900050052
:1001700011001000360037003800E5000000520082
:1001800000000000E000E300E200000000000000CA
:100190002C00000000000000E6000151E4005000C7
:1001A00051004F00000001003A003B003C003D00C0
:1001B0003E003F0040004100420043004400450033
:1001C0000100000001000100010001000100010028
:1001D0000100010001000100010001000100010017
:1001E0000100010001000100000001000100010008
:1001F00001000100010001000100010001000100F7
:1002000001000000010000000000000001000000EB
:1002100001000100010001000100010001000100D6
:1002200001000100010000000100000000000100C9
:1002300001000100000000000000010000000000BB
:1002400000000100010001000100010001000000A8
:100250000E03530061006B0061003600380000009F
:10026000160343004D004D002E005300740075002E
:10027000640069006F0000000403090409023B00E8
:10028000020100A0FA090400000103010100092194
:10029000110100012240000705810308000A09043A
:1002A00001000103000000092111010001223200B8
:1002B0000705820320000A12010002000000084D19
:1002C000434B5301000102000105010980A1018592
:1002D0000319012AB700150126B700950175108191
:1002E00000C0050C0901A101850419012AA002150D
:1002F0000126A002950175108100C005010906A123
:1003000001050719E029E715002501950875018108
:10031000029501750881010507190029FF150026BE
:10032000FF00950675088100050819012905950546
:1003300075019102950175039101C00011241FBE42
:10034000CFEFDAE0DEBFCDBF04B603FE27C0809159
:10035000810290918202A0918302B0918402873041
:10036000904BA740B04BD1F41092810210928202C0
:10037000109283021092840214BE84B7877F84BFD8
:100380000FB6F894A8958091600088618093600012
:10039000109260000FBEE0E0F8E3099511E0A0E0E4
:1003A000B1E0E2E2FAE302C005900D92A638B1078F
:1003B000D9F722E0A6E8B1E001C01D92A138B2074A
:1003C000E1F70E9465120C940F1D0C94000081E06F
:1003D000089581E008950C94E90108950C94ED01CD
:1003E0001F93CF93DF9300D000D01F92CDB7DEB71D
:1003F00049835A836B833091880189819A813111B5
:1004000014C0662359F0222349F00E94D207182F06
:10041000682F89819A810E947B0703C00E94A607EA
:10042000182F69817A81812F04C00E94D2076981C7
:100430007A810F900F900F900F900F90DF91CF91D6
:100440001F910C94960EFC01262F408151816281F0
:10045000738184810C94F00181E00895CF93DF9340
:10046000EC0160E00E942302BE01DF91CF910C9469
:10047000EE010E94BC100E94AA020C94FC100C9485
:10048000F81008950E941C060E9441022FEF84E399
:100490009CE0215080409040E1F700C000000C94A7
:1004A000FE150F931F93CF93DF938C0161E00E94A1
:1004B0002302EC01B8010E94EB018823F1F1B8019D
:1004C000CE010E94E3128823C1F1B801CE010E943F
:1004D0003513882391F1B801CE010E94601488235E
:1004E00061F1F8018281882309F1CB358DE5D807C8
:1004F000C1F050F4C115FCE5DF0781F0CF3DDC45CC
:10050000A9F40E946D0D19C0CC35EDE5DE0761F050
:10051000CD35DD4559F40E94F10B08C00E9442021E
:100520000CC00E94FA0B02C00E94FD0BC801DF91B3
:10053000CF911F910F910C94E70180E0DF91CF9153
:100540001F910F91089508950C94A30281E00895DE
:100550000C94A6020895CF93C82F0E94A4028C2F5A
:100560000E94A802CF910895CF93DF93CDB7DEB755
:100570002B970FB6F894DEBF0FBECDBF4F835887C1
:1005800069877A878B8761110E94200C9E012F5FFB
:100590003F4F86E0F90111928A95E9F785E0FE0167
:1005A0003796D90101900D928A95E1F789819A8158
:1005B0004C815D81452B31F09F3F31F491E08F3FBD
:1005C00019F403C091E001C090E090FF09C0498197
:1005D0005A816B817C818D819E810E94200B05C098
:1005E000C9010E942C028111F2CF2B960FB6F8940C
:1005F000DEBF0FBECDBFDF91CF910895FC0180819A
:1006000091810E9414080895CF93882309F448C06B
:10061000C82F8CEF8C0F813AD0F46C2F80910001A1
:10062000909101010E94E514882349F06C2F80917C
:100630000001909101010E941D150E94520C6C2F27
:1006400080910001909101010E941B150CC080E275
:100650008C0F883058F4C77081E001C0880FCA95AC
:10066000EAF70E94030CCF910C94520CEBE5EC0FCF
:10067000E33040F4F0E0E55CFE4F808190E0CF9104
:100680000C94AD14C85AC73158F4EC2FF0E0EE0FBB
:10069000FF1FE35FFE4F80819181CF910C94C314C3
:1006A000CF910895882349F1682F8CEF860F813A06
:1006B00038F480910001909101010E941D150CC039
:1006C00080E2860F883050F4677081E001C0880FA7
:1006D0006A95EAF70E94090C0C94520C8BE5860F80
:1006E000833020F480E090E00C94AD14685A6731B8
:1006F00020F480E090E00C94C31408951F93CF93EE
:10070000DF93182FEB010E940403209741F08FE93B
:100710009FE00197F1F700C000002197F6CF812FED
:10072000DF91CF911F910C945203893319F060E04F
:1007300070E002C060E570E00C947E03882321F035
:100740000E94030C0C94520C0895882321F00E94FF
:10075000090C0C94520C0895CF92DF92EF92FF9205
:100760000F931F93CF93DF937C01062FC72FFC01BC
:10077000D281158112951F700E94D80B882399F0A1
:10078000DD2389F08C2F807F803421F080E2800F80
:10079000883048F082E00E94A20C0E94D80B91E0C1
:1007A000D82ED92601C0D12CCC2EC2948FE0C822DD
:1007B0008C2D90E0FC01EA5AFF4F0C94BA1C8C2F50
:1007C000807FCF70882311F0C295C07FDD2399F020
:1007D000CC2309F482C180E2800F883010F001112F
:1007E00004C08C2F0E94030C03C08C2F0E94130C9A
:1007F0000E94520C72C1802F0E945203CC2309F434
:1008000091C180E2800F883010F0011104C08C2F5C
:100810000E94090C03C08C2F0E94190C0E94520CDC
:1008200081C18C2F807FCF70803211F0C295C07F44
:10083000002319F00130C9F022C0DD2371F011232B
:1008400041F0113031F40E94330C8C2B0E943B0C90
:1008500069C10E94330C8C2B1DC0112319F011307B
:1008600009F460C10E94480C25C0DD2321F0163038
:1008700008F058C10EC0153008F054C11BC0DD236C
:1008800061F0112331F0F701858180FF26C18F705F
:1008900085838C2F0E949E0345C1112359F0093393
:1008A00009F02CC1FFEF27EE83E0F150204080409B
:1008B000E1F722C18C2F0E94A50334C18C2F8695AD
:1008C0008695837019F0813061F02CC1DD2321F011
:1008D000802F9C2F937002C080E090E00E94AD14A6
:1008E00029C1DD2321F0802F9C2F937002C080E06E
:1008F00090E00E94C3141EC18C2F837009F045C084
:10090000D11114C1402F429546954770440F440FB2
:10091000602F6F70862F90E0A0E0B0E0042E04C03E
:10092000880F991FAA1FBB1F0A94D2F704FF10C09B
:100930000FE010E020E030E004C0000F111F221F84
:10094000331F4A95D2F7009510952095309503C036
:1009500000E010E09801C695C695C370BC01CD01BA
:10096000602B712B822B932BC23049F058F4C1308D
:1009700019F00E949106DAC00E947F06D7C00E943B
:10098000A306D4C00E947D06D1C0DD2319F08C2FB0
:10099000817001C08695882309F4C8C0402F429514
:1009A00046954770440F440F602F6F70862F90E07C
:1009B000A0E0B0E0042E04C0880F991FAA1FBB1F3F
:1009C0000A94D2F704FF10C00FE010E020E030E0FE
:1009D00004C0000F111F221F331F4A95D2F7009544
:1009E00010952095309503C000E010E09801C69561
:1009F000C695C370BC01CD01602B712B822B932B4C
:100A0000C23049F058F4C13019F00E9456078EC028
:100A10000E9444078BC00E94680788C00E94B706E6
:100A200085C0CF70DD2339F08C2F0E94DD06802F2A
:100A30000E949E037BC0802F0E94A5038C2F0E94E2
:100A4000FE0674C0023F01F128F4003F41F0013F6F
:100A5000A1F03FC0033FF9F0043F39F13AC0DD2374
:100A600041F0153008F05EC08C2F8F710E94230773
:100A700059C0163008F056C0F7CFDD2339F08C2F5F
:100A80008F710E94DD064EC0DD23C9F38C2F8F715C
:100A90000E94FE0647C0DD2329F08C2F8F710E9433
:100AA000C80640C00E94C3063DC0DD2349F0CF7197
:100AB0008C2F0E94DD0663E08C2F0E94870C32C0D1
:100AC00081E00E94A20C123068F182E00E94A20C28
:100AD00029C0DD2331F0112391F2802F0E940403FD
:100AE00021C0112399F2093349F49FEFE7EEF3E0B7
:100AF0009150E040F040E1F700C00000802F0E94DC
:100B0000520310C04C2F4F70602FC7010E94920EED
:100B10000E9442080FC04C2F4F70602FC7010E94E7
:100B2000950E08C088EF8C0D843020F40E94961436
:100B30000E94AB02DD20C9F00E94D40B80FD15C0DD
:100B4000F70112820E94CE0B0E94DD06C7010E94AF
:100B5000D6050E94CE0BDF91CF911F910F91FF9090
:100B6000EF90DF90CF900C94FE06DF91CF911F9114
:100B70000F91FF90EF90DF90CF9008950F931F9308
:100B8000CF93DF93EC01688179818A810E941F08ED
:100B90008C010E947A070E946B06B801CE010E9468
:100BA000AC03DF91CF911F910F910895CF93DF9305
:100BB000EC01988189812B813C81232B31F08F3F7F
:100BC00031F481E09F3F19F403C081E001C080E06F
:100BD00080FD19C0CE010E94510281110CC00E94FB
:100BE000D80B882381F08A81882369F082E0DF9125
:100BF000CF910C94A20CCE010E94BE05CE01DF91D4
:100C0000CF910C942E02DF91CF91089580E090E077
:100C10000E94AD1480E090E00E94C3140E94200C5A
:100C20000E94300C0C94520C8091000190910101B3
:100C30000E941F150C9406060E94100C0C941406BA
:100C4000E92FE295EF704E2F50E0FA013297EE3027
:100C5000F105B0F4EA59FF4F0C94BA1C803F91F0B3
:100C600018F4883E68F40EC0843F51F40BC0883EEF
:100C700048F0813F29F406C093FB882780F9089546
:100C800080E0089581E00895FC01808191810E94B7
:100C900014080E9420060895CF93DF9300D000D05F
:100CA0001F92CDB7DEB70F900F900F900F900F905F
:100CB000DF91CF910895CF93DF9300D000D000D083
:100CC000CDB7DEB726960FB6F894DEBF0FBECDBF08
:100CD000DF91CF910895089508950C946C060C94BB
:100CE0006D060E946F066093C4017093C5018093E6
:100CF000C6019093C7010C9406060C9471060F93DD
:100D00001F930091C4011091C5012091C60130913B
:100D1000C701602B712B822B932B1F910F910C9489
:100D200071060F931F930091C4011091C50120918A
:100D3000C6013091C70160237123822393231F9141
:100D40000F910C9471060F931F930091C4011091A1
:100D5000C5012091C6013091C70160277127822704
:100D600093271F910F910C9471060C946C060E94AE
:100D7000B5066093C0017093C1018093C201909346
:100D8000C3010C94060660E070E0CB010C94B7063A
:100D90000F931F9341E050E060E070E08A019B01F7
:100DA00004C0000F111F221F331F8A95D2F7C901FB
:100DB000B8011F910F910C94B7060F931F9341E058
:100DC00050E060E070E004C0440F551F661F771FBD
:100DD0008A95D2F78091C0019091C101A091C20182
:100DE000B091C3018A019B01082B192B2A2B3B2BA5
:100DF000C901B8011F910F910C94B7060F931F936F
:100E000041E050E060E070E004C0440F551F661FF1
:100E1000771F8A95D2F7409550956095709580918F
:100E2000C0019091C101A091C201B091C3018A019A
:100E30009B01082319232A233B23C901B8011F91D1
:100E40000F910C94B7060F931F9341E050E060E0C0
:100E500070E004C0440F551F661F771F8A95D2F7B4
:100E60008091C0019091C101A091C201B091C301D4
:100E70008A019B01082719272A273B27C901B801A6
:100E80001F910F910C94B7060F931F930091C0010F
:100E90001091C1012091C2013091C301602B712BCF
:100EA000822B932B1F910F910C94B7060F931F93D6
:100EB0000091C0011091C1012091C2013091C30184
:100EC00060237123822393231F910F910C94B70603
:100ED0000F931F930091C0011091C1012091C20195
:100EE0003091C30160277127822793271F910F91AB
:100EF0000C94B706089521E1929F800D1124E82FEC
:100F0000E695E695E695877051E001C0550F8A9504
:100F1000EAF785E0E89FF0011124E757FE4F20E053
:100F200030E070E04081CB01022E02C0969587959B
:100F30000A94E2F781708195842785238427819321
:100F40002F5F3F4F2530310569F7089521E1929FCA
:100F5000800D1124682F669566956695982F977079
:100F600085E0689FB001112440E050E080E0FB0183
:100F7000E40FF51FE757FE4F208130E0092E02C035
:100F8000369527950A94E2F721703327042E01C085
:100F9000220F0A94EAF7822B4F5F5F4F45305105CD
:100FA00031F70895BF92CF92DF92EF92FF920F93A5
:100FB0001F93CF93DF938C01C090C001D090C101EB
:100FC000E090C201F090C3018091C4019091C501ED
:100FD000A091C601B091C701C82AD92AEA2AFB2AE2
:100FE000CFE1D0E0D701C6010C2E04C0B695A7957D
:100FF000979587950A94D2F780FD04C0219790F7C2
:10100000B12C07C0BC2EB8018C2F0E94C60F0197CF
:10101000A9F38B2DDF91CF911F910F91FF90EF904E
:10102000DF90CF90BF900895CF93DF93EC010E94A3
:10103000D207BE010E94C60FDF91CF9108951F9382
:10104000CF93DF93EB0190918801992321F0CB019D
:101050000E94140813C0882349F0CB010E94D207D4
:10106000182F682FCE010E947B0704C0CB010E947D
:10107000A607182FBE01812F0E94C60FDF91CF91C6
:101080001F910895EF92FF920F931F93CF93DF93D9
:101090008C01892B09F46CC0F12CEE24E394E80157
:1010A0002196F8018491843740F4843008F051C0CF
:1010B000813081F0823019F15BC0853709F444C07A
:1010C000A8F19CE7980F903708F052C08F770E94E4
:1010D000520341C00E5F1F4FFE01849190E2980FB2
:1010E000983050F48770FE2D01C0FF0F8A95EAF703
:1010F0008F2F0E94230C14C00E9404032DC00E5F8A
:101100001F4FFE01849190E2980F983060F4877031
:10111000FE2D01C0FF0F8A95EAF78F2F0E94290C40
:101120000E94520C19C00E94520316C00E5F1F4F3E
:10113000FE01C491CC2381F08FE99FE00197F1F784
:1011400000C00000C150F6CF0E5F1F4FFE01F490AB
:1011500003C00E9404038E018F2D882309F49FCFC2
:10116000EFE9FFE03197F1F700C000008150F5CFC3
:10117000DF91CF911F910F91FF90EF9008951F93F2
:10118000CF93DF93C091C80116E08091C901C817C1
:1011900099F0D0E01C9FF0011D9FF00D1124E65343
:1011A000FE4F4081518162817381848195810E94CB
:1011B0005B062196C770E9CFDF91CF911F9108950B
:1011C0004091FA015091FB016091FC017091FD0189
:1011D0008091FE019091FF010C945B060F931F9389
:1011E000CF93DF938091FF0182958F7009F05DC0EE
:1011F0008091FC01882309F458C08091C8011091A6
:10120000C9016091FA017091FB01C091FD01D0917B
:10121000FE0191E06F3F09F090E0292F06E0811771
:1012200009F443C0209721F07F3F21F030E003C054
:1012300031E001C0322F90E030FD34C0089FF00152
:10124000099FF00D1124DF01A653BE4F11963C916A
:101250001197371327C03C91361324C012963C9146
:10126000129731111FC013964D915C9114974C1B2E
:101270005D0B483C5105B0F48091FF018F70806197
:101280008093FF01E153FE4F80818F7080618083E6
:101290008AEF91E00E94D605DF91CF911F910F91C7
:1012A0000C94BF0801968770BACFDF91CF911F9140
:1012B0000F9108959F92AF92BF92CF92DF92EF92DB
:1012C000FF920F931F93CF93DF93CDB7DEB7619754
:1012D0000FB6F894DEBF0FBECDBF8C0185E0F801DC
:1012E000DE011D9601900D928A95E1F7F801E280EA
:1012F0009091FA016091FB012091FD013091FE0176
:101300002115310531F06F3F31F481E09F3F19F431
:1013100003C081E001C080E0F82FF1709F2E80FDB6
:101320003FC1F80140815181A380B4808AEFC82E6B
:1013300081E0D82EF090FC01F501E21BF30BFF20B9
:1013400009F4D9C08091FF01E83CF10508F095C08F
:10135000282F207F09F052C0561313C0491311C023
:10136000FE2CE1100EC08F7080618093FF010E94FF
:10137000E008C6010E94D6058091FF01F80185832F
:101380004CC1AB2831F05F3F31F481E04F3F19F49D
:1013900003C081E001C080E080FD03C081E08E25B4
:1013A00002C080E090E0F82FF170FF2E80FF1CC09B
:1013B0008091C8012091C90136E0821709F40BC160
:1013C00090E0389FF001399FF00D1124E653FE4F55
:1013D0006181561306C06081461303C06281E61224
:1013E00003C001968770E9CFFE2CEE2009F415C1E9
:1013F0008091FF0181608093FF0154C0561306C0A5
:10140000491304C0E11002C0F80199C0C8010E944C
:101410004406882361F1EE2051F12091FF01822FD3
:1014200082958F7090E0029774F08091FA0190910C
:10143000FB0198878F831986BB86AA862C87CE01ED
:1014400007960E94D60586E0F801AAEFB1E0019068
:101450000D928A95E1F70E94EE080E94E0080AC00A
:10146000561711F1C8010E94440681112CC0C80111
:101470000E94D605FF24F394D0C0282F207F81F747
:101480007A2DB98AA88A6E2D89890E944C068AEF26
:1014900091E00E94D60586E0F60111928A95E9F75F
:1014A0000E94E008F12CB9C04913DCCFE110DACF7B
:1014B000F8018583C8010E94D60586E0F6011192E5
:1014C0008A95E9F7AAC0EE2091F22091FF01822FC0
:1014D00082958F7090E002970CF4B5CF8091FA015D
:1014E0009091FB019A8389831B82BD82AC822E83FB
:1014F000CE010196A6CFE83CF10508F044C0FE2CD1
:10150000EE2009F4B4CF561330C049132EC02091F9
:10151000FF0120FD21C0822F82958F70482F50E05F
:1015200041155105C9F0F80125834F30510541F0AF
:101530008F5F982F9295907F822F8F70892B858354
:10154000C8010E94D60586E0F801AAEFB1E001903B
:101550000D928A95E1F73CC086E0F801AAEFB1E070
:1015600001900D928A95E1F758C0C8010E94440687
:10157000811169CF8091FF0181608093FF01C801D3
:101580000E94D6054AC07A2DB98AA88A6E2D89890B
:101590000E944C0686E0F60111928A95E9F718C080
:1015A000EE2009F464CFC8010E944406F82E882377
:1015B00009F45DCF86E0F801AAEFB1E001900D9249
:1015C0008A95E1F78AEF91E00E94FE020E94EE0800
:1015D0000E94E00822C04D875E878D859E850E940F
:1015E0001408292F22952F70223028F49F7039F08B
:1015F000811105C00BC0243028F49F7049F4805E2F
:10160000883020F0C8010E94D6059F2CF92C05C017
:10161000F8019581907F99F7F9CF8F2D61960FB6DC
:10162000F894DEBF0FBECDBFDF91CF911F910F9118
:10163000FF90EF90DF90CF90BF90AF909F90089574
:101640001F93CF93DF93CDB7DEB72C970FB6F894E7
:10165000DEBF0FBECDBF4F83588769877A878B87E0
:101660009C87CE0107960E945A098823D1F09F815A
:1016700088852A853B85232B31F08F3F31F481E02B
:101680009F3F19F403C081E001C080E080FD47C0A6
:101690004F81588569857A858B859C850E945B067C
:1016A0003EC086E0FE013796DE01119601900D9254
:1016B0008A95E1F7FF81E8856A857B85611571056B
:1016C00031F0EF3F31F481E0FF3F19F403C081E0D6
:1016D00001C080E080FD23C02091C90130E0C90134
:1016E0000196877099274091C80150E084179507AB
:1016F000F1F1F983EA837D836C8396E0929FD001B8
:10170000939FB00D1124A653BE4FFE013196019058
:101710000D929A95E1F78093C9010E94BF0816E0E7
:101720008091C8019091C901891771F1189FC0017A
:10173000112486539E4F0E945A09882329F1E09173
:10174000C8011E9FF0011124E653FE4F40815181D4
:1017500062817381848195810E945B068091C801BA
:1017600090E00196877099278093C801D9CF0E9495
:101770001C061092C9011092C801EAEFF1E086E060
:10178000DF011D928A95E9F72C960FB6F894DEBF1B
:101790000FBECDBFDF91CF911F91089580910002C0
:1017A00085958595859508958091000287700895A7
:1017B00090910002977081E009F480E00895909183
:1017C000470292FB222720F9281751F080FB92F95B
:1017D0009093470280914602909147020C94E90C45
:1017E00008958091470282FB882780F991E089273C
:1017F0000C94DF0B81E00C94DF0B80E00C94DF0B8A
:1018000080910C02089590910C02892B80930C0218
:101810000895809590910C02892380930C0208957D
:1018200010920C02089590910B02892B80930B0269
:101830000895809590910B02892380930B0208955F
:1018400010920B02089590910A02892B80930A024C
:101850000895809590910A02892380930A02089541
:1018600010920A02089580910102089508950C943F
:10187000360C0C94370C9091470292FD08C0909161
:101880000102981721F0809301020C94390C0895FD
:1018900080910102882329F01092010280E00C94CB
:1018A000390C0895E0910001F091010180910C0242
:1018B0008083E0910001F0910101908180910B0201
:1018C000892B8083E0910001F0910101908180914A
:1018D0000A02892B808380910102882381F0E091A4
:1018E0000001F09101019081892B8083809100019A
:1018F000909101010E94D91481110E94480C80919D
:101900000001909101010C94A2140C94360C90915A
:10191000470292FD10C098E0899F90011124262B68
:10192000209300020E94DD06809100028595859536
:1019300085950C94850C0C94DD061092000280E0D5
:101940000C94850C209100028095822380930002E4
:10195000982F977041F430E0482F082E000C550B5B
:101960002417350721F49091470292FF07C085950F
:10197000859585950E94FE060C949D0C08956FEF49
:101980007FEF80E090E00C94F91C80E090E00E94F2
:10199000D51C21E0893E9E4F09F020E0822F08955A
:1019A00082E090E00C94CD1C83E090E00C94CD1C80
:1019B000CF9384E090E00E94CD1CC82F82E290E09B
:1019C0000E94CD1C2C2F30E0A901582BCA01CF91C9
:1019D0000895CF93C92F682F84E090E00E94DB1C0C
:1019E0006C2F82E290E0CF910C94DB1CAB01BC0128
:1019F0008FE090E00C94ED1CAB01BC0183E190E022
:101A00000C94ED1C60E070E0CB010C94FC0C60E0E9
:101A100070E0CB010E94F60C0C94020D69EE7EEF93
:101A200080E090E00E94F91C60E082E090E00E947B
:101A3000DB1C60E083E090E00E94DB1C1092C4019C
:101A40001092C5011092C6011092C70160E084E0B7
:101A500090E00E94DB1C60E082E290E00E94DB1CD0
:101A600060E085E090E00E94DB1C60E086E090E0B2
:101A70000E94DB1C6FEF87E090E00E94DB1C40E0DF
:101A800050E0BA0188E090E00E94ED1C60E08DE03B
:101A900090E00E94DB1C40E050E0BA0188E190E059
:101AA0000E94ED1C60E087E190E00E94DB1C40E0BA
:101AB00050E0BA018CE190E00E94ED1C60E070E023
:101AC00080E290E00E94F91C40E050E0BA0188E119
:101AD00090E00E94ED1C0C94070D0C940E0D682FE5
:101AE0008EE090E00C94DB1C0E94BD1560932602F2
:101AF0007093270280932802909329026093220218
:101B0000709323028093240290932502089585B751
:101B1000806885BF85B7806885BF089581E0089596
:101B20000C948E0D08950C94920D0C94920D0C94BF
:101B3000950D0C94920D0C94990D0C94920D0E949D
:101B4000870D82EA90E10E9422160E949D0D0C945E
:101B50009B0D0E94930D0C94920D0E94A8150E945B
:101B6000C6110C94970D2F923F924F925F926F92F5
:101B70007F928F929F92AF92BF92CF92DF92EF921D
:101B8000FF920F931F93CF93DF93CDB7DEB72C97C0
:101B90000FB6F894DEBF0FBECDBF0E94DD118111DC
:101BA0000E94740D8EE092E09C878B8700E010E02D
:101BB000302E802F0E94E0102B013C01EB85FC852C
:101BC00081919191A191B191FC87EB8753014201E1
:101BD00088269926AA26BB2681149104A104B10463
:101BE000B1F40F5F1F4F0530110511F78FEF898397
:101BF0008A831B820E94B1158160782F9D838C831C
:101C000049815A816B818D810E94B4024EC08091BE
:101C10002A0281FD0E94EC10212CC12CD12C7601CE
:101C2000C394D501C4018C219D21AE21BF21892BF4
:101C30008A2B8B2B89F10E94900D8823C9F02E826C
:101C40003F824C205D206E207F2081E04528462881
:101C5000472809F480E088870E94B1158160782FB9
:101C60009A8789874E815F8168858A850E94B40240
:101C7000000F111F000F111FF801E25FFD4F80815F
:101C80009181A281B381C826D926EA26FB26C0828B
:101C9000D182E282F38209C02394CC0CDD1CEE1CBD
:101CA000FF1CF1E12F12BDCF9CCF0E9496149091A2
:101CB0000D028917F1F00E94961480930D022C9664
:101CC0000FB6F894DEBF0FBECDBFDF91CF911F914D
:101CD0000F91FF90EF90DF90CF90BF90AF909F90CB
:101CE0008F907F906F905F904F903F902F900C94CB
:101CF000AB022C960FB6F894DEBF0FBECDBFDF91BE
:101D0000CF911F910F91FF90EF90DF90CF90BF90F8
:101D1000AF909F908F907F906F905F904F903F908B
:101D20002F90089580E090E00895089525E5829F22
:101D3000C0011124FC0121E1729FE00DF11D11246D
:101D4000E60FF11DEE0FFF1FE450FF4F85919491B8
:101D50000895880F991FFC01E05BFD4F85919491D8
:101D60000895CF93DF930E94CB0FEC01811520E5FE
:101D7000920708F041C0811540E4940708F0CBC0F9
:101D8000803E910520F5803C910508F0B8C0883A66
:101D9000910570F4853A910508F0A8C0813091054D
:101DA00009F4A1C008F4EBC0049708F0EBC0E7C049
:101DB0008F3B910508F0E3C0885AC82FD0E0CC0FC4
:101DC000DD1FC25CDE4F888199819464DCC081157F
:101DD00050E2950750F4C11581E0D80708F0D2C051
:101DE000C83ED10508F4CEC0CAC0811520E39207D1
:101DF00008F08AC09F7085C0811545E5940708F0FA
:101E000046C0811554E5950708F09DC0C11582E5CF
:101E1000D80718F5C11521E5D20708F07FC0CE011B
:101E2000F4E096958795FA95E1F7282F23703C2FDB
:101E3000337081E090E002C0880F991F3A95E2F775
:101E40009C68922B2C2F2F702695269540E2249F7C
:101E500090011124822B932B96C09E01237033276F
:101E60009C2F96959695C115D34508F05CC041E02E
:101E700050E002C0440F551F2A95E2F780E2989F78
:101E800090011124CA01822B932B9C687CC0811580
:101E900059E5950798F4C11588E5D80708F058C0AA
:101EA000C11526E5D20708F06AC08C2F0E945F108A
:101EB0008F7190E0982F8827906265C081154AE560
:101EC000940708F44AC090568115904208F057C014
:101ED0008D2F8F710E945F109E01332730628F71AA
:101EE000A901582B4AC081E090E04DC0855AC82F07
:101EF000D0E0C459DE4F888190E0906444C0805C9B
:101F000091090E94A90E3FC09927D3FF02C0986C87
:101F10003AC0906C38C09F70906A35C09C2F88275B
:101F2000816F906A30C041E050E002C0440F551FFD
:101F30002A95E2F780E2989F90011124CA01822B32
:101F4000932B9A6820C0982F8827846F906A1BC0B3
:101F50009C2F8827806F906A16C08F700E945F1038
:101F60009E0194E0369527959A95E1F72F7030E021
:101F7000322F22273069A901482BCA0104C080E012
:101F800090E001C0CE01DF91CF9108950E94960E9E
:101F90000E94B10E08958238910569F1B0F4813341
:101FA000910509F46DC048F48932910509F463C0C4
:101FB0008A32910509F469C008958533910509F4C1
:101FC00055C089339105B9F00895833E910569F1B3
:101FD00038F4803E9105B1F0823E910509F10895F3
:101FE000863E9105A9F1873E9105B9F1843E9105A0
:101FF00009F064C023C02091460220FD4FC021FD9E
:102000004DC008958091460280FD44C080914702F2
:1020100080FF44C08091460284FD42C083EE4DC0E3
:102020008091460282FF38C0F5CF8091460282FD42
:1020300033C08091470280FD31C0ECCF80914702D0
:1020400081FF32C08091460284FD2AC087EE35C0F0
:102050008091460283FF26C0F5CF8091460283FD22
:1020600021C08091470281FD1FC0ECCF80914602C4
:1020700085FD1CC01DC08091460285FD19C016C09B
:102080008091460286FD16C017C08091460286FDEB
:1020900013C010C089E311C082EE0FC080EE0DC0E6
:1020A00080E00BC086EE09C084EE07C089E205C05F
:1020B00085E303C08AE201C081E390E00895909136
:1020C000460292FF0DC0282F2871283019F4877F0F
:1020D000846006C0282F2471243011F48B7F88601F
:1020E00093FF0DC0282F2871283119F4877E846151
:1020F00006C0282F2471243111F48B7E8861209131
:10210000470220FF0DC0382F3871383019F4877F0F
:10211000816006C0382F3171313011F48E7F8860B4
:1021200021FF0DC0282F2871283119F4877E816185
:1021300006C0282F2171213111F48E7E886194FD13
:10214000877E089580E008950C94BF0C0E94DD11F5
:102150008FE39CE90197F1F700C000000E94DD11B8
:1021600080E00E94E01060FF04C00E94A4100C9464
:10217000FE1508950C94A6100E94C50C811102C092
:102180000E946D0D0E94D00C80932A020E94D80CF0
:1021900090934702809346020E94BA100E94D40C8A
:1021A000682F70E080E090E00E947D066091C001A1
:1021B0007091C1018091C2019091C3010C94B50648
:1021C00024E0829FC0011124FC01E45AFD4F60818C
:1021D0007181828193810895089580EA8A95F1F74B
:1021E000089500C008950C94ED1008950C94F51016
:1021F0000C94F6100C94F5100C94FA10F894E82F47
:10220000E295EF70F0E031A1282F2F7081E090E08F
:1022100001C0880F2A95EAF7982F9095932391A3F0
:1022200092A1892B82A3789408950F931F93CF9343
:10223000DF93C0E8D1E089918F3F11F00E94FE103A
:1022400081E0C538D807B9F7CFE6D1E000E811E062
:1022500089918F3F11F00E94FE100C171D07C1F7E6
:10226000DF91CF911F910F9108954F925F926F92DE
:102270007F928F929F92AF92BF92DF92EF92FF92E6
:102280000F931F93CF93DF938C01C62FD0E0CE0125
:1022900080589E4F7C01DC019C919F3F09F466C0F1
:1022A000D62EF894E92FE295EF70F0E081A19F70AF
:1022B00021E030E001C0220F9A95EAF7822B81A33A
:1022C00082A12095282322A378940E94F110EFE6A2
:1022D000F1E020E030E0812C912C5401412C512C74
:1022E0003201439481918F3FD9F0A82FA295AF700E
:1022F000B0E090964C9150E08F70DA0102C0B59535
:10230000A7958A95E2F7A0FD0BC0D301C201022E6A
:1023100004C0880F991FAA1FBB1F0A94D2F703C0DD
:1023200080E090E0DC01882A992AAA2ABB2A2F5F44
:102330003F4F21313105B1F6F70180818F3F11F018
:102340000E94FE1061E081149104A104B10409F41B
:1023500060E08D2D0E94F310CC0FDD1FCC0FDD1F30
:10236000C00FD11F88829982AA82BB82DF91CF9150
:102370001F910F91FF90EF90DF90BF90AF909F90D3
:102380008F907F906F905F904F9008950E941511ED
:10239000E8E4F2E0ACE5B2E01192119211921192F0
:1023A0001D921D921D921D9282E0EC35F807A1F757
:1023B00085E00E9428120C943902FF920F931F931C
:1023C000CF93DF93CDB7DEB764970FB6F894DEBF37
:1023D0000FBECDBF8E010F5F1F4F84E1F801119238
:1023E0008A95E9F7F12C6F2DC8010E943511F394FD
:1023F000F5E0FF12F8CF44E150E0B80188E492E044
:102400000E94C01CFF24F394009709F4F12C892B3F
:1024100041F084E1F801A8E4B2E001900D928A95C0
:10242000E1F72F2D45E06CE572E088E492E00E9430
:1024300029120E943F028F2D64960FB6F894DEBFDA
:102440000FBECDBFDF91CF911F910F91FF900895E7
:102450000895FF920F931F93CF93DF93F82ED92FF8
:102460008B01C42F222349F081E080932D020E942A
:10247000B11590932C0280932B0280912D0288231A
:10248000F1F080912B0290912C020E94C9150597C2
:10249000B0F0EF2DFD2FD80180E090E04C2F50E000
:1024A0008417950754F401911191219131910D9365
:1024B0001D932D933D930196F3CF10922D02DF9142
:1024C000CF911F910F91FF9008950E9426150E94B1
:1024D00065170E947E170E9490170E94A90DFBCFDE
:1024E0000F931F93CF93DF93C42FD22FFC018281D0
:1024F0008823C9F0409330020E94B11590932F02B7
:1025000080932E0280E28C0F883008F057C0C7708D
:1025100081E001C0880FCA95EAF7DF91CF911F9142
:102520000F910C949E0380913002481330C080912B
:102530002E0290912F020E94C915883C910538F512
:1025400010E21D0FCD17B9F080E28C0F883040F4F7
:10255000C77081E001C0880FCA95EAF70E94A50301
:10256000183028F581E09D2F977001C0880F9A954B
:10257000EAF70E949E03802F0E9495031830F0F422
:10258000D77081E001C0880FDA95EAF70AC080E2CF
:102590008C0F883098F4C77081E001C0880FCA950D
:1025A000EAF7DF91CF911F910F910C94A503802F33
:1025B000DF91CF911F910F910C949503DF91CF91F3
:1025C0001F910F9108950F939C01CB01243F4CE57F
:1025D000340731F188F4293DFCE53F07D9F02A3D65
:1025E0004CE5340779F1283D3C45A9F506E221EE9A
:1025F00041EE68ED7CE52BC0263FFCE53F07E1F0AE
:10260000A8F0273F3C4539F507E225EE46EE67EF97
:102610007CE51DC007E225EE45EE69ED7CE517C0BF
:1026200006E221EE40EE64EF7CE511C007E225EE04
:1026300044EE65EF7CE50BC006E221EE42EE66EF6C
:102640007CE505C008E221E045EE6AED7CE50E94EC
:10265000701280E008C0FC018281882319F010927A
:10266000300201C081E00F910895CF93DF93EC0118
:10267000FB018281882309F41FC1C230FCE5DF071A
:1026800008F41BC1C6319CE5D90738F09E012B5FC9
:102690003C452930310508F010C10E94D80C9093B8
:1026A000470280934602C031ECE5DE0709F4C3C05F
:1026B00008F041C0C8308CE5D80709F49AC0F0F49E
:1026C000C430ECE5DE0709F487C068F4C2308CE55D
:1026D000D80709F477C0C330DC4509F0E3C0809126
:1026E0004602826076C0C630ECE5DE0709F46EC0B3
:1026F00008F07BC08091460288606BC0CC308CE5CE
:10270000D80709F485C068F4CA30ECE5DE0709F49F
:1027100074C008F079C00E941C068091460280684F
:1027200058C0CE308CE5D80709F476C008F07FC0D9
:10273000809146028BC0CC3FECE5DE0709F44FC028
:1027400018F5C3318CE5D80709F47DC078F4C131A0
:10275000ECE5DE0709F473C0C231DC4509F0A2C024
:102760000E941C06809146028F7733C0C5318CE5EC
:10277000D80709F472C008F486C0CB3FDC4509F0E5
:1027800091C0809147023EC0C115FDE5DF0709F405
:102790005FC058F4CE3F9CE5D90709F444C008F463
:1027A0003FC08091470282602DC0C230FDE5DF0747
:1027B00009F475C008F45DC0C330DD4509F072C08E
:1027C00080E06EC080914602816003C08091460225
:1027D00080618093460266C08091460211C080915C
:1027E00047028260809347025DC08091460280620A
:1027F000F0CF809146028064ECCF809146028860E1
:102800008460E7CF8160EECF809146028E7FE1CF7A
:10281000809146028D7FDDCF80914602877FD9CFA0
:102820008091470218C0809147028D7FDBCF809155
:1028300046028F7ECECF809146028F7DCACF809197
:1028400046028F7BC6CF80914602877F8B7FC1CFA8
:10285000809147028D7F8E7FC5CF8091460282FB9B
:10286000222720F991E0922790FB82F990FB83F9CF
:10287000B0CF80914702982F909591708E7F892BD1
:1028800090FB81F9AFCF0E941C068091460287FB26
:10289000222720F991E0922790FB87F99ACF81E0D7
:1028A0000E946F0D80914602909147020E94E90CB0
:1028B0000E941C0680E001C081E0DF91CF91089565
:1028C000CF93DF9386319C4541F5EB010E94000CCC
:1028D000982F8A812091000130910101882379F09D
:1028E0009A7A81E009F480E080933102911102C06C
:1028F00069E201C065E3C9010E941B150AC080910D
:102900003102811102C069E201C065E3C9010E9480
:102910001D150E94520C80E001C081E0DF91CF9133
:10292000089590933702809336020895E09136021D
:10293000F0913702309721F00190F081E02D099459
:1029400080E00895E0913602F0913702309721F04F
:102950000280F381E02D0994089520913402309192
:1029600035022817390771F09093350280933402AD
:10297000E0913602F0913702309721F00680F7811E
:10298000E02D0994089520913202309133022817E6
:10299000390771F09093330280933202E09136024E
:1029A000F0913702309721F00084F185E02D0994F1
:1029B0000895FC01329697E080E0915029F0219132
:1029C0002223D9F38F5FF9CF0895662349F0FC01E4
:1029D000329608962191621729F0E817F907D1F786
:1029E00080E0089581E008959C01FC0132969FEFFC
:1029F00080E04191461789F09F3F19F4411101C0D1
:102A0000982F8F5F8630A9F79F3F39F0F901E90FC2
:102A1000F11D97FDFA956283089508959C012A5F40
:102A20003F4FFC014281461301C01282019682177A
:102A30009307B9F708950C94F4140C940E150296AC
:102A400026E0FC0111922A95E9F70895089508956A
:102A50000C9427150C942715CF930E942A150E94D9
:102A6000DD110E942815C0E08C2F0E94E010672B1A
:102A7000682B692B29F4CF5FC530B1F780E001C026
:102A800081E0CF9108950C9427150C944315809103
:102A90007802843049F10E94451580E00E94AB0223
:102AA0001092380220E488E190E00FB6F894A895DF
:102AB000809360000FBE2093600083B7817F8460A5
:102AC00083BF83B7816083BF7894889583B78E7FF7
:102AD00083BF0FB6F894A8958091600088618093B9
:102AE0006000109260000FBE08950C9427150E949C
:102AF0001C060E9496140E94AB020C9475151F923E
:102B00000F920FB60F9211248F939F93AF93BF93A1
:102B100080913802811113C08091700290917102EE
:102B2000A0917202B09173024196A11DB11D8093D4
:102B3000700290937102A0937202B0937302BF91DE
:102B4000AF919F918F910F900FBE0F901F9018958E
:102B500082E084BD93E095BD9AEF97BD80936E00AF
:102B600008952FB7F8948091700290917102A0910E
:102B70007202B09173022FBF08952FB7F89460913D
:102B800070027091710280917202909173022FBF56
:102B900008959C014FB7F894809170029091710252
:102BA000A0917202B09173024FBF821B930B0895E4
:102BB00078941F920F920FB60F9211248F939F93C8
:102BC000AF93BF938091700290917102A0917202B5
:102BD000B09173020196A11DB11D80937002909374
:102BE0007102A0937202B0937302BF91AF919F9153
:102BF0008F910F900FBE0F901F90189581E08093DA
:102C0000E00080E28093D8001092C9008FE19EE43A
:102C10000197F1F700C0000087E090EBDC018093A2
:102C2000810290938202A0938302B09384029CE07D
:102C300088E10FB6F894A895809360000FBE90933A
:102C40006000FFCF90938701809386010895809163
:102C50004402089590917802943031F580933902BE
:102C600070933B0260933A0282E08093E9008FEF19
:102C70009091E800815095FD06C095ED9A95F1F789
:102C800000008111F5CF8091E80085FF0DC040E084
:102C900050E063E070E089E392E00E941C188091AC
:102CA000E8008E778093E8000895BC0184E00C94DE
:102CB0002A16BC0183E00C942A16CF93DF9321E0FF
:102CC0002093E9002FEF3091E800215035FD06C038
:102CD00035ED3A95F1F700002111F5CF2091E8008C
:102CE00025FF14C0EC0140E050E068E070E00E9475
:102CF0001C188091E8008E778093E80088E0FE0140
:102D0000ACE3B2E001900D928A95E1F7DF91CF91AB
:102D10000895089580917702811109C00E94AD192C
:102D20000E940A1A8091E20084608093E200089574
:102D300010927702089508950895089542E061EC95
:102D400081E00E94261942E261EC82E00C9426198F
:102D500080917A02833009F460C030F4813071F0E0
:102D6000823009F499C008958A3009F485C08B3007
:102D700009F46BC0893009F0A7C020C080917902A6
:102D8000813A09F0A1C08091E800877F8093E80034
:102D900080917D0290917E02892B21F468E08CE382
:102DA00092E003C060E080E090E070E00E9467186D
:102DB0008091E8008B778093E800089580917902F4
:102DC000813209F081C080917D0290917E0202974C
:102DD00008F07AC08091E800877F8093E8008091B6
:102DE000E80082FD05C0809178028111F8CF6CC0A7
:102DF0002091F3008091F20090E0922B029729F449
:102E00008091F1008B7F813021F48091F1008093DB
:102E100044028091E8008B7753C080917902813A17
:102E200009F052C080917D0290917E02892B09F0B9
:102E30004BC08091E800877F8093E8008091E80094
:102E400080FFFCCF80910C0136C0809179028132E5
:102E5000D9F580917D0290917E02892BA9F5809110
:102E6000E800877F8093E8000E945B1980917B02D5
:102E700080930C010C941C0680917902813221F51B
:102E80008091E800877F8093E8000E945B19809121
:102E90007C0280934502089580917902813AA1F4E1
:102EA0008091E800877F8093E8008091E80080FFB0
:102EB000FCCF809145028093F1008091E8008E77ED
:102EC0008093E8000C945B19089584B7877F84BFD2
:102ED0000FB6F894A8958091600088618093600097
:102EE000109260000FBE90E080E80FB6F8948093D7
:102EF0006100909361000FBE0C949F0D0E94AD196C
:102F00000E940A1AE2EEF0E0808184608083789467
:102F10000E949F1C0E94AD0D82E091E00C949114E0
:102F2000809178028530A9F480917802853079F417
:102F30000E944715809176028823B1F30E942C15D8
:102F4000882391F30E9406180E941C06EDCF0E9470
:102F500077150C94B30D0C94AD17292F332723301C
:102F60003105C9F060F42130310581F0223031059E
:102F700009F044C08BE390E02CE732E043C02132FB
:102F80003105E1F02232310549F138C082E190E0AB
:102F900027EB32E037C099278130910549F028F0BE
:102FA000029761F5E0E5F2E005C0E8E7F2E002C073
:102FB000E0E6F2E0849190E09F0124C06115710584
:102FC00041F061307105D1F489E090E027EA32E008
:102FD00019C089E090E02EE832E014C06115710557
:102FE00041F06130710551F482E390E029EC32E068
:102FF00009C080E490E02BEF32E004C080E090E074
:1030000020E030E0FA0131832083089580E189BD1A
:1030100082E189BD09B400FEFDCF8091D8008F7D8B
:103020008093D8008091E00082608093E0008091DE
:10303000E00081FDFCCF0895CF92DF92EF92FF92E6
:103040000F931F93CF93DF93EC018B017A010E94C2
:103050007A19811133C0E114F10439F0F70180814C
:103060009181081B190BC80FD91FC12CD12C011538
:10307000110519F18091E80085FD16C08091E800E6
:103080008E778093E800E114F10449F0F701808124
:103090009181C80ED91ED182C08285E00FC00E94E6
:1030A0007A19882321F30AC089918093F100015095
:1030B0001109FFEFCF1ADF0ADACF80E0DF91CF915D
:1030C0001F910F91FF90EF90DF90CF900895209186
:1030D0007F02309180022617370748F0611571058D
:1030E00039F42091E8002E772093E80001C0B9015F
:1030F000FC0120E06115710579F180917802882347
:10310000F1F18530F1F18091E80083FD3CC08091C0
:10311000E80082FD2EC08091E80080FFEBCF209177
:10312000F3008091F20090E0922B6115710551F04F
:103130008830910538F421912093F1006150710994
:103140000196F3CF21E0089709F020E08091E80094
:103150008E778093E800CECF2111CFCF0AC0809127
:103160007802882361F0853061F08091E80083FD6A
:103170000AC08091E80082FFF2CF80E0089582E0EB
:10318000089583E0089581E0089520917F023091B1
:1031900080022617370748F06115710539F4209130
:1031A000E8002E772093E80001C0B901FC0120E07F
:1031B0006115710591F180917802882309F440C06E
:1031C000853009F43FC08091E80083FD3DC08091C7
:1031D000E80082FD2FC08091E80080FFE9CF2091B8
:1031E000F3008091F20090E0922B6115710559F087
:1031F0008830910540F424912093F100319661507C
:1032000071090196F2CF21E0089709F020E0809142
:10321000E8008E778093E800CBCF2111CCCF0AC095
:1032200080917802882361F0853061F08091E80018
:1032300083FD0AC08091E80082FFF2CF80E008950C
:1032400082E0089583E0089581E00895982F9730F3
:1032500068F59093E900981739F07091EC0020918F
:10326000ED005091F00003C0242F762F50E021FD97
:1032700002C09F5FECCF3091EB003E7F3093EB00BC
:103280003091ED003D7F3093ED003091EB003160E7
:103290003093EB007093EC002093ED005093F0001E
:1032A0002091EE0027FDE5CF80E008958F70809398
:1032B000E90081E008958091790287FF11C0809133
:1032C000E80082FD05C0809178028111F8CF11C01D
:1032D0008091E8008B770BC080917802882349F0B9
:1032E0008091E80080FFF8CF8091E8008E7780938E
:1032F000E80008952091E4003091E50095E64091C2
:10330000EC00842F817040FF23C08091E80080FD95
:103310001DC080917802882399F0853099F08091C2
:10332000EB0085FD11C04091E4005091E5002417A9
:10333000350729F3915011F09A01E1CF84E0089507
:1033400082E0089583E0089581E0089580E0089583
:103350004091E80042FFDDCF08950E941B1A0E94B1
:10336000231AE0EEF0E0808181608083E8EDF0E0F8
:1033700080818F77808319BCA7EDB0E08C918E7F20
:103380008C9380818F7E80831092770208950F93B3
:103390001F93CF93DF930E941B1A0E94231AC8ED3C
:1033A000D0E088818F77888388818068888388814E
:1033B0008F7D888319BC109278021092740210924B
:1033C00076021092750200EE10E0F80180818B7F8A
:1033D000808388818160888342E060E080E00E9491
:1033E0002619E1EEF0E080818E7F8083E2EEF0E04E
:1033F000808181608083808188608083F801808102
:103400008E7F8083888180618883DF91CF911F9137
:103410000F910895E8EDF0E080818F7E8083E7EDE5
:10342000F0E080818160808384E082BF81E08093CE
:1034300077020C94C719E8EDF0E080818E7F8083DD
:103440001092E20008951092DA001092E1000895BF
:103450001F920F920FB60F9211242F933F934F9309
:103460005F936F937F938F939F93AF93BF93EF93EC
:10347000FF938091E10082FF0BC08091E20082FF08
:1034800007C08091E1008B7F8093E1000E949E1C29
:103490008091DA0080FF1FC08091D80080FF1BC0A0
:1034A0008091DA008E7F8093DA008091D90080FFCE
:1034B0000DC080E189BD82E189BD09B400FEFDCF68
:1034C00081E0809378020E948A1605C019BC109290
:1034D00078020E9498168091E10080FF19C08091C7
:1034E000E20080FF15C08091E2008E7F8093E200B1
:1034F0008091E20080618093E2008091D800806238
:103500008093D80019BC85E0809378020E949C16B5
:103510008091E10084FF30C08091E20084FF2CC0E4
:1035200080E189BD82E189BD09B400FEFDCF8091B3
:10353000D8008F7D8093D8008091E1008F7E8093AA
:10354000E1008091E2008F7E8093E2008091E200B2
:1035500081608093E20080917402882311F084E0FE
:1035600007C08091E30087FD02C081E001C083E0D5
:10357000809378020E949D168091E10083FF29C00C
:103580008091E20083FF25C08091E100877F8093D6
:10359000E10082E080937802109274028091E10051
:1035A0008E7F8093E1008091E2008E7F8093E20025
:1035B0008091E20080618093E20042E060E080E080
:1035C0000E9426198091F00088608093F0000E948C
:1035D0009B16FF91EF91BF91AF919F918F917F913A
:1035E0006F915F914F913F912F910F900FBE0F9070
:1035F0001F9018951F920F920FB60F9211242F93C0
:103600003F934F935F936F937F938F939F93AF936A
:10361000BF93CF93DF93EF93FF93C091E900CF70F7
:103620008091EC00D82FD17080FDD0E81092E90095
:103630008091F000877F8093F00078940E943E1B79
:103640001092E9008091F00088608093F000CD2B0B
:10365000CF70C093E900FF91EF91DF91CF91BF91BF
:10366000AF919F918F917F916F915F914F913F911A
:103670002F910F900FBE0F901F9018951F93CF930F
:10368000DF93CDB7DEB7AA970FB6F894DEBF0FBEB3
:10369000CDBFE9E7F2E08091F100819322E0E138CB
:1036A000F207C9F70E94A8168091E80083FF2EC197
:1036B0008091790290917A02492F50E04A30510569
:1036C00008F024C1FA01EC58FF4F0C94BA1C803862
:1036D00021F0823809F01AC108C0809175029091DA
:1036E0007602992389F082600FC080917D028F70ED
:1036F000873008F00BC18093E9008091EB0085FBD7
:10370000882780F91092E9009091E800977F9093C4
:10371000E8008093F1001092F100D1C0282F2D7F96
:1037200009F0F4C0882319F0823061F0EFC0809175
:103730007B02813009F0EAC0933009F080E0809389
:1037400076022EC080917B0281112AC080917D0279
:103750008F702FEF280F263008F0D8C08093E90033
:103760002091EB0020FF1CC0933021F48091EB00EE
:10377000806214C09091EB0090619093EB0021E087
:1037800030E0A90102C0440F551F8A95E2F740932B
:10379000EA001092EA008091EB0088608093EB00D1
:1037A0001092E9008091E800877F8093E8000E94F2
:1037B0005B19ACC08111AAC010917B021F77809168
:1037C000E3008078812B8093E3008091E800877F7D
:1037D0008093E8000E945B198091E80080FFFCCF95
:1037E0008091E30080688093E300111102C082E0C1
:1037F00001C083E08093780289C08058823008F04D
:1038000085C080917B0290917C028C3D53E09507AE
:1038100079F583E08A838AE289834FB7F894DE01E1
:10382000139620E03EE051E2E32FF0E05093570082
:10383000E49120FF03C0E295EF703F5FEF708E2FA1
:1038400090E0EA3010F0C79601C0C0968D939D932A
:103850002F5F243149F74FBF8091E800877F809325
:10386000E8006AE270E0CE0101960E94671816C077
:1038700060917D0270917E02AE014F5F5F4F0E94AA
:10388000AB17BC01892B09F441C09091E800977FE8
:103890009093E80089819A810E94C5188091E80080
:1038A0008B778093E80032C0803881F58091E80002
:1038B000877F8093E800809174028093F10080916B
:1038C000E8008E7772CF811121C080917B029091A8
:1038D0007C0299270297D4F48091E800877F809337
:1038E000E80080917B02809374020E945B198091B2
:1038F0007402811106C08091E30087FD02C081E05F
:1039000001C084E0809378020E949E168091E800B6
:1039100083FF0AC08091E800877F8093E800809150
:10392000EB0080628093EB00AA960FB6F894DEBF9E
:103930000FBECDBFDF91CF911F9108950895CF9312
:10394000809178028823A1F0C091E900CF70909116
:10395000EC00892F817090FD80E8C82B1092E9005F
:103960008091E80083FD0E943E1BCF70C093E90068
:10397000CF910895EE0FFF1F0590F491E02D09946B
:10398000FB01DC0104C08D910190801921F44150AC
:103990005040C8F7881B990B0895F999FECF92BD46
:1039A00081BDF89A992780B50895A8E1B0E042E07A
:1039B00050E00C94011D262FF999FECF92BD81BDD8
:1039C000F89A019700B4021639F01FBA20BD0FB65D
:1039D000F894FA9AF99A0FBE08950396272F0E9439
:1039E000DC1C0E94DB1C252F0E94DC1C242F0C9465
:1039F000DC1C0196272F0E94DC1C0C94DB1CDC01D4
:103A0000CB01FC01F999FECF06C0F2BDE1BDF89AE9
:103A1000319600B40D9241505040B8F70895F89493
:023A2000FFCFD6
:103A2200020227165D1689165916551601E200E99B
:103A320000EA00B500B600B700CD008301CC008AD1
:103A42000192019401210223022402250226022767
:103A5200022A02B300B4006F007000818283E20088
:103A6200E900EA00B500B600B700CD008301CC0042
:103A72008A019201940121022302240225022602D4
:103A820027022A02B300B4006F007000818283947F
:103A9200969734353666F5F4F1F0313233929395D8
:063AA200919030F6F700E0
:00000001FF
