:100000000C94F0020C9437030C9437030C943703D0
:100010000C9437030C9437030C9437030C94370378
:100020000C9437030C9437030C94FA210C94CC22D3
:100030000C945F1C0C9437030C9437030C94370317
:100040000C9437030C9437030C9437030C94370348
:100050000C9437030C94B81C0C9437030C9437039E
:100060000C9437030C9437030C9437030C94370328
:100070000C9437030C9437030C9437030C94370318
:100080000C9437030C9437030C9437030C94370308
:100090000C9437030C9437030C9437030C943703F8
:1000A0000C9437030C9437030C943703AA06AA0662
:1000B000DC06DC0629074707680868085207E707D7
:1000C000F807F80758086808680861080809080967
:1000D0001A091A0911091A091A091A090809080935
:1000E00016091A091A0916093923602358246023AE
:1000F0005824AC23CF23582426243524E6001000AE
:1001000036000E000F00120027002D00E700370018
:1001100038003300340013002F002E000351E1009B
:10012000035128003100300035002A00E300E100CF
:10013000E00004002B00140029001E00E30064000E
:100140001D0016001A0008001F002000E2001B001E
:100150000700090015001700210022002C000600EE
:1001600019000A001C0018002300240000000500EC
:1001700011000B000D000C0025002600E700100008
:100180001A0017001100150027002F00E6001900C3
:100190001D0016002D000F0038003000E400E100C3
:1001A000035128002A002E0035003100E000E10054
:1001B000035104002B00340029001E00E2006400FB
:1001C00033001200360037001F002000E300140047
:1001D0000800180013001C00210022002C000D0054
:1001E0000E000C0009000A002300240000001B0080
:1001F000050007000B00060025002600E7001000A0
:10020000360008000C001C0027002D00E600370017
:1002100038001200340033002F002E00E400E1000B
:10022000035128002A00300035003100E000E100D1
:10023000035104002B00140029001E00E20064009A
:100240001D0015001A0009001F002000E3001B001C
:100250001600170013000A00210022002C000600DF
:10026000190007000D000F00230024000000050006
:100270000E000B001100180025002600C45C0100D0
:100280004D004A004B0047004300440001004E006F
:10029000510050004F00480052004500C35C01006F
:1002A000010001004C00480049004C000100010021
:1002B0000100AA003900010035003A0001000100E8
:1002C0000100A900010001003B003C000100010009
:1002D000A800B000010001003D003E000100010047
:1002E00001000100010001003F004000000001008A
:1002F0000100010001000100410042004445425557
:10030000473A2064697361626C65642E0A00444553
:100310004255473A20656E61626C65642E0A004F53
:100320006E6573686F743A206163746976653A200C
:1003300025640A000A0025303258006B6579626F27
:100340006172645F7365745F6C65643A20000A00D3
:1003500025303862003A200025303258000A722FCA
:10036000632030313233343536370A00290A00250C
:1003700075002F002575005D2800256400200025EC
:100380006400200025640020002564007C002530E6
:100390003258006D6F7573656B6579205B62746EA2
:1003A0007C782079207620685D287265702F6163E3
:1003B0006C293A205B000A002530325820006B651A
:1003C00079626F6172645F7265706F72743A200057
:1003D00064656C5F6B65795F6269743A2063616E16
:1003E00027742064656C3A20253032580A00616415
:1003F000645F6B65795F6269743A2063616E27742C
:10040000206164643A20253032580A005B735D0035
:100410004B6579626F6172642073746172742E0A25
:10042000005B575D005B535D005B525D005B445DAC
:10043000005B435D000E03470053004B0054003047
:100440000030000000100369006E00610063006866
:10045000006900650000000403090409025B000351
:100460000100A0FA090400000103010100092111A3
:100470000100012240000705810308000A09040168
:1004800000010300000009211101000122B600074C
:1004900005820320000A090402000203000000098B
:1004A000211101000122220007058303200001071A
:1004B0000503032000011201000200000008EDFE08
:1004C00061600100010200010631FF0974A1010908
:1004D00075150026FF009520750881020976150024
:1004E00026FF00952075089102C005010902A101AF
:1004F00085020901A1000509190129081500250136
:100500009508750181020501093009311581257FA2
:1005100095027508810609381581257F95017508B2
:100520008106050C0A38021581257F950175088121
:1005300006C0C005010980A101850319012AB70081
:10054000150126B700950175108100C0050C090141
:10055000A101850419012AA002150126A002950116
:1005600075108100C005010906A10185050507195F
:10057000E029E71500250195087501810205071995
:100580000029EF1500250195F07501810205081974
:10059000012905950575019102950175039101C029
:1005A00005010906A101050719E029E71500250144
:1005B00095087501810295017508810105071900EB
:1005C00029FF150026FF009506750881000508190A
:1005D000012905950575019102950175039101C0E9
:1005E00011241FBECFEFDAE0DEBFCDBF04B603FE9D
:1005F00027C080919E0290919F02A091A002B0918D
:10060000A1028730904BA740B04BD1F410929E02CC
:1006100010929F021092A0021092A10214BE84B701
:10062000877F84BF0FB6F894A89580916000886199
:1006300080936000109260000FBEE0E0F8E309953F
:1006400011E0A0E0B1E0ECE2FAE402C005900D9206
:10065000A639B107D9F722E0A6E9B1E001C01D92A1
:10066000AE39B207E1F70E9448150C9414250C949A
:100670000000FF93EF93E0919601F091970130977E
:1006800009F00995EF91FF910895FC018591803063
:1006900011F0EFDFFBCF0895FF27E0E230E247FFE4
:1006A0000CC0419597FF09C0EDE26095709580956B
:1006B0009095611D711D811D911D27FF02C021951F
:1006C00030E350E2AA27660F771F881F991FAA1FE1
:1006D000A41710F0A41B63955A95A9F7AA3008F047
:1006E000A95FA05DAF93F395611571058105910533
:1006F00041F7ED3211F4EF93F395F21718F43F93AD
:10070000F395FBCF8F91B5DFFA95E1F70895E99165
:10071000F9918591803021F0853219F0AADFF9CF67
:10072000089520E0E89455915532C1F3503311F407
:10073000689455915A3348F4505390F3220F022E87
:10074000220F220F200D250FF4CF0EF42195899151
:100750009991533619F3533729F1533559F1BC01A7
:1007600088279927E8945C3621F4899199916894B7
:100770005591543639F446EF7EF077FF0DC08FEF78
:100780009FEF0AC055374AE039F0583540E121F073
:10079000523642E009F00895FF93EF937DDFEF9129
:1007A000FF91B7CFFF93EF93FC0181918030B9F3B4
:1007B00060DFFBCFFF93EF9368DFF1CFDF93CF9341
:1007C000CDB7DEB72596A3DFCF91DF9108950895C9
:1007D000089581E00895089581E008950C94E90357
:1007E00008950C94F0031F93CF93DF9300D000D0B3
:1007F0001F92CDB7DEB749835A836B83309198013E
:1008000089819A81311114C0662359F0222349F05D
:100810000E94AC0A182F682F89819A810E94550A7C
:1008200003C00E94800A182F69817A81812F04C039
:100830000E94AC0A69817A810F900F900F900F90FF
:100840000F90DF91CF911F910C946B11FC01262F1B
:10085000408151816281738184810C94F30381E032
:100860000895CF93DF93EC0160E00E942604BE015F
:10087000DF91CF910C94F1030E9498130E94DD0444
:100880000C9412140C94101408950E94F6080E94FF
:1008900044042FEF84E39CE0215080409040E1F736
:1008A00000C000000C94DE1C0F931F93CF93DF93C6
:1008B0008C0161E00E942604EC01B8010E94EE0365
:1008C000882309F45BC0B801CE010E94DB1888239D
:1008D00009F454C0B801CE010E942D19882309F4EF
:1008E0004DC0B801CE010E94581A882309F446C0B1
:1008F000F80182818823D9F1CF3D8CE5D80779F1C1
:1009000040F4C115FCE5DF0791F0C130DC4591F002
:100910002EC0CC35EDE5DE0741F1CD35FDE5DF0735
:1009200009F1CB35DD4519F50E94E80E20C00E9483
:10093000450424C080913702C82FC095C170C0FB08
:1009400080F980933702CC2329F08EE093E00E9457
:10095000450314C08CEF92E00E94450310C00E9432
:100960005B100CC00E94DF0E02C00E94EB0EC8019B
:10097000DF91CF911F910F910C94EC03C0E08C2F6D
:10098000DF91CF911F910F9108958295982F9373C6
:1009900044E0949F900111248C7C86958695282BA9
:1009A000822F8575880F2A7A2695822B08950C94BC
:1009B000EB0381E008950C94D9040895CF93C82FD8
:1009C0000E94D7048C2F0E94DB04CF910895CF930F
:1009D000DF93CDB7DEB72B970FB6F894DEBF0FBE0F
:1009E000CDBF4F83588769877A878B8761110E94B3
:1009F0000E0F9E012F5F3F4F86E0F90111928A95FD
:100A0000E9F785E0FE013796D90101900D928A95AC
:100A1000E1F789819A814C815D81452B31F09F3FBF
:100A200031F491E08F3F19F403C091E001C090E0F0
:100A300090FF09C049815A816B817C818D819E81A3
:100A40000E94FA0D05C0C9010E942F048111F2CF46
:100A50002B960FB6F894DEBF0FBECDBFDF91CF91BE
:100A60000895FC01808191810E94EE0A0895CF9340
:100A7000882309F4A4C0C82F8238C1F40E948E1ABA
:100A800081FD9DC069E380910001909101010E9468
:100A9000E11B0E94400F2FEF81EE94E02150804037
:100AA0009040E1F700C0000069E319C0833801F508
:100AB0000E948E1A80FD83C063E5809100019091B1
:100AC00001010E94E11B0E94400F2FEF81EE94E094
:100AD000215080409040E1F700C0000063E5809124
:100AE0000001909101010E94EC1BCF910C94400FEA
:100AF0008438C1F40E948E1A82FD61C067E480913F
:100B00000001909101010E94E11B0E94400F2FEF14
:100B100081EE94E0215080409040E1F700C0000059
:100B200067E4DDCF8CEF8C0F813AD0F46C2F80918D
:100B30000001909101010E943F1B882349F06C2F16
:100B400080910001909101010E94EC1B0E94400FD6
:100B50006C2F80910001909101010E94E11BC5CF93
:100B600080E28C0F883048F4C77081E001C0880FA4
:100B7000CA95EAF70E94F10EB8CFEBE5EC0FE3302F
:100B800040F4F0E0ED5BFE4F808190E0CF910C945B
:100B9000FD1AE8E5EC0FE73150F4F0E0EE0FFF1F2F
:100BA000EB5EFE4F80819181CF910C94131BCD3E63
:100BB00030F08C2F0E94D515CF910C94A716CF91B1
:100BC0000895882309F464C0823879F40E948E1A4B
:100BD00081FF5EC069E380910001909101010E9454
:100BE000E11B0E94400F69E310C08338B1F40E94FA
:100BF0008E1A80FF4DC063E5809100019091010144
:100C00000E94E11B0E94400F63E5809100019091DA
:100C100001010E94EC1B0C94400F843879F40E946F
:100C20008E1A82FF35C067E4809100019091010126
:100C30000E94E11B0E94400F67E4E7CF9CEF980FF2
:100C4000913A10F4682FE1CF90E2980F983050F469
:100C5000877091E001C0990F8A95EAF7892F0E9469
:100C6000F70ED9CF9BE5980F933020F480E090E009
:100C70000C94FD1A98E5980F973120F480E090E0ED
:100C80000C94131B8D3E20F00E9430160C94A71676
:100C900008951F93CF93DF93182FEB010E94370520
:100CA000209741F08FE99FE00197F1F700C0000025
:100CB0002197F6CF812FDF91CF911F910C94E10501
:100CC000893319F060E070E002C060E570E00C94D8
:100CD0004906882321F00E94F10E0C94400F0895DC
:100CE000882321F00E94F70E0C94400F0895CF92B4
:100CF000DF92EF92FF920F931F93CF93DF937C01CC
:100D0000062FC72FFC01D281158112951F700E94FA
:100D1000B20E882399F0DD2389F08C2F807F8034F8
:100D200021F080E2800F883048F082E00E94900F2E
:100D30000E94B20E91E0D82ED92601C0D12CCC2E23
:100D4000C2948FE0C8228C2D90E0FC01EA5AFF4F3C
:100D50000C94AB248C2F807FCF70882311F0C29528
:100D6000C07FDD2399F0CC2309F48DC180E2800F90
:100D7000883010F0011104C08C2F0E94F10E03C0C6
:100D80008C2F0E94010F0E94400F7DC1802F0E9476
:100D9000E105CC2309F49CC180E2800F883010F07B
:100DA000011104C08C2F0E94F70E03C08C2F0E94EB
:100DB000070F0E94400F8CC18C2F807FCF70803234
:100DC00011F0C295C07F002319F00130C9F022C094
:100DD000DD2371F0112341F0113031F40E94210F15
:100DE0008C2B0E94290F74C10E94210F8C2B1DC0D7
:100DF000112319F0113009F46BC10E94360F25C080
:100E0000DD2321F0163008F063C10EC0153008F064
:100E10005FC11BC0DD2361F0112331F0F701858133
:100E200080FF31C18F7085838C2F0E94690650C16D
:100E3000112359F0093309F037C1FFEF27EE83E0A2
:100E4000F15020408040E1F72DC18C2F0E947006A8
:100E50003FC18C2F86958695837019F0813061F0A3
:100E600037C1DD2321F0802F9C2F937002C080E0DA
:100E700090E00E94FD1A34C1DD2321F0802F9C2FC9
:100E8000937002C080E090E00E94131B29C1802F64
:100E9000DD2319F00E94D51502C00E9430160E9471
:100EA000A7161EC18C2F837009F045C0D11114C143
:100EB000402F429546954770440F440F602F6F7046
:100EC000862F90E0A0E0B0E0042E04C0880F991FA8
:100ED000AA1FBB1F0A94D2F704FF10C00FE010E056
:100EE00020E030E004C0000F111F221F331F4A957D
:100EF000D2F7009510952095309503C000E010E0E2
:100F00009801C695C695C370BC01CD01602B712BAD
:100F1000822B932BC23049F058F4C13019F00E9453
:100F20006B09DAC00E945909D7C00E947D09D4C05C
:100F30000E945709D1C0DD2319F08C2F817001C0A8
:100F40008695882309F4C8C0402F4295469547707E
:100F5000440F440F602F6F70862F90E0A0E0B0E048
:100F6000042E04C0880F991FAA1FBB1F0A94D2F732
:100F700004FF10C00FE010E020E030E004C0000FDC
:100F8000111F221F331F4A95D2F700951095209507
:100F9000309503C000E010E09801C695C695C37077
:100FA000BC01CD01602B712B822B932BC23049F0F9
:100FB00058F4C13019F00E94300A8EC00E941E0AF7
:100FC0008BC00E94420A88C00E94910985C0CF70E0
:100FD000DD2339F08C2F0E94B709802F0E9469060B
:100FE0007BC0802F0E9470068C2F0E94D80974C08D
:100FF000023F01F128F4003F41F0013FA1F03FC062
:10100000033FF9F0043F39F13AC0DD2341F01530D8
:1010100008F05EC08C2F8F710E94FD0959C01630F8
:1010200008F056C0F7CFDD2339F08C2F8F710E9466
:10103000B7094EC0DD23C9F38C2F8F710E94D809E8
:1010400047C0DD2329F08C2F8F710E94A20940C078
:101050000E949D093DC0DD2349F0CF718C2F0E9475
:10106000B70963E08C2F0E94750F32C081E00E94A7
:10107000900F123068F182E00E94900F29C0DD23AA
:1010800031F0112391F2802F0E94370521C01123E6
:1010900099F2093349F49FEFE7EEF3E09150E04015
:1010A000F040E1F700C00000802F0E94E10510C071
:1010B0004C2F4F70602FC7010E9467110E941C0BBC
:1010C0000FC04C2F4F70602FC7010E946A1108C0DB
:1010D00088EF8C0D843020F40E948E1A0E94DE046A
:1010E000DD20C9F00E94AE0E80FD15C0F70112820E
:1010F0000E94A80E0E94B709C7010E94AC080E9476
:10110000A80EDF91CF911F910F91FF90EF90DF908C
:10111000CF900C94D809DF91CF911F910F91FF9040
:10112000EF90DF90CF9008950F931F93CF93DF93AD
:10113000EC01688179818A810E94F90A8C010E9400
:10114000540A0E944509B801CE010E947706DF913A
:10115000CF911F910F910895CF93DF93EC01988168
:1011600089812B813C81232B31F08F3F31F481E049
:101170009F3F19F403C081E001C080E080FD19C0E9
:10118000CE010E94540481110CC00E94B20E88232B
:1011900081F08A81882369F082E0DF91CF910C94FD
:1011A000900FCE010E949408CE01DF91CF910C9454
:1011B0003104DF91CF91089580E090E00E94FD1A04
:1011C00080E090E00E94131B0E940E0F0E941E0FF1
:1011D0000E94400F0E945A180C94A716809100019B
:1011E000909101010E94F71B0C94DC080E94FE0EF6
:1011F0000C94EE08E92FE295EF704E2F50E0FA01C3
:101200003297EE30F105B0F4EA59FF4F0C94AB245D
:10121000803F91F018F4883E68F40EC0843F51F48A
:101220000BC0883E48F0813F29F406C093FB882715
:1012300080F9089580E0089581E00895FC0180819F
:1012400091810E94EE0A0E94FA080895CF93DF93DD
:1012500000D000D01F92CDB7DEB70F900F900F9047
:101260000F900F90DF91CF910895CF93DF9300D02F
:1012700000D000D0CDB7DEB726960FB6F894DEBF0B
:101280000FBECDBFDF91CF910895089508950C94BE
:1012900046090C9447090E9449096093C50170935F
:1012A000C6018093C7019093C8010C94DC080C948C
:1012B0004B090F931F930091C5011091C601209116
:1012C000C7013091C801602B712B822B932B1F918A
:1012D0000F910C944B090F931F930091C50110912E
:1012E000C6012091C7013091C80160237123822378
:1012F00093231F910F910C944B090F931F9300910F
:10130000C5011091C6012091C7013091C801602725
:101310007127822793271F910F910C944B090C94EE
:1013200046090E948F096093C1017093C2018093A6
:10133000C3019093C4010C94DC0860E070E0CB0121
:101340000C9491090F931F9341E050E060E070E02E
:101350008A019B0104C0000F111F221F331F8A95B1
:10136000D2F7C901B8011F910F910C9491090F9305
:101370001F9341E050E060E070E004C0440F551F4F
:10138000661F771F8A95D2F78091C1019091C201A3
:10139000A091C301B091C4018A019B01082B192BB4
:1013A0002A2B3B2BC901B8011F910F910C94910975
:1013B0000F931F9341E050E060E070E004C0440FE1
:1013C000551F661F771F8A95D2F7409550956095F7
:1013D00070958091C1019091C201A091C301B0911B
:1013E000C4018A019B01082319232A233B23C90135
:1013F000B8011F910F910C9491090F931F9341E035
:1014000050E060E070E004C0440F551F661F771F76
:101410008A95D2F78091C1019091C201A091C30138
:10142000B091C4018A019B01082719272A273B276D
:10143000C901B8011F910F910C9491090F931F934B
:101440000091C1011091C2012091C3013091C401EA
:10145000602B712B822B932B1F910F910C94910970
:101460000F931F930091C1011091C2012091C301FC
:101470003091C40160237123822393231F910F9124
:101480000C9491090F931F930091C1011091C20117
:101490002091C3013091C4016027712782279327CF
:1014A0001F910F910C949109089528E0929F800D4F
:1014B0001124E82FE695E695E695877051E001C086
:1014C000550F8A95EAF785E0E89FF0011124E75669
:1014D000FE4F20E030E070E04081CB01022E02C0E0
:1014E000969587950A94E2F78170819584278523E4
:1014F000842781932F5F3F4F2530310569F7089589
:1015000028E0929F800D1124682F66956695669558
:10151000982F977085E0689FB001112440E050E05B
:1015200080E0FB01E40FF51FE756FE4F208130E01D
:10153000092E02C0369527950A94E2F721703327C9
:10154000042E01C0220F0A94EAF7822B4F5F5F4FEF
:101550004530510531F70895BF92CF92DF92EF9257
:10156000FF920F931F93CF93DF938C01C090C10123
:10157000D090C201E090C301F090C4018091C501F8
:101580009091C601A091C701B091C801C82AD92A7B
:10159000EA2AFB2ACFE1D0E0D701C6010C2E04C015
:1015A000B695A795979587950A94D2F780FD04C0C4
:1015B000219790F7B12C07C0BC2EB8018C2F0E9448
:1015C000A4120197A9F38B2DDF91CF911F910F9159
:1015D000FF90EF90DF90CF90BF900895CF93DF936F
:1015E000EC010E94AC0ABE010E94A412DF91CF91CF
:1015F00008951F93CF93DF93EB0190919801992366
:1016000021F0CB010E94EE0A13C0882349F0CB01E0
:101610000E94AC0A182F682FCE010E94550A04C000
:10162000CB010E94800A182FBE01812F0E94A412B4
:10163000DF91CF911F910895EF92FF920F931F9327
:10164000CF93DF938C01892B09F46CC0F12CEE242D
:10165000E394E8012196F8018491843740F48430C2
:1016600008F051C0813081F0823019F15BC08537BC
:1016700009F444C0A8F19CE7980F903708F052C0D5
:101680008F770E94E10541C00E5F1F4FFE018491DC
:1016900090E2980F983050F48770FE2D01C0FF0F34
:1016A0008A95EAF78F2F0E94110F14C00E94370508
:1016B0002DC00E5F1F4FFE01849190E2980F98306D
:1016C00060F48770FE2D01C0FF0F8A95EAF78F2F17
:1016D0000E94170F0E94400F19C00E94E10516C01A
:1016E0000E5F1F4FFE01C491CC2381F08FE99FE074
:1016F0000197F1F700C00000C150F6CF0E5F1F4FF9
:10170000FE01F49003C00E9437058E018F2D8823BF
:1017100009F49FCFEFE9FFE03197F1F700C0000037
:101720008150F5CFDF91CF911F910F91FF90EF90F6
:1017300008951F93CF93DF93C091C90116E0809164
:10174000CA01C81799F0D0E01C9FF0011D9FF00D51
:101750001124E553FE4F4081518162817381848160
:1017600095810E9435092196C770E9CFDF91CF910D
:101770001F9108954091FB015091FC016091FD0182
:101780007091FE018091FF01909100020C94350947
:101790000F931F93CF93DF938091000282958F70F8
:1017A00009F05DC08091FD01882309F458C0809143
:1017B000C9011091CA016091FB017091FC01C091B7
:1017C000FE01D091FF0191E06F3F09F090E0292FD9
:1017D00006E0811709F443C0209721F07F3F21F0F4
:1017E00030E003C031E001C0322F90E030FD34C062
:1017F000089FF001099FF00D1124DF01A553BE4F92
:1018000011963C911197371327C03C91361324C091
:1018100012963C91129731111FC013964D915C9115
:1018200014974C1B5D0B483C5105B0F480910002AD
:101830008F70806180930002E053FE4F80818F7033
:10184000806180838BEF91E00E94AC08DF91CF91A3
:101850001F910F910C94990B01968770BACFDF916D
:10186000CF911F910F9108959F92AF92BF92CF9207
:10187000DF92EF92FF920F931F93CF93DF93CDB739
:10188000DEB761970FB6F894DEBF0FBECDBF8C01F7
:1018900085E0F801DE011D9601900D928A95E1F731
:1018A000F801E2809091FB016091FC012091FE0122
:1018B0003091FF012115310531F06F3F31F481E0A6
:1018C0009F3F19F403C081E001C080E0F82FF17060
:1018D0009F2E80FD3FC1F80140815181A380B480DB
:1018E0008BEFC82E81E0D82EF090FD01F501E21BB0
:1018F000F30BFF2009F4D9C080910002E83CF10508
:1019000008F095C0282F207F09F052C0561313C04D
:10191000491311C0FE2CE1100EC08F7080618093BE
:1019200000020E94BA0BC6010E94AC08809100021E
:10193000F80185834CC1AB2831F05F3F31F481E081
:101940004F3F19F403C081E001C080E080FD03C077
:1019500081E08E2502C080E090E0F82FF170FF2E2C
:1019600080FF1CC08091C9012091CA0136E0821716
:1019700009F40BC190E0389FF001399FF00D11245C
:10198000E553FE4F6181561306C06081461303C0C4
:101990006281E61203C001968770E9CFFE2CEE202B
:1019A00009F415C18091000281608093000254C047
:1019B000561306C0491304C0E11002C0F80199C0D3
:1019C000C8010E941E09882361F1EE2051F1209187
:1019D0000002822F82958F7090E0029774F08091C0
:1019E000FB019091FC0198878F831986BB86AA869C
:1019F0002C87CE0107960E94AC0886E0F801ABEF79
:101A0000B1E001900D928A95E1F70E94C80B0E9407
:101A1000BA0B0AC0561711F1C8010E941E098111A4
:101A20002CC0C8010E94AC08FF24F394D0C0282F1A
:101A3000207F81F77A2DB98AA88A6E2D89890E9424
:101A400026098BEF91E00E94AC0886E0F601119226
:101A50008A95E9F70E94BA0BF12CB9C04913DCCF83
:101A6000E110DACFF8018583C8010E94AC0886E056
:101A7000F60111928A95E9F7AAC0EE2091F2209121
:101A80000002822F82958F7090E002970CF4B5CF00
:101A90008091FB019091FC019A8389831B82BD8216
:101AA000AC822E83CE010196A6CFE83CF10508F06A
:101AB00044C0FE2CEE2009F4B4CF561330C04913B5
:101AC0002EC02091000220FD21C0822F82958F70B0
:101AD000482F50E041155105C9F0F80125834F30DA
:101AE000510541F08F5F982F9295907F822F8F70D4
:101AF000892B8583C8010E94AC0886E0F801ABEF12
:101B0000B1E001900D928A95E1F73CC086E0F801C2
:101B1000ABEFB1E001900D928A95E1F758C0C80192
:101B20000E941E09811169CF80910002816080931B
:101B30000002C8010E94AC084AC07A2DB98AA88A5E
:101B40006E2D89890E94260986E0F60111928A95F8
:101B5000E9F718C0EE2009F464CFC8010E941E09FD
:101B6000F82E882309F45DCF86E0F801ABEFB1E0F1
:101B700001900D928A95E1F78BEF91E00E9431057B
:101B80000E94C80B0E94BA0B22C04D875E878D85CC
:101B90009E850E94EE0A292F22952F70223028F46C
:101BA0009F7039F0811105C00BC0243028F49F705C
:101BB00049F4805E883020F0C8010E94AC089F2C58
:101BC000F92C05C0F8019581907F99F7F9CF8F2DF9
:101BD00061960FB6F894DEBF0FBECDBFDF91CF91F7
:101BE0001F910F91FF90EF90DF90CF90BF90AF903B
:101BF0009F9008951F93CF93DF93CDB7DEB72C97B7
:101C00000FB6F894DEBF0FBECDBF4F8358876987EC
:101C10007A878B879C87CE0107960E94340C882395
:101C2000D1F09F8188852A853B85232B31F08F3F1A
:101C300031F481E09F3F19F403C081E001C080E0EE
:101C400080FD47C04F81588569857A858B859C8545
:101C50000E9435093EC086E0FE013796DE011196EE
:101C600001900D928A95E1F7FF81E8856A857B8571
:101C70006115710531F0EF3F31F481E0FF3F19F458
:101C800003C081E001C080E080FD23C02091CA0133
:101C900030E0C9010196877099274091C90150E051
:101CA00084179507F1F1F983EA837D836C8396E0CD
:101CB000929FD001939FB00D1124A553BE4FFE01FA
:101CC000319601900D929A95E1F78093CA010E9496
:101CD000990B16E08091C9019091CA01891771F1A1
:101CE000189FC001112485539E4F0E94340C8823F5
:101CF00029F1E091C9011E9FF0011124E553FE4F27
:101D00004081518162817381848195810E9435096E
:101D10008091C90190E00196877099278093C9014D
:101D2000D9CF0E94F6081092CA011092C901EBEFB8
:101D3000F1E086E0DF011D928A95E9F72C960FB657
:101D4000F894DEBF0FBECDBFDF91CF911F910895F4
:101D50008091010285958595859508958091010270
:101D60008770089590910102977081E009F480E0F6
:101D70000895CF9390917C0292FB222720F9281797
:101D8000E1F0C82F892FC0FB82F980937C028091FB
:101D90007B0290917C020E94D70F8091370280FFD6
:101DA0000CC01F92CF938FE193E09F938F930E947B
:101DB000DE030F900F900F900F90CF9108958091B8
:101DC0007C0282FB882780F991E089270C94B90E68
:101DD00081E00C94B90E80E00C94B90E809125023C
:101DE000089590912502892B80932502089580956E
:101DF000909125028923809325020895109225024F
:101E0000089590912402892B80932402089580954F
:101E10009091240289238093240208951092240231
:101E2000089590912302892B809323020895809531
:101E30009091230289238093230208951092230214
:101E4000089580910202089508950C94240F0C9433
:101E5000250F90917C0292FD08C090910202981784
:101E600021F0809302020C94270F089580910202C2
:101E7000882329F01092020280E00C94270F089525
:101E8000E0910001F0910101809125028083E091B1
:101E90000001F0910101908180912402892B8083BF
:101EA000E0910001F0910101908180912302892B42
:101EB000808380910202882381F0E0910001F091FB
:101EC00001019081892B8083809100019091010113
:101ED0000E94291B81110E94360F80910001909170
:101EE00001010C949A1A0C94240F90917C0292FD9B
:101EF00010C098E0899F90011124262B20930102A5
:101F00000E94B709809101028595859585950C946D
:101F1000730F0C94B7091092010280E00C94730FB8
:101F2000209101028095822380930102982F97705F
:101F300041F430E0482F082E000C550B24173507CC
:101F400021F490917C0292FF07C085958595859537
:101F50000E94D8090C948B0F08956FEF7FEF80E0FB
:101F600090E00C94FE2480E090E00E94DA2421E0CE
:101F7000893E9E4F09F020E0822F089582E090E094
:101F80000C94D22483E090E00C94D224CF9384E08C
:101F900090E00E94D224C82F82E290E00E94D224D6
:101FA0002C2F30E0A901582BCA01CF910895CF936F
:101FB000C92F682F84E090E00E94E0246C2F82E219
:101FC00090E0CF910C94E024AB01BC018FE090E055
:101FD0000C94F224AB01BC0183E190E00C94F22458
:101FE00060E070E0CB010C94EA0F60E070E0CB01A0
:101FF0000E94E40F0C94F00F69EE7EEF80E090E019
:102000000E94FE2460E082E090E00E94E02460E014
:1020100083E090E00E94E0241092C5011092C60176
:102020001092C7011092C80160E084E090E00E9425
:10203000E02460E082E290E00E94E02460E085E03D
:1020400090E00E94E02460E086E090E00E94E024BE
:102050006FEF87E090E00E94E02440E050E0BA019A
:1020600088E090E00E94F22460E08DE090E00E9421
:10207000E02440E050E0BA0188E190E00E94F224C0
:1020800060E087E190E00E94E02440E050E0BA0187
:102090008CE190E00E94F22460E070E080E290E049
:1020A0000E94FE2440E050E0BA0188E190E00E94E6
:1020B000F2240C94F50F0C94FC0F682F8EE090E046
:1020C0000C94E0240E949D1C6093330270933402B0
:1020D000809335029093360260932F027093300202
:1020E0008093310290933202089585B7806885BF4E
:1020F00085B7806885BF089581E008950C947C10B1
:1021000008950C9480100C9480100C9483100C94FF
:1021100080100C9487100C9480100E9475108FEC26
:102120009EE10E94021D0E948B100C9489100E9457
:1021300081100C9480100E94881C0E94B5140C948D
:102140008510CF93C82F8091370282FF1EC080FF79
:1021500004C08BE393E00E9445038091370280FF27
:102160000CC01F92CF9386E393E09F938F930E94BE
:10217000DE030F900F900F900F908091370280FF39
:1021800004C084E393E00E9445038C2FCF910C940C
:10219000DE049F92AF92BF92CF92DF92EF92FF92B6
:1021A0000F931F93CF93DF93CDB7DEB72A970FB668
:1021B000F894DEBF0FBECDBF0E94C61481110E94ED
:1021C000621087E2A82E82E0B82E00E010E0902E88
:1021D000802F0E94BC13D82EF501C1905F01C82644
:1021E000B1F40F5F1F4F0830110589F78FEF898316
:1021F0008A831B820E94911C8160782F9D838C832F
:1022000049815A816B818D810E94E7042FC08091A2
:10221000370281FD0E94C213E12CFF24F3948C2D20
:102220008F21F1F00E947E10882399F0EE829F8228
:10223000DF2081E009F480E088870E94911C8160A2
:10224000782F9A8789874E815F8168858A850E9469
:10225000E704F801E95DFD4F8081F826F08206C0B1
:10226000E394FF0CF8E0EF12DACFBBCF0E944717E0
:102270000E948E1A909126028917B9F00E948E1A38
:10228000809326022A960FB6F894DEBF0FBECDBF0C
:10229000DF91CF911F910F91FF90EF90DF90CF9042
:1022A000BF90AF909F900C94A1102A960FB6F8940F
:1022B000DEBF0FBECDBFDF91CF911F910F91FF9079
:1022C000EF90DF90CF90BF90AF909F90089580E007
:1022D00090E008950895E72FF0E098E0899FE00DE1
:1022E000F11D112483E0EE0FFF1F8A95E1F7E60F41
:1022F000F11DEE0FFF1FE450FF4F8591949108955B
:10230000880F991FFC01E25BFC4F85919491089521
:10231000CF93DF930E94A912EC01811520E592076B
:1023200008F03FC0811540E4940708F0D2C0883E11
:10233000910500F5803E910508F002C1883A9105AB
:1023400070F4853A910508F0A6C08130910509F432
:102350009FC008F4F2C0049708F0F2C0EEC08F3BB3
:10236000910508F4A1C0803C910508F4E6C0805CAA
:102370009109A5C0811550E2950760F4C11581E06F
:10238000D80708F0DDC0CD3ED10508F4D6C0CE0197
:102390009065D7C0811520E3920708F093C09F7025
:1023A0008EC0811545E5940708F046C0811554E5B7
:1023B000950708F0A6C0C11582E5D80718F5C11524
:1023C00021E5D20708F088C0CE01F4E09695879504
:1023D000FA95E1F7282F23703C2F337081E090E0CD
:1023E00002C0880F991F3A95E2F79C68922B2C2F18
:1023F0002F702695269540E2249F90011124822B70
:10240000932B9FC09E01237033279C2F9695969502
:10241000C115D34508F065C041E050E002C0440F4B
:10242000551F2A95E2F780E2989F90011124CA0176
:10243000822B932B9C6885C0811559E5950798F4EC
:10244000C11588E5D80708F061C0C11526E5D20797
:1024500008F073C08C2F0E943D138F7190E0982F6D
:10246000882790626EC081154AE5940708F453C02E
:1024700090568115904208F060C08D2F8F710E9498
:102480003D139E01332730628F71A901582B53C031
:1024900081E090E056C0855AC82FD0E0CC58DE4F7E
:1024A000888190E090644DC0885AC82FD0E0CC0F4E
:1024B000DD1FCA5BDE4F88819981946442C00E940F
:1024C00080113FC09927D3FF02C0986C3AC0906C2E
:1024D00038C09F70906A35C09C2F8827816F906AA2
:1024E00030C041E050E002C0440F551F2A95E2F78A
:1024F00080E2989F90011124CA01822B932B9A6845
:1025000020C0982F8827846F906A1BC09C2F882733
:10251000806F906A16C08F700E943D139E0194E0F8
:10252000369527959A95E1F72F7030E0322F2227C4
:102530003069A901482BCA0104C080E090E001C0C5
:10254000CE01DF91CF9108950E946B110E948811F6
:1025500008958238910569F1B0F48133910509F449
:102560006DC048F48932910509F463C08A3291053F
:1025700009F469C008958533910509F455C089337C
:102580009105B9F00895833E910569F138F4803ED4
:102590009105B1F0823E910509F10895863E9105BD
:1025A000A9F1873E9105B9F1843E910509F064C017
:1025B00023C020917B0220FD4FC021FD4DC0089516
:1025C00080917B0280FD44C080917C0280FF44C0EA
:1025D00080917B0284FD42C083EE4DC080917B02DE
:1025E00082FF38C0F5CF80917B0282FD33C080919D
:1025F0007C0280FD31C0ECCF80917C0281FF32C033
:1026000080917B0284FD2AC087EE35C080917B02D9
:1026100083FF26C0F5CF80917B0283FD21C080918E
:102620007C0281FD1FC0ECCF80917B0285FD1CC028
:102630001DC080917B0285FD19C016C080917B0270
:1026400086FD16C017C080917B0286FD13C010C0A6
:1026500089E311C082EE0FC080EE0DC080E00BC098
:1026600086EE09C084EE07C089E205C085E303C099
:102670008AE201C081E390E0089590917B0292FF8D
:102680000DC0282F2871283019F4877F846006C078
:10269000282F2471243011F48B7F886093FF0DC0A4
:1026A000282F2871283119F4877E846106C0282FCD
:1026B0002471243111F48B7E886120917C0220FFEB
:1026C0000DC0382F3871383019F4877F816006C00B
:1026D000382F3171313011F48E7F886021FF0DC0A9
:1026E000282F2871283119F4877E816106C0282F90
:1026F0002171213111F48E7E886194FD877E0895C9
:102700000C94AD0F0E94C6148FE39CE90197F1F77A
:1027100000C000000E94C61480E00E94BC1380FF2D
:1027200004C00E9480130C94DE1C08950C94821344
:102730000E94B30F811102C00E945B100E94BE0F65
:10274000809337020E94C60F90937C0280937B0295
:102750000E9496130E94C20F682F70E080E090E004
:102760000E9457096091C1017091C2018091C3011B
:102770009091C4010C948F09E82FF0E0EB57FD4FC6
:1027800080810895CF92DF92EF92FF920F931F9373
:10279000CF93DF938DE593E00E94450385E8E82E13
:1027A00082E0F82EC0E0D0E098E5C92E93E0D92E63
:1027B00000E513E0DF93CF93DF92CF920E94DE0318
:1027C00085E593E00E944503F70181917F010E9416
:1027D000C5041F928F931F930F930E94DE038EE414
:1027E00093E00E94450321968DB79EB708960FB6D9
:1027F000F8949EBF0FBE8DBFC830D105D9F6DF91CA
:10280000CF911F910F91FF90EF90DF90CF9008959F
:1028100080EA8A95F1F7089500C008950C94081491
:102820000C94E8030C94E703F894E82FE295EF701A
:10283000F0E031A1282F2F7081E090E001C0880FD7
:102840002A95EAF7982F9095932391A392A1892B2B
:1028500082A3789408950F931F93CF93DF93CFE7CC
:10286000D1E089918F3F11F00E94141481E0C738A4
:10287000D807B9F7C7E7D1E00FE711E089918F3F9B
:1028800011F00E9414140C171D07C1F7DF91CF91AE
:102890001F910F910895CF92DF92EF92FF920F93C5
:1028A0001F93CF93DF938C01C62FD0E0CE018158C8
:1028B0009E4F7C01FC0190819F3F09F44DC0D62EB4
:1028C000F894E92FE295EF70F0E081A19F7021E08C
:1028D00030E001C0220F9A95EAF7822B81A382A1F2
:1028E0002095282322A378940E940C14E7E7F1E0B6
:1028F00020E030E0C12C51E041914F3FB1F0A42FD6
:10290000A295AF70B0E090968C9190E04F7002C0AD
:10291000959587954A95E2F780FD07C0852F022E91
:1029200001C0880F0A94EAF701C080E0C82A2F5F2F
:102930003F4F2830310501F7F70180818F3F11F0BB
:102940000E94141461E0C11001C060E08D2D0E944E
:102950000E14C00FD11FC882DF91CF911F910F912C
:10296000FF90EF90DF90CF9008950E942B14EDE739
:10297000F2E0A5E8B2E011921D9282E0E538F80796
:10298000D1F788E00E9411150C943C04FF920F933C
:102990001F93CF93DF93CDB7DEB728970FB6F89488
:1029A000DEBF0FBECDBF8E010F5F1F4F88E0F80165
:1029B00011928A95E9F7F12C6F2DC8010E944B14F2
:1029C000F394F8E0FF12F8CF48E050E0B8018DE74B
:1029D00092E00E94C524FF24F394009709F4F12C9F
:1029E000892B41F088E0F801ADE7B2E001900D924B
:1029F0008A95E1F72F2D48E065E872E08DE792E0D7
:102A00000E9412150E9442048F2D28960FB6F8944A
:102A1000DEBF0FBECDBFDF91CF911F910F91FF9011
:102A200008950895FF920F931F93CF93DF938C0126
:102A3000F62ED72FC42F222349F081E080933A024B
:102A40000E94911C909339028093380280913A023F
:102A50008823C1F080913802909139020E94A91C0C
:102A6000059780F0EF2DFD2FD8014C2F50E0CD01C0
:102A7000801B910B841795071CF48D918193F7CFE0
:102A800010923A02DF91CF911F910F91FF9008951C
:102A90000E94091C0E94321F0E944B1F0E94611F4E
:102AA0000E949710FBCF8091410280FF0BC0609184
:102AB000070185E0689FB0011124759567957595AC
:102AC00067952BC081FF09C06091070185E0689F71
:102AD000B00111247595679520C082FF07C06091F1
:102AE000070185E0689FB001112417C09091400252
:102AF0009923D1F060910601961788F7209107017C
:102B000085E0289F90011124929FA001939F500D72
:102B1000112470E0CA010E9497246038710540F4C6
:102B20006115710519F406C065E070E0862F0895FF
:102B30008FE7089581E008958091410280FF08C0E9
:102B40006091030170E0759567957595679521C053
:102B500081FF06C06091030170E07595679519C00B
:102B600082FF04C06091030170E010C090913F02A9
:102B7000992399F0609102019617A0F780910301C3
:102B8000899FC001112470E00E949724603871056C
:102B900040F46115710519F406C061E070E0862FFC
:102BA00008958FE7089581E008958D3E21F40E94F5
:102BB0005315819504C08E3E29F40E9453158093CD
:102BC000450208958F3E21F40E945315819504C05B
:102BD000803F29F40E945315809344020895893F51
:102BE00019F40E949C1505C08A3F31F40E949C157F
:102BF00081958093460208958B3F21F40E949C1595
:102C0000819504C08C3F29F40E949C158093470253
:102C100008959FE0980F983078F421E030E0A90102
:102C200002C0440F551F9A95E2F7CA0190914302E2
:102C3000892B8093430208958D3F21F480914102B6
:102C400081600BC08E3F21F480914102826005C0FB
:102C50008F3F29F48091410284608093410208955E
:102C60008D3E39F49091450297FF35C01092450290
:102C700059C08E3E29F4909145021916BCF32BC021
:102C8000909144028F3E29F497FF25C01092440290
:102C900049C0803F19F41916CCF31DC0909146022B
:102CA000893F29F41916BCF4109246023BC08A3FB2
:102CB00019F497FF10C0F8CF8B3F39F49091470279
:102CC00097FF09C0109247022DC08C3F21F49091CC
:102CD00047021916BCF39FE0980F983080F421E06A
:102CE00030E0A90102C0440F551F9A95E2F7CA01CE
:102CF00080959091430289238093430213C08D3FB6
:102D000021F4809141028E7F0BC08E3F21F480918F
:102D100041028D7F05C08F3F29F4809141028B7F56
:102D20008093410280914402811106C08091450246
:102D3000811102C01092400280914602811106C0AA
:102D400080914702811102C010923F020895809144
:102D5000370283FF7EC083E993E00E9445038091A0
:102D600043021F928F938EE893E09F938F930E946C
:102D7000DE038CE893E00E94450380914402282FF3
:102D8000082E000C330B3F938F9389E893E09F93B9
:102D90008F930E94DE0387E893E00E9445038091B1
:102DA0004502282F082E000C330B3F938F9384E8A5
:102DB00093E09F938F930E94DE0382E893E00E944A
:102DC000450380914602282F082E000C330B3F93B9
:102DD0008F938FE793E09F938F930E94DE038DE79D
:102DE00093E00E94450380914702282F082E000C93
:102DF000330B3F938F938AE793E09F938F930E94C7
:102E0000DE0387E793E00E944503809140021F9212
:102E10008F9384E793E09F938F930E94DE0382E772
:102E200093E00E944503809141021F928F938FE6A9
:102E300093E09F938F930E94DE038CE693E00E94C1
:102E400045038DB79EB74C960FB6F8949EBF0FBE44
:102E50008DBF0E94911C20914402211104C0209139
:102E60004502222321F090933E0280933D0220915F
:102E70004602211104C020914702222321F09093A1
:102E80003C0280933B0282E492E00C94EF1AEF92B2
:102E9000FF920F931F93CF93DF9300D000D000D009
:102EA000CDB7DEB786E0E2E4F2E0DE0111960190F4
:102EB0000D928A95E1F7E0904402F090450200916E
:102EC000460210914702109244021092450210925D
:102ED000460210924702E11003C0FF2009F45DC0D2
:102EE00080913D0290913E020E94A91CAC019091FC
:102EF0004002992339F02091080130E0241735076A
:102F000058F04BC0209109018AE0289F90011124BC
:102F10002417350718F041C09F3F19F09F5F909329
:102F20004002EE2061F00E9453151E1414F09FEF32
:102F300001C091E0989F902D112490934402FF20AE
:102F400061F00E9453151F1414F09FEF01C091E02F
:102F5000989F902D11249093450230914402332381
:102F6000E1F0209145022223C1F045EB3403C0017A
:102F70001124992319F09093440203C081E08093B7
:102F8000440235EB2303C0011124992319F09093D7
:102F9000450203C081E080934502011103C0112363
:102FA00009F45DC080913B0290913C020E94A91CF3
:102FB000AC0190913F02992339F02091040130E057
:102FC0002417350758F04BC0209105018AE0289F4F
:102FD000900111242417350718F041C09F3F19F0C4
:102FE0009F5F90933F02002361F00E949C15101692
:102FF00014F09FEF01C091E0989F902D11249093C1
:103000004602112361F00E949C15111614F09FEFE7
:1030100001C091E0989F902D112490934702309128
:1030200046023323E1F0209147022223C1F045EB11
:103030003403C0011124992319F09093460203C070
:1030400081E08093460235EB2303C00111249923CC
:1030500019F09093470203C081E08093470280916A
:10306000440281110BC080914502811107C08091FB
:103070004602811103C08091470281110E94A71668
:10308000EB82FC820D831E8386E0FE013196A2E472
:10309000B2E001900D928A95E1F726960FB6F8946A
:1030A000DEBF0FBECDBFDF91CF911F910F91FF907B
:1030B000EF900895E2E4F2E086E0DF011D928A9548
:1030C000E9F71092400210923F02109241020895D7
:1030D0000F931F93CF93DF93C42FD22FFC018281D4
:1030E0008823C9F040934A020E94911C90934902A0
:1030F0008093480280E28C0F883008F057C0C77078
:1031000081E001C0880FCA95EAF7DF91CF911F9146
:103110000F910C94690680914A02481330C0809147
:103120004802909149020E94A91C883C910538F5FB
:1031300010E21D0FCD17B9F080E28C0F883040F4FB
:10314000C77081E001C0880FCA95EAF70E94700637
:10315000183028F581E09D2F977001C0880F9A954F
:10316000EAF70E946906802F0E9460061830F0F48A
:10317000D77081E001C0880FDA95EAF70AC080E2D3
:103180008C0F883098F4C77081E001C0880FCA9511
:10319000EAF7DF91CF911F910F910C947006802F69
:1031A000DF91CF911F910F910C946006DF91CF9129
:1031B0001F910F9108950F939C01CB01243F4CE583
:1031C000340731F188F4293DFCE53F07D9F02A3D69
:1031D0004CE5340779F1283D3C45A9F506E221EE9E
:1031E00041EE68ED7CE52BC0263FFCE53F07E1F0B2
:1031F000A8F0273F3C4539F507E225EE46EE67EF9C
:103200007CE51DC007E225EE45EE69ED7CE517C0C3
:1032100006E221EE40EE64EF7CE511C007E225EE08
:1032200044EE65EF7CE50BC006E221EE42EE66EF70
:103230007CE505C008E221E045EE6AED7CE50E94F0
:10324000681880E008C0FC018281882319F0109280
:103250004A0201C081E00F910895CF93DF93EC0102
:10326000FB018281882309F41FC1C230FCE5DF071E
:1032700008F41BC1C6319CE5D90738F09E012B5FCD
:103280003C452930310508F010C10E94C60F9093CB
:103290007C0280937B02C031ECE5DE0709F4C3C0F9
:1032A00008F041C0C8308CE5D80709F49AC0F0F4A2
:1032B000C430ECE5DE0709F487C068F4C2308CE561
:1032C000D80709F477C0C330DC4509F0E3C080912A
:1032D0007B02826076C0C630ECE5DE0709F46EC082
:1032E00008F07BC080917B0288606BC0CC308CE59D
:1032F000D80709F485C068F4CA30ECE5DE0709F4A4
:1033000074C008F079C00E94F60880917B02806842
:1033100058C0CE308CE5D80709F476C008F07FC0DD
:1033200080917B028BC0CC3FECE5DE0709F44FC0F7
:1033300018F5C3318CE5D80709F47DC078F4C131A4
:10334000ECE5DE0709F473C0C231DC4509F0A2C028
:103350000E94F60880917B028F7733C0C5318CE5DF
:10336000D80709F472C008F486C0CB3FDC4509F0E9
:1033700091C080917C023EC0C115FDE5DF0709F4D4
:103380005FC058F4CE3F9CE5D90709F444C008F467
:103390003FC080917C0282602DC0C230FDE5DF0716
:1033A00009F475C008F45DC0C330DD4509F072C092
:1033B00080E06EC080917B02816003C080917B02BF
:1033C000806180937B0266C080917B0211C08091F6
:1033D0007C02826080937C025DC080917B0280626F
:1033E000F0CF80917B028064ECCF80917B0288607B
:1033F0008460E7CF8160EECF80917B028E7FE1CF4A
:1034000080917B028D7FDDCF80917B02877FD9CF3A
:1034100080917C0218C080917C028D7FDBCF8091EF
:103420007B028F7ECECF80917B028F7DCACF809131
:103430007B028F7BC6CF80917B02877F8B7FC1CF42
:1034400080917C028D7F8E7FC5CF80917B0282FB35
:10345000222720F991E0922790FB82F990FB83F9D3
:10346000B0CF80917C02982F909591708E7F892BA0
:1034700090FB81F9AFCF0E94F60880917B0287FB19
:10348000222720F991E0922790FB87F99ACF81E0DB
:103490000E945D1080917B0290917C020E94D70F68
:1034A0000E94F60880E001C081E0DF91CF9108958D
:1034B000CF93DF9386319C4541F5EB010E94EE0EE0
:1034C000982F8A812091000130910101882379F0A1
:1034D0009A7A81E009F480E080934B02911102C056
:1034E00069E201C065E3C9010E94E11B0AC0809145
:1034F0004B02811102C069E201C065E3C9010E946B
:10350000EC1B0E94400F80E001C081E0DF91CF9171
:10351000089590935102809350020895E0915002D3
:10352000F0915102309721F00190F081E02D099443
:1035300080E00895EF92FF921F93CF93DF93FC01F9
:10354000A0915002B0915102109709F442C08091AD
:103550001401882341F080917B0287FF04C08081A1
:10356000818385E08083EF011296ED91FC911397A2
:10357000CE0109958091370282FF2BC080FF04C0E5
:103580008EEB93E00E94450318E088EBE82E83E081
:10359000F82E8091370280FF0BC088811F928F9395
:1035A000FF92EF920E94DE030F900F900F900F900A
:1035B000115021961111EDCF8091370280FF09C083
:1035C00086EB93E0DF91CF911F91FF90EF900C94E9
:1035D0004503DF91CF911F91FF90EF900895E09107
:1035E0005002F0915102309739F022E0DC012C9327
:1035F0000480F581E02D0994089520914E023091C8
:103600004F022817390771F090934F0280934E02B2
:10361000E0915002F0915102309721F00680F7813D
:10362000E02D0994089520914C0230914D02281705
:10363000390771F090934D0280934C02E091500253
:10364000F0915102309721F00084F185E02D09942A
:103650000895FC01329680911401882331F0809105
:103660007B0287FF02C09EE101C096E080E091509E
:1036700028F021912223D9F38F5FF9CF0895662393
:1036800051F1209114012223E9F020917B0227FFC0
:1036900019C0462F4695469546954E31E0F4677021
:1036A00021E030E002C0220F331F6A95E2F7FC01EF
:1036B000E40FF11D828190E02823392381E0232B40
:1036C00069F409C0FC01329608962191621729F02D
:1036D000E817F907D1F780E0089581E008959C018B
:1036E000FC0132969FEF80E04191461789F09F3FA1
:1036F00019F4411101C0982F8F5F8630A9F79F3FC1
:1037000039F0F901E90FF11D97FDFA9562830895EB
:1037100008959C012A5F3F4FFC014281461301C07E
:103720001282019682179307B9F70895262F2695DE
:10373000269526952E3170F4FC01E20FF11D67707D
:1037400021E030E001C0220F6A95EAF78281282B40
:10375000228308958091370280FF0CC01F926F93DF
:103760008EEE93E09F938F930E94DE030F900F9055
:103770000F900F900895262F2695269526952E3189
:1037800078F4FC01E20FF11D677021E030E001C028
:10379000220F6A95EAF720958281282322830895D3
:1037A0008091370280FF0CC01F926F9380ED93E0F1
:1037B0009F938F930E94DE030F900F900F900F90B6
:1037C000089520911401222329F020917B0227FDE6
:1037D0000C94961B0C946F1B20911401222329F04A
:1037E00020917B0227FD0C94BB1B0C94891B20911C
:1037F0001401FC013296222331F080917B0287FF75
:1038000002C08EE101C086E0DF011D928A95E9F7D2
:103810000895089508950C940A1C0C940A1CCF93E3
:103820000E940D1C0E94C6140E940B1CC0E08C2F2D
:103830000E94BC13811104C0CF5FC830C1F701C022
:1038400081E0CF9108950C940A1C0C94231C809164
:103850009502843049F10E94251C80E00E94DE041C
:103860001092520220E488E190E00FB6F894A895F7
:10387000809360000FBE2093600083B7817F8460D7
:1038800083BF83B7816083BF7894889583B78E7F29
:1038900083BF0FB6F894A8958091600088618093EB
:1038A0006000109260000FBE08950C940A1C0E94E4
:1038B000F6080E948E1A0E94DE040C94551C1F927A
:1038C0000F920FB60F9211248F939F93AF93BF93D4
:1038D00080915202811113C080918D0290918E02CD
:1038E000A0918F02B09190024196A11DB11D8093CD
:1038F0008D0290938E02A0938F02B0939002BF919D
:10390000AF919F918F910F900FBE0F901F901895C0
:1039100082E084BD93E095BD9AEF97BD80936E00E1
:1039200008952FB7F89480918D0290918E02A09106
:103930008F02B09190022FBF08952FB7F894609135
:103940008D0270918E0280918F02909190022FBF14
:1039500008959C014FB7F89480918D0290918E024A
:10396000A0918F02B09190024FBF821B930B0895DC
:1039700078941F920F920FB60F9211248F939F93FA
:10398000AF93BF9380918D0290918E02A0918F0290
:10399000B09190020196A11DB11D80938D0290936C
:1039A0008E02A0938F02B0939002BF91AF919F912E
:1039B0008F910F900FBE0F901F90189581E080930C
:1039C000E00080E28093D8001092C9008FE19EE46D
:1039D0000197F1F700C0000087E090EBDC018093D5
:1039E0009E0290939F02A093A002B093A1029CE03C
:1039F00088E10FB6F894A895809360000FBE90936D
:103A00006000FFCF90939701809396010895809175
:103A10007902089590919502943031F58093550282
:103A2000709357026093560282E08093E9008FEF13
:103A30009091E800815095FD06C095ED9A95F1F7BB
:103A400000008111F5CF8091E80085FF0DC040E0B6
:103A500050E063E070E085E592E00E94EE1F809107
:103A6000E8008E778093E8000895BC0184E00C9410
:103A70000A1DBC0183E00C940A1D22E02093E9009A
:103A80002FEF3091E800215035FD06C035ED3A9515
:103A9000F1F700002111F5CF2091E80025FF0BC0C0
:103AA00040E050E066E070E00E94EE1F8091E80088
:103AB0008E778093E8000895CF93DF9320911401CF
:103AC000222339F020917B0227FF03C060E222E02D
:103AD00002C068E021E02093E9002FEF3091E80078
:103AE000215035FD06C035ED3A95F1F70000211162
:103AF000F5CF2091E80025FF1DC0EC018091140155
:103B0000811105C040E050E068E070E003C070E063
:103B100040E050E0CE010E94EE1F8091E8008E77D9
:103B20008093E80080E2FE01A9E5B2E001900D92E9
:103B30008A95E1F7DF91CF91089581E394E00E94A7
:103B4000450380919402811109C00E947F210E9447
:103B5000DC218091E20084608093E20008958DE290
:103B600094E00E94450310929402089589E294E043
:103B70000C94450385E294E00C94450381E294E0C3
:103B80000C944503209154022F5F822F62E30E9420
:103B90008B24992319F02093540208951092540213
:103BA00080915802882371F180919502843041F50B
:103BB0008091E9008F702091EC00922F917020FD90
:103BC00090E8892B93E09093E9009091EB0090FFAF
:103BD00014C09091EE0097FF10C09091E80095FFFF
:103BE00003C01092F100F9CF9091E80090FF05C05A
:103BF0009091E8009E779093E8008F708093E900A1
:103C000010925802089542E061EC81E00E94F82091
:103C100042E261EC82E00E94F82042E261EC83E043
:103C20000C94F82080919702833009F460C030F43E
:103C3000813071F0823009F499C008958A3009F416
:103C400085C08B3009F46BC0893009F0A7C020C053
:103C500080919602813A09F0A1C08091E800877FA7
:103C60008093E80080919A0290919B02892B21F425
:103C700060E289E592E003C060E080E090E070E0FF
:103C80000E9439208091E8008B778093E8000895A6
:103C900080919602813209F081C080919A029091C0
:103CA0009B02029708F07AC08091E800877F80939A
:103CB000E8008091E80082FD05C0809195028111A5
:103CC000F8CF6CC02091F3008091F20090E0922B2D
:103CD000029729F48091F1008B7F813021F480914B
:103CE000F100809379028091E8008B7753C0809136
:103CF0009602813A09F052C080919A0290919B02FB
:103D0000892B09F04BC08091E800877F8093E80001
:103D10008091E80080FFFCCF8091140136C0809133
:103D200096028132D9F580919A0290919B02892B5B
:103D3000A9F58091E800877F8093E8000E942D21FB
:103D400080919802809314010C94F6088091960259
:103D5000813221F58091E800877F8093E8000E94FE
:103D60002D218091990280937A0208958091960284
:103D7000813AA1F48091E800877F8093E8008091E8
:103D8000E80080FFFCCF80917A028093F10080915F
:103D9000E8008E778093E8000C942D2108959FB75A
:103DA000F894109258029FBF90919502943009F0B8
:103DB00057C09091E9009F703091EC00232F217043
:103DC00030FD20E8922B23E02093E9002091EB00C6
:103DD00020FF43C02091EE0027FF3FC020915302F7
:103DE000222321F02091E80025FF37C010925302D2
:103DF00026E03091E80035FD15C030919502343051
:103E000061F53091EB0035FD28C0215021F481E0AF
:103E10008093530222C0EFE9FFE03197F1F700C031
:103E20000000E7CF8093F1008091E80085FD0AC093
:103E30008091E80080FFFCCF8091E8008E7780932E
:103E4000E80006C08FB7F89421E0209358028FBF96
:103E50009F709093E90080E008959F709093E9002F
:103E60008FEF089584B7877F84BF0FB6F894A89525
:103E700080916000886180936000109260000FBEA6
:103E800090E080E80FB6F894809361009093610011
:103E90000FBE0C948D100E947F210E94DC21E2EE67
:103EA000F0E080818460808378940E9470240E9476
:103EB0009B108AE091E00E94891A80E194E00C94C2
:103EC0004503809195028530C9F48CE094E00E940E
:103ED000450380919502853079F40E94271C8091DA
:103EE00093028823B1F30E940F1C882391F30E9450
:103EF000D81F0E94F608EDCF0E94571C0C94C910E1
:103F00000C94821F292F332723303105C9F060F428
:103F10002130310581F02230310509F041C08BE5B7
:103F200090E02BE534E040C021323105E1F022324F
:103F3000310531F135C082E190E026EB34E034C048
:103F400099278130910549F028F0029749F5E5E37A
:103F5000F4E005C0E7E5F4E002C0E5E4F4E08491B4
:103F600090E09F0121C063307105D0F4660F771F88
:103F7000FB01E057FE4F2081318189E090E014C0C1
:103F80006330710568F4FB01EE0FFF1FE657FE4F2B
:103F900020813181FB01E957FE4F808190E004C010
:103FA00080E090E020E030E0FA0131832083089542
:103FB00080E189BD82E189BD09B400FEFDCF809119
:103FC000D8008F7D8093D8008091E000826080933C
:103FD000E0008091E00081FDFCCF0895CF92DF9258
:103FE000EF92FF920F931F93CF93DF93EC018B011E
:103FF0007A010E944C21811133C0E114F10439F09F
:10400000F70180819181081B190BC80FD91FC12CA2
:10401000D12C0115110519F18091E80085FD16C01C
:104020008091E8008E778093E800E114F10449F074
:10403000F70180819181C80ED91ED182C08285E0AE
:104040000FC00E944C21882321F30AC089918093DC
:10405000F10001501109FFEFCF1ADF0ADACF80E03B
:10406000DF91CF911F910F91FF90EF90DF90CF9054
:10407000089520919C0230919D022617370748F041
:104080006115710539F42091E8002E772093E8003E
:1040900001C0B901FC0120E06115710579F1809141
:1040A00095028823F1F18530F1F18091E80083FDDC
:1040B0003CC08091E80082FD2EC08091E80080FF26
:1040C000EBCF2091F3008091F20090E0922B6115EC
:1040D000710551F08830910538F421912093F10059
:1040E000615071090196F3CF21E0089709F020E0B3
:1040F0008091E8008E778093E800CECF2111CFCF5A
:104100000AC080919502882361F0853061F080912A
:10411000E80083FD0AC08091E80082FFF2CF80E0D2
:10412000089582E0089583E0089581E00895209144
:104130009C0230919D022617370748F061157105E2
:1041400039F42091E8002E772093E80001C0B901EE
:10415000FC0120E06115710591F1809195028823A1
:1041600009F440C0853009F43FC08091E80083FD28
:104170003DC08091E80082FD2FC08091E80080FF63
:10418000E9CF2091F3008091F20090E0922B61152D
:10419000710559F08830910540F424912093F10085
:1041A0003196615071090196F2CF21E0089709F02C
:1041B00020E08091E8008E778093E800CBCF21113A
:1041C000CCCF0AC080919502882361F0853061F0E0
:1041D0008091E80083FD0AC08091E80082FFF2CF61
:1041E00080E0089582E0089583E0089581E00895D5
:1041F000982F973068F59093E900981739F07091EF
:10420000EC002091ED005091F00003C0242F762F98
:1042100050E021FD02C09F5FECCF3091EB003E7F6C
:104220003093EB003091ED003D7F3093ED00309105
:10423000EB0031603093EB007093EC002093ED00C5
:104240005093F0002091EE0027FDE5CF80E0089527
:104250008F708093E90081E008958091960287FF36
:1042600011C08091E80082FD05C080919502811106
:10427000F8CF11C08091E8008B770BC08091950238
:10428000882349F08091E80080FFF8CF8091E80012
:104290008E778093E80008952091E4003091E50046
:1042A00095E64091EC00842F817040FF23C08091FF
:1042B000E80080FD1DC080919502882399F085302B
:1042C00099F08091EB0085FD11C04091E400509180
:1042D000E5002417350729F3915011F09A01E1CF39
:1042E00084E0089582E0089583E0089581E00895D0
:1042F00080E008954091E80042FFDDCF08950E94DC
:10430000ED210E94F521E0EEF0E080818160808364
:10431000E8EDF0E080818F77808319BCA7EDB0E0F5
:104320008C918E7F8C9380818F7E808310929402FB
:1043300008950F931F93CF93DF930E94ED210E9466
:10434000F521C8EDD0E088818F77888388818068E7
:10435000888388818F7D888319BC10929502109282
:104360009102109293021092920200EE10E0F80176
:1043700080818B7F808388818160888342E060E0D8
:1043800080E00E94F820E1EEF0E080818E7F808363
:10439000E2EEF0E0808181608083808188608083AC
:1043A000F80180818E7F8083888180618883DF919E
:1043B000CF911F910F910895E8EDF0E080818F7EFD
:1043C0008083E7EDF0E080818160808384E082BFBC
:1043D00081E0809394020C949921E8EDF0E08081D3
:1043E0008E7F80831092E20008951092DA0010927E
:1043F000E10008951F920F920FB60F9211242F9390
:104400003F934F935F936F937F938F939F93AF935C
:10441000BF93EF93FF938091E10082FF0BC08091E7
:10442000E20082FF07C08091E1008B7F8093E10072
:104430000E94C21D8091DA0080FF1FC08091D800C9
:1044400080FF1BC08091DA008E7F8093DA0080911C
:10445000D90080FF0DC080E189BD82E189BD09B42A
:1044600000FEFDCF81E0809395020E949D1D05C056
:1044700019BC109295020E94AF1D8091E10080FF4F
:1044800019C08091E20080FF15C08091E2008E7F0C
:104490008093E2008091E20080618093E20080914D
:1044A000D80080628093D80019BC85E08093950283
:1044B0000E94BA1D8091E10084FF30C08091E2002B
:1044C00084FF2CC080E189BD82E189BD09B400FE72
:1044D000FDCF8091D8008F7D8093D8008091E1003E
:1044E0008F7E8093E1008091E2008F7E8093E200D6
:1044F0008091E20081608093E200809191028823A4
:1045000011F084E007C08091E30087FD02C081E0E4
:1045100001C083E0809395020E94BE1D8091E1005E
:1045200083FF29C08091E20083FF25C08091E100D4
:10453000877F8093E10082E0809395021092910240
:104540008091E1008E7F8093E1008091E2008E7F78
:104550008093E2008091E20080618093E20042E07B
:1045600060E080E00E94F8208091F00088608093F5
:10457000F0000E94B61DFF91EF91BF91AF919F9106
:104580008F917F916F915F914F913F912F910F90FC
:104590000FBE0F901F9018951F920F920FB60F929B
:1045A00011242F933F934F935F936F937F938F9338
:1045B0009F93AF93BF93CF93DF93EF93FF93C091FC
:1045C000E900CF708091EC00D82FD17080FDD0E849
:1045D0001092E9008091F000877F8093F00078943A
:1045E0000E9410231092E9008091F000886080936F
:1045F000F000CD2BCF70C093E900FF91EF91DF91D8
:10460000CF91BF91AF919F918F917F916F915F916A
:104610004F913F912F910F900FBE0F901F901895C3
:104620001F93CF93DF93CDB7DEB7AA970FB6F89459
:10463000DEBF0FBECDBFE6E9F2E08091F1008193CD
:1046400022E0EE39F207C9F70E94121E8091E800BD
:1046500083FF2EC18091960290919702492F50E0DE
:104660004A30510508F024C1FA01EC58FF4F0C9470
:10467000AB24803821F0823809F01AC108C080913B
:10468000920290919302992389F082600FC08091E9
:104690009A028F70873008F00BC18093E9008091F7
:1046A000EB0085FB882780F91092E9009091E800E3
:1046B000977F9093E8008093F1001092F100D1C0B1
:1046C000282F2D7F09F0F4C0882319F0823061F083
:1046D000EFC080919802813009F0EAC0933009F070
:1046E00080E0809393022EC08091980281112AC0AD
:1046F00080919A028F702FEF280F263008F0D8C0D3
:104700008093E9002091EB0020FF1CC0933021F43E
:104710008091EB00806214C09091EB0090619093C7
:10472000EB0021E030E0A90102C0440F551F8A953B
:10473000E2F74093EA001092EA008091EB00886073
:104740008093EB001092E9008091E800877F8093CE
:10475000E8000E942D21ACC08111AAC010919802DE
:104760001F778091E3008078812B8093E300809114
:10477000E800877F8093E8000E942D218091E80067
:1047800080FFFCCF8091E30080688093E3001111EB
:1047900002C082E001C083E08093950289C0805806
:1047A000823008F085C080919802909199028C3DEA
:1047B00053E0950779F583E08A838AE289834FB7CE
:1047C000F894DE01139620E03EE051E2E32FF0E0A2
:1047D00050935700E49120FF03C0E295EF703F5FD4
:1047E000EF708E2F90E0EA3010F0C79601C0C096AF
:1047F0008D939D932F5F243149F74FBF8091E8003F
:10480000877F8093E8006AE270E0CE0101960E9403
:10481000392016C060919A0270919B02AE014F5FE1
:104820005F4F0E94801FBC01892B09F441C0909109
:10483000E800977F9093E80089819A810E949720F1
:104840008091E8008B778093E80032C0803881F552
:104850008091E800877F8093E800809191028093A7
:10486000F1008091E8008E7772CF811121C0809194
:1048700098029091990299270297D4F48091E800C8
:10488000877F8093E80080919802809391020E9434
:104890002D2180919102811106C08091E30087FD56
:1048A00002C081E001C084E0809395020E94031E53
:1048B0008091E80083FF0AC08091E800877F8093A1
:1048C000E8008091EB0080628093EB00AA960FB61F
:1048D000F894DEBF0FBECDBFDF91CF911F91089539
:1048E000CF93809195028823A1F0C091E900CF7009
:1048F0009091EC00892F817090FD80E8C82B109278
:10490000E9008091E80083FD0E941023CF70C093DE
:10491000E900CF910895991B79E004C0991F96177B
:1049200008F0961B881F7A95C9F78095089597FB24
:10493000072E16F4009407D077FD09D00E94B12409
:1049400007FC05D03EF4909581959F4F0895709592
:1049500061957F4F0895EE0FFF1F0590F491E02DB4
:104960000994AA1BBB1B51E107C0AA1FBB1FA617B6
:10497000B70710F0A61BB70B881F991F5A95A9F708
:1049800080959095BC01CD010895FB01DC0104C028
:104990008D910190801921F441505040C8F7881B37
:1049A000990B0895F999FECF92BD81BDF89A992788
:1049B00080B50895A8E1B0E042E050E00C940625EF
:1049C000262FF999FECF92BD81BDF89A019700B4C8
:1049D000021639F01FBA20BD0FB6F894FA9AF99A68
:1049E0000FBE08950396272F0E94E1240E94E02421
:1049F000252F0E94E124242F0C94E1240196272FD7
:104A00000E94E1240C94E024DC01CB01FC01F99923
:104A1000FECF06C0F2BDE1BDF89A319600B40D920A
:0C4A200041505040B8F70895F894FFCFC3
:104A2C0003022808641E140A321E071D5C1D3D1D5E
:104A3C00391D351D01E200E900EA00B500B600B7EA
:104A4C0000CD008301CC008A019201940121022344
:104A5C000224022502260227022A02B300B4006FA8
:104A6C00007000818283E200E900EA00B500B60024
:104A7C00B700CD008301CC008A0192019401210280
:104A8C00230224022502260227022A02B300B400C4
:104A9C006F007000818283F697F56734663635F1C6
:104AAC0091929496F730F440B622A005EA04C8041B
:064ABC006D0486049F0456
:00000001FF
