:100000000C94C5020C940C030C940C030C940C037C
:100010000C940C030C940C030C940C030C940C0324
:100020000C940C030C940C030C94D9230C94AB2467
:100030000C94121F0C940C030C940C030C940C03E2
:100040000C940C030C940C030C940C030C940C03F4
:100050000C940C030C946B1F0C940C030C940C0369
:100060000C940C030C940C030C940C030C940C03D4
:100070000C940C030C940C030C940C030C940C03C4
:100080000C940C030C940C030C940C030C940C03B4
:100090000C940C030C940C030C940C030C940C03A4
:1000A0000C940C030C940C030C940C03A505A505EF
:1000B000D705D70524064206630763074D06E20607
:1000C000F306F3065307630763075C070308030897
:1000D000150815080C081508150815080308030865
:1000E000110815081508110818253F2537263F2542
:1000F00037268B25AE2537260526142629001E0017
:100100001F002000210022002300240025002600DB
:1001100027002D002E0000004A004B002B00140089
:100120001A000800150017001C0018000C0012002F
:1001300013002F0030002A004D004E00390004004B
:100140001600070009000A000B000D000E000F004A
:10015000330034002800310000000000E1001D00E1
:100160001B000600190005001100100036003700C2
:100170003800E5000151000052000000E000E300FB
:10018000E20000002C00000000000000E600E70094
:10019000E40000000000500051004F0001003A0050
:1001A0003B003C003D003E003F004000410042005B
:1001B0004300440045000000C35CC45C0100010032
:1001C00001000100005C01000100010001000100CC
:1001D00001000100010001000100010039000100DF
:1001E0000100010001000100010001000100010007
:1001F00001000100010001000000000001000100F9
:1002000001000100010001000100010001000100E6
:1002100001000100010000000100000001000100D8
:1002200001000000010000000000000001000100CA
:100230000100000000000100010001000004643220
:1002400014783C1E1E140A052223252628292A2C50
:100250002D2F3032333536383A3B3D3E4042434510
:1002600047494A4C4E5051535557595A5C5E60624B
:10027000646668696B6D6F71737577797B7D7F815B
:10028000838587898A8C8E90929496989A9C9E9F5B
:10029000A1A3A5A7A8AAACAEAFB1B3B4B6B8B9BB79
:1002A000BCBEBFC1C2C3C5C6C7C9CACBCCCDCED0E8
:1002B000D1D2D2D3D4D5D6D7D7D8D9D9DADADBDBD5
:1002C000DBDCDCDCDCDCDDDDDDDDDCDCDCDCDCDB6C
:1002D000DBDBDADAD9D9D8D7D7D6D5D4D3D2D2D1B5
:1002E000D0CECDCCCBCAC9C7C6C5C3C2C1BFBEBCA8
:1002F000BBB9B8B6B4B3B1AFAEACAAA8A7A5A3A119
:100300009F9E9C9A98969492908E8C8A89878583DA
:10031000817F7D7B79777573716F6D6B69686664BA
:1003200062605E5C5A5957555351504E4C4A49478A
:10033000454342403E3D3B3A3836353332302F2D2F
:100340002C2A29282625232200010101010101016F
:10035000010102020202020202020203030303037A
:100360000303030404040404040405050505050649
:100370000606060607070707070808080809090907
:10038000090A0A0A0B0B0B0C0C0C0D0D0D0E0E0EB0
:100390000F0F0F1010111111121213131414151541
:1003A00016161717181819191A1A1B1B1C1D1D1EB3
:1003B0001E1F202021222223242425262627282907
:1003C000292A2B2C2D2D2E2F303132323334353635
:1003D0003738393A3B3C3D3E3F4041424344454635
:1003E0004748494A4C4D4E4F505153545556585911
:1003F0005A5B5D5E5F616264656668696B6C6D6FB8
:100400007072737577787A7B7D7E8082838587882A
:100410008A8C8E8F91939596989A9C9EA0A2A3A564
:10042000A7A9ABADAFB1B3B5B7BABCBEC0C2C4C665
:10043000C9CBCDCFD1D4D6D8DBDDDFE2E4E7E9EB21
:10044000EEF0F3F5F8FAFDFF0A0373006D003600D5
:10045000380000002803680069006E00650079001C
:10046000620075007300680020006B006500790071
:1004700062006F00610072006400730000000403FA
:10048000090409023B00020100A0FA09040000016E
:10049000030101000921110100012240000705812B
:1004A0000308000A090401000103000000092111EA
:1004B000010001227B000705820320000A120100CF
:1004C0000200000008D8049FEC01000102000105B1
:1004D000010902A10185020901A1000509190129EB
:1004E00008150025019508750181020501093009EB
:1004F000311581257F9502750881060938158125FA
:100500007F950175088106050C0A38021581257F43
:10051000950175088106C0C005010980A101850308
:1005200019012AB700150126B70095017510810041
:10053000C0050C0901A101850419012AA0021501B9
:1005400026A002950175108100C005010906A101D0
:10055000050719E029E715002501950875018102B5
:100560009501750881010507190029FF150026FF6F
:10057000009506750881000508190129059505757E
:10058000019102950175039101C011241FBECFEFA7
:10059000DAE0DEBFCDBF04B603FE27C08091CA02F9
:1005A0009091CB02A091CC02B091CD028730904BBC
:1005B000A740B04BD1F41092CA021092CB02109215
:1005C000CC021092CD0214BE84B7877F84BF0FB6D1
:1005D000F894A895809160008861809360001092E3
:1005E00060000FBEE0E0F8E3099511E0A0E0B1E0A3
:1005F000EAEFFDE402C005900D92A43AB107D9F7E5
:1006000022E0A4EAB1E001C01D92AA3CB207E1F7E2
:100610000E94FC130C94FB260C94000081E00895CA
:1006200081E008950C940E0308950C9414031F9315
:10063000CF93DF9300D000D01F92CDB7DEB74983B0
:100640005A836B833091A60189819A81311114C03C
:10065000662359F0222349F00E94A709182F682F1A
:1006600089819A810E94500903C00E947B09182F3A
:1006700069817A81812F04C00E94A70969817A81EA
:100680000F900F900F900F900F90DF91CF911F91CF
:100690000C944610FC01262F4081518162817381A8
:1006A00084810C94170381E00895CF93DF93EC01CC
:1006B00060E00E944A03BE01DF91CF910C941503C4
:1006C0000E9475120E94D8030C94B2120C94AE12C0
:1006D00008950E94F1070E9468032FEF84E39CE0D5
:1006E000215080409040E1F700C000000C94911F21
:1006F0000F931F93CF93DF938C0161E00E944A0315
:10070000EC01B8010E941203882309F444C0B80127
:10071000CE010E94661C8823F1F1B801CE010E942F
:10072000B81C8823C1F1B801CE010E94E31D8823C3
:1007300091F1B801CE010E94211B882361F1F801DB
:100740008281882309F1CB358DE5D807C1F050F4BB
:10075000C115FCE5DF0781F0CF3DDC45A9F40E941F
:10076000420F19C0CC35EDE5DE0761F0CD35DD4532
:1007700059F40E94C60D08C00E9469030CC00E9473
:10078000CF0D02C00E94D20DC801DF91CF911F9101
:100790000F910C94100380E0DF91CF911F910F9186
:1007A000089508950C94D10381E008950C94D40326
:1007B0000895CF93C82F0E94D2038C2F0E94D60396
:1007C000CF910895CF93DF93CDB7DEB72B970FB6B8
:1007D000F894DEBF0FBECDBF4F83588769877A87F5
:1007E0008B8761110E94F50D9E012F5F3F4F86E0C0
:1007F000F90111928A95E9F785E0FE013796D90152
:1008000001900D928A95E1F789819A814C815D81F1
:10081000452B31F09F3F31F491E08F3F19F403C035
:1008200091E001C090E090FF09C049815A816B813D
:100830007C818D819E810E94F50C05C0C9010E94BA
:1008400053038111F2CF2B960FB6F894DEBF0FBE83
:10085000CDBFDF91CF910895FC01808191810E94ED
:10086000E9090895CF93882309F4A4C0C82F8238DA
:10087000C1F40E94191E81FD9DC069E380910001B1
:10088000909101010E94AC1E0E94270E2FEF81EE75
:1008900094E0215080409040E1F700C0000069E3FF
:1008A00019C0833801F50E94191E80FD83C063E5DD
:1008B00080910001909101010E94AC1E0E94270EC0
:1008C0002FEF81EE94E0215080409040E1F700C08E
:1008D000000063E580910001909101010E94AE1E2D
:1008E000CF910C94270E8438C1F40E94191E82FD0A
:1008F00061C067E480910001909101010E94AC1EEB
:100900000E94270E2FEF81EE94E02150804090400E
:10091000E1F700C0000067E4DDCF8CEF8C0F813A77
:10092000D0F46C2F80910001909101010E94761EFD
:10093000882349F06C2F80910001909101010E9461
:10094000AE1E0E94270E6C2F809100019091010134
:100950000E94AC1EC5CF80E28C0F883048F4C7706F
:1009600081E001C0880FCA95EAF70E94D80DB8CF80
:10097000EBE5EC0FE33040F4F0E0E75BFE4F808105
:1009800090E0CF910C943E1EE8E5EC0FE73150F477
:10099000F0E0EE0FFF1FE55EFE4F80819181CF9169
:1009A0000C94541ECD3E30F08C2F0E948914CF91B0
:1009B0000C945B15CF910895882309F464C08238A4
:1009C00079F40E94191E81FF5EC069E380910001E5
:1009D000909101010E94AC1E0E94270E69E310C095
:1009E0008338B1F40E94191E80FF4DC063E58091E9
:1009F0000001909101010E94AC1E0E94270E63E548
:100A000080910001909101010E94AE1E0C94270E6E
:100A1000843879F40E94191E82FF35C067E4809102
:100A20000001909101010E94AC1E0E94270E67E414
:100A3000E7CF9CEF980F913A10F4682FE1CF90E246
:100A4000980F983050F4877091E001C0990F8A9503
:100A5000EAF7892F0E94DE0DD9CF9BE5980F9330DE
:100A600020F480E090E00C943E1E98E5980F9731BA
:100A700020F480E090E00C94541E8D3E20F00E9403
:100A8000E4140C945B1508951F93CF93DF93182FF4
:100A9000EB010E943204209741F08FE99FE001971B
:100AA000F1F700C000002197F6CF812FDF91CF91A1
:100AB0001F910C94DC04893319F060E070E002C0EF
:100AC00060E570E00C944405882321F00E94D80D65
:100AD0000C94270E0895882321F00E94DE0D0C94BB
:100AE000270E0895CF92DF92EF92FF920F931F93FC
:100AF000CF93DF937C01062FC72FFC01D281158194
:100B000012951F700E94AD0D882399F0DD2389F0A6
:100B10008C2F807F803421F080E2800F883048F075
:100B200082E00E94770E0E94AD0D91E0D82ED9266A
:100B300001C0D12CCC2EC2948FE0C8228C2D90E025
:100B4000FC01EA5AFF4F0C9493268C2F807FCF70C4
:100B5000882311F0C295C07FDD2399F0CC2309F4DE
:100B60008DC180E2800F883010F0011104C08C2FFD
:100B70000E94D80D03C08C2F0E94E80D0E94270E02
:100B80007DC1802F0E94DC04CC2309F49CC180E24B
:100B9000800F883010F0011104C08C2F0E94DE0DF0
:100BA00003C08C2F0E94EE0D0E94270E8CC18C2F4B
:100BB000807FCF70803211F0C295C07F002319F082
:100BC0000130C9F022C0DD2371F0112341F0113052
:100BD00031F40E94080E8C2B0E94100E74C10E94EA
:100BE000080E8C2B1DC0112319F0113009F46BC1B4
:100BF0000E941D0E25C0DD2321F0163008F063C1D0
:100C00000EC0153008F05FC11BC0DD2361F0112359
:100C100031F0F701858180FF31C18F7085838C2F82
:100C20000E94640550C1112359F0093309F037C1FE
:100C3000FFEF27EE83E0F15020408040E1F72DC127
:100C40008C2F0E946B053FC18C2F869586958370F3
:100C500019F0813061F037C1DD2321F0802F9C2F06
:100C6000937002C080E090E00E943E1E34C1DD23FC
:100C700021F0802F9C2F937002C080E090E00E94B2
:100C8000541E29C1802FDD2319F00E94891402C04F
:100C90000E94E4140E945B151EC18C2F837009F022
:100CA00045C0D11114C1402F429546954770440F5D
:100CB000440F602F6F70862F90E0A0E0B0E0042E0C
:100CC00004C0880F991FAA1FBB1F0A94D2F704FF04
:100CD00010C00FE010E020E030E004C0000F111F52
:100CE000221F331F4A95D2F7009510952095309515
:100CF00003C000E010E09801C695C695C370BC0122
:100D0000CD01602B712B822B932BC23049F058F40C
:100D1000C13019F00E946608DAC00E945408D7C09A
:100D20000E947808D4C00E945208D1C0DD2319F077
:100D30008C2F817001C08695882309F4C8C0402F8C
:100D4000429546954770440F440F602F6F70862F71
:100D500090E0A0E0B0E0042E04C0880F991FAA1F05
:100D6000BB1F0A94D2F704FF10C00FE010E020E090
:100D700030E004C0000F111F221F331F4A95D2F725
:100D8000009510952095309503C000E010E0980183
:100D9000C695C695C370BC01CD01602B712B822B0B
:100DA000932BC23049F058F4C13019F00E942B093E
:100DB0008EC00E9419098BC00E943D0988C00E9404
:100DC0008C0885C0CF70DD2339F08C2F0E94B208CB
:100DD000802F0E9464057BC0802F0E946B058C2FA2
:100DE0000E94D30874C0023F01F128F4003F41F093
:100DF000013FA1F03FC0033FF9F0043F39F13AC091
:100E0000DD2341F0153008F05EC08C2F8F710E94F9
:100E1000F80859C0163008F056C0F7CFDD2339F076
:100E20008C2F8F710E94B2084EC0DD23C9F38C2F26
:100E30008F710E94D30847C0DD2329F08C2F8F715A
:100E40000E949D0840C00E9498083DC0DD2349F0E3
:100E5000CF718C2F0E94B20863E08C2F0E945C0E31
:100E600032C081E00E94770E123068F182E00E9469
:100E7000770E29C0DD2331F0112391F2802F0E94DB
:100E8000320421C0112399F2093349F49FEFE7EEB0
:100E9000F3E09150E040F040E1F700C00000802F07
:100EA0000E94DC0410C04C2F4F70602FC7010E94BD
:100EB00042100E94170A0FC04C2F4F70602FC701BD
:100EC0000E94451008C088EF8C0D843020F40E94E9
:100ED000191E0E94D903DD20C9F00E94A90D80FDD2
:100EE00015C0F70112820E94A30D0E94B208C7012B
:100EF0000E94A7070E94A30DDF91CF911F910F9130
:100F0000FF90EF90DF90CF900C94D308DF91CF91BA
:100F10001F910F91FF90EF90DF90CF9008950F9366
:100F20001F93CF93DF93EC01688179818A810E94BE
:100F3000F4098C010E944F090E944008B801CE01BB
:100F40000E947205DF91CF911F910F910895CF9369
:100F5000DF93EC01988189812B813C81232B31F037
:100F60008F3F31F481E09F3F19F403C081E001C05D
:100F700080E080FD19C0CE010E94780381110CC071
:100F80000E94AD0D882381F08A81882369F082E078
:100F9000DF91CF910C94770ECE010E948F07CE0186
:100FA000DF91CF910C945503DF91CF91089580E0AC
:100FB00090E00E943E1E80E090E00E94541E0E943D
:100FC000F50D0E94050E0E94270E0E948C160C94AF
:100FD0005B1580910001909101010E94B01E0C945C
:100FE000D7070E94E50D0C94E907E92FE295EF7011
:100FF0004E2F50E0FA013297EE30F105B0F4EA5985
:10100000FF4F0C949326803F91F018F4883E68F4CB
:101010000EC0843F51F40BC0883E48F0813F29F454
:1010200006C093FB882780F9089580E0089581E049
:101030000895FC01808191810E94E9090E94F507D1
:101040000895CF93DF9300D000D01F92CDB7DEB7C5
:101050000F900F900F900F900F90DF91CF91089508
:10106000CF93DF9300D000D000D0CDB7DEB7269667
:101070000FB6F894DEBF0FBECDBFDF91CF910895BC
:10108000089508950C9441080C9442080E94440865
:101090006093DD017093DE018093DF019093E001A6
:1010A0000C94D7070C9446080F931F930091DD0111
:1010B0001091DE012091DF013091E001602B712B56
:1010C000822B932B1F910F910C9446080F931F9323
:1010D0000091DD011091DE012091DF013091E001EE
:1010E00060237123822393231F910F910C94460850
:1010F0000F931F930091DD011091DE012091DF011C
:101100003091E00160277127822793271F910F916B
:101110000C9446080C9441080E948A086093D901F7
:101120007093DA018093DB019093DC010C94D70774
:1011300060E070E0CB010C948C080F931F9341E0AA
:1011400050E060E070E08A019B0104C0000F111FB5
:10115000221F331F8A95D2F7C901B8011F910F9141
:101160000C948C080F931F9341E050E060E070E016
:1011700004C0440F551F661F771F8A95D2F78091D0
:10118000D9019091DA01A091DB01B091DC018A01D3
:101190009B01082B192B2A2B3B2BC901B8011F914E
:1011A0000F910C948C080F931F9341E050E060E086
:1011B00070E004C0440F551F661F771F8A95D2F751
:1011C00040955095609570958091D9019091DA0184
:1011D000A091DB01B091DC018A019B010823192356
:1011E0002A233B23C901B8011F910F910C948C084D
:1011F0000F931F9341E050E060E070E004C0440FA3
:10120000551F661F771F8A95D2F78091D90190915B
:10121000DA01A091DB01B091DC018A019B01082772
:1012200019272A273B27C901B8011F910F910C9458
:101230008C080F931F930091D9011091DA0120912E
:10124000DB013091DC01602B712B822B932B1F91E2
:101250000F910C948C080F931F930091D90110915A
:10126000DA012091DB013091DC01602371238223BC
:1012700093231F910F910C948C080F931F9300914F
:10128000D9011091DA012091DB013091DC01602756
:101290007127822793271F910F910C948C08089532
:1012A00020E1929F800D1124E82FE695E695E695C2
:1012B000877051E001C0550F8A95EAF785E0E89FF5
:1012C000F0011124E955FE4F20E030E070E040814C
:1012D000CB01022E02C0969587950A94E2F78170A1
:1012E000819584278523842781932F5F3F4F253065
:1012F000310569F7089520E1929F800D1124682F30
:10130000669566956695982F977085E0689FB00101
:10131000112440E050E080E0FB01E40FF51FE955A7
:10132000FE4F208130E0092E02C0369527950A94A1
:10133000E2F721703327042E01C0220F0A94EAF746
:10134000822B4F5F5F4F4530510531F70895BF92B3
:10135000CF92DF92EF92FF920F931F93CF93DF9381
:101360008C01C090D901D090DA01E090DB01F090BF
:10137000DC018091DD019091DE01A091DF01B0914F
:10138000E001C82AD92AEA2AFB2ACFE1D0E0D70116
:10139000C6010C2E04C0B695A795979587950A941B
:1013A000D2F780FD04C0219790F7B12C07C0BC2E66
:1013B000B8018C2F0E947F110197A9F38B2DDF912B
:1013C000CF911F910F91FF90EF90DF90CF90BF9042
:1013D0000895CF93DF93EC010E94A709BE010E94FC
:1013E0007F11DF91CF9108951F93CF93DF93EB018E
:1013F0009091A601992321F0CB010E94E90913C025
:10140000882349F0CB010E94A709182F682FCE012D
:101410000E94500904C0CB010E947B09182FBE0115
:10142000812F0E947F11DF91CF911F910895EF923C
:10143000FF920F931F93CF93DF938C01892B09F4B5
:101440006CC0F12CEE24E394E8012196F80184911C
:10145000843740F4843008F051C0813081F082300C
:1014600019F15BC0853709F444C0A8F19CE7980FD7
:10147000903708F052C08F770E94DC0441C00E5FA5
:101480001F4FFE01849190E2980F983050F48770BE
:10149000FE2D01C0FF0F8A95EAF78F2F0E94F80DED
:1014A00014C00E9432042DC00E5F1F4FFE018491B4
:1014B00090E2980F983060F48770FE2D01C0FF0F06
:1014C0008A95EAF78F2F0E94FE0D0E94270E19C001
:1014D0000E94DC0416C00E5F1F4FFE01C491CC2396
:1014E00081F08FE99FE00197F1F700C00000C15043
:1014F000F6CF0E5F1F4FFE01F49003C00E9432042E
:101500008E018F2D882309F49FCFEFE9FFE03197FB
:10151000F1F700C000008150F5CFDF91CF911F910E
:101520000F91FF90EF9008951F93CF93DF93C09199
:10153000E10116E08091E201C81799F0D0E01C9F0C
:10154000F0011D9FF00D1124ED51FE4F408151819E
:1015500062817381848195810E9430082196C770D1
:10156000E9CFDF91CF911F910895409113025091DF
:1015700014026091150270911602809117029091E9
:1015800018020C9430080F931F93CF93DF93809130
:10159000180282958F7009F05DC080911502882332
:1015A00009F458C08091E1011091E20160911302A9
:1015B00070911402C0911602D091170291E06F3F12
:1015C00009F090E0292F06E0811709F443C0209725
:1015D00021F07F3F21F030E003C031E001C0322F25
:1015E00090E030FD34C0089FF001099FF00D1124F8
:1015F000DF01AD51BE4F11963C911197371327C0B3
:101600003C91361324C012963C91129731111FC0A1
:1016100013964D915C9114974C1B5D0B483C510502
:10162000B0F4809118028F70806180931802E851A5
:10163000FE4F80818F708061808383E192E00E9401
:10164000A707DF91CF911F910F910C94940A0196F7
:101650008770BACFDF91CF911F910F9108959F921C
:10166000AF92BF92CF92DF92EF92FF920F931F93B0
:10167000CF93DF93CDB7DEB761970FB6F894DEBF97
:101680000FBECDBF8C0185E0F801DE011D960190F3
:101690000D928A95E1F7F801E28090911302609132
:1016A000140220911602309117022115310531F0F4
:1016B0006F3F31F481E09F3F19F403C081E001C026
:1016C00080E0F82FF1709F2E80FD3FC1F80140812E
:1016D0005181A380B48083E1C82E82E0D82EF0909F
:1016E0001502F501E21BF30BFF2009F4D9C080912C
:1016F0001802E83CF10508F095C0282F207F09F07A
:1017000052C0561313C0491311C0FE2CE1100EC075
:101710008F708061809318020E94B50AC6010E94F2
:10172000A70780911802F80185834CC1AB2831F0DE
:101730005F3F31F481E04F3F19F403C081E001C005
:1017400080E080FD03C081E08E2502C080E090E053
:10175000F82FF170FF2E80FF1CC08091E1012091D5
:10176000E20136E0821709F40BC190E0389FF001E6
:10177000399FF00D1124ED51FE4F6181561306C0C3
:101780006081461303C06281E61203C00196877030
:10179000E9CFFE2CEE2009F415C18091180281607A
:1017A0008093180254C0561306C0491304C0E110B8
:1017B00002C0F80199C0C8010E941908882361F18C
:1017C000EE2051F120911802822F82958F7090E0C7
:1017D000029774F0809113029091140298878F837E
:1017E0001986BB86AA862C87CE0107960E94A7077A
:1017F00086E0F801A3E1B2E001900D928A95E1F74D
:101800000E94C30A0E94B50A0AC0561711F1C80106
:101810000E94190881112CC0C8010E94A707FF244B
:10182000F394D0C0282F207F81F77A2DB98AA88A17
:101830006E2D89890E94210883E192E00E94A7070A
:1018400086E0F60111928A95E9F70E94B50AF12C1B
:10185000B9C04913DCCFE110DACFF8018583C801A4
:101860000E94A70786E0F60111928A95E9F7AAC0BF
:10187000EE2091F220911802822F82958F7090E0D5
:1018800002970CF4B5CF80911302909114029A83C1
:1018900089831B82BD82AC822E83CE010196A6CFA6
:1018A000E83CF10508F044C0FE2CEE2009F4B4CF6A
:1018B000561330C049132EC02091180220FD21C0BC
:1018C000822F82958F70482F50E041155105C9F045
:1018D000F80125834F30510541F08F5F982F929585
:1018E000907F822F8F70892B8583C8010E94A70764
:1018F00086E0F801A3E1B2E001900D928A95E1F74C
:101900003CC086E0F801A3E1B2E001900D928A9517
:10191000E1F758C0C8010E941908811169CF809170
:101920001802816080931802C8010E94A7074AC06C
:101930007A2DB98AA88A6E2D89890E94210886E0AD
:10194000F60111928A95E9F718C0EE2009F464CFE8
:10195000C8010E941908F82E882309F45DCF86E09B
:10196000F801A3E1B2E001900D928A95E1F783E1DD
:1019700092E00E942C040E94C30A0E94B50A22C071
:101980004D875E878D859E850E94E909292F2295C6
:101990002F70223028F49F7039F0811105C00BC0E0
:1019A000243028F49F7049F4805E883020F0C8010C
:1019B0000E94A7079F2CF92C05C0F8019581907F04
:1019C00099F7F9CF8F2D61960FB6F894DEBF0FBE51
:1019D000CDBFDF91CF911F910F91FF90EF90DF90DE
:1019E000CF90BF90AF909F9008951F93CF93DF93B8
:1019F000CDB7DEB72C970FB6F894DEBF0FBECDBFC4
:101A00004F83588769877A878B879C87CE01079693
:101A10000E942F0B8823D1F09F8188852A853B85E2
:101A2000232B31F08F3F31F481E09F3F19F403C045
:101A300081E001C080E080FD47C04F815885698505
:101A40007A858B859C850E9430083EC086E0FE0129
:101A50003796DE01119601900D928A95E1F7FF818C
:101A6000E8856A857B856115710531F0EF3F31F4BA
:101A700081E0FF3F19F403C081E001C080E080FDF8
:101A800023C02091E20130E0C901019687709927B7
:101A90004091E10150E084179507F1F1F983EA8361
:101AA0007D836C8396E0929FD001939FB00D1124AB
:101AB000AD51BE4FFE01319601900D929A95E1F71E
:101AC0008093E2010E94940A16E08091E1019091D6
:101AD000E201891771F1189FC00111248D519E4FA9
:101AE0000E942F0B882329F1E091E1011E9FF00154
:101AF0001124ED51FE4F40815181628173818481B7
:101B000095810E9430088091E10190E001968770F4
:101B100099278093E101D9CF0E94F1071092E20149
:101B20001092E101E3E1F2E086E0DF011D928A9587
:101B3000E9F72C960FB6F894DEBF0FBECDBFDF914C
:101B4000CF911F910895809119028595859585956E
:101B500008958091190287700895909119029770E5
:101B600081E009F480E0089590916F0292FB2227B2
:101B700020F9281751F080FB92F990936F02809121
:101B80006E0290916F020C94BE0E089580916F02C8
:101B900082FB882780F991E089270C94B40D81E0BD
:101BA0000C94B40D80E00C94B40D8091250208953E
:101BB00090912502892B809325020895809590911C
:101BC0002502892380932502089510922502089505
:101BD00090912402892B80932402089580959091FE
:101BE00024028923809324020895109224020895E8
:101BF00090912302892B80932302089580959091E0
:101C000023028923809323020895109223020895CA
:101C100080911A02089508950C940B0E0C940C0EEA
:101C200090916F0292FD08C090911A02981721F0CE
:101C300080931A020C940E0E089580911A02882344
:101C400029F010921A0280E00C940E0E0895E09193
:101C50000001F0910101809125028083E091000153
:101C6000F0910101908180912402892B8083E09181
:101C70000001F0910101908180912302892B8083E2
:101C800080911A02882381F0E0910001F091010116
:101C90009081892B808380910001909101010E94A5
:101CA0006A1E81110E941D0E809100019091010118
:101CB0000C94251E0C940B0E90916F0292FD10C097
:101CC00098E0899F90011124262B209319020E94ED
:101CD000B208809119028595859585950C945A0EC8
:101CE0000C94B2081092190280E00C945A0E2091C4
:101CF00019028095822380931902982F977041F4DE
:101D000030E0482F082E000C550B2417350721F41E
:101D100090916F0292FF07C08595859585950E94E9
:101D2000D3080C94720E08956FEF7FEF80E090E07F
:101D30000C94E52680E090E00E94C12621E0893ED7
:101D40009E4F09F020E0822F089582E090E00C94ED
:101D5000B32683E090E00C94B326CF9384E090E028
:101D60000E94B326C82F82E290E00E94B3262C2F57
:101D700030E0A901582BCA01CF910895CF93C92F04
:101D8000682F84E090E00E94C7266C2F82E290E0EA
:101D9000CF910C94C726AB01BC018FE090E00C946E
:101DA000D926AB01BC0183E190E00C94D92660E018
:101DB00070E0CB010C94D10E60E070E0CB010E948A
:101DC000CB0E0C94D70E69EE7EEF80E090E00E947F
:101DD000E52660E082E090E00E94C72660E083E0B4
:101DE00090E00E94C7261092DD011092DE01109251
:101DF000DF011092E00160E084E090E00E94C726DD
:101E000060E082E290E00E94C72660E085E090E01A
:101E10000E94C72660E086E090E00E94C7266FEF30
:101E200087E090E00E94C72640E050E0BA0188E0D9
:101E300090E00E94D92660E08DE090E00E94C726E5
:101E400040E050E0BA0188E190E00E94D92660E0CD
:101E500087E190E00E94C72640E050E0BA018CE1A3
:101E600090E00E94D92660E070E080E290E00E945D
:101E7000E52640E050E0BA0188E190E00E94D926D2
:101E80000C94DC0E0C94E30E682F8EE090E00C9422
:101E9000C7260E94501F60933502709336028093CC
:101EA000370290933802609331027093320280932C
:101EB000330290933402089585B7806885BF85B753
:101EC000806885BF089581E008950C94630F08959C
:101ED0000C94670F0C94670F0C946A0F0C94670FA7
:101EE0000C946E0F0C94670F0E945C0F8BE592E1CF
:101EF0000E94B51F0E94720F0C94700F0E94680F11
:101F00000C94670F0E943B1F0E9463130E944D1A9E
:101F10000C946C0F6F927F928F929F92AF92BF92B0
:101F2000CF92DF92EF92FF920F931F93CF93DF93A5
:101F3000CDB7DEB72A970FB6F894DEBF0FBECDBF80
:101F40000E94761381110E94490F37E2832E32E0FE
:101F5000932E00E010E0C02E802F0E9499125C01A9
:101F6000F401619071904F01682679266114710423
:101F7000B1F40F5F1F4F0530110569F78FEF8983AB
:101F80008A831B820E94441F8160782F9D838C83EB
:101F900049815A816B818D810E94E2033AC0809110
:101FA000390281FD0E94A212D12CEE24E394F12C7F
:101FB000C3018E219F21892B29F10E94650F88235F
:101FC000A9F0DE82CF82AE20BF2081E0AB2809F4E9
:101FD00080E088870E94441F8160782F9A878987D4
:101FE0004E815F8168858A850E94E203000F111F80
:101FF000F801E95DFD4F80819181E826F926F182A3
:10200000E08207C0D394EE0CFF1CF0E1DF12D0CFCA
:10201000B0CF0E94911A0E9479150E94191E9091CA
:1020200026028917D1F00E94191E809326022A9653
:102030000FB6F894DEBF0FBECDBFDF91CF911F91D9
:102040000F91FF90EF90DF90CF90BF90AF909F9057
:102050008F907F906F900C94D9032A960FB6F894C6
:10206000DEBF0FBECDBFDF91CF911F910F91FF90CB
:10207000EF90DF90CF90BF90AF909F908F907F9028
:102080006F90089580E090E008950895E72FF0E0C4
:1020900095E0899FE00DF11D112484E0EE0FFF1FF4
:1020A0008A95E1F7E60FF11DEE0FFF1FE450FF4F99
:1020B000859194910895880F991FFC01E45CFD4F70
:1020C000859194910895CF93DF930E948411EC0140
:1020D000811520E5920708F03FC0811540E4940780
:1020E00008F0D2C0883E910500F5803E910508F0C9
:1020F00002C1883A910570F4853A910508F0A6C0AE
:102100008130910509F49FC008F4F2C0049708F0EB
:10211000F2C0EEC08F3B910508F4A1C0803C910550
:1021200008F4E6C0805C9109A5C0811550E29507CE
:1021300060F4C11581E0D80708F0DDC0CD3ED105BF
:1021400008F4D6C0CE019065D7C0811520E3920770
:1021500008F093C09F708EC0811545E5940708F084
:1021600046C0811554E5950708F0A6C0C11582E563
:10217000D80718F5C11521E5D20708F088C0CE01AF
:10218000F4E096958795FA95E1F7282F23703C2F78
:10219000337081E090E002C0880F991F3A95E2F712
:1021A0009C68922B2C2F2F702695269540E2249F19
:1021B00090011124822B932B9FC09E012370332703
:1021C0009C2F96959695C115D34508F065C041E0C2
:1021D00050E002C0440F551F2A95E2F780E2989F15
:1021E00090011124CA01822B932B9C6885C0811514
:1021F00059E5950798F4C11588E5D80708F061C03E
:10220000C11526E5D20708F073C08C2F0E94181262
:102210008F7190E0982F882790626EC081154AE5F3
:10222000940708F453C090568115904208F060C09E
:102230008D2F8F710E9418129E01332730628F718B
:10224000A901582B53C081E090E056C0855AC82F91
:10225000D0E0C658DE4F888190E090644DC0885A27
:10226000C82FD0E0CC0FDD1FC45BDE4F8881998181
:10227000946442C00E945B103FC09927D3FF02C004
:10228000986C3AC0906C38C09F70906A35C09C2F93
:102290008827816F906A30C041E050E002C0440F4F
:1022A000551F2A95E2F780E2989F90011124CA01F8
:1022B000822B932B9A6820C0982F8827846F906A6E
:1022C0001BC09C2F8827806F906A16C08F700E9459
:1022D00018129E0194E0369527959A95E1F72F7094
:1022E00030E0322F22273069A901482BCA0104C0EF
:1022F00080E090E001C0CE01DF91CF9108950E946F
:1023000046100E94631008958238910569F1B0F477
:102310008133910509F46DC048F48932910509F4BF
:1023200063C08A32910509F469C008958533910527
:1023300009F455C089339105B9F00895833E91059C
:1023400069F138F4803E9105B1F0823E910509F1C2
:102350000895863E9105A9F1873E9105B9F1843E25
:10236000910509F064C023C020916E0220FD4FC08A
:1023700021FD4DC0089580916E0280FD44C0809182
:102380006F0280FF44C080916E0284FD42C083EEE4
:102390004DC080916E0282FF38C0F5CF80916E02F1
:1023A00082FD33C080916F0280FD31C0ECCF8091FF
:1023B0006F0281FF32C080916E0284FD2AC087EED9
:1023C00035C080916E0283FF26C0F5CF80916E02EA
:1023D00083FD21C080916F0281FD1FC0ECCF8091F1
:1023E0006E0285FD1CC01DC080916E0285FD19C066
:1023F00016C080916E0286FD16C017C080916E02D5
:1024000086FD13C010C089E311C082EE0FC080EEBC
:102410000DC080E00BC086EE09C084EE07C089E2E3
:1024200005C085E303C08AE201C081E390E008951E
:1024300090916E0292FF0DC0282F2871283019F458
:10244000877F846006C0282F2471243011F48B7F8D
:10245000886093FF0DC0282F2871283119F4877EDA
:10246000846106C0282F2471243111F48B7E886189
:1024700020916F0220FF0DC0382F3871383019F4C9
:10248000877F816006C0382F3171313011F48E7F23
:10249000886021FF0DC0282F2871283119F4877E0C
:1024A000816106C0282F2171213111F48E7E88614F
:1024B00094FD877E089580E008950C94940E0E9408
:1024C00076138FE39CE90197F1F700C000000E94AA
:1024D000761380E00E94991280FF04C00E945D1272
:1024E0000C94911F08950C945F120E949A0E811112
:1024F00002C00E94420F0E94A50E809339020E94E2
:10250000AD0E90936F0280936E020E9473120E9430
:10251000A90E682F70E080E090E00E945208609160
:10252000D9017091DA018091DB019091DC010C946A
:102530008A08E82FF0E0EE0FFF1FE658FD4F80817C
:1025400091810895089580EA8A95F1F7089500C071
:1025500008950C94A31208950C94AB120C94AC1231
:102560000C94AB120C94B012F894E82FE295EF7033
:10257000F0E031A1282F2F7081E090E001C0880F9A
:102580002A95EAF7982F9095932391A392A1892BEE
:1025900082A3789408950F931F93CF93DF93CDE890
:1025A000D1E089918F3F11F00E94B41281E0C239CD
:1025B000D807B9F7CDE7D1E00DE811E089918F3F59
:1025C00011F00E94B4120C171D07C1F7DF91CF91D3
:1025D0001F910F910895AF92BF92CF92DF92EF9229
:1025E000FF920F931F93CF93DF938C01C62FD0E000
:1025F000CE0183579E4F6C01DC019C919F3F09F4F3
:1026000057C0B62EF894E92FE295EF70F0E081A163
:102610009F7021E030E001C0220F9A95EAF7822BEB
:1026200081A382A12095282322A378940E94A71237
:10263000EDE7F1E020E030E0E12CF12C41E050E06A
:1026400081918F3FC1F0A82FA295AF70B0E0909616
:102650006C9170E08F70DB0102C0B595A7958A95EB
:10266000E2F7A0FD08C0CA01022E02C0880F991F20
:102670000A94E2F702C080E090E0E82AF92A2F5F8E
:102680003F4F20313105E1F6F60180818F3F11F097
:102690000E94B41261E0E114F10409F460E08B2DB2
:1026A0000E94A912CC0FDD1FC00FD11FF982E88252
:1026B000DF91CF911F910F91FF90EF90DF90CF901E
:1026C000BF90AF9008950E94CB12E0E7F2E0AAE736
:1026D000B2E0119211921D921D9282E0EA37F80742
:1026E000C1F785E00E94C1130C946003FF920F9321
:1026F0001F93CF93DF93CDB7DEB72A970FB6F89429
:10270000DEBF0FBECDBF8E010F5F1F4F8AE0F80105
:1027100011928A95E9F7F12C6F2DC8010E94EB12F6
:10272000F394F5E0FF12F8CF4AE050E0B80180E7FB
:1027300092E00E94A626FF24F394009709F4F12C5E
:10274000892B41F08AE0F801A0E7B2E001900D92F8
:102750008A95E1F72F2D45E06AE772E080E792E085
:102760000E94C2130E9466038F2D2A960FB6F8941A
:10277000DEBF0FBECDBFDF91CF911F910F91FF90B4
:1027800008950895FF920F931F93CF93DF93F82E30
:10279000092F162FD72FC42F222349F081E08093D1
:1027A0003C020E94441F90933B0280933A02809126
:1027B0003C028823D9F080913A0290913B020E941A
:1027C0005C1F059798F0EF2DF02FA12FBD2F80E013
:1027D00090E04C2F50E08417950734F4219131910B
:1027E0002D933D930196F7CF10923C02DF91CF914C
:1027F0001F910F91FF9008950E94B71E0E9416210D
:102800000E942F210E9441210E947E0FFBCF8091C8
:10281000430280FF0BC06091070185E0689FB00113
:10282000112475956795759567952BC081FF09C033
:102830006091070185E0689FB00111247595679547
:1028400020C082FF07C06091070185E0689FB0014A
:10285000112417C0909142029923D1F06091060192
:10286000961788F72091070185E0289F9001112491
:10287000929FA001939F500D112470E0CA010E9405
:102880007F266038710540F46115710519F406C0A2
:1028900065E070E0862F08958FE7089581E0089540
:1028A0008091430280FF08C06091030170E075953C
:1028B00067957595679521C081FF06C060910301FA
:1028C00070E07595679519C082FF04C0609103019F
:1028D00070E010C090914102992399F0609102013B
:1028E0009617A0F780910301899FC001112470E021
:1028F0000E947F266038710540F46115710519F456
:1029000006C061E070E0862F08958FE7089581E0AA
:1029100008958D3E21F40E940714819504C08E3ED7
:1029200029F40E9407148093470208958F3E21F4F2
:102930000E940714819504C0803F29F40E94071467
:10294000809346020895893F19F40E94501405C0EF
:102950008A3F31F40E945014819580934802089573
:102960008B3F21F40E945014819504C08C3F29F4C0
:102970000E9450148093490208959FE0980F983068
:1029800078F421E030E0A90102C0440F551F9A9568
:10299000E2F7CA0190914502892B80934502089580
:1029A0008D3F21F48091430281600BC08E3F21F462
:1029B00080914302826005C08F3F29F480914302D9
:1029C00084608093430208958D3E39F490914702CC
:1029D00097FF35C01092470259C08E3E29F490915E
:1029E00047021916BCF32BC0909146028F3E29F482
:1029F00097FF25C01092460249C0803F19F419166E
:102A0000CCF31DC090914802893F29F41916BCF4FB
:102A1000109248023BC08A3F19F497FF10C0F8CFCC
:102A20008B3F39F49091490297FF09C010924902F7
:102A30002DC08C3F21F4909149021916BCF39FE000
:102A4000980F983080F421E030E0A90102C0440FD3
:102A5000551F9A95E2F7CA01809590914502892306
:102A60008093450213C08D3F21F4809143028E7FF5
:102A70000BC08E3F21F4809143028D7F05C08F3FB4
:102A800029F4809143028B7F809343028091460218
:102A9000811106C080914702811102C0109242024A
:102AA00080914802811106C080914902811102C0C3
:102AB0001092410208950E94441F20914602211164
:102AC00004C020914702222321F09093400280937A
:102AD0003F0220914802211104C020914902222383
:102AE00021F090933E0280933D0284E492E00C94A6
:102AF000301EEF92FF920F931F93CF93DF9300D07E
:102B000000D000D0CDB7DEB786E0E4E4F2E0DE012D
:102B1000119601900D928A95E1F7E0904602F090AF
:102B20004702009148021091490210924602109209
:102B300047021092480210924902E11003C0FF20A0
:102B400009F45DC080913F02909140020E945C1F99
:102B5000AC0190914202992339F02091080130E0B4
:102B60002417350758F04BC0209109018AE0289FAF
:102B7000900111242417350718F041C09F3F19F028
:102B80009F5F90934202EE2061F00E9407141E1492
:102B900014F09FEF01C091E0989F902D1124909325
:102BA0004602FF2061F00E9407141F1414F09FEFEB
:102BB00001C091E0989F902D11249093470230918D
:102BC00046023323E1F0209147022223C1F045EB76
:102BD0003403C0011124992319F09093460203C0D5
:102BE00081E08093460235EB2303C0011124992331
:102BF00019F09093470203C081E0809347020111CE
:102C000003C0112309F45DC080913D0290913E0202
:102C10000E945C1FAC0190914102992339F02091F0
:102C2000040130E02417350758F04BC0209105010E
:102C30008AE0289F900111242417350718F041C01D
:102C40009F3F19F09F5F90934102002361F00E9423
:102C50005014101614F09FEF01C091E0989F902D32
:102C6000112490934802112361F00E945014111610
:102C700014F09FEF01C091E0989F902D1124909344
:102C80004902309148023323E1F020914902222386
:102C9000C1F045EB3403C0011124992319F090933E
:102CA000480203C081E08093480235EB2303C00152
:102CB0001124992319F09093490203C081E0809375
:102CC00049028091460281110BC080914702811117
:102CD00007C080914802811103C08091490281118F
:102CE0000E945B15EB82FC820D831E8386E0FE0151
:102CF0003196A4E4B2E001900D928A95E1F7269610
:102D00000FB6F894DEBF0FBECDBFDF91CF911F91FC
:102D10000F91FF90EF900895E4E4F2E086E0DF0188
:102D20001D928A95E9F71092420210924102109288
:102D300043020895EF92FF920F931F93CF93DF9377
:102D40008B01682F11110AC0442329F0E82FF0E00D
:102D5000E85BFC4F6491762F862F75C0212F30E001
:102D6000E82FF0E0442321F0E85BFC4FE491F0E031
:102D700046E0049FC0011124CFEFD0E0BE010E94C5
:102D80006B264BEA4603C001479F900D1124800F2C
:102D9000911D800F911D982F990F890FAE01421B35
:102DA000530B4E9FD0014F9FB00D5E9FB00D11246D
:102DB0009B2F189FA0011124452F55278E01041B1E
:102DC000150B0E9FA0010F9F500D1E9F500D11243B
:102DD0007E01E81AF108E29E8001E39E100DF29E4A
:102DE000100D1124212F3327C21BD30BCE9F90012E
:102DF000CF9F300DDE9F300D112462307105A9F098
:102E000048F46115710569F061307105C9F48B2FC3
:102E1000752F0DC06430710581F058F06630710572
:102E200079F47E2F8B2F932F0DC0832F7B2F9E2F16
:102E300009C08E2F7B2F952F05C08E2F732F02C0B8
:102E40007E2F852F692FDF91CF911F910F91FF90DA
:102E5000EF90089541E00E949A16089508950E9407
:102E60002A170895CF93DF93762FE901682F842FD7
:102E70000E942F17798368838A83DF91CF91089509
:102E800080918402282F269530E02115310519F410
:102E90008170826005C02131310524F0817080622B
:102EA00080938402089588E090E00C94BB26CF9232
:102EB000DF92EF92FF926B017C010E944017B701F5
:102EC000A60188E090E0FF90EF90DF90CF900C9407
:102ED000D926E4E8F2E083E0808311828FEF8283D9
:102EE0008383148260817181828193810C9457174E
:102EF0008091840280FF02C08695089580E0089545
:102F000090918802933018F49F5F909388028823F1
:102F100051F06091840270918502809186029091B7
:102F200087020C945717089581E00C9480179091B4
:102F30008802992319F0915090938802882351F0C8
:102F4000609184027091850280918602909187023F
:102F50000C945717089581E00C94971770E00C9427
:102F6000C81B60910B018091840280FF0AC0809190
:102F70000A0123E0829FC001112487579D4F0C94C2
:102F8000AE1780910C0190910D01891780F7E82F01
:102F9000F0E09F01220F331FE20FF31FE757FD4FB1
:102FA0001182108212828F5FF0CF9091840290FF85
:102FB00016C090910C0120910D01921770F4E92F29
:102FC000F0E0DF01AA0FBB1FEA0FFB1FE757FD4F21
:102FD0008183608342839F5FF0CF0C94B117089583
:102FE000CF93DF9300D01F92CDB7DEB790918402CC
:102FF00090FF0AC09E012F5F3F4F0E9432174B8106
:1030000069818A810E94D5170F900F900F90DF91F0
:10301000CF910895CF93DF93EC01EC81F0E0E85B72
:10302000FD4F4491E4E8F2E0628181810E94F01753
:103030008C818F5F8C83DF91CF910895CF93DF9345
:10304000EC01E4E8F2E0438162818C810E94F01798
:103050008C818F5F8C83DF91CF910895EF92FF92E7
:103060000F931F93CF93DF9300D01F92CDB7DEB79E
:10307000082FF62E142FE22E8091840280FF35C097
:10308000E82FE695F0E0EE56FE4F908190935402C3
:103090008E7F823061F49E012F5F3F4F802F0E9410
:1030A00032174B8169818A810E94D5170CC09230FA
:1030B00019F41091870207C0963019F40091850227
:1030C00002C09930D9F300938502F09286021093E2
:1030D0008702EE2051F06091840270918502809108
:1030E0008602909187020E9457170F900F900F90C1
:1030F000DF91CF911F910F91FF90EF900895E4E839
:10310000F2E09181282F4381628188E0890F0C943D
:103110002E1881E00C947F18E4E8F2E09181282FCA
:103120004381628188EF890F0C942E1881E00C9402
:103130008C18E4E8F2E0628128E0620F08F46FEF97
:10314000282F438181810C942E1881E00C949918CA
:10315000E4E8F2E0628128E0621B08F460E0282FD6
:10316000438181810C942E1881E00C94A818E4E826
:10317000F2E0438128E0420F08F44FEF282F6281EC
:1031800081810C942E1881E00C94B718E4E8F2E0E9
:10319000438128E0421B08F440E0282F62818181AE
:1031A0000C942E1881E00C94C61820E00C942E1874
:1031B0000F931F93CF93DF9300D01F92CDB7DEB74D
:1031C0008C0180914A0281110AC09E012F5F3F4FFE
:1031D0004FEF6FEF0E9432178A8180934A02F80105
:1031E0008481813051F028F0823061F440914A02AC
:1031F0000AC080914A0240E007C060914A0240E064
:1032000080E003C040E080E060E00E94D517F80154
:10321000848190E0019663E070E00E947F268483C1
:103220000F900F900F90DF91CF911F910F91089504
:10323000FF920F931F93CF93DF93EC01F12C0FEFCD
:1032400010E060910E01F616F0F480910C012F2D24
:1032500030E0280F311DC901880F991F280F391F31
:1032600027573D4F70E0C8010E947F26962F8C8122
:103270004091870260918602F99E800D11240E9480
:103280003217F394DECF0E94B1179A818C8190FFA0
:1032900002C08F5F01C081508C83DF91CF911F915D
:1032A0000F91FF9008950F931F93CF93DF93EC013D
:1032B00000E010E080910E01282F30E00217130784
:1032C00024F590910C019801290F311DA901440F9B
:1032D000551F240F351F27573D4F869590E04C8191
:1032E000081719071CF4442331F002C0411103C030
:1032F0004091870201C040E0609186028091850282
:103300000E9432170F5F1F4FD5CF0E94B1178C81DB
:1033100090E00196817099278C83DF91CF911F9166
:103320000F910895E4E8F2E080818E7F80836081D0
:103330007181828193810E945717109255022FEF5D
:1033400080E792E0215080409040E1F700C000000B
:103350000C94B117E4E8F2E080818E7F80831092B4
:1033600055022FEF80E792E0215080409040E1F736
:1033700000C000000C94B1171092550280915202C7
:1033800081110AC081E08093520280918402817091
:10339000809351020C94AA19089560918402669555
:1033A00070E041E050E08FE091E00E949926892B87
:1033B00019F481E0809355020E94441F90934C02BF
:1033C00080934B0208959091840290FF35C09170D4
:1033D000811102C0926006C0813110F0906202C07B
:1033E000880F982B90938402662351F06091840299
:1033F0007091850280918602909187020E945717F2
:1034000060918402669570E041E050E08FE091E0C9
:103410000E949926892B19F01092550202C00E9431
:10342000CD1981E080934E0240918702609186021F
:10343000809185020C94D5180895682F909184028C
:10344000969581E0890F813108F081E00C94E319B1
:1034500081E00C941D1A682F9091840296958FEF4D
:10346000890F09F480E10C94E31981E00C942B1A84
:1034700061E00C94E319E4E8F2E0808181608083EC
:1034800086950C94381A8091840280FD0C949219D0
:103490000C943B1A60E00C94E31980915302811163
:1034A0002EC00E949A0E811104C00E94420F0E94F9
:1034B00069170E945317609384027093850280936A
:1034C0008602909387026E7F61F40E9469170E94C2
:1034D00053176093840270938502809386029093C1
:1034E00087020E944017109255028091840280FF4B
:1034F00003C086950E944A1A81E080935302089582
:10350000E4E8F2E080818160808386950C944A1A19
:10351000109252028091510281110E94801A0C94E3
:10352000CD190F931F93CF93DF938091550288237A
:1035300009F467C080915402E0918402E695E81B8B
:10354000E0934D02823049F4F0E0EC5BFD4FE491F2
:10355000CE2FD0E00AE018E12BC0863049F4F0E02D
:10356000EF5BFD4FE491CE2FD0E00EE118E120C0DB
:10357000893051F4E695F0E0E25CFD4FE491CE2F06
:10358000D0E008E119E114C08F3039F4ECE3F2E047
:10359000C591D49108ED18E10BC0803129F4C4EF36
:1035A000D1E003E519E104C0C0EDD7E00EE217E178
:1035B00080914E02882361F010924E020E94441FB7
:1035C00090934C0280934B021092500210924F0243
:1035D0000E94441FE0914B02F0914C028E1B9F0B06
:1035E0008F3F9F4770F4CE0FDF1FD0934C02C093E4
:1035F0004B028BE492E0F801DF91CF911F910F9184
:103600000994DF91CF911F910F910895882311F0B4
:10361000FA0101C0FB010994CF93DF93C82FD62F85
:103620000E9478178C1740F00E9478178D1720F4AD
:10363000DF91CF910C94281A8C2FDF91CF910C94AD
:10364000381A1F93CF93DF93FB011281112309F4E2
:1036500097C0EC010E94D50D8272CC3CFCE5DF07DF
:1036600009F476C0A8F5C73CECE5DE0709F45CC0B8
:10367000D8F4C43C9CE5D90709F44AC038F4C33CEB
:10368000DC4509F080C00E94431A7CC0C53C9CE523
:10369000D90709F442C0C63CDC4509F074C046E9CC
:1036A00058E169E878E13DC0C93CFCE5DF0709F471
:1036B00045C0F8F1CA3CECE5DE0709F444C0CB3C58
:1036C000DC4509F060C043EC58E162ED78E129C0C7
:1036D000C13D9CE5D90709F44AC088F4CE3CFCE51D
:1036E000DF0709F43FC0C8F1CF3CECE5DE07E1F1AC
:1036F000C03DDC4509F047C068E086E03AC0C63D01
:103700008CE5D807C9F1F0F1CE35DD45D9F13BC0E4
:1037100045E35AE168E27AE104C048E25AE165E330
:103720007AE10E94061B2EC049E858E166E978E17B
:10373000F8CF44EB58E165EA78E1F3CF45EA58E188
:1037400064EB78E1EECF42ED58E163EC78E1E9CF4C
:103750004BEA57E164E977E1E4CF44E957E16BEAEA
:1037600077E1DFCF81E009C065E082E002C06EE072
:1037700089E00E940C1B06C08FE00E94381A02C02C
:1037800011E001C010E0812FDF91CF911F910895CA
:10379000509A2BB12E7F3BB131604FB7F894FC01AA
:1037A000CB01880F991F680F791F6E0F7F1FE617D7
:1037B000F70789F0819198E03BB9000000C087FFCE
:1037C0002BB9880F000000C000C000C02BB900C09A
:1037D0009A9591F7ECCF4FBF8FE594E00197F1F701
:1037E00000C0000008950F931F93CF93DF93C42F61
:1037F000D22FFC0182818823C9F0409358020E9495
:10380000441F909357028093560280E28C0F8830B9
:1038100008F057C0C77081E001C0880FCA95EAF769
:10382000DF91CF911F910F910C9464058091580204
:10383000481330C080915602909157020E945C1F3D
:10384000883C910538F510E21D0FCD17B9F080E2E4
:103850008C0F883040F4C77081E001C0880FCA9592
:10386000EAF70E946B05183028F581E09D2F9770CC
:1038700001C0880F9A95EAF70E946405802F0E9484
:103880005B051830F0F4D77081E001C0880FDA953D
:10389000EAF70AC080E28C0F883098F4C77081E0A4
:1038A00001C0880FCA95EAF7DF91CF911F910F9160
:1038B0000C946B05802FDF91CF911F910F910C9489
:1038C0005B05DF91CF911F910F9108950F939C019C
:1038D000CB01243F4CE5340731F188F4293DFCE568
:1038E0003F07D9F02A3D4CE5340779F1283D3C45A6
:1038F000A9F506E221EE41EE68ED7CE52BC0263FFE
:10390000FCE53F07E1F0A8F0273F3C4539F507E229
:1039100025EE46EE67EF7CE51DC007E225EE45EE9D
:1039200069ED7CE517C006E221EE40EE64EF7CE530
:1039300011C007E225EE44EE65EF7CE50BC006E220
:1039400021EE42EE66EF7CE505C008E221E045EE9F
:103950006AED7CE50E94F31B80E008C0FC018281D7
:10396000882319F01092580201C081E00F91089548
:10397000CF93DF93EC01FB018281882309F41FC1FF
:10398000C230FCE5DF0708F41BC1C6319CE5D9074E
:1039900038F09E012B5F3C452930310508F010C1FD
:1039A0000E94AD0E90936F0280936E02C031ECE5E1
:1039B000DE0709F4C3C008F041C0C8308CE5D80761
:1039C00009F49AC0F0F4C430ECE5DE0709F487C0CE
:1039D00068F4C2308CE5D80709F477C0C330DC4501
:1039E00009F0E3C080916E02826076C0C630ECE5DB
:1039F000DE0709F46EC008F07BC080916E0288601B
:103A00006BC0CC308CE5D80709F485C068F4CA30A7
:103A1000ECE5DE0709F474C008F079C00E94F107F4
:103A200080916E02806858C0CE308CE5D80709F4CA
:103A300076C008F07FC080916E028BC0CC3FECE571
:103A4000DE0709F44FC018F5C3318CE5D80709F437
:103A50007DC078F4C131ECE5DE0709F473C0C231F2
:103A6000DC4509F0A2C00E94F10780916E028F77B9
:103A700033C0C5318CE5D80709F472C008F486C09C
:103A8000CB3FDC4509F091C080916F023EC0C1156B
:103A9000FDE5DF0709F45FC058F4CE3F9CE5D90788
:103AA00009F444C008F43FC080916F0282602DC0C9
:103AB000C230FDE5DF0709F475C008F45DC0C3300E
:103AC000DD4509F072C080E06EC080916E028160B9
:103AD00003C080916E02806180936E0266C0809107
:103AE0006E0211C080916F02826080936F025DC090
:103AF00080916E028062F0CF80916E028064ECCF84
:103B000080916E0288608460E7CF8160EECF809103
:103B10006E028E7FE1CF80916E028D7FDDCF80912E
:103B20006E02877FD9CF80916F0218C080916F029B
:103B30008D7FDBCF80916E028F7ECECF80916E0223
:103B40008F7DCACF80916E028F7BC6CF80916E022F
:103B5000877F8B7FC1CF80916F028D7F8E7FC5CF96
:103B600080916E0282FB222720F991E0922790FB40
:103B700082F990FB83F9B0CF80916F02982F9095D6
:103B800091708E7F892B90FB81F9AFCF0E94F10756
:103B900080916E0287FB222720F991E0922790FB0B
:103BA00087F99ACF81E00E94440F80916E02909134
:103BB0006F020E94BE0E0E94F10780E001C081E00A
:103BC000DF91CF910895CF93DF9386319C4541F5E6
:103BD000EB010E94D50D982F8A8120910001309130
:103BE0000101882379F09A7A81E009F480E08093DA
:103BF0005902911102C069E201C065E3C9010E9446
:103C0000AC1E0AC080915902811102C069E201C054
:103C100065E3C9010E94AE1E0E94270E80E001C02C
:103C200081E0DF91CF91089590935F0280935E02CF
:103C30000895E0915E02F0915F02309721F00190CB
:103C4000F081E02D099480E00895E0915E02F0910A
:103C50005F02309721F00280F381E02D09940895EE
:103C6000E0915E02F0915F02309739F022E0DC01D2
:103C70002C930480F581E02D0994089520915C0235
:103C800030915D022817390771F090935D0280939F
:103C90005C02E0915E02F0915F02309721F00680B5
:103CA000F781E02D0994089520915A0230915B022A
:103CB0002817390771F090935B0280935A02E091C4
:103CC0005E02F0915F02309721F00084F185E02DD3
:103CD00009940895FC01329697E080E0915029F014
:103CE00021912223D9F38F5FF9CF0895662349F0FC
:103CF000FC01329608962191621729F0E817F9071E
:103D0000D1F780E0089581E008959C01FC0132968E
:103D10009FEF80E04191461789F09F3F19F44111D0
:103D200001C0982F8F5F8630A9F79F3F39F0F901C6
:103D3000E90FF11D97FDFA956283089508959C019E
:103D40002A5F3F4FFC014281461301C01282019657
:103D500082179307B9F708950C94851E0C949F1E43
:103D6000029626E0FC0111922A95E9F7089508953C
:103D700008950C94B81E0C94B81ECF930E94BB1EDD
:103D80000E9476130E94B91EC0E08C2F0E949912E7
:103D9000892B29F4CF5FC530C1F780E001C081E0F5
:103DA000CF9108950C94B81E0C94D21E8091C1023C
:103DB000843059F10E94D41E80E00E94D9030E94F1
:103DC000BC191092600220E488E190E00FB6F894EC
:103DD000A895809360000FBE2093600083B7817F19
:103DE000846083BF83B7816083BF7894889583B7ED
:103DF0008E7F83BF0FB6F894A8958091600088618C
:103E000080936000109260000FBE08950C94B81E5D
:103E10000E94F1070E94191E0E94D9030E94881A6D
:103E20000C94061F1F920F920FB60F9211248F93BE
:103E30009F93AF93BF9380916002811113C08091D3
:103E4000B9029091BA02A091BB02B091BC02419616
:103E5000A11DB11D8093B9029093BA02A093BB0239
:103E6000B093BC02BF91AF919F918F910F900FBE05
:103E70000F901F90189582E084BD93E095BD9AEF56
:103E800097BD80936E0008952FB7F8948091B90282
:103E90009091BA02A091BB02B091BC022FBF0895CD
:103EA0002FB7F8946091B9027091BA028091BB0269
:103EB0009091BC022FBF08959C014FB7F894809158
:103EC000B9029091BA02A091BB02B091BC024FBF5F
:103ED000821B930B089578941F920F920FB60F9246
:103EE00011248F939F93AF93BF938091B9029091C8
:103EF000BA02A091BB02B091BC020196A11DB11DF6
:103F00008093B9029093BA02A093BB02B093BC0213
:103F1000BF91AF919F918F910F900FBE0F901F9007
:103F2000189581E08093E00080E28093D8001092A1
:103F3000C9008FE19EE40197F1F700C0000087E01F
:103F400090EBDC018093CA029093CB02A093CC0249
:103F5000B093CD029CE088E10FB6F894A8958093C9
:103F600060000FBE90936000FFCF9093A5018093F7
:103F7000A401089580916C0208959091C10294303B
:103F800031F580936102709363026093620282E074
:103F90008093E9008FEF9091E800815095FD06C075
:103FA00095ED9A95F1F700008111F5CF8091E80029
:103FB00085FF0DC040E050E063E070E081E692E0F4
:103FC0000E94CD218091E8008E778093E8000895CB
:103FD000BC0184E00C94BD1FBC0183E00C94BD1FA8
:103FE00022E02093E9002FEF3091E800215035FDC9
:103FF00006C035ED3A95F1F700002111F5CF20917B
:10400000E80025FF0BC040E050E066E070E00E9451
:10401000CD218091E8008E778093E8000895CF93BA
:10402000DF9321E02093E9002FEF3091E800215049
:1040300035FD06C035ED3A95F1F700002111F5CFB9
:104040002091E80025FF14C0EC0140E050E068E05A
:1040500070E00E94CD218091E8008E778093E80087
:1040600088E0FE01A4E6B2E001900D928A95E1F7A6
:10407000DF91CF9108958091C002811109C00E9403
:104080005E230E94BB238091E20084608093E20063
:1040900008951092C002089508950895089542E089
:1040A00061EC81E00E94D72242E261EC82E00C9454
:1040B000D7228091C302833009F460C030F481308C
:1040C00071F0823009F499C008958A3009F485C0EE
:1040D0008B3009F46BC0893009F0A7C020C08091F3
:1040E000C202813A09F0A1C08091E800877F8093E5
:1040F000E8008091C6029091C702892B21F468E004
:1041000084E692E003C060E080E090E070E00E940E
:1041100018228091E8008B778093E80008958091C1
:10412000C202813209F081C08091C6029091C7021B
:10413000029708F07AC08091E800877F8093E800BA
:104140008091E80082FD05C08091C1028111F8CF05
:104150006CC02091F3008091F20090E0922B0297C6
:1041600029F48091F1008B7F813021F48091F1005E
:1041700080936C028091E8008B7753C08091C202DB
:10418000813A09F052C08091C6029091C702892BF2
:1041900009F04BC08091E800877F8093E800809110
:1041A000E80080FFFCCF80911A0136C08091C202E6
:1041B0008132D9F58091C6029091C702892BA9F569
:1041C0008091E800877F8093E8000E940C23809113
:1041D000C40280931A010C94F1078091C2028132CB
:1041E00021F58091E800877F8093E8000E940C23EE
:1041F0008091C50280936D0208958091C202813A38
:10420000A1F48091E800877F8093E8008091E80026
:1042100080FFFCCF80916D028093F1008091E800D7
:104220008E778093E8000C940C23089584B7877FE1
:1042300084BF0FB6F894A895809160008861809340
:104240006000109260000FBE90E080E80FB6F89416
:1042500080936100909361000FBE0C94740F0E94D4
:104260005E230E94BB23E2EEF0E0808184608083C5
:1042700078940E9450260E94820F80E191E00C9475
:10428000141E8091C1028530A9F48091C10285304D
:1042900079F40E94D61E8091BF028823B1F30E9458
:1042A000BD1E882391F30E94B7210E94F107EDCF34
:1042B0000E94081F0C948A0F0C945E21292F33272B
:1042C00023303105C9F060F42130310581F022300E
:1042D000310509F044C08BE390E022E834E043C0AC
:1042E00021323105E1F02232310549F138C082E155
:1042F00090E02DEB34E037C099278130910549F0EB
:1043000028F0029761F5E8E4F4E005C0EEE7F4E098
:1043100002C0E4E5F4E0849190E09F0124C06115BF
:10432000710541F061307105D1F489E090E02DEA2A
:1043300034E019C089E090E024E934E014C061154C
:10434000710541F06130710551F48BE790E02FEC7D
:1043500034E009C080E490E02AE435E004C080E065
:1043600090E020E030E0FA0131832083089580E17D
:1043700089BD82E189BD09B400FEFDCF8091D800DE
:104380008F7D8093D8008091E00082608093E00070
:104390008091E00081FDFCCF0895CF92DF92EF92F3
:1043A000FF920F931F93CF93DF93EC018B017A0160
:1043B0000E942B23811133C0E114F10439F0F7017D
:1043C00080819181081B190BC80FD91FC12CD12CDA
:1043D0000115110519F18091E80085FD16C0809145
:1043E000E8008E778093E800E114F10449F0F701CA
:1043F00080819181C80ED91ED182C08285E00FC014
:104400000E942B23882321F30AC089918093F10015
:1044100001501109FFEFCF1ADF0ADACF80E0DF91F8
:10442000CF911F910F91FF90EF90DF90CF90089563
:104430002091C8023091C9022617370748F061154C
:10444000710539F42091E8002E772093E80001C02F
:10445000B901FC0120E06115710579F18091C1027B
:104460008823F1F18530F1F18091E80083FD3CC0B3
:104470008091E80082FD2EC08091E80080FFEBCFA4
:104480002091F3008091F20090E0922B611571056C
:1044900051F08830910538F421912093F10061505A
:1044A00071090196F3CF21E0089709F020E080918F
:1044B000E8008E778093E800CECF2111CFCF0AC0DD
:1044C0008091C102882361F0853061F08091E8001D
:1044D00083FD0AC08091E80082FFF2CF80E008955A
:1044E00082E0089583E0089581E008952091C80254
:1044F0003091C9022617370748F06115710539F464
:104500002091E8002E772093E80001C0B901FC015A
:1045100020E06115710591F18091C102882309F4B1
:1045200040C0853009F43FC08091E80083FD3DC064
:104530008091E80082FD2FC08091E80080FFE9CFE4
:104540002091F3008091F20090E0922B61157105AB
:1045500059F08830910540F424912093F100319670
:10456000615071090196F2CF21E0089709F020E02F
:104570008091E8008E778093E800CBCF2111CCCFDB
:104580000AC08091C102882361F0853061F080917A
:10459000E80083FD0AC08091E80082FFF2CF80E04E
:1045A000089582E0089583E0089581E00895982FAA
:1045B000973068F59093E900981739F07091EC0006
:1045C0002091ED005091F00003C0242F762F50E091
:1045D00021FD02C09F5FECCF3091EB003E7F309316
:1045E000EB003091ED003D7F3093ED003091EB001A
:1045F00031603093EB007093EC002093ED0050930A
:10460000F0002091EE0027FDE5CF80E008958F7047
:104610008093E90081E008958091C20287FF11C074
:104620008091E80082FD05C08091C1028111F8CF20
:1046300011C08091E8008B770BC08091C102882364
:1046400049F08091E80080FFF8CF8091E8008E77F4
:104650008093E80008952091E4003091E50095E60C
:104660004091EC00842F817040FF23C08091E800CE
:1046700080FD1DC08091C102882399F0853099F09A
:104680008091EB0085FD11C04091E4005091E50060
:104690002417350729F3915011F09A01E1CF84E0F6
:1046A000089582E0089583E0089581E0089580E010
:1046B00008954091E80042FFDDCF08950E94CC2389
:1046C0000E94D423E0EEF0E0808181608083E8EDF9
:1046D000F0E080818F77808319BCA7EDB0E08C91EA
:1046E0008E7F8C9380818F7E80831092C00208958C
:1046F0000F931F93CF93DF930E94CC230E94D42368
:10470000C8EDD0E088818F7788838881806888832E
:1047100088818F7D888319BC1092C1021092BD02DE
:104720001092BF021092BE0200EE10E0F8018081EC
:104730008B7F808388818160888342E060E080E0B5
:104740000E94D722E1EEF0E080818E7F8083E2EE4E
:10475000F0E0808181608083808188608083F801BF
:1047600080818E7F8083888180618883DF91CF9173
:104770001F910F910895E8EDF0E080818F7E808396
:10478000E7EDF0E080818160808384E082BF81E09A
:104790008093C0020C947823E8EDF0E080818E7F56
:1047A00080831092E20008951092DA001092E100E6
:1047B00008951F920F920FB60F9211242F933F93DB
:1047C0004F935F936F937F938F939F93AF93BF9319
:1047D000EF93FF938091E10082FF0BC08091E20094
:1047E00082FF07C08091E1008B7F8093E1000E94EF
:1047F0004F268091DA0080FF1FC08091D80080FF93
:104800001BC08091DA008E7F8093DA008091D900FE
:1048100080FF0DC080E189BD82E189BD09B400FE41
:10482000FDCF81E08093C1020E943B2005C019BCEE
:104830001092C1020E9449208091E10080FF19C0BE
:104840008091E20080FF15C08091E2008E7F80930E
:10485000E2008091E20080618093E2008091D800C4
:1048600080628093D80019BC85E08093C1020E94C9
:104870004D208091E10084FF30C08091E20084FFF0
:104880002CC080E189BD82E189BD09B400FEFDCF65
:104890008091D8008F7D8093D8008091E1008F7E39
:1048A0008093E1008091E2008F7E8093E20080910E
:1048B000E20081608093E2008091BD02882311F0C4
:1048C00084E007C08091E30087FD02C081E001C061
:1048D00083E08093C1020E944E208091E10083FF1B
:1048E00029C08091E20083FF25C08091E100877F8D
:1048F0008093E10082E08093C1021092BD0280911A
:10490000E1008E7F8093E1008091E2008E7F8093B2
:10491000E2008091E20080618093E20042E060E08A
:1049200080E00E94D7228091F00088608093F000A0
:104930000E944C20FF91EF91BF91AF919F918F9179
:104940007F916F915F914F913F912F910F900FBE8B
:104950000F901F9018951F920F920FB60F9211246F
:104960002F933F934F935F936F937F938F939F9377
:10497000AF93BF93CF93DF93EF93FF93C091E90081
:10498000CF708091EC00D82FD17080FDD0E81092CC
:10499000E9008091F000877F8093F00078940E9476
:1049A000EF241092E9008091F00088608093F0007D
:1049B000CD2BCF70C093E900FF91EF91DF91CF91A4
:1049C000BF91AF919F918F917F916F915F914F9127
:1049D0003F912F910F900FBE0F901F9018951F932E
:1049E000CF93DF93CDB7DEB7AA970FB6F894DEBFAB
:1049F0000FBECDBFE2ECF2E08091F100819322E0A6
:104A0000EA3CF207C9F70E9459208091E80083FF31
:104A10002EC18091C2029091C302492F50E04A30CA
:104A2000510508F024C1FA01EC58FF4F0C9493266D
:104A3000803821F0823809F01AC108C08091BE0286
:104A40009091BF02992389F082600FC08091C602C5
:104A50008F70873008F00BC18093E9008091EB00E4
:104A600085FB882780F91092E9009091E800977FF4
:104A70009093E8008093F1001092F100D1C0282FAC
:104A80002D7F09F0F4C0882319F0823061F0EFC067
:104A90008091C402813009F0EAC0933009F080E0CF
:104AA0008093BF022EC08091C40281112AC08091E0
:104AB000C6028F702FEF280F263008F0D8C08093E1
:104AC000E9002091EB0020FF1CC0933021F480917D
:104AD000EB00806214C09091EB0090619093EB002A
:104AE00021E030E0A90102C0440F551F8A95E2F78A
:104AF0004093EA001092EA008091EB008860809376
:104B0000EB001092E9008091E800877F8093E80035
:104B10000E940C23ACC08111AAC01091C4021F775F
:104B20008091E3008078812B8093E3008091E800FE
:104B3000877F8093E8000E940C238091E80080FF2B
:104B4000FCCF8091E30080688093E300111102C0E4
:104B500082E001C083E08093C10289C08058823026
:104B600008F085C08091C4029091C5028C3D53E04D
:104B7000950779F583E08A838AE289834FB7F894B1
:104B8000DE01139620E03EE051E2E32FF0E0509387
:104B90005700E49120FF03C0E295EF703F5FEF7094
:104BA0008E2F90E0EA3010F0C79601C0C0968D932A
:104BB0009D932F5F243149F74FBF8091E800877F95
:104BC0008093E8006AE270E0CE0101960E9418220C
:104BD00016C06091C6027091C702AE014F5F5F4F71
:104BE0000E945C21BC01892B09F441C09091E8002E
:104BF000977F9093E80089819A810E947622809124
:104C0000E8008B778093E80032C0803881F580918E
:104C1000E800877F8093E8008091BD028093F100D7
:104C20008091E8008E7772CF811121C08091C402FB
:104C30009091C50299270297D4F48091E800877F6C
:104C40008093E8008091C4028093BD020E940C23EF
:104C50008091BD02811106C08091E30087FD02C0F2
:104C600081E001C084E08093C1020E944F208091C6
:104C7000E80083FF0AC08091E800877F8093E80006
:104C80008091EB0080628093EB00AA960FB6F894B7
:104C9000DEBF0FBECDBFDF91CF911F910895089564
:104CA000CF938091C1028823A1F0C091E900CF7019
:104CB0009091EC00892F817090FD80E8C82B1092B4
:104CC000E9008091E80083FD0E94EF24CF70C0933B
:104CD000E900CF910895AA1BBB1B51E107C0AA1F91
:104CE000BB1FA617B70710F0A61BB70B881F991F8D
:104CF0005A95A9F780959095BC01CD01089597FB31
:104D0000072E16F4009407D077FD09D00E946B2679
:104D100007FC05D03EF4909581959F4F08957095BE
:104D200061957F4F0895EE0FFF1F0590F491E02DE0
:104D30000994FC014150504030F001900616D1F723
:104D40003197CF010895882799270895FB01DC0149
:104D500004C08D910190801921F441505040C8F752
:104D6000881B990B0895F999FECF92BD81BDF89AE1
:104D7000992780B50895A6E1B0E044E050E00C9496
:104D8000ED26A8E1B0E042E050E00C94ED26262F9D
:104D9000F999FECF92BD81BDF89A019700B4021631
:104DA00039F01FBA20BD0FB6F894FA9AF99A0FBEDF
:104DB00008950396272F0E94C8260E94C726252FF4
:104DC0000E94C826242F0C94C8260196272F0E94E3
:104DD000C8260C94C726DC01CB01FC01F999FECF53
:104DE00006C0F2BDE1BDF89A319600B40D92415073
:0A4DF0005040B8F70895F894FFCF83
:104DFA001B022808641E140A321E0010001010013B
:104E0A00BA1F0F20F01FEC1FE81F01E200E900EAB9
:104E1A0000B500B600B700CD008301CC008A01922C
:104E2A000194012102230224022502260227022AD2
:104E3A0002B300B4006F007000818283E200E900CF
:104E4A00EA00B500B600B700CD008301CC008A01A4
:104E5A00920194012102230224022502260227023A
:104E6A002A02B300B4006F007000818283C6F0F199
:104E7A00F4F5F6F767663635349796939232313001
:104E8A0094910001020202020606060909090909AB
:044E9A00090F1000EC
:00000001FF
