:100000000C9434030C947B030C947B030C947B03BF
:100010000C947B030C947B030C947B030C947B0368
:100020000C947B030C947B030C94992B0C946B2CF9
:100030000C94A7260C947B030C947B030C947B03F9
:100040000C947B030C947B030C947B030C947B0338
:100050000C94DE200C9400270C947B030C947B03FF
:100060000C947B030C947B030C947B030C947B0318
:100070000C947B030C947B030C947B030C947B0308
:100080000C947B030C947B030C947B030C947B03F8
:100090000C947B030C947B030C947B030C947B03E8
:1000A0000C947B030C947B030C947B035106510648
:1000B0007D067D06E5060307280828080E07A30726
:1000C000B407B4071808280828082108CC08CC0869
:1000D000DE08DE08D508DE08DE08DE08CC08CC081D
:1000E000DA08DE08DE08DA08ED1FEF1FF41FF71F3D
:1000F000FA1FFD1F002089237F238C23D423D823BC
:10010000D823D423D823D823AD23D823B723C1237E
:10011000D823D823D823D823D423D823D823D4230F
:10012000D8239A23D823D823D123D123D123D12351
:10013000D123D123D123D123D123D623D82389235B
:100140007C23D823D823D823D823D823D823D82333
:10015000D823D823D823D623D823D823D423D823CD
:10016000CF23CF23CF23CF23CF23CF23CF23CF23FF
:10017000CF23D623D82CFF2CF72DFF2CF72D4B2D7A
:100180006E2DF72DC52DD42D29003A003C003E00E0
:100190004000420044004600480000003B003D0093
:1001A0003F004100430045004700000035001F00AC
:1001B00021002300250027002E0049004B001E00CF
:1001C00020002200240026002D002A004A00000002
:1001D0002B001A0015001C000C00130030004C000E
:1001E0004E00140008001700180012002F00310004
:1001F0004D0000003900160009000B000E0033000E
:100200004C0000000000040007000A000D000F0071
:100210003400280000000000E1001D000600050079
:1002200010003700E5000000000031001B0019003D
:100230001100360038004C0052000000E000E200DF
:1002400000002C000000E600650050004F00E300B5
:100250000000000000000000E700E4005100000082
:1002600000047F3F1F643214643214783C1E1E1455
:100270000A052223252628292A2C2D2F3032333512
:1002800036383A3B3D3E4042434547494A4C4E5042
:1002900051535557595A5C5E6062646668696B6D6C
:1002A0006F71737577797B7D7F81838587898A8C70
:1002B0008E90929496989A9C9E9FA1A3A5A7A8AA77
:1002C000ACAEAFB1B3B4B6B8B9BBBCBEBFC1C2C3AC
:1002D000C5C6C7C9CACBCCCDCED0D1D2D2D3D4D546
:1002E000D6D7D7D8D9D9DADADBDBDBDCDCDCDCDC6F
:1002F000DDDDDDDDDCDCDCDCDCDBDBDBDADAD9D947
:10030000D8D7D7D6D5D4D3D2D2D1D0CECDCCCBCAD4
:10031000C9C7C6C5C3C2C1BFBEBCBBB9B8B6B4B3FA
:10032000B1AFAEACAAA8A7A5A3A19F9E9C9A989690
:100330009492908E8C8A89878583817F7D7B797763
:100340007573716F6D6B6968666462605E5C5A5943
:1003500057555351504E4C4A4947454342403E3D04
:100360003B3A3836353332302F2D2C2A2928262592
:100370002322FFAA7F55400000000000000000007B
:10038000000001010203040506080A0C0F111418ED
:100390001C2024292E33393F464C535B626A717905
:1003A000818A929AA2AAB2B9C1C8CFD5DCE1E7EBA3
:1003B000F0F4F7FAFCFDFEFFFEFDFCFAF7F4F0EBBB
:1003C000E7E1DCD5CFC8C1B9B2AAA29A928A8179F5
:1003D000716A625B534C463F39332E2924201C1826
:1003E00014110F0C0A0806050403020101000000A5
:1003F00000000000000000000101010101010101F5
:1004000001020202020202020202030303030303C7
:100410000303040404040404040505050505060695
:100420000606060707070707080808080909090953
:100430000A0A0A0B0B0B0C0C0C0D0D0D0E0E0E0FF9
:100440000F0F101011111112121313141415151689
:10045000161717181819191A1A1B1B1C1D1D1E1EFA
:100460001F2020212222232424252626272829294B
:100470002A2B2C2D2D2E2F30313232333435363776
:1004800038393A3B3C3D3E3F404142434445464774
:1004900048494A4C4D4E4F50515354555658595A4D
:1004A0005B5D5E5F616264656668696B6C6D6F70F1
:1004B00072737577787A7B7D7E8082838587888A60
:1004C0008C8E8F91939596989A9C9EA0A2A3A5A797
:1004D000A9ABADAFB1B3B5B7BABCBEC0C2C4C6C993
:1004E000CBCDCFD1D4D6D8DBDDDFE2E4E7E9EBEE4C
:1004F000F0F3F5F8FAFDFF16034B00420044003814
:100500000058002D004D004B00490049000000102C
:10051000034B0042004400660061006E007300005F
:10052000000403090409023B00020100A0FA0904C7
:100530000000010301010009211101000122400016
:100540000705810308000A090401000103000000F7
:1005500009211101000122B6000705820320000ACB
:10056000120100020000000803A1050001000102C1
:10057000000105010902A10185020901A100050987
:100580001901290815002501950875018102050149
:10059000093009311581257F9502750881060938D2
:1005A0001581257F950175088106050C0A3802150D
:1005B00081257F950175088106C0C005010980A1CC
:1005C00001850319012AB700150126B700950175A9
:1005D000108100C0050C0901A101850419012AA0A0
:1005E00002150126A002950175108100C0050109C0
:1005F00006A1018506050719E029E71500250195E3
:1006000008750181020507190029EF1500250195DC
:10061000F0750181020508190129059505750191FB
:1006200002950175039101C005010906A1010507A5
:1006300019E029E71500250195087501810295014A
:10064000750881010507190029FF150026FF00958F
:1006500006750881000508190129059505750191A0
:1006600002950175039101C011241FBECFEFDAE09E
:10067000DEBFCDBF04B603FE27C080917503909105
:100680007603A0917703B09178038730904BA74011
:10069000B04BD1F410927503109276031092770349
:1006A0001092780314BE84B7877F84BF0FB6F89486
:1006B000A89580916000886180936000109260002E
:1006C0000FBEE0E0F8E3099511E0A0E0B1E0E4E757
:1006D000FEE502C005900D92AA3CB107D9F723E0D0
:1006E000AAECB1E001C01D92A537B207E1F70E9464
:1006F000E5140C94382F0C94000081E0089581E0FB
:1007000008950C947F0308950C9483031F93CF9353
:10071000DF9300D000D01F92CDB7DEB749835A8354
:100720006B833091CC0189819A81311114C0662389
:1007300059F0222349F00E94700A182F682F8981EE
:100740009A810E94190A03C00E94440A182F6981E5
:100750007A81812F04C00E94700A69817A810F908A
:100760000F900F900F900F90DF91CF911F910C94ED
:100770002C11FC01262F408151816281738184817B
:100780000C94860381E00895CF93DF93EC0160E041
:100790000E94B903BE01DF91CF910C9484030E94A3
:1007A00059130E9477040E9464210C9496130C94B0
:1007B000921380E00E94962080E00E947C040C94BA
:1007C000751C08950C94E1030E94BA080E94E2038C
:1007D0002FEF84E39CE0215080409040E1F700C07F
:1007E00000000C9426270F931F93CF93DF938C0167
:1007F00061E00E94B903EC01B8010E9481038823E3
:1008000009F44BC0B801CE010E94DE1F882309F411
:1008100044C0B801CE010E94CB248823F1F1B80175
:10082000CE010E94A5218823C1F1B801CE010E940A
:100830002724882391F1B801CE010E94F81D882356
:1008400061F1F8018281882309F1CB358DE5D80764
:10085000C1F050F4C115FCE5DF0781F0CF3DDC4568
:10086000A9F40E94241019C0CC35EDE5DE0761F033
:10087000CD35DD4559F40E94670F08C00E94E4039E
:100880000CC00E94700F02C00E94730FC801DF915C
:10089000CF911F910F910C947D0380E0DF91CF9158
:1008A0001F910F9108950C94E1030E94021F0E9472
:1008B00027250E947C040E94411D0C945304089536
:1008C0000C945F0481E00895CF93C82F0E946204C6
:1008D000882359F0C095C1FF02C0769A01C076986E
:1008E000C2FF02C02A9A01C02A98CF9108956E9A39
:1008F000769A229A2A9A0895CF93C82F0E9460046C
:100900008C2F0E946404CF910895CF93DF93CDB7CD
:10091000DEB72B970FB6F894DEBF0FBECDBF4F8367
:10092000588769877A878B8761110E94B30E9E0171
:100930002F5F3F4F86E0F90111928A95E9F785E034
:10094000FE013796D90101900D928A95E1F78981D0
:100950009A814C815D81452B31F09F3F31F491E0CC
:100960008F3F19F403C091E001C090E090FF09C0EF
:1009700049815A816B817C818D819E810E94D40D39
:1009800005C0C9010E94C2038111F2CF2B960FB698
:10099000F894DEBF0FBECDBFDF91CF910895FC016B
:1009A000808191810E94B20A0895CF93882309F42F
:1009B000A9C0C82F8238C1F40E94272581FDA2C09A
:1009C00069E380910201909103010E941D260E941B
:1009D000E50E2FEF81EE94E0215080409040E1F74A
:1009E00000C0000069E319C0833801F50E94272583
:1009F00080FD88C063E580910201909103010E940F
:100A00001D260E94E50E2FEF81EE94E021508040DC
:100A10009040E1F700C0000063E5809102019091F1
:100A200003010E942826CF910C94E50E8438C1F46E
:100A30000E94272582FD66C067E4809102019091A3
:100A400003010E941D260E94E50E2FEF81EE94E027
:100A5000215080409040E1F700C0000067E4DDCF06
:100A60008CEF8C0F813AF8F48C2F0E94DE238111D9
:100A700049C06C2F80910201909103010E949D2535
:100A8000882349F06C2F80910201909103010E940C
:100A900028260E94E50E6C2F80910201909103019F
:100AA0000E941D26C0CF80E28C0F883048F4C770AA
:100AB00081E001C0880FCA95EAF70E94960EB3CF75
:100AC000EBE5EC0FE33040F4F0E0E45AFE4F8081B8
:100AD00090E0CF910C945B25E8E5EC0FE73150F402
:100AE000F0E0EE0FFF1FE25DFE4F80819181CF911C
:100AF0000C947125CD3E30F08C2F0E947415CF914F
:100B00000C944616CF910895882309F464C0823866
:100B100079F40E94272581FF5EC069E3809102017C
:100B2000909103010E941D260E94E50E69E310C00A
:100B30008338B1F40E94272580FF4DC063E5809182
:100B40000201909103010E941D260E94E50E63E5BB
:100B500080910201909103010E9428260C94E50ED9
:100B6000843879F40E94272582FF35C067E480919C
:100B70000201909103010E941D260E94E50E67E488
:100B8000E7CF9CEF980F913A10F4682FE1CF90E2F5
:100B9000980F983050F4877091E001C0990F8A95B2
:100BA000EAF7892F0E949C0ED9CF9BE5980F9330CE
:100BB00020F480E090E00C945B2598E5980F973145
:100BC00020F480E090E00C9471258D3E20F00E948E
:100BD000CF150C94461608951F93CF93DF93182FCB
:100BE000EB010E94D504209741F08FE99FE0019727
:100BF000F1F700C000002197F6CF812FDF91CF9150
:100C00001F910C948405893319F060E070E002C0F4
:100C100060E570E00C94EC05882321F00E94960EAC
:100C20000C94E50E0895882321F00E949C0E0C94EC
:100C3000E50E0895CF92DF92EF92FF920F931F93EC
:100C4000CF93DF937C01162FC72FFC01D281058142
:100C500002950F700E948C0E8823B9F0DD23A9F055
:100C60008C2F807F803421F080E2810F883068F003
:100C70008091F10282FD09C082E00E94350F0E943E
:100C80008C0E91E0D82ED92601C0D12CCC2EC29446
:100C90008FE0C8228C2D90E0FC01EA5AFF4F0C94A3
:100CA000932E8C2F807FCF70882311F0C295C07F48
:100CB000DD2399F0CC2309F4A6C180E2810F8830AE
:100CC00010F0111104C08C2F0E94960E03C08C2FBF
:100CD0000E94A60E0E94E50E96C1812F0E948405F7
:100CE000CC2309F4B5C180E2810F883038F111239B
:100CF00029F18C2F0E94AC0E24C08C2F807FCF70E6
:100D0000803211F0C295C07F112319F01130A1F18A
:100D10003DC08091F10282FF17C0DD2349F0CC2352
:100D200029F08C2F0E94960E0E94E50E80E06CC187
:100D300080E00E948405CC2309F48AC18C2F0E9494
:100D40009C0E0E94E50E84C1DD2371F0002341F06A
:100D5000013031F40E94C60E8C2B0E94CE0E78C159
:100D60000E94C60E8C2B1DC0002319F0013009F41F
:100D70006FC10E94DB0E25C0DD2321F0063008F094
:100D800067C10EC0053008F063C11BC0DD2361F0F0
:100D9000002331F0F701858180FF35C18F70858395
:100DA0008C2F0E940C0654C1002359F0193309F00E
:100DB0003BC1FFEF27EE83E0F15020408040E1F798
:100DC00031C18C2F0E94130643C18C2F86958695C6
:100DD000837019F0813061F03BC1DD2321F0812F58
:100DE0009C2F937002C080E090E00E945B2538C188
:100DF000DD2321F0812F9C2F937002C080E090E0D2
:100E00000E9471252DC1812FDD2319F00E947415D8
:100E100002C00E94CF150E94461622C18C2F8370FB
:100E200009F045C0D11118C1412F42954695477030
:100E3000440F440F612F6F70862F90E0A0E0B0E068
:100E4000042E04C0880F991FAA1FBB1F0A94D2F753
:100E500014FF10C00FE010E020E030E004C0000FED
:100E6000111F221F331F4A95D2F700951095209528
:100E7000309503C000E010E09801C695C695C37098
:100E8000BC01CD01602B712B822B932BC23049F01A
:100E900058F4C13019F00E942F09DEC00E941D09CC
:100EA000DBC00E944109D8C00E941B09D5C0DD23C8
:100EB00019F08C2F817001C08695882309F4CCC06D
:100EC000412F429546954770440F440F612F6F7034
:100ED000862F90E0A0E0B0E0042E04C0880F991F98
:100EE000AA1FBB1F0A94D2F714FF10C00FE010E036
:100EF00020E030E004C0000F111F221F331F4A956D
:100F0000D2F7009510952095309503C000E010E0D1
:100F10009801C695C695C370BC01CD01602B712B9D
:100F2000822B932BC23049F058F4C13019F00E9443
:100F3000F40992C00E94E2098FC00E94060A8CC088
:100F40000E94550989C0CF70DD2339F08C2F0E9493
:100F50007B09812F0E940C067FC0812F0E941306FF
:100F60008C2F0E949C0978C0123F21F128F4103F79
:100F700041F0113FC1F043C0133F19F1143F79F024
:100F80003EC0DD2341F0053008F062C08C2F8F7128
:100F90000E94C1095DC0063008F05AC0F7CF8091A9
:100FA000F10282FF18C0DD2339F08C2F8F710E946F
:100FB0007B094EC0DD23C9F38C2F8F710E949C09E1
:100FC00047C0DD2329F08C2F8F710E94660940C035
:100FD0000E9461093DC0DD2349F0CF718C2F0E9432
:100FE0007B0963E08C2F0E941A0F32C081E00E94BF
:100FF000350F023068F182E00E94350F29C0DD23F1
:1010000031F0002391F2812F0E94D50421C00023EA
:1010100099F2193349F49FEFE7EEF3E09150E04085
:10102000F040E1F700C00000812F0E94840510C04D
:101030004C2F4F70612FC7010E9428110E94E00AB7
:101040000FC04C2F4F70612FC7010E942B1108C099
:1010500088EF8C0D843020F40E9427250E947C04A8
:10106000DD20C9F00E94880E80FD15C0F7011282B4
:101070000E94820E0E947B09C7010E946C080E9498
:10108000820EDF91CF911F910F91FF90EF90DF9033
:10109000CF900C949C09DF91CF911F910F91FF90FD
:1010A000EF90DF90CF9008950F931F93CF93DF932E
:1010B000EC01688179818A810E94BD0A8C010E94BD
:1010C000180A0E940909B801CE010E941A06DF9190
:1010D000CF911F910F910895CF93DF93EC019881E9
:1010E00089812B813C81232B31F08F3F31F481E0CA
:1010F0009F3F19F403C081E001C080E080FD1DC066
:10110000CE010E94F303811110C00E948C0E88232F
:10111000A1F08A81882389F08091F10282FD0DC0BF
:1011200082E0DF91CF910C94350FCE010E945408DC
:10113000CE01DF91CF910C94C403DF91CF9108953C
:1011400080E090E00E945B2580E090E00E947125A5
:101150000E94B30E0E94C30E0E94E50E0E947717F4
:101160000C94461680910201909103010E9433264F
:101170000C94A0080E94A30E0C94B208E92FE295EB
:10118000EF704E2F50E0FA013297EE30F105B0F4D7
:10119000EA59FF4F0C94932E803F91F018F4883E4B
:1011A00068F40EC0843F51F40BC0883E48F0813F84
:1011B00029F406C093FB882780F9089580E00895FC
:1011C00081E00895FC01808191810E94B20A0E9411
:1011D000BE080895CF93DF9300D000D01F92CDB703
:1011E000DEB70F900F900F900F900F90DF91CF917F
:1011F0000895CF93DF9300D000D000D0CDB7DEB7F5
:1012000026960FB6F894DEBF0FBECDBFDF91CF910B
:101210000895089508950C940A090C940B090E94EE
:101220000D0960931702709318028093190290932E
:101230001A020C94A0080C940F090F931F930091AD
:101240001702109118022091190230911A02602B96
:10125000712B822B932B1F910F910C940F090F93DD
:101260001F930091170210911802209119023091DA
:101270001A0260237123822393231F910F910C94F0
:101280000F090F931F9300911702109118022091DC
:10129000190230911A0260277127822793271F9124
:1012A0000F910C940F090C940A090E945309609342
:1012B00013027093140280931502909316020C94FB
:1012C000A00860E070E0CB010C9455090F931F93C8
:1012D00041E050E060E070E08A019B0104C0000F33
:1012E000111F221F331F8A95D2F7C901B8011F9120
:1012F0000F910C9455090F931F9341E050E060E06B
:1013000070E004C0440F551F661F771F8A95D2F7FF
:101310008091130290911402A0911502B0911602CF
:101320008A019B01082B192B2A2B3B2BC901B801E1
:101330001F910F910C9455090F931F9341E050E0BA
:1013400060E070E004C0440F551F661F771F8A9548
:10135000D2F74095509560957095809113029091C9
:101360001402A0911502B09116028A019B01082374
:1013700019232A233B23C901B8011F910F910C9413
:1013800055090F931F9341E050E060E070E004C006
:10139000440F551F661F771F8A95D2F7809113025D
:1013A00090911402A0911502B09116028A019B013E
:1013B000082719272A273B27C901B8011F910F9138
:1013C0000C9455090F931F9300911302109114026E
:1013D0002091150230911602602B712B822B932BDA
:1013E0001F910F910C9455090F931F9300911302B5
:1013F000109114022091150230911602602371237E
:10140000822393231F910F910C9455090F931F93DF
:1014100000911302109114022091150230911602CE
:1014200060277127822793271F910F910C945509EC
:10143000089529E0929F800D1124E82FE695E69506
:10144000E695877051E001C0550F8A95EAF785E06F
:10145000E89FF0011124E353FE4F20E030E070E0FC
:101460004081CB01022E02C0969587950A94E2F73F
:101470008170819584278523842781932F5F3F4F37
:101480002530310569F7089529E0929F800D1124D8
:10149000682F669566956695982F977085E0689F8A
:1014A000B001112440E050E080E0FB01E40FF51FA3
:1014B000E353FE4F208130E0092E02C03695279578
:1014C0000A94E2F721703327042E01C0220F0A94F8
:1014D000EAF7822B4F5F5F4F4530510531F7089592
:1014E000BF92CF92DF92EF92FF920F931F93CF9311
:1014F000DF938C01C0901302D0901402E09015028B
:10150000F09016028091170290911802A091190292
:10151000B0911A02C82AD92AEA2AFB2ACFE1D0E0E0
:10152000D701C6010C2E04C0B695A795979587954F
:101530000A94D2F780FD04C0219790F7B12C07C020
:10154000BC2EB8018C2F0E9463120197A9F38B2D3A
:10155000DF91CF911F910F91FF90EF90DF90CF908F
:10156000BF900895CF93DF93EC010E94700ABE01F3
:101570000E946312DF91CF9108951F93CF93DF9361
:10158000EB019091CC01992321F0CB010E94B20A8A
:1015900013C0882349F0CB010E94700A182F682FCE
:1015A000CE010E94190A04C0CB010E94440A182FE0
:1015B000BE01812F0E946312DF91CF911F91089588
:1015C000EF92FF920F931F93CF93DF938C01892BA0
:1015D00009F46CC0F12CEE24E394E8012196F801A3
:1015E0008491843740F4843008F051C0813081F018
:1015F000823019F15BC0853709F444C0A8F19CE73B
:10160000980F903708F052C08F770E94840541C030
:101610000E5F1F4FFE01849190E2980F983050F4B6
:101620008770FE2D01C0FF0F8A95EAF78F2F0E9469
:10163000B60E14C00E94D5042DC00E5F1F4FFE01D0
:10164000849190E2980F983060F48770FE2D01C06D
:10165000FF0F8A95EAF78F2F0E94BC0E0E94E50EBD
:1016600019C00E94840516C00E5F1F4FFE01C49171
:10167000CC2381F08FE99FE00197F1F700C00000D3
:10168000C150F6CF0E5F1F4FFE01F49003C00E94C1
:10169000D5048E018F2D882309F49FCFEFE9FFE059
:1016A0003197F1F700C000008150F5CFDF91CF9165
:1016B0001F910F91FF90EF9008951F93CF93DF93A9
:1016C000C0911B0216E080911C02C81799F0D0E06F
:1016D0001C9FF0011D9FF00D1124E35EFD4F408122
:1016E000518162817381848195810E94F9082196DC
:1016F000C770E9CFDF91CF911F91089540914D02BE
:1017000050914E0260914F027091500280915102AF
:10171000909152020C94F908EF92FF920F931F934D
:10172000CF93DF938091520282958F7009F065C04C
:1017300080914F02882309F460C080911B02F090D1
:101740001C0210914D0200914E0260915002709166
:10175000510291E01F3F09F090E0C0910001D0914B
:101760000101292F96E0E92E8F1509F446C0611575
:10177000710521F00F3F21F030E003C031E001C0DE
:10178000322F90E030FD36C0E89EF001E99EF00D6A
:101790001124DF01A35EBD4F11963C9111973013C8
:1017A00029C03C91311326C012963C9112973111F9
:1017B00021C013964D915C911497461B570B4C1703
:1017C0005D07C0F4809152028F7080618093520255
:1017D000EE5DFD4F80818F70806180838DE492E0AB
:1017E0000E946C08DF91CF911F910F91FF90EF90B5
:1017F0000C945D0B01968770B7CFDF91CF911F914D
:101800000F91FF90EF9008959F92AF92BF92CF9269
:10181000DF92EF92FF920F931F93CF93DF93CDB799
:10182000DEB761970FB6F894DEBF0FBECDBF8C0157
:1018300085E0F801DE011D9601900D928A95E1F791
:10184000D8011296EC9090914D02E0914E022091B9
:101850005002309151022115310531F0EF3F31F442
:1018600081E09F3F19F403C081E001C080E0B82F00
:10187000B1709B2E80FD47C1D8014C9111965C91AF
:1018800011971396AD90BC9014978DE4C82E82E00A
:10189000D82EF0904F02B501621B730B209100010E
:1018A00030910101FF2009F4D9C0809152026217E2
:1018B000730708F095C0282F207F09F052C05E13EF
:1018C00013C0491311C0FE2CE1100EC08F7080614F
:1018D000809352020E947E0BC6010E946C08809188
:1018E0005202F80185834DC1AB2831F05F3F31F4DE
:1018F00081E04F3F19F403C081E001C080E080FD2A
:1019000003C081E08E2502C080E090E0F82FF170E6
:10191000FF2E80FF1CC080911B0220911C0236E02C
:10192000821709F40BC190E0389FF001399FF00D48
:101930001124E35EFD4F6181561306C0608146139A
:1019400003C06281E61203C001968770E9CFFE2CC6
:10195000EE2009F416C180915202816080935202F8
:1019600054C05E1306C0491304C0E11002C0F80160
:1019700099C0C8010E94E208882361F1EE2051F16C
:1019800020915202822F82958F7090E0029774F01E
:1019900080914D0290914E0298878F831986BB8665
:1019A000AA862C87CE0107960E946C0886E0F80173
:1019B000ADE4B2E001900D928A95E1F70E948C0BA4
:1019C0000E947E0B0AC05E1711F1C8010E94E20856
:1019D00081112CC0C8010E946C08FF24F394D1C06F
:1019E000282F207F81F77A2DB98AA88A6E2D8989C0
:1019F0000E94EA088DE492E00E946C0886E0D6011D
:101A00001D928A95E9F70E947E0BF12CBAC049130A
:101A1000DCCFE110DACFF8018583C8010E946C08A1
:101A200086E0D6011D928A95E9F7ABC0EE2091F2CF
:101A300020915202822F82958F7090E002970CF4D1
:101A4000B5CF80914D0290914E029A8389831B827B
:101A5000BD82AC822E83CE010196A6CF621773079A
:101A600008F044C0FE2CEE2009F4B4CF5E1330C061
:101A700049132EC02091520220FD21C0822F829551
:101A80008F70482F50E041155105C9F0F8012583AA
:101A90004F30510541F08F5F982F9295907F822FA4
:101AA0008F70892B8583C8010E946C0886E0F8013D
:101AB000ADE4B2E001900D928A95E1F73CC086E07A
:101AC000F801ADE4B2E001900D928A95E1F759C0BA
:101AD000C8010E94E208811169CF809152028160A1
:101AE00080935202C8010E946C084BC07A2DB98ABB
:101AF000A88A6E2D89890E94EA0886E0D6011D9287
:101B00008A95E9F718C0EE2009F464CFC8010E9455
:101B1000E208F82E882309F45DCF86E0F801ADE4F1
:101B2000B2E001900D928A95E1F78DE492E00E9477
:101B3000CF040E948C0B0E947E0B23C04D875E87D2
:101B40008D859E850E94B20A292F22952F70223002
:101B500028F49F7039F0811105C00BC0243028F49F
:101B60009F7049F4805E883020F0C8010E946C08A4
:101B70009F2CF92C06C0D80115969C91907F91F767
:101B8000F8CF8F2D61960FB6F894DEBF0FBECDBF94
:101B9000DF91CF911F910F91FF90EF90DF90CF9049
:101BA000BF90AF909F9008951F93CF93DF93CDB7D1
:101BB000DEB72C970FB6F894DEBF0FBECDBF4F83B4
:101BC000588769877A878B879C87CE0107960E9402
:101BD000040C8823D1F09F8188852A853B85232B9F
:101BE00031F08F3F31F481E09F3F19F403C081E071
:101BF00001C080E080FD47C04F81588569857A85A6
:101C00008B859C850E94F9083EC086E0FE013796D0
:101C1000DE01119601900D928A95E1F7FF81E8852A
:101C20006A857B856115710531F0EF3F31F481E004
:101C3000FF3F19F403C081E001C080E080FD23C0B4
:101C400020911C0230E0C9010196877099274091CC
:101C50001B0250E084179507F1F1F983EA837D8335
:101C60006C8396E0929FD001939FB00D1124A35EE8
:101C7000BD4FFE01319601900D929A95E1F7809348
:101C80001C020E945D0B16E080911B0290911C02C9
:101C9000891771F1189FC0011124835E9D4F0E9426
:101CA000040C882329F1E0911B021E9FF0011124EE
:101CB000E35EFD4F40815181628173818481958112
:101CC0000E94F90880911B0290E001968770992785
:101CD00080931B02D9CF0E94BA0810921C02109266
:101CE0001B02EDE4F2E086E0DF011D928A95E9F740
:101CF0002C960FB6F894DEBF0FBECDBFDF91CF910B
:101D00001F91089580915302859585958595089535
:101D1000809153028770089590915302977081E0EB
:101D200009F480E0089580917702089590917702F8
:101D3000892B80937702089580959091770289236B
:101D40008093770208951092770208959091760219
:101D5000892B80937602089580959091760289234D
:101D600080937602089510927602089590917502FC
:101D7000892B80937502089580959091750289232F
:101D8000809375020895109275020895809154020F
:101D9000089508950C94C90E0C94CA0E9091F10206
:101DA00092FD08C090915402981721F0809354023C
:101DB0000C94CC0E089580915402882329F010923F
:101DC000540280E00C94CC0E0895E0910201F09151
:101DD0000301809177028083E0910201F091030179
:101DE000908180917602892B8083E0910201F091AD
:101DF0000301908180917502892B80838091540228
:101E0000882381F0E0910201F09103019081892BF8
:101E1000808380910201909103010E9487258111A6
:101E20000E94DB0E80910201909103010C943325F6
:101E30000C94C90E9091F10292FD10C098E0899F18
:101E400090011124262B209353020E947B0980913C
:101E500053028595859585950C94180F0C947B09F4
:101E60001092530280E00C94180F20915302809539
:101E7000822380935302982F977099F430E0482F73
:101E8000082E000C550B2417350759F09091F102DC
:101E900092FD07C08595859585950E949C090C94B7
:101EA000300F08959091F10292FB222720F9281714
:101EB00069F080FB92F99093F1028091F002909189
:101EC000F1020E94A00F82E00C94350F08958091DA
:101ED000F10282FB882780F991E089270C94520F48
:101EE00081E00C94520F80E00C94520F6FEF7FEF63
:101EF00080E090E00C94222F80E090E00E94FE2E83
:101F000021E0893E9E4F09F020E0822F089582E073
:101F100090E00C94F02E83E090E00C94F02ECF93A0
:101F200084E090E00E94F02EC82F82E290E00E94B0
:101F3000F02E2C2F30E0A901582BCA01CF91089523
:101F4000CF93C92F682F84E090E00E94042F6C2F5C
:101F500082E290E0CF910C94042FAB01BC018FE0A2
:101F600090E00C94162FAB01BC0183E190E00C943F
:101F7000162F60E070E0CB010C94B30F60E070E0CE
:101F8000CB010E94AD0F0C94B90F69EE7EEF80E09B
:101F900090E00E94222F60E082E090E00E94042FF7
:101FA00060E083E090E00E94042F109217021092EC
:101FB00018021092190210921A0260E084E090E078
:101FC0000E94042F60E082E290E00E94042F60E013
:101FD00085E090E00E94042F60E086E090E00E949F
:101FE000042F6FEF87E090E00E94042F40E050E064
:101FF000BA0188E090E00E94162F60E08DE090E04A
:102000000E94042F40E050E0BA0188E190E00E9475
:10201000162F60E087E190E00E94042F40E050E03E
:10202000BA018CE190E00E94162F60E070E080E23F
:1020300090E00E94222F40E050E0BA0188E190E059
:102040000E94162F0C94BE0F0C94C50F682F8EE0C3
:1020500090E00C94042F0E94E52660939502709303
:1020600096028093970290939802609391027093E6
:1020700092028093930290939402089585B78068AA
:1020800085BF85B7806885BF089581E008950C9469
:10209000451008950C9449100C9449100C944C1060
:1020A0000C9449100C9450100C9449100E943E104E
:1020B0008FE393E10E941D250E9454100C9452104E
:1020C0000E944A100C9449100E94D0260E943E148F
:1020D0000E94021F0E94061D0C944E106F927F9268
:1020E0008F929F92AF92BF92CF92DF92EF92FF9228
:1020F0000F931F93CF93DF93CDB7DEB72A970FB619
:10210000F894DEBF0FBECDBF0E94531481110E9410
:102110002B1039E7832E32E0932E00E010E0C02E22
:10212000802F0E947D135C01F401619071904F013A
:102130006826792661147104B1F40F5F1F4F0C30CB
:10214000110569F78FEF89838A831B820E94D92644
:102150008160782F9D838C8349815A816B818D8129
:102160000E9485043AC08091990281FD0E948613E5
:10217000D12CEE24E394F12CC3018E219F21892BD5
:1021800029F10E9447108823A9F0DE82CF82AE2079
:10219000BF2081E0AB2809F480E088870E94D9261F
:1021A0008160782F9A8789874E815F8168858A85CB
:1021B0000E948504000F111FF801E758FD4F808130
:1021C0009181E826F926F182E08207C0D394EE0CD3
:1021D000FF1CF9E0DF12D0CFB0CF0E944A1D0E9451
:1021E000C8200E9464160E942725909178028917C2
:1021F000D1F00E942725809378022A960FB6F89492
:10220000DEBF0FBECDBFDF91CF911F910F91FF9029
:10221000EF90DF90CF90BF90AF909F908F907F9086
:102220006F900C947C042A960FB6F894DEBF0FBE14
:10223000CDBFDF91CF911F910F91FF90EF90DF9075
:10224000CF90BF90AF909F908F907F906F900895A8
:1022500080E090E0089508952CE6829FC00111244B
:10226000FC0129E0729FE00DF11D1124E60FF11D24
:10227000EE0FFF1FE857FE4F859194910895880F48
:10228000991FFC01E05AFD4F859194910895CF93D9
:10229000DF930E946812EC01811520E5920708F097
:1022A0003FC0811540E4940708F0D2C0883E9105F4
:1022B00000F5803E910508F002C1883A910570F45E
:1022C000853A910508F0A6C08130910509F49FC0B8
:1022D00008F4F2C0049708F0F2C0EEC08F3B9105FD
:1022E00008F4A1C0803C910508F4E6C0805C910927
:1022F000A5C0811550E2950760F4C11581E0D807AB
:1023000008F0DDC0CD3ED10508F4D6C0CE01906501
:10231000D7C0811520E3920708F093C09F708EC04C
:10232000811545E5940708F046C0811554E59507E9
:1023300008F0A6C0C11582E5D80718F5C11521E53A
:10234000D20708F088C0CE01F4E096958795FA95FB
:10235000E1F7282F23703C2F337081E090E002C01A
:10236000880F991F3A95E2F79C68922B2C2F2F70BB
:102370002695269540E2249F90011124822B932BD1
:102380009FC09E01237033279C2F96959695C1156B
:10239000D34508F065C041E050E002C0440F551F2E
:1023A0002A95E2F780E2989F90011124CA01822BBE
:1023B000932B9C6885C0811559E5950798F4C11544
:1023C00088E5D80708F061C0C11526E5D20708F0F6
:1023D00073C08C2F0E94FC128F7190E0982F882779
:1023E00090626EC081154AE5940708F453C0905678
:1023F0008115904208F060C08D2F8F710E94FC12F1
:102400009E01332730628F71A901582B53C081E0A0
:1024100090E056C0855AC82FD0E0C357DE4F888160
:1024200090E090644DC0885AC82FD0E0CC0FDD1FDB
:10243000C15ADE4F88819981946442C00E943F1145
:102440003FC09927D3FF02C0986C3AC0906C38C047
:102450009F70906A35C09C2F8827816F906A30C02A
:1024600041E050E002C0440F551F2A95E2F780E298
:10247000989F90011124CA01822B932B9A6820C047
:10248000982F8827846F906A1BC09C2F8827806FA5
:10249000906A16C08F700E94FC129E0194E03695DF
:1024A00027959A95E1F72F7030E0322F2227306977
:1024B000A901482BCA0104C080E090E001C0CE0110
:1024C000DF91CF9108950E942C110E944711089529
:1024D0008238910569F1B0F48133910509F46DC03A
:1024E00048F48932910509F463C08A32910509F4F0
:1024F00069C008958533910509F455C08933910564
:10250000B9F00895833E910569F138F4803E910554
:10251000B1F0823E910509F10895863E9105A9F139
:10252000873E9105B9F1843E910509F064C023C04E
:102530002091F00220FD4FC021FD4DC008958091F3
:10254000F00280FD44C08091F10280FF44C0809180
:10255000F00284FD42C083EE4DC08091F00282FF04
:1025600038C0F5CF8091F00282FD33C08091F10236
:1025700080FD31C0ECCF8091F10281FF32C08091AB
:10258000F00284FD2AC087EE35C08091F00283FFFF
:1025900026C0F5CF8091F00283FD21C08091F10229
:1025A00081FD1FC0ECCF8091F00285FD1CC01DC0D5
:1025B0008091F00285FD19C016C08091F00286FD61
:1025C00016C017C08091F00286FD13C010C089E3C9
:1025D00011C082EE0FC080EE0DC080E00BC086EE11
:1025E00009C084EE07C089E205C085E303C08AE222
:1025F00001C081E390E008959091F00292FF0DC038
:10260000282F2871283019F4877F846006C0282F6E
:102610002471243011F48B7F886093FF0DC0282F24
:102620002871283119F4877E846106C0282F24710F
:10263000243111F48B7E88612091F10220FF0DC0BE
:10264000382F3871383019F4877F816006C0382FF1
:102650003171313011F48E7F886021FF0DC0282F39
:102660002871283119F4877E816106C0282F2171D5
:10267000213111F48E7E886194FD877E089580E07B
:1026800008950C94760F0E9453148FE39CE90197F0
:10269000F1F700C000000E94531480E00E947D13F7
:1026A00080FF04C00E9441130C94262708950C94C7
:1026B00043130E947C0F811102C00E9424100E94CB
:1026C000870F809399020E948F0F9093F10280935D
:1026D000F0020E9457130E948B0F682F70E080E079
:1026E00090E00E941B096091130270911402809186
:1026F0001502909116020C945309E82FF0E0EE0FAA
:10270000FF1FE65FFC4F808191810895089580EA64
:102710008A95F1F7089500C008950C9487130895E1
:102720000C948F130C9490130C948F130C9494139B
:10273000F894E82FE295EF70F0E031A1282F2F7088
:1027400081E090E001C0880F2A95EAF7982F9095D4
:10275000932391A392A1892B82A3789408950F9338
:102760001F93CF93DF93C9E9D1E089918F3F11F097
:102770000E94981381E0C53AD807B9F7C0E9D1E0C3
:1027800009E911E089918F3F11F00E9498130C170D
:102790001D07C1F7DF91CF911F910F910895BF924F
:1027A000CF92DF92EF92FF920F931F93CF93DF931D
:1027B0008C01C62FD0E0CE0187569E4F6C01FC01E4
:1027C00090819F3F09F450C0B62EF894E92FE2950E
:1027D000EF70F0E081A19F7021E030E001C0220F96
:1027E0009A95EAF7822B81A382A12095282322A320
:1027F00078940E948B13E0E9F1E049E951E021E08F
:1028000030E0E12CF12C61916F3F89F0A62FA29569
:10281000AF70B0E090968C9190E06F7002C095958B
:1028200087956A95E2F780FD02C0C90102C080E089
:1028300090E0E82AF92A220F331F4E175F0719F795
:10284000F60180818F3F11F00E94981361E0E1143E
:10285000F10409F460E08B2D0E948D13CC0FDD1F75
:10286000C00FD11FF982E882DF91CF911F910F91A4
:10287000FF90EF90DF90CF90BF9008950E94AF132C
:1028800088E1EAE0F3E0DF01982F1D929A95E9F7DD
:10289000E2EFF2E0DF011D928A95E9F78CE00E94F9
:1028A0009E140C94CF03FF920F931F93CF93DF934B
:1028B000CDB7DEB768970FB6F894DEBF0FBECDBFB9
:1028C0008E010F5F1F4F88E1F80111928A95E9F799
:1028D000F12C6F2DC8010E94CF13F394FCE0FF127E
:1028E000F8CF48E150E0B80182EF92E00E94E32E79
:1028F000FF24F394009709F4F12C892B41F088E12F
:10290000F801A2EFB2E001900D928A95E1F72F2D28
:102910004CE06AE073E082EF92E00E949F140E9414
:10292000D7038F2D68960FB6F894DEBF0FBECDBFCC
:10293000DF91CF911F910F91FF9008950895FF921D
:102940000F931F93CF93DF93F82E092F162FD72FB6
:10295000C42F222349F081E080939C020E94D92653
:1029600090939B0280939A0280919C028823D9F0D5
:1029700080919A0290919B020E94F126059798F00F
:10298000EF2DF02FA12FBD2F80E090E04C2F50E0D5
:102990008417950734F4219131912D933D9301963D
:1029A000F7CF10929C02DF91CF911F910F91FF9072
:1029B00008950E94F1280E9464100C94FD280E9442
:1029C00001290E946E100C941B290E945F260E9410
:1029D000D8280E9456100E94D9140E94DF140E9429
:1029E0006010FBCF8091A30280FF0BC060910901B2
:1029F00085E0689FB0011124759567957595679579
:102A00002BC081FF09C06091090185E0689FB0017A
:102A100011247595679520C082FF07C06091090158
:102A200085E0689FB001112417C09091A2029923FC
:102A3000D1F060910801961788F72091090185E08F
:102A4000289F90011124929FA001939F500D112463
:102A500070E0CA010E945D2E6038710540F4611576
:102A6000710519F406C065E070E0862F08958FE7C0
:102A7000089581E008958091A30280FF08C06091CD
:102A8000050170E0759567957595679521C081FF83
:102A900006C06091050170E07595679519C082FFC9
:102AA00004C06091050170E010C09091A1029923CB
:102AB00099F0609104019617A0F780910501899F14
:102AC000C001112470E00E945D2E6038710540F451
:102AD0006115710519F406C061E070E0862F089554
:102AE0008FE7089581E008958D3E21F40E94F2144D
:102AF000819504C08E3E29F40E94F2148093A702AF
:102B000008958F3E21F40E94F214819504C0803F05
:102B100029F40E94F2148093A6020895893F19F4C3
:102B20000E943B1505C08A3F31F40E943B158195F8
:102B30008093A80208958B3F21F40E943B15819554
:102B400004C08C3F29F40E943B158093A90208958C
:102B50009FE0980F983078F421E030E0A90102C09E
:102B6000440F551F9A95E2F7CA019091A502892B4F
:102B70008093A50208958D3F21F48091A302816086
:102B80000BC08E3F21F48091A302826005C08F3F6D
:102B900029F48091A30284608093A30208958D3E5E
:102BA00039F49091A70297FF35C01092A70259C03F
:102BB0008E3E29F49091A7021916BCF32BC0909178
:102BC000A6028F3E29F497FF25C01092A60249C0A5
:102BD000803F19F41916CCF31DC09091A802893FCB
:102BE00029F41916BCF41092A8023BC08A3F19F4CC
:102BF00097FF10C0F8CF8B3F39F49091A90297FF4F
:102C000009C01092A9022DC08C3F21F49091A90215
:102C10001916BCF39FE0980F983080F421E030E063
:102C2000A90102C0440F551F9A95E2F7CA01809589
:102C30009091A50289238093A50213C08D3F21F4B2
:102C40008091A3028E7F0BC08E3F21F48091A3025E
:102C50008D7F05C08F3F29F48091A3028B7F8093E5
:102C6000A3028091A602811106C08091A702811162
:102C700002C01092A2028091A802811106C0809128
:102C8000A902811102C01092A10208950E94D926C2
:102C90002091A602211104C02091A702222321F035
:102CA0009093A00280939F022091A802211104C05A
:102CB0002091A902222321F090939E0280939D02ED
:102CC00084EA92E00C944D25EF92FF920F931F93AC
:102CD000CF93DF9300D000D000D0CDB7DEB786E031
:102CE000E4EAF2E0DE01119601900D928A95E1F797
:102CF000E090A602F090A7020091A8021091A9020C
:102D00001092A6021092A7021092A8021092A90295
:102D1000E11003C0FF2009F45DC080919F029091F3
:102D2000A0020E94F126AC019091A202992339F0F1
:102D300020910A0130E02417350758F04BC020914C
:102D40000B018AE0289F900111242417350718F001
:102D500041C09F3F19F09F5F9093A202EE2061F067
:102D60000E94F2141E1414F09FEF01C091E0989F8E
:102D7000902D11249093A602FF2061F00E94F2147E
:102D80001F1414F09FEF01C091E0989F902D112423
:102D90009093A7023091A6023323E1F02091A7027D
:102DA0002223C1F045EB3403C0011124992319F00B
:102DB0009093A60203C081E08093A60235EB230323
:102DC000C0011124992319F09093A70203C081E058
:102DD0008093A702011103C0112309F45DC0809103
:102DE0009D0290919E020E94F126AC019091A10259
:102DF000992339F02091060130E02417350758F067
:102E00004BC0209107018AE0289F900111242417CC
:102E1000350718F041C09F3F19F09F5F9093A102C2
:102E2000002361F00E943B15101614F09FEF01C0C3
:102E300091E0989F902D11249093A802112361F0A6
:102E40000E943B15111614F09FEF01C091E0989F6E
:102E5000902D11249093A9023091A8023323E1F020
:102E60002091A9022223C1F045EB3403C0011124B3
:102E7000992319F09093A80203C081E08093A802DF
:102E800035EB2303C0011124992319F09093A90273
:102E900003C081E08093A9028091A60281110BC03A
:102EA0008091A702811107C08091A802811103C0FF
:102EB0008091A90281110E944616EB82FC820D834B
:102EC0001E8386E0FE013196A4EAB2E001900D92E5
:102ED0008A95E1F726960FB6F894DEBF0FBECDBFF8
:102EE000DF91CF911F910F91FF90EF900895E4EA49
:102EF000F2E086E0DF011D928A95E9F71092A202C6
:102F00001092A1021092A3020895EF92FF920F93E4
:102F10001F93CF93DF938B01682F11110AC04423B5
:102F200029F0E82FF0E0E950FC4F6491762F862FCE
:102F300075C0212F30E0E82FF0E0442321F0E95064
:102F4000FC4FE491F0E046E0049FC0011124CFEF74
:102F5000D0E0BE010E94492E4BEA4603C001479FC4
:102F6000900D1124800F911D800F911D982F990FA6
:102F7000890FAE01421B530B4E9FD0014F9FB00DE6
:102F80005E9FB00D11249B2F189FA0011124452F87
:102F900055278E01041B150B0E9FA0010F9F500D8E
:102FA0001E9F500D11247E01E81AF108E29E800157
:102FB000E39E100DF29E100D1124212F3327C21B0A
:102FC000D30BCE9F9001CF9F300DDE9F300D11248B
:102FD00062307105A9F048F46115710569F061303E
:102FE0007105C9F48B2F752F0DC06430710581F008
:102FF00058F06630710579F47E2F8B2F932F0DC01A
:10300000832F7B2F9E2F09C08E2F7B2F952F05C0DE
:103010008E2F732F02C07E2F852F692FDF91CF91C6
:103020001F910F91FF90EF90089541E00E94851746
:10303000089508950E9415180895CF93DF93762F71
:10304000E901682F842F0E941A18798368838A8384
:10305000DF91CF910895493C08F048EC0C941D187D
:1030600080912203282F269530E02115310519F48F
:103070008170826005C02532310524F0817088643A
:103080008093220380912503893C18F088EC80937B
:103090002503089588E090E00C94F82ECF92DF92FB
:1030A000EF92FF926B017C010E943018B701A601DC
:1030B00088E090E0FF90EF90DF90CF900C94162F77
:1030C000E2E2F3E083E0808311828FEF828388EC79
:1030D0008383148260817181828193810C944E1864
:1030E0008091220380FF02C08695089580E00895B4
:1030F00090912603933018F49F5F909326038823C2
:1031000051F06091220370912303809124039091E8
:1031100025030C944E18089581E00C947818909132
:103120002603992319F0915090932603882351F098
:1031300060912203709123038091240390912503D1
:103140000C944E18089581E00C948F1870E00C9444
:103150007A21609110018091220380FF0AC0809142
:103160000F0123E0829FC0011124895D9C4F0C94C4
:10317000A6188091110190911201891780F7E82F0C
:10318000F0E09F01220F331FE20FF31FE95DFC4FB8
:103190001182108212828F5FF0CF9091220390FFF4
:1031A00016C09091110120911201921770F4E92F2D
:1031B000F0E0DF01AA0FBB1FEA0FFB1FE95DFC4F28
:1031C0008183608342839F5FF0CF0C94A918089598
:1031D000CF93DF9300D01F92CDB7DEB7909122033B
:1031E00090FF0AC09E012F5F3F4F0E942B184B811A
:1031F00069818A810E94CD180F900F900F90DF9106
:10320000CF910895CF93DF93EC01EC81F0E0EE587D
:10321000FD4F4491E2E2F3E0628181810E94E8186F
:103220008C818F5F8C83DF91CF910895CF93DF9353
:10323000EC01E2E2F3E0438162818C810E94E818B4
:103240008C818F5F8C83DF91CF9108950F931F93B3
:10325000CF93DF9300D01F92CDB7DEB78C01809162
:10326000AA0281110AC09E012F5F3F4F48EC6FEF09
:103270000E942B188A818093AA02F80184818130F0
:1032800051F028F0823061F44091AA020AC0809186
:10329000AA0240E007C06091AA0240E080E003C0BB
:1032A00040E080E060E00E94CD18F801848190E069
:1032B000019663E070E00E945D2E84830F900F9072
:1032C0000F90DF91CF911F910F910895AF92BF9210
:1032D000CF92DF92EF92FF920F931F93CF93DF93E2
:1032E00000D01F92CDB7DEB7182FF62E042FE22E96
:1032F0009091220390FF6DC0E92FE695AE2FB0E0CC
:10330000AB55BE4F8C918093B6029E7F923061F494
:103310009E012F5F3F4F812F0E942B184B816981A7
:103320008A810E94CD1843C0823019F40091250390
:103330003EC0863019F41091230339C08930D9F387
:103340008931A9F5E9518E2F8170D82EE695F0E0EC
:10335000EE58FC4FA590B490C12CBB246091130192
:10336000C61618F52C2D30E0A29EC001A39E900D2C
:10337000B29E900D112470E00E94492E812FD11031
:1033800002C0860F01C0861B90911101290F311DCB
:10339000A901440F551F240F351F295D3C4F402FB5
:1033A0006F2D0E942B18C394D9CF0E94A918109397
:1033B0002303F092240300932503EE2051F0609143
:1033C00022037091230380912403909125030E948E
:1033D0004E180F900F900F90DF91CF911F910F918A
:1033E000FF90EF90DF90CF90BF90AF900895E2E212
:1033F000F3E09181282F4381628188E0890F0C944A
:10340000661981E00C94F719E2E2F3E09181282F2C
:103410004381628188EF890F0C94661981E00C94D6
:10342000041AE2E2F3E0628128E0620F08F46FEF31
:10343000282F438181810C94661981E00C94111A24
:10344000E2E2F3E0628128E0621B08F460E0282FEA
:10345000438181810C94661981E00C94201AE2E288
:10346000F3E0438128E0420F08F44FEF282F6281F8
:1034700081810C94661981E00C942F1AE2E2F3E04A
:10348000438128E0421B08F440E0282F62818181BB
:103490000C94661981E00C943E1A20E00C94661995
:1034A000FF920F931F93CF93DF93EC01F12C0FEF5B
:1034B00010E060911301F616F0F4809111012F2DA8
:1034C00030E0280F311DC901880F991F280F391FBF
:1034D000295D3C4F70E0C8010E945D2E962F8C81C3
:1034E0004091250360912403F99E800D11240E94D0
:1034F0002B18F394DECF0E94A9189A818C8190FF3B
:1035000002C08F5F01C081508C83DF91CF911F91EA
:103510000F91FF900895AF92BF92CF92DF92EF92FA
:10352000FF920F931F93CF93DF93FC01828180FF63
:1035300002C00FEF01C001E010E044E1A42E809131
:103540001301181708F043C080911101C12ED12C2E
:10355000E601C80FD11DCE01880F991FC80FD91FD2
:10356000C95DDC4F198218821A8234E0E32EF12CF7
:10357000B12C8091AC028B0D85312CF06A2D0E940C
:103580003B2E892F05C087FF03C090911301890F3F
:10359000082E000C990BC816D90691F480912503CA
:1035A0008E9DA0018F9D500D1124559547955595E1
:1035B00047959E0160912403809123030E942B185C
:1035C000B00EF1E0EF1AF108A1F61F5FB8CF0E942C
:1035D000A9188091AC02013031F4811102C08091B0
:1035E0001301815007C090E001966091130170E0D3
:1035F0000E945D2E8093AC02DF91CF911F910F91BD
:10360000FF90EF90DF90CF90BF90AF900895CF9351
:103610008091110190911201891770F4E82FF0E068
:103620009F01220F331FE20FF31FE95DFC4F118250
:10363000108212828F5FF0CFC0E060911301C61735
:10364000C0F5EC2FF0E070E0CF010E945D2E2091DC
:103650001101820F2091AB02022E000C330B90E07F
:10366000E217F307CCF020910E01022E000C330B71
:103670002E173F078CF09C01220F331F820F931FE0
:103680009C01295D3C4F409125036091240380916A
:1036900023030E942B180BC0FC01EE0FFF1F8E0F9F
:1036A0009F1FFC01E95DFC4F118210821282CF5FE7
:1036B000C4CF0E94A91820910D018091AB02820F06
:1036C0008093AB0290910E01920F90930E01191608
:1036D0005CF4082E000C990B4091130150E041500E
:1036E0005109841795071CF0219520930D01CF9166
:1036F00008958F929F92AF92BF92CF92DF92EF92F6
:10370000FF920F931F93CF93DF938C01FC014481B1
:10371000C42FD0E09E01DE010E94A12E9B01AC01CE
:103720000E94B72E6B017C01E0E2F0E0EC1BFD0B88
:10373000A5E5B0E09B01AC010E94B72E4B015C01F6
:103740009F01DF010E94992E9B01AC010E94C22EB5
:103750009B01AC012C0D3D1D4E1D5F1DC501B4012B
:103760000E94712EC22FD22F2A3228F4F3E02F9F0D
:10377000900111240DC025E530E02C1B3109C90151
:10378000880F991F280F391F37FF02C02F5F3F4F47
:1037900035952795C22FC095F12C85E5E82EED1AB9
:1037A00080911301F816C8F4F1FC02C08E2D01C0FF
:1037B0008D2F909111012F2D30E0290F311DA9017E
:1037C000440F551F240F351F295D3C4F4C2F60912E
:1037D00024030E942B18F394E3CF0E94A918F80148
:1037E0008481811102C091E003C0803219F49FEFFF
:1037F00090930C0190910C01890FF8018483DF9163
:10380000CF911F910F91FF90EF90DF90CF90BF90DD
:10381000AF909F908F9008950F931F93CF93DF9356
:10382000EC0100E010E080911301282F30E0021736
:10383000130724F5909111019801290F311DA90159
:10384000440F551F240F351F295D3C4F869590E08E
:103850004C81081719071CF4442331F002C04111B0
:1038600003C04091250301C040E060912403809192
:1038700023030E942B180F5F1F4FD5CF0E94A9185A
:103880008C8190E00196817099278C83DF91CF9194
:103890001F910F910895E2E2F3E080818E7F808393
:1038A00060817181828193810E944E181092B702CB
:1038B0002FEF80E792E0215080409040E1F700C078
:1038C00000000C94A918E2E2F3E080818E7F8083EF
:1038D0001092B7022FEF80E792E021508040904095
:1038E000E1F700C000000C94A9181092B702809173
:1038F000B40281110AC081E08093B4028091220356
:1039000081708093B3020C94631C0895609122032C
:10391000669570E04BE050E084E191E00E94D62E85
:10392000892B19F481E08093B7020E94D9269093E5
:10393000AE028093AD0208959091220390FF35C0AE
:103940009170811102C0926006C0853210F09864B7
:1039500002C0880F982B90932203662351F0609148
:1039600022037091230380912403909125030E94E8
:103970004E1860912203669570E04BE050E084E1C0
:1039800091E00E94D62E892B19F01092B70202C046
:103990000E94861C81E08093B002409125036091D3
:1039A0002403809123030C944D1A0895682F90915D
:1039B0002203969581E0890F853208F081E00C940E
:1039C0009C1C81E00C94D61C682F90912203969544
:1039D0008FEF890F09F484E20C949C1C81E00C9415
:1039E000E41C61E00C949C1CE2E2F3E080818160C5
:1039F000808386950C94F11C8091220380FD0C94A9
:103A00004B1C0C94F41C60E00C949C1C8091B5023F
:103A100081112EC00E947C0F811104C00E942410CD
:103A20000E9460180E944A18609322037093230337
:103A300080932403909325036E7F61F40E946018A5
:103A40000E944A18609322037093230380932403F7
:103A5000909325030E9430181092B70280912203A0
:103A600080FF03C086950E94031D81E08093B5020C
:103A70000895E2E2F3E080818160808386950C9472
:103A8000031D1092B4028091B30281110E94391D6E
:103A90000C94861C0F931F93CF93DF938091B702F2
:103AA000882309F485C08091B602E0912203E6954F
:103AB000E81BE093AF02823049F4F0E0E259FD4F99
:103AC000E491CE2FD0E002E019E149C0863049F4FC
:103AD000F0E0E559FD4FE491CE2FD0E006E119E189
:103AE0003EC0893051F4E695F0E0E859FD4FE4918D
:103AF000CE2FD0E000E51AE132C08F3051F4E695C8
:103B0000F0E0EB59FD4FE491CE2FD0E00BE81AE145
:103B100026C0853149F4F0E0EE59FD4FE491CE2FF7
:103B2000D0E007E01BE11BC0883181F0833239F41B
:103B3000E0E6F2E0C591D49106E219E110C08432CA
:103B400051F4C4EFD1E00CE01CE109C0C8E2D0E0C0
:103B500009E71BE104C0C0EDD7E009E118E180915D
:103B6000B002882361F01092B0020E94D92690938F
:103B7000AE028093AD021092B2021092B1020E9486
:103B8000D926E091AD02F091AE028E1B9F0B8F3FC4
:103B90009F4770F4EC0FFD1FF093AE02E093AD026F
:103BA0008DEA92E0F801DF91CF911F910F91099476
:103BB000DF91CF911F910F910895882311F0FA01A1
:103BC00001C0FB010994CF93DF93C82FD62F0E9429
:103BD00070188C1740F00E9470188D1720F4DF9138
:103BE000CF910C94E11C8C2FDF91CF910C94F11CA0
:103BF0001F93CF93DF93FB011281112309F4BCC003
:103C0000EC010E94930E8272CD3CFCE5DF0709F4C3
:103C100097C008F043C0C73CECE5DE0709F47CC060
:103C2000D8F4C43C9CE5D90709F46AC038F4C33C15
:103C3000DC4509F0A4C00E94FC1CA0C0C53C9CE56A
:103C4000D90709F462C0C63CDC4509F098C04EE0D3
:103C50005AE161E07AE15DC0CA3CFCE5DF0709F4A6
:103C600065C070F4C83CECE5DE0709F45AC0C93CF5
:103C7000DC4509F084C04DE15AE16CE27AE149C0CB
:103C8000CB3C9CE5D90709F456C0CC3CDC4509F097
:103C900076C043EA58E16CE878E13BC0C23DFCE500
:103CA000DF0709F45AC098F4CF3C9CE5D90709F422
:103CB0004EC008F44AC0C03DFCE5DF0709F44AC025
:103CC000C13DDC4509F05BC06EE089E04EC0C53DFA
:103CD0009CE5D90709F447C050F4C33DFCE5DF0774
:103CE000F9F1C43DDC4509F04AC088E142C0C63D57
:103CF0009CE5D907E9F1CE35DD4509F43FC03FC069
:103D00004EEE5CE161EE7CE104C041EE5CE16EEE02
:103D10007CE10E94DD1D32C041E05AE16EE07AE1B3
:103D2000F8CF4CE25AE16DE17AE1F3CF4AE45AE18F
:103D30006BE37AE1EECF4BE35AE16AE47AE1E9CF53
:103D40004CE858E163EA78E1E4CF81E012C065E035
:103D500082E00BC068E086E008C064E18FE005C047
:103D600067E185E102C062E289E10E94E31D06C0CD
:103D700083E20E94F11C02C011E001C010E0812F1B
:103D8000DF91CF911F91089586E090E00C94F02E82
:103D9000682F86E090E00C94042F80916303847078
:103DA0008961809363030C94C81E80916303869598
:103DB0008695869508958091630381FD07C0826092
:103DC000809363030E94C81E0C94C92008958091BB
:103DD000630381FF07C08D7F809363030E94C81E29
:103DE0000C94D52008958091630381FD0C94E71E07
:103DF0000C94DB1E809163038695817008958091F9
:103E00001F0108950E947C0F811104C00E9424109C
:103E10000E94CD1E0E94C41E80936303282F269506
:103E20002695269530E02430310524F0877088618E
:103E3000809363038091630380FF04C08695869519
:103E4000869501C080E00C94962020916303822F18
:103E5000869586958695482F50E04330510554F459
:103E60008F5F982F990F990F990F822F8770892B49
:103E700080936303809163038160809363030E9456
:103E8000C81E809163038695869586950C9496202E
:103E900080916303982F969596959695A1F0915EE3
:103EA000990F990F990F8770892B80936303887FEF
:103EB00091E009F490E08091630390FB80F9809396
:103EC00063030E94C81E809163038695869586953C
:103ED0000C9496208091630380FD13C081608093D1
:103EE0006303813019F489E0809363038091630355
:103EF0000E94C81E809163038695869586950C94D2
:103F0000962008958091630380FF08C08E7F809380
:103F100063030E94C81E80E00C949620089580914F
:103F2000630380FD0C94821F0C946A1F90916303BD
:103F3000892F8695869586958F5F8F7197708430CF
:103F400038F4880F880F880F892B8093630302C091
:103F50009093630380916303887F91E009F490E07C
:103F60008091630390FB80F9809363030E94C81ED5
:103F7000809163038695869586950C94962084306F
:103F800008F083E0909163039770282F220F220F8F
:103F9000220F922B90936303987F21E009F420E095
:103FA0009091630320FB90F9909363030C94962007
:103FB0000E94BF1F809163030C94C81EFC01DB01AB
:103FC00012968C918823F9F0EC5BFC45E730F10503
:103FD000D8F4EC58FF4F0C94932E83E001C080E09E
:103FE0000E94D81F80E008950E94481FFBCF0E94C6
:103FF000251FF8CF0E948F1FF5CF0E94961FF2CF8A
:104000000E94F31EEFCF81E00895279A2F9808951C
:104010002F9808958F929F92AF92BF92CF92DF9286
:10402000EF92FF920F931F93CF93DF938C018091B8
:104030008600909187006CE070E00E94492E601726
:10404000710730F0C80169E070E00E94492E60C03D
:104050008091860090918700E0908600F090870024
:10406000E0918600F0918700C6E0D0E0BE010E949A
:10407000492E20E030E0060F171F211D311D480199
:10408000590185E0880C991CAA1CBB1C8A95D1F7A4
:10409000C701BE010E94492E6F01E12CF12CA7013E
:1040A0009601260F371F411D511DC501B4010E9405
:1040B000712E69017A01E0918600F0918700CA01B2
:1040C000B9010E942B2E9B01AC01DF010E94B72E8B
:1040D0009B01AC01C701B6010E942B2EDC01CB0174
:1040E0002FE0B695A795979587952A95D1F70091DA
:1040F00086001091870020E030E0081719072A0792
:104100003B0728F46091860070918700CB01BC01C9
:10411000CB01DF91CF911F910F91FF90EF90DF9036
:10412000CF90BF90AF909F908F900895CF93C82F5E
:10413000843050F4811109C080918000877F809382
:1041400080000E94082006C0C3E080918000886043
:1041500080938000A0918600B09187002C2F30E0E2
:104160000E94A12E23E030E040E050E00E94712E3A
:10417000B42FA32F922F8827892F9A2FAB2FBB27DD
:104180000E940A2090938D0080938C00CF91089517
:1041900008951092B9021092B8021092BA02EFE696
:1041A000F0E08081816080830895EFE6F0E0808117
:1041B0008E7F80830E94D51E0C9496201F920F92B2
:1041C0000FB60F9211240F931F932F933F934F938A
:1041D0005F936F937F938F939F93AF93BF93CF938F
:1041E000EF93FF938091200191E0980F823019F0B6
:1041F0009093200155C081E0809320010E94FF1E12
:10420000C82F0091B8021091B9020F5F1F4F0E9492
:10421000FF1E28E7829FB0011124C8010E94492E89
:104220009093B9028093B80228E7C29FB00111248D
:10423000660F672F661F770B71950E94492E6F7767
:104240008091BA02823019F4603451F404C0813094
:1042500039F46F3729F480916F008E7F80936F005F
:10426000E62FF0E0E958FC4FC491009186001091D0
:1042700087000E94D51E282FC09FC001C19F900DAE
:1042800011246DEF72E00E94492E269FC001279FE6
:10429000900D11240E940A2090938D0080938C0031
:1042A000FF91EF91CF91BF91AF919F918F917F91AE
:1042B0006F915F914F913F912F911F910F910F90AF
:1042C0000FBE0F901F9018950E9405208AE08093E2
:1042D000800089E1809381008FEF9FEF90938700AA
:1042E000809386000E94021F0E94FA1E81110C9486
:1042F000C9200895239A25B1277F35B138604FB77B
:10430000F894FC01CB01880F991F680F791F6E0F7D
:104310007F1FE617F70789F0819198E035B9000013
:1043200000C087FF25B9880F000000C000C000C092
:1043300025B900C09A9591F7ECCF4FBF8FE594E077
:104340000197F1F700C000000895CF93DF93EC01CF
:10435000FB018281882309F426C1C430FDE5DF0713
:1043600060F4CB3F9CE5D90768F49E0122503C45A0
:104370002431310508F018C105C0C236EDE5DE076D
:1043800009F012C10E948F0F9093F1028093F00206
:10439000C031FCE5DF0709F4CAC008F041C0C830ED
:1043A0009CE5D90709F4A4C0F0F4C430FCE5DF07AC
:1043B00009F48CC068F4C2309CE5D90709F482C0C6
:1043C000C330DC4509F0E5C08091F0028260DFC0B7
:1043D000C630FCE5DF0709F483C008F085C0809192
:1043E000F0028860D4C0CC309CE5D90709F490C0B5
:1043F00068F4CA30FCE5DF0709F47EC008F084C029
:104400000E94BA088091F0028068C1C0CE309CE55D
:10441000D90709F481C008F086C08091F00294C0E9
:10442000CD3FFCE5DF0709F47BC038F5C4319CE5DE
:10443000D90709F49AC058F4C231FCE5DF0709F442
:104440007AC008F07EC08091F0028F7BA0C0CB3F85
:104450009CE5D907F1F108F03FC0C531DC4509F012
:1044600098C08091F00282FB222720F991E09227E8
:1044700090FB82F990FB83F98AC0C1308DE5D807A3
:1044800009F467C050F48091F102CF3FECE5DE07FC
:10449000C1F108F05BC08D7F65C0C3308DE5D807E2
:1044A00009F471C008F46DC0C236DD4509F071C071
:1044B0008091F00284FB222720F991E0922790FB63
:1044C00084F965C08091F002816061C08091F00242
:1044D00016C08091F10216C08091F102826042C044
:1044E0008091F002806153C08091F00280624FC0E1
:1044F0008091F00280644BC08091F00288608460FB
:1045000046C0826081602EC08091F0028E7F3FC0E5
:104510008091F0028D7F3BC08091F002877F37C091
:104520008091F10214C08091F0028F7E30C08091A2
:10453000F0028F7D2CC00E94BA088091F0028F7724
:1045400026C08091F002877F8B7F21C08D7F8E7F78
:1045500009C08091F102982F909591708E7F892BE0
:1045600090FB81F98093F10214C00E94BA088091F7
:10457000F00287FB222720F991E0922790FB87F930
:1045800006C081E001C080E00E94261002C0809336
:10459000F0028091F0029091F1020E94A00F0E941F
:1045A000BA0880E001C081E0DF91CF91089589329F
:1045B00089F1F0F4843171F1B0F4873009F077C0FB
:1045C0008EE180930B0182E380930A018AE080935D
:1045D000090184E18093080188E08093050188E265
:1045E0008093040164C092EE980F9A30F0F05FC09F
:1045F000803509F444C028F48F3409F058C08AE0AB
:104600003FC0813529F0823509F051C081E038C0C2
:104610008FEF36C08091BD02882379F11092BD02E0
:104620001092BC021092BB0242C08D518093BD0219
:10463000833099F038F4813069F08230D9F48AE01F
:1046400091E00DC0853099F078F0863099F484E0DF
:1046500091E005C08BE091E002C089E091E0909389
:10466000BC028093BB0223C088E091E0F8CF85E0D4
:1046700091E0F5CF1092BD021AC080E0089586EF58
:10468000E091BB02F091BC02309789F02081082EA6
:10469000000C990B820F911D8F3F910519F014F0BA
:1046A0008FEF04C097FF02C0108201C0808381E0B9
:1046B00008950F931F9341E050E060E070E08A019D
:1046C0009B0104C0000F111F221F331F8A95D2F7D0
:1046D000C901B8010E941B091F910F910C94BA08DF
:1046E000482F50E0FA013597EF33F10508F060C02C
:1046F000E558FF4F0C94932E0E94241055C08091D2
:104700009902817F8E7F8093990281E08093BE021F
:1047100008950E94E40348C080919902982F9095D3
:10472000917090FB80F98093990291113DC0897F2F
:10473000877F10C08091990281FB222720F991E0A8
:10474000922790FB81F980939902992369F18091D6
:10475000990281608093990227C08091990282FB1F
:10476000222720F991E0922790FB82F9ECCF8091EB
:10477000990283FB222720F991E0922790FB83F98D
:10478000E2CF0E94BA088091F00287FB222720F92D
:1047900091E0922790FB87F98093F00205C089533E
:1047A00001C08D510E94592381E0089580E0FACF25
:1047B00080E0089580E008950C94DA23CF93C82F09
:1047C0008091BE02813069F038F08230C1F58C2FC3
:1047D0000E94D72281E039C00E94930E823289F56F
:1047E00004C00E94930E823261F48C2F0E94DC235D
:1047F000811104C08C2F0E9470231FC081E090E0C3
:104800001CC08C2F0E94DA23811116C0C43189F09C
:1048100058F4CB3089F0C031B1F482E08093BE020D
:1048200088E30E94D72208C0C93219F0C83321F0AA
:104830000AC01092BE0207C081E0817006C01092CB
:10484000BE0280E002C080E0F8CFCF910895CF9300
:10485000DF9386319C4541F5EB010E94930E982F22
:104860008A812091020130910301882379F09A7A9C
:1048700081E009F480E08093BF02911102C069E2F7
:1048800001C065E3C9010E941D260AC08091BF02D4
:10489000811102C069E201C065E3C9010E942826B6
:1048A0000E94E50E80E001C081E0DF91CF91089584
:1048B0000F931F93CF93DF93C42FD22FFC018281DC
:1048C0008823C9F04093C2020E94D9269093C10266
:1048D0008093C00280E28C0F883008F057C0C77008
:1048E00081E001C0880FCA95EAF7DF91CF911F914F
:1048F0000F910C940C068091C202481330C0809135
:10490000C0029091C1020E94F126883C910538F5C1
:1049100010E21D0FCD17B9F080E28C0F883040F403
:10492000C77081E001C0880FCA95EAF70E9413069C
:10493000183028F581E09D2F977001C0880F9A9557
:10494000EAF70E940C06802F0E9403061830F0F44C
:10495000D77081E001C0880FDA95EAF70AC080E2DB
:104960008C0F883098F4C77081E001C0880FCA9519
:10497000EAF7DF91CF911F910F910C941306802FCE
:10498000DF91CF911F910F910C940306DF91CF918E
:104990001F910F9108950F939C01CB01243F4CE58B
:1049A000340731F188F4293DFCE53F07D9F02A3D71
:1049B0004CE5340779F1283D3C45A9F506E221EEA6
:1049C00041EE68ED7CE52BC0263FFCE53F07E1F0BA
:1049D000A8F0273F3C4539F507E225EE46EE67EFA4
:1049E0007CE51DC007E225EE45EE69ED7CE517C0CC
:1049F00006E221EE40EE64EF7CE511C007E225EE11
:104A000044EE65EF7CE50BC006E221EE42EE66EF78
:104A10007CE505C008E221E045EE6AED7CE50E94F8
:104A2000582480E008C0FC018281882319F010928C
:104A3000C20201C081E00F9108959093CB01809351
:104A4000CA0108959093C8028093C7020895E09127
:104A5000C702F091C802309721F00190F081E02D5B
:104A6000099480E00895E091C702F091C802309760
:104A700099F020912D01222359F02091F00227FF77
:104A800007C0DC012C9111962C93119726E02C93F2
:104A90000280F381E02D09940895E091C702F0911E
:104AA000C802309739F022E0DC012C930480F581B4
:104AB000E02D099408952091C5023091C60228176F
:104AC000390771F09093C6028093C502E091C70246
:104AD000F091C802309721F00680F781E02D09940B
:104AE00008952091C3023091C4022817390771F04C
:104AF0009093C4028093C302E091C702F091C80270
:104B0000309721F00084F185E02D09940895FC018F
:104B1000329680912D01882331F08091F00287FF39
:104B200002C09EE101C096E080E0915028F0219102
:104B30002223D9F38F5FF9CF0895662351F1209195
:104B40002D012223E9F02091F00227FF19C0462F02
:104B50004695469546954E31E0F4677021E030E089
:104B600002C0220F331F6A95E2F7FC01E40FF11D2A
:104B7000828190E02823392381E0232B69F409C046
:104B8000FC01329608962191621729F0E817F9077F
:104B9000D1F780E0089581E008959C01FC013296F0
:104BA0009FEF80E04191461789F09F3F19F4411132
:104BB00001C0982F8F5F8630A9F79F3F39F0F90128
:104BC000E90FF11D97FDFA956283089508959C0100
:104BD0002A5F3F4FFC014281461301C012820196B9
:104BE00082179307B9F70895262F269526952695BF
:104BF0002E3168F4FC01E20FF11D677021E030E016
:104C000001C0220F6A95EAF78281282B228308953A
:104C1000262F2695269526952E3170F4FC01E20F5D
:104C2000F11D677021E030E001C0220F6A95EAF7BC
:104C30002095828128232283089520912D0122230B
:104C400029F02091F00227FD0C94F4250C94CD2539
:104C500020912D01222329F02091F00227FD0C94B0
:104C600008260C94E72520912D01FC013296222381
:104C700031F08091F00287FF02C08EE101C086E032
:104C8000DF011D928A95E9F7089508950C94452651
:104C900083E08093C9020C944626811102C081E012
:104CA00001C082E08093C9020C9446260C944D26E4
:104CB00081E08093C9020C9446260C9458260895EE
:104CC00080916C03843031F10E94D9031092CA02A2
:104CD00020E488E190E00FB6F894A89580936000F6
:104CE0000FBE2093600083B7817F846083BF83B74A
:104CF000816083BF7894889583B78E7F83BF0FB61A
:104D0000F894A8958091600088618093600010926B
:104D100060000FBE089508950C948B26CF930E94D7
:104D20008C260E9453140E948B26C0E08C2F0E9478
:104D30007D13892B29F4CF5FCC30C1F780E001C00F
:104D400081E0CF9108950E94BA080C9455041F92F7
:104D50000F920FB60F9211248F939F93AF93BF932F
:104D60008091CA02811113C0809164039091650300
:104D7000A0916603B09167034196A11DB11D809378
:104D8000640390936503A0936603B0936703BF9198
:104D9000AF919F918F910F900FBE0F901F9018951C
:104DA00082E084BD93E095BD9AEF97BD80936E003D
:104DB00008952FB7F8948091640390916503A091B2
:104DC0006603B09167032FBF08952FB7F8946091E1
:104DD00064037091650380916603909167032FBF10
:104DE00008959C014FB7F8948091640390916503F6
:104DF000A0916603B09167034FBF821B930B089588
:104E000078941F920F920FB60F9211248F939F9355
:104E1000AF93BF938091640390916503A091660363
:104E2000B09167030196A11DB11D80936403909317
:104E30006503A0936603B0936703BF91AF919F9101
:104E40008F910F900FBE0F901F90189581E0809367
:104E5000E00080E28093D8001092C9008FE19EE4C8
:104E60000197F1F700C0000087E090EBDC01809330
:104E7000750390937603A0937703B09378039CE037
:104E800088E10FB6F894A895809360000FBE9093C8
:104E90006000FFCF8091EE020895089522E02093F4
:104EA000E9002FEF3091E800215035FD06C035EDC7
:104EB0003A95F1F700002111F5CF2091E80025FF88
:104EC0000BC040E050E066E070E00E948D298091C8
:104ED000E8008E778093E8000895CF93DF932091C8
:104EE0002D01222339F02091F00227FF03C060E258
:104EF00022E002C068E021E02093E9002FEF30912A
:104F0000E800215035FD06C035ED3A95F1F7000077
:104F10002111F5CF2091E80025FF1DC0EC01809103
:104F20002D01811105C040E050E068E070E003C051
:104F300070E040E050E0CE010E948D298091E800B1
:104F40008E778093E80080E2FE01AEECB2E0019043
:104F50000D928A95E1F7DF91CF9108958093CB026E
:104F60007093CD026093CC0280916C03843001F584
:104F700082E08093E9008FEF9091E800815095FDE9
:104F800006C095ED9A95F1F700008111F5CF80915B
:104F9000E80085FF0DC040E050E063E070E08BEC7E
:104FA00092E00E948D298091E8008E778093E8003E
:104FB0000895BC0184E00C94AE27BC0183E00C94FE
:104FC000AE2780916B03811109C00E941E2B0E94A5
:104FD0007B2B8091E20084608093E2000895109220
:104FE0006B0308950C945D266091680381E0611164
:104FF00001C080E00C94482690916C0381E09430CD
:1050000009F080E0609168030C944D2642E061EC69
:1050100081E00E94972A42E261EC82E00E94972A96
:1050200090916C0381E0943009F080E06091680316
:105030000C94562680916E03833009F461C030F4DD
:10504000813071F0823009F49AC008958A3009F4F1
:1050500086C08B3009F46CC0893009F0A8C020C02C
:1050600080916D03813A09F0A2C08091E800877FAA
:105070008093E8008091710390917203892B21F451
:1050800060E28EEC92E003C060E080E090E070E0CF
:105090000E94D8298091E8008B778093E8000895DA
:1050A00080916D03813209F082C0809171039091EB
:1050B0007203029708F07BC08091E800877F80939D
:1050C000E8008091E80082FD05C080916C038111A9
:1050D000F8CF6DC02091F3008091F20090E0922B08
:1050E000029731F48091F100813011F0863021F483
:1050F0008091F1008093EE028091E8008B7753C09D
:1051000080916D03813A09F052C0809171039091B2
:105110007203892B09F04BC08091E800877F809350
:10512000E8008091E80080FFFCCF80912D0136C01F
:1051300080916D038132D9F5809171039091720352
:10514000892BA9F58091E800877F8093E8000E9471
:10515000CC2A80916F0380932D010C94BA08809122
:105160006D03813221F58091E800877F8093E8000C
:105170000E94CC2A809170038093EF020895809161
:105180006D03813AA1F48091E800877F8093E80065
:105190008091E80080FFFCCF8091EF028093F100C6
:1051A0008091E8008E778093E8000C94CC2A0895D3
:1051B00084B7877F84BF0FB6F894A895809160006C
:1051C000886180936000109260000FBE90E080E8DC
:1051D0000FB6F89480936100909361000FBE0C9419
:1051E00058260E941E2B0E947B2BE2EEF0E080816D
:1051F0008460808378940C94102E81E291E00C946A
:10520000222580916C038530A9F480916C03853050
:1052100079F40E94602680916A038823B1F30E948A
:105220008E26882391F30E9477290E94BA08EDCF39
:105230000C94A326089508950C941E29292F332732
:1052400023303105C9F060F42130310581F022307E
:10525000310509F044C08BE390E025E235E043C01E
:1052600021323105E1F02232310549F138C082E1C5
:1052700090E020E635E037C099278130910549F06C
:1052800028F0029761F5E7EFF4E005C0E1E2F5E010
:1052900002C0EFE0F5E0849190E09F0124C0611529
:1052A000710541F061307105D1F489E090E020E5AD
:1052B00035E019C089E090E027E335E014C06115BE
:1052C000710541F06130710551F486EB90E022E701
:1052D00035E009C080E490E028E236E004C080E0D8
:1052E00090E020E030E0FA0131832083089580E1EE
:1052F00089BD82E189BD09B400FEFDCF8091D8004F
:105300008F7D8093D8008091E00082608093E000E0
:105310008091E00081FDFCCF0895CF92DF92EF9263
:10532000FF920F931F93CF93DF93EC018B017A01D0
:105330000E94EB2A811133C0E114F10439F0F70126
:1053400080819181081B190BC80FD91FC12CD12C4A
:105350000115110519F18091E80085FD16C08091B5
:10536000E8008E778093E800E114F10449F0F7013A
:1053700080819181C80ED91ED182C08285E00FC084
:105380000E94EB2A882321F30AC089918093F100BF
:1053900001501109FFEFCF1ADF0ADACF80E0DF9169
:1053A000CF911F910F91FF90EF90DF90CF900895D4
:1053B00020917303309174032617370748F0611565
:1053C000710539F42091E8002E772093E80001C0A0
:1053D000B901FC0120E06115710579F180916C0340
:1053E0008823F1F18530F1F18091E80083FD3CC024
:1053F0008091E80082FD2EC08091E80080FFEBCF15
:105400002091F3008091F20090E0922B61157105DC
:1054100051F08830910538F421912093F1006150CA
:1054200071090196F3CF21E0089709F020E08091FF
:10543000E8008E778093E800CECF2111CFCF0AC04D
:1054400080916C03882361F0853061F08091E800E1
:1054500083FD0AC08091E80082FFF2CF80E00895CA
:1054600082E0089583E0089581E008952091730318
:10547000309174032617370748F06115710539F428
:105480002091E8002E772093E80001C0B901FC01CB
:1054900020E06115710591F180916C03882309F476
:1054A00040C0853009F43FC08091E80083FD3DC0D5
:1054B0008091E80082FD2FC08091E80080FFE9CF55
:1054C0002091F3008091F20090E0922B611571051C
:1054D00059F08830910540F424912093F1003196E1
:1054E000615071090196F2CF21E0089709F020E0A0
:1054F0008091E8008E778093E800CBCF2111CCCF4C
:105500000AC080916C03882361F0853061F080913E
:10551000E80083FD0AC08091E80082FFF2CF80E0BE
:10552000089582E0089583E0089581E00895982F1A
:10553000973068F59093E900981739F07091EC0076
:105540002091ED005091F00003C0242F762F50E001
:1055500021FD02C09F5FECCF3091EB003E7F309386
:10556000EB003091ED003D7F3093ED003091EB008A
:1055700031603093EB007093EC002093ED0050937A
:10558000F0002091EE0027FDE5CF80E008958F70B8
:105590008093E90081E0089580916D0387FF11C039
:1055A0008091E80082FD05C080916C038111F8CFE5
:1055B00011C08091E8008B770BC080916C03882329
:1055C00049F08091E80080FFF8CF8091E8008E7765
:1055D0008093E80008952091E4003091E50095E67D
:1055E0004091EC00842F817040FF23C08091E8003F
:1055F00080FD1DC080916C03882399F0853099F05F
:105600008091EB0085FD11C04091E4005091E500D0
:105610002417350729F3915011F09A01E1CF84E066
:10562000089582E0089583E0089581E0089580E080
:1056300008954091E80042FFDDCF08950E948C2B31
:105640000E94942BE0EEF0E0808181608083E8EDA1
:10565000F0E080818F77808319BCA7EDB0E08C915A
:105660008E7F8C9380818F7E808310926B03089550
:105670000F931F93CF93DF930E948C2B0E94942B48
:10568000C8EDD0E088818F7788838881806888839F
:1056900088818F7D888319BC10926C0310926803F7
:1056A00010926A031092690300EE10E0F801808105
:1056B0008B7F808388818160888342E060E080E026
:1056C0000E94972AE1EEF0E080818E7F8083E2EEF7
:1056D000F0E0808181608083808188608083F80130
:1056E00080818E7F8083888180618883DF91CF91E4
:1056F0001F910F910895E8EDF0E080818F7E808307
:10570000E7EDF0E080818160808384E082BF81E00A
:1057100080936B030C94382BE8EDF0E080818E7F52
:1057200080831092E20008951092DA001092E10056
:1057300008951F920F920FB60F9211242F933F934B
:105740004F935F936F937F938F939F93AF93BF9389
:10575000EF93FF938091E10082FF0BC08091E20004
:1057600082FF07C08091E1008B7F8093E1000E945F
:105770000F2E8091DA0080FF1FC08091D80080FF3B
:105780001BC08091DA008E7F8093DA008091D9006F
:1057900080FF0DC080E189BD82E189BD09B400FEB2
:1057A000FDCF81E080936C030E94E12705C019BC06
:1057B00010926C030E94EF278091E10080FF19C0D6
:1057C0008091E20080FF15C08091E2008E7F80937F
:1057D000E2008091E20080618093E2008091D80035
:1057E00080628093D80019BC85E080936C030E948E
:1057F000F4278091E10084FF30C08091E20084FFB3
:105800002CC080E189BD82E189BD09B400FEFDCFD5
:105810008091D8008F7D8093D8008091E1008F7EA9
:105820008093E1008091E2008F7E8093E20080917E
:10583000E20081608093E20080916803882311F088
:1058400084E007C08091E30087FD02C081E001C0D1
:1058500083E080936C030E94FC278091E10083FF2A
:1058600029C08091E20083FF25C08091E100877FFD
:105870008093E10082E080936C0310926803809132
:10588000E1008E7F8093E1008091E2008E7F809323
:10589000E2008091E20080618093E20042E060E0FB
:1058A00080E00E94972A8091F00088608093F00049
:1058B0000E94F227FF91EF91BF91AF919F918F913D
:1058C0007F916F915F914F913F912F910F900FBEFC
:1058D0000F901F9018951F920F920FB60F921124E0
:1058E0002F933F934F935F936F937F938F939F93E8
:1058F000AF93BF93CF93DF93EF93FF93C091E900F2
:10590000CF708091EC00D82FD17080FDD0E810923C
:10591000E9008091F000877F8093F00078940E94E6
:10592000AF2C1092E9008091F00088608093F00025
:10593000CD2BCF70C093E900FF91EF91DF91CF9114
:10594000BF91AF919F918F917F916F915F914F9197
:105950003F912F910F900FBE0F901F9018951F939E
:10596000CF93DF93CDB7DEB7AA970FB6F894DEBF1B
:105970000FBECDBFEDE6F3E08091F100819323E00F
:10598000E537F207C9F70E941A288091E80083FFE3
:105990002EC180916D0390916E03492F50E04A30E3
:1059A000510508F024C1FA01E654FF4F0C94932EE0
:1059B000803821F0823809F01AC108C0809169034B
:1059C00090916A03992389F082600FC080917103DE
:1059D0008F70873008F00BC18093E9008091EB0055
:1059E00085FB882780F91092E9009091E800977F65
:1059F0009093E8008093F1001092F100D1C0282F1D
:105A00002D7F09F0F4C0882319F0823061F0EFC0D7
:105A100080916F03813009F0EAC0933009F080E093
:105A200080936A032EC080916F0381112AC08091F8
:105A300071038F702FEF280F263008F0D8C08093A5
:105A4000E9002091EB0020FF1CC0933021F48091ED
:105A5000EB00806214C09091EB0090619093EB009A
:105A600021E030E0A90102C0440F551F8A95E2F7FA
:105A70004093EA001092EA008091EB0088608093E6
:105A8000EB001092E9008091E800877F8093E800A6
:105A90000E94CC2AACC08111AAC010916F031F775D
:105AA0008091E3008078812B8093E3008091E8006F
:105AB000877F8093E8000E94CC2A8091E80080FFD5
:105AC000FCCF8091E30080688093E300111102C055
:105AD00082E001C083E080936C0389C080588230EB
