:100000000C9470030C94612A0C94B7030C94B703FE
:100010000C94B7030C94B7030C94B7030C94B70378
:100020000C94B7030C94B7030C94B21B0C94EE1A07
:100030000C949E230C94B7030C94B7030C94B70351
:100040000C94B7030C94B7030C94B7030C94B70348
:100050000C94B7030C94AB1C0C94B7030C94B7032B
:100060000C94B7030C94B7030C94B7030C94B70328
:100070000C94B7030C94B7030C94B7030C94B70318
:100080000C94B7030C94B7030C94B7030C94B70308
:100090000C94B7030C94B7030C94B7030C94B703F8
:1000A0000C94B7030C94B7030C94B703DD07DD077A
:1000B000170817087008170A170A170A8C086A0920
:1000C0007B097B0909193019C61A3019C61A781923
:1000D0009B19C61A8A1A9D1A4D1E4D1E601E601E5F
:1000E000561E601E601E601E4D1E4D1E5B1E601E55
:1000F000601E5B1E00047F3F1F643214643214785C
:100100003C1E1E140A0505010980A1018503190181
:100110002AB700150126B700950175108100C005AA
:100120000C0901A101850419012AA002150126A0CC
:1001300002950175108100C005010906A10105079E
:1001400019E029E71500250195087501810295013F
:10015000750881010507190029FF150026FF009584
:100160000675088100050819012905950575019195
:1001700002950175039101C009023B00020100A034
:10018000FA09040000010301010009211101000125
:100190002240000705810308000A09040100010349
:1001A000000000092111010001223200070582032D
:1001B00020000A120100020000000810CB6A1200A1
:1001C000010102000120034B0042004F002D0035C9
:1001D0000030003000300020005200650076002E14
:1001E000002000310000000E034B00650065006236
:1001F0000069006F00000004030904680000003576
:10020000001E001F002000210022002300000069C2
:100210000000002B0014001A000800150017000051
:100220000000006A00000039000400160007000901
:10023000000A00000000006B000000E10000001D4B
:10024000001B0006001900050000006C000000E023
:1002500000E200E30001512C002C00000000002906
:1002600000000000003A003B003C003D003E003F23
:1002700000000024002500260027002D002E004C41
:10028000002A0049004B001C0018000C001200134B
:10029000002F00300031004C004E000B000D000E0E
:1002A000000F0033003400000028004A004D001108
:1002B0000010003600370038000000E50000005252
:1002C00000000001512C00E600E70000000000E4FF
:1002D00000500051004F0040004100000042004328
:1002E0000044004500460047004800C35C00000190
:1002F000000100010001000100010001000000C434
:100300005C0000010001000100010001000100008B
:1003100000000001000000010001000100010001D7
:1003200000010000000000010000000100000001C9
:1003300000010001000100010000000100000001B7
:10034000000100010001000100010000000000C1E7
:100350005C00000000C65CC75CC85CC95CCA5CCBC2
:100360005C0000010001000100010001000100012A
:100370000001000100010001000100010001000175
:100380000001000100010001000100010001000165
:100390000001000100010000000100010001000156
:1003A0000001000100010001000000010000000147
:1003B0000000000100010001000100000000000138
:1003C0000001000100010001000100000001000126
:1003D0000001000100010001000100010000000116
:1003E0000001000100010001000100010000000106
:1003F00000000001000100010001000100010000F7
:1004000000000001000000010001000100010001E6
:1004100000010000000000010000000100000001D8
:1004200000010001000100010000000100000001C6
:1004300000010001000100010001000000000001B6
:1004400000000000000100010001000100010001A6
:100450000000000100010001000100010001000195
:100460000001000100010001000100010001000184
:100470000001000100010001000100010001000174
:100480000001000100010000000100010001000165
:100490000001000100010001000000010000000156
:1004A0000000000100010001000100000000000147
:1004B0000001000100010001000100000001000135
:1004C000000100010001000100010022232526286F
:1004D000292A2C2D2F3032333536383A3B3D3E40D9
:1004E00042434547494A4C4E5051535557595A5C1F
:1004F0005E6062646668696B6D6F71737577797B36
:100500007D7F81838587898A8C8E90929496989A34
:100510009C9E9FA1A3A5A7A8AAACAEAFB1B3B4B649
:10052000B8B9BBBCBEBFC1C2C3C5C6C7C9CACBCCA4
:10053000CDCED0D1D2D2D3D4D5D6D7D7D8D9D9DA77
:10054000DADBDBDBDCDCDCDCDCDDDDDDDDDCDCDCEC
:10055000DCDCDBDBDBDADAD9D9D8D7D7D6D5D4D314
:10056000D2D2D1D0CECDCCCBCAC9C7C6C5C3C2C1E9
:10057000BFBEBCBBB9B8B6B4B3B1AFAEACAAA8A746
:10058000A5A3A19F9E9C9A98969492908E8C8A89FE
:10059000878583817F7D7B79777573716F6D6B69DB
:1005A00068666462605E5C5A5957555351504E4CB0
:1005B0004A4947454342403E3D3B3A38363533325F
:1005C000302F2D2C2A292826252322000101010164
:1005D00001010101010202020202020202020303FE
:1005E00003030303030304040404040404050505CE
:1005F0000505060606060607070707070808080890
:10060000090909090A0A0A0B0B0B0C0C0C0D0D0D3C
:100610000E0E0E0F0F0F10101111111212131314D2
:1006200014151516161717181819191A1A1B1B1C4A
:100630001D1D1E1E1F2020212222232424252626A4
:10064000272829292A2B2C2D2D2E2F3031323233D9
:100650003435363738393A3B3C3D3E3F40414243E2
:100660004445464748494A4C4D4E4F5051535455C6
:100670005658595A5B5D5E5F616264656668696B76
:100680006C6D6F7072737577787A7B7D7E808283F4
:100690008587888A8C8E8F91939596989A9C9EA038
:1006A000A2A3A5A7A9ABADAFB1B3B5B7BABCBEC045
:1006B000C2C4C6C9CBCDCFD1D4D6D8DBDDDFE2E40E
:1006C000E7E9EBEEF0F3F5F8FAFDFFFFAA7F5540FE
:1006D0000102030C0D0E0F00070605040B0A0908A2
:1006E00011241FBECFEFDAE0DEBFCDBF04B603FE9C
:1006F00027C08091A0039091A103A091A203B09183
:10070000A3038730904BA740B04BD1F41092A003C5
:100710001092A1031092A2031092A30314BE84B7F7
:10072000877F84BF0FB6F894A89580916000886198
:1007300080936000109260000FBEE0E0F8E309953E
:1007400011E0A0E0B1E0ECEBF9E502C005900D92FC
:10075000A23FB107D9F723E0A2EFB1E001C01D929B
:10076000A03AB207E1F70E9455120C94DC2C0C94CD
:1007700000001F93CF93DF93CDB7DEB767970FB617
:10078000F894DEBF0FBECDBF4B8B5C8B6D8B7E8B29
:100790008F8B611110924E0386E09E01235F3F4FC5
:1007A000D901E82F1D92EA95E9F795E0FE017396CD
:1007B000D90101900D929A95E1F79C894E895F8944
:1007C0007B897D879E876F87598B488BF901DE0176
:1007D000179601900D928A95E1F7CE0107960E9437
:1007E000641E81113EC086E0FE013796DE0111963F
:1007F00001900D928A95E1F7FF81E8856A857B85F6
:100800006115710531F0EF3F31F481E0FF3F19F4DC
:1008100003C081E001C080E080FD23C020911A0365
:1008200030E0C90101968770992740914B0350E051
:100830008417950779F1F983EA837D836C8396E0C9
:10084000929FD001939FB00D1124A55EBC4FFE0175
:10085000319601900D929A95E1F780931A030E94C8
:100860004D1D16E080914B0390911A038917F9F002
:10087000189FC0011124855E9C4F0E94641E88232E
:10088000B1F080914B0390E0019687709927809397
:100890004B03E8CF0E94D32010921A0310924B030F
:1008A000E4E1F3E086E0DF011D928A95E9F76796BF
:1008B0000FB6F894DEBF0FBECDBFDF91CF911F9171
:1008C000089590915C01992329F081FD02C02E9A30
:1008D00008952E980895811106C0662311F08EE4C4
:1008E00011C08BE40FC0823031F4662311F089EA25
:1008F00009C08AEA07C0833039F4662311F081E524
:1009000001C082E50E94F32081E008958F929F92BA
:10091000AF92BF92CF92DF92EF92FF920F931F930D
:10092000CF93DF93CDB7DEB72A970FB6F894DEBF2B
:100930000FBECDBFFC010081D18083819481892BC2
:1009400039F01FEFD11206C091E00F3F19F403C038
:1009500091E001C090E090FD5EC67F0185E0DE0180
:10096000169601900D928A95E1F7F70122818E810A
:100970009F81222349F00E94C31D182F682F8E816A
:100980009F810E94312003C00E940520182F28E774
:10099000129FF00111243AE0D39EE00DF11D1124C5
:1009A000E00FF11DEE0FFF1FE550FE4F0591149172
:1009B000F7018281882309F482C00E3BFCE51F0702
:1009C000E1F058F40C3B3CE5130799F00D3B9CE536
:1009D000190709F074C080E00DC0003CECE51E076B
:1009E00009F45AC008F43FC0013C2CE51207A9F0F5
:1009F00066C083E00E94422557C280918B03982FE6
:100A000096959695969549F1915E990F990F990F44
:100A10008770892B80938B0314C090918B03892F4F
:100A20008695869586958F5F8F719770843008F0D4
:100A300043C0880F880F880F892B80938B03809188
:100A40008B03887F91E009F490E080918B0390FB09
:100A500080F980938B030E943D2580918B038695BE
:100A60008695869523C020918B03822F8695869547
:100A70008695482F50E04330510554F48F5F982FEE
:100A8000990F990F990F822F8770892B80938B0371
:100A900080918B038160DDCF80918B0380FF09C043
:100AA0008E7F80938B030E943D2580E00E94D82496
:100AB000FBC10E945F25F8C190938B03C0CF043F18
:100AC0002CE5120749F406E221EE40EE64EF7CE5E6
:100AD000C7010E944E24E8C1053F3CE5130708F01A
:100AE00049C1093D9CE5190731F407E225EE45EEC1
:100AF00069ED7CE5EDCF0A3DECE51E0731F408E237
:100B000021E045EE6AED7CE5E3CF083DFCE51F07FB
:100B100031F406E221EE41EE68ED7CE5D9CF882381
:100B200009F45DC110928E0302303CE5130708F40E
:100B300040C106318CE5180730F0C8018B5F9C4539
:100B4000099708F036C10E94E50E90934802809301
:100B5000470200319CE5190709F4C3C008F041C001
:100B60000830FCE51F0709F49AC0F0F404303CE5B6
:100B7000130709F487C068F402309CE5190709F4EB
:100B800077C003301C4509F0E5C0809147028260C0
:100B900076C00630FCE51F0709F46EC008F07BC084
:100BA0008091470288606BC00C303CE5130709F464
:100BB00085C068F40A309CE5190709F474C008F090
:100BC00079C00E94D32080914702806858C00E30BF
:100BD000FCE51F0709F476C008F07FC0809147024A
:100BE0008BC00C3F3CE5130709F44FC018F50331E7
:100BF0009CE5190709F47DC078F40131FCE51F0775
:100C000009F473C002311C4509F0A4C00E94D3202E
:100C1000809147028F7733C005313CE5130709F413
:100C200072C008F486C00B3F1C4509F093C0809148
:100C300048023EC00115EDE51E0709F45FC058F4F7
:100C40000E3F2CE5120709F444C008F43FC0809120
:100C5000480282602DC002308DE5180709F475C086
:100C600008F45DC003301D4509F074C060E06EC03B
:100C700080914702816003C0809147028061809328
:100C8000470268C08091470211C08091480282608B
:100C9000809348025FC0809147028062F0CF8091CC
:100CA00047028064ECCF8091470288608460E7CF80
:100CB0008160EECF809147028E7FE1CF8091470225
:100CC0008D7FDDCF80914702877FD9CF8091480209
:100CD00018C0809148028D7FDBCF809147028F7EC4
:100CE000CECF809147028F7DCACF809147028F7B04
:100CF000C6CF80914702877F8B7FC1CF809148020A
:100D00008D7F8E7FC5CF8091470282FB222720F9FD
:100D100091E0922790FB82F990FB83F9B0CF80910C
:100D20004802982F909591708E7F892B90FB81F9C6
:100D3000AFCF0E94D3208091470287FB222720F962
:100D400091E0922790FB87F99ACF61E08EE090E0E6
:100D50000E94F42B609147021091480284E090E0D9
:100D60000E94F42B612F82E290E00E94F42B0E94FB
:100D7000D3209AC0063F2CE5120731F406E221EE9B
:100D800042EE66EF7CE5A4CE063F3CE5130730F467
:100D900007E225EE44EE65EF7CE59ACE073F9CE541
:100DA000190709F0BCCE07E225EE46EE67EF7CE5B9
:100DB0008FCE0631ECE51E0721F580914F038A7A2C
:100DC00091E009F490E09093F401882311F065E339
:100DD00001C069E281EC92E00E94F8230FC0063165
:100DE000FCE51F0709F041C08091F401882309F454
:100DF0005DC365E381EC92E00E94EB230E94F81C46
:100E000053C00B352DE5120751F158F401158CE54F
:100E10001807B9F00F3D1C4509F077C00E94F60E87
:100E200043C00C35EDE51E07E1F00D351D4509F019
:100E30006CC08091480282FB882780F991E0892765
:100E400011C00E94D3200FEF14E32CE0015010409A
:100E50002040E1F700C000000E94871C25C081E00F
:100E600001C080E00E94331D50C080914F03827208
:100E70000D3CFCE51F0709F4B0C3A8F1023DFCE5F9
:100E80001F0709F4B9C308F443C3053DFCE51F0778
:100E900009F4B8C308F44FC3063D9CE5190709F4EB
:100EA000B6C30E351D4589F580914C03877009F452
:100EB000B2C3F7018281882309F4ADC382E02A9688
:100EC0000FB6F894DEBF0FBECDBFDF91CF911F915B
:100ED0000F91FF90EF90DF90CF90BF90AF909F90D9
:100EE0008F900C948B20073C3CE5130709F461C3F9
:100EF00008F0ECC2043CECE51E0709F450C308F00E
:100F0000D7C2033C1C4509F421C3F701828100814B
:100F1000D180882359F0802F9D2D0E94C31D182F4A
:100F2000682F802F9D2D0E94312005C0802F9D2D80
:100F30000E940520182F28E7129FF00111243AE0A3
:100F4000D39EE00DF11D1124E00FF11DEE0FFF1FE8
:100F5000E550FE4F859194910E94F10C8C01982EE2
:100F6000F701B280A580A2943FE0A32280914C03B8
:100F7000877099F0BB2089F0812F807F803421F029
:100F800080E2800F883048F082E00E948B208091C0
:100F90004C038770DD24D3948111D12CC12EC294CF
:100FA0009FE0C9228C2D90E08C30910508F03FC263
:100FB000FC01EA5AFF4F0C94822C812F807F1F7016
:100FC000882311F01295107FBB20B9F0112309F48A
:100FD00019C280E2800F883010F0911006C0809115
:100FE0004F03182B10934F0305C080914E03182B0D
:100FF00010934E030E94F81C05C2802F0E94C8283F
:10100000112309F414C2005E1095083010F09110FD
:1010100006C080914F03182310934F0305C08091A1
:101020004E03182310934E030E94F81C00C2812F18
:10103000807F1F70803211F01295107F992021F06F
:10104000F1E09F1611F130C0BB20B1F0AA2081F071
:1010500001E0A0120DC08091480282FDE8C180919C
:10106000F501182B181709F4E2C11093F501DFC13F
:101070008091F501812B10C0AA2021F021E0A21659
:1010800009F4D5C10E94770F27C0BB2041F035E09D
:101090003A1508F4CCC1812F0E94E920C8C184E030
:1010A0008A1508F4C4C118C0BB2049F0AA2099F3DE
:1010B000F701858180FFA6C18F708583ECCFAA20C0
:1010C00059F0093309F0B0C1FFEF17EE23E0F150FA
:1010D00010402040E1F7A6C1812F0E94DE20A7C169
:1010E000812F86958695837019F0813059F09FC1C4
:1010F000BB2019F0C801937002C080E090E00E940C
:1011000028249DC1BB2019F0C801937002C080E063
:1011100090E00E94122493C1812F837009F069C06E
:10112000B11089C1902F929596959770990F990F4C
:10113000802F8F70882E912CA12CB12C092E04C0E9
:10114000880C991CAA1CBB1C0A94D2F704FF12C07D
:101150004FE050E060E070E004C0440F551F661F90
:10116000771F9A95D2F7DB01CA0180959095A095DB
:10117000B09503C080E090E0DC0116951695412FF4
:101180004370423019F1C8F40091F6011091F70153
:101190002091F8013091F901413059F088299929BD
:1011A000AA29BB29BC01CD0160237123822393238B
:1011B0000AC0802A912AA22AB32ABC01CD0168293B
:1011C00079298A299B290E94C92035C18829992912
:1011D000AA29BB290091F6011091F7012091F8018D
:1011E0003091F901BC01CD01602771278227932737
:1011F000EACFBB2019F0812F817001C0869588232A
:1012000009F419C1902F929596959770990F990F9F
:10121000802F8F70882E912CA12CB12C092E04C008
:10122000880C991CAA1CBB1C0A94D2F704FF12C09C
:101230004FE050E060E070E004C0440F551F661FAF
:10124000771F9A95D2F7DB01CA0180959095A095FA
:10125000B09503C080E090E0DC0116951695412F13
:1012600043704230D9F068F5009143021091440276
:101270002091450230914602413059F08829992940
:10128000AA29BB29BC01CD016023712382239323AA
:101290001EC0802A912AA22AB32A13C0882999291C
:1012A000AA29BB29009143021091440220914502D2
:1012B00030914602BC01CD01602771278227932718
:1012C00006C0BC01CD01682979298A299B290E9481
:1012D0005C20B1C01F70BB2039F0812F0E94A82074
:1012E000802F0E94E920A7C0802F0E94DE20812F3E
:1012F0000E946620A0C0802F32EF931609F440C0F0
:10130000391538F090EF991661F0E1EF9E1699F1DA
:1013100074C0F3EF9F16D9F124EF921609F44EC072
:101320006CC0BB2019F134E03A1508F480C01F717D
:1013300081E090E0A0E0B0E0AC01BD0104C0440F4A
:10134000551F661F771F1A95D2F78091430290911F
:101350004402A0914502B09146028A019B010827F0
:1013600019272A273B27C901B80125C025E02A15DE
:1013700008F45DC0DCCFBB2029F0812F8F7130C015
:10138000BB20D9F3812F8F710E94662050C0BB20F3
:1013900079F01F7181E090E0A0E0B0E0BC01CD01E8
:1013A00004C0660F771F881F991F1A95D2F703C0D4
:1013B00060E070E0CB010E945C2039C0BB2099F056
:1013C0001F71812F0E94A8208091480282FD07C0D2
:1013D00038E0139FC0011124836080934C03812F58
:1013E0000E94A82024C081E00E948B2081E08A1501
:1013F000F0F482E00E948B201AC0BB2039F0AA20B2
:1014000009F4BBCF802F0E94242911C0AA2009F41F
:10141000B9CF893349F49FEFE7EEF3E09150E04014
:10142000F040E1F700C00000802F0E94C82888EF3C
:101430008C0D843020F40E943E240E946104DD2043
:10144000A9F080914C0380FD11C0F70112828595AF
:10145000859585950E94A820C7010E9486048091E9
:101460004C038595859585950E94662085E0F7015A
:10147000DE01119601900D928A95E1F789819A819A
:101480000E9405209A8108E7809FF00111241AE04C
:10149000919FE00DF11D11248981E80FF11DEE0FE0
:1014A000FF1FE550FE4F85919491B5C069E2A2CC33
:1014B000053C3CE5130709F477C0063C1C4509F0E0
:1014C00024CD40E658E269E678E28BC00A3CECE5C0
:1014D0001E0709F478C070F4083C2CE5120709F4E3
:1014E0006DC0093C1C4509F010CD44E558E268E4A4
:1014F00078E277C00B3C9CE5190709F469C00C3C05
:101500001C4509F002CD45EA56E266EB76E269C079
:101510000F3C3CE5130709F469C008F465C0003DC1
:101520009CE5190709F465C0013D1C4509F0EDCCA7
:101530006EE089E069C0033D3CE5130709F45FC034
:10154000043D1C4509F0E1CC88E162C0809186032E
:1015500080FF20C08E7F8093860360918603709108
:10156000870380918803909189030E9493260E94AB
:10157000BC2580915203816080935203FFEF00E706
:1015800012E0F15000401040E1F700C000000E945E
:10159000DE258ACC816080938603869539C045EB31
:1015A00058E26EEB78E21DC04EEB58E265EB78E254
:1015B00018C049E658E260E678E213C048E458E211
:1015C00064E578E20EC040E358E26CE378E209C0DB
:1015D0004CE358E260E378E204C046EB56E265EA89
:1015E00076E20E94B62560CC81E012C065E082E020
:1015F0000BC068E086E008C064E18FE005C067E1E9
:1016000085E102C062E289E10E94A5254DCC83E21A
:101610000E94B22849CC2A960FB6F894DEBF0FBEBE
:10162000CDBFDF91CF911F910F91FF90EF90DF9091
:10163000CF90BF90AF909F908F90089580E00895D5
:101640009091470292FF0DC0282F2871283019F47D
:10165000877F846006C0282F2471243011F48B7F8B
:10166000886093FF0DC0282F2871283119F4877ED8
:10167000846106C0282F2471243111F48B7E886187
:101680002091480220FF0DC0382F3871383019F4EE
:10169000877F816006C0382F3171313011F48E7F21
:1016A000886021FF0DC0282F2871283119F4877E0A
:1016B000816106C0282F2171213111F48E7E88614D
:1016C00094FD877E08957F928F929F92AF92BF92F2
:1016D000CF92DF92EF92FF920F931F93CF93DF93FE
:1016E0001F92CDB7DEB7762E4A0159016801082F47
:1016F000880F110BC8010E94282B892B09F07EC08E
:101700008AE0809FF001819FF00D1124E050FF4F8F
:10171000458150E04115510511F041E050E08AE06B
:10172000809FF001819FF00D1124E050FF4F6681F2
:101730007781675E7D4FCE0101960E94D32CF40124
:1017400040815181628173812FB7F8948091A30207
:101750009091A402A091A502B091A6022FBF841B74
:10176000950BA60BB70B84369105A105B10540F486
:10177000B701C6010E94C1249981891709F440C0AC
:10178000072D770C110BC8010E94282B892B09F516
:10179000E114F10401F18AE0809FF001819FF00DD6
:1017A0001124E050FF4F458150E0E416F50608F49F
:1017B000A7018AE0809FF001819FF00D1124E05085
:1017C000FF4F66817781675E7D4FC5010E94D32CF4
:1017D00002C010E001C011E0B701C6010E94C1249F
:1017E00091E02981281390E0192381F00E94E01CE8
:1017F000F401608371838283938308C010E001C089
:1018000011E0A701B601C5010E94D32C812F0F90D2
:10181000DF91CF911F910F91FF90EF90DF90CF90CC
:10182000BF90AF909F908F907F900895CF92DF925E
:10183000EF92FF920F931F93CF93DF93CDB7DEB755
:101840002C970FB6F894DEBF0FBECDBF6B018CE0B6
:10185000E82EF12C0AE112E09E012F5F3F4F40E19C
:1018600052E061E080E00E94630B882349F09CE035
:10187000FE013196A4E0B2E001900D929A95E1F755
:101880009CE0E4E0F2E0D60101900D929A95E1F738
:101890002C960FB6F894DEBF0FBECDBFDF91CF916F
:1018A0001F910F91FF90EF90DF90CF9008958F924E
:1018B0009F92AF92BF92CF92DF92EF92FF920F93DF
:1018C0001F93CF93DF93FB0180809180A280B38030
:1018D0009FB7F894C090A302D090A402E090A50214
:1018E000F090A6029FBFC818D908EA08FB08F4E6E2
:1018F000CF16D104E104F10410F4442351F17B012B
:10190000C82F880FDD0B01151105A9F08AE08C9F07
:10191000F0018D9FF00D1124E050FF4F83819481E1
:10192000875E9D4F428150E00417150708F4A80117
:10193000B9010E94D32CCE010E94282B892B11F0D3
:1019400080E008C00E94E01CF701608371838283FD
:10195000938381E0DF91CF911F910F91FF90EF90E2
:10196000DF90CF90BF90AF909F908F90089580911F
:101970000302811118C08091D80080618093D80043
:101980008AE18A95F1F700C08091D90080FD02C0FC
:1019900082E001C081E080930302823021F40E9442
:1019A000321B1092B70281E090910302913009F04E
:1019B00080E00895F894E82FE295EF70F0E031A10F
:1019C000282F2F7081E090E001C0880F2A95EAF758
:1019D000982F9095932391A392A1892B82A3789419
:1019E0000895CF93DF938238910569F1B0F4813384
:1019F000910509F46FC048F48932910509F465C076
:101A00008A32910509F46BC08AC08533910509F4C7
:101A100057C089339105B9F082C0833E910571F1B9
:101A200038F4803E9105B1F0823E910511F177C006
:101A3000863E9105B9F1873E9105C9F1843E910535
:101A400009F06DC024C02091470220FD53C021FD44
:101A500051C065C08091470280FD46C08091480218
:101A600080FF48C08091470284FD3FC183EE90E033
:101A70003EC18091470282FF3AC0F4CF8091470275
:101A800082FD35C08091480280FD34C0EBCF80914B
:101A9000480281FF35C08091470284FD26C187EE50
:101AA00090E025C18091470283FF27C0F4CF809149
:101AB000470283FD22C08091480281FD21C0EBCF07
:101AC0008091470285FD1FC021C08091470285FD9E
:101AD0001DC019C08091470286FD1BC01DC08091AA
:101AE000470286FD19C015C089E390E000C182EE6F
:101AF00090E0FDC080EE90E0FAC086EE90E0F7C086
:101B000084EE90E0F4C089E290E0F1C085E390E0DB
:101B1000EEC08AE290E0EBC081E390E0E8C081157E
:101B200032E5930708F069C0811541E5940728F074
:101B3000982F8827816F906ADAC0883E910568F5F2
:101B4000803E910508F0D3C0883A9105B8F4853AF3
:101B5000910548F0855AE82FF0E0E757FE4F808165
:101B600090E09064C4C08130910509F4BBC008F4D2
:101B7000BCC08430910508F4B8C0B9C08F3B910552
:101B800008F0B3C0885AE82FF0E0EE0FFF1FE457CB
:101B9000FE4F808191819464AAC0811520E592074F
:101BA000F0F09C0174E0369527957A95E1F7922F35
:101BB0009370482F437021E030E002C0220F331FA2
:101BC0004A95E2F73C68392B8F70982F9695969539
:101BD00040E2949FC0011124822B932B88C0811571
:101BE00030E4930718F09F70906A81C09C013A9589
:101BF00021153F4108F47BC078C0EC01C11586E592
:101C0000D807E8F5C11525E5D20748F08C2F0E94CA
:101C1000200B8F7190E0982F8827906268C0C115C3
:101C200034E5D30728F09C2F8827846F906A5FC023
:101C3000AE01437055272C2F26952695C115D34507
:101C400078F481E090E002C0880F991F4A95E2F78E
:101C500040E2249F90011124822B932B9C6847C063
:101C600081E090E002C0880F991F4A95E2F740E2B8
:101C7000249F90011124822B932B9A6838C0C115A0
:101C80002AE5D207F8F4C11539E5D30790F08C2F77
:101C90008F700E94200B94E0D695C7959A95E1F736
:101CA000CF70D0E0DC2FCC27D0699E01282BC90152
:101CB0001EC0C11548E5D407C0F09C2F8827806F4F
:101CC000906A15C0CE0190568115904270F48D2F08
:101CD0008F710E94200B282F2F71CE0199279062BF
:101CE000922B05C081E090E002C080E090E0DF919F
:101CF000CF9108950C94E01C9F92AF92BF92CF9227
:101D0000DF92EF92FF920F931F93CF93DF9300D058
:101D1000CDB7DEB782E0E82EF12C07E212E09E019B
:101D20002F5F3F4F44E152E063E082E00E94630B8B
:101D3000982E8823D9F1AE014F5F5F4F6A0180E092
:101D4000B12C009164020B0DF60111916F01202F4F
:101D500030E0A90140585D4F7A01FA019081191BCA
:101D6000A12E1A145CF4AA94F70180818F5F8083FE
:101D700060E0802F0E946B0481E0F3CF912F17FD6C
:101D800090E0191B112359F01F5FF70180818150EA
:101D9000808361E0802F0E946B0481E0F3CFB394D5
:101DA000F2E0BF12CECF81110E947A0E892D0F90E2
:101DB0000F90DF91CF911F910F91FF90EF90DF90E7
:101DC000CF90BF90AF909F900895CF9384E090E024
:101DD0000E94E02BC82F82E290E00E94E02B2C2F83
:101DE00030E0A901582BCA01CF91089569EE7EEF2A
:101DF00080E090E00E94122C60E082E090E00E947F
:101E0000F42B60E083E090E00E94F42B1092F60146
:101E10001092F7011092F8011092F90160E084E04D
:101E200090E00E94F42B60E082E290E00E94F42BAC
:101E300060E085E090E00E94F42B60E086E090E0B6
:101E40000E94F42B6FEF87E090E00E94F42B40E0BB
:101E500050E0BA0188E090E00E94062C60E08DE03E
:101E600090E00E94F42B40E050E0BA0188E190E05D
:101E70000E94062C60E087E190E00E94F42B40E095
:101E800050E0BA018CE190E00E94062C60E070E026
:101E900080E290E00E94122C40E050E0BA0188E11C
:101EA00090E00E94062C0E945F2583E00E9442255C
:101EB000E6E8F3E080818160808386950E94B22805
:101EC00021E04FEF6FEF80E00E948E278BE00E94B1
:101ED000B22840E050E0BA018FE090E00E94062C6A
:101EE00040E050E0BA0183E190E00C94062C809130
:101EF000F50181111092F50108958F929F92AF9292
:101F0000BF92CF92DF92EF92FF920F931F93CF93E6
:101F1000DF93CDB7DEB7A4970FB6F894DEBF0FBE40
:101F2000CDBF9E012F5F3F4F790188E1D9011D92FE
:101F30008A95E9F700E511E06901AA24A394B12C80
:101F4000F80180818F3F09F44DC0F894E82FE295A5
:101F5000EF70F0E021A18F70A50102C0440F551F62
:101F60008A95E2F7CA01922F982B91A392A18095AE
:101F7000892382A3789400C0E6E4F1E020E030E019
:101F8000812C912C81918F3FC1F0A82FA295AF7029
:101F9000B0E090964C9150E08F70DA0102C0B59598
:101FA000A7958A95E2F7A0FD08C0C501022E02C0E0
:101FB000880F991F0A94E2F702C080E090E0882A17
:101FC000992A2F5F3F4F2A303105E1F6F8018081D1
:101FD0008F3F11F00E94DA0CF0EAFA95F1F7D60182
:101FE0008D929C920F5F1F4FB2E0CB0ED11CE1E0AF
:101FF00006351E0709F0A4CF48E150E0B70189E497
:1020000092E00E94C62C8C01892B41F088E1F701F7
:10201000A9E4B2E001900D928A95E1F7F090620296
:102020000115110549F081E08093FC010E94EC1C30
:102030009093FB018093FA018091FC018823D1F0F9
:102040008091FA019091FB010E94D11C059790F0BC
:10205000A9E4B2E0EF2DF0E0EE0FFF1FEB59FD4FCA
:102060008D919D918193919322E0A535B207C1F79F
:102070001092FC010115110509F028C10E94B70C4E
:10208000E0916202AE01475E5F4F7A01882309F456
:1020900069C08CE0DA011D928A95E9F70E2F10E0F5
:1020A000000F111F0B591D4F809142028A3048F4D6
:1020B00046E15CE0B701C8010E947016882359F11F
:1020C0000AC08091FD019091FE010E94D11C843FC5
:1020D000914070F732C04CE75EE0B701C8010E9442
:1020E00070168823C1F04BEF51E1B701C8010E947F
:1020F0007016882381F044ED51E1B701C8010E94B8
:102100007016882341F049E951E1B701C8010E94E6
:1021100070168111DEC0809142028F3F19F08F5FEF
:1021200080934202809142028A3008F4D4C00E9417
:10213000EC1C9093FE018093FD018091610290E080
:10214000880F991F20E030E0FC01E20FF31FEB59EC
:10215000FD4F118210822E5F3F4F2C303105A1F7C9
:1021600001E0D3C0F894F0E0EE0FFF1FEB59FD4FF4
:102170008CE0AAE1B2E001900D928A95E1F76CE063
:1021800070E08AE192E00E94C12480931902789461
:10219000F894E0918602F0E0E058FD4F8081918153
:1021A0009A8F898F909328028093270262E070E0D3
:1021B000C7010E94C124809326027894F894C090AD
:1021C0002902D0902A02E0902B02F0902C028091FC
:1021D000FF0190910002A0910102B0910202C81685
:1021E000D906EA06FB06D1F0C092FF01D0920002A8
:1021F000E0920102F09202020E94B70C81110EC01F
:102200000E94E01CC61AD70AE80AF90AC092950390
:10221000D0929603E0929703F09298037894F89402
:1022200080912D020E94D8247894F89480913502F0
:10223000882309F449C080FF24C090912E02809128
:10224000860390FF09C081608093860360E0892F38
:1022500086950E94722815C08E7F809386030E9407
:10226000BC2580915203816080935203EFEFF0E729
:1022700022E0E150F0402040E1F700C000000E9461
:10228000DE258091350281FF09C020E040913102B6
:102290006091300280912F020E948E27809135023A
:1022A00082FF09C080913402882319F00E94C3255F
:1022B00002C00E94BC258091350283FF03C081E0EB
:1022C00080939D031092350278941FC001E010E0C6
:1022D0001CC010924202E0916102F0E0EE0FFF1F7D
:1022E000EB59FD4FD7019E012B5D3F4F00E08D91D3
:1022F0009D91408151814817590719F0918380833E
:1023000001E032962A173B0791F7802FA4960FB66B
:10231000F894DEBF0FBECDBFDF91CF911F910F911B
:10232000FF90EF90DF90CF90BF90AF909F908F90F5
:1023300008950F931F93CF93DF93CDB7DEB7289700
:102340000FB6F894DEBF0FBECDBF85E0E6E8F3E040
:10235000DE01119601900D928A95E1F7809150036C
:1023600090915103A09152038E839F83A88741E0EF
:102370008885811101C040E008E010E09E012F5FD8
:102380003F4F6EE372E086E00E94570C811110927D
:10239000520328960FB6F894DEBF0FBECDBFDF9173
:1023A000CF911F910F9108950F931F93CF93DF93B8
:1023B0001F92CDB7DEB780918B0380FF04C0869556
:1023C0008695869501C080E0898341E090912D0239
:1023D000981301C040E001E010E09E012F5F3F4FE5
:1023E0006AE372E085E00E94570C0F90DF91CF9175
:1023F0001F910F910895CF93DF9300D000D0CDB7F8
:10240000DEB74091360250913702609138027091E8
:1024100039022FB7F8948091A3029091A402A09161
:10242000A502B091A6022FBF841B950BA60BB70B7C
:1024300084369105A105B10580F10E94C723DC0116
:10244000CB010296A11DB11D89839A83AB83BC8306
:1024500080912B0190912C01875E9D4F40912A0124
:1024600050E04530510510F044E050E0BE016F5F90
:102470007F4F0E94D32C84E090E00E94282B892B70
:1024800011F080E00BC00E94E01C60933602709354
:102490003702809338029093390281E00F900F90B9
:1024A0000F900F90DF91CF910895CF93DF93CDB729
:1024B000DEB766970FB6F894DEBF0FBECDBF84B708
:1024C000877F84BF0FB6F894A895809160008861DB
:1024D00080936000109260000FBE90E080E80FB61D
:1024E000F89480936100909361000FBE85B7806877
:1024F00085BF85B7806885BF8EE19BE09093F3012F
:102500008093F2010E94321B0E94511B8091E200D5
:1025100084608093E20078948091B7028823A1F0D0
:102520001091E9001F709091EC00892F817090FD4F
:1025300080E8182B1092E9008091E80083FD0E944A
:1025400025181F701093E90082E084BD93E095BDCB
:102550009AEF97BD80936E001092950310929603A8
:10256000109297031092980387988F988FB1881FC5
:102570008827881F80935C0180915C01882321F06B
:1025800010926F0188E003C088E080936F01809310
:1025900070010E94B70C81110E941B2A80915C017E
:1025A00081112FC0FE0131968CE0DF011D928A95CA
:1025B000E9F783E3898382E38A8386E38B8384E379
:1025C0008C8387E98D8380E38E83A0E5B1E0CE0123
:1025D0000D9621912D938E179F07D9F72AE0EFE7EB
:1025E000F1E0DE011D9601900D922A95E1F7FC01C4
:1025F000A6E4B1E0CE01479621912D938E179F0757
:10260000D9F780915C01811102C096E001C090E091
:102610009093620286E0891B8093610200E511E0DD
:10262000A6E5EA2EA1E0FA2EF80181918F018F3FF5
:1026300011F00E94DA0CE016F106B1F706E411E0A1
:10264000F0E5EF2EF1E0FF2ED8018D918D018F3F47
:1026500011F00E94DA0CE016F106B1F7E9E4F2E0BD
:1026600081E692E0A5E6B2E0119211921D921D92D0
:102670008E179F07C9F780E090E00E94EE2B893EFD
:102680009E4F11F00E94F60E82E090E00E94E02B37
:1026900080938A020E94E50E90934802809347023D
:1026A0000E947D0FEFE3FCE93197F1F700C00000D5
:1026B0000E947D0F8091650280FF08C06FEF7FEF61
:1026C00080E090E00E94122C0E94871C83E090E042
:1026D0000E94E02B682F70E080E090E00E94C9200B
:1026E000259A2D9882E88093800089E1809381006B
:1026F0008FEF9FEF90938700809386000E9477254D
:10270000269A0E94B70C811102C00E941E2A0E94C4
:1027100077258091630281113BC080E090E00E94A8
:10272000EE2B893E9E4F21F00E94F60E0E94C72696
:1027300088E090E00E94E82B609386037093870303
:1027400080938803909389038091520383608093E0
:1027500052036E7F71F40E94C72688E090E00E94C9
:10276000E82B60938603709387038093880390938C
:1027700089030E9480260E94BC258091860380FFE9
:1027800004C060E086950E94722881E08093630215
:1027900080915C0181110CC086E98093690184E914
:1027A0008093670187E680936A0186E680936801DB
:1027B00079E8872E72E0972E47E651E029E631E06E
:1027C000E7E86E2EE2E07E2E61E070E0861497046A
:1027D00009F44EC0F901A1919F018A2F82958F7053
:1027E00090E0FC01F1A0AF70EA2E8B0101C0000F58
:1027F000AA95EAF7F02FF095FF22DC019196FC9262
:1028000091979296AC91A02BFC01A2A3DA01FD90C6
:10281000AD01EF2DE295EF70F0E0B1A0BF2DBF70DC
:10282000FB2E6B0101C0CC0CBA95EAF7DC2CD094DE
:10283000DB20D1A2D2A0CD28C2A2DC0190968C913F
:1028400090E002C095958795EA94E2F78170E0A147
:10285000F0E002C0F595E795FA94E2F7E0FD02C0DA
:1028600090E001C092E0892BF30181933F01AECF4C
:1028700080915C01811102C092E001C090E09093D0
:10288000860282E0891B809364028DE591E090933B
:1028900092038093910350E4252E6DE7662E62E04B
:1028A000762E8091B702853009F04EC000E112E12A
:1028B0008091B702853009F03FC08091B702843023
:1028C00049F180E00E94D82480E00E9461041092C7
:1028D000990388E190E00FB6F894A8958093600082
:1028E0000FBE2092600083B7817F846083BF83B76F
:1028F000816083BF7894889583B78E7F83BF0FB63E
:10290000F894A8958091600088618093600010928F
:1029100060000FBE8091B602882309F4C9CF0E94DF
:102920007D0FE5E6F2E081919191892B09F0C2C11A
:102930006E167F06C1F7BCCF0E94D3200E94772578
:102940000E943E240E9461040E947D0F81110E941A
:10295000E01CABE8B2E0E5E6F2E000E010E0A02E1B
:10296000C190D1908D919D918C259D250097A1F1CD
:10297000B12CEE24E394F12C970128233923232B47
:1029800029F10E94B70C8823A9F0B982AA82CE202F
:10299000DF2081E0CD2809F480E08B830E94EC1CCD
:1029A0008160782F9D838C8349815A816B818D81D1
:1029B0000E94B903000F111FF801E557FD4F8081F8
:1029C0009181E826F926F182E0821CC0B394EE0CD6
:1029D000FF1C2AE0B212D0CF0F5F1F4F0C30110541
:1029E00009F0BDCF8FEF8D878E871F860E94EC1C6C
:1029F0008160782F998B888B4D855E856F8589895D
:102A00000E94B90380915103882309F4BDC08091CD
:102A10005003E0918603E695E81BE0939C03823027
:102A200059F4F0E0EE5FFE4FE4910E2F10E08AE8DB
:102A3000C82E83E2D82E59C0863059F4F0E0E15018
:102A4000FF4FE4910E2F10E0BAE7CB2EB3E2DB2E5E
:102A50004CC0893061F4E695F0E0E450FF4FE4911A
:102A60000E2F10E0AFEFCA2EA2E2DA2E3EC08F305A
:102A700061F4E695F0E0E750FF4FE4910E2F10E08F
:102A8000FAE6CF2EF2E2DF2E30C0853159F4F0E0C5
:102A9000EA50FF4FE4910E2F10E0E4EECE2EE1E27B
:102AA000DE2E23C08831A1F0833249F4E4EFF0E058
:102AB000059114917AE3C72E73E2D72E16C08432A3
:102AC00071F404EF11E062E1C62E61E2D62E0DC072
:102AD00008E210E051E5C52E51E2D52E06C000ED0A
:102AE00017E041E1C42E41E2D42E80919D0388235A
:102AF00061F010929D030E94E22390939B038093C8
:102B00009A0310929F0310929E030E94E223E09189
:102B10009A03F0919B039C012E1B3F0B2F3F3F47D5
:102B200098F520917F022223B1F010927F0220912C
:102B30007D0230917E02821B930B8F3F9F4758F49A
:102B4000205D3A4830937E0220937D0280915203AB
:102B5000886080935203E0909E03F0909F030E0FD5
:102B60001F1F10939B0300939A038AE993E0F601D9
:102B7000099580919E0390919F03892B29F4EF285A
:102B800019F081E080937F0204E812E087E8E82EE4
:102B900082E0F82E97E6C92E91E0D92E29E6A22EE2
:102BA00021E0B22E312C412C34E0832E912CD70120
:102BB0008C91E82FEE0FEE0FD5012D915D01A22F24
:102BC000A295AF70B0E090968C9190E02F7002C00B
:102BD000959587952A95E2F79C0121703327D601B8
:102BE0008D916D01A82FA295AF70B0E090964C9199
:102BF00050E08F7002C0559547958A95E2F7CA015B
:102C00008170992740FF02C082E090E0822B932BD5
:102C10008E2BF70181937F0150908602540C8F70A8
:102C2000E82FF0E0E454FE4F9081D8018C91890F99
:102C30008C9384306CF0E52DF0E0E058FD4F8081FE
:102C40008F5F808360E0852D0E946B0421E001C0CE
:102C500020E0F80180818D3F64F4E52DF0E0E0583C
:102C6000FD4F80818150808361E0852D0E946B043F
:102C700021E0D8018C91082E000C990BB4010E9420
:102C80004C2CF80181938F01322A4394F2E04F12C9
:102C90008ECF31100E947A0E0E943E2490918902BC
:102CA000891709F4FECD0E943E24809389020E9478
:102CB0006104F7CD09BD19BD09B400FEFDCF8091B7
:102CC000D8008F7D8093D8008091E000826080934F
:102CD000E0008091E00081FDFCCF0E94D320E8CD90
:102CE000AF92BF92CF92DF92EF92FF920F931F931A
:102CF000CF93DF937C015B016A01809142028A30AD
:102D000018F001E010E002C00AE010E0C1E0D0E0FD
:102D1000F894B501C701F60109957894811115C0A1
:102D200021960C171D0794F0CC9F9001CD9F300D7C
:102D3000300D112480E090E045E34A95F1F7000062
:102D4000019682179307C1F7E3CF81E0DF91CF911E
:102D50001F910F91FF90EF90DF90CF90BF90AF90B9
:102D600008952091E4003091E50095E64091EC0053
:102D7000842F817040FF23C08091E80080FD1DC03A
:102D80008091B702882399F0853099F08091EB000B
:102D900085FD11C04091E4005091E50024173507EE
:102DA00029F3915011F09A01E1CF84E0089582E077
:102DB000089583E0089581E0089580E008954091AA
:102DC000E80042FFDDCF0895EF92FF920F931F932B
:102DD000CF93DF937C018B010E94B116811119C042
:102DE000E70101151105A1F08091E80085FD0AC0F9
:102DF0008091E8008E778093E8000E94B1168823C6
:102E000081F307C089918093F10001501109E9CF46
:102E100080E0DF91CF911F910F91FF90EF90089587
:102E20008091B90287FF11C08091E80082FD05C042
:102E30008091B7028111F8CF11C08091E8008B77A3
:102E40000BC08091B702882349F08091E80080FF91
:102E5000F8CF8091E8008E778093E8000895982F4E
:102E6000973068F59093E900981739F07091EC006D
:102E70002091ED005091F00003C0242F762F50E0F8
:102E800021FD02C09F5FECCF3091EB003E7F30937D
:102E9000EB003091ED003D7F3093ED003091EB0081
:102EA00031603093EB007093EC002093ED00509371
:102EB000F0002091EE0027FDE5CF80E008958F70AF
:102EC0008093E90081E008952091BF023091C00213
:102ED0002617370748F06115710539F42091E8008D
:102EE0002E772093E80001C0B901FC0120E06115B4
:102EF000710579F18091B7028823F1F18530F1F104
:102F00008091E80083FD3CC08091E80082FD2EC0E6
:102F10008091E80080FFEBCF2091F3008091F200D8
:102F200090E0922B6115710551F08830910538F4CD
:102F300021912093F100615071090196F3CF21E0B6
:102F4000089709F020E08091E8008E778093E800F0
:102F5000CECF2111CFCF0AC08091B702882361F074
:102F6000853061F08091E80083FD0AC08091E8001F
:102F700082FFF2CF80E0089582E0089583E0089513
:102F800081E0089508958091AC0208959091B70270
:102F9000943031F58093A7027093A9026093A80240
:102FA00082E08093E9008FEF9091E800815095FDD9
:102FB00006C095ED9A95F1F700008111F5CF80914B
:102FC000E80085FF0DC040E050E063E070E087EA74
:102FD00092E00E94E4168091E8008E778093E800EA
:102FE0000895BC0184E00C94C617BC0183E00C94E6
:102FF000C617CF93DF9321E02093E9002FEF3091A4
:10300000E800215035FD06C035ED3A95F1F7000096
:103010002111F5CF2091E80025FF14C0EC0140E01C
:1030200050E068E070E00E94E4168091E8008E773E
:103030008093E80088E0FE01ADEAB2E001900D92D5
:103040008A95E1F7DF91CF9108951F93CF93DF9396
:10305000CDB7DEB7AA970FB6F894DEBF0FBECDBFCF
:10306000E9EBF2E08091F100819322E0E13CF2078C
:10307000C9F78091BA02833009F460C030F481301E
:1030800071F0823009F49AC0B1C08A3009F486C068
:103090008B3009F46BC0893009F0A8C020C0809142
:1030A000B902813A09F0A2C08091E800877F80933D
:1030B000E8008091BD029091BE02892B21F468E066
:1030C0008DEA92E003C060E080E090E070E00E9452
:1030D00064178091E8008B778093E80087C0809127
:1030E000B902813209F082C08091BD029091BE0286
:1030F000029708F07BC08091E800877F8093E8000A
:103100008091E80082FD05C08091B7028111F8CF5F
:103110006DC02091F3008091F20090E0922B029715
:1031200029F48091F1008B7F813021F48091F100AE
:103130008093AC028091E8008B7754C08091B902F3
:10314000813A09F053C08091BD029091BE02892B53
:1031500009F04CC08091E800877F8093E80080915F
:10316000E80080FFFCCF80916B0137C08091B902ED
:103170008132E1F58091BD029091BE02892BB1F5BB
:103180008091E800877F8093E8000E94101780916B
:10319000BB0280936B010E94D32028C08091B902AA
:1031A000813221F58091E800877F8093E8000E94BA
:1031B00010178091BC028093AB0218C08091B902B5
:1031C000813AA1F48091E800877F8093E8008091A4
:1031D000E80080FFFCCF8091AB028093F1008091EA
:1031E000E8008E778093E8000E9410178091E80035
:1031F00083FFCCC18091B9029091BA02492F50E06F
:103200004A30510508F0C2C1FA01EE59FF4F0C9443
:10321000822C803821F0823809F0B8C108C0809132
:10322000B5029091B602992389F082600FC0809117
:10323000BD028F70873008F0A9C18093E9008091AA
:10324000EB0085FB882780F91092E9009091E80057
:10325000977F9093E8008093F1001092F10065C190
:10326000282F2D7F09F092C1882319F0823061F058
:103270008DC18091BB02813009F088C1933009F083
:1032800080E08093B6022EC08091BB0281112AC0DB
:103290008091BD028F702FEF280F263008F076C185
:1032A0008093E9002091EB0020FF1CC0933021F4B3
:1032B0008091EB00806214C09091EB00906190933C
:1032C000EB0021E030E0A90102C0440F551F8A95B0
:1032D000E2F74093EA001092EA008091EB008860E8
:1032E0008093EB001092E9008091E800877F20C175
:1032F00081114CC11091BB021F778091E30080784F
:10330000812B8093E3008091E800877F8093E80021
:103310000E9410178091E80080FFFCCF8091E300AD
:1033200080688093E300111102C082E001C083E055
:103330008093B7022BC18058823008F027C180915A
:10334000BB029091BC028C3D53E0950779F583E078
:103350008A838AE289834FB7F894DE01139620E0CE
:103360003EE051E2E32FF0E050935700E49120FF5C
:1033700003C0E295EF703F5FEF708E2F90E0EA3070
:1033800010F0C79601C0C0968D939D932F5F243196
:1033900049F74FBF8091E800877F8093E8006AE299
:1033A00070E0CE0101960E946417AEC04091BD024C
:1033B0005091BE02292F332723303105A9F068F43C
:1033C0002130310509F4F1C02230310509F0DEC0A9
:1033D0008BE390E0E8E7F1E044C02132310521F1D0
:1033E0002232310571F1D2C0992781309105A1F0C7
:1033F00058F0029709F0CAC0E5ECF1E0E4918E2F95
:1034000090E0E5ECF1E02AC0E7EFF1E0E4918E2FE7
:1034100090E0E7EFF1E022C0E7EEF1E0E4918E2FDB
:1034200090E0E7EEF1E01AC04115510509F4C2C081
:103430004130510509F0AAC089E090E0E3EAF1E0EB
:1034400010C04115510509F4BAC04130510509F0C9
:103450009DC082E390E0E6E0F1E003C0009709F44C
:1034600095C02091E800277F2093E8002091BF02BB
:103470003091C0028217930708F49C0140E02115A7
:10348000310589F18091B702882309F43DC0853068
:10349000D9F18091E80083FD37C08091E80082FD7A
:1034A0002FC08091E80080FFEACF4091F300809127
:1034B000F20090E0942B2115310559F088309105E8
:1034C00040F444914093F100319621503109019626
:1034D000F2CF41E0089709F040E08091E8008E7754
:1034E0008093E800CCCF4111CDCF0AC08091B702C4
:1034F000882351F0853041F08091E80083FD04C0BD
:103500008091E80082FFF2CF8091E8008B77809372
:10351000E8003CC08038D1F58091E800877F809337
:10352000E8008091B8028093F1008091E8008E77E6
:103530008093E8000E94101729C0811127C0809154
:10354000BB029091BC029927029704F58091E80094
:10355000877F8093E8001091BB021093B8020E940D
:103560001017111106C08091E30087FD02C081E0B1
:1035700001C084E08093B70242E061EC81E00E94E8
:103580002F1742E261EC82E00E942F178091E80041
:1035900083FF1AC08091E800877F8093E8008091C4
:1035A000EB0080628093EB000FC082E190E0E3EBE0
:1035B000F1E057CF89E090E0EAE8F1E052CF80E413
:1035C00090E0E8E3F1E04DCFAA960FB6F894DEBFA5
:1035D0000FBECDBFDF91CF911F9108951F920F9223
:1035E0000FB60F9211242F933F934F935F936F93D6
:1035F0007F938F939F93AF93BF93CF93DF93EF937B
:10360000FF93C091E900CF708091EC00D82FD1706A
:1036100080FDD0E81092E9008091F000877F8093D0
:10362000F00078940E9425181092E9008091F00033
:1036300088608093F000CD2BCF70C093E900FF919C
:10364000EF91DF91CF91BF91AF919F918F917F913A
:103650006F915F914F913F912F910F900FBE0F90FF
:103660001F901895E8EDF0E080818E7F80831092A6
:10367000E2001092DA001092E100A0EEB0E08C912E
:1036800081608C9380818F77808319BCA7EDB0E037
:103690008C918E7F8C9380818F7E80831092AA0282
:1036A0000895CF92DF92EF92FF920F931F93CF93E3
:1036B000DF93C8EDD0E088818F7E8883E7EDF0E06E
:1036C00080818160808384E082BF81E08093AA0250
:1036D00088818E7F888302EE10E0F80110821092BC
:1036E000DA0081EEC82ED12CF601108288818F7706
:1036F000888388818068888388818F7D888319BCCE
:103700001092B7021092B8021092B6021092B5024F
:1037100090EEE92EF12CF70180818B7F80838881E8
:103720008160888342E060E080E00E942F17F6010C
:1037300080818E7F8083F801808181608083808199
:1037400088608083F70180818E7F8083888180619B
:103750008883DF91CF911F910F91FF90EF90DF90C1
:10376000CF9008951F920F920FB60F9211242F93AE
:103770003F934F935F936F937F938F939F93AF93F9
:10378000BF93EF93FF938091E10082FF09C0809186
:10379000E20082FF05C08091E1008B7F8093E10011
:1037A0008091DA0080FF2AC08091D80080FF26C077
:1037B0008091DA008E7F8093DA008091D90080FFBB
:1037C00018C080E189BD82E189BD09B400FEFDCF4A
:1037D00081E08093B7028091AA0281110FC00E94FC
:1037E000321B0E94511B8091E20084608093E200B2
:1037F00005C019BC1092B7021092AA028091E10094
:1038000080FF17C08091E20080FF13C08091E2002A
:103810008E7F8093E2008091E20080618093E200DD
:103820008091D80080628093D80019BC85E0809395
:10383000B7028091E10084FF2EC08091E20084FFF6
:103840002AC080E189BD82E189BD09B400FEFDCFB7
:103850008091D8008F7D8093D8008091E1008F7E89
:103860008093E1008091E2008F7E8093E20080915E
:10387000E20081608093E2008091B802882311F019
:1038800084E007C08091E30087FD02C081E001C0B1
:1038900083E08093B7028091E10083FF27C080918D
:1038A000E20083FF23C08091E100877F8093E100E5
:1038B00082E08093B7021092B8028091E1008E7F7F
:1038C0008093E1008091E2008E7F8093E2008091FE
:1038D000E20080618093E20042E060E080E00E94CC
:1038E0002F178091F00088608093F000FF91EF9196
:1038F000BF91AF919F918F917F916F915F914F9108
:103900003F912F910F900FBE0F901F90189581E05F
:103910008093E00080E28093D8001092C9008FE18C
:103920009EE40197F1F700C0000087E090EBDC0116
:103930008093A0039093A103A093A203B093A30349
:103940009CE088E10FB6F894A895809360000FBEC4
:1039500090936000FFCF78941F920F920FB60F9252
:1039600011248F939F93AF93BF938091A302909163
:10397000A402A091A502B091A6020196A11DB11DBD
:103980008093A3029093A402A093A502B093A602F1
:10399000BF91AF919F918F910F900FBE0F901F908D
:1039A00018959C014FB7F8948091A3029091A402BE
:1039B000A091A502B091A6024FBF821B930B089560
:1039C0002FB7F8946091A3027091A4028091A50290
:1039D0009091A6022FBF08952FB7F8948091A3026B
:1039E0009091A402A091A502B091A6022FBF0895C4
:1039F00090914F0380914E03892B20914D03982F76
:103A0000922B9093C1028091F501882389F0892B34
:103A10008093C102E3ECF2E097E080E0915029F05E
:103A200021912223D9F38F5FF9CF81110E94770F63
:103A3000E0919103F0919203309731F00280F3818D
:103A4000E02D81EC92E00994089580E090E00E94DE
:103A5000282480E090E00E94122410924E031092DD
:103A60004D030C94F81CCF93C0914802C2FB9927D8
:103A700090F9981781F080FBC2F9C09348026091D9
:103A8000470284E090E00E94F42B6C2F82E290E0E9
:103A9000CF910C94F42BCF91089580914B0390918A
:103AA0001A03891719F08F5F8770FBCF08950F9362
:103AB0001F93CF93DF938091190382958F7009F044
:103AC0005DC080911603882309F458C080914B0390
:103AD00010911A036091140370911503C09117039C
:103AE000D091180391E06F3F09F090E0292F06E094
:103AF000811709F443C0209721F07F3F21F030E087
:103B000003C031E001C0322F90E030FD34C0089F87
:103B1000F001099FF00D1124DF01A55EBC4F119645
:103B20003C911197371327C03C91361324C012964D
:103B30003C91129731111FC013964D915C911497CF
:103B40004C1B5D0B483C5105B0F4809119038F70FC
:103B5000806180931903E05EFC4F80818F708061EB
:103B6000808384E193E00E948604DF91CF911F91CE
:103B70000F910C944D1D01968770BACFDF91CF91B4
:103B80001F910F9108958F929F92AF92BF92DF92F3
:103B9000EF92FF920F931F93CF93DF938090430296
:103BA00090904402A0904502B09046024091F601E8
:103BB0005091F7016091F8017091F901842A952ADA
:103BC000A62AB72ACFE1D0E02AE0929F7001112403
:103BD00098E7D92E082F10E0D501C4010C2E04C09F
:103BE000B695A795979587950A94D2F780FD04C05E
:103BF000219790F780E014C0DC9EF001DD9EF00D6F
:103C00001124EE0DFF1DE00FF11FEE0FFF1FE55019
:103C1000FE4F859194910E94F10C019749F38C2FEE
:103C2000DF91CF911F910F91FF90EF90DF90BF90A8
:103C3000AF909F908F900895CF93DF93EC010E94F7
:103C4000C31D28E7829FC0011124FC012AE0D29FF6
:103C5000E00DF11D1124EC0FF11DEE0FFF1FE550DB
:103C6000FE4F859194910E94F10CDF91CF910895C0
:103C7000FC01808191810E941C1E292F2F70E92F49
:103C8000E295EF704E2F50E0FA013297EE30F105D9
:103C9000B8F4E459FF4F0C94822C803F99F018F44B
:103CA000883E70F40FC0843F59F40CC0883E50F039
:103CB000813F31F407C0822F8695869586950895B9
:103CC00080E0089581E008959F92AF92BF92CF92D5
:103CD000DF92EF92FF920F931F93CF93DF93CDB7B5
:103CE000DEB761970FB6F894DEBF0FBECDBF8C0173
:103CF00085E0F801DE011D9601900D928A95E1F7AD
:103D0000F801E2809091140360911503409117032C
:103D1000509118034115510531F06F3F31F481E0A6
:103D20009F3F19F403C081E001C080E0F82FF170DB
:103D30009F2E80FD1AC1F80130812181C380D4807B
:103D400084E1A82E83E0B82EF0901603F601E41B60
:103D5000F50BFF2009F4C6C080911903E83CF1057A
:103D600008F091C0482F407F09F050C0621311C085
:103D700093130FC0FE2CE1100CC08F7080618093F4
:103D80001903C5010E94860480911903F8018583F7
:103D900029C1CD2831F02F3F31F481E03F3F19F4A4
:103DA00003C081E001C080E080FD03C081E08E257A
:103DB00002C080E090E0F82FF170FF2E80FF1CC061
:103DC00080914B0340911A0356E0841709F4E8C030
:103DD00090E0589FF001599FF00D1124E55EFC4FD3
:103DE0006181261306C06081631303C06281E612FD
:103DF00003C001968770E9CFFE2CEE2009F4F2C0D3
:103E00008091190381608093190349C0621306C031
:103E1000931304C0E11002C0F80186C0C8010E94DB
:103E2000381E882351F1EE2041F120911903822F91
:103E300082958F7090E0029774F0809114039091B6
:103E4000150398878F831986DB86CA862C87CE0157
:103E500007960E94860486E0F801A4E1B3E0019091
:103E60000D928A95E1F70E94571D0AC06217C9F0AA
:103E7000C8010E94381E81111EC0C8010E9486041C
:103E8000FF24F394AFC0482F407F81F784E193E093
:103E90000E94860486E0F50111928A95E9F7F12CDB
:103EA000A1C09313E5CFE110E3CFF8018583C801EA
:103EB0000E94860454C0EE2001F320911903822F42
:103EC00082958F7090E0029734F280911403909164
:103ED00015039A8389831B82DD82CC822E83CE01D7
:103EE0000196B7CFE83CF105D0F5FE2CEE2029F283
:103EF000621327C0931325C02091190320FD18C019
:103F0000822F82958F70482F50E04115510581F026
:103F1000F80125834F30510541F08F5F982F92951E
:103F2000907F822F8F70892B8583C8010E94860421
:103F300086E0F801A4E1B3E001900D928A95E1F7E3
:103F400051C0C8010E94381E811185CF809119038C
:103F5000816080931903C8010E94860443C086E0F3
:103F6000F50111928A95E9F73DC0EE2009F485CF5D
:103F7000C8010E94381EF82E882309F47ECF86E0FF
:103F8000F801A4E1B3E001900D928A95E1F78091E8
:103F90001403909115030E941C1E0E94571D22C0FD
:103FA0003D872E878D859E850E941C1E292F229578
:103FB0002F70223028F49F7039F0811105C00BC09A
:103FC000243028F49F7049F4805E883020F0C801C6
:103FD0000E9486049F2CF92C05C0F8019581907FE2
:103FE00099F7F9CF8F2D61960FB6F894DEBF0FBE0B
:103FF000CDBFDF91CF911F910F91FF90EF90DF9098
:10400000CF90BF90AF909F9008952AE0929F800D2F
:104010001124682F669566956695982F977085E0B0
:10402000689FB001112440E050E080E0FB01E40F04
:10403000F51FE753FD4F208130E0092E02C0369571
:1040400027950A94E2F721703327042E01C0220F2E
:104050000A94EAF7822B4F5F5F4F4530510531F7E5
:1040600008952AE0929F800D1124E82FE695E695A9
:10407000E695877051E001C0550F8A95EAF785E013
:10408000E89FF0011124E753FD4F20E030E070E09D
:104090004081CB01022E02C0969587950A94E2F7E3
:1040A0008170819584278523842781932F5F3F4FDB
:1040B0002530310569F708956093430270934402F7
:1040C00080934502909346020C94251D0F931F93F5
:1040D00041E050E060E070E004C0440F551F661FEF
:1040E000771F8A95D2F7409550956095709580918D
:1040F000430290914402A0914502B09146028A0188
:104100009B01082319232A233B23C901B8011F91CE
:104110000F910C945C2020914C0380958223809316
:104120004C03982F977041F430E0482F082E000C74
:10413000550B2417350721F49091480292FF07C0D0
:104140008595859585950E94662010924C0308956B
:104150000F931F9341E050E060E070E004C0440F13
:10416000551F661F771F8A95D2F780914302909161
:104170004402A0914502B09146028A019B01082B9E
:10418000192B2A2B3B2BC901B8011F910F910C94BD
:104190005C206093F6017093F7018093F80190938F
:1041A000F9010C94251D10924F0386E0E3ECF2E038
:1041B000DF011D928A95E9F70C94251D882341F0B3
:1041C000809590914F03892380934F030C94F81CA2
:1041D0000895882339F090914F03892B80934F03E2
:1041E0000C94F81C08951F93CF93DF93182F8933F5
:1041F00019F0C0E0D0E002C0C0E5D0E0812F0E94FD
:104200002429209741F08FE99FE00197F1F700C042
:1042100000002197F6CF812FDF91CF911F910C9451
:10422000C82808950F931F93CF93DF93EC0100E00C
:1042300010E080917301282F30E00217130724F556
:10424000909171019801290F311DA901440F551F4B
:10425000240F351F2A5A3C4F869590E04C81081751
:1042600019071CF4442331F002C0411103C04091EE
:10427000890301C040E060918803809187030E9418
:10428000DE260F5F1F4FD5CF0E94DE258C8190E088
:104290000196817099278C83DF91CF911F910F91A7
:1042A00008958F929F92AF92BF92CF92DF92EF923A
:1042B000FF920F931F93CF93DF938C01FC014481F6
:1042C000C42FD0E09E01DE010E94902C9B01AC0126
:1042D0000E94A62C6B017C01E0E2F0E0EC1BFD0BE0
:1042E000A5E5B0E09B01AC010E94A62C4B015C014E
:1042F0009F01DF010E94882C9B01AC010E94B12C20
:104300009B01AC012C0D3D1D4E1D5F1DC501B4016F
:104310000E94602CC22FD22F2A3228F4F3E02F9F64
:10432000900111240DC025E530E02C1B3109C90195
:10433000880F991F280F391F37FF02C02F5F3F4F8B
:1043400035952795C22FC095F12C85E5E82EED1AFD
:1043500080917301F816C8F4F1FC02C08E2D01C0E3
:104360008D2F909171012F2D30E0290F311DA90162
:10437000440F551F240F351F2A5A3C4F4C2F609174
:1043800088030E94DE26F394E3CF0E94DE25F80125
:104390008481811102C091E003C0803219F49FEF43
:1043A00090936E0190916E01890FF8018483DF91E3
:1043B000CF911F910F91FF90EF90DF90CF90BF9022
:1043C000AF909F908F9008951F93CF93DF93EC0150
:1043D0008C81811109C081E08C831092540392E09A
:1043E00090936D0180936C018091710190917201A5
:1043F000891770F4E82FF0E09F01220F331FE20FBE
:10440000F31FEA5AFC4F1182108212828F5FF0CFA5
:1044100010E0609173011617C0F5E12FF0E070E035
:10442000CF010E944C2C20917101820F20915403E6
:10443000022E000C330B90E0E217F307CCF0209132
:104440006D01022E000C330B2E173F078CF09C01E0
:10445000220F331F820F931F9C012A5A3C4F409119
:10446000890360918803809187030E94DE260BC038
:10447000FC01EE0FFF1F8E0F9F1FFC01EA5AFC4F3D
:104480001182108212821F5FC4CF0E94DE258091AC
:104490006C0120915403280F2093540390916D01D7
:1044A000980F90936D0119165CF4022E000C330BDB
:1044B0004091730150E0415051092417350734F001
:1044C000819580936C01813009F41C82DF91CF913A
:1044D0001F9108958F929F92AF92BF92CF92DF92D9
:1044E000EF92FF920F931F93CF93DF93EC018A819A
:1044F00080FF03C0BB24BA9402C0BB24B3948C8158
:1045000081110DC081E0B81206C080917301815005
:104510008093530302C01092530381E08C83A12C3B
:1045200090907301A91408F03EC080917101CA2CCB
:10453000D12C8601080F111DC801880F991F080F83
:10454000191F0A5A1C4FF80111821082128234E09E
:10455000E32EF12C812C80915303880D813114F0CE
:104560008F7002C087FD890D082E000C990BC816AC
:10457000D90691F4809189038E9DA0018F9D500DE5
:104580001124559547955595479598016091880355
:10459000809187030E94DE268B0CF1E0EF1AF10870
:1045A000D1F6A394BDCF0E94DE258091530391E004
:1045B000B9120EC0811107C08091730181508093A0
:1045C00053031C820FC0815080935303BC820AC0E6
:1045D00090E001966091730170E00E944C2C8093F2
:1045E00053038C83DF91CF911F910F91FF90EF9038
:1045F000DF90CF90BF90AF909F908F900895FF92E3
:104600000F931F93CF93DF93EC01F12C0FEF10E08A
:1046100060917301F616F0F4809171012F2D30E056
:10462000280F311DC901880F991F280F391F2A5AD9
:104630003C4F70E0C8010E944C2C962F8C81409119
:10464000890360918803F99E800D11240E94DE2663
:10465000F394DECF0E94DE259A818C8190FF02C008
:104660008F5F01C081508C83DF91CF911F910F919B
:10467000FF9008950F931F93CF93DF9300D01F9265
:10468000CDB7DEB78C018091550381110AC09E0120
:104690002F5F3F4F4FEF6FEF0E94DE268A8180939E
:1046A0005503F8018481813051F028F0823061F4A3
:1046B000409155030AC08091550340E007C06091C6
:1046C000550340E080E003C040E080E060E00E94ED
:1046D0006526F801848190E0019663E070E00E9415
:1046E0004C2C84830F900F900F90DF91CF911F91EE
:1046F0000F910895CF93DF93EC01E6E8F3E0438157
:1047000062818C810E9474278C818F5F8C83DF9102
:10471000CF910895CF93DF93EC01EC81F0E0E55366
:10472000FB4F4491E6E8F3E0628181810E947427A7
:104730008C818F5F8C83DF91CF9108951F920F92B0
:104740000FB60F9211248F939F93AF93BF938091D5
:104750009903811113C08091A3029091A402A091AA
:10476000A502B091A6024196A11DB11D8093A3029E
:104770009093A402A093A502B093A602BF91AF911B
:104780009F918F910F900FBE0F901F9018950F93D0
:104790001F930E94B70C882321F01F910F910C9456
:1047A000E01C0E94E01C009195031091960320915B
:1047B000970330919803600F711F821F931F1F9101
:1047C0000F9108950E94B70C81110C94EC1C0E946B
:1047D000C723CB0108959C012A5F3F4FFC01428112
:1047E000461301C01282019682179307B9F7089504
:1047F0009C01FC0132969FEF80E04191461789F0C1
:104800009F3F19F4411101C0982F8F5F8630A9F79F
:104810009F3F39F0F901E90FF11D97FDFA95628389
:104820000895089520919303309194032817390730
:1048300071F09093940380939303E0919103F0912E
:104840009203309721F00084F185E02D09940895BA
:1048500020918F03309190032817390771F09093BE
:10486000900380938F03E0919103F091920330972E
:1048700021F00680F781E02D099408950E94B70C7D
:10488000882351F0E0919103F0919203309721F049
:104890000190F081E02D099480E008950F931F931B
:1048A000CF93DF93C42FD22FFC0182818823C9F0DC
:1048B00040938E030E94EC1C90938D0380938C0395
:1048C00080E28C0F883008F057C0C77081E001C0CB
:1048D000880FCA95EAF7DF91CF911F910F910C9441
:1048E000E92080918E03481330C080918C03909111
:1048F0008D030E94D11C883C910538F510E21D0FF4
:10490000CD17B9F080E28C0F883040F4C77081E099
:1049100001C0880FCA95EAF70E94DE20183028F5FA
:1049200081E09D2F977001C0880F9A95EAF70E9449
:10493000E920802F0E94F3201830F0F4D77081E036
:1049400001C0880FDA95EAF70AC080E28C0F883040
:1049500098F4C77081E001C0880FCA95EAF7DF912B
:10496000CF911F910F910C94DE20802FDF91CF917A
:104970001F910F910C94F320DF91CF911F910F9114
:104980000895FC01680F791F8FEF91E3E617F70791
:1049900071F02191822728E030E087FF03C0880F63
:1049A000892701C0880F21503109B9F7EFCF089549
:1049B000CF92DF92EF92FF92843048F4811108C0C9
:1049C000909180009F77909380002D9806C083E09F
:1049D00090918000906890938000282F30E0AFEF96
:1049E000BFEF0E94902C23E030E040E050E00E94B6
:1049F000602CB42FA32F922F8827492F5A2F6B2F6B
:104A00007727CA014C3724E1520728F469E070E0A7
:104A10000E94382C29C0DB01CA018A50974DAF4F44
:104A2000BF4F6627782F892F9A2F25EF38E241E074
:104A300050E00E94602C69017A01CA01B9010E940C
:104A4000282C9B01AC01C701B6010E94282CBB2772
:104A5000A92F982F872F009721E0A207B10511F009
:104A6000BC0102C06FEF7FEF7093890060938800F4
:104A7000FF90EF90DF90CF900895682F86E090E050
:104A80000C94F42B843008F083E090918B039770A2
:104A9000282F220F220F220F922B90938B03987FA7
:104AA00021E009F420E090918B0320FB90F9909392
:104AB0008B030E94D82480918B030C943D25809118
:104AC0008B0380FD13C0816080938B03813019F4C8
:104AD00089E080938B0380918B030E943D25809118
:104AE0008B038695869586950C94D824089580E04E
:104AF00090E00E94EE2B893E9E4F51F00E94F60EF0
:104B000080918B038470896180938B030E943D2583
:104B100086E090E00E94E02B80938B03282F26955F
:104B20002695269530E02430310524F08770886181
:104B300080938B0380918B0380FF04C086958695BC
:104B4000869501C080E00C94D8249091860390FF54
:104B500004C09695981740F003C0811105C090E0FD
:104B6000961710F40C94BE280C94B228882311F0E8
:104B7000FA0101C0FB010994E0E5F3E011828281B2
:104B800084608283089560918603669570E04BE0AF
:104B900050E084E791E00E94B92C892B19F481E060
:104BA000809351030E94E22390939B0380939A0386
:104BB000809152038460809352030895CF92DF92D4
:104BC000EF920F931F93CF93DF93CDB7DEB7E097AC
:104BD0000FB6F894DEBF0FBECDBF6091700180911B
:104BE000860380FF0AC0E0EDF6E0AE014F5F5F4F45
:104BF0008E010F5C1F4FCA0114C08091710190910A
:104C00007201891780F7E82FF0E09F01220F331F10
:104C1000E20FF31FEA5AFC4F1182108212828F5F5B
:104C2000F0CF249130E0D901AA0FBB1F2A0F3B1F00
:104C3000D901AA5ABC4FCD90DD90EC90DA01CD920B
:104C4000DD92ED92AD013196A017B10751F7209199
:104C50006F01FC01B3E02B9FE00DF11D11246E9A52
:104C60008EB18F7B9EB190642FB7F894AF0133E083
:104C7000639F400D511D1124E417F50789F0319110
:104C800068E09EB9000000C037FF8EB9330F000006
:104C900000C000C000C08EB900C06A9591F7ECCF8B
:104CA0002FBF8FE594E00197F1F700C00000E09678
:104CB0000FB6F894DEBF0FBECDBFDF91CF911F912D
:104CC0000F91EF90DF90CF9008959091860390FF21
:104CD00016C09091710120917201921770F4E92F22
:104CE000F0E0DF01AA0FBB1FEA0FFB1FEA5AFC4FDF
:104CF0008183608342839F5FF0CF0C94DE2508950B
:104D000080918603282F269530E02115310519F46E
:104D10008170826005C02532310524F0817088647D
:104D2000809386030895CF92DF92EF92FF926B01FA
:104D30007C010E948026B701A60188E090E0FF90E8
:104D4000EF90DF90CF900C94062C80918A038823FB
:104D500019F0815080938A036091860370918703D4
:104D600080918803909189030C94932680918A0303
:104D7000833018F48F5F80938A036091860370916B
:104D8000870380918803909189030C949326E6E829
:104D9000F3E083E0808311828FEF82838383148228
:104DA000A0E5B3E012968C911297836012968C93D3
:104DB00060817181828193810C949326AF92BF921E
:104DC000CF92DF92EF92FF920F931F93CF93DF93D7
:104DD000E82EF62EE901E42FF0E0611106C0E5535C
:104DE000FA4FE4914E2F2E2F71C0062F10E0E5539D
:104DF000FA4F4491F42FC42ED12C26E0829FC0019B
:104E000011242FEF30E0B9010E94382C5BEA5603E1
:104E1000C001579F900D11248E0D911D8E0D911D77
:104E2000582F550F580FD901A01BB10BAC9DC001D5
:104E3000AD9D900DBC9D900D1124E92FF59ED001E4
:104E40001124AB2FBB277901EA1AFB0AEC9CD00195
:104E5000ED9CB00DFC9CB00D11245901A51AB108B0
:104E6000A09E7001A19EF00CB09EF00C1124EF2CBE
:104E7000FF242E193F092C9D80012D9D100D3C9D76
:104E8000100D1124212F6230710591F048F4611545
:104E90007105E1F061307105B9F4242F4B2F16C074
:104EA0006430710569F040F06630710579F00CC02E
:104EB000242F492FE12F0AC0492FEF2F2B2F06C097
:104EC000292FE42F412F02C0292FEB2F498328835C
:104ED000EA83DF91CF911F910F91FF90EF90DF90C8
:104EE000CF90BF90AF900895CF93DF9300D01F92E3
:104EF000CDB7DEB79091860390FF0AC09E012F5F69
:104F00003F4F0E94DE264B8169818A810E9465267F
:104F10000F900F900F90DF91CF910895AF92BF92B5
:104F2000CF92DF92EF92FF920F931F93CF93DF9375
:104F300000D01F92CDB7DEB7182FF62E042FE22E29
:104F40009091860390FF7EC0E92FE695AE2FB0E0EA
:104F5000A453BE4F8C91809350039E7F923061F496
:104F60009E012F5F3F4F812F0E94DE264B8169817A
:104F70008A810E94652643C0823019F4009189031A
:104F80003EC0863019F41091870339C08930D9F3B7
:104F90008931A9F5E9518E2F8170D82EE695F0E080
:104FA000E553F94FA590B490C12CBB2460917301D7
:104FB000C61618F52C2D30E0A29EC001A39E900DC0
:104FC000B29E900D112470E00E94382C812FD110D8
:104FD00002C0860F01C0861B90917101290F311DFF
:104FE000A901440F551F240F351F2A5A3C4F402F4B
:104FF0006F2D0E94DE26C394D9CF0E94DE258091BA
:105000008703181308C080918803F81204C08091A8
:105010008903081729F0809152038260809352031C
:1050200010938703F092880300938903EE2051F0D8
:105030006091860370918703809188039091890322
:105040000E9493260F900F900F90DF91CF911F91A8
:105050000F91FF90EF90DF90CF90BF90AF900895A9
:10506000E6E8F3E0438121E1421B08F440E021E05F
:10507000628181810C948E27E6E8F3E0438121E18F
:10508000420F08F44FEF21E0628181810C948E275A
:10509000E6E8F3E0628121E1621B08F460E021E0D0
:1050A000438181810C948E27E6E8F3E0628121E15F
:1050B000620F08F46FEF21E0438181810C948E2709
:1050C000E6E8F3E0818121E04381628188500C941D
:1050D0008E27E6E8F3E0818121E043816281885FE9
:1050E0000C948E279091860390FF3BC091708111A4
:1050F00002C0926006C0853210F0986402C0880F2A
:10510000982B909386038091520381608093520381
:10511000662351F060918603709187038091880324
:10512000909189030E94932660918603669570E0B2
:105130004BE050E084E791E00E94B92C892B19F0F4
:105140000E94BC2502C00E94C32581E080939D037C
:1051500020E04091890360918803809187030C943B
:105160008E27089561E00C947228809186038695BD
:10517000815009F484E261E00C94722880918603E6
:1051800086958F5F853208F081E061E00C9472288B
:10519000882309F458C0682F823869F40E943E249D
:1051A00081FF51C069E381EC92E00E94F8230E94E4
:1051B000F81C69E30EC0833891F40E943E2480FFFE
:1051C00042C063E581EC92E00E94F8230E94F81C43
:1051D00063E581EC92E00E94EB230C94F81C843888
:1051E00069F40E943E2482FF2EC067E481EC92E0C5
:1051F0000E94F8230E94F81C67E4EBCF8CEF860F27
:10520000813A38F380E2860F883070F4677081E06D
:1052100090E001C0880F6A95EAF7809590914F035E
:10522000892380934F03D9CF8BE5860F833020F4F9
:1052300080E090E00C942824685A673120F480E0E4
:1052400090E00C9412240895CF93882309F496C01B
:10525000C82F8238B1F40E943E2481FD8FC069E3DB
:1052600081EC92E00E94F8230E94F81C2FEF81EE5F
:1052700094E0215080409040E1F700C0000069E3D5
:1052800017C08338E1F40E943E2480FD77C063E5B7
:1052900081EC92E00E94F8230E94F81C2FEF81EE2F
:1052A00094E0215080409040E1F700C0000063E5A9
:1052B00081EC92E00E94EB23CF910C94F81C84388F
:1052C000B1F40E943E2482FD59C067E481EC92E073
:1052D0000E94F8230E94F81C2FEF81EE94E02150E9
:1052E00080409040E1F700C0000067E4E1CF8CEF20
:1052F0008C0F813A80F4E3ECF2E089EC92E02191AA
:10530000C217A1F18E179F07D1F76C2F81EC92E0A5
:105310000E94F823D1CF80E28C0F883068F4C770E8
:1053200081E090E001C0880FCA95EAF790914F03A1
:10533000892B80934F03C0CFEBE5EC0FE33040F4B3
:10534000F0E0E757FE4F808190E0CF910C94282445
:10535000C85AC73198F4EC2FF0E0EE0FFF1FE45766
:10536000FE4F80819181CF910C9412246C2F81EC9F
:1053700092E00E94EB230E94F81CC7CFCF910895C2
:105380008EE1489B02C08150E1F7489BFECF089513
:10539000589880E28A95F1F7589A0895FC012AE01E
:1053A0002A95F1F728E090E080E031E040E14A956D
:1053B000F1F7880F489B02C08160932700C000006E
:1053C00040E14A95F1F7215089F720E12A95F1F75C
:1053D00029B100C0000030E13A95F1F72170922721
:1053E0002081920F90830895EF92FF920F931F9365
:1053F000CF93DF931F92CDB7DEB719828C017C016A
:10540000E60EF11C0E151F0551F00E94C029CE01B9
:1054100001960E94CE29F80181938F01F3CF81E09C
:105420009981911180E00F90DF91CF911F910F91A1
:10543000FF90EF900895509A589A08955098589A6E
:10544000E89AE9E6F0E080818C7F808308956150DE
:1054500091E001C0990F6A95EAF720E031E09923C5
:1054600061F0492F482319F0589A232701C0589812
:1054700040E24A95F1F79695F2CF222311F0589A1F
:1054800001C0589880E28A95F1F758980895FF92E4
:105490000F931F93CF93DF93EC018C01060F111D27
:1054A000C017D10741F0F9900E94C82968E08F2DFC
:1054B0000E94272AF5CFDF91CF911F910F91FF9086
:1054C00008951F920F920FB60F921124EF92FF9240
:1054D0000F931F932F933F934F935F936F937F93FC
:1054E0008F939F93AF93BF93EF93FF93CF93DF93EC
:1054F0001F92CDB7DEB719820E94C029CE01019656
:105500000E94CE29A82FA695A695A6959A2F969586
:1055100095702A2F2570920F292F237096959695B6
:10552000920F877089137CC08981811179C0A8305E
:1055300008F076C080E18A95F1F7589A509AB2E067
:10554000BA95F1F700C05898EA2EF12CEAE0AE9F28
:10555000D0011124A050BF4F1896ED91FC911997DE
:105560003097B1F06091BA017091BB0116962D9100
:105570003C911797260F371F13968D919C91149786
:10558000680F791F15964C91159712968C91099575
:105590008AE08E9DF0018F9DF00D1124E050FF4FA9
:1055A0006581662351F08091BA019091BB012681FB
:1055B0003781820F931F0E94472A0E94C829F0E179
:1055C000FA95F1F758985098589A80E18A95F1F732
:1055D0008AE08E9D80018F9D100D112400501F4F79
:1055E000D80112966C911297662399F08091BA01B6
:1055F0009091BB0113962D913C911497820F931FAC
:105600000E94F429D801ED91FC91811105C082E03E
:1056100004C0D801ED91FC9188E080830E94C029EC
:105620000F90DF91CF91FF91EF91BF91AF919F913B
:105630008F917F916F915F914F913F912F911F912A
:105640000F91FF90EF900F900FBE0F901F90189545
:105650000F931F93CF93DF93883091050CF0A9C06F
:105660002AE0289FF001299FF00D1124E050FF4F00
:1056700020813181232B09F49CC0EC01F894509ACD
:10568000589885E08A95F1F700008C2F86958570F3
:105690009C2F9570890F982F9370869586958E0113
:1056A00023E0000F111F2A95E1F7890F082B0E94B4
:1056B000C829A4E0AA95F1F700C068E0802F0E94F5
:1056C000272AB0E1BA95F1F75098589A489902C044
:1056D00000C0FCCF87E090E0489B17C0019799F489
:1056E000509A589A8AE08C9FF0018D9FF00D1124FA
:1056F000E050FF4F0190F081E02D81E080837894AD
:1057000081E090E058C000C0E7CF8AE08C9F800124
:105710008D9F100D112400501F4FF80165816623E5
:10572000B9F08091BA019091BB0126813781820F37
:10573000931F0E94F42981110BC0509A589AD801E6
:10574000ED91FC9182E08083789482E090E033C018
:105750000E94C029B0E2BA95F1F75898509AE0E15A
:10576000EA95F1F78AE08C9FF0018D9FF00D1124EE
:10577000E050FF4F6281662351F08091BA01909111
:10578000BB0123813481820F931F0E94472A0E940C
:10579000C8298AE08C9FF0018D9FF00D1124E05004
:1057A000FF4F0190F081E02D1082789480E090E02E
:1057B00002C084E090E0DF91CF911F910F91089596
:1057C000F999FECF92BD81BDF89A992780B50895C9
:1057D000A6E1B0E044E050E00C941A2CA8E1B0E05F
:1057E00042E050E00C941A2C262FF999FECF92BD7E
:1057F00081BDF89A019700B4021639F01FBA20BD96
:105800000FB6F894FA9AF99A0FBE08950396272FC7
:105810000E94F52B0E94F42B252F0E94F52B242F9C
:105820000C94F52B0196272F0E94F52B0C94F42B4A
:10583000DC01CB01FC01F999FECF06C0F2BDE1BD50
:10584000F89A319600B40D9241505040B8F708953F
:10585000DB018F939F930E94A62CBF91AF91A29FD3
:10586000800D911DA39F900DB29F900D112408955E
:10587000AA1BBB1B51E107C0AA1FBB1FA617B70776
:1058800010F0A61BB70B881F991F5A95A9F7809592
:105890009095BC01CD01089597FB072E16F4009456
:1058A00007D077FD09D00E94382C07FC05D03EF4C4
:1058B000909581959F4F0895709561957F4F0895BC
:1058C000A1E21A2EAA1BBB1BFD010DC0AA1FBB1F04
:1058D000EE1FFF1FA217B307E407F50720F0A21B76
:1058E000B30BE40BF50B661F771F881F991F1A94E3
:1058F00069F760957095809590959B01AC01BD010D
:10590000CF010895EE0FFF1F0590F491E02D09944B
:105910000E94902C332312F48A1B9B0B0C94A12C15
:10592000A29FB001B39FC001A39F700D811D1124E0
:10593000911DB29F700D811D1124911D08950E942B
:10594000902CB7FF0895821B930B08950E94902C12
:10595000A59F900DB49F900DA49F800D911D1124C3
:105960000895B7FF0C94A62C0E94A62C821B930BC3
:105970000895FC014150504030F001900616D1F7D7
:105980003197CF010895882799270895FB01DC01FD
:1059900004C08D910190801921F441505040C8F706
:1059A000881B990B0895FB01DC0102C001900D9248
:0C59B00041505040D8F70895F894FFCF04
:1059BC001802000000010000000018020000000C9A
:1059CC00010000001802000000010D000000180288
:1059DC00000000020E00000018020410000000007D
:1059EC000000180201140000000000001802081545
:1059FC00000000000000F4FFF0373392939594FF01
:105A0C0031326734973000000000000001C317F9F1
:105A1C0017C217F517F117F6FFF5FF010102010088
:105A2C001000101001191A1B1C1D1E1F202122F121
:105A3C00F0F4F5F69592933731818283E200E90018
:105A4C00EA00B500B600B700CD008301CC008A0196
:105A5C00920194012102230224022502260227022C
:105A6C002A02B300B4006F007000190200FF01009D
:105A7C00010000FFFF0000010001FF000001020215
:105A8C0002020606060909090909090F0F0F0F0F73
:105A9C000F15151518191919191919191919192377
:025AAC002400D4
:00000001FF
