:100000000C94BB060C9402070C9402070C94020794
:100010000C9402070C9402070C9402070C9402073C
:100020000C9402070C9402070C9402070C94A22B68
:100030000C94512C0C9491260C9402070C940207FA
:100040000C9402070C9402070C9402070C94EA2605
:100050000C9402070C9402070C9402070C940207FC
:100060000C9402070C9402070C9402070C940207EC
:100070000C940207540A540A860A860AE90BE90B13
:10008000E90BE90BD30A680B790B790BD90BE90B58
:10009000E90BE20B7D0C7D0C8F0C8F0C860C8F0C0A
:1000A0008F0C8F0C7D0C7D0C8B0C8F0C8F0C8B0CA4
:1000B000F518E318FC186E18A919A919E018A91960
:1000C000A9192919A9193D198919A919A919A9192C
:1000D000A9195D19A919A9195A19A9191519A9193F
:1000E000A919A319A319A319A319A319A319A3192A
:1000F000A319A319A519A919F518D818A919A91987
:10010000A919A919A919A919A919A919A919A919DF
:10011000A519A919A919E018A919A119A119A119B5
:10012000A119A119A119A119A119A119A519BE2CCB
:10013000E52CDD2DE52CDD2D312D542DDD2DAB2DC8
:10014000BA2D4A004D0044454255473A2064697330
:1001500061626C65642E0A0044454255473A206549
:100160006E61626C65642E0A004F6E6573686F7411
:100170003A206163746976653A2025640A000A00B2
:1001800025303258006B6579626F6172645F736508
:10019000745F6C65643A20000A0025303862003ACA
:1001A000200025303258000A722F6320303132335C
:1001B000343536370A003F00433E20004C25640AA0
:1001C000000A092D20537461747573202D0A686F1D
:1001D00073745F6B6579626F6172645F6C65647381
:1001E00028293A20253032580A6B6579626F61728E
:1001F000645F70726F746F636F6C3A202530325891
:100200000A6B6579626F6172645F69646C653A203C
:10021000253032580A6B65796D61705F636F6E6669
:1002200069672E6E6B726F3A20253032580A7469F6
:100230006D65725F72656164333228293A2025301A
:10024000386C580A000A092D2056657273696F6E62
:10025000202D0A5649443A20307846454544284BDB
:10026000696E676C792D4B65797329205049443A42
:100270002030784231393528534D442D3225204DD8
:10028000696C6B29205645523A2030783030303135
:100290000A4255494C443A202028536570202031A9
:1002A0002032303231290A4F5054494F4E533A20B0
:1002B0004C55464120434F4E534F4C4520434F4DE4
:1002C0004D414E44204E4B524F20343039360A4770
:1002D00043433A20352E342E30204156522D4C497E
:1002E00042433A20322E302E30204156525F415246
:1002F00043483A2061767233350A000A092D2043BB
:100300006F6E736F6C65202D0A4553432F713A0948
:10031000717569740A000A092D204D6167696320AF
:100320002D0A443A094465627567204D657373610F
:10033000676520546F67676C650A583A094D6174A8
:10034000726978204465627567204D6F646520543A
:100350006F67676C65202D2053686F77206B657918
:100360007072657373657320696E206D6174726954
:100370007820677269640A4B3A094B6579626F614C
:10038000726420446562756720546F67676C6520EE
:100390002D2053686F77206B6579707265737320B9
:1003A0007265706F72740A4D3A0944656275672010
:1003B0004D6F75736520546F67676C650A563A090F
:1003C00056657273696F6E0A533A09537461747596
:1003D000730A433A09416374697661746520436F17
:1003E0006E736F6C65204D6F64650A46312D463122
:1003F000303A0953776974636820746F204C6179CF
:10040000657220302D392028463130203D204C3077
:10041000290A302D393A0953776974636820746F5B
:10042000204C6179657220302D390A47524156457A
:100430003A0953776974636820746F204C61796559
:100440007220302028616C7465726E617465290AAF
:10045000423A094A756D7020746F20426F6F746C58
:100460006F616465720A4553433A094A756D70209D
:10047000746F20426F6F746C6F61646572202861C5
:100480006C7465726E617465290A453A0950726927
:100490006E7420454550524F4D2053657474696EFB
:1004A00067730A4253504143453A09436C65617290
:1004B00020454550524F4D0A4E3A094E4B524F205F
:1004C000546F67676C650A006B65796D61705F6377
:1004D0006F6E6669672E7261773A20253032580A4E
:1004E0002E737761705F636F6E74726F6C5F6361A0
:1004F00070736C6F636B3A2025750A2E636170739D
:100500006C6F636B5F746F5F636F6E74726F6C3A66
:100510002025750A2E737761705F6C63746C5F6C55
:100520006775693A2025750A2E737761705F72636B
:10053000746C5F726775693A2025750A2E7377614E
:10054000705F6C616C745F6C6775693A2025750A21
:100550002E737761705F72616C745F726775693A50
:100560002025750A2E6E6F5F6775693A2025750A1A
:100570002E737761705F67726176655F6573633A4A
:100580002025750A2E737761705F6261636B736CEF
:100590006173685F6261636B73706163653A2025A4
:1005A000750A2E6E6B726F3A2025750A00646562BB
:1005B00075675F636F6E6669672E7261773A202593
:1005C0003032580A2E656E61626C653A2025750AD4
:1005D0002E6D61747269783A2025750A2E6B6579E3
:1005E000626F6172643A2025750A2E6D6F757365AE
:1005F0003A2025750A006565636F6E6669673A0A79
:1006000064656661756C745F6C617965723A20250A
:10061000750A003F004E4B524F3A206F66660A0043
:100620004E4B524F3A206F6E0A000A6D6F7573651C
:100630003A206F66660A000A6D6F7573653A206F1F
:100640006E0A000A6B6579626F6172643A206F66A8
:10065000660A000A6B6579626F6172643A206F6E98
:100660000A000A6D61747269783A206F66660A0042
:100670000A6D61747269783A206F6E0A000A6465C7
:100680006275673A206F66660A000A64656275677C
:100690003A206F6E0A000A0A4A756D70696E67200B
:1006A000746F20626F6F746C6F616465722E2E2E92
:1006B0002000433E2000436C656172696E672045EF
:1006C0004550524F4D0A007267626C69676874202A
:1006D00074696D65722064697361626C652E0A00CD
:1006E0007267626C696768742074696D65722065F1
:1006F0006E61626C65642E0A007267626C6967687D
:10070000742073657420687376205B4E4F454550A6
:10071000524F4D5D3A2025752C25752C25750A0004
:100720007267626C69676874207365742068737699
:10073000205B454550524F4D5D3A2025752C25755F
:100740002C25750A007267626C6967687420726193
:10075000696E626F7720736574206873763A20251E
:10076000642C25642C25642C25750A007267626C44
:10077000696768742064697361626C65205B4545D4
:1007800050524F4D5D3A207267626C696768745FC2
:10079000636F6E6669672E656E61626C65203D20D1
:1007A00025750A007267626C6967687420656E61FE
:1007B000626C65205B454550524F4D5D3A20726733
:1007C000626C696768745F636F6E6669672E656ED9
:1007D00061626C65203D2025750A007267626C6954
:1007E00067687420746F67676C65205B454550527D
:1007F0004F4D5D3A207267626C696768745F636F22
:100800006E6669672E656E61626C65203D20257598
:100810000A007267626C69676874206D6F64652096
:100820005B4E4F454550524F4D5D3A2025750A00AD
:100830007267626C69676874206D6F6465205B45E0
:100840004550524F4D5D3A2025750A007267626C23
:10085000696768745F696E6974207267626C696742
:1008600068745F636F6E6669672E6D6F6465203DA7
:1008700020302E2057726974652064656661756C3E
:10088000742076616C75657320746F2045455052F5
:100890004F4D2E0A007267626C696768745F696EFB
:1008A0006974206565636F6E666967206973206E81
:1008B0006F7420656E61626C65642E0A00726762F7
:1008C0006C696768745F696E6974207374617274AF
:1008D000210A007267626C696768745F696E697487
:1008E0002063616C6C65642E0A007267626C6967D4
:1008F00068745F636F6E6669672E737065656420E8
:100900003D2025640A007267626C696768745F63E2
:100910006F6E6669672E76616C203D2025640A0043
:100920007267626C696768745F636F6E6669672E71
:10093000736174203D2025640A007267626C6967E8
:1009400068745F636F6E6669672E687565203D2009
:1009500025640A007267686C696768745F636F6E0C
:100960006669672E6D6F6465203D2025640A0072FC
:1009700067626C696768745F636F6E6669672E652E
:100980006E61626C65203D2025640A007267626CAE
:10099000696768745F636F6E66696720454550528A
:1009A0004F4D3A0A0000047F3F1F64321464321432
:1009B000783C1E1E140A052223252628292A2C2DC0
:1009C0002F3032333536383A3B3D3E40424345477F
:1009D000494A4C4E5051535557595A5C5E606264B7
:1009E0006668696B6D6F71737577797B7D7F8183C5
:1009F0008587898A8C8E90929496989A9C9E9FA1C6
:100A0000A3A5A7A8AAACAEAFB1B3B4B6B8B9BBBCE6
:100A1000BEBFC1C2C3C5C6C7C9CACBCCCDCED0D15B
:100A2000D2D2D3D4D5D6D7D7D8D9D9DADADBDBDB53
:100A3000DCDCDCDCDCDDDDDDDDDCDCDCDCDCDBDBF4
:100A4000DBDADAD9D9D8D7D7D6D5D4D3D2D2D1D048
:100A5000CECDCCCBCAC9C7C6C5C3C2C1BFBEBCBB45
:100A6000B9B8B6B4B3B1AFAEACAAA8A7A5A3A19FBD
:100A70009E9C9A98969492908E8C8A898785838181
:100A80007F7D7B79777573716F6D6B696866646262
:100A9000605E5C5A5957555351504E4C4A49474530
:100AA0004342403E3D3B3A3836353332302F2D2CD1
:100AB0002A292826252322FFAA7F5540000101016B
:100AC000010101010101020202020202020202030B
:100AD00003030303030303040404040404040505DB
:100AE000050505060606060607070707070808089E
:100AF00008090909090A0A0A0B0B0B0C0C0C0D0D4D
:100B00000D0E0E0E0F0F0F101011111112121313E4
:100B10001414151516161717181819191A1A1B1B5D
:100B20001C1D1D1E1E1F20202122222324242526B9
:100B300026272829292A2B2C2D2D2E2F30313232F1
:100B4000333435363738393A3B3C3D3E3F404142FD
:100B5000434445464748494A4C4D4E4F50515354E3
:100B6000555658595A5B5D5E5F6162646566686997
:100B70006B6C6D6F7072737577787A7B7D7E808217
:100B8000838587888A8C8E8F91939596989A9C9E60
:100B9000A0A2A3A5A7A9ABADAFB1B3B5B7BABCBE70
:100BA000C0C2C4C6C9CBCDCFD1D4D6D8DBDDDFE23D
:100BB000E4E7E9EBEEF0F3F5F8FAFDFF0A00253083
:100BC000325820006B6579626F6172645F72657084
:100BD0006F72743A200064656C5F6B65795F62695F
:100BE000743A2063616E27742064656C3A20253066
:100BF00032580A006164645F6B65795F6269743AB8
:100C00002063616E2774206164643A202530325875
:100C10000A005B735D004B6579626F6172642073DB
:100C2000746172742E0A005B575D005B535D005B5C
:100C3000525D00180353004D0044002D0032002582
:100C40000020004D0069006C006B00000018034B91
:100C50000069006E0067006C0079002D004B006594
:100C6000007900730000000403090409025B00031B
:100C70000100A0FA0904000001030101000921118B
:100C80000100012240000705810308000A09040150
:100C9000000103000000092111010001223B0007AF
:100CA00005820320000A0904020002030000000973
:100CB0002111010001222200070583032000010702
:100CC0000503032000011201000200000008EDFEF0
:100CD00095B10100010200010631FF0974A101096B
:100CE00075150026FF00952075088102097615000C
:100CF00026FF00952075089102C005010906A10193
:100D00008505050719E029E71500250195087501F6
:100D100081020507190029EF1500250195F07501DD
:100D200081020508190129059505750191029501B2
:100D300075039101C005010906A101050719E02904
:100D4000E715002501950875018102950175088157
:100D5000010507190029FF150026FF0095067508F3
:100D60008100050819012905950575019102950174
:100D700075039101C00011241FBECFEFD4E0DEBF88
:100D8000CDBF04B603FE27C0809137029091380290
:100D9000A0913902B0913A028730904BA740B04BF6
:100DA000D1F4109237021092380210923902109248
:100DB0003A0214BE84B7877F84BF0FB6F894A89513
:100DC00080916000886180936000109260000FBE87
:100DD000E0E0F8E3099511E0A0E0B1E0E6E0FEE52F
:100DE00002C005900D92A635B107D9F722E0A6E51D
:100DF000B1E001C01D92A733B207E1F70E9430189D
:100E00000C94012F0C940000FF93EF93E091560196
:100E1000F0915701309709F00995EF91FF910895EE
:100E2000FC018591803011F0EFDFFBCF0895FF27A3
:100E3000E0E230E247FF0CC0419597FF09C0EDE2C8
:100E40006095709580959095611D711D811D911D16
:100E500027FF02C0219530E350E2AA27660F771FD3
:100E6000881F991FAA1FA41710F0A41B63955A95F9
:100E7000A9F7AA3008F0A95FA05DAF93F3956115BB
:100E800071058105910541F7ED3211F4EF93F3956A
:100E9000F21718F43F93F395FBCF8F91B5DFFA95D6
:100EA000E1F70895E991F9918591803021F085323B
:100EB00019F0AADFF9CF089520E0E8945591553252
:100EC000C1F3503311F4689455915A3348F4505398
:100ED00090F3220F022E220F220F200D250FF4CFA8
:100EE0000EF4219589919991533619F3533729F1CD
:100EF000533559F1BC0188279927E8945C3621F4D1
:100F00008991999168945591543639F446EF7EF061
:100F100077FF0DC08FEF9FEF0AC055374AE039F0D9
:100F2000583540E121F0523642E009F00895FF9330
:100F3000EF937DDFEF91FF91B7CFFF93EF93FC012C
:100F400081918030B9F360DFFBCFFF93EF9368DFCF
:100F5000F1CFDF93CF93CDB7DEB72596A3DFCF9147
:100F6000DF91089581E0089581E008950C94B4071D
:100F700008950C94B8071F93CF93DF9300D000D04F
:100F80001F92CDB7DEB749835A836B8330915801E6
:100F900089819A81311114C0662359F0222349F0C6
:100FA0000E94200E182F682F89819A810E94CA0DF5
:100FB00003C00E94F60D182F69817A81812F04C029
:100FC0000E94200E69817A810F900F900F900F90F0
:100FD0000F90DF91CF911F910C94CF14FC01262F1D
:100FE000408151816281738184810C94BB0781E0CF
:100FF0000895CF93DF93EC0160E00E94EE07BE01FD
:10100000DF91CF910C94B9070E94C7160E94AD08DA
:101010000C9446170C94421708950E946B0C0E9482
:101020000C082FEF84E39CE0215080409040E1F7D2
:1010300000C000000C9410270F931F93CF93DF93F1
:101040008C0161E00E94EE07EC01B8010E94B60736
:10105000882309F462C0B801CE010E9419238823B5
:1010600009F45BC0B801CE010E946B23882309F408
:1010700054C0B801CE010E949624882309F44DC0C3
:10108000B801CE010E94AF21882309F446C0F801BF
:1010900082818823D9F1CF3D8CE5D80779F140F4DE
:1010A000C115FCE5DF0791F0C130DC4591F02EC0A1
:1010B000CC35EDE5DE0741F1CD35FDE5DF0709F182
:1010C000CB35DD4519F50E94601220C00E940D0845
:1010D00024C08091CE01C82FC095C170C0FB80F99B
:1010E0008093CE01CC2329F088E591E00E9410077F
:1010F00014C086E491E00E94100710C00E94CD1336
:101100000CC00E94571202C00E946312C801DF91F6
:10111000CF911F910F910C94B207C0E08C2FDF91FB
:10112000CF911F910F9108958295982F9373292F36
:10113000220F220F982F9C7C96959695922B892FA3
:101140008575880F9A7A9695892B089508950C9441
:10115000A60881E008950C94A9080895CF93C82F9C
:101160000E94A7088C2F0E94AB08CF910895CF93BF
:10117000DF93CDB7DEB72B970FB6F894DEBF0FBE67
:10118000CDBF4F83588769877A878B8761110E940B
:1011900086129E012F5F3F4F86E0F90111928A95DA
:1011A000E9F785E0FE013796D90101900D928A9505
:1011B000E1F789819A814C815D81452B31F09F3F18
:1011C00031F491E08F3F19F403C091E001C090E049
:1011D00090FF09C049815A816B817C818D819E81FC
:1011E0000E946D1105C0C9010E94F7078111F2CF5D
:1011F0002B960FB6F894DEBF0FBECDBFDF91CF9117
:101200000895FC01808191810E94620E0895CF9320
:10121000882309F487C0C82F8238C1F40E94CC24E7
:1012200081FD80C069E380910001909101010E94DD
:1012300011260E94B8122FEF81EE94E021508040D9
:101240009040E1F700C0000069E319C08338F1F471
:101250000E94CC2480FD66C063E5809100019091DE
:1012600001010E9411260E94B8122FEF81EE94E036
:10127000215080409040E1F700C0000063E580917C
:101280000001909101010E941C2649C08438C1F4DC
:101290000E94CC2482FD46C067E4809100019091B9
:1012A00001010E9411260E94B8122FEF81EE94E0F6
:1012B000215080409040E1F700C0000067E4DFCF9C
:1012C0008CEF8C0F813AF8F48C2F0E94BB1981119E
:1012D00029C06C2F80910001909101010E946F251F
:1012E000882349F06C2F80910001909101010E94A8
:1012F0001C260E94B8126C2F809100019091010170
:101300000E9411260CC080E28C0F883058F4C77000
:1013100081E001C0880FCA95EAF70E946912CF9157
:101320000C94B812CF910895882309F45BC0682FFC
:10133000823879F40E94CC2481FF54C069E3809103
:101340000001909101010E9411260E94B81269E3E8
:1013500010C08338B1F40E94CC2480FF43C063E501
:1013600080910001909101010E9411260E94B81203
:1013700063E580910001909101010E941C260C946C
:10138000B812843879F40E94CC2482FF2BC067E421
:1013900080910001909101010E9411260E94B812D3
:1013A00067E4E7CF8CEF860F813A18F380E2860F6F
:1013B000883048F4677081E001C0880F6A95EAF7C9
:1013C0000E946F12DCCF8BE5860F833020F480E023
:1013D00090E00C942D25685A673120F480E090E06D
:1013E0000C94432508951F93CF93DF93182FEB019F
:1013F0000E940709209741F08FE99FE00197F1F7DC
:1014000000C000002197F6CF812FDF91CF911F916F
:101410000C949409893319F060E070E002C060E533
:1014200070E00C94F309882321F00E9469120C9457
:10143000B8120895882321F00E946F120C94B812FC
:101440000895CF92DF92EF92FF920F931F93CF9365
:10145000DF937C01062FC72FFC011281D581D29525
:10146000DF700E942A12882399F0112389F08C2FB3
:10147000807F803421F080E2800F883048F082E065
:101480000E9408130E942A1291E0D82ED92601C08A
:10149000D12CCC2EC2948FE0C8228C2D90E0FC0180
:1014A000E65CFF4F0C94992E8C2F807FCF708823A1
:1014B00011F0C295C07F112399F0CC2309F464C1C7
:1014C00080E2800F883010F0011104C08C2F0E9440
:1014D000691203C08C2F0E9479120E94B81254C165
:1014E000802F0E949409CC2309F473C180E2800FFD
:1014F000883010F0011104C08C2F0E946F1203C0BD
:101500008C2F0E947F120E94B81263C18C2F807FA3
:10151000CF70803211F0C295C07F002319F00130E6
:10152000C9F022C0112371F0DD2341F0D13031F434
:101530000E9499128C2B0E94A1124BC10E949912F9
:101540008C2B1DC0DD2319F0D13009F442C10E945B
:10155000AE1225C0112321F0D63008F03AC10EC0DA
:10156000D53008F036C11BC0112361F0DD2331F006
:10157000F701858180FF08C18F7085838C2F0E94C1
:10158000130A27C1DD2359F0093309F00EC1FFEF1B
:1015900027EE83E0F15020408040E1F704C18C2F1A
:1015A0000E941A0A16C18C2F837009F045C01111D0
:1015B00014C1402F429546954770440F440F602F49
:1015C0006F70862F90E0A0E0B0E0042E04C0880F7A
:1015D000991FAA1FBB1F0A94D2F704FF10C00FE087
:1015E00010E020E030E004C0000F111F221F331F65
:1015F0004A95D2F7009510952095309503C000E0EC
:1016000010E09801C695C695C370BC01CD01602B52
:10161000712B822B932BC23049F058F4C13019F052
:101620000E94E00CDAC00E94CE0CD7C00E94F20CDF
:10163000D4C00E94CC0CD1C0112319F08C2F817022
:1016400001C08695882309F4C8C0402F429546956D
:101650004770440F440F602F6F70862F90E0A0E01A
:10166000B0E0042E04C0880F991FAA1FBB1F0A9464
:10167000D2F704FF10C00FE010E020E030E004C01B
:10168000000F111F221F331F4A95D2F700951095A6
:101690002095309503C000E010E09801C695C695EE
:1016A000C370BC01CD01602B712B822B932BC230F8
:1016B00049F058F4C13019F00E94A50D8EC00E9467
:1016C000930D8BC00E94B70D88C00E94060D85C087
:1016D000CF70112339F08C2F0E942C0D802F0E9487
:1016E000130A7BC0802F0E941A0A8C2F0E944D0D76
:1016F00074C0023F01F128F4003F41F0013FA1F026
:101700003FC0033FF9F0043F39F13AC0112341F0E3
:10171000D53008F05EC08C2F8F710E94720D59C0B9
:10172000D63008F056C0F7CF112339F08C2F8F71C7
:101730000E942C0D4EC01123C9F38C2F8F710E9473
:101740004D0D47C0112329F08C2F8F710E94170D6A
:1017500040C00E94120D3DC0112349F0CF718C2F63
:101760000E942C0D63E08C2F0E94ED1232C081E0AC
:101770000E940813D23068F182E00E94081329C049
:10178000112331F0DD2391F2802F0E94070921C03F
:10179000DD2399F2093349F49FEFE7EEF3E091502E
:1017A000E040F040E1F700C00000802F0E94940963
:1017B00010C04C2F4F70602FC7010E94CB140E94A5
:1017C000900E0FC04C2F4F70602FC7010E94CE1497
:1017D00008C088EF8C0D843020F40E94CC240E9435
:1017E000AE08DD20C9F00E94261280FD15C0F70169
:1017F00012820E9420120E942C0DC7010E942D0C03
:101800000E942012DF91CF911F910F91FF90EF90D6
:10181000DF90CF900C944D0DDF91CF911F910F91E0
:10182000FF90EF90DF90CF9008950F931F93CF9389
:10183000DF93EC01688179818A810E946D0E8C01B1
:101840000E94C90D0E94BA0CB801CE010E94210A63
:10185000DF91CF911F910F910895CF93DF93EC010A
:10186000988189812B813C81232B31F08F3F31F48A
:1018700081E09F3F19F403C081E001C080E080FD5A
:1018800019C0CE010E941C0881110CC00E942A12AE
:10189000882381F08A81882369F082E0DF91CF91EB
:1018A0000C940813CE010E94150CCE01DF91CF914C
:1018B0000C94F907DF91CF9108950E9486120E943F
:1018C00096120C94B81280910001909101010E942F
:1018D00027260C945D0C0E9476120C94630CE92F61
:1018E000E295EF704E2F50E0FA013297EE30F1059D
:1018F000B0F4E65BFF4F0C94992E803F91F018F402
:10190000883E68F40EC0843F51F40BC0883E48F016
:10191000813F29F406C093FB882780F9089580E071
:10192000089581E00895FC01808191810E94620EFA
:101930000E946F0C0895CF93DF9300D000D01F92C8
:10194000CDB7DEB70F900F900F900F900F90DF91F3
:10195000CF910895CF93DF9300D000D000D0CDB7C2
:10196000DEB726960FB6F894DEBF0FBECDBFDF916F
:10197000CF910895089508950C94BB0C0C94BC0C61
:101980000E94BE0C609362017093630180936401B6
:10199000909365010C945D0C0C94C00C0F931F93F5
:1019A0000091620110916301209164013091650101
:1019B000602B712B822B932B1F910F910C94C00CD9
:1019C0000F931F93009162011091630120916401B4
:1019D0003091650160237123822393231F910F911E
:1019E0000C94C00C0F931F9300916201109163013E
:1019F0002091640130916501602771278227932728
:101A00001F910F910C94C00C0C94BB0C0E94040D00
:101A100060935E0170935F01809360019093610118
:101A20000C945D0C60E070E0CB010C94060D0F93FC
:101A30001F9341E050E060E070E08A019B0104C028
:101A4000000F111F221F331F8A95D2F7C901B80159
:101A50001F910F910C94060D0F931F9341E050E0DE
:101A600060E070E004C0440F551F661F771F8A9521
:101A7000D2F780915E0190915F01A0916001B091D9
:101A800061018A019B01082B192B2A2B3B2BC901D1
:101A9000B8011F910F910C94060D0F931F9341E015
:101AA00050E060E070E004C0440F551F661F771FD0
:101AB0008A95D2F7409550956095709580915E011A
:101AC00090915F01A0916001B09161018A019B0139
:101AD000082319232A233B23C901B8011F910F9121
:101AE0000C94060D0F931F9341E050E060E070E00E
:101AF00004C0440F551F661F771F8A95D2F7809147
:101B00005E0190915F01A0916001B09161018A0135
:101B10009B01082719272A273B27C901B8011F91D4
:101B20000F910C94060D0F931F9300915E0110917D
:101B30005F012091600130916101602B712B822B3C
:101B4000932B1F910F910C94060D0F931F930091EF
:101B50005E0110915F01209160013091610160236D
:101B60007123822393231F910F910C94060D0F93E1
:101B70001F9300915E0110915F01209160013091EF
:101B8000610160277127822793271F910F910C9481
:101B9000060D0895262F890F982F9770A1E001C098
:101BA000AA0F9A95EAF786958695869590E065E066
:101BB00070E00E94192EFC01E75AFE4F40E050E011
:101BC000622F70E090819B01042E02C0369527950C
:101BD0000A94E2F72170219529272A2329272193A6
:101BE0004F5F5F4F4530510569F70895890FA82F62
:101BF000A77086958695869590E065E070E00E94D6
:101C0000192EBC0140E050E080E0FB01E40FF51F1D
:101C1000E75AFE4F208130E00A2E02C03695279504
:101C20000A94E2F721703327042E01C0220F0A9490
:101C3000EAF7822B4F5F5F4F4530510531F708952A
:101C4000BF92CF92DF92EF92FF920F931F93CF93A9
:101C5000DF938C01C0905E01D0905F01E090600145
:101C6000F09061018091620190916301A091640103
:101C7000B0916501C82AD92AEA2AFB2ACFE1D0E02F
:101C8000D701C6010C2E04C0B695A79597958795E8
:101C90000A94D2F780FD04C0219790F7B12C07C0B9
:101CA000BC2EB8018C2F0E94EA150197A9F38B2D49
:101CB000DF91CF911F910F91FF90EF90DF90CF9028
:101CC000BF900895CF93DF93EC010E94200EBE01D8
:101CD0000E94EA15DF91CF9108951F93CF93DF9370
:101CE000EB0190915801992321F0CB010E94620EE3
:101CF00013C0882349F0CB010E94200E182F682FB3
:101D0000CE010E94CA0D04C0CB010E94F60D182F0F
:101D1000BE01812F0E94EA15DF91CF911F91089596
:101D2000EF92FF920F931F93CF93DF938C01892B38
:101D300009F46CC0F12CEE24E394E8012196F8013B
:101D40008491843740F4843008F051C0813081F0B0
:101D5000823019F15BC0853709F444C0A8F19CE7D3
:101D6000980F903708F052C08F770E94940941C0B5
:101D70000E5F1F4FFE01849190E2980F983050F44F
:101D80008770FE2D01C0FF0F8A95EAF78F2F0E9402
:101D9000891214C00E9407092DC00E5F1F4FFE015B
:101DA000849190E2980F983060F48770FE2D01C006
:101DB000FF0F8A95EAF78F2F0E948F120E94B812A8
:101DC00019C00E94940916C00E5F1F4FFE01C491F6
:101DD000CC2381F08FE99FE00197F1F700C000006C
:101DE000C150F6CF0E5F1F4FFE01F49003C00E945A
:101DF00007098E018F2D882309F49FCFEFE9FFE0BB
:101E00003197F1F700C000008150F5CFDF91CF91FD
:101E10001F910F91FF90EF900895CF93DF93C091A2
:101E2000660180916701C817A1F0D0E0CE0166E09D
:101E300070E00E94192EFC01E859FE4F408151814B
:101E400062817381848195810E94AA0C2196C7705A
:101E5000E8CFDF91CF910895409198015091990179
:101E600060919A0170919B0180919C0190919D01DC
:101E70000C94AA0C1F93CF93DF9380919D018295C0
:101E80008F7009F05CC080919A01882309F457C0D3
:101E90002091660110916701C0919801D09199013C
:101EA000A0919B01B0919C0181E0CF3F09F080E0BF
:101EB000482F211709F443C0109721F0DF3F21F08C
:101EC00080E003C081E001C0842F30E080FD33C09A
:101ED000C90166E070E00E94192EFC01E859FE4F2E
:101EE00081818D1328C080818C1325C0828181114E
:101EF00022C0838194818A1B9B0B883C9105D8F476
:101F000080919D018F70806180939D01C90166E081
:101F100070E00E94192EFC01E359FE4F90819F70E2
:101F20009061908388E991E00E942D0CDF91CF9120
:101F30001F910C940D0F2F5F3F4F2770BACFDF9189
:101F4000CF911F9108959F92AF92BF92CF92DF924F
:101F5000EF92FF920F931F93CF93DF93CDB7DEB72E
:101F600061970FB6F894DEBF0FBECDBF8C0185E040
:101F7000F801DE011D9601900D928A95E1F7F801B6
:101F8000E280909198013091990160919B0170914C
:101F90009C016115710531F03F3F31F481E09F3FB5
:101FA00019F403C081E001C080E0F82FF1709F2E8A
:101FB00080FD43C1F80140812181A380B48088E97C
:101FC000C82E81E0D82EF0909A01F501E61BF70BA0
:101FD000FF2009F4DCC080919D01582F507FE83C20
:101FE000F10508F096C0511155C0231313C04913D1
:101FF00011C0FE2CE1100EC08F70806180939D0196
:102000000E942C0FC6010E942D0C80919D01F801A9
:10201000858350C1AB2831F02F3F31F481E04F3F31
:1020200019F403C081E001C080E080FD03C081E0BD
:102030008E2502C080E090E0F82FF170FF2E80FF27
:102040001FC0E091660130916701E31709F410C1E8
:10205000F0E0CF0166E070E00E94192EDC01A85983
:10206000BE4F11968C911197281307C08C9148137D
:1020700004C012968C91E81203C03196E770E5CF48
:10208000FE2CEE2009F416C180919D0181608093A1
:102090009D0154C0231306C0491304C0E11002C0BF
:1020A000F80199C0C8010E94930C882361F1EE20C9
:1020B00051F120919D01822F82958F7090E00297BF
:1020C00074F0809198019091990198878F83198677
:1020D000BB86AA862C87CE0107960E942D0C86E02F
:1020E000F801A8E9B1E001900D928A95E1F70E940C
:1020F0003A0F0E942C0F0AC0231711F1C8010E9449
:10210000930C81112CC0C8010E942D0CFF24F39464
:10211000D1C05111F1CF7A2DB98AA88A522F6E2DD4
:1021200089890E949B0C88E991E00E942D0C86E031
:10213000F60111928A95E9F70E942C0FF12CBAC092
:102140004913DCCFE110DACFF8018583C8010E9482
:102150002D0C86E0F60111928A95E9F7ABC0EE20CE
:1021600091F220919D01822F82958F7090E00297CD
:102170000CF4B5CF80919801909199019A8389834D
:102180001B82BD82AC822E83CE010196A6CFE83C95
:10219000F10508F044C0FE2CEE2009F4B4CF23135F
:1021A00030C049132EC020919D0120FD21C0822FF7
:1021B00082958F70482F50E041155105C9F0F80104
:1021C00025834F30510541F08F5F982F9295907F76
:1021D000822F8F70892B8583C8010E942D0C86E089
:1021E000F801A8E9B1E001900D928A95E1F73DC0B0
:1021F00086E0F801A8E9B1E001900D928A95E1F737
:1022000059C0C8010E94930C811169CF80919D0132
:10221000816080939D01C8010E942D0C4BC07A2DD6
:10222000B98AA88A522F6E2D89890E949B0C86E05C
:10223000F60111928A95E9F718C0EE2009F463CFF0
:10224000C8010E94930CF82E882309F45CCF86E025
:10225000F801A8E9B1E001900D928A95E1F788E9CB
:1022600091E00E9401090E943A0F0E942C0F22C0A7
:102270004D872E878D859E850E94620E292F22957F
:102280002F70223028F49F7039F0811105C00BC0E7
:10229000243028F49F7049F4805E883020F0C80113
:1022A0000E942D0C9F2CF92C05C0F8019581907F80
:1022B00099F7F9CF8F2D61960FB6F894DEBF0FBE58
:1022C000CDBFDF91CF911F910F91FF90EF90DF90E5
:1022D000CF90BF90AF909F900895CF93DF93CDB7ED
:1022E000DEB72C970FB6F894DEBF0FBECDBF4F837D
:1022F000588769877A878B879C87CE0107960E94CB
:10230000A30F8823D1F09F8188852A853B85232BC5
:1023100031F08F3F31F481E09F3F19F403C081E039
:1023200001C080E080FD6FC04F81588569857A8546
:102330008B859C850E94AA0C66C086E0FE013796BC
:10234000DE01119601900D928A95E1F7FF81E885F3
:102350006A857B856115710531F0EF3F31F481E0CD
:10236000FF3F19F403C081E001C080E080FD4BC055
:102370008091670190E09C012F5F3F4F27703327CA
:102380004091660150E02417350709F443C0F983F2
:10239000EA837D836C8366E070E00E94192EDC0185
:1023A000A859BE4F96E0FE01319601900D929A9584
:1023B000E1F7209367010E940D0F25C090E066E0D1
:1023C00070E00E94192E88599E4F0E94A30F882307
:1023D00071F18091660190E066E070E00E94192E34
:1023E000FC01E859FE4F40815181628173818481F3
:1023F00095810E94AA0C8091660190E001968770F9
:1024000099278093660180916601909167018913F5
:10241000D5CF0DC00E946B0C10926701109266011F
:10242000E8E9F1E086E0DF011D928A95E9F72C9654
:102430000FB6F894DEBF0FBECDBFDF91CF910895E8
:1024400080919E01859585958595089580919E0141
:102450008770089590919E01977081E009F480E063
:102460000895CF939091100292FB222720F928170C
:10247000E1F0C82F892FC0FB82F980931002809170
:102480000F02909110020E9449138091CE0180FFAB
:102490000CC01F92CF9389E691E09F938F930E9487
:1024A000A9070F900F900F900F90CF9108958091F2
:1024B000100282FB882780F991E089270C94311261
:1024C00081E00C94311280E00C9431128091C201B1
:1024D00008959091C201892B8093C201089580953F
:1024E0009091C20189238093C20108951092C20184
:1024F00008959091C101892B8093C1010895809521
:102500009091C10189238093C10108951092C10166
:1025100008959091C001892B8093C0010895809502
:102520009091C00189238093C00108951092C00149
:10253000089580919F01089508950C949C120C9425
:102540009D129091100292FD08C090919F019817E2
:1025500021F080939F010C949F12089580919F0118
:10256000882329F010929F0180E00C949F12089517
:10257000E0910001F09101018091C2018083E0911E
:102580000001F091010190818091C101892B80832C
:10259000E0910001F091010190818091C001892BAF
:1025A000808380919F01882381F0E0910001F09168
:1025B00001019081892B808380910001909101011C
:1025C0000E94592581110E94AE12809100019091C4
:1025D00001010C94D8240C949C129091100292FD4D
:1025E00010C0982F990F990F990F692B60939E0136
:1025F0000E942C0D80919E018595859585950C9462
:10260000EB120C942C0D10929E0180E00C94EB12B6
:1026100020919E018095822380939E01982F977030
:1026200041F430E0482F082E000C550B24173507D5
:1026300021F49091100292FF07C0859585958595AC
:102640000E944D0D0C940313089580E090E00E94C9
:10265000C72E21E0893E9E4F09F020E0822F089589
:1026600082E090E00C94B92E83E090E00C94B92EB7
:10267000CF9384E090E00E94B92EC82F82E290E0D0
:102680000E94B92E2C2F30E0A901582BCA01CF91FE
:102690000895CF93C92F682F84E090E00E94CD2E3B
:1026A0006C2F82E290E0CF910C94CD2EAB01BC0157
:1026B0008FE090E00C94DF2EAB01BC0183E190E051
:1026C0000C94DF2E60E070E0CB010C945C1360E0B2
:1026D00070E0CB010E9456130C94621369EE7EEFFA
:1026E00080E090E00E94EB2E60E082E090E00E94AB
:1026F000CD2E60E083E090E00E94CD2E109262012A
:1027000010926301109264011092650160E084E010
:1027100090E00E94CD2E60E082E290E00E94CD2EFB
:1027200060E085E090E00E94CD2E60E086E090E0E1
:102730000E94CD2E6FEF87E090E00E94CD2E40E00A
:1027400050E0BA0188E090E00E94DF2E60E08DE06A
:1027500090E00E94CD2E40E050E0BA0188E190E088
:102760000E94DF2E60E087E190E00E94CD2E40E0E5
:1027700050E0BA018CE190E00E94DF2E60E070E052
:1027800080E290E00E94EB2E40E050E0BA0188E148
:1027900090E00E94DF2E0C9467130C946E13682F48
:1027A0008EE090E00C94CD2E0E94CF266093CA015B
:1027B0007093CB018093CC019093CD016093C601BF
:1027C0007093C7018093C8019093C901089581E077
:1027D00008950C94E71308950C94EB130C94EB13E9
:1027E0000C94EE130C94EB130C94F2130C94EB1367
:1027F00085E998E20E9434270E94F6130C94F413A2
:102800000E94EC130C94EB130E94BA260E94B61798
:102810000E945220EFE0F2E0808180688083809106
:102820000F02909110020E9449130C94F013CF9361
:10283000C82F8091CE0182FF1EC080FF04C085E8B2
:1028400091E00E9410078091CE0180FF0CC01F9282
:10285000CF9380E891E09F938F930E94A9070F90F8
:102860000F900F900F908091CE0180FF04C08EE7F3
:1028700091E00E9410078C2FCF910C94AE08BF926C
:10288000CF92DF92EF92FF920F931F93CF93DF933C
:10289000CDB7DEB72A970FB6F894DEBF0FBECDBF17
:1028A0000E94C61781110E94D41384ECC82E81E0C7
:1028B000D82E00E010E0B02E802F0E94EB16F82EEC
:1028C000F601E1906F01E82621F18091CE0181FDB2
:1028D0000E94F116E0FE1DC00E94E913882389F0D2
:1028E0001E82BF828F2D817088870E94C3268160DF
:1028F000782F9A8789874E815F8168858A850E94B3
:10290000B708F801EC53FE4F908181E0892780835E
:1029100015C00F5F1F4F0230110569F68FEF8983D5
:102920008A831B820E94C3268160782F9D838C83BB
:1029300049815A816B818D810E94B7080E940121D3
:102940000E94CC249091C3018917A9F00E94CC2445
:102950008093C3012A960FB6F894DEBF0FBECDBF99
:10296000DF91CF911F910F91FF90EF90DF90CF906B
:10297000BF900C9417142A960FB6F894DEBF0FBEC2
:10298000CDBFDF91CF911F910F91FF90EF90DF901E
:10299000CF90BF90089580E090E008950895E62FCD
:1029A000F0E0E70FF11D90E0880F991FE80FF91F85
:1029B000EE0FFF1FEE5BFE4F859194910895880FF7
:1029C000991FFC01E856FE4F859194910895CF938D
:1029D000DF930E94EF15EC01811521E5920798F530
:1029E000811540E5940708F085C0811550E29507F0
:1029F000F0F4C11581E0D80708F0E8C0C03ED10569
:102A000088F4C03CD10508F065C0C130D10509F497
:102A10005EC008F4D8C0CE010497813A910508F44D
:102A2000D5C0D1C0C83ED10508F4D0C0CCC08115F6
:102A300020E4920708F05BC0811540E3940708F09A
:102A40004FC09F704AC0811555E59507A0F4C11588
:102A500084E5D80708F09BC0C11523E5D20708F02C
:102A60007FC0C11542E5D40708F063C09C2F8827BA
:102A7000816F906AACC0811559E5950798F4C1152E
:102A800088E5D80708F088C0C11526E5D20708F008
:102A90009AC08C2F0E9483168F7190E0982F882700
:102AA000906295C081154AE5940708F47AC0905663
:102AB0008115904208F087C08D2F8F710E94831678
:102AC0009E01332730628F71A901582B7AC081E0B3
:102AD00090E07DC0CE01805C91090E94DF1477C038
:102AE0009927D3FF02C0986C72C0906C70C09F7021
:102AF000906A6DC0B4E096958795BA95E1F7282F56
:102B000023703C2F337081E090E002C0880F991F42
:102B10003A95E2F79C68922B2C2F2F7026952695DC
:102B200030E0C5E0220F331FCA95E1F7822B932BCB
:102B30004EC09E012370332781E090E002C0880FD1
:102B4000991F2A95E2F72C2F2695269530E0F5E07F
:102B5000220F331FFA95E1F7822B932B9C6837C025
:102B60009E012370332781E090E002C0880F991FF7
:102B70002A95E2F72C2F2695269530E0E5E0220FE6
:102B8000331FEA95E1F7822B932B9A6820C09C2F84
:102B90008827846F906A1BC09C2F8827806F906A5B
:102BA00016C08F700E9483169E0194E0369527957B
:102BB0009A95E1F72F7030E0322F22273069A90172
:102BC000482BCA0104C080E090E001C0CE01DF9133
:102BD000CF9108950E94CF140E94E714089582387F
:102BE000910569F1B0F48133910509F46DC048F4A1
:102BF0008932910509F463C08A32910509F469C0EC
:102C000008958533910509F455C089339105B9F0CC
:102C10000895833E910569F138F4803E9105B1F045
:102C2000823E910509F10895863E9105A9F1873EFE
:102C30009105B9F1843E910509F064C023C020914B
:102C40000F0220FD4FC021FD4DC0089580910F025D
:102C500080FD44C08091100280FF44C080910F022B
:102C600084FD42C083EE4DC080910F0282FF38C0C8
:102C7000F5CF80910F0282FD33C08091100280FD5C
:102C800031C0ECCF8091100281FF32C080910F02E1
:102C900084FD2AC087EE35C080910F0283FF26C0D5
:102CA000F5CF80910F0283FD21C08091100281FD3C
:102CB0001FC0ECCF80910F0285FD1CC01DC080910C
:102CC0000F0285FD19C016C080910F0286FD16C047
:102CD00017C080910F0286FD13C010C089E311C098
:102CE00082EE0FC080EE0DC080E00BC086EE09C002
:102CF00084EE07C089E205C085E303C08AE201C013
:102D000081E390E0089590910F0292FF0DC0282F6B
:102D10002871283019F4877F846006C0282F247119
:102D2000243011F48B7F886093FF0DC0282F287109
:102D3000283119F4877E846106C0282F247124313C
:102D400011F48B7E88612091100220FF0DC0382F76
:102D50003871383019F4877F816006C0382F31719F
:102D6000313011F48E7F886021FF0DC0282F28712B
:102D7000283119F4877E816106C0282F2171213105
:102D800011F48E7E886194FD877E089508950E94D7
:102D90002513811102C00E94CD130E94301380932D
:102DA000CE010E9438139093100280930F020E946C
:102DB000C6160E943413682F70E080E090E00E94F5
:102DC000CC0C60915E0170915F01809160019091E7
:102DD00061010C94040DE82FF0E0ED5EFD4F808161
:102DE0000895CF92DF92EF92FF920F931F93CF93AC
:102DF000DF9387EA91E00E94100783E1E82E82E0EA
:102E0000F82EC0E0D0E092EAC92E91E0D92E0AE96E
:102E100011E0DF93CF93DF92CF920E94A9078FE951
:102E200091E00E941007F70181917F010E949408B0
:102E30001F928F931F930F930E94A90788E991E037
:102E40000E94100721968DB79EB708960FB6F8948A
:102E50009EBF0FBE8DBFC230D105D9F6DF91CF9195
:102E60001F910F91FF90EF90DF90CF90089580EA2F
:102E70008A95F1F7089500C008950C9437170895C6
:102E80000C943F170C9440170C943F170C94441764
:102E9000F894E82FE295EF70F0E031A1282F2F7021
:102EA00081E090E001C0880F2A95EAF7982F90956D
:102EB000932391A392A1892B82A37894089583E907
:102EC0000E94481785E60E94481782E90C9448172B
:102ED000EF92FF921F93CF93DF93182FD92FC62F16
:102EE000F894539A5B9878940E943B1781E090E0A5
:102EF0000C2E01C0880F0A94EAF7682F809590E2A3
:102F0000E92E91E0F92EE12FFD2FAF014E5F5F4FCB
:102F1000D0E0D7019D917D019F3FA9F0292F2295F7
:102F20002F7030E0D90190962C9130E09F7002C054
:102F3000359527959A95E2F720FD05C09081962B4F
:102F40009083D1E003C09081982390833196E41759
:102F5000F507F9F683E90E9448176D2F8C2FDF9152
:102F6000CF911F91FF90EF900C943D170E945F1737
:102F7000A1E1B2E01C92E3E1F2E0108211961C9212
:102F8000118282E00E94F9170C9404081F93CF93DA
:102F9000DF9300D0CDB7DEB71A82198260E0CE0190
:102FA00001960E94681742E050E0BE016F5F7F4FBC
:102FB00081E192E00E94AC2E11E0009709F410E04C
:102FC000892B31F089819A819093120280931102AA
:102FD000212F42E063E172E081E192E00E94FA1762
:102FE0000E940A08812F0F900F90DF91CF911F91BF
:102FF00008950895FF920F931F93CF93DF938C0151
:10300000F62ED72FC42F222349F081E08093D101DF
:103010000E94C3269093D0018093CF018091D1016B
:103020008823C1F08091CF019091D0010E94DB26CE
:10303000059780F0EF2DFD2FD8014C2F50E0CD01EA
:10304000801B910B841795071CF48D918193F7CF0A
:103050001092D101DF91CF911F910F91FF900895B0
:103060000E9439260E94F8280E9411290E942729CF
:103070000E940014FBCFCF93C82F1F928F938CEB2D
:1030800091E09F938F930E94A90781E090E0A0E0D8
:10309000B0E0BC01CD0104C0660F771F881F991FE7
:1030A000CA95D2F70E94CC0C0F900F900F900F9002
:1030B000CF910C946B0CDF92EF92FF920F931F93C2
:1030C000CF93DF93482F50E0FA013597EF33F105A6
:1030D00008F03FC1E85AFF4F0C94992E0E94341318
:1030E0001F928F9386EF95E09F938F930E94A9077D
:1030F0000E94301383FB992790F91F929F9382FBC4
:10310000992790F91F929F9381FB992790F91F921D
:103110009F93982F91701F929F931F928F938DEA88
:1031200095E09F938F930E94A9070E94381387FB15
:10313000222720F91F922F9386FB222720F91F9226
:103140002F9385FB222720F91F922F9384FB2227A0
:1031500020F91F922F9383FB222720F91F922F9390
:1031600082FB222720F91F922F9391FB222720F91F
:103170001F922F93292F21701F922F9381FB2227BB
:1031800020F91F922F93282F21701F922F939F9326
:103190008F9388EC94E09F938F930E94A9078DB73B
:1031A0009EB788960FB6F8949EBF0FBE8DBF06C01F
:1031B00086EB96E00E9410070E94CD13C1E0CEC0BE
:1031C00086E193E074C08091CE01817F8E7F8093F1
:1031D000CE018BEF92E00E94100782EB96E00E94F6
:1031E000100781E08093D201E9CF86E996E00E9442
:1031F00010070E940D08E2CF8091CE01C82FC09524
:10320000C170C0FB80F98093CE01CC2319F08AE80D
:1032100096E091C08DE796E00E9410078091CE0164
:10322000897F877F8093CE01C9CF9091CE0191FB9A
:10323000CC27C0F981E0C827892FC0FB81F9809392
:10324000CE01CC2319F080E796E027C082E696E015
:103250002EC09091CE0192FBCC27C0F981E0C82707
:10326000892FC0FB82F98093CE01CC2319F083E52E
:1032700096E013C083E496E01AC09091CE0193FBD0
:10328000CC27C0F981E0C827892FC0FB83F9809340
:10329000CE01CC2351F087E396E00E941007809185
:1032A000CE0181608093CE0159C08AE296E00E94EF
:1032B000100784CF85E492E0FACF0E94CF26062F34
:1032C000F72EE82ED92EC0910F02C7FBCC27C0F9EC
:1032D00010910E02D0911F010E94CC24DF92EF9238
:1032E000FF920F931F92CF931F921F931F92DF9312
:1032F0001F928F9381EC91E09F938F930E94A90777
:103300008DB79EB70E960FB6F8949EBF0FBE8DBFB9
:1033100055CF0E946B0C90910F0297FBCC27C0F900
:1033200081E0C827892FC0FB87F980930F02CC2347
:1033300029F080E296E00E94100710C085E196E037
:10334000B6CF895303C08D5101C080E00E943B1865
:1033500035CF83E196E00E941007C0E08C2FDF910B
:10336000CF911F910F91FF90EF90DF90089580E033
:1033700008950C94B719CF93C82F8091D201882358
:1033800019F0813031F038C00E9466128232B1F5F6
:1033900004C00E946612823261F48C2F0E94B91917
:1033A000811104C08C2F0E945B1824C081E090E042
:1033B00021C08C2F0E94B71981111BC0C43189F024
:1033C00018F4CB3029F010C0C93259F0C83361F479
:1033D0008BEF92E00E94100788EB91E00E941007AB
:1033E00008C01092D2010CC086EB91E00E94100739
:1033F00007C081E0817006C01092D20180E002C057
:1034000080E0F8CFCF910895EF92FF920F931F9332
:10341000CF93DF93E82F71110AC0442321F0F0E02D
:10342000E454F54FE4916E2F7E2F8E2F6CC0C62F83
:10343000D0E0072F10E0282F30E0442329F0F901D5
:10344000E454F54F249130E0CE0166E070E00E9434
:10345000192EEE24EA94F12CB7010E944F2EDB01C5
:10346000CC0FDD1FCB016BEA7FEF0E94192E8C0F72
:103470009D1FC82FCC0FC80FC701801B910BB9012E
:103480000E94192EE92F492FD0E0CE01B8010E94E9
:10349000192E692F70E0C701861B970BB9010E9496
:1034A000192EF92FC7018C1B9D0BB8010E94192EF4
:1034B000692F70E0C701861B970BB9010E94192E76
:1034C000A230B10591F038F4109759F01197C1F47A
:1034D0008E2F7F2F0CC0A430B10579F050F01697D5
:1034E00079F4722F842FE92F0DC0892F7E2FE22FC0
:1034F00009C0822F7E2FEF2F05C0822F792F02C0A7
:10350000722F8F2F6E2FDF91CF911F910F91FF9010
:10351000EF90089541E00E94041A089508950E94D2
:103520008A1A0895CF93DF93762FE901682F842FAD
:103530000E948F1A798368838A83DF91CF910895DF
:1035400080911502282F269530E02115310519F4B8
:103550008170826005C02532310524F08170886455
:1035600080931502089588E090E00C94C12ECF92CC
:10357000DF92EF92FF926B017C010E94A01AB701CB
:10358000A60188E090E0FF90EF90DF90CF900C9440
:10359000DF2EE5E1F2E083E0808311828FEF82830A
:1035A0008383148260817181828193810C94B71A24
:1035B0008091CE0180FF08C08CE899E09F938F93A3
:1035C0000E94A9070F900F908091CE0180FF0FC03D
:1035D0008091150281701F928F938FE699E09F93DF
:1035E0008F930E94A9070F900F900F900F908091DA
:1035F000CE0180FF0FC08091150286951F928F9398
:1036000084E599E09F938F930E94A9070F900F90F4
:103610000F900F908091CE0180FF0EC08091160216
:103620001F928F938AE399E09F938F930E94A9073B
:103630000F900F900F900F908091CE0180FF0EC0E1
:10364000809117021F928F9380E299E09F938F934E
:103650000E94A9070F900F900F900F908091CE01BC
:1036600080FF0EC0809118021F928F9386E099E030
:103670009F938F930E94A9070F900F900F900F9028
:103680008091CE0180FF0EC0809119021F928F930E
:103690008AEE98E09F938F930E94A9070F900F9056
:1036A0000F900F9008958091150280FF02C08695BB
:1036B000089580E0089590911902933018F49F5F67
:1036C00090931902882351F06091150270911602AF
:1036D00080911702909118020C94B71A089581E016
:1036E0000C945B1B90911902992319F091509093BF
:1036F0001902882351F06091150270911602809191
:103700001702909118020C94B71A089581E00C9456
:10371000721B70E00C947B2230910601809115029F
:1037200080FF0CC08091050190E063E070E00E9492
:10373000192E632F865E9D4F0C94891B20910701E3
:1037400040910801241770F7822F90E063E070E049
:103750000E94192EFC01E65EFD4F1182108212823A
:103760002F5FF0CFA82FB62F8091150280FF16C0D3
:103770002091070130910801231770F4822F90E007
:1037800063E070E00E94192EFC01E65EFD4FA1830C
:10379000B08342832F5FF0CF0C948C1B0895CF939E
:1037A000DF9300D01F92CDB7DEB79091150290FF46
:1037B0000AC09E012F5F3F4F0E94921A4B81698180
:1037C0008A810E94B21B0F900F900F90DF91CF91D2
:1037D0000895CF93DF93EC01EC81F0E0E954F64FCC
:1037E0004491E5E1F2E0628181810E94CF1B8C81EE
:1037F0008F5F8C83DF91CF910895CF93DF93EC019E
:10380000E5E1F2E0438162818C810E94CF1B8C81D3
:103810008F5F8C83DF91CF9108950F931F93CF9388
:10382000DF9300D01F92CDB7DEB78C018091D3011A
:1038300081110AC09E012F5F3F4F4FEF6FEF0E9433
:10384000921A8A818093D301F8018481813051F0EA
:1038500028F0823061F44091D3010AC08091D301F5
:1038600040E007C06091D30140E080E003C040E049
:1038700080E060E00E94B21BF801848190E0019634
:1038800063E070E00E94632E84830F900F900F908E
:10389000DF91CF911F910F9108954F925F926F9298
:1038A0007F928F929F92AF92BF92CF92DF92EF92D0
:1038B000FF920F931F93CF93DF9300D01F92CDB74A
:1038C000DEB7182FD62E042F622E9091150290FF8E
:1038D000B3C0E92FE695AE2FB0E0AE5DBE4F8C9140
:1038E0008093DD019E7F923061F49E012F5F3F4FF8
:1038F000812F0E94921A4B8169818A810E94B21B9A
:1039000061C0823019F4009118025CC0863019F44D
:103910001091160257C08930D9F3893109F052C08D
:10392000E9512E2F2170722E81E0C22EC826E69515
:10393000F0E0E954F54FE590F490412CFF2485E444
:10394000A82E87E0B82E209109014216C8F5842CD4
:10395000912CC401B7010E94192E622F70E00E94C1
:103960004F2E512E711002C0560E01C0561A809172
:10397000CE0180FF11C0FF92EF921F92CF921F9253
:103980005F921F924F92BF92AF920E94A9070FB60B
:10399000F894DEBF0FBECDBF809107019401280FC0
:1039A000311DC90163E070E00E94192E9C01265E62
:1039B0003D4F402F6D2D852D0E94921A4394C3CF09
:1039C0000E948C1B10931602D092170200931802CB
:1039D0006620E9F06091150270911602809117023D
:1039E000909118020E94B71A8091CE0180FF24C0E6
:1039F000809118021F928F93809117021F928F93CC
:103A0000809116021F928F9380E297E00CC0809104
:103A1000CE0180FF11C01F920F931F92DF921F9261
:103A20001F9389EF96E09F938F930E94A9070FB68B
:103A3000F894DEBF0FBECDBF0F900F900F90DF91B7
:103A4000CF911F910F91FF90EF90DF90CF90BF909B
:103A5000AF909F908F907F906F905F904F90089560
:103A6000E5E1F2E09181282F4381628186E0890FB0
:103A70000C944D1C81E00C94301DE5E1F2E0918145
:103A8000282F438162818AEF890F0C944D1C81E0BD
:103A90000C943D1DE5E1F2E0628124E0620F08F440
:103AA0006FEF282F438181810C944D1C81E00C9491
:103AB0004A1DE5E1F2E0628124E0621B08F460E067
:103AC000282F438181810C944D1C81E00C94591D59
:103AD000E5E1F2E043812AE0420F08F44FEF282F9E
:103AE000628181810C944D1C81E00C94681DE5E19C
:103AF000F2E043812AE0421B08F440E0282F628173
:103B000081810C944D1C81E00C94771D20E00C9475
:103B10004D1CEF92FF921F93CF93DF93EC0110E0C7
:103B2000EE24EA94F12C30910901131700F520914D
:103B30000701812F90E0820F911D63E070E00E94E9
:103B4000192EFC01E65EFD4F632F70E0C7010E9455
:103B5000632E812F0E94102E9C819F01409118029C
:103B600060911702890F0E94921A1F5FDCCF0E949A
:103B70008C1B9A818C8190FF02C08F5F01C08150A5
:103B80008C83DF91CF911F91FF90EF900895BF92AA
:103B9000CF92DF92EF92FF920F931F93CF93DF9319
:103BA000FC01828180FF02C0DFEF01C0D1E0C0E0F4
:103BB00080910901C81708F040C080910701CC2E00
:103BC000D12C9601280F311DC90163E070E00E94DD
:103BD000192E865E9D4F7C01FC011182108212829B
:103BE00004E010E0B12C8091D5018B0D853014F0EC
:103BF000837005C087FF03C090910901890F082ECB
:103C0000000C990BC816D90691F48091180290E027
:103C1000B8010E94192E95958795959587959701DE
:103C2000482F60911702809116020E94921ABD0ED1
:103C300001501109C1F6CF5FBBCF0E948C1B809150
:103C4000D501D13031F4811102C080910901815038
:103C500007C090E001966091090170E00E94632E18
:103C60008093D501DF91CF911F910F91FF90EF903D
:103C7000DF90CF90BF900895CF93209107013091AE
:103C80000801231770F4822F90E063E070E00E9437
:103C9000192EFC01E65EFD4F1182108212822F5F09
:103CA000F0CFC0E060910901C61790F5EC2FF0E06D
:103CB00070E0CF010E94632E90910701890F20913F
:103CC000D401022E000C330B90E063E070E00E9400
:103CD000192EE217F307A4F020910401022E000C24
:103CE000330B2E173F0764F09C01265E3D4F409139
:103CF000180260911702809116020E94921A06C063
:103D0000FC01E65EFD4F118210821282CF5FCACFA6
:103D10000E948C1B209103018091D401820F80931B
:103D2000D40190910401920F9093040119165CF450
:103D3000082E000C990B4091090150E041505109A7
:103D4000841795071CF0219520930301CF910895C6
:103D50004F925F926F927F928F929F92AF92BF929B
:103D6000CF92DF92EF92FF920F931F93CF93DF9347
:103D70008C01FC01C481CC2ED12CE12CF12CA701AB
:103D80009601C701B6010E942A2EA70196010E9442
:103D90002A2E4B015C0180E290E06C01CC1AD10824
:103DA0000D2C000CEE08FF0825E530E040E050E067
:103DB000C501B4010E942A2E2B013C01A7019601E6
:103DC000C701B6010E942A2EA70196010E942A2E41
:103DD0009B01AC01280D391D4A1D5B1DC301B201B9
:103DE0000E94772ED22F822F90E02A3230F025E5E4
:103DF00030E0A901481B590BCA0163E070E00E9442
:103E0000192E97FD019695958795C82FC095F12C91
:103E100085E5E82EED1A80910901F816D0F4F1FC41
:103E200002C0EE2D01C0ED2F209107018F2D90E0F3
:103E3000820F911D63E070E00E94192E9C01265EA6
:103E40003D4F4C2F609117028E2F0E94921AF394CF
:103E5000E2CF0E948C1BF8018481811102C091E0A5
:103E600003C0803219F49FEF9093020190910201F8
:103E7000890FF8018483DF91CF911F910F91FF90FB
:103E8000EF90DF90CF90BF90AF909F908F907F90FA
:103E90006F905F904F9008950F931F93CF93DF9390
:103EA000EC0100E010E040910901842F90E0081738
:103EB00019072CF5809107019801280F311DC901C0
:103EC00063E070E00E94192E9C01265E3D4F4695EE
:103ED00050E08C81041715071CF4882331F002C0D0
:103EE000811103C04091180201C040E060911702A7
:103EF000809116020E94921A0F5F1F4FD4CF0E942A
:103F00008C1B8C8190E00196817099278C83DF91C6
:103F1000CF911F910F91089560911502669570E001
:103F20004BE050E08AE091E00E949F2E892B19F42B
:103F300081E08093DE010E94C3269093D701809395
:103F4000D6018091CE0180FF08C080EE96E09F935D
:103F50008F930E94A9070F900F9008951092DE0191
:103F60008091CE0180FF08C087EC96E09F938F93ED
:103F70000E94A9070F900F9008959091150290FF4D
:103F800054C09170811102C0926006C0853210F059
:103F9000986402C0880F982B909315026623B1F0A5
:103FA000609115027091160280911702909118028B
:103FB0000E94B71A8091CE0180FF1BC0809115022C
:103FC00086951F928F9380E398E00BC08091CE017D
:103FD00080FF0FC08091150286951F928F9382E11A
:103FE00098E09F938F930E94A9070F900F900F90D6
:103FF0000F9060911502669570E04BE050E08AE00A
:1040000091E00E949F2E892B19F00E94AE1F02C0E2
:104010000E948C1F81E08093D90140911802609129
:104020001702809116020C94861D0895682F9091B6
:104030001502969581E0890F853208F081E00C9495
:10404000BD1F81E00C941620682F90911502969563
:104050008FEF890F09F484E20C94BD1F81E00C946A
:10406000242061E00C94BD1F809115028160809333
:1040700015028091CE0180FF0DC01F9281E08F93C9
:1040800084EA97E09F938F930E94A9070F900F9067
:104090000F900F908091150286950C94312060E06E
:1040A0000C94BD1F8091DC01811160C08091CE0114
:1040B00080FF08C083ED98E09F938F930E94A9072B
:1040C0000F900F908091CE0180FF08C08DEB98E09B
:1040D0009F938F930E94A9070F900F900E94251322
:1040E000811110C08091CE0180FF08C085E998E061
:1040F0009F938F930E94A9070F900F900E94CD135A
:104100000E94C91A0E94B31A609315027093160296
:1041100080931702909318026E7FC1F48091CE01B4
:1041200080FF08C08CE498E09F938F930E94A907BA
:104130000F900F900E94C91A0E94B31A6093150243
:104140007093160280931702909318020E94A01A8F
:104150000E94D81A1092DE018091150280FF03C0E0
:1041600086950E944F2081E08093DC010895809124
:1041700015028E7F809315026091150270911602D0
:1041800080911702909118020E94B71A8091CE0177
:1041900080FF0FC08091150281701F928F938CE673
:1041A00097E09F938F930E94A9070F900F900F9015
:1041B0000F900E94AE1F2FEF80E792E021508040C9
:1041C0009040E1F700C000000C948C1B8091CE0160
:1041D00080FF10C080911502809581701F928F938F
:1041E0008BED97E09F938F930E94A9070F900F90FC
:1041F0000F900F908091150280FD0C94B7200C94C5
:1042000034200F931F93CF93DF938091DE01882397
:1042100009F485C08091DD01E0911502E695E81B67
:10422000E093D801823049F4F0E0ED54F64FE49188
:10423000CE2FD0E009EE1BE149C0863049F4F0E012
:10424000E055F64FE491CE2FD0E00DEF1BE13EC0DC
:10425000893051F4E695F0E0E355F64FE491CE2F26
:10426000D0E009E81DE132C08F3051F4E695F0E06E
:10427000E655F64FE491CE2FD0E007EC1DE126C0C5
:10428000853149F4F0E0E955F64FE491CE2FD0E0C6
:104290000CE31EE11BC0883181F0833239F4E5EA7A
:1042A000F9E0C591D4910DE01CE110C0843251F4C5
:1042B000C4EFD1E00CE41FE109C0C8E2D0E008EA95
:1042C0001EE104C0C0EDD7E00EE81AE18091D901EB
:1042D000882361F01092D9010E94C3269093D701E0
:1042E0008093D6011092DB011092DA010E94C3265E
:1042F000E091D601F091D7018E1B9F0B8F3F9F4716
:1043000070F4EC0FFD1FF093D701E093D60186ED1A
:1043100091E0F801DF91CF911F910F910994DF9106
:10432000CF911F910F910895882311F0FA0101C0D8
:10433000FB010994CF93DF93C82FD62F0E94531B04
:104340008C1740F00E94531B8D1720F4DF91CF9102
:104350000C9421208C2FDF91CF910C9431201F934E
:10436000CF93DF93FB011281112309F4BCC0EC0150
:104370000E9466128272CD3CFCE5DF0709F497C00B
:1043800008F043C0C73CECE5DE0709F47CC0D8F474
:10439000C43C9CE5D90709F46AC038F4C33CDC4549
:1043A00009F0A4C00E94E620A0C0C53C9CE5D90746
:1043B00009F462C0C63CDC4509F098C047E45DE101
:1043C0006AE37DE15DC0CA3CFCE5DF0709F465C036
:1043D00070F4C83CECE5DE0709F45AC0C93CDC4582
:1043E00009F084C046E55DE165E67DE149C0CB3C6E
:1043F0009CE5D90709F456C0CC3CDC4509F076C0F1
:1044000046E85BE16FE67BE13BC0C23DFCE5DF07D0
:1044100009F45AC098F4CF3C9CE5D90709F44EC082
:1044200008F44AC0C03DFCE5DF0709F44AC0C13DBD
:10443000DC4509F05BC06EE089E04EC0C53D9CE5FF
:10444000D90709F447C050F4C33DFCE5DF07F9F193
:10445000C43DDC4509F04AC088E142C0C63D9CE548
:10446000D907E9F1CE35DD4509F43FC03FC04EE242
:1044700050E261E270E204C041E250E26EE270E2BA
:104480000E94942132C04AE35DE167E47DE1F8CF08
:1044900045E65DE166E57DE1F3CF43E85DE164E794
:1044A0007DE1EECF44E75DE163E87DE1E9CF4FE6F2
:1044B0005BE166E87BE1E4CF81E012C065E082E089
:1044C0000BC068E086E008C064E18FE005C067E1EA
:1044D00085E102C062E289E10E949A2106C083E27E
:1044E0000E94312002C011E001C010E0812FDF9155
:1044F000CF911F910895239A25B1277F35B1386058
:104500004FB7F894FC01CB0163E070E00E94192ED4
:104510008E0F9F1FE817F90789F0519168E035B9B0
:10452000000000C057FF25B9550F000000C000C0B3
:1045300000C025B900C06A9591F7ECCF4FBF8FE559
:1045400094E00197F1F700C0000008950F931F93C6
:10455000CF93DF93C42FD22FFC0182818823C9F02F
:104560004093E1010E94C3269093E0018093DF0114
:1045700080E28C0F883008F057C0C77081E001C01E
:10458000880FCA95EAF7DF91CF911F910F910C9494
:10459000130A8091E101481330C08091DF019091AE
:1045A000E0010E94DB26883C910538F510E21D0FE2
:1045B000CD17B9F080E28C0F883040F4C77081E0ED
:1045C00001C0880FCA95EAF70E941A0A183028F528
:1045D00081E09D2F977001C0880F9A95EAF70E949D
:1045E000130A802F0E940A0A1830F0F4D77081E075
:1045F00001C0880FDA95EAF70AC080E28C0F883094
:1046000098F4C77081E001C0880FCA95EAF7DF917E
:10461000CF911F910F910C941A0A802FDF91CF91A7
:104620001F910F910C940A0ADF91CF911F910F9166
:1046300008950F939C01CB01243F4CE5340731F1E1
:1046400088F4293DFCE53F07D9F02A3D4CE53407C5
:1046500079F1283D3C45A9F506E221EE41EE68EDF1
:104660007CE52BC0263FFCE53F07E1F0A8F0273FA3
:104670003C4539F507E225EE46EE67EF7CE51DC0C7
:1046800007E225EE45EE69ED7CE517C006E221EE76
:1046900040EE64EF7CE511C007E225EE44EE65EFE5
:1046A0007CE50BC006E221EE42EE66EF7CE505C03C
:1046B00008E221E045EE6AED7CE50E94A62280E05A
:1046C00008C0FC018281882319F01092E10101C029
:1046D00081E00F910895CF93DF93EC01FB0182817C
:1046E000882309F41FC1C230FCE5DF0708F41BC1B1
:1046F000C6319CE5D90738F09E012B5F3C45293037
:10470000310508F010C10E94381390931002809375
:104710000F02C031ECE5DE0709F4C3C008F041C068
:10472000C8308CE5D80709F49AC0F0F4C430ECE541
:10473000DE0709F487C068F4C2308CE5D80709F4B5
:1047400077C0C330DC4509F0E3C080910F0282607E
:1047500076C0C630ECE5DE0709F46EC008F07BC019
:1047600080910F0288606BC0CC308CE5D80709F4CB
:1047700085C068F4CA30ECE5DE0709F474C008F0BF
:1047800079C00E946B0C80910F02806858C0CE30B7
:104790008CE5D80709F476C008F07FC080910F023D
:1047A0008BC0CC3FECE5DE0709F44FC018F5C331F0
:1047B0008CE5D80709F47DC078F4C131ECE5DE075B
:1047C00009F473C0C231DC4509F0A2C00E946B0C31
:1047D00080910F028F7733C0C5318CE5D80709F47B
:1047E00072C008F486C0CB3FDC4509F091C08091CF
:1047F00010023EC0C115FDE5DF0709F45FC058F4A3
:10480000CE3F9CE5D90709F444C008F43FC080912D
:10481000100282602DC0C230FDE5DF0709F475C0CB
:1048200008F45DC0C330DD4509F072C080E06EC0A1
:1048300080910F02816003C080910F02806180939C
:104840000F0266C080910F0211C080911002826039
:10485000809310025DC080910F028062F0CF809142
:104860000F028064ECCF80910F0288608460E7CFF4
:104870008160EECF80910F028E7FE1CF80910F0299
:104880008D7FDDCF80910F02877FD9CF809110027D
:1048900018C0809110028D7FDBCF80910F028F7E38
:1048A000CECF80910F028F7DCACF80910F028F7B78
:1048B000C6CF80910F02877F8B7FC1CF809110027E
:1048C0008D7F8E7FC5CF80910F0282FB222720F93A
:1048D00091E0922790FB82F990FB83F9B0CF809111
:1048E0001002982F909591708E7F892B90FB81F903
:1048F000AFCF0E946B0C80910F0287FB222720F91B
:1049000091E0922790FB87F99ACF81E00E94CF1324
:1049100080910F02909110020E9449130E946B0C2B
:1049200080E001C081E0DF91CF910895CF93DF93C4
:1049300086319C4541F5EB010E946612982F8A81D1
:104940002091000130910101882379F09A7A81E069
:1049500009F480E08093E201911102C069E201C094
:1049600065E3C9010E9411260AC08091E20181110C
:1049700002C069E201C065E3C9010E941C260E94D1
:10498000B81280E001C081E0DF91CF91089590934B
:10499000E8018093E7010895E091E701F091E801D3
:1049A000309721F00190F081E02D099480E0089586
:1049B000EF92FF921F93CF93DF93FC01A091E70149
:1049C000B091E801109709F442C080911F0188233B
:1049D00041F080910F0287FF04C08081818385E0D0
:1049E0008083EF011296ED91FC911397CE0109950A
:1049F0008091CE0182FF2BC080FF04C084EC9BE03D
:104A00000E94100718E08EEBE82E8BE0F82E8091C4
:104A1000CE0180FF0BC088811F928F93FF92EF928F
:104A20000E94A9070F900F900F900F9011502196A0
:104A30001111EDCF8091CE0180FF09C08CEB9BE07E
:104A4000DF91CF911F91FF90EF900C941007DF91B1
:104A5000CF911F91FF90EF9008952091E501309143
:104A6000E6012817390771F09093E6018093E5017C
:104A7000E091E701F091E801309721F00680F7819D
:104A8000E02D099408952091E3013091E401281765
:104A9000390771F09093E4018093E301E091E7011D
:104AA000F091E801309721F00084F185E02D099420
:104AB0000895FC01329680911F01882331F0809186
:104AC0000F0287FF02C09EE101C096E080E0915096
:104AD00028F021912223D9F38F5FF9CF089566231F
:104AE00051F120911F012223E9F020910F0227FFAD
:104AF00019C0462F4695469546954E31E0F46770AD
:104B000021E030E002C0220F331F6A95E2F7FC017A
:104B1000E40FF11D828190E02823392381E0232BCB
:104B200069F409C0FC01329608962191621729F0B8
:104B3000E817F907D1F780E0089581E008959C0116
:104B4000FC0132969FEF80E04191461789F09F3F2C
:104B500019F4411101C0982F8F5F8630A9F79F3F4C
:104B600039F0F901E90FF11D97FDFA956283089577
:104B700008959C012A5F3F4FFC014281461301C00A
:104B80001282019682179307B9F70895262F26956A
:104B9000269526952E3170F4FC01E20FF11D677009
:104BA00021E030E001C0220F6A95EAF78281282BCC
:104BB000228308958091CE0180FF0CC01F926F93D5
:104BC00084EF9BE09F938F930E94A9070F900F9013
:104BD0000F900F900895262F2695269526952E3115
:104BE00078F4FC01E20FF11D677021E030E001C0B4
:104BF000220F6A95EAF7209582812823228308955F
:104C00008091CE0180FF0CC01F926F9386ED9BE0D8
:104C10009F938F930E94A9070F900F900F900F9072
:104C2000089520911F01222329F020910F0227FDD2
:104C30000C94C6250C949F2520911F01222329F056
:104C400020910F0227FD0C94EB250C94B92520919F
:104C50001F01FC013296222331F080910F0287FF61
:104C600002C08EE101C086E0DF011D928A95E9F75E
:104C70000895089508950C943A260C943A260E94BB
:104C80003D260E94C6170E943B2680E00E94EB163C
:104C9000811108C081E00E94EB1691E0811103C0F0
:104CA00090E001C091E0892F08950C943A260C946D
:104CB000552680912E02843049F10E94572680E0CB
:104CC0000E94AE081092E90120E488E190E00FB65E
:104CD000F894A895809360000FBE2093600083B77E
:104CE000817F846083BF83B7816083BF7894889518
:104CF00083B78E7F83BF0FB6F894A895809160002C
:104D0000886180936000109260000FBE08950C943B
:104D10003A260E946B0C0E94CC240E94AE080C9490
:104D200087261F920F920FB60F9211248F939F9395
:104D3000AF93BF938091E901811113C08091260246
:104D400090912702A0912802B09129024196A11DBD
:104D5000B11D8093260290932702A0932802B0935E
:104D60002902BF91AF919F918F910F900FBE0F902D
:104D70001F90189582E084BD93E095BD9AEF97BD92
:104D800080936E0008952FB7F89480912602909139
:104D90002702A0912802B09129022FBF08952FB7B2
:104DA000F8946091260270912702809128029091D8
:104DB00029022FBF08959C014FB7F89480912602D5
:104DC00090912702A0912802B09129024FBF821B27
:104DD000930B089578941F920F920FB60F9211249F
:104DE0008F939F93AF93BF93809126029091270258
:104DF000A0912802B09129020196A11DB11D8093B6
:104E0000260290932702A0932802B0932902BF9113
:104E1000AF919F918F910F900FBE0F901F9018959B
:104E200081E08093E00080E28093D8001092C90076
:104E30008FE19EE40197F1F700C0000087E090EB5E
:104E4000DC018093370290933802A0933902B0932B
:104E50003A029CE088E10FB6F894A8958093600030
:104E60000FBE90936000FFCF90935701809356013F
:104E7000089580910D0208950895CF93DF932091B6
:104E80001F01222339F020910F0227FF03C060E2A7
:104E900022E002C068E021E02093E9002FEF30918A
:104EA000E800215035FD06C035ED3A95F1F70000D8
:104EB0002111F5CF2091E80025FF1DC0EC01809164
:104EC0001F01811105C040E050E068E070E003C0C0
:104ED00070E040E050E0CE010E94B4298091E800EB
:104EE0008E778093E80080E2FE01ADEEB1E00190A4
:104EF0000D928A95E1F7DF91CF9108950895089575
:104F00008FE29CE00C9410078BE29CE00C9410075D
:104F100087E29CE00C9410072091EB012F5F822F19
:104F200062E30E94432E992319F02093EB01089528
:104F30001092EB018091EC01882371F180912E0297
:104F4000843041F58091E9008F702091EC00922F20
:104F5000917020FD90E8892B93E09093E900909167
:104F6000EB0090FF14C09091EE0097FF10C090915D
:104F7000E80095FF03C01092F100F9CF9091E8008E
:104F800090FF05C09091E8009E779093E8008F70A5
:104F90008093E9001092EC01089542E061EC81E019
:104FA0000E94B82A42E261EC82E00E94B82A42E202
:104FB00061EC83E00C94B82A80913002833009F4CC
:104FC0005CC030F4813071F0823009F495C00895EE
:104FD0008A3009F481C08B3009F467C0893009F048
:104FE000A3C020C080912F02813A09F09DC080911A
:104FF000E800877F8093E80080913302909134022B
:10500000892B21F460E28DEE91E003C060E080E046
:1050100090E070E00E94FF298091E8008B778093F8
:10502000E800089580912F02813209F07DC08091BF
:10503000330290913402029708F076C08091E80024
:10504000877F8093E8008091E80082FD05C0809111
:105050002E028111F8CF68C08091F200823029F4CD
:105060008091F1008B7F813021F48091F100809359
:105070000D028091E8008B7753C080912F02813A16
:1050800009F052C08091330290913402892B09F0CB
:105090004BC08091E800877F8093E8008091E80012
:1050A00080FFFCCF80911F0136C080912F0281329A
:1050B000D9F58091330290913402892BA9F5809122
:1050C000E800877F8093E8000E94ED2A80913102FA
:1050D00080931F010C946B0C80912F02813221F57B
:1050E0008091E800877F8093E8000E94ED2A8091FC
:1050F000320280930E02089580912F02813AA1F42A
:105100008091E800877F8093E8008091E80080FF2D
:10511000FCCF80910E028093F1008091E8008E77A1
:105120008093E8000C94ED2A08959FB7F8941092AC
:10513000EC019FBF90912E02943009F057C09091DE
:10514000E9009F703091EC00232F217030FD20E8A2
:10515000922B23E02093E9002091EB0020FF43C035
:105160002091EE0027FF3FC02091EA01222321F089
:105170002091E80025FF37C01092EA0126E0309127
:10518000E80035FD15C030912E02343061F53091C4
:10519000EB0035FD28C0215021F481E08093EA0125
:1051A00022C0EFE9FFE03197F1F700C00000E7CF40
:1051B0008093F1008091E80085FD0AC08091E800AD
:1051C00080FFFCCF8091E8008E778093E80006C0D6
:1051D0008FB7F89421E02093EC018FBF9F709093DC
:1051E000E90080E008959F709093E9008FEF0895A3
:1051F00084B7877F84BF0FB6F894A895809160002C
:10520000886180936000109260000FBE90E080E89B
:105210000FB6F89480936100909361000FBE0C94D8
:10522000F8130E943F2B0E94922BE2EEF0E0808167
:105230008460808378940E94F52D0E94041485E197
:1052400091E00E94C72486E19CE00C9410078091B5
:105250002E028530C9F482E19CE00E941007809103
:105260002E02853079F40E94592680912C028823E1
:10527000B1F30E943F26882391F30E949E290E9449
:105280006B0CEDCF0E9489260C943F140C94482996
:10529000292F332723303105C9F060F4213031053F
:1052A00081F02230310509F041C08BE590E02BE61A
:1052B0003CE040C021323105E1F02232310531F1CC
:1052C00035C082E190E026EC3CE034C09927813083
:1052D000910549F028F0029749F5E3E3FCE005C0A9
:1052E000E7E6FCE002C0EDE4FCE0849190E09F0181
:1052F00021C063307105D0F4660F771FFB01E05BBE
:10530000FE4F2081318189E090E014C06330710547
:1053100068F4FB01EE0FFF1FE65BFE4F2081318139
:10532000FB01E95BFE4F808190E004C080E090E0EB
:1053300020E030E0FA0131832083089584E089BDC4
:1053400086E089BD09B400FEFDCF8091D8008F7D35
:105350008093D8008091E00082608093E00080918B
:10536000E00081FDFCCF0895CF92DF92EF92FF9293
:105370000F931F93CF93DF93EC018B017A010E946F
:105380000C2B811133C0E114F10439F0F701808155
:105390009181081B190BC80FD91FC12CD12C0115E5
:1053A000110519F18091E80085FD16C08091E80093
:1053B0008E778093E800E114F10449F0F7018081D1
:1053C0009181C80ED91ED182C08285E00FC00E9493
:1053D0000C2B882321F30AC089918093F10001509E
:1053E0001109FFEFCF1ADF0ADACF80E0DF91CF910A
:1053F0001F910F91FF90EF90DF90CF900895209133
:105400003502309136022617370748F061157105CD
:1054100039F42091E8002E772093E80001C0B9010B
:10542000FC0120E06115710561F180912E02882355
:10543000D9F18530D9F18091E80083FD39C08091A0
:10544000E80082FD2BC08091E80080FFEBCF8091C7
:10545000F20090E06115710551F08830910538F443
:1054600021912093F100615071090196F3CF21E061
:10547000089709F020E08091E8008E778093E8009B
:10548000D1CF2111D2CF0AC080912E02882361F0A2
:10549000853061F08091E80083FD0AC08091E800CA
:1054A00082FFF2CF80E0089582E0089583E00895BE
:1054B00081E0089520913502309136022617370792
:1054C00048F06115710539F42091E8002E7720939A
:1054D000E80001C0B901FC0120E06115710579F116
:1054E00080912E02882309F43DC0853009F43CC028
:1054F0008091E80083FD3AC08091E80082FD2CC0D5
:105500008091E80080FFE9CF8091F20090E0611582
:10551000710559F08830910540F424912093F100F1
:105520003196615071090196F2CF21E0089709F098
:1055300020E08091E8008E778093E800CECF2111A3
:10554000CFCF0AC080912E02882361F0853061F0B0
:105550008091E80083FD0AC08091E80082FFF2CFCD
:1055600080E0089582E0089583E0089581E0089541
:10557000982F953068F59093E900981739F070915D
:10558000EC002091ED005091F00003C0242F762F05
:1055900050E021FD02C09F5FECCF3091EB003E7FD9
:1055A0003093EB003091ED003D7F3093ED00309172
:1055B000EB0031603093EB007093EC002093ED0032
:1055C0005093F0002091EE0027FDE5CF80E0089594
:1055D0008F708093E90081E0089580912F0287FF0A
:1055E00011C08091E80082FD05C080912E028111DA
:1055F000F8CF11C08091E8008B770BC080912E020C
:10560000882349F08091E80080FFF8CF8091E8007E
:105610008E778093E80008952091E4003091E500B2
:1056200095E64091EC00842F817040FF23C080916B
:10563000E80080FD1DC080912E02882399F08530FE
:1056400099F08091EB0085FD11C04091E4005091EC
:10565000E5002417350729F3915011F09A01E1CFA5
:1056600084E0089582E0089583E0089581E008953C
:1056700080E008954091E80042FFDDCF08950E9448
:105680009C2B0E949F2BE0EEF0E080818160808364
:10569000E8EDF0E080818F77808319BCE3E6F0E0ED
:1056A00080818160808310922D0208950E949C2B3E
:1056B0000E949F2B8091D8008F778093D800809193
:1056C000D80080688093D8008091D8008F7D809327
:1056D000D80084E089BD86E089BD09B400FEFDCF15
:1056E00010922E0210922A0210922C0210922B027B
:1056F00042E060E080E00E94B82A8091E1008E7F65
:105700008093E1008091E20081608093E2008091CB
:10571000E20088608093E2008091E0008E7F8093B9
:10572000E0000895E3E6F0E080818E7F808381E0F1
:1057300080932D020C94562B1092E2000895109243
:10574000E10008951F920F920FB60F9211242F932C
:105750003F934F935F936F937F938F939F93AF93F9
:10576000BF93EF93FF938091E10082FF0BC0809184
:10577000E20082FF07C08091E1008B7F8093E1000F
:105780000E948C278091E10080FF19C08091E20087
:1057900080FF15C08091E2008E7F8093E2008091AF
:1057A000E20080618093E2008091D8008062809363
:1057B000D80019BC85E080932E020E948427809136
:1057C000E10084FF30C08091E20084FF2CC084E0BF
:1057D00089BD86E089BD09B400FEFDCF8091D80067
:1057E0008F7D8093D8008091E1008F7E8093E100CF
:1057F0008091E2008F7E8093E2008091E2008160E0
:105800008093E20080912A02882311F084E007C08F
:105810008091E30087FD02C081E001C083E08093B6
:105820002E020E9488278091E10083FF29C0809189
:10583000E20083FF25C08091E100877F8093E10033
:1058400082E080932E0210922A028091E1008E7FE6
:105850008093E1008091E2008E7F8093E20080914E
:10586000E20080618093E20042E060E080E00E941C
:10587000B82A8091F00088608093F0000E94802711
:10588000FF91EF91BF91AF919F918F917F916F9118
:105890005F914F913F912F910F900FBE0F901F90EE
:1058A00018951F920F920FB60F9211242F933F93CA
:1058B0004F935F936F937F938F939F93AF93BF9318
:1058C000CF93DF93EF93FF93C091E900CF70809166
:1058D000EC00D82FD17080FDD0E81092E9008091C3
:1058E000F000877F8093F00078940E94952C1092AE
:1058F000E9008091F00088608093F000CD2BCF709C
:10590000C093E900FF91EF91DF91CF91BF91AF91EB
:105910009F918F917F916F915F914F913F912F91C7
:105920000F900FBE0F901F9018951F93CF93DF938A
:10593000CDB7DEB7AA970FB6F894DEBF0FBECDBFC6
:10594000EFE2F2E08091F100819322E0E733F20789
:10595000C9F70E94DC278091E80083FF2EC1809167
:105960002F0290913002492F50E04A30510508F043
:1059700024C1FA01E956FF4F0C94992E803821F08A
:10598000823809F01AC108C080912B0290912C0234
:10599000992389F082600FC0809133028F70853027
:1059A00008F00BC18093E9008091EB0085FB88270C
:1059B00080F91092E9009091E800977F9093E800B9
:1059C0008093F1001092F100D1C0282F2D7F09F0B3
:1059D000F4C0882319F0823061F0EFC08091310269
:1059E000813009F0EAC0933009F080E080932C0206
:1059F0002EC08091310281112AC0809133028F70B4
:105A00002FEF280F243008F0D8C08093E9002091B0
:105A1000EB0020FF1CC0933021F48091EB008062EA
:105A200014C09091EB0090619093EB0021E030E086
:105A3000A90102C0440F551F8A95E2F74093EA007E
:105A40001092EA008091EB0088608093EB00109246
:105A5000E9008091E800877F8093E8000E94ED2AAA
:105A6000ACC08111AAC0109131021F778091E30070
:105A70008078812B8093E3008091E800877F80937A
:105A8000E8000E94ED2A8091E80080FFFCCF809121
:105A9000E30080688093E300111102C082E001C03E
:105AA00083E080932E0289C08058823008F085C040
:105AB00080913102909132028C3D53E0950779F547
:105AC00083E08A838AE289834FB7F894DE011396D4
:105AD00020E03EE051E2E32FF0E050935700E491E4
