:100000000C9449020C9490020C9490020C9490026F
:100010000C9490020C9490020C9490020C94900218
:100020000C9490020C9490020C9442240C9414258D
:100030000C94841F0C9490020C9490020C949002E7
:100040000C9490020C94E41A0C9490020C9490027C
:100050000C94081B0C94DD1F0C9490020C949002DD
:100060000C9490020C9490020C9490020C949002C8
:100070000C9490020C9490020C9490020C949002B8
:100080000C9490020C9490020C9490020C949002A8
:100090000C9490020C9490020C9490020C94900298
:1000A0000C9490020C9490020C949002320532054C
:1000B00064056405B105D806D806D806CF056806DC
:1000C0007906790674077407860786077D07860711
:1000D00086078607740774078207860786078207E4
:1000E0008125A825A026A825A026F4251726A02628
:1000F0006E267D2629002B0001512A005300540052
:10010000550056005F006000610057005C005D0014
:100110005E00000059005A005B00580062000000B9
:1001200063000000C35C010001000100C45CCE5C00
:10013000C05C0100C75CC65CBC5C0100C95CC85CFB
:10014000BD5C0000CB5CCA5CC15C0100010000002A
:10015000005C000000047F3F1F6432146432147896
:100160003C1E1E140A052223252628292A2C2D2F61
:100170003032333536383A3B3D3E404243454749BD
:100180004A4C4E5051535557595A5C5E60626466F2
:1001900068696B6D6F71737577797B7D7F818385FE
:1001A00087898A8C8E90929496989A9C9E9FA1A300
:1001B000A5A7A8AAACAEAFB1B3B4B6B8B9BBBCBE24
:1001C000BFC1C2C3C5C6C7C9CACBCCCDCED0D1D2A0
:1001D000D2D3D4D5D6D7D7D8D9D9DADADBDBDBDCA2
:1001E000DCDCDCDCDDDDDDDDDCDCDCDCDCDBDBDB4E
:1001F000DADAD9D9D8D7D7D6D5D4D3D2D2D1D0CEAE
:10020000CDCCCBCAC9C7C6C5C3C2C1BFBEBCBBB9B2
:10021000B8B6B4B3B1AFAEACAAA8A7A5A3A19F9E30
:100220009C9A98969492908E8C8A89878583817FF8
:100230007D7B79777573716F6D6B696866646260D9
:100240005E5C5A5957555351504E4C4A49474543A5
:1002500042403E3D3B3A3836353332302F2D2C2A42
:10026000292826252322FFAA7F55400001010101EC
:100270000101010101020202020202020202030361
:100280000303030303030404040404040405050531
:1002900005050606060606070707070708080808F3
:1002A000090909090A0A0A0B0B0B0C0C0C0D0D0DA0
:1002B0000E0E0E0F0F0F1010111111121213131436
:1002C00014151516161717181819191A1A1B1B1CAE
:1002D0001D1D1E1E1F202021222223242425262608
:1002E000272829292A2B2C2D2D2E2F30313232333D
:1002F0003435363738393A3B3C3D3E3F4041424346
:100300004445464748494A4C4D4E4F505153545529
:100310005658595A5B5D5E5F616264656668696BD9
:100320006C6D6F7072737577787A7B7D7E80828357
:100330008587888A8C8E8F91939596989A9C9EA09B
:10034000A2A3A5A7A9ABADAFB1B3B5B7BABCBEC0A8
:10035000C2C4C6C9CBCDCFD1D4D6D8DBDDDFE2E471
:10036000E7E9EBEEF0F3F5F8FAFDFF0E0343006F5B
:10037000007300700061006400000016034B005021
:1003800000720065007000750062006C0069006317
:100390000000000403090409023B00020100A0FA66
:1003A00009040000010301010009211101000122DB
:1003B00040000705810308000A0904010001030049
:1003C0000000092111010001226D000705820320B0
:1003D000000A12010002000000085C4BE5B10100B8
:1003E0000102000105010980A101850319012AB755
:1003F00000150126B700950175108100C0050C0994
:1004000001A101850419012AA002150126A0029567
:100410000175108100C005010906A10185050507C8
:1004200019E029E7150025019508750181020507E6
:10043000190029EF1500250195F0750181020508C5
:100440001901290595057501910295017503910121
:10045000C005010906A101050719E029E7150025D6
:10046000019508750181029501750881010507193B
:100470000029FF150026FF00950675088100050874
:1004800019012905950575019102950175039101E1
:10049000C00011241FBECFEFDAE0DEBFCDBF04B62F
:1004A00003FE27C08091AB029091AC02A091AD02F7
:1004B000B091AE028730904BA740B04BD1F4109270
:1004C000AB021092AC021092AD021092AE0214BEBA
:1004D00084B7877F84BF0FB6F894A8958091600099
:1004E000886180936000109260000FBEE0E0F8E346
:1004F000099511E0A0E0B1E0E2E9FFE402C0059057
:100500000D92A23BB107D9F722E0A2EBB1E001C006
:100510001D92AB3AB207E1F70E948A120C94C727EA
:100520000C94000081E0089581E008950C949402F9
:1005300008950C9498021F93CF93DF9300D000D0BE
:100540001F92CDB7DEB749835A836B833091B401D4
:1005500089819A81311114C0662359F0222349F010
:100560000E941609182F682F89819A810E94C1085C
:1005700003C00E94EB08182F69817A81812F04C083
:100580000E94160969817A810F900F900F900F9049
:100590000F90DF91CF911F910C941310FC01262F27
:1005A000408151816281738184810C949B0281E03E
:1005B0000895CF93DF93EC0160E00E94CE02BE016C
:1005C000DF91CF910C9499020E941D110E9470033B
:1005D0000E94B31B0C9457110C94531108950E9460
:1005E00062070E94EE022FEF84E39CE021508040DE
:1005F0009040E1F700C000000C9403200F931F937C
:10060000CF93DF938C0161E00E94CE02EC01B80130
:100610000E949602882309F44BC0B801CE010E94C3
:10062000AD1A882309F444C0B801CE010E94611CB0
:100630008823F1F1B801CE010E94B31C8823C1F1D7
:10064000B801CE010E94DE1D882391F1B801CE01D0
:100650000E94F418882361F1F8018281882309F14E
:10066000CB358DE5D807C1F050F4C115FCE5DF07A7
:1006700081F0CF3DDC45A9F40E94270E19C0CC358E
:10068000EDE5DE0761F0CD35DD4559F40E94B80C8B
:1006900008C00E94EF020CC00E94C10C02C00E9460
:1006A000C40CC801DF91CF911F910F910C9492025D
:1006B00080E0DF91CF911F910F91089508950C94E0
:1006C0005E0381E00895CF93C82F0E9461038823C1
:1006D00029F0C0FD02C02A9A01C02A98CF9108953E
:1006E000229A2A9A0895CF93C82F0E945F038C2FD5
:1006F0000E946303CF910895CF93DF93CDB7DEB708
:100700002B970FB6F894DEBF0FBECDBF4F8358872F
:1007100069877A878B8761110E94E70C9E012F5FA2
:100720003F4F86E0F90111928A95E9F785E0FE01D5
:100730003796D90101900D928A95E1F789819A81C6
:100740004C815D81452B31F09F3F31F491E08F3F2B
:1007500019F403C091E001C090E090FF09C0498105
:100760005A816B817C818D819E810E94E70B05C03F
:10077000C9010E94D7028111F2CF2B960FB6F894CF
:10078000DEBF0FBECDBFDF91CF910895FC01808108
:1007900091810E9458090895CF93882309F49CC041
:1007A000C82F8238C1F40E94141E81FD95C069E3F0
:1007B00080910001909101010E94FC1E0E940C0D8D
:1007C0002FEF81EE94E0215080409040E1F700C08F
:1007D000000069E319C0833801F50E94141E80FDF2
:1007E0007BC063E580910001909101010E94FC1E95
:1007F0000E940C0D2FEF81EE94E02150804090403C
:10080000E1F700C0000063E58091000190910101D3
:100810000E94071FCF910C940C0D8438C1F40E94E4
:10082000141E82FD59C067E480910001909101017E
:100830000E94FC1E0E940C0D2FEF81EE94E02150CF
:1008400080409040E1F700C0000067E4DDCF8CEF0E
:100850008C0F813AD0F46C2F8091000190910101AE
:100860000E947C1E882349F06C2F8091000190919A
:1008700001010E94071F0E940C0D6C2F8091000146
:10088000909101010E94FC1EC5CF80E28C0F883040
:1008900048F4C77081E001C0880FCA95EAF70E944A
:1008A000CA0CB8CFEBE5EC0FE33040F4F0E0E25BCC
:1008B000FE4F808190E0CF910C943A1EC85AC73108
:1008C00058F4EC2FF0E0EE0FFF1FE05EFE4F80814A
:1008D0009181CF910C94501ECF910895882309F4F3
:1008E0005BC0682F823879F40E94141E81FF54C0C7
:1008F00069E380910001909101010E94FC1E0E9419
:100900000C0D69E310C08338B1F40E94141E80FFFF
:1009100043C063E580910001909101010E94FC1E9B
:100920000E940C0D63E580910001909101010E94ED
:10093000071F0C940C0D843879F40E94141E82FF5A
:100940002BC067E480910001909101010E94FC1E80
:100950000E940C0D67E4E7CF8CEF860F813A18F305
:1009600080E2860F883048F4677081E001C0880F0C
:100970006A95EAF70E94D00CDCCF8BE5860F8330B6
:1009800020F480E090E00C943A1E685A673120F41D
:1009900080E090E00C94501E08951F93CF93DF9356
:1009A000182FEB010E94CC03209741F08FE99FE0C4
:1009B0000197F1F700C000002197F6CF812FDF915A
:1009C000CF911F910C946E04893319F060E070E0B0
:1009D00002C060E570E00C94CD04882321F00E94F1
:1009E000CA0C0C940C0D0895882321F00E94D00CA1
:1009F0000C940C0D0895CF92DF92EF92FF920F931B
:100A00001F93CF93DF937C01D62FC72FFC01128158
:100A1000058102950F700E949F0C882399F0112385
:100A200089F08C2F807F803421F080E28D0F883018
:100A300048F082E00E945C0D0E949F0C91E0D82E4D
:100A4000D92601C0D12CCC2EC2948FE0C8228C2D87
:100A500090E08C30910508F0ABC1FC01EA5AFF4FE1
:100A60000C942E278C2F807FCF70882311F0C29595
:100A7000C07F112399F0CC2309F486C180E28D0F49
:100A8000883010F0D11104C08C2F0E94CA0C03C012
:100A90008C2F0E94DA0C0E940C0D76C18D2F0E94C3
:100AA0006E04CC2309F484C180E28D0F883010F0ED
:100AB000D11104C08C2F0E94D00C03C08C2F0E9437
:100AC000E00C0E940C0D74C18C2F807FCF7080329F
:100AD00011F0C295C07FDD2319F0D130C9F022C0DA
:100AE000112371F0002341F0013031F40E94ED0C2C
:100AF0008C2B0E94F50C5CC10E94ED0C8C2B1DC050
:100B0000002319F0013009F453C10E94020D25C0E1
:100B1000112321F0063008F04BC10EC0053008F05B
:100B200047C11BC0112361F0002331F0F70185811B
:100B300080FF2AC18F7085838C2F0E94ED0438C1FD
:100B4000002359F0D93309F030C1FFEF07EE13E06D
:100B5000F15000401040E1F726C18C2F0E94F404B0
:100B600027C18C2F86958695837019F0813061F0AE
:100B70001FC1112321F08D2F9C2F937002C080E0A4
:100B800090E00E943A1E1CC1112321F08D2F9C2F52
:100B9000937002C080E090E00E94501E11C18C2F23
:100BA000837009F047C0111107C12D2F229526959A
:100BB0002770220F220F6D2F6F70862F90E0A0E01C
:100BC000B0E0022E04C0880F991FAA1FBB1F0A9411
:100BD000D2F7D4FF10C04FE050E060E070E004C0F6
:100BE000440F551F661F771F2A95D2F740955095E1
:100BF0006095709503C040E050E0BA01C695C69577
:100C0000C3708A019B01082B192B2A2B3B2BC9018E
:100C1000B801C23049F058F4C13019F00E94D7072A
:100C2000CBC00E94C507C8C00E94E907C5C00E948A
:100C3000C307C2C0112319F08C2F817001C08695A3
:100C4000882309F4B9C02D2F229526952770220FED
:100C5000220F6D2F6F70862F90E0A0E0B0E0022E83
:100C600004C0880F991FAA1FBB1F0A94D2F7D4FF94
:100C700010C04FE050E060E070E004C0440F551F2A
:100C8000661F771F2A95D2F740955095609570950D
:100C900003C040E050E0BA01C695C695C3708A0112
:100CA0009B01082B192B2A2B3B2BC901B801C23001
:100CB00049F058F4C13019F00E949C087DC00E9490
:100CC0008A087AC00E94AE0877C00E94FD0774C0EF
:100CD000CF70112339F08C2F0E9423088D2F0E9492
:100CE000ED046AC08D2F0E94F4048C2F0E944408EA
:100CF00063C0D23F01F128F4D03F41F0D13FA1F0D1
:100D00003FC0D33FF9F0D43F39F13AC0112341F04D
:100D1000053008F04DC08C2F8F710E94690848C0C3
:100D2000063008F045C0F7CF112339F08C2F8F71B2
:100D30000E9423083DC01123C9F38C2F8F710E949C
:100D4000440836C0112329F08C2F8F710E940E08A1
:100D50002FC00E9409082CC0112349F0CF718C2F9D
:100D60000E94230863E08C2F0E94410D21C081E086
:100D70000E945C0D0230E0F082E00E945C0D18C021
:100D8000112331F0002391F28D2F0E94CC0310C06B
:100D9000002399F2D93349F41FEF27EE33E01150C5
:100DA00020403040E1F700C000008D2F0E946E040B
:100DB00088EF8C0D843020F40E94141E0E9473036F
:100DC000DD20C9F00E949B0C80FD15C0F701128246
:100DD0000E94950C0E942308C7010E941C070E94D4
:100DE000950CDF91CF911F910F91FF90EF90DF90C5
:100DF000CF900C944408DF91CF911F910F91FF90F9
:100E0000EF90DF90CF9008950F931F93CF93DF93D0
:100E1000EC01688179818A810E9463098C010E94BA
:100E2000C0080E94B107B801CE010E94FB04DF9107
:100E3000CF911F910F910895CF93DF93EC0198818B
:100E400089812B813C81232B31F08F3F31F481E06C
:100E50009F3F19F403C081E001C080E080FD19C00C
:100E6000CE010E94FE0281110CC00E949F0C8823BB
:100E700081F08A81882369F082E0DF91CF910C9420
:100E80005C0DCE010E940407CE01DF91CF910C943E
:100E9000D902DF91CF91089580E090E00E943A1E40
:100EA00080E090E00E94501E0E94E70C0E94EA0C35
:100EB0000C940C0D80910001909101010E94121F71
:100EC0000C944C070E94D70C0C945A07E92FE2951A
:100ED000EF704E2F50E0FA013297EE30F105B0F48A
:100EE000EE59FF4F0C942E27803F91F018F4883E66
:100EF00068F40EC0843F51F40BC0883E48F0813F37
:100F000029F406C093FB882780F9089580E00895AE
:100F100081E00895FC01808191810E9458090E941E
:100F200066070895CF93DF9300D000D01F92CDB70E
:100F3000DEB70F900F900F900F900F90DF91CF9131
:100F40000895CF93DF9300D000D000D0CDB7DEB7A7
:100F500026960FB6F894DEBF0FBECDBFDF91CF91BE
:100F60000895089508950C94B2070C94B3070E9455
:100F7000B5076093C8017093C9018093CA0190932B
:100F8000CB010C944C070C94B7070F931F9300915F
:100F9000C8011091C9012091CA013091CB01602B89
:100FA000712B822B932B1F910F910C94B7070F93EA
:100FB0001F930091C8011091C9012091CA0130917D
:100FC000CB0160237123822393231F910F910C94F3
:100FD000B7070F931F930091C8011091C901209189
:100FE000CA013091CB0160277127822793271F9177
:100FF0000F910C94B7070C94B2070E94FB07609303
:10100000C4017093C5018093C6019093C7010C94ED
:101010004C0760E070E0CB010C94FD070F931F9329
:1010200041E050E060E070E08A019B0104C0000FE5
:10103000111F221F331F8A95D2F7C901B8011F91D2
:101040000F910C94FD070F931F9341E050E060E077
:1010500070E004C0440F551F661F771F8A95D2F7B2
:101060008091C4019091C501A091C601B091C701C2
:101070008A019B01082B192B2A2B3B2BC901B80194
:101080001F910F910C94FD070F931F9341E050E0C7
:1010900060E070E004C0440F551F661F771F8A95FB
:1010A000D2F740955095609570958091C4019091CC
:1010B000C501A091C601B091C7018A019B01082317
:1010C00019232A233B23C901B8011F910F910C94C6
:1010D000FD070F931F9341E050E060E070E004C013
:1010E000440F551F661F771F8A95D2F78091C40160
:1010F0009091C501A091C601B091C7018A019B01E1
:10110000082719272A273B27C901B8011F910F91EA
:101110000C94FD070F931F930091C4011091C5011A
:101120002091C6013091C701602B712B822B932B2C
:101130001F910F910C94FD070F931F930091C40111
:101140001091C5012091C6013091C7016023712320
:10115000822393231F910F910C94FD070F931F93EC
:101160000091C4011091C5012091C6013091C701C1
:1011700060277127822793271F910F910C94FD07F9
:101180000895990F990F890FE82FE695E695E69552
:10119000877051E001C0550F8A95EAF785E0E89F16
:1011A000F0011124EB54FE4F20E030E070E040816C
:1011B000CB01022E02C0969587950A94E2F78170C2
:1011C000819584278523842781932F5F3F4F253086
:1011D000310569F70895990F990F890F682F669562
:1011E00066956695982F977085E0689FB0011124E9
:1011F00040E050E080E0FB01E40FF51FEB54FE4FB0
:10120000208130E0092E02C0369527950A94E2F736
:1012100021703327042E01C0220F0A94EAF7822B93
:101220004F5F5F4F4530510531F70895BF92CF9220
:10123000DF92EF92FF920F931F93CF93DF938C0176
:10124000C090C401D090C501E090C601F090C701E4
:101250008091C8019091C901A091CA01B091CB01C0
:10126000C82AD92AEA2AFB2ACFE1D0E0D701C60151
:101270000C2E04C0B695A795979587950A94D2F73A
:1012800080FD04C0219790F7B12C07C0BC2EB80197
:101290008C2F0E9427100197A9F38B2DDF91CF91FE
:1012A0001F910F91FF90EF90DF90CF90BF90089526
:1012B000CF93DF93EC010E941609BE010E94271014
:1012C000DF91CF9108951F93CF93DF93EB0190911E
:1012D000B401992321F0CB010E94580913C088233F
:1012E00049F0CB010E941609182F682FCE010E94E9
:1012F000C10804C0CB010E94EB08182FBE01812F4A
:101300000E942710DF91CF911F9108951F93CF93D3
:10131000DF93C091CC0116E08091CD01C81799F000
:10132000D0E01C9FF0011D9FF00D1124E253FE4FF1
:101330004081518162817381848195810E94A107DE
:101340002196C770E9CFDF91CF911F910895409109
:10135000FE015091FF0160910002709101028091A5
:101360000202909103020C94A1070F931F93CF9355
:10137000DF938091030282958F7009F05DC08091A8
:101380000002882309F458C08091CC011091CD014E
:101390006091FE017091FF01C0910102D0910202A3
:1013A00091E06F3F09F090E0292F06E0811709F4E2
:1013B00043C0209721F07F3F21F030E003C031E0AF
:1013C00001C0322F90E030FD34C0089FF001099F2A
:1013D000F00D1124DF01A253BE4F11963C911197DD
:1013E000371327C03C91361324C012963C911297B4
:1013F00031111FC013964D915C9114974C1B5D0BDE
:10140000483C5105B0F4809103028F708061809355
:101410000302ED52FE4F80818F70806180838EEFDA
:1014200091E00E941C07DF91CF911F910F910C94C6
:10143000860901968770BACFDF91CF911F910F91E6
:1014400008959F92AF92BF92CF92DF92EF92FF9258
:101450000F931F93CF93DF93CDB7DEB761970FB68E
:10146000F894DEBF0FBECDBF8C0185E0F801DE0130
:101470001D9601900D928A95E1F7F801E280909116
:10148000FE016091FF0120910102309102022115BD
:10149000310531F06F3F31F481E09F3F19F403C013
:1014A00081E001C080E0F82FF1709F2E80FD3FC1E8
:1014B000F80140815181A380B4808EEFC82E81E075
:1014C000D82EF0900002F501E21BF30BFF2009F487
:1014D000D9C080910302E83CF10508F095C0282F9F
:1014E000207F09F052C0561313C0491311C0FE2CBF
:1014F000E1100EC08F708061809303020E94A709E3
:10150000C6010E941C0780910302F80185834CC12B
:10151000AB2831F05F3F31F481E04F3F19F403C055
:1015200081E001C080E080FD03C081E08E2502C023
:1015300080E090E0F82FF170FF2E80FF1CC08091BA
:10154000CC012091CD0136E0821709F40BC190E067
:10155000389FF001399FF00D1124E253FE4F618155
:10156000561306C06081461303C06281E61203C0B1
:1015700001968770E9CFFE2CEE2009F415C1809109
:10158000030281608093030254C0561306C04913BE
:1015900004C0E11002C0F80199C0C8010E948A0786
:1015A000882361F1EE2051F120910302822F829570
:1015B0008F7090E0029774F08091FE019091FF018E
:1015C00098878F831986BB86AA862C87CE010796BB
:1015D0000E941C0786E0F801AEEFB1E001900D9289
:1015E0008A95E1F70E94B5090E94A7090AC056171B
:1015F00011F1C8010E948A0781112CC0C8010E9404
:101600001C07FF24F394D0C0282F207F81F77A2D68
:10161000B98AA88A6E2D89890E9492078EEF91E07F
:101620000E941C0786E0F60111928A95E9F70E9454
:10163000A709F12CB9C04913DCCFE110DACFF801CA
:101640008583C8010E941C0786E0F60111928A95E5
:10165000E9F7AAC0EE2091F220910302822F829531
:101660008F7090E002970CF4B5CF8091FE019091BD
:10167000FF019A8389831B82BD82AC822E83CE01B7
:101680000196A6CFE83CF10508F044C0FE2CEE2000
:1016900009F4B4CF561330C049132EC02091030271
:1016A00020FD21C0822F82958F70482F50E0411578
:1016B0005105C9F0F80125834F30510541F08F5F86
:1016C000982F9295907F822F8F70892B8583C801E8
:1016D0000E941C0786E0F801AEEFB1E001900D9288
:1016E0008A95E1F73CC086E0F801AEEFB1E00190E9
:1016F0000D928A95E1F758C0C8010E948A078111AE
:1017000069CF80910302816080930302C8010E9427
:101710001C074AC07A2DB98AA88A6E2D89890E9431
:10172000920786E0F60111928A95E9F718C0EE203B
:1017300009F464CFC8010E948A07F82E882309F4AF
:101740005DCF86E0F801AEEFB1E001900D928A9591
:10175000E1F78EEF91E00E94C6030E94B5090E9456
:10176000A70922C04D875E878D859E850E945809F6
:10177000292F22952F70223028F49F7039F0811183
:1017800005C00BC0243028F49F7049F4805E883077
:1017900020F0C8010E941C079F2CF92C05C0F801FD
:1017A0009581907F99F7F9CF8F2D61960FB6F894B8
:1017B000DEBF0FBECDBFDF91CF911F910F91FF9084
:1017C000EF90DF90CF90BF90AF909F9008951F93C0
:1017D000CF93DF93CDB7DEB72C970FB6F894DEBF6B
:1017E0000FBECDBF4F83588769877A878B879C87C9
:1017F000CE0107960E94210A8823D1F09F81888517
:101800002A853B85232B31F08F3F31F481E09F3FC8
:1018100019F403C081E001C080E080FD47C04F8122
:10182000588569857A858B859C850E94A1073EC075
:1018300086E0FE013796DE01119601900D928A95A1
:10184000E1F7FF81E8856A857B856115710531F0D7
:10185000EF3F31F481E0FF3F19F403C081E001C0A4
:1018600080E080FD23C02091CD0130E0C9010196C8
:10187000877099274091CC0150E084179507F1F1CA
:10188000F983EA837D836C8396E0929FD001939FD6
:10189000B00D1124A253BE4FFE01319601900D925E
:1018A0009A95E1F78093CD010E94860916E0809118
:1018B000CC019091CD01891771F1189FC0011124BD
:1018C00082539E4F0E94210A882329F1E091CC0186
:1018D0001E9FF0011124E253FE4F4081518162812D
:1018E0007381848195810E94A1078091CC0190E051
:1018F0000196877099278093CC01D9CF0E94620707
:101900001092CD011092CC01EEEFF1E086E0DF0104
:101910001D928A95E9F72C960FB6F894DEBF0FBE9C
:10192000CDBFDF91CF911F910895809104028595DD
:10193000859585950895809104028770089590910A
:101940000402977081E009F480E0089590917B0291
:1019500092FB222720F9281751F080FB92F99093EF
:101960007B0280917A0290917B020C94A30D0895E2
:1019700080917B0282FB882780F991E089270C9473
:10198000A60C81E00C94A60C80E00C94A60C80912F
:101990002802089590912802892B809328020895A7
:1019A00080959091280289238093280208951092AF
:1019B0002802089590912702892B80932702089589
:1019C0008095909127028923809327020895109291
:1019D0002702089510922602089580910502089525
:1019E00008950C94F00C0C94F10C90917B0292FDF4
:1019F00008C090910502981721F0809305020C947D
:101A0000F30C089580910502882329F010920502B5
:101A100080E00C94F30C0895E0910001F091010135
:101A2000809128028083E0910001F0910101908172
:101A300080912702892B8083E0910001F0910101C0
:101A4000908180912602892B8083809105028823D2
:101A500081F0E0910001F09101019081892B808358
:101A600080910001909101010E94661E81110E94E7
:101A7000020D80910001909101010C94201E0C94A4
:101A8000F00C90917B0292FD10C098E0899F90012C
:101A90001124262B209304020E9423088091040223
:101AA0008595859585950C943F0D0C94230810928F
:101AB000040280E00C943F0D209104028095822363
:101AC00080930402982F977041F430E0482F082E3D
:101AD000000C550B2417350721F490917B0292FFDF
:101AE00007C08595859585950E9444080C94570DEF
:101AF00008956FEF7FEF80E090E00C94B12780E0D5
:101B000090E00E948D2721E0893E9E4F09F020E061
:101B1000822F089582E090E00C947F2783E090E08C
:101B20000C947F27CF9384E090E00E947F27C82FFA
:101B300082E290E00E947F272C2F30E0A901582BF1
:101B4000CA01CF910895CF93C92F682F84E090E008
:101B50000E9493276C2F82E290E0CF910C94932700
:101B6000AB01BC018FE090E00C94A527AB01BC0158
:101B700083E190E00C94A52760E070E0CB010C9429
:101B8000B60D60E070E0CB010E94B00D0C94BC0D6E
:101B900069EE7EEF80E090E00E94B12760E082E095
:101BA00090E00E94932760E083E090E00E949327FA
:101BB0001092C8011092C9011092CA011092CB0173
:101BC00060E084E090E00E94932760E082E290E091
:101BD0000E94932760E085E090E00E94932760E0F8
:101BE00086E090E00E9493276FEF87E090E00E94EC
:101BF000932740E050E0BA0188E090E00E94A527DA
:101C000060E08DE090E00E94932740E050E0BA0150
:101C100088E190E00E94A52760E087E190E00E94C3
:101C2000932740E050E0BA018CE190E00E94A527A4
:101C300060E070E080E290E00E94B12740E050E078
:101C4000BA0188E190E00E94A5270C94C10D0C9484
:101C5000C80D682F8EE090E00C9493270E94C21F5D
:101C6000609334027093350280933602909337026A
:101C7000609330027093310280933202909333026A
:101C8000089585B7806885BF85B7806885BF08954A
:101C900081E008950C94480E08950C944C0E0C9419
:101CA0004C0E0C944F0E0C944C0E0C94530E0C9442
:101CB0004C0E0E94410E83E091E10E9427200E9479
:101CC000570E0C94550E0E944D0E0C944C0E0E9413
:101CD000AD1F0E94FA110E94D1190E9402180C94A3
:101CE000510E9F92AF92BF92CF92DF92EF92FF92EE
:101CF0000F931F93CF93DF93CDB7DEB72A970FB61D
:101D0000F894DEBF0FBECDBF0E940B1281110E945E
:101D10002E0E8AE2A82E82E0B82E00E010E0902E6F
:101D2000802F0E944111D82EF501C1905F01C82675
:101D3000B1F40F5F1F4F0630110589F78FEF8983CC
:101D40008A831B820E94B61F8160782F9D838C83BB
:101D500049815A816B818D810E947C032FC08091C3
:101D6000380281FD0E944711E12CFF24F3948C2D51
:101D70008F21F1F00E944A0E882399F0EE829F8213
:101D8000DF2081E009F480E088870E94B61F81602F
:101D9000782F9A8789874E815F8168858A850E941E
:101DA0007C03F801E65DFD4F8081F826F08206C0D5
:101DB000E394FF0CF4E0EF12DACFBBCF0E94461899
:101DC0000E94B21B0E94141E909129028917B9F03B
:101DD0000E94141E809329022A960FB6F894DEBF43
:101DE0000FBECDBFDF91CF911F910F91FF90EF906C
:101DF000DF90CF90BF90AF909F900C9473032A9682
:101E00000FB6F894DEBF0FBECDBFDF91CF911F910B
:101E10000F91FF90EF90DF90CF90BF90AF909F9089
:101E20000895CF93DF930E942C10EC01811522E5D9
:101E30009207E8F5811531E5930708F0B6C0883EB2
:101E4000910528F5803E910508F0E9C0883A910592
:101E500070F4853A910508F07AC08130910509F453
:101E600073C008F4D9C0049708F0D9C0D5C08F3B1F
:101E7000910508F0D1C0C85AD0E0CC0FDD1FCF5A71
:101E8000DE4F0990D881C02DCE019464C9C0811560
:101E900040E5940708F069C0811550E4950708F003
:101EA00060C09A9581159F4108F4B9C0B5C08115ED
:101EB00036E5930728F5811545E5940708F092C0AB
:101EC000811554E5950708F087C0AC01437055278C
:101ED000282F26952695C115D34508F06CC081E0C2
:101EE00090E002C0880F991F4A95E2F740E2249FD4
:101EF00090011124EC01C22BD32BCE019C6890C021
:101F000081152AE5920780F4811539E5930708F0D9
:101F100072C0811548E5940708F47EC0D82FCC27FD
:101F2000CE01806F906A7CC090568115904208F077
:101F300073C08D2F8F710E94C010DD27D0628F710A
:101F4000AE01582BCA016CC081E090E069C0C55A4F
:101F5000D0E0C158DE4F8881C82FD0E0CE01906418
:101F60005FC0DF70CE01906A5BC074E09695879584
:101F70007A95E1F7282F23703C2F337081E090E0B1
:101F800002C0880F991F3A95E2F79C68AC01522B6A
:101F90009A019C2F9F709695969550E2959FE0012F
:101FA0001124C9018C2B9D2B3BC0D82FCC27CE01EF
:101FB000816F906A35C081E090E002C0880F991F60
:101FC0004A95E2F750E2259F90011124EC01C22BC3
:101FD000D32BCE019A6824C0D82FCC27CE01846F92
:101FE000906A1EC00E94C0108F7190E0D82FCC273D
:101FF000CE01906215C08F700E94C01094E0D695FB
:10200000C7959A95E1F7CF70D0E0DC2FCC27D06947
:102010009E01282BC90104C080E090E001C0CE01E0
:10202000DF91CF910895E72FF0E096E0899FE00DD2
:10203000F11D1124EE0FFF1FEE0FFF1FE60FF11D24
:10204000EE0FFF1FEC50FF4F8591949108950E9471
:1020500013100E94110F08958238910569F1B0F4B0
:102060008133910509F46DC048F48932910509F472
:1020700063C08A32910509F469C0089585339105DA
:1020800009F455C089339105B9F00895833E91054F
:1020900069F138F4803E9105B1F0823E910509F175
:1020A0000895863E9105A9F1873E9105B9F1843ED8
:1020B000910509F064C023C020917A0220FD4FC031
:1020C00021FD4DC0089580917A0280FD44C0809129
:1020D0007B0280FF44C080917A0284FD42C083EE7F
:1020E0004DC080917A0282FF38C0F5CF80917A028C
:1020F00082FD33C080917B0280FD31C0ECCF8091A6
:102100007B0281FF32C080917A0284FD2AC087EE73
:1021100035C080917A0283FF26C0F5CF80917A0284
:1021200083FD21C080917B0281FD1FC0ECCF809197
:102130007A0285FD1CC01DC080917A0285FD19C000
:1021400016C080917A0286FD16C017C080917A026F
:1021500086FD13C010C089E311C082EE0FC080EE6F
:102160000DC080E00BC086EE09C084EE07C089E296
:1021700005C085E303C08AE201C081E390E00895D1
:1021800090917A0292FF0DC0282F2871283019F4FF
:10219000877F846006C0282F2471243011F48B7F40
:1021A000886093FF0DC0282F2871283119F4877E8D
:1021B000846106C0282F2471243111F48B7E88613C
:1021C00020917B0220FF0DC0382F3871383019F470
:1021D000877F816006C0382F3171313011F48E7FD6
:1021E000886021FF0DC0282F2871283119F4877EBF
:1021F000816106C0282F2171213111F48E7E886102
:1022000094FD877E089580E008950C94790D0E94D6
:102210000B128FE39CE90197F1F700C000000E94C8
:102220000B1280E00E94411180FF04C00E94051142
:102230000C94032008950C9407110E947F0D8111C6
:1022400002C00E94270E0E948A0D809338020E94CD
:10225000920D90937B0280937A020E941B110E9440
:102260008E0D682F70E080E090E00E94C3076091BF
:10227000C4017091C5018091C6019091C7010C9471
:10228000FB07E82FF0E0EE57FD4F80810895089599
:1022900080EA8A95F1F7089500C008950C944811DA
:1022A00008950C9450110C9451110C9450110C94ED
:1022B0005511F894E82FE295EF70F0E031A1282F46
:1022C0002F7081E090E001C0880F2A95EAF7982FDF
:1022D0009095932391A392A1892B82A3789408953A
:1022E0000F931F93CF93DF93C6E8D1E089918F3F7F
:1022F00011F00E94591181E0CC38D807B9F7C2E833
:10230000D1E006E811E089918F3F11F00E94591148
:102310000C171D07C1F7DF91CF911F910F91089501
:10232000CF92DF92EF92FF920F931F93CF93DF93A1
:102330008C01C62FD0E0CE018A579E4F7C01FC0154
:1023400090819F3F09F44DC0D62EF894E92FE29575
:10235000EF70F0E081A19F7021E030E001C0220F1A
:102360009A95EAF7822B81A382A12095282322A3A4
:1023700078940E944C11E2E8F1E020E030E0C12CBA
:1023800051E041914F3FB1F0A42FA295AF70B0E062
:1023900090968C9190E04F7002C0959587954A95E4
:1023A000E2F780FD07C0852F022E01C0880F0A9436
:1023B000EAF701C080E0C82A2F5F3F4F2430310583
:1023C00001F7F70180818F3F11F00E94591161E000
:1023D000C11001C060E08D2D0E944E11C00FD11FB1
:1023E000C882DF91CF911F910F91FF90EF90DF9006
:1023F000CF9008950E947011ECE7F2E0A2E8B2E0FD
:1024000011921D9282E0E238F807D1F786E00E942F
:1024100053120C94E402FF920F931F93CF93DF9318
:1024200000D000D000D0CDB7DEB78E010F5F1F4FB8
:1024300086E0F80111928A95E9F7F12C6F2DC80119
:102440000E949011F394F6E0FF12F8CF46E050E0BE
:10245000B8018CE792E00E947227FF24F394009762
:1024600009F4F12C892B41F086E0F801ACE7B2E0E9
:1024700001900D928A95E1F72F2D46E062E872E017
:102480008CE792E00E9454120E94EC028F2D269657
:102490000FB6F894DEBF0FBECDBFDF91CF911F9175
:1024A0000F91FF9008950895FF920F931F93CF937C
:1024B000DF938C01F62ED72FC42F222349F081E021
:1024C00080933B020E94B61F90933A028093390298
:1024D00080913B028823C1F08091390290913A02A9
:1024E0000E94CE1F059780F0EF2DFD2FD8014C2FB5
:1024F00050E0CD01801B910B841795071CF48D9142
:102500008193F7CF10923B02DF91CF911F910F91F2
:10251000FF9008950E94241F0E947F210E9498210D
:102520000E94AA210E94630EFBCFEF92FF920F93AD
:102530001F93CF93DF938B01682F11110AC044239F
:1025400029F0E82FF0E0E559FD4F6491762F862FB2
:1025500075C0212F30E0E82FF0E0442321F0E55949
:10256000FD4FE491F0E046E0049FC0011124CFEF5D
:10257000D0E0BE010E94E4264BEA4603C001479F1B
:10258000900D1124800F911D800F911D982F990F90
:10259000890FAE01421B530B4E9FD0014F9FB00DD0
:1025A0005E9FB00D11249B2F189FA0011124452F71
:1025B00055278E01041B150B0E9FA0010F9F500D78
:1025C0001E9F500D11247E01E81AF108E29E800141
:1025D000E39E100DF29E100D1124212F3327C21BF4
:1025E000D30BCE9F9001CF9F300DDE9F300D112475
:1025F00062307105A9F048F46115710569F0613028
:102600007105C9F48B2F752F0DC06430710581F0F1
:1026100058F06630710579F47E2F8B2F932F0DC003
:10262000832F7B2F9E2F09C08E2F7B2F952F05C0C8
:102630008E2F732F02C07E2F852F692FDF91CF91B0
:102640001F910F91FF90EF90089541E00E94951225
:10265000089508950E9425130895CF93DF93762F50
:10266000E901682F842F0E942A13798368838A8363
:10267000DF91CF91089580918802282F269530E030
:102680002115310519F48170826005C025323105AC
:1026900024F08170886480938802089588E090E037
:1026A0000C948727CF92DF92EF92FF926B017C010F
:1026B0000E943B13B701A60188E090E0FF90EF90E5
:1026C000DF90CF900C94A527E8E8F2E083E08083C8
:1026D00011828FEF82838383148260817181828172
:1026E00093810C9452138091880280FF02C08695DA
:1026F000089580E0089590918C02933018F49F5FC4
:1027000090938C02882351F0609188027091890225
:1027100080918A0290918B020C945213089581E06B
:102720000C947B1390918C02992319F09150909303
:102730008C02882351F06091880270918902809107
:102740008A0290918B020C945213089581E00C94AC
:10275000921370E00C94C31B609106018091880273
:1027600080FF0AC08091050123E0829FC0011124EF
:1027700083579D4F0C94A9138091070190910801F4
:10278000891780F7E82FF0E09F01220F331FE20F37
:10279000F31FE357FD4F1182108212828F5FF0CF3B
:1027A0009091880290FF16C0909107012091080136
:1027B000921770F4E92FF0E0DF01AA0FBB1FEA0FB8
:1027C000FB1FE357FD4F8183608342839F5FF0CF00
:1027D0000C94AC130895CF93DF9300D01F92CDB724
:1027E000DEB79091880290FF0AC09E012F5F3F4F95
:1027F0000E942D134B8169818A810E94D0130F9012
:102800000F900F90DF91CF910895CF93DF93EC015C
:10281000EC81F0E0EA59FE4F4491E8E8F2E0628191
:1028200081810E94EB138C818F5F8C83DF91CF912C
:102830000895CF93DF93EC01E8E8F2E043816281F1
:102840008C810E94EB138C818F5F8C83DF91CF9101
:1028500008950F931F93CF93DF9300D01F92CDB7AE
:10286000DEB78C0180913C0281110AC09E012F5F6E
:102870003F4F4FEF6FEF0E942D138A8180933C02F0
:10288000F8018481813051F028F0823061F4409168
:102890003C020AC080913C0240E007C060913C02CB
:1028A00040E080E003C040E080E060E00E94D013A0
:1028B000F801848190E0019663E070E00E94F826C0
:1028C00084830F900F900F90DF91CF911F910F9104
:1028D0000895AF92BF92CF92DF92EF92FF920F9343
:1028E0001F93CF93DF9300D01F92CDB7DEB7182F81
:1028F000F62E042FE22E9091880290FF6DC0E92FF2
:10290000E695AE2FB0E0A457BE4F8C91809348025D
:102910009E7F923061F49E012F5F3F4F812F0E9476
:102920002D134B8169818A810E94D01343C082306C
:1029300019F400918B023EC0863019F4109189027F
:1029400039C08930D9F38931A9F5E9518E2F8170C9
:10295000D82EE695F0E0EA59FD4FA590B490C12C31
:10296000BB2460910901C61618F52C2D30E0A29EFB
:10297000C001A39E900DB29E900D112470E00E94A4
:10298000E426812FD11002C0860F01C0861B9091D2
:102990000701290F311DA901440F551F240F351FB1
:1029A00023573D4F402F6F2D0E942D13C394D9CF35
:1029B0000E94AC1310938902F0928A0200938B025A
:1029C000EE2051F0609188027091890280918A0214
:1029D00090918B020E9452130F900F900F90DF91F5
:1029E000CF911F910F91FF90EF90DF90CF90BF900C
:1029F000AF900895E8E8F2E09181282F4381628149
:102A000088E0890F0C94691481E00C94FA14E8E8CA
:102A1000F2E09181282F4381628188EF890F0C9425
:102A2000691481E00C940715E8E8F2E0628121E185
:102A3000620F08F46FEF282F438181810C94691491
:102A400081E00C941415E8E8F2E0628121E1621B58
:102A500008F460E0282F438181810C94691481E09F
:102A60000C942315E8E8F2E0438121E1420F08F4D9
:102A70004FEF282F628181810C94691481E00C94BE
:102A80003215E8E8F2E0438121E1421B08F440E01E
:102A9000282F628181810C94691481E00C94411586
:102AA00020E00C946914FF920F931F93CF93DF9350
:102AB000EC01F12C0FEF10E060910901F616F0F433
:102AC000809107012F2D30E0280F311DC901880F9B
:102AD000991F280F391F23573D4F70E0C8010E94EE
:102AE000F826962F8C8140918B0260918A02F99E84
:102AF000800D11240E942D13F394DECF0E94AC139D
:102B00009A818C8190FF02C08F5F01C081508C83BD
:102B1000DF91CF911F910F91FF900895BF92CF92B7
:102B2000DF92EF92FF920F931F93CF93DF93FC01FD
:102B3000828180FF02C00FEF01C001E010E08091B0
:102B40000901181708F040C080910701C12ED12C4F
:102B5000E601C80FD11DCE01880F991FC80FD91FDC
:102B6000C357DD4F198218821A8234E0E32EF12C0C
:102B7000B12C80913E028B0D853014F0837005C01E
:102B800087FF03C090910901890F082E000C990B53
:102B9000C816D90691F480918B028E9DA0018F9D5D
:102BA000500D112455954795559547959E01609177
:102BB0008A02809189020E942D13B00EF1E0EF1A73
:102BC000F108B9F61F5FBBCF0E94AC1380913E02A3
:102BD000013031F4811102C080910901815007C098
:102BE00090E001966091090170E00E94F8268093C0
:102BF0003E02DF91CF911F910F91FF90EF90DF90F8
:102C0000CF90BF900895CF938091070190910801D4
:102C1000891770F4E82FF0E09F01220F331FE20FB5
:102C2000F31FE357FD4F1182108212828F5FF0CFA6
:102C3000C0E060910901C617C0F5EC2FF0E070E02C
:102C4000CF010E94F82620910701820F20913D02BA
:102C5000022E000C330B90E0E217F307CCF020912A
:102C60000401022E000C330B2E173F078CF09C0141
:102C7000220F331F820F931F9C0123573D4F40911A
:102C80008B0260918A02809189020E942D130BC0F1
:102C9000FC01EE0FFF1F8E0F9F1FFC01E357FD4F3E
:102CA000118210821282CF5FC4CF0E94AC13209198
:102CB000030180913D02820F80933D0290910401B7
:102CC000920F9093040119165CF4082E000C990BD6
:102CD0004091090150E041505109841795071CF0BB
:102CE000219520930301CF9108958F929F92AF92E7
:102CF000BF92CF92DF92EF92FF920F931F93CF93E9
:102D0000DF938C01FC014481C42FD0E09E01DE01E1
:102D10000E943C279B01AC010E9452276B017C0161
:102D2000E0E2F0E0EC1BFD0BA5E5B0E09B01AC019F
:102D30000E9452274B015C019F01DF010E94342752
:102D40009B01AC010E945D279B01AC012C0D3D1D38
:102D50004E1D5F1DC501B4010E940C27C22FD22F4A
:102D60002A3228F4F3E02F9F900111240DC025E5AD
:102D700030E02C1B3109C901880F991F280F391F1A
:102D800037FF02C02F5F3F4F35952795C22FC09563
:102D9000F12C85E5E82EED1A80910901F816C8F4AA
:102DA000F1FC02C08E2D01C08D2F909107012F2DB7
:102DB00030E0290F311DA901440F551F240F351F85
:102DC00023573D4F4C2F60918A020E942D13F3949C
:102DD000E3CF0E94AC13F8018481811102C091E01D
:102DE00003C0803219F49FEF909302019091020189
:102DF000890FF8018483DF91CF911F910F91FF908C
:102E0000EF90DF90CF90BF90AF909F908F900895FC
:102E10000F931F93CF93DF93EC0100E010E08091BC
:102E20000901282F30E00217130724F590910701BC
:102E30009801290F311DA901440F551F240F351F7B
:102E400023573D4F869590E04C81081719071CF4D5
:102E5000442331F002C0411103C040918B0201C0F4
:102E600040E060918A02809189020E942D130F5FD9
:102E70001F4FD5CF0E94AC138C8190E001968170DA
:102E800099278C83DF91CF911F910F910895E8E8E6
:102E9000F2E080818E7F8083608171818281938165
:102EA0000E945213109249022FEF80E792E02150C6
:102EB00080409040E1F700C000000C94AC13E8E8BB
:102EC000F2E080818E7F8083109249022FEF80E7AD
:102ED00092E0215080409040E1F700C000000C9447
:102EE000AC13109249028091460281110AC081E020
:102EF00080934602809188028170809345020C94F1
:102F00005F17089560918802669570E04BE050E08D
:102F10008AE091E00E946527892B19F481E0809373
:102F200049020E94B61F9093400280933F02089589
:102F30009091880290FF35C09170811102C092601B
:102F400006C0853210F0986402C0880F982B9093C9
:102F50008802662351F06091880270918902809105
:102F60008A0290918B020E945213609188026695AA
:102F700070E04BE050E08AE091E00E946527892BE9
:102F800019F01092490202C00E94821781E08093DA
:102F9000420240918B0260918A02809189020C94D6
:102FA00050150895682F90918802969581E0890FB9
:102FB000853208F081E00C94981781E00C94D217C8
:102FC000682F9091880296958FEF890F09F484E21B
:102FD0000C94981781E00C94E01761E00C9498171A
:102FE000E8E8F2E080818160808386950C94ED179B
:102FF0008091880280FD0C9447170C94F01760E0D4
:103000000C9498178091470281112EC00E947F0D69
:10301000811104C00E94270E0E9464130E944E1367
:10302000609388027093890280938A0290938B0246
:103030006E7F61F40E9464130E944E1360938802B5
:103040007093890280938A0290938B020E943B13B3
:10305000109249028091880280FF03C086950E94E9
:10306000FF1781E0809347020895E8E8F2E080814D
:103070008160808386950C94FF17109246028091A0
:10308000450281110E9435180C9482170F931F93EB
:10309000CF93DF9380914902882309F485C0809102
:1030A0004802E0918802E695E81BE09341028230F5
:1030B00049F4F0E0EE59FE4FE491CE2FD0E005E068
:1030C00014E149C0863049F4F0E0E15AFE4FE49142
:1030D000CE2FD0E009E114E13EC0893051F4E695ED
:1030E000F0E0E45AFE4FE491CE2FD0E003E515E185
:1030F00032C08F3051F4E695F0E0E75AFE4FE4918C
:10310000CE2FD0E00EE815E126C0853149F4F0E07D
:10311000EA5AFE4FE491CE2FD0E003E016E11BC047
:10312000883181F0833239F4E4E5F1E0C591D4913E
:1031300009E214E110C0843251F4C4EFD1E008E098
:1031400017E109C0C8E2D0E005E716E104C0C0ED10
:10315000D7E009E213E180914202882361F01092E6
:1031600042020E94B61F9093400280933F02109249
:103170004402109243020E94B61FE0913F02F09178
:1031800040028E1B9F0B8F3F9F4770F4EC0FFD1F7B
:10319000F0934002E0933F028FE392E0F801DF9169
:1031A000CF911F910F910994DF91CF911F910F91B2
:1031B0000895882311F0FA0101C0FB010994CF930F
:1031C000DF93C82FD62F0E9473138C1740F00E94F4
:1031D00073138D1720F4DF91CF910C94DD178C2F92
:1031E000DF91CF910C94ED171F93CF93DF93FB01E9
:1031F0001281112309F4BCC0EC010E94C70C827239
:10320000CD3CFCE5DF0709F497C008F043C0C73C9C
:10321000ECE5DE0709F47CC0D8F4C43C9CE5D90792
:1032200009F46AC038F4C33CDC4509F0A4C00E942C
:10323000F817A0C0C53C9CE5D90709F462C0C63C9C
:10324000DC4509F098C041E155E164E075E15DC0FD
:10325000CA3CFCE5DF0709F465C070F4C83CECE546
:10326000DE0709F45AC0C93CDC4509F084C040E2DD
:1032700055E16FE275E149C0CB3C9CE5D90709F403
:1032800056C0CC3CDC4509F076C046EA53E16FE815
:1032900073E13BC0C23DFCE5DF0709F45AC098F476
:1032A000CF3C9CE5D90709F44EC008F44AC0C03DA4
:1032B000FCE5DF0709F44AC0C13DDC4509F05BC00D
:1032C0006EE089E04EC0C53D9CE5D90709F447C0D2
:1032D00050F4C33DFCE5DF07F9F1C43DDC4509F0DE
:1032E0004AC088E142C0C63D9CE5D907E9F1CE3528
:1032F000DD4509F43FC03FC04AEE57E16DED77E18F
:1033000004C04DED57E16AEE77E10E94D91832C052
:1033100044E055E161E175E1F8CF4FE255E160E24B
:1033200075E1F3CF4DE455E16EE375E1EECF4EE389
:1033300055E16DE475E1E9CF4FE853E166EA73E1E9
:10334000E4CF81E012C065E082E00BC068E086E077
:1033500008C064E18FE005C067E185E102C062E278
:1033600089E10E94DF1806C083E20E94ED1702C0C7
:1033700011E001C010E0812FDF91CF911F910895DE
:1033800086E090E00C947F27682F86E090E00C9414
:1033900093278091990284708961809399020C949B
:1033A000C4190E947F0D811104C00E94270E0E9443
:1033B000C9190E94C01980939902282F2695269535
:1033C000269530E02430310524F0877088618093A1
:1033D00099028091990280FF04C086958695869512
:1033E00001C080E00C94331B20919902822F8695B6
:1033F00086958695482F50E04330510554F48F5FF1
:10340000982F990F990F990F822F8770892B80938E
:103410009902809199028160809399020E94C41957
:10342000809199028695869586950C94331B8091A0
:103430009902982F969596959695A1F0915E990F81
:10344000990F990F8770892B80939902887F91E05B
:1034500009F490E08091990290FB80F980939902A1
:103460000E94C419809199028695869586950C9440
:10347000331B8091990280FD13C081608093990273
:10348000813019F489E080939902809199020E9419
:10349000C419809199028695869586950C94331B64
:1034A00008958091990280FF08C08E7F80939902D1
:1034B0000E94C41980E00C94331B089580919902F6
:1034C00080FD0C94511A0C94391A90919902892F0D
:1034D0008695869586958F5F8F719770843038F4C6
:1034E000880F880F880F892B8093990202C09093D0
:1034F000990280919902887F91E009F490E080918F
:10350000990290FB80F9809399020E94C4198091DE
:1035100099028695869586950C94331B843008F025
:1035200083E0909199029770282F220F220F220F8B
:10353000922B90939902987F21E009F420E09091DA
:10354000990220FB90F9909399020C94331B0E94EE
:103550008E1A809199020C94C4199C01FB018281FE
:10356000882349F12E3BFCE53F07C9F040F42C3B92
:10357000ECE53E0769F02D3B3C4561F00895203CA9
:103580009CE5390791F070F0213C3C4589F00895A5
:1035900083E001C080E00E94A71A80E008950E94A5
:1035A000171AFBCF0E94F419F8CF0E945E1AF5CFCC
:1035B0000E94651AF2CF81E00895879A8F9A089544
:1035C0008F9808958F9A08951F920F920FB60F92B9
:1035D00011242F933F934F935F936F937F938F9318
:1035E0009F93AF93BF93EF93FF930E94E21AFF91D3
:1035F000EF91BF91AF919F918F917F916F915F916B
:103600004F913F912F910F900FBE0F901F901895E3
:103610001F920F920FB60F9211242F933F934F9347
:103620005F936F937F938F939F93AF93BF93EF932A
:10363000FF9380918800909189008130914010F033
:103640000E94E01AFF91EF91BF91AF919F918F91EE
:103650007F916F915F914F913F912F910F900FBE8E
:103660000F901F901895CF92DF92EF92FF92CF9319
:10367000C82F8430A8F4811114C0809188009091E3
:103680008900892B51F080916F008D7F80936F00AE
:1036900080916F008E7F80936F000E94E21A11C0AC
:1036A000C3E08091880090918900892B51F480912A
:1036B0006F00826080936F0080916F0081608093C3
:1036C0006F002C2F30E0AFEFBFEF0E943C2723E0CC
:1036D00030E040E050E00E940C27B42FA32F922F3F
:1036E0008827492F5A2F6B2F7727CA014C3724E19F
:1036F000520728F469E070E00E94E42629C0DB014B
:10370000CA018A50974DAF4FBF4F6627782F892F38
:103710009A2F25EF38E241E050E00E940C27690122
:103720007A01CA01B9010E94D4269B01AC01C701EC
:10373000B6010E94D426BB27A92F982F872F009768
:1037400021E0A207B10511F0BC0102C06FEF7FEFCD
:103750007093890060938800CF91FF90EF90DF9085
:10376000CF90089508950E94DD1A82E08093800032
:1037700089E1809381008FEF9FEF90938700809382
:1037800086000C94D119869A21B32F7B31B3306413
:103790004FB7F894FC01CB01880F991F680F791F70
:1037A0006E0F7F1FE617F70789F0819198E031BB14
:1037B000000000C087FF21BB880F000000C000C0D0
:1037C00000C021BB00C09A9591F7ECCF4FBF8FE5A9
:1037D00094E00197F1F700C0000008950F931F9344
:1037E000CF93DF93C42FD22FFC0182818823C9F0AD
:1037F00040934C020E94B61F90934B0280934A0262
:1038000080E28C0F883008F057C0C77081E001C09B
:10381000880FCA95EAF7DF91CF911F910F910C9411
:10382000ED0480914C02481330C080914A0290917F
:103830004B020E94CE1F883C910538F510E21D0F07
:10384000CD17B9F080E28C0F883040F4C77081E06A
:1038500001C0880FCA95EAF70E94F404183028F5D1
:1038600081E09D2F977001C0880F9A95EAF70E941A
:10387000ED04802F0E94E4041830F0F4D77081E04A
:1038800001C0880FDA95EAF70AC080E28C0F883011
:1038900098F4C77081E001C0880FCA95EAF7DF91FC
:1038A000CF911F910F910C94F404802FDF91CF9151
:1038B0001F910F910C94E404DF91CF911F910F9110
:1038C00008950F939C01CB01243F4CE5340731F15F
:1038D00088F4293DFCE53F07D9F02A3D4CE5340743
:1038E00079F1283D3C45A9F506E221EE41EE68ED6F
:1038F0007CE52BC0263FFCE53F07E1F0A8F0273F21
:103900003C4539F507E225EE46EE67EF7CE51DC044
:1039100007E225EE45EE69ED7CE517C006E221EEF3
:1039200040EE64EF7CE511C007E225EE44EE65EF62
:103930007CE50BC006E221EE42EE66EF7CE505C0B9
:1039400008E221E045EE6AED7CE50E94EE1B80E096
:1039500008C0FC018281882319F010924C0201C03A
:1039600081E00F910895CF93DF93EC01FB018281F9
:10397000882309F41FC1C230FCE5DF0708F41BC12E
:10398000C6319CE5D90738F09E012B5F3C452930B4
:10399000310508F010C10E94920D90937B02809334
:1039A0007A02C031ECE5DE0709F4C3C008F041C07B
:1039B000C8308CE5D80709F49AC0F0F4C430ECE5BF
:1039C000DE0709F487C068F4C2308CE5D80709F433
:1039D00077C0C330DC4509F0E3C080917A02826091
:1039E00076C0C630ECE5DE0709F46EC008F07BC097
:1039F00080917A0288606BC0CC308CE5D80709F4DE
:103A000085C068F4CA30ECE5DE0709F474C008F03C
:103A100079C00E94620780917A02806858C0CE30D7
:103A20008CE5D80709F476C008F07FC080917A024F
:103A30008BC0CC3FECE5DE0709F44FC018F5C3316D
:103A40008CE5D80709F47DC078F4C131ECE5DE07D8
:103A500009F473C0C231DC4509F0A2C00E946207BC
:103A600080917A028F7733C0C5318CE5D80709F48D
:103A700072C008F486C0CB3FDC4509F091C080914C
:103A80007B023EC0C115FDE5DF0709F45FC058F4B5
:103A9000CE3F9CE5D90709F444C008F43FC08091AB
:103AA0007B0282602DC0C230FDE5DF0709F475C0DE
:103AB00008F45DC0C330DD4509F072C080E06EC01F
:103AC00080917A02816003C080917A028061809344
:103AD0007A0266C080917A0211C080917B02826076
:103AE00080937B025DC080917A028062F0CF8091EA
:103AF0007A028064ECCF80917A0288608460E7CF9C
:103B00008160EECF80917A028E7FE1CF80917A0240
:103B10008D7FDDCF80917A02877FD9CF80917B0224
:103B200018C080917B028D7FDBCF80917A028F7EDF
:103B3000CECF80917A028F7DCACF80917A028F7B1F
:103B4000C6CF80917A02877F8B7FC1CF80917B0225
:103B50008D7F8E7FC5CF80917A0282FB222720F94C
:103B600091E0922790FB82F990FB83F9B0CF80918E
:103B70007B02982F909591708E7F892B90FB81F915
:103B8000AFCF0E94620780917A0287FB222720F93B
:103B900091E0922790FB87F99ACF81E00E94290E4D
:103BA00080917A0290917B020E94A30D0E9462078D
:103BB00080E001C081E0DF91CF910895CF93DF9342
:103BC00086319C4541F5EB010E94C70C982F8A81F4
:103BD0002091000130910101882379F09A7A81E0E7
:103BE00009F480E080934D02911102C069E201C0A6
:103BF00065E3C9010E94FC1E0AC080914D0281113B
:103C000002C069E201C065E3C9010E94071F0E946A
:103C10000C0D80E001C081E0DF91CF910895909379
:103C20005302809352020895E0915202F0915302A0
:103C3000309721F00190F081E02D099480E0089503
:103C4000E0915202F0915302309799F020911F01B8
:103C5000222359F020917A0227FF07C0DC012C9122
:103C600011962C93119725E02C930280F381E02D7F
:103C70000994089520915002309151022817390774
:103C800071F09093510280935002E0915202F091B2
:103C90005302309721F00680F781E02D09940895B2
:103CA00020914E0230914F022817390771F09093FE
:103CB0004F0280934E02E0915202F09153023097EE
:103CC00021F00084F185E02D09940895FC013296DD
:103CD00080911F01882331F080917A0287FF02C012
:103CE0009EE101C096E080E0915028F021912223CE
:103CF000D9F38F5FF9CF0895662351F120911F0109
:103D00002223E9F020917A0227FF19C0462F469519
:103D1000469546954E31E0F4677021E030E002C0F0
:103D2000220F331F6A95E2F7FC01E40FF11D828137
:103D300090E02823392381E0232B69F409C0FC019A
:103D4000329608962191621729F0E817F907D1F702
:103D500080E0089581E008959C01FC0132969FEF78
:103D600080E04191461789F09F3F19F4411101C04D
:103D7000982F8F5F8630A9F79F3F39F0F901E90F3F
:103D8000F11D97FDFA956283089508959C012A5FBD
:103D90003F4FFC014281461301C0128201968217F7
:103DA0009307B9F70895262F2695269526952E3147
:103DB00068F4FC01E20FF11D677021E030E001C002
:103DC000220F6A95EAF78281282B22830895262FF5
:103DD0002695269526952E3170F4FC01E20FF11DF3
:103DE000677021E030E001C0220F6A95EAF7209564
:103DF000828128232283089520911F01222329F004
:103E000020917A0227FD0C94D31E0C94AC1E2091B5
:103E10001F01222329F020917A0227FD0C94E71E2E
:103E20000C94C61E20911F01FC013296222331F012
:103E300080917A0287FF02C08EE101C086E0DF0137
:103E40001D928A95E9F70895089508950C94251F09
:103E50000C94251FCF930E94281F0E940B120E94D2
:103E6000261FC0E08C2F0E944111811104C0CF5F3A
:103E7000C630C1F701C081E0CF9108950C94251F91
:103E80000C943E1F8091A202843009F42EC00E943F
:103E9000401F80E00E94331B80E00E9473030E9459
:103EA00071171092540220E488E190E00FB6F89464
:103EB000A895809360000FBE2093600083B7817F38
:103EC000846083BF83B7816083BF7894889583B70C
:103ED0008E7F83BF0FB6F894A895809160008861AB
:103EE00080936000109260000FBE08950C94251F0F
:103EF0000E9462070E94D1190E94141E0E9473033F
:103F00000E943D180C94761F1F920F920FB60F92CD
:103F100011248F939F93AF93BF938091540281118B
:103F200013C080919A0290919B02A0919C02B09143
:103F30009D024196A11DB11D80939A0290939B0210
:103F4000A0939C02B0939D02BF91AF919F918F91DE
:103F50000F900FBE0F901F90189582E084BD93E0E4
:103F600095BD9AEF97BD80936E0008952FB7F89492
:103F700080919A0290919B02A0919C02B0919D0227
:103F80002FBF08952FB7F89460919A0270919B0209
:103F900080919C0290919D022FBF08959C014FB784
:103FA000F89480919A0290919B02A0919C02B0910A
:103FB0009D024FBF821B930B089578941F920F921E
:103FC0000FB60F9211248F939F93AF93BF9380915D
:103FD0009A0290919B02A0919C02B0919D02019641
:103FE000A11DB11D80939A0290939B02A0939C0205
:103FF000B0939D02BF91AF919F918F910F900FBE93
:104000000F901F90189581E08093E00080E28093EC
:10401000D8001092C9008FE19EE40197F1F700C02B
:10402000000087E090EBDC018093AB029093AC0240
:10403000A093AD02B093AE029CE088E10FB6F89475
:10404000A895809360000FBE90936000FFCF90937F
:10405000B3018093B2010895809178020895909100
:10406000A202943031F58093550270935702609309
:10407000560282E08093E9008FEF9091E800815032
:1040800095FD06C095ED9A95F1F700008111F5CFE9
:104090008091E80085FF0DC040E050E063E070E0F3
:1040A00085E592E00E9436228091E8008E77809329
:1040B000E8000895BC0184E00C942F20BC0183E04B
:1040C0000C942F20CF93DF9320911F01222339F0EE
:1040D00020917A0227FF03C060E222E002C068E07C
:1040E00021E02093E9002FEF3091E800215035FDC9
:1040F00006C035ED3A95F1F700002111F5CF20917A
:10410000E80025FF1DC0EC0180911F01811105C051
:1041100040E050E068E070E003C070E040E050E054
:10412000CE010E9436228091E8008E778093E800CD
:1041300080E2FE01A8E5B2E001900D928A95E1F7D8
:10414000DF91CF91089508958091A102811109C056
:104150000E94C7230E9424248091E20084608093FF
:10416000E20008951092A102089508950895089517
:1041700042E061EC81E00E94402342E261EC82E097
:104180000C9440238091A402833009F460C030F481
:10419000813071F0823009F499C008958A3009F4B1
:1041A00085C08B3009F46BC0893009F0A7C020C0EE
:1041B0008091A302813A09F0A1C08091E800877F35
:1041C0008093E8008091A7029091A802892B21F4A6
:1041D00060E288E592E003C060E080E090E070E09B
:1041E0000E9481228091E8008B778093E8000895F7
:1041F0008091A302813209F081C08091A702909141
:10420000A802029708F07AC08091E800877F809327
:10421000E8008091E80082FD05C08091A202811132
:10422000F8CF6CC02091F3008091F20090E0922BC7
:10423000029729F48091F1008B7F813021F48091E5
:10424000F100809378028091E8008B7753C08091D1
:10425000A302813A09F052C08091A7029091A8026E
:10426000892B09F04BC08091E800877F8093E8009C
:104270008091E80080FFFCCF80911F0136C08091C3
:10428000A3028132D9F58091A7029091A802892BCF
:10429000A9F58091E800877F8093E8000E9475234C
:1042A0008091A50280931F010C9462078091A30264
:1042B000813221F58091E800877F8093E8000E9499
:1042C00075238091A6028093790208958091A302BC
:1042D000813AA1F48091E800877F8093E800809183
:1042E000E80080FFFCCF809179028093F1008091FB
:1042F000E8008E778093E8000C947523089584B7C6
:10430000877F84BF0FB6F894A8958091600088617C
:1043100080936000109260000FBE90E080E80FB6BE
:10432000F89480936100909361000FBE0C94590E35
:104330000E94C7230E942424E2EEF0E08081846082
:10434000808378940E94B9260E94670E85E191E0EF
:104350000C940F1E8091A2028530A9F48091A202D4
:10436000853079F40E94421F8091A0028823B1F326
:104370000E942A1F882391F30E9420220E94620734
:10438000EDCF0E94781F0C94710E0C94C721292F39
:10439000332723303105C9F060F42130310581F035
:1043A0002230310509F044C08BE390E027E933E087
:1043B00043C021323105E1F02232310549F138C0E4
:1043C00082E190E022ED33E037C0992781309105FA
:1043D00049F028F0029761F5EBE6F3E005C0E3E968
:1043E000F3E002C0EBE7F3E0849190E09F0124C08A
:1043F0006115710541F061307105D1F489E090E0FB
:1044000022EC33E019C089E090E029EA33E014C0DF
:104410006115710541F06130710551F48DE690E050
:1044200024EE33E009C080E490E021E534E004C0EC
:1044300080E090E020E030E0FA01318320830895AD
:1044400080E189BD82E189BD09B400FEFDCF809184
:10445000D8008F7D8093D8008091E00082608093A7
:10446000E0008091E00081FDFCCF0895CF92DF92C3
:10447000EF92FF920F931F93CF93DF93EC018B0189
:104480007A010E949423811133C0E114F10439F0C0
:10449000F70180819181081B190BC80FD91FC12C0E
:1044A000D12C0115110519F18091E80085FD16C088
:1044B0008091E8008E778093E800E114F10449F0E0
:1044C000F70180819181C80ED91ED182C08285E01A
:1044D0000FC00E949423882321F30AC089918093FE
:1044E000F10001501109FFEFCF1ADF0ADACF80E0A7
:1044F000DF91CF911F910F91FF90EF90DF90CF90C0
:1045000008952091A9023091AA022617370748F092
:104510006115710539F42091E8002E772093E800A9
:1045200001C0B901FC0120E06115710579F18091AC
:10453000A2028823F1F18530F1F18091E80083FD3A
:104540003CC08091E80082FD2EC08091E80080FF91
:10455000EBCF2091F3008091F20090E0922B611557
:10456000710551F08830910538F421912093F100C4
:10457000615071090196F3CF21E0089709F020E01E
:104580008091E8008E778093E800CECF2111CFCFC5
:104590000AC08091A202882361F0853061F0809189
:1045A000E80083FD0AC08091E80082FFF2CF80E03E
:1045B000089582E0089583E0089581E008952091B0
:1045C000A9023091AA022617370748F06115710534
:1045D00039F42091E8002E772093E80001C0B9015A
:1045E000FC0120E06115710591F18091A202882300
:1045F00009F440C0853009F43FC08091E80083FD94
:104600003DC08091E80082FD2FC08091E80080FFCE
:10461000E9CF2091F3008091F20090E0922B611598
:10462000710559F08830910540F424912093F100F0
:104630003196615071090196F2CF21E0089709F097
:1046400020E08091E8008E778093E800CBCF2111A5
:10465000CCCF0AC08091A202882361F0853061F03E
:104660008091E80083FD0AC08091E80082FFF2CFCC
:1046700080E0089582E0089583E0089581E0089540
:10468000982F973068F59093E900981739F070915A
:10469000EC002091ED005091F00003C0242F762F04
:1046A00050E021FD02C09F5FECCF3091EB003E7FD8
:1046B0003093EB003091ED003D7F3093ED00309171
:1046C000EB0031603093EB007093EC002093ED0031
:1046D0005093F0002091EE0027FDE5CF80E0089593
:1046E0008F708093E90081E008958091A30287FF95
:1046F00011C08091E80082FD05C08091A202811165
:10470000F8CF11C08091E8008B770BC08091A20296
:10471000882349F08091E80080FFF8CF8091E8007D
:104720008E778093E80008952091E4003091E500B1
:1047300095E64091EC00842F817040FF23C080916A
:10474000E80080FD1DC08091A202882399F0853089
:1047500099F08091EB0085FD11C04091E4005091EB
:10476000E5002417350729F3915011F09A01E1CFA4
:1047700084E0089582E0089583E0089581E008953B
:1047800080E008954091E80042FFDDCF08950E9447
:1047900035240E943D24E0EEF0E08081816080833A
:1047A000E8EDF0E080818F77808319BCA7EDB0E061
:1047B0008C918E7F8C9380818F7E80831092A1025A
:1047C00008950F931F93CF93DF930E9435240E9487
:1047D0003D24C8EDD0E088818F7788838881806808
:1047E000888388818F7D888319BC1092A2021092E1
:1047F0009E021092A00210929F0200EE10E0F801BB
:1048000080818B7F808388818160888342E060E043
:1048100080E00E944023E1EEF0E080818E7F808383
:10482000E2EEF0E080818160808380818860808317
:10483000F80180818E7F8083888180618883DF9109
:10484000CF911F910F910895E8EDF0E080818F7E68
:104850008083E7EDF0E080818160808384E082BF27
:1048600081E08093A1020C94E123E8EDF0E08081E7
:104870008E7F80831092E20008951092DA001092E9
:10488000E10008951F920F920FB60F9211242F93FB
:104890003F934F935F936F937F938F939F93AF93C8
:1048A000BF93EF93FF938091E10082FF0BC0809153
:1048B000E20082FF07C08091E1008B7F8093E100DE
:1048C0000E94B8268091DA0080FF1FC08091D80036
:1048D00080FF1BC08091DA008E7F8093DA00809188
:1048E000D90080FF0DC080E189BD82E189BD09B496
:1048F00000FEFDCF81E08093A2020E94A42005C0AB
:1049000019BC1092A2020E94B2208091E10080FFA7
:1049100019C08091E20080FF15C08091E2008E7F77
:104920008093E2008091E20080618093E2008091B8
:10493000D80080628093D80019BC85E08093A202E1
:104940000E94B6208091E10084FF30C08091E20097
:1049500084FF2CC080E189BD82E189BD09B400FEDD
:10496000FDCF8091D8008F7D8093D8008091E100A9
:104970008F7E8093E1008091E2008F7E8093E20041
:104980008091E20081608093E20080919E02882302
:1049900011F084E007C08091E30087FD02C081E050
:1049A00001C083E08093A2020E94B7208091E100C1
:1049B00083FF29C08091E20083FF25C08091E10040
:1049C000877F8093E10082E08093A20210929E0292
:1049D0008091E1008E7F8093E1008091E2008E7FE4
:1049E0008093E2008091E20080618093E20042E0E7
:1049F00060E080E00E9440238091F0008860809316
:104A0000F0000E94B520FF91EF91BF91AF919F916F
:104A10008F917F916F915F914F913F912F910F9067
:104A20000FBE0F901F9018951F920F920FB60F9206
:104A300011242F933F934F935F936F937F938F93A3
:104A40009F93AF93BF93CF93DF93EF93FF93C09167
:104A5000E900CF708091EC00D82FD17080FDD0E8B4
:104A60001092E9008091F000877F8093F0007894A5
:104A70000E9458251092E9008091F0008860809390
:104A8000F000CD2BCF70C093E900FF91EF91DF9143
:104A9000CF91BF91AF919F918F917F916F915F91D6
:104AA0004F913F912F910F900FBE0F901F9018952F
:104AB0001F93CF93DF93CDB7DEB7AA970FB6F894C5
:104AC000DEBF0FBECDBFE3EAF2E08091F10081933B
:104AD00022E0EB3AF207C9F70E94C2208091E80079
:104AE00083FF2EC18091A3029091A402492F50E030
:104AF0004A30510508F024C1FA01E059FF4F0C94E7
:104B00002E27803821F0823809F01AC108C0809120
:104B10009F029091A002992389F082600FC080913A
:104B2000A7028F70873008F00BC18093E900809155
:104B3000EB0085FB882780F91092E9009091E8004E
:104B4000977F9093E8008093F1001092F100D1C01C
:104B5000282F2D7F09F0F4C0882319F0823061F0EE
:104B6000EFC08091A502813009F0EAC0933009F0CE
:104B700080E08093A0022EC08091A50281112AC0FE
:104B80008091A7028F702FEF280F263008F0D8C031
:104B90008093E9002091EB0020FF1CC0933021F4AA
:104BA0008091EB00806214C09091EB009061909333
:104BB000EB0021E030E0A90102C0440F551F8A95A7
:104BC000E2F74093EA001092EA008091EB008860DF
:104BD0008093EB001092E9008091E800877F80933A
:104BE000E8000E947523ACC08111AAC01091A502F3
:104BF0001F778091E3008078812B8093E300809180
:104C0000E800877F8093E8000E9475238091E80088
:104C100080FFFCCF8091E30080688093E300111156
:104C200002C082E001C083E08093A20289C0805864
:104C3000823008F085C08091A5029091A6028C3D3B
:104C400053E0950779F583E08A838AE289834FB739
:104C5000F894DE01139620E03EE051E2E32FF0E00D
:104C600050935700E49120FF03C0E295EF703F5F3F
:104C7000EF708E2F90E0EA3010F0C79601C0C0961A
:104C80008D939D932F5F243149F74FBF8091E800AA
:104C9000877F8093E8006AE270E0CE0101960E946F
:104CA000812216C06091A7027091A802AE014F5FE9
:104CB0005F4F0E94C521BC01892B09F441C090912E
:104CC000E800977F9093E80089819A810E94DF2213
:104CD0008091E8008B778093E80032C0803881F5BE
:104CE0008091E800877F8093E80080919E02809306
:104CF000F1008091E8008E7772CF811121C0809100
:104D0000A5029091A60299270297D4F48091E80019
:104D1000877F8093E8008091A50280939E020E9485
:104D2000752380919E02811106C08091E30087FD6A
:104D300002C081E001C084E08093A2020E94B820FA
:104D40008091E80083FF0AC08091E800877F80930C
:104D5000E8008091EB0080628093EB00AA960FB68A
:104D6000F894DEBF0FBECDBFDF91CF911F910895A4
:104D70000895CF938091A2028823A1F0C091E90009
:104D8000CF709091EC00892F817090FD80E8C82B46
:104D90001092E9008091E80083FD0E945825CF70B1
:104DA000C093E900CF910895DB018F939F930E94F8
:104DB0005227BF91AF91A29F800D911DA39F900D8F
:104DC000B29F900D11240895AA1BBB1B51E107C08F
:104DD000AA1FBB1FA617B70710F0A61BB70B881F8B
:104DE000991F5A95A9F780959095BC01CD0108951A
:104DF00097FB072E16F4009407D077FD09D00E9488
:104E0000E42607FC05D03EF4909581959F4F0895C8
:104E1000709561957F4F0895A1E21A2EAA1BBB1BC6
:104E2000FD010DC0AA1FBB1FEE1FFF1FA217B30776
:104E3000E407F50720F0A21BB30BE40BF50B661F8C
:104E4000771F881F991F1A9469F760957095809550
:104E500090959B01AC01BD01CF010895EE0FFF1F9E
:104E60000590F491E02D09940E943C27332312F41D
:104E70008A1B9B0B0C944D27A29FB001B39FC001CE
:104E8000A39F700D811D1124911DB29F700D811D76
:104E90001124911D08950E943C27B7FF0895821B9D
:104EA000930B08950E943C27A59F900DB49F900DF1
:104EB000A49F800D911D11240895B7FF0C945227D3
:104EC0000E945227821B930B0895FC0141505040D1
:104ED00030F001900616D1F73197CF010895882759
:104EE00099270895FB01DC0104C08D910190801980
:104EF00021F441505040C8F7881B990B0895F99947
:104F0000FECF92BD81BDF89A992780B50895A6E19C
:104F1000B0E044E050E00C94B927A8E1B0E042E0F2
:104F200050E00C94B927262FF999FECF92BD81BD90
:104F3000F89A019700B4021639F01FBA20BD0FB6D7
:104F4000F894FA9AF99A0FBE08950396272F0E94B3
:104F500094270E949327252F0E949427242F0C9496
:104F600094270196272F0E9494270C949327DC0105
:104F7000CB01FC01F999FECF06C0F2BDE1BDF89A64
:104F8000319600B40D9241505040B8F70895F8940E
:024F9000FFCF51
:104F92000602010102000400040401191A1B1C1D6F
:104FA2001E1F2021222C206220A3205E205A2001D5
:104FB200E200E900EA00B500B600B700CD008301C7
:104FC200CC008A01920194012102230224022502CB
:104FD200260227022A02B300B4006F007000818209
:104FE20083E200E900EA00B500B600B700CD008315
:104FF20001CC008A0192019401210223022402259C
:1050020002260227022A02B300B4006F0070008158
:105012008283F0F1C6679091929394950001020207
:1050220002020606060909090909090F0F0F0F0FE7
:105032000F151515181919191919191919191923EB
:02504200240048
:00000001FF
