:100000000C949A010C94E1010C94E1010C94E1012F
:100010000C94E1010C94E1010C94E1010C94E101D8
:100020000C94E1010C94E1010C945D1A0C942F1BCB
:100030000C94B2150C94E1010C94E1010C94E101D3
:100040000C94E1010C94E1010C94E1010C94E101A8
:100050000C94E1010C940B160C94E1010C94E10159
:100060000C94E1010C94E1010C94E1010C94E10188
:100070000C94E1010C94E1010C94E1010C94E10178
:100080000C94E1010C94E1010C94E1010C94E10168
:100090000C94E1010C94E1010C94E1010C94E10158
:1000A0000C94E1010C94E1010C94E10165046504F8
:1000B00097049704E4041806180618060205970525
:1000C000A805A8050806180618061106B406B40601
:1000D000C606C606BD06C606C606C606B406B406ED
:1000E000C206C606C606C2069C1BC31BBB1CC31B9E
:1000F000BB1C0F1C321CBB1C891C981C1E001F0043
:1001000020002100220023000F51250000000000E4
:1001100000000000000000000000000000000000DF
:1001200000000000000000000000000000000000CF
:1001300000000000000000000000000000000000BF
:1001400000000000000000000000000000000000AF
:10015000000000000000000000000000000000009F
:10016000000000000000000000000000000000008F
:10017000000000000000000000000000000000007F
:10018000000000000000000000000000000000006F
:10019000000000000000000000000000000000005F
:1001A000000000000000000000000000000000004F
:1001B000000000000000000000000000000000003F
:1001C000000000000000000000000000000000002F
:1001D000000000000000000000000000000000001F
:1001E00000000000000000000000000014004C05AA
:1001F000040029031D001B000100060016034C002B
:10020000610075006E00630068002000500061000E
:100210006400000020034D00610070006C00650068
:10022000200043006F006D007000750074006900CD
:100230006E00670000000403090409023B0002018C
:1002400000A0FA09040000010301010009211101C5
:1002500000012240000705810308000A090401008B
:100260000103000000092111010001226D000705B2
:10027000820320000A120100020000000837130761
:100280006001000102000105010980A10185031937
:10029000012AB700150126B700950175108100C02D
:1002A000050C0901A101850419012AA002150126E6
:1002B000A002950175108100C005010906A1018504
:1002C00005050719E029E715002501950875018145
:1002D000020507190029EF1500250195F075018128
:1002E0000205081901290595057501910295017509
:1002F000039101C005010906A101050719E029E7DD
:100300001500250195087501810295017508810187
:100310000507190029FF150026FF009506750881BD
:1003200000050819012905950575019102950175CA
:10033000039101C011241FBECFEFDAE0DEBFCDBFB5
:1003400004B603FE27C080913D0290913E02A09129
:100350003F02B09140028730904BA740B04BD1F4A0
:1003600010923D0210923E0210923F021092400203
:1003700014BE84B7877F84BF0FB6F894A895809188
:100380006000886180936000109260000FBEE0E022
:10039000F8E3099511E0A0E0B1E0ECE8FAE302C06F
:1003A00005900D92A437B107D9F722E0A4E7B1E098
:1003B00001C01D92AD33B207E1F70E941B120C94ED
:1003C000441D0C9400000C94E501089581E008950B
:1003D00081E008950C94E80108950C94EC011F93BA
:1003E000CF93DF9300D000D01F92CDB7DEB7498303
:1003F0005A836B833091760189819A81311114C0BF
:10040000662359F0222349F00E945408182F682FC0
:1004100089819A810E94010803C00E942A08182F2E
:1004200069817A81812F04C00E94540869817A8190
:100430000F900F900F900F900F90DF91CF911F9121
:100440000C94C90EFC01262F408151816281738179
:1004500084810C94EF0181E00895CF93DF93EC0148
:1004600060E00E942202BE01DF91CF910C94ED0169
:100470000E94D7100E94A9020C94E3010C940D1164
:1004800008950E94A2060E9440022FEF84E39CE0A0
:10049000215080409040E1F700C000000C943116DC
:1004A0000F931F93CF93DF938C0161E00E94220290
:1004B000EC01B8010E94EA018823F1F1B801CE01F4
:1004C0000E9499128823C1F1B801CE010E94EB125B
:1004D000882391F1B801CE010E941614882361F19E
:1004E000F8018281882309F1CB358DE5D807C1F069
:1004F00050F4C115FCE5DF0781F0CF3DDC45A9F4E0
:100500000E94E90D19C0CC35EDE5DE0761F0CD356F
:10051000DD4559F40E94730C08C00E9441020CC0D2
:100520000E947C0C02C00E947F0CC801DF91CF9119
:100530001F910F910C94E60180E0DF91CF911F9104
:100540000F91089508950C94A20281E008950C94EF
:10055000A5020895CF93C82F0E94A3028C2F0E945A
:10056000A702CF910895CF93DF93CDB7DEB72B9736
:100570000FB6F894DEBF0FBECDBF4F835887698793
:100580007A878B8761110E94A20C9E012F5F3F4FDB
:1005900086E0F90111928A95E9F785E0FE01379628
:1005A000D90101900D928A95E1F789819A814C8158
:1005B0005D81452B31F09F3F31F491E08F3F19F47D
:1005C00003C091E001C090E090FF09C049815A81C9
:1005D0006B817C818D819E810E94A20B05C0C90127
:1005E0000E942B028111F2CF2B960FB6F894DEBF3A
:1005F0000FBECDBFDF91CF910895FC018081918125
:100600000E9496080895CF93882309F49CC0C82FB0
:100610008238C1F40E944C1481FD95C069E3809139
:100620000001909101010E9434150E94D40C2FEF1B
:1006300081EE94E0215080409040E1F700C000003E
:1006400069E319C0833801F50E944C1480FD7BC01A
:1006500063E580910001909101010E9434150E9490
:10066000D40C2FEF81EE94E0215080409040E1F7D0
:1006700000C0000063E580910001909101010E949B
:100680003F15CF910C94D40C8438C1F40E944C14C3
:1006900082FD59C067E480910001909101010E94A0
:1006A00034150E94D40C2FEF81EE94E0215080404D
:1006B0009040E1F700C0000067E4DDCF8CEF8C0FC5
:1006C000813AD0F46C2F80910001909101010E9439
:1006D000B414882349F06C2F80910001909101019E
:1006E0000E943F150E94D40C6C2F809100019091C4
:1006F00001010E943415C5CF80E28C0F883048F488
:10070000C77081E001C0880FCA95EAF70E94850C86
:10071000B8CFEBE5EC0FE33040F4F0E0E55CFE4FE2
:10072000808190E0CF910C947214C85AC73158F46C
:10073000EC2FF0E0EE0FFF1FE35FFE4F8081918111
:10074000CF910C948814CF910895882309F45BC04D
:10075000682F823879F40E944C1481FF54C069E3F9
:1007600080910001909101010E9434150E94D40CE7
:1007700069E310C08338B1F40E944C1480FF43C079
:1007800063E580910001909101010E9434150E945F
:10079000D40C63E580910001909101010E943F1506
:1007A0000C94D40C843879F40E944C1482FF2BC032
:1007B00067E480910001909101010E9434150E942C
:1007C000D40C67E4E7CF8CEF860F813A18F380E210
:1007D000860F883048F4677081E001C0880F6A9501
:1007E000EAF70E948B0CDCCF8BE5860F833020F478
:1007F00080E090E00C947214685A673120F480E035
:1008000090E00C94881408951F93CF93DF93182FD2
:10081000EB010E940303209741F08FE99FE00197CD
:10082000F1F700C000002197F6CF812FDF91CF9123
:100830001F910C94A503893319F060E070E002C0A9
:1008400060E570E00C940404882321F00E94850C7C
:100850000C94D40C0895882321F00E948B0C0C94E6
:10086000D40C0895CF92DF92EF92FF920F931F93D3
:10087000CF93DF937C01062FC72FFC01D281158116
:1008800012951F700E945A0C882399F0DD2389F07D
:100890008C2F807F803421F080E2800F883048F0F8
:1008A00082E00E94240D0E945A0C91E0D82ED92695
:1008B00001C0D12CCC2EC2948FE0C8228C2D90E0A8
:1008C000FC01EA5AFF4F0C94EF1C8C2F807FCF70F5
:1008D000882311F0C295C07FDD2399F0CC2309F461
:1008E00082C180E2800F883010F0011104C08C2F8B
:1008F0000E94850C03C08C2F0E94950C0E94D40C82
:1009000072C1802F0E94A503CC2309F491C180E21B
:10091000800F883010F0011104C08C2F0E948B0CC6
:1009200003C08C2F0E949B0C0E94D40C81C18C2F81
:10093000807FCF70803211F0C295C07F002319F004
:100940000130C9F022C0DD2371F0112341F01130D4
:1009500031F40E94B50C8C2B0E94BD0C69C10E9421
:10096000B50C8C2B1DC0112319F0113009F460C196
:100970000E94CA0C25C0DD2321F0163008F058C1B2
:100980000EC0153008F054C11BC0DD2361F01123E7
:1009900031F0F701858180FF26C18F7085838C2F10
:1009A0000E94240445C1112359F0093309F02CC1D8
:1009B000FFEF27EE83E0F15020408040E1F722C1B5
:1009C0008C2F0E942B0434C18C2F869586958370C2
:1009D00019F0813061F02CC1DD2321F0802F9C2F94
:1009E000937002C080E090E00E94721429C1DD2360
:1009F00021F0802F9C2F937002C080E090E00E9435
:100A000088141EC18C2F837009F045C0D11114C108
:100A1000402F429546954770440F440F602F6F70EA
:100A2000862F90E0A0E0B0E0042E04C0880F991F4C
:100A3000AA1FBB1F0A94D2F704FF10C00FE010E0FA
:100A400020E030E004C0000F111F221F331F4A9521
:100A5000D2F7009510952095309503C000E010E086
:100A60009801C695C695C370BC01CD01602B712B52
:100A7000822B932BC23049F058F4C13019F00E94F8
:100A80001707DAC00E940507D7C00E942907D4C003
:100A90000E940307D1C0DD2319F08C2F817001C0A3
:100AA0008695882309F4C8C0402F42954695477023
:100AB000440F440F602F6F70862F90E0A0E0B0E0ED
:100AC000042E04C0880F991FAA1FBB1F0A94D2F7D7
:100AD00004FF10C00FE010E020E030E004C0000F81
:100AE000111F221F331F4A95D2F7009510952095AC
:100AF000309503C000E010E09801C695C695C3701C
:100B0000BC01CD01602B712B822B932BC23049F09D
:100B100058F4C13019F00E94DC078EC00E94CA0749
:100B20008BC00E94EE0788C00E943D0785C0CF7031
:100B3000DD2339F08C2F0E946307802F0E9424044C
:100B40007BC0802F0E942B048C2F0E94840774C0CE
:100B5000023F01F128F4003F41F0013FA1F03FC006
:100B6000033FF9F0043F39F13AC0DD2341F015307D
:100B700008F05EC08C2F8F710E94A90759C01630F3
:100B800008F056C0F7CFDD2339F08C2F8F710E940B
:100B900063074EC0DD23C9F38C2F8F710E94840739
:100BA00047C0DD2329F08C2F8F710E944E0740C073
:100BB0000E9449073DC0DD2349F0CF718C2F0E9470
:100BC000630763E08C2F0E94090D32C081E00E9410
:100BD000240D123068F182E00E94240D29C0DD232B
:100BE00031F0112391F2802F0E94030321C01123C1
:100BF00099F2093349F49FEFE7EEF3E09150E040BA
:100C0000F040E1F700C00000802F0E94A50310C053
:100C10004C2F4F70602FC7010E94C50E0E94C40860
:100C20000FC04C2F4F70602FC7010E94C80E08C024
:100C300088EF8C0D843020F40E944C140E94AA028C
:100C4000DD20C9F00E94560C80FD15C0F70112820C
:100C50000E94500C0E946307C7010E945C060E941C
:100C6000500CDF91CF911F910F91FF90EF90DF908B
:100C7000CF900C948407DF91CF911F910F91FF903B
:100C8000EF90DF90CF9008950F931F93CF93DF9352
:100C9000EC01688179818A810E94A1088C010E94FF
:100CA00000080E94F106B801CE010E943204DF91D3
:100CB000CF911F910F910895CF93DF93EC0198810D
:100CC00089812B813C81232B31F08F3F31F481E0EE
:100CD0009F3F19F403C081E001C080E080FD19C08E
:100CE000CE010E94500281110CC00E945A0C882330
:100CF00081F08A81882369F082E0DF91CF910C94A2
:100D0000240DCE010E944406CE01DF91CF910C94B8
:100D10002D02DF91CF91089580E090E00E9472143F
:100D200080E090E00E9488140E94A20C0E94B20C05
:100D30000C94D40C80910001909101010E944A15FD
:100D40000C948C060E94920C0C949A06E92FE29562
:100D5000EF704E2F50E0FA013297EE30F105B0F40B
:100D6000EA59FF4F0C94EF1C803F91F018F4883E35
:100D700068F40EC0843F51F40BC0883E48F0813FB8
:100D800029F406C093FB882780F9089580E0089530
:100D900081E00895FC01808191810E9496080E9463
:100DA000A6060895CF93DF9300D000D01F92CDB751
:100DB000DEB70F900F900F900F900F90DF91CF91B3
:100DC0000895CF93DF9300D000D000D0CDB7DEB729
:100DD00026960FB6F894DEBF0FBECDBFDF91CF9140
:100DE0000895089508950C94F2060C94F3060E9459
:100DF000F506609380017093810180938201909346
:100E000083010C948C060C94F7060F931F930091AA
:100E10008001109181012091820130918301602B2A
:100E2000712B822B932B1F910F910C94F7060F932C
:100E30001F930091800110918101209182013091D6
:100E4000830160237123822393231F910F910C94BC
:100E5000F7060F931F93009180011091810120915B
:100E600082013091830160277127822793271F9188
:100E70000F910C94F7060C94F2060E943B076093C6
:100E80007C0170937D0180937E0190937F010C948F
:100E90008C0660E070E0CB010C943D070F931F932C
:100EA00041E050E060E070E08A019B0104C0000F67
:100EB000111F221F331F8A95D2F7C901B8011F9154
:100EC0000F910C943D070F931F9341E050E060E0B9
:100ED00070E004C0440F551F661F771F8A95D2F734
:100EE00080917C0190917D01A0917E01B0917F0164
:100EF0008A019B01082B192B2A2B3B2BC901B80116
:100F00001F910F910C943D070F931F9341E050E008
:100F100060E070E004C0440F551F661F771F8A957C
:100F2000D2F7409550956095709580917C01909195
:100F30007D01A0917E01B0917F018A019B01082370
:100F400019232A233B23C901B8011F910F910C9447
:100F50003D070F931F9341E050E060E070E004C054
:100F6000440F551F661F771F8A95D2F780917C0129
:100F700090917D01A0917E01B0917F018A019B013A
:100F8000082719272A273B27C901B8011F910F916C
:100F90000C943D070F931F9300917C0110917D01EC
:100FA00020917E0130917F01602B712B822B932B3E
:100FB0001F910F910C943D070F931F9300917C019B
:100FC00010917D0120917E0130917F01602371237A
:100FD000822393231F910F910C943D070F931F932E
:100FE00000917C0110917D0120917E0130917F0163
:100FF00060277127822793271F910F910C943D073B
:101000000895990F890FE82FE695E695E695877084
:1010100051E001C0550F8A95EAF785E0E89FF0019D
:101020001124E958FE4F20E030E070E04081CB0110
:10103000022E02C0969587950A94E2F781708195F9
:1010400084278523842781932F5F3F4F25303105E7
:1010500069F70895990F890F682F669566956695CB
:10106000982F977085E0689FB001112440E050E010
:1010700080E0FB01E40FF51FE958FE4F208130E0CE
:10108000092E02C0369527950A94E2F7217033277E
:10109000042E01C0220F0A94EAF7822B4F5F5F4FA4
:1010A0004530510531F70895BF92CF92DF92EF920C
:1010B000FF920F931F93CF93DF938C01C0907C011D
:1010C000D0907D01E0907E01F0907F0180918001C1
:1010D00090918101A0918201B0918301C82AD92AFF
:1010E000EA2AFB2ACFE1D0E0D701C6010C2E04C0CA
:1010F000B695A795979587950A94D2F780FD04C079
:10110000219790F7B12C07C0BC2EB8018C2F0E94FC
:10111000F80F0197A9F38B2DDF91CF911F910F91BC
:10112000FF90EF90DF90CF90BF900895CF93DF9323
:10113000EC010E945408BE010E94F80FDF91CF918C
:1011400008951F93CF93DF93EB019091760199233C
:1011500021F0CB010E94960813C0882349F0CB01EF
:101160000E945408182F682FCE010E94010804C065
:10117000CB010E942A08182FBE01812F0E94F80F70
:10118000DF91CF911F910895EF92FF920F931F93DC
:10119000CF93DF938C01892B09F46CC0F12CEE24E2
:1011A000E394E8012196F8018491843740F4843077
:1011B00008F051C0813081F0823019F15BC0853771
:1011C00009F444C0A8F19CE7980F903708F052C08A
:1011D0008F770E94A50341C00E5F1F4FFE018491CF
:1011E00090E2980F983050F48770FE2D01C0FF0FE9
:1011F0008A95EAF78F2F0E94A50C14C00E94030362
:101200002DC00E5F1F4FFE01849190E2980F983021
:1012100060F48770FE2D01C0FF0F8A95EAF78F2FCB
:101220000E94AB0C0E94D40C19C00E94A50316C0EA
:101230000E5F1F4FFE01C491CC2381F08FE99FE028
:101240000197F1F700C00000C150F6CF0E5F1F4FAD
:10125000FE01F49003C00E9403038E018F2D8823AA
:1012600009F49FCFEFE9FFE03197F1F700C00000EC
:101270008150F5CFDF91CF911F910F91FF90EF90AB
:1012800008951F93CF93DF93C091840116E080915E
:101290008501C81799F0D0E01C9FF0011D9FF00D4B
:1012A0001124EA57FE4F408151816281738184810C
:1012B00095810E94E1062196C770E9CFDF91CF9119
:1012C0001F9108954091B6015091B7016091B80106
:1012D0007091B9018091BA019091BB010C94E10623
:1012E0000F931F93CF93DF938091BB0182958F70F3
:1012F00009F05DC08091B801882309F458C080913D
:101300008401109185016091B6017091B701C0917F
:10131000B901D091BA0191E06F3F09F090E0292F17
:1013200006E0811709F443C0209721F07F3F21F0A8
:1013300030E003C031E001C0322F90E030FD34C016
:10134000089FF001099FF00D1124DF01AA57BE4F3D
:1013500011963C911197371327C03C91361324C046
:1013600012963C91129731111FC013964D915C91CA
:1013700014974C1B5D0B483C5105B0F48091BB01A8
:101380008F7080618093BB01E557FE4F80818F7025
:101390008061808386EB91E00E945C06DF91CF91B3
:1013A0001F910F910C94410901968770BACFDF917C
:1013B000CF911F910F9108959F92AF92BF92CF92BC
:1013C000DF92EF92FF920F931F93CF93DF93CDB7EE
:1013D000DEB761970FB6F894DEBF0FBECDBF8C01AC
:1013E00085E0F801DE011D9601900D928A95E1F7E6
:1013F000F801E2809091B6016091B7012091B901A6
:101400003091BA012115310531F06F3F31F481E09F
:101410009F3F19F403C081E001C080E0F82FF17014
:101420009F2E80FD3FC1F80140815181A380B4808F
:1014300086EBC82E81E0D82EF090B801F501E21BB2
:10144000F30BFF2009F4D9C08091BB01E83CF10502
:1014500008F095C0282F207F09F052C0561313C002
:10146000491311C0FE2CE1100EC08F708061809373
:10147000BB010E946209C6010E945C068091BB010B
:10148000F80185834CC1AB2831F05F3F31F481E036
:101490004F3F19F403C081E001C080E080FD03C02C
:1014A00081E08E2502C080E090E0F82FF170FF2EE1
:1014B00080FF1CC0809184012091850136E0821755
:1014C00009F40BC190E0389FF001399FF00D112411
:1014D000EA57FE4F6181561306C06081461303C070
:1014E0006281E61203C001968770E9CFFE2CEE20E0
:1014F00009F415C18091BB0181608093BB0154C088
:10150000561306C0491304C0E11002C0F80199C087
:10151000C8010E94CA06882361F1EE2051F1209192
:10152000BB01822F82958F7090E0029774F08091BA
:10153000B6019091B70198878F831986BB86AA86DA
:101540002C87CE0107960E945C0686E0F801A6EB88
:10155000B1E001900D928A95E1F70E9470090E9416
:1015600062090AC0561711F1C8010E94CA0681110A
:101570002CC0C8010E945C06FF24F394D0C0282F21
:10158000207F81F77A2DB98AA88A6E2D89890E94D9
:10159000D20686EB91E00E945C0686E0F60111928D
:1015A0008A95E9F70E946209F12CB9C04913DCCF92
:1015B000E110DACFF8018583C8010E945C0686E05D
:1015C000F60111928A95E9F7AAC0EE2091F22091D6
:1015D000BB01822F82958F7090E002970CF4B5CFFB
:1015E0008091B6019091B7019A8389831B82BD8255
:1015F000AC822E83CE010196A6CFE83CF10508F01F
:1016000044C0FE2CEE2009F4B4CF561330C0491369
:101610002EC02091BB0120FD21C0822F82958F70AA
:10162000482F50E041155105C9F0F80125834F308E
:10163000510541F08F5F982F9295907F822F8F7088
:10164000892B8583C8010E945C0686E0F801A6EB21
:10165000B1E001900D928A95E1F73CC086E0F80177
:10166000A6EBB1E001900D928A95E1F758C0C80150
:101670000E94CA06811169CF8091BB01816080936D
:10168000BB01C8010E945C064AC07A2DB98AA88AAB
:101690006E2D89890E94D20686E0F60111928A9504
:1016A000E9F718C0EE2009F464CFC8010E94CA0609
:1016B000F82E882309F45DCF86E0F801A6EBB1E0AF
:1016C00001900D928A95E1F786EB91E00E94FD0270
:1016D0000E9470090E94620922C04D875E878D8535
:1016E0009E850E949608292F22952F70223028F47B
:1016F0009F7039F0811105C00BC0243028F49F7011
:1017000049F4805E883020F0C8010E945C069F2C5E
:10171000F92C05C0F8019581907F99F7F9CF8F2DAD
:1017200061960FB6F894DEBF0FBECDBFDF91CF91AB
:101730001F910F91FF90EF90DF90CF90BF90AF90EF
:101740009F9008951F93CF93DF93CDB7DEB72C976B
:101750000FB6F894DEBF0FBECDBF4F8358876987A1
:101760007A878B879C87CE0107960E94DC098823A5
:10177000D1F09F8188852A853B85232B31F08F3FCF
:1017800031F481E09F3F19F403C081E001C080E0A3
:1017900080FD47C04F81588569857A858B859C85FA
:1017A0000E94E1063EC086E0FE013796DE011196FA
:1017B00001900D928A95E1F7FF81E8856A857B8526
:1017C0006115710531F0EF3F31F481E0FF3F19F40D
:1017D00003C081E001C080E080FD23C0209185012D
:1017E00030E0C9010196877099274091840150E04B
:1017F00084179507F1F1F983EA837D836C8396E082
:10180000929FD001939FB00D1124AA57BE4FFE01A5
:10181000319601900D929A95E1F7809385010E948F
:10182000410916E08091840190918501891771F139
:10183000189FC00111248A579E4F0E94DC098823FB
:1018400029F1E09184011E9FF0011124EA57FE4F17
:101850004081518162817381848195810E94E1067A
:101860008091840190E0019687709927809384018C
:10187000D9CF0E94A2061092850110928401E6EB56
:10188000F1E086E0DF011D928A95E9F72C960FB60C
:10189000F894DEBF0FBECDBFDF91CF911F910895A9
:1018A0008091BC0185958595859508958091BC01B1
:1018B000877008959091BC01977081E009F480E0F1
:1018C00008959091230292FB222720F9281751F0C6
:1018D00080FB92F99093230280912202909123023F
:1018E0000C94650D08958091230282FB882780F96E
:1018F00091E089270C94610C81E00C94610C80E0EC
:101900000C94610C8091E00108959091E001892B85
:101910008093E001089580959091E0018923809360
:10192000E00108951092E00108959091DF01892B64
:101930008093DF01089580959091DF018923809342
:10194000DF0108951092DF0108959091DE01892B47
:101950008093DE01089580959091DE018923809324
:10196000DE0108951092DE0108958091BD01089571
:1019700008950C94B80C0C94B90C9091230292FD2C
:1019800008C09091BD01981721F08093BD010C947F
:10199000BB0C08958091BD01882329F01092BD01F0
:1019A00080E00C94BB0C0895E0910001F0910101DE
:1019B0008091E0018083E0910001F091010190812C
:1019C0008091DF01892B8083E0910001F09101017A
:1019D00090818091DE01892B80838091BD018823D5
:1019E00081F0E0910001F09101019081892B8083C9
:1019F00080910001909101010E949E1481110E942A
:101A0000CA0C80910001909101010C9458140C941F
:101A1000B80C9091230292FD10C098E0899F90012C
:101A20001124262B2093BC010E9463078091BC01E6
:101A30008595859585950C94070D0C9463071092F8
:101A4000BC0180E00C94070D2091BC01809582239D
:101A50008093BC01982F977041F430E0482F082EF6
:101A6000000C550B2417350721F49091230292FFA7
:101A700007C08595859585950E9484070C941F0D58
:101A8000089580E090E00E940A1D21E0893E9E4F6B
:101A900009F020E0822F089582E090E00C94021D6E
:101AA00083E090E00C94021DCF9384E090E00E94CC
:101AB000021DC82F82E290E00E94021D2C2F30E010
:101AC000A901582BCA01CF910895CF93C92F682F30
:101AD00084E090E00E94101D6C2F82E290E0CF9194
:101AE0000C94101DAB01BC018FE090E00C94221D02
:101AF000AB01BC0183E190E00C94221D60E070E03A
:101B0000CB010C94780D60E070E0CB010E94720D67
:101B10000C947E0D69EE7EEF80E090E00E942E1D19
:101B200060E082E090E00E94101D60E083E090E0C1
:101B30000E94101D1092800110928101109282016A
:101B40001092830160E084E090E00E94101D60E04C
:101B500082E290E00E94101D60E085E090E00E942B
:101B6000101D60E086E090E00E94101D6FEF87E09E
:101B700090E00E94101D40E050E0BA0188E090E043
:101B80000E94221D60E08DE090E00E94101D40E068
:101B900050E0BA0188E190E00E94221D60E087E1F8
:101BA00090E00E94101D40E050E0BA018CE190E00E
:101BB0000E94221D60E070E080E290E00E942E1DF5
:101BC00040E050E0BA0188E190E00E94221D0C94B0
:101BD000830D0C948A0D682F8EE090E00C94101DFC
:101BE0000E94F0156093EA017093EB018093EC0181
:101BF0009093ED016093E6017093E7018093E80113
:101C00009093E901089585B7806885BF85B780689E
:101C100085BF089581E008950C940A0E08950C94F0
:101C20000E0E0C940E0E0C94110E0C940E0E0C94C1
:101C3000150E0C940E0E0E94030E84ED90E10E948E
:101C400042160E94190E0C94170E0E940F0E0C944F
:101C50000E0E0E94DB150E948A110C94130EBF9287
:101C6000CF92DF92EF92FF920F931F93CF93DF9368
:101C7000CDB7DEB72A970FB6F894DEBF0FBECDBF43
:101C80000E94A21181110E94F00D92EEC92E91E0E6
:101C9000D92E00E010E0B02E802F0E94FB10E82E1D
:101CA000F601F1906F01F82679F18091EE0181FD46
:101CB0000E940111F0FC07C0F1FE26C0DD24D39480
:101CC00082E0F82E03C0D12CFF24F3940E940C0E66
:101CD000882399F0DE82BF82EF2081E009F480E062
:101CE00088870E94E4158160782F9A8789874E81C2
:101CF0005F8168858A850E94B302F801EE51FE4F2C
:101D00008081F826F08216C00F5F1F4F0430110546
:101D100009F0C1CF8FEF89838A831B820E94E4156B
:101D20008160782F9D838C8349815A816B818D815D
:101D30000E94B3020E944C149091E1018917A9F00E
:101D40000E944C148093E1012A960FB6F894DEBFEE
:101D50000FBECDBFDF91CF911F910F91FF90EF90FC
:101D6000DF90CF90BF900C94AA022A960FB6F894F9
:101D7000DEBF0FBECDBFDF91CF911F910F91FF90BE
:101D8000EF90DF90CF90BF90089580E090E00895AD
:101D90000895E72FF0E094E0899FE00DF11D1124F4
:101DA000EE0FFF1FE60FF11DEE0FFF1FE450FF4F78
:101DB000859194910895880F991FFC01E450FE4F7E
:101DC000859194910895CF93DF930E94FD0FEC01CC
:101DD000811520E5920708F041C0811540E4940781
:101DE00008F0CBC0803E910520F5803C910508F0BD
:101DF000B8C0883A910570F4853A910508F0A8C0FA
:101E00008130910509F4A1C008F4EBC0049708F0F3
:101E1000EBC0E7C08F3B910508F0E3C0885AC82F9C
:101E2000D0E0CC0FDD1FC25CDE4F888199819464C5
:101E3000DCC0811550E2950750F4C11581E0D80748
:101E400008F0D2C0C83ED10508F4CEC0CAC0811582
:101E500020E3920708F08AC09F7085C0811545E590
:101E6000940708F046C0811554E5950708F09DC019
:101E7000C11582E5D80718F5C11521E5D20708F08C
:101E80007FC0CE01F4E096958795FA95E1F7282F6B
:101E900023703C2F337081E090E002C0880F991FBF
:101EA0003A95E2F79C68922B2C2F2F702695269559
:101EB00040E2249F90011124822B932B96C09E0117
:101EC000237033279C2F96959695C115D34508F01E
:101ED0005CC041E050E002C0440F551F2A95E2F774
:101EE00080E2989F90011124CA01822B932B9C6859
:101EF0007CC0811559E5950798F4C11588E5D80788
:101F000008F058C0C11526E5D20708F06AC08C2F2A
:101F10000E9491108F7190E0982F8827906265C081
:101F200081154AE5940708F44AC0905681159042FD
:101F300008F057C08D2F8F710E9491109E0133279A
:101F400030628F71A901582B4AC081E090E04DC0EA
:101F5000855AC82FD0E0C459DE4F888190E0906444
:101F600044C0805C91090E94DB0E3FC09927D3FFDB
:101F700002C0986C3AC0906C38C09F70906A35C0AF
:101F80009C2F8827816F906A30C041E050E002C0EA
:101F9000440F551F2A95E2F780E2989F9001112483
:101FA000CA01822B932B9A6820C0982F8827846FB0
:101FB000906A1BC09C2F8827806F906A16C08F7014
:101FC0000E9491109E0194E0369527959A95E1F72D
:101FD0002F7030E0322F22273069A901482BCA0127
:101FE00004C080E090E001C0CE01DF91CF91089560
:101FF0000E94C90E0E94E30E08958238910569F18E
:10200000B0F48133910509F46DC048F4893291052B
:1020100009F463C08A32910509F469C008958533D3
:10202000910509F455C089339105B9F00895833EAF
:10203000910569F138F4803E9105B1F0823E910539
:1020400009F10895863E9105A9F1873E9105B9F100
:10205000843E910509F064C023C02091220220FD36
:102060004FC021FD4DC008958091220280FD44C0E3
:102070008091230280FF44C08091220284FD42C0EF
:1020800083EE4DC08091220282FF38C0F5CF80914F
:10209000220282FD33C08091230280FD31C0ECCF4B
:1020A0008091230281FF32C08091220284FD2AC0E8
:1020B00087EE35C08091220283FF26C0F5CF809144
:1020C000220283FD21C08091230281FD1FC0ECCF3D
:1020D0008091220285FD1CC01DC08091220285FDD9
:1020E00019C016C08091220286FD16C017C08091CB
:1020F000220286FD13C010C089E311C082EE0FC01A
:1021000080EE0DC080E00BC086EE09C084EE07C0F3
:1021100089E205C085E303C08AE201C081E390E063
:1021200008959091220292FF0DC0282F2871283027
:1021300019F4877F846006C0282F2471243011F49D
:102140008B7F886093FF0DC0282F2871283119F4E8
:10215000877E846106C0282F2471243111F48B7E80
:1021600088612091230220FF0DC0382F387138304C
:1021700019F4877F816006C0382F3171313011F436
:102180008E7F886021FF0DC0282F2871283119F417
:10219000877E816106C0282F2171213111F48E7E46
:1021A000886194FD877E089580E0089508950E94D7
:1021B000410D811102C00E94E90D0E944C0D8093D7
:1021C000EE010E94540D90932302809322020E94FC
:1021D000D6100E94500D682F70E080E090E00E94C1
:1021E000030760917C0170917D0180917E01909147
:1021F0007F010C943B07E82FF0E0E85DFD4F808104
:102200000895089580EA8A95F1F7089500C0089529
:102210000C94021108950C940A110C940B11F8946B
:10222000E82FE295EF70F0E031A1282F2F7081E0C8
:1022300090E001C0880F2A95EAF7982F9095932394
:1022400091A392A1892B82A378940895CF93DF93D1
:10225000CFE6D1E089918F3F11F00E940F1181E00C
:10226000C337D807B9F782E90E940F1187EFDF91D2
:10227000CF910C940F11CF92DF92EF92FF920F93B8
:102280001F93CF93DF938C01C62FD0E0CE018159ED
:102290009E4F7C01FC0190819F3F99F1C62EF894DE
:1022A000E92FE295EF70F0E081A19F7021E030E02E
:1022B00001C0220F9A95EAF7822B81A382A1209573
:1022C000282322A378940E940611D9B07F9902C0D6
:1022D00082E001C080E0D2FADD24D0F891E0D92676
:1022E000D82AF70180818F3F11F00E940F1161E021
:1022F000D11001C060E08C2D0E940811C00FD11FC9
:10230000D882DF91CF911F910F91FF90EF90DF90D6
:10231000CF9008950E942611A4E2B2E01C92E8E258
:10232000F2E0108211961C921197118212961C9263
:102330001297128213961C92138284E00E94E41179
:102340000C9438021F93CF93DF9300D000D0CDB709
:10235000DEB719821A821B821C8210E0612FCE0127
:1023600001960E943B111F5F1430C1F744E050E01A
:10237000BE016F5F7F4F84E292E00E94F51C11E086
:10238000009709F410E0892B61F089819A81AB8173
:10239000BC818093240290932502A0932602B093DF
:1023A0002702212F44E068E272E084E292E00E947A
:1023B000E5110E943E02812F0F900F900F900F9019
:1023C000DF91CF911F9108950895FF920F931F936E
:1023D000CF93DF938C01F62ED72FC42F222349F001
:1023E00081E08093F1010E94E4159093F0018093C5
:1023F000EF018091F1018823C1F08091EF0190916C
:10240000F0010E94FC15059780F0EF2DFD2FD801FB
:102410004C2F50E0CD01801B910B841795071CF4C5
:102420008D918193F7CF1092F101DF91CF911F91A0
:102430000F91FF9008950E945C150E949A170E94C8
:10244000B3170E94C5170E94250EFBCF0F931F9351
:10245000CF93DF93C42FD22FFC0182818823C9F050
:102460004093F4010E94E4159093F3018093F201EC
:1024700080E28C0F883008F057C0C77081E001C03F
:10248000880FCA95EAF7DF91CF911F910F910C94B5
:1024900024048091F401481330C08091F20190919E
:1024A000F3010E94FC15883C910538F510E21D0FE0
:1024B000CD17B9F080E28C0F883040F4C77081E00E
:1024C00001C0880FCA95EAF70E942B04183028F53E
:1024D00081E09D2F977001C0880F9A95EAF70E94BE
:1024E0002404802F0E941B041830F0F4D77081E080
:1024F00001C0880FDA95EAF70AC080E28C0F8830B5
:1025000098F4C77081E001C0880FCA95EAF7DF919F
:10251000CF911F910F910C942B04802FDF91CF91BD
:102520001F910F910C941B04DF91CF911F910F917C
:1025300008950F939C01CB01243F4CE5340731F102
:1025400088F4293DFCE53F07D9F02A3D4CE53407E6
:1025500079F1283D3C45A9F506E221EE41EE68ED12
:102560007CE52BC0263FFCE53F07E1F0A8F0273FC4
:102570003C4539F507E225EE46EE67EF7CE51DC0E8
:1025800007E225EE45EE69ED7CE517C006E221EE97
:1025900040EE64EF7CE511C007E225EE44EE65EF06
:1025A0007CE50BC006E221EE42EE66EF7CE505C05D
:1025B00008E221E045EE6AED7CE50E94261280E00B
:1025C00008C0FC018281882319F01092F40101C037
:1025D00081E00F910895CF93DF93EC01FB0182819D
:1025E000882309F41FC1C230FCE5DF0708F41BC1D2
:1025F000C6319CE5D90738F09E012B5F3C45293058
:10260000310508F010C10E94540D9093230280936D
:102610002202C031ECE5DE0709F4C3C008F041C076
:10262000C8308CE5D80709F49AC0F0F4C430ECE562
:10263000DE0709F487C068F4C2308CE5D80709F4D6
:1026400077C0C330DC4509F0E3C08091220282608C
:1026500076C0C630ECE5DE0709F46EC008F07BC03A
:102660008091220288606BC0CC308CE5D80709F4D9
:1026700085C068F4CA30ECE5DE0709F474C008F0E0
:1026800079C00E94A20680912202806858C0CE3094
:102690008CE5D80709F476C008F07FC0809122024B
:1026A0008BC0CC3FECE5DE0709F44FC018F5C33111
:1026B0008CE5D80709F47DC078F4C131ECE5DE077C
:1026C00009F473C0C231DC4509F0A2C00E94A20621
:1026D000809122028F7733C0C5318CE5D80709F489
:1026E00072C008F486C0CB3FDC4509F091C08091F0
:1026F00023023EC0C115FDE5DF0709F45FC058F4B1
:10270000CE3F9CE5D90709F444C008F43FC080914E
:10271000230282602DC0C230FDE5DF0709F475C0D9
:1027200008F45DC0C330DD4509F072C080E06EC0C2
:1027300080912202816003C0809122028061809397
:10274000220266C08091220211C080912302826021
:10275000809323025DC0809122028062F0CF80913D
:1027600022028064ECCF8091220288608460E7CFEF
:102770008160EECF809122028E7FE1CF8091220294
:102780008D7FDDCF80912202877FD9CF8091230278
:1027900018C0809123028D7FDBCF809122028F7E33
:1027A000CECF809122028F7DCACF809122028F7B73
:1027B000C6CF80912202877F8B7FC1CF8091230279
:1027C0008D7F8E7FC5CF8091220282FB222720F948
:1027D00091E0922790FB82F990FB83F9B0CF809132
:1027E0002302982F909591708E7F892B90FB81F911
:1027F000AFCF0E94A2068091220287FB222720F9F8
:1028000091E0922790FB87F99ACF81E00E94EB0D2F
:1028100080912202909123020E94650D0E94A206DF
:1028200080E001C081E0DF91CF910895CF93DF93E5
:1028300086319C4541F5EB010E94820C982F8A81DC
:102840002091000130910101882379F09A7A81E08A
:1028500009F480E08093F501911102C069E201C0A2
:1028600065E3C9010E9434150AC08091F501811108
:1028700002C069E201C065E3C9010E943F150E94E0
:10288000D40C80E001C081E0DF91CF910895909356
:10289000FB018093FA010895E091FA01F091FB01A8
:1028A000309721F00190F081E02D099480E00895A7
:1028B000E091FA01F091FB01309799F020910C0121
:1028C000222359F02091220227FF07C0DC012C911E
:1028D00011962C93119725E02C930280F381E02D23
:1028E000099408952091F8013091F90128173907CA
:1028F00071F09093F9018093F801E091FA01F09161
:10290000FB01309721F00680F781E02D09940895AE
:102910002091F6013091F7012817390771F0909353
:10292000F7018093F601E091FA01F091FB013097F5
:1029300021F00084F185E02D09940895FC01329680
:1029400080910C01882331F08091220287FF02C020
:102950009EE101C096E080E0915028F02191222371
:10296000D9F38F5FF9CF0895662351F120910C01BF
:102970002223E9F02091220227FF19C0462F469515
:10298000469546954E31E0F4677021E030E002C094
:10299000220F331F6A95E2F7FC01E40FF11D8281DB
:1029A00090E02823392381E0232B69F409C0FC013E
:1029B000329608962191621729F0E817F907D1F7A6
:1029C00080E0089581E008959C01FC0132969FEF1C
:1029D00080E04191461789F09F3F19F4411101C0F1
:1029E000982F8F5F8630A9F79F3F39F0F901E90FE3
:1029F000F11D97FDFA956283089508959C012A5F61
:102A00003F4FFC014281461301C01282019682179A
:102A10009307B9F70895262F2695269526952E31EA
:102A200068F4FC01E20FF11D677021E030E001C0A5
:102A3000220F6A95EAF78281282B22830895262F98
:102A40002695269526952E3170F4FC01E20FF11D96
:102A5000677021E030E001C0220F6A95EAF7209507
:102A6000828128232283089520910C01222329F0BA
:102A70002091220227FD0C940B150C94E414209154
:102A80000C01222329F02091220227FD0C941F150E
:102A90000C94FE1420910C01FC013296222331F09B
:102AA0008091220287FF02C08EE101C086E0DF0133
:102AB0001D928A95E9F70895089508950C945D157F
:102AC0000C945D15CF930E9460150E94A2110E9484
:102AD0005E15C0E08C2F0E94FB10811104C0CF5FF7
:102AE000C430C1F701C081E0CF9108950C945D1509
:102AF0000C94761580913402843049F10E94781547
:102B000080E00E94AA021092FC0120E488E190E09B
:102B10000FB6F894A895809360000FBE20936000D4
:102B200083B7817F846083BF83B7816083BF7894DC
:102B3000889583B78E7F83BF0FB6F894A895809150
:102B40006000886180936000109260000FBE08955D
:102B50000C945D150E94A2060E944C140E94AA02C9
:102B60000C94A8151F920F920FB60F9211248F93F9
:102B70009F93AF93BF938091FC01811113C080910B
:102B80002C0290912D02A0912E02B0912F0241961D
:102B9000A11DB11D80932C0290932D02A0932E02B3
:102BA000B0932F02BF91AF919F918F910F900FBE65
:102BB0000F901F90189582E084BD93E095BD9AEF29
:102BC00097BD80936E0008952FB7F89480912C02E2
:102BD00090912D02A0912E02B0912F022FBF089547
:102BE0002FB7F89460912C0270912D0280912E02E3
:102BF00090912F022FBF08959C014FB7F8948091B8
:102C00002C0290912D02A0912E02B0912F024FBF65
:102C1000821B930B089578941F920F920FB60F9218
:102C200011248F939F93AF93BF9380912C02909127
:102C30002D02A0912E02B0912F020196A11DB11D6F
:102C400080932C0290932D02A0932E02B0932F021A
:102C5000BF91AF919F918F910F900FBE0F901F90DA
:102C6000189587E797E790930108809300089AE00A
:102C700088E10FB6F894A895809360000FBE9093FA
:102C80006000FFCF90937501809374010895809147
:102C90002002089590913402943031F58093FD0123
:102CA0007093FF016093FE0182E08093E9008FEF53
:102CB0009091E800815095FD06C095ED9A95F1F749
:102CC00000008111F5CF8091E80085FF0DC040E044
:102CD00050E063E070E08DEF91E00E945118809128
:102CE000E8008E778093E8000895BC0184E00C949E
:102CF0004A16BC0183E00C944A16CF93DF932091CF
:102D00000C01222339F02091220227FF03C060E248
:102D100022E002C068E021E02093E9002FEF30912B
:102D2000E800215035FD06C035ED3A95F1F7000079
:102D30002111F5CF2091E80025FF1DC0EC01809105
:102D40000C01811105C040E050E068E070E003C074
:102D500070E040E050E0CE010E9451188091E80000
:102D60008E778093E80080E2FE01A0E0B2E001905F
:102D70000D928A95E1F7DF91CF91089508958091A2
:102D80003302811109C00E94E2190E943F1A80910A
:102D9000E20084608093E200089510923302089567
:102DA00008950895089542E061EC81E00E945B1966
:102DB00042E261EC82E00C945B1980913602833030
:102DC00009F460C030F4813071F0823009F499C0A8
:102DD00008958A3009F485C08B3009F46BC08930BE
:102DE00009F0A7C020C080913502813A09F0A1C046
:102DF0008091E800877F8093E8008091390290916C
:102E00003A02892B21F460E280E092E003C060E0A6
:102E100080E090E070E00E949C188091E8008B7741
:102E20008093E800089580913502813209F081C0D5
:102E30008091390290913A02029708F07AC080910D
:102E4000E800877F8093E8008091E80082FD05C05C
:102E5000809134028111F8CF6CC02091F3008091F1
:102E6000F20090E0922B029729F48091F1008B7F81
:102E7000813021F48091F100809320028091E8005C
:102E80008B7753C080913502813A09F052C080910E
:102E9000390290913A02892B09F04BC08091E800E9
:102EA000877F8093E8008091E80080FFFCCF8091CD
:102EB0000C0136C0809135028132D9F580913902FA
:102EC00090913A02892BA9F58091E800877F809341
:102ED000E8000E9490198091370280930C010C94B5
:102EE000A20680913502813221F58091E800877F2A
:102EF0008093E8000E94901980913802809321020B
:102F0000089580913502813AA1F48091E800877F8D
:102F10008093E8008091E80080FFFCCF809121023F
:102F20008093F1008091E8008E778093E8000C9404
:102F30009019089584B7877F84BF0FB6F894A89539
:102F400080916000886180936000109260000FBEE5
:102F500090E080E80FB6F894809361009093610050
:102F60000FBE0C941B0E0E94E2190E943F1AE2EE63
:102F7000F0E080818460808378940E94D41C0E9459
:102F8000290E82E091E00C94471480913402853040
:102F9000A9F480913402853079F40E947A158091E9
:102FA00032028823B1F30E946215882391F30E94B4
:102FB0003B180E94A206EDCF0E94AA150C942F0E7A
:102FC0000C94E217292F332723303105C9F060F420
:102FD0002130310581F02230310509F044C08BE306
:102FE00090E02AE332E043C021323105E1F02232A1
:102FF000310549F138C082E190E025E732E037C081
:1030000099278130910549F028F0029761F5ECEF9E
:10301000F1E005C0E6E3F2E002C0E4E1F2E0849111
:1030200090E09F0124C06115710541F06130710588
:10303000D1F489E090E025E632E019C089E090E023
:103040002CE432E014C06115710541F06130710566
:1030500051F48DE690E027E832E009C080E490E08A
:1030600024EF32E004C080E090E020E030E0FA019C
:1030700031832083089580E189BD82E189BD09B44F
:1030800000FEFDCF8091D8008F7D8093D800809185
:10309000E00082608093E0008091E00081FDFCCF41
:1030A0000895CF92DF92EF92FF920F931F93CF93E9
:1030B000DF93EC018B017A010E94AF19811133C0BB
:1030C000E114F10439F0F70180819181081B190B9B
:1030D000C80FD91FC12CD12C0115110519F18091F0
:1030E000E80085FD16C08091E8008E778093E800A7
:1030F000E114F10449F0F70180819181C80ED91ED5
:10310000D182C08285E00FC00E94AF19882321F3CD
:103110000AC089918093F10001501109FFEFCF1A85
:10312000DF0ADACF80E0DF91CF911F910F91FF90FE
:10313000EF90DF90CF90089520913B0230913C02B8
:103140002617370748F06115710539F42091E8001A
:103150002E772093E80001C0B901FC0120E0611541
:10316000710579F1809134028823F1F18530F1F114
:103170008091E80083FD3CC08091E80082FD2EC074
:103180008091E80080FFEBCF2091F3008091F20066
:1031900090E0922B6115710551F08830910538F45B
:1031A00021912093F100615071090196F3CF21E044
:1031B000089709F020E08091E8008E778093E8007E
:1031C000CECF2111CFCF0AC080913402882361F085
:1031D000853061F08091E80083FD0AC08091E800AD
:1031E00082FFF2CF80E0089582E0089583E00895A1
:1031F00081E0089520913B0230913C022617370769
:1032000048F06115710539F42091E8002E7720937C
:10321000E80001C0B901FC0120E06115710591F1E0
:1032200080913402882309F440C0853009F43FC0FE
:103230008091E80083FD3DC08091E80082FD2FC0B1
:103240008091E80080FFE9CF2091F3008091F200A7
:1032500090E0922B6115710559F08830910540F48A
:1032600024912093F1003196615071090196F2CFBB
:1032700021E0089709F020E08091E8008E778093A4
:10328000E800CBCF2111CCCF0AC080913402882333
:1032900061F0853061F08091E80083FD0AC0809183
:1032A000E80082FFF2CF80E0089582E0089583E095
:1032B000089581E00895982F973068F59093E9007C
:1032C000981739F07091EC002091ED005091F000CA
:1032D00003C0242F762F50E021FD02C09F5FECCF6A
:1032E0003091EB003E7F3093EB003091ED003D7F5D
:1032F0003093ED003091EB0031603093EB00709330
:10330000EC002093ED005093F0002091EE0027FD9B
:10331000E5CF80E008958F708093E90081E0089503
:103320008091350287FF11C08091E80082FD05C0C1
:10333000809134028111F8CF11C08091E8008B7721
:103340000BC080913402882349F08091E80080FF0F
:10335000F8CF8091E8008E778093E800089520915F
:10336000E4003091E50095E64091EC00842F8170F7
:1033700040FF23C08091E80080FD1DC08091340291
:10338000882399F0853099F08091EB0085FD11C07C
:103390004091E4005091E5002417350729F391503E
:1033A00011F09A01E1CF84E0089582E0089583E06E
:1033B000089581E0089580E008954091E80042FF7B
:1033C000DDCF08950E94501A0E94581AE0EEF0E0F6
:1033D000808181608083E8EDF0E080818F77808359
:1033E00019BCA7EDB0E08C918E7F8C9380818F7E8D
:1033F00080831092330208950F931F93CF93DF932E
:103400000E94501A0E94581AC8EDD0E088818F7728
:10341000888388818068888388818F7D888319BCB0
:103420001092340210923002109232021092310245
:1034300000EE10E0F80180818B7F808388818160BD
:10344000888342E060E080E00E945B19E1EEF0E0FA
:1034500080818E7F8083E2EEF0E0808181608083D6
:10346000808188608083F80180818E7F808388815D
:1034700080618883DF91CF911F910F910895E8EDCE
:10348000F0E080818F7E8083E7EDF0E080818160D5
:10349000808384E082BF81E0809333020C94FC1926
:1034A000E8EDF0E080818E7F80831092E200089545
:1034B0001092DA001092E10008951F920F920FB659
:1034C0000F9211242F933F934F935F936F937F93AA
:1034D0008F939F93AF93BF93EF93FF938091E100FE
:1034E00082FF0BC08091E20082FF07C08091E10063
:1034F0008B7F8093E1000E94D31C8091DA0080FFD3
:103500001FC08091D80080FF1BC08091DA008E7FA1
:103510008093DA008091D90080FF0DC080E189BDE1
:1035200082E189BD09B400FEFDCF81E080933402C1
:103530000E94BF1605C019BC109234020E94CD161D
:103540008091E10080FF19C08091E20080FF15C0EA
:103550008091E2008E7F8093E2008091E2008061A2
:103560008093E2008091D80080628093D80019BCDB
:1035700085E0809334020E94D1168091E10084FF9F
:1035800030C08091E20084FF2CC080E189BD82E1DF
:1035900089BD09B400FEFDCF8091D8008F7D809356
:1035A000D8008091E1008F7E8093E1008091E2005D
:1035B0008F7E8093E2008091E20081608093E20040
:1035C00080913002882311F084E007C08091E300ED
:1035D00087FD02C081E001C083E0809334020E9435
:1035E000D2168091E10083FF29C08091E20083FF21
:1035F00025C08091E100877F8093E10082E0809385
:103600003402109230028091E1008E7F8093E100BD
:103610008091E2008E7F8093E2008091E2008061E1
:103620008093E20042E060E080E00E945B198091BC
:10363000F00088608093F0000E94D016FF91EF9117
:10364000BF91AF919F918F917F916F915F914F91BA
:103650003F912F910F900FBE0F901F9018951F92C2
:103660000F920FB60F9211242F933F934F935F93B6
:103670006F937F938F939F93AF93BF93CF93DF937A
:10368000EF93FF93C091E900CF708091EC00D82FA9
:10369000D17080FDD0E81092E9008091F000877F22
:1036A0008093F00078940E94731B1092E90080913F
:1036B000F00088608093F000CD2BCF70C093E900BC
:1036C000FF91EF91DF91CF91BF91AF919F918F913A
:1036D0007F916F915F914F913F912F910F900FBE0E
:1036E0000F901F9018951F93CF93DF93CDB7DEB740
:1036F000AA970FB6F894DEBF0FBECDBFE5E3F2E0A8
:103700008091F100819322E0ED33F207C9F70E9426
:10371000DD168091E80083FF2EC1809135029091E3
:103720003602492F50E04A30510508F024C1FA0111
:10373000EC58FF4F0C94EF1C803821F0823809F0D0
:103740001AC108C08091310290913202992389F008
:1037500082600FC0809139028F70873008F00BC1F2
:103760008093E9008091EB0085FB882780F9109217
:10377000E9009091E800977F9093E8008093F10032
:103780001092F100D1C0282F2D7F09F0F4C08823BA
:1037900019F0823061F0EFC080913702813009F07A
:1037A000EAC0933009F080E0809332022EC080910D
:1037B000370281112AC0809139028F702FEF280FB4
:1037C000263008F0D8C08093E9002091EB0020FF5C
:1037D0001CC0933021F48091EB00806214C0909162
:1037E000EB0090619093EB0021E030E0A90102C072
:1037F000440F551F8A95E2F74093EA001092EA00C1
:103800008091EB0088608093EB001092E90080913A
:10381000E800877F8093E8000E949019ACC0811176
:10382000AAC0109137021F778091E3008078812B26
:103830008093E3008091E800877F8093E8000E94F6
:1038400090198091E80080FFFCCF8091E3008068B0
:103850008093E300111102C082E001C083E08093F5
:10386000340289C08058823008F085C080913702C8
:10387000909138028C3D53E0950779F583E08A8377
:103880008AE289834FB7F894DE01139620E03EE088
:1038900051E2E32FF0E050935700E49120FF03C082
:1038A000E295EF703F5FEF708E2F90E0EA3010F0FE
:1038B000C79601C0C0968D939D932F5F243149F721
:1038C0004FBF8091E800877F8093E8006AE270E054
:1038D000CE0101960E949C1816C060913902709129
:1038E0003A02AE014F5F5F4F0E94E017BC01892B87
:1038F00009F441C09091E800977F9093E800898196
:103900009A810E94FA188091E8008B778093E800F2
:1039100032C0803881F58091E800877F8093E8008D
:10392000809130028093F1008091E8008E7772CF11
:10393000811121C080913702909138029927029716
:10394000D4F48091E800877F8093E800809137026B
:10395000809330020E94901980913002811106C03C
:103960008091E30087FD02C081E001C084E0809384
:1039700034020E94D3168091E80083FF0AC0809130
:10398000E800877F8093E8008091EB00806280935D
:10399000EB00AA960FB6F894DEBF0FBECDBFDF9145
:1039A000CF911F9108950895CF9380913402882379
:1039B000A1F0C091E900CF709091EC00892F817047
:1039C00090FD80E8C82B1092E9008091E80083FD0B
:1039D0000E94731BCF70C093E900CF910895EE0F42
:1039E000FF1F0590F491E02D0994FB01DC0104C058
:1039F0008D910190801921F441505040C8F7881BE7
:103A0000990B0895F999FECF92BD81BDF89A992737
:103A100080B50895A8E1B0E042E050E00C94361D76
:103A2000262FF999FECF92BD81BDF89A019700B477
:103A3000021639F01FBA20BD0FB6F894FA9AF99A17
:103A40000FBE08950396272F0E94111D0E94101D7E
:103A5000252F0E94111D242F0C94111D0196272F34
:103A60000E94111D0C94101DDC01CB01FC01F99981
:103A7000FECF06C0F2BDE1BDF89A319600B40D92BA
:0C3A800041505040B8F70895F894FFCF73
:103A8C00BE0147167D16BE167916751601E200E9C1
:103A9C0000EA00B500B600B700CD008301CC008A67
:103AAC0001920194012102230224022502260227FD
:103ABC00022A02B300B4006F007000818283E2001E
:103ACC00E900EA00B500B600B700CD008301CC00D8
:103ADC008A0192019401210223022402250226026A
:103AEC0027022A02B300B4006F0070008182836643
:043AFC0031339700CB
:00000001FF
