:100000000C94DC020C9423030C9423030C94230320
:100010000C9423030C9423030C9423030C942303C8
:100020000C9423030C9423030C94A6230C9478249F
:100030000C94D21E0C9423030C9423030C942303DE
:100040000C9423030C9423030C9423030C94230398
:100050000C9423030C942B1F0C9423030C94230364
:100060000C9423030C9423030C9423030C94230378
:100070000C9423030C9423030C9423030C94230368
:100080000C9423030C9423030C9423030C94230358
:100090000C9423030C9423030C9423030C94230348
:1000A0000C9423030C9423030C9423035205520550
:1000B0007E057E05E6051E071E071E070406990637
:1000C000AA06AA060E071E071E071707BE07BE07C9
:1000D000D007D007C707D007D007D007BE07BE0795
:1000E000CC07D007D007CC07E5240C2504260C2527
:1000F000042658257B250426D225E12529003A002F
:100100003B003C003D003E003F00400041004200FB
:100110004300440045002A0035001E001F00200057
:1001200021002200230024002500260027002D00A6
:100130002E0000002B0014001A0008001500170004
:100140001C0018000C00120013002F0030003100BA
:10015000390004001600070009000A000B000D001A
:100160000E000F003300340000002800E100000002
:100170001D001B00060019000500110010003600CC
:1001800037003800E50000004600470048414900BC
:100190004A004B004C004D004E00000000000000E3
:1001A00000000000E000E300E2002C00E600015146
:1001B000E400500051004F00520000000000000019
:1001C000A800010001000100010001000100010080
:1001D0000100010001000100010001000100010017
:1001E0000100010001000100010001000100010007
:1001F00001000100010000005300C35CC45CC65C48
:10020000C75CC85CC95CCA5CCB5C01000100010032
:1002100001000100005C010001000100010001007B
:1002200001000100010001000100010000000100C7
:1002300001000000010001000100010001000100B7
:1002400001000100010001000100000001000100A7
:100250000100010001000100010001000100000097
:100260000000000000000000010001000100AE00DD
:10027000010001000100AC00AA00AB00A9000000D1
:100280000000000000047F3F1F64321464321478C1
:100290003C1E1E140A052223252628292A2C2D2F30
:1002A0003032333536383A3B3D3E4042434547498C
:1002B0004A4C4E5051535557595A5C5E60626466C1
:1002C00068696B6D6F71737577797B7D7F818385CD
:1002D00087898A8C8E90929496989A9C9E9FA1A3CF
:1002E000A5A7A8AAACAEAFB1B3B4B6B8B9BBBCBEF3
:1002F000BFC1C2C3C5C6C7C9CACBCCCDCED0D1D26F
:10030000D2D3D4D5D6D7D7D8D9D9DADADBDBDBDC70
:10031000DCDCDCDCDDDDDDDDDCDCDCDCDCDBDBDB1C
:10032000DADAD9D9D8D7D7D6D5D4D3D2D2D1D0CE7C
:10033000CDCCCBCAC9C7C6C5C3C2C1BFBEBCBBB981
:10034000B8B6B4B3B1AFAEACAAA8A7A5A3A19F9EFF
:100350009C9A98969492908E8C8A89878583817FC7
:100360007D7B79777573716F6D6B696866646260A8
:100370005E5C5A5957555351504E4C4A4947454374
:1003800042403E3D3B3A3836353332302F2D2C2A11
:10039000292826252322FFAA7F55400001010101BB
:1003A0000101010101020202020202020202030330
:1003B0000303030303030404040404040405050500
:1003C00005050606060606070707070708080808C2
:1003D000090909090A0A0A0B0B0B0C0C0C0D0D0D6F
:1003E0000E0E0E0F0F0F1010111111121213131405
:1003F00014151516161717181819191A1A1B1B1C7D
:100400001D1D1E1E1F2020212222232424252626D6
:10041000272829292A2B2C2D2D2E2F30313232330B
:100420003435363738393A3B3C3D3E3F4041424314
:100430004445464748494A4C4D4E4F5051535455F8
:100440005658595A5B5D5E5F616264656668696BA8
:100450006C6D6F7072737577787A7B7D7E80828326
:100460008587888A8C8E8F91939596989A9C9EA06A
:10047000A2A3A5A7A9ABADAFB1B3B5B7BABCBEC077
:10048000C2C4C6C9CBCDCFD1D4D6D8DBDDDFE2E440
:10049000E7E9EBEEF0F3F5F8FAFDFF0C034D003160
:1004A0000032004F00470000000E036D0061007431
:1004B0000072006900780000000403090409023B8F
:1004C00000020100A0FA0904000001030101000973
:1004D00021110100012240000705810308000A09DB
:1004E0000401000103000000092111010001226D37
:1004F000000705820320000A120100020000000824
:10050000584D128701000102000105010980A10177
:10051000850319012AB700150126B700950175104A
:100520008100C0050C0901A101850419012AA0025E
:10053000150126A002950175108100C0050109066C
:10054000A1018506050719E029E715002501950891
:10055000750181020507190029EF1500250195F0A5
:10056000750181020508190129059505750191029A
:10057000950175039101C005010906A1010507193F
:10058000E029E7150025019508750181029501759F
:100590000881010507190029FF150026FF009506AF
:1005A0007508810005081901290595057501910255
:1005B000950175039101C00011241FBECFEFDAE051
:1005C000DEBFCDBF04B603FE27C080912703909104
:1005D0002803A0912903B0912A038730904BA740AC
:1005E000B04BD1F4109227031092280310922903E4
:1005F00010922A0314BE84B7877F84BF0FB6F89485
:10060000A8958091600088618093600010926000DE
:100610000FBEE0E0F8E3099511E0A0E0B1E0EAE305
:10062000FEE402C005900D92A03CB107D9F723E08B
:10063000A0ECB1E001C01D92A732B207E1F70E9421
:10064000CB130C941B270C9400003E9A229A219AFB
:100650000895CF93C82F0E941704882379F0C0FD16
:1006600002C0299A01C02998C1FD02C0469A01C062
:100670004698C2FD02C02A9A01C02A98CF910895D7
:1006800081E0089581E008950C94420308950C944C
:1006900046031F93CF93DF9300D000D01F92CDB7B6
:1006A000DEB749835A836B833091C20189819A8175
:1006B000311114C0662359F0222349F00E946209C7
:1006C000182F682F89819A810E940B0903C00E940C
:1006D0003609182F69817A81812F04C00E9462092E
:1006E00069817A810F900F900F900F900F90DF919A
:1006F000CF911F910C941810FC01262F408151813D
:100700006281738184810C94490381E00895CF93C1
:10071000DF93EC0160E00E947C03BE01DF91CF918A
:100720000C9447030E9441120E9419040C947C12FD
:100730000C947A1280E00E941A040C94B418089564
:100740000C949F030E94AC070E94A0032FEF84E348
:100750009CE0215080409040E1F700C000000C94E4
:10076000511F0F931F93CF93DF938C0161E00E9481
:100770007C03EC01B8010E944403882309F444C0BF
:10078000B801CE010E94041D8823F1F1B801CE0109
:100790000E942E1B8823C1F1B801CE010E94601C6B
:1007A000882391F1B801CE010E94371A882361F1A4
:1007B000F8018281882309F1CB358DE5D807C1F096
:1007C00050F4C115FCE5DF0781F0CF3DDC45A9F40D
:1007D0000E94160F19C0CC35EDE5DE0761F0CD356E
:1007E000DD4559F40E94590E08C00E94A2030CC0B6
:1007F0000E94620E02C00E94650EC801DF91CF9177
:100800001F910F910C94400380E0DF91CF911F91D5
:100810000F9108950C949F030E94601D0E941A047A
:100820000E9480190C940A0408950C94140481E029
:1008300008950895CF93C82F0E9415048C2F0E940D
:100840002903CF910895CF93DF93CDB7DEB72B97D0
:100850000FB6F894DEBF0FBECDBF4F8358876987B0
:100860007A878B8761110E94A50D9E012F5F3F4FF4
:1008700086E0F90111928A95E9F785E0FE01379645
:10088000D90101900D928A95E1F789819A814C8175
:100890005D81452B31F09F3F31F491E08F3F19F49A
:1008A00003C091E001C090E090FF09C049815A81E6
:1008B0006B817C818D819E810E94C60C05C0C9011F
:1008C0000E9485038111F2CF2B960FB6F894DEBFFC
:1008D0000FBECDBFDF91CF910895FC018081918142
:1008E0000E94A4090895CF93882309F448C0C82F13
:1008F0008CEF8C0F813AD0F46C2F80910201909193
:1009000003010E94C81D882349F06C2F80910201C9
:10091000909103010E94531E0E94D70D6C2F80916D
:100920000201909103010E94481E0CC080E28C0FCE
:10093000883058F4C77081E001C0880FCA95EAF783
:100940000E94880DCF910C94D70DEBE5EC0FE330AE
:1009500040F4F0E0EE5AFE4F808190E0CF910C948D
:10096000861DC85AC73158F4EC2FF0E0EE0FFF1F78
:10097000EC5DFE4F80819181CF910C949C1DCF91B5
:100980000895882349F1682F8CEF860F813A38F457
:1009900080910201909103010E94531E0CC080E2DD
:1009A000860F883050F4677081E001C0880F6A9527
:1009B000EAF70E948E0D0C94D70D8BE5860F8330DD
:1009C00020F480E090E00C94861D685A673120F492
:1009D00080E090E00C949C1D08951F93CF93DF93CB
:1009E000182FEB010E947304209741F08FE99FE0DC
:1009F0000197F1F700C000002197F6CF812FDF911A
:100A0000CF911F910C94C104893319F060E070E01C
:100A100002C060E570E00C94ED04882321F00E9490
:100A2000880D0C94D70D0895882321F00E948E0D17
:100A30000C94D70D0895CF92DF92EF92FF920F930F
:100A40001F93CF93DF937C01162FC72FFC01D28118
:100A5000058102950F700E947E0D8823B9F0DD2379
:100A6000A9F08C2F807F803421F080E2810F8830C4
:100A700068F08091C40282FD09C082E00E94270EC6
:100A80000E947E0D91E0D82ED92601C0D12CCC2E0B
:100A9000C2948FE0C8228C2D90E0FC01EA5AFF4FEF
:100AA0000C9482268C2F807FCF70882311F0C29502
:100AB000C07FDD2399F0CC2309F49BC180E2810F34
:100AC000883010F0111104C08C2F0E94880D03C0D3
:100AD0008C2F0E94980D0E94D70D8BC1812F0E94F0
:100AE000C104CC2309F4AAC180E2810F883038F117
:100AF000112329F18C2F0E949E0D24C08C2F807F02
:100B0000CF70803211F0C295C07F112319F01130DF
:100B1000A1F13DC08091C40282FF17C0DD2349F0DE
:100B2000CC2329F08C2F0E94880D0E94D70D80E0E5
:100B300061C180E00E94C104CC2309F47FC18C2FE5
:100B40000E948E0D0E94D70D79C1DD2371F0002324
:100B500041F0013031F40E94B80D8C2B0E94C00D81
:100B60006DC10E94B80D8C2B1DC0002319F00130FF
:100B700009F464C10E94CD0D25C0DD2321F00630AB
:100B800008F05CC10EC0053008F058C11BC0DD2361
:100B900061F0002331F0F701858180FF2AC18F7059
:100BA00085838C2F0E940D0549C1002359F019330C
:100BB00009F030C1FFEF27EE83E0F1502040804084
:100BC000E1F726C18C2F0E94140538C18C2F869521
:100BD0008695837019F0813061F030C1DD2321F0FA
:100BE000812F9C2F937002C080E090E00E94861DB0
:100BF0002DC1DD2321F0812F9C2F937002C080E056
:100C000090E00E949C1D22C18C2F837009F045C08A
:100C1000D11118C1412F429546954770440F440F9A
:100C2000612F6F70862F90E0A0E0B0E0042E04C02A
:100C3000880F991FAA1FBB1F0A94D2F714FF10C078
:100C40000FE010E020E030E004C0000F111F221F71
:100C5000331F4A95D2F7009510952095309503C023
:100C600000E010E09801C695C695C370BC01CD01A7
:100C7000602B712B822B932BC23049F058F4C1307A
:100C800019F00E942108DEC00E940F08DBC00E94FC
:100C90003308D8C00E940D08D5C0DD2319F08C2F71
:100CA000817001C08695882309F4CCC0412F4295FC
:100CB00046954770440F440F612F6F70862F90E068
:100CC000A0E0B0E0042E04C0880F991FAA1FBB1F2C
:100CD0000A94D2F714FF10C00FE010E020E030E0DB
:100CE00004C0000F111F221F331F4A95D2F7009531
:100CF00010952095309503C000E010E09801C6954E
:100D0000C695C370BC01CD01602B712B822B932B38
:100D1000C23049F058F4C13019F00E94E60892C080
:100D20000E94D4088FC00E94F8088CC00E94470817
:100D300089C0CF70DD2339F08C2F0E946D08812F80
:100D40000E940D057FC0812F0E9414058C2F0E94E8
:100D50008E0878C0123F21F128F4103F41F0113F76
:100D6000C1F043C0133F19F1143F79F03EC0DD23B9
:100D700041F0053008F062C08C2F8F710E94B308DB
:100D80005DC0063008F05AC0F7CF8091C40282FFE0
:100D900018C0DD2339F08C2F8F710E946D084EC072
:100DA000DD23C9F38C2F8F710E948E0847C0DD238D
:100DB00029F08C2F8F710E94580840C00E94530860
:100DC0003DC0DD2349F0CF718C2F0E946D0863E098
:100DD0008C2F0E940C0E32C081E00E94270E023040
:100DE00068F182E00E94270E29C0DD2331F0002344
:100DF00091F2812F0E94730421C0002399F21933CC
:100E000049F49FEFE7EEF3E09150E040F040E1F766
:100E100000C00000812F0E94C10410C04C2F4F70F1
:100E2000612FC7010E9414100E94D2090FC04C2FDD
:100E30004F70612FC7010E94171008C088EF8C0DFA
:100E4000843020F40E94601D0E941A04DD20C9F045
:100E50000E947A0D80FD15C0F70112820E94740D68
:100E60000E946D08C7010E9462070E94740DDF9105
:100E7000CF911F910F91FF90EF90DF90CF900C9446
:100E80008E08DF91CF911F910F91FF90EF90DF902F
:100E9000CF9008950F931F93CF93DF93EC01688158
:100EA00079818A810E94AF098C010E940A090E94FF
:100EB000FB07B801CE010E941B05DF91CF911F9166
:100EC0000F910895CF93DF93EC01988189812B8155
:100ED0003C81232B31F08F3F31F481E09F3F19F4A7
:100EE00003C081E001C080E080FD1DC0CE010E94F2
:100EF000B103811110C00E947E0D8823A1F08A8168
:100F0000882389F08091C40282FD0DC082E0DF91C8
:100F1000CF910C94270ECE010E944A07CE01DF919B
:100F2000CF910C948703DF91CF91089580E090E0FA
:100F30000E94861D80E090E00E949C1D0E94A50DED
:100F40000E94B50D0C94D70D809102019091030180
:100F50000E945E1E0C9496070E94950D0C94A407A7
:100F6000E92FE295EF704E2F50E0FA013297EE3004
:100F7000F105B0F4EA59FF4F0C948226803F91F0BE
:100F800018F4883E68F40EC0843F51F40BC0883ECC
:100F900048F0813F29F406C093FB882780F9089523
:100FA00080E0089581E00895FC01808191810E9494
:100FB000A4090E94B0070895CF93DF9300D000D01A
:100FC0001F92CDB7DEB70F900F900F900F900F903C
:100FD000DF91CF910895CF93DF9300D000D000D060
:100FE000CDB7DEB726960FB6F894DEBF0FBECDBFE5
:100FF000DF91CF910895089508950C94FC070C9407
:10100000FD070E94FF076093080270930902809316
:101010000A0290930B020C9496070C9401080F930C
:101020001F93009108021091090220910A02309149
:101030000B02602B712B822B932B1F910F910C9421
:1010400001080F931F93009108021091090220914B
:101050000A0230910B0260237123822393231F9194
:101060000F910C9401080F931F93009108021091A7
:10107000090220910A0230910B0260277127822712
:1010800093271F910F910C9401080C94FC070E9468
:1010900045086093040270930502809306029093C2
:1010A00007020C94960760E070E0CB010C944708AF
:1010B0000F931F9341E050E060E070E08A019B01D4
:1010C00004C0000F111F221F331F8A95D2F7C901D8
:1010D000B8011F910F910C9447080F931F9341E0A3
:1010E00050E060E070E004C0440F551F661F771F9A
:1010F0008A95D2F78091040290910502A091060290
:10110000B09107028A019B01082B192B2A2B3B2B3C
:10111000C901B8011F910F910C9447080F931F93B9
:1011200041E050E060E070E004C0440F551F661FCE
:10113000771F8A95D2F7409550956095709580916C
:10114000040290910502A0910602B09107028A0163
:101150009B01082319232A233B23C901B8011F91AE
:101160000F910C9447080F931F9341E050E060E00B
:1011700070E004C0440F551F661F771F8A95D2F791
:101180008091040290910502A0910602B09107029D
:101190008A019B01082719272A273B27C901B80183
:1011A0001F910F910C9447080F931F930091040215
:1011B000109105022091060230910702602B712BDD
:1011C000822B932B1F910F910C9447080F931F9321
:1011D000009104021091050220910602309107024D
:1011E00060237123822393231F910F910C9447084E
:1011F0000F931F93009104021091050220910602A3
:101200003091070260277127822793271F910F9142
:101210000C94470808952EE0929F800D1124E82F2A
:10122000E695E695E695877051E001C0550F8A95E1
:10123000EAF785E0E89FF0011124ED53FE4F20E02E
:1012400030E070E04081CB01022E02C09695879578
:101250000A94E2F7817081958427852384278193FE
:101260002F5F3F4F2530310569F708952EE0929F9B
:10127000800D1124682F669566956695982F977056
:1012800085E0689FB001112440E050E080E0FB0160
:10129000E40FF51FED53FE4F208130E0092E02C010
:1012A000369527950A94E2F721703327042E01C062
:1012B000220F0A94EAF7822B4F5F5F4F45305105AA
:1012C00031F70895BF92CF92DF92EF92FF920F9382
:1012D0001F93CF93DF938C01C0900402D09005023E
:1012E000E0900602F09007028091080290910902B6
:1012F000A0910A02B0910B02C82AD92AEA2AFB2A35
:10130000CFE1D0E0D701C6010C2E04C0B695A79559
:10131000979587950A94D2F780FD04C0219790F79E
:10132000B12C07C0BC2EB8018C2F0E944811019728
:10133000A9F38B2DDF91CF911F910F91FF90EF902B
:10134000DF90CF90BF900895CF93DF93EC010E9480
:101350006209BE010E944811DF91CF9108951F9349
:10136000CF93DF93EB019091C201992321F0CB0140
:101370000E94A40913C0882349F0CB010E9462098E
:10138000182F682FCE010E940B0904C0CB010E94C8
:101390003609182FBE01812F0E944811DF91CF918D
:1013A0001F910895EF92FF920F931F93CF93DF93B6
:1013B0008C01892B09F46CC0F12CEE24E394E80134
:1013C0002196F8018491843740F4843008F051C0AC
:1013D000813081F0823019F15BC0853709F444C057
:1013E000A8F19CE7980F903708F052C08F770E94C1
:1013F000C10441C00E5F1F4FFE01849190E2980F1F
:10140000983050F48770FE2D01C0FF0F8A95EAF7DF
:101410008F2F0E94A80D14C00E9473042DC00E5F70
:101420001F4FFE01849190E2980F983060F487700E
:10143000FE2D01C0FF0F8A95EAF78F2F0E94AE0D97
:101440000E94D70D19C00E94C10416C00E5F1F4F25
:10145000FE01C491CC2381F08FE99FE00197F1F761
:1014600000C00000C150F6CF0E5F1F4FFE01F49088
:1014700003C00E9473048E018F2D882309F49FCF2F
:10148000EFE9FFE03197F1F700C000008150F5CFA0
:10149000DF91CF911F910F91FF90EF9008951F93CF
:1014A000CF93DF93C0910C0216E080910D02C81714
:1014B00099F0D0E01C9FF0011D9FF00D1124E25F18
:1014C000FD4F4081518162817381848195810E94A9
:1014D000EB072196C770E9CFDF91CF911F91089557
:1014E00040913E0250913F02609140027091410252
:1014F00080914202909143020C94EB07EF92FF928D
:101500000F931F93CF93DF938091430282958F7047
:1015100009F065C080914002882309F460C0809181
:101520000C02F0900D0210913E0200913F0260917A
:1015300041027091420291E01F3F09F090E0C0919A
:101540000001D0910101292F96E0E92E8F1509F4B1
:1015500046C06115710521F00F3F21F030E003C056
:1015600031E001C0322F90E030FD36C0E89EF0013E
:10157000E99EF00D1124DF01A25FBD4F11963C9151
:101580001197301329C03C91311326C012963C911B
:101590001297311121C013964D915C911497461BFF
:1015A000570B4C175D07C0F4809143028F70806128
:1015B00080934302ED5EFD4F80818F708061808358
:1015C0008EE392E00E946207DF91CF911F910F910D
:1015D000FF90EF900C944F0A01968770B7CFDF9180
:1015E000CF911F910F91FF90EF9008959F92AF922E
:1015F000BF92CF92DF92EF92FF920F931F93CF9300
:10160000DF93CDB7DEB761970FB6F894DEBF0FBE9C
:10161000CDBF8C0185E0F801DE011D9601900D9291
:101620008A95E1F7D8011296EC9090913E02E091F4
:101630003F0220914102309142022115310531F0E3
:10164000EF3F31F481E09F3F19F403C081E001C016
:1016500080E0B82FB1709B2E80FD47C1D8014C911E
:1016600011965C9111971396AD90BC9014978EE3F0
:10167000C82E82E0D82EF0904002B501621B730B99
:101680002091000130910101FF2009F4D9C080911F
:1016900043026217730708F095C0282F207F09F0D6
:1016A00052C05E1313C0491311C0FE2CE1100EC0CE
:1016B0008F708061809343020E94700AC6010E946D
:1016C000620780914302F80185834DC1AB2831F058
:1016D0005F3F31F481E04F3F19F403C081E001C066
:1016E00080E080FD03C081E08E2502C080E090E0B4
:1016F000F82FF170FF2E80FF1CC080910C0220910A
:101700000D0236E0821709F40BC190E0389FF0011A
:10171000399FF00D1124E25FFD4F6181561306C021
:101720006081461303C06281E61203C00196877090
:10173000E9CFFE2CEE2009F416C1809143028160AE
:101740008093430254C05E1306C0491304C0E110E5
:1017500002C0F80199C0C8010E94D407882361F132
:10176000EE2051F120914302822F82958F7090E0FC
:10177000029774F080913E0290913F0298878F8388
:101780001986BB86AA862C87CE0107960E9462071F
:1017900086E0F801AEE3B2E001900D928A95E1F7A0
:1017A0000E947E0A0E94700A0AC05E1711F1C801E9
:1017B0000E94D40781112CC0C8010E946207FF2437
:1017C000F394D1C0282F207F81F77A2DB98AA88A77
:1017D0006E2D89890E94DC078EE392E00E946207E9
:1017E00086E0D6011D928A95E9F70E94700AF12CD5
:1017F000BAC04913DCCFE110DACFF8018583C80104
:101800000E94620786E0D6011D928A95E9F7ABC077
:10181000EE2091F220914302822F82958F7090E00A
:1018200002970CF4B5CF80913E0290913F029A83CB
:1018300089831B82BD82AC822E83CE010196A6CF06
:101840006217730708F044C0FE2CEE2009F4B4CFF1
:101850005E1330C049132EC02091430220FD21C0E9
:10186000822F82958F70482F50E041155105C9F0A5
:10187000F80125834F30510541F08F5F982F9295E5
:10188000907F822F8F70892B8583C8010E94620709
:1018900086E0F801AEE3B2E001900D928A95E1F79F
:1018A0003CC086E0F801AEE3B2E001900D928A956B
:1018B000E1F759C0C8010E94D407811169CF809116
:1018C0004302816080934302C8010E9462074BC0BB
:1018D0007A2DB98AA88A6E2D89890E94DC0786E054
:1018E000D6011D928A95E9F718C0EE2009F464CF5D
:1018F000C8010E94D407F82E882309F45DCF86E042
:10190000F801AEE3B2E001900D928A95E1F78EE323
:1019100092E00E946D040E947E0A0E94700A23C019
:101920004D875E878D859E850E94A409292F22956B
:101930002F70223028F49F7039F0811105C00BC040
:10194000243028F49F7049F4805E883020F0C8016C
:101950000E9462079F2CF92C06C0D80115969C9115
:10196000907F91F7F8CF8F2D61960FB6F894DEBF78
:101970000FBECDBFDF91CF911F910F91FF90EF90E0
:10198000DF90CF90BF90AF909F9008951F93CF931B
:10199000DF93CDB7DEB72C970FB6F894DEBF0FBE3E
:1019A000CDBF4F83588769877A878B879C87CE0105
:1019B00007960E94F60A8823D1F09F8188852A85A0
:1019C0003B85232B31F08F3F31F481E09F3F19F4A9
:1019D00003C081E001C080E080FD47C04F81588591
:1019E00069857A858B859C850E94EB073EC086E0E1
:1019F000FE013796DE01119601900D928A95E1F76E
:101A0000FF81E8856A857B856115710531F0EF3FBF
:101A100031F481E0FF3F19F403C081E001C080E0B0
:101A200080FD23C020910D0230E0C901019687702E
:101A3000992740910C0250E084179507F1F1F98342
:101A4000EA837D836C8396E0929FD001939FB00DD3
:101A50001124A25FBD4FFE01319601900D929A951F
:101A6000E1F780930D020E944F0A16E080910C026C
:101A700090910D02891771F1189FC0011124825FA6
:101A80009D4F0E94F60A882329F1E0910C021E9FC7
:101A9000F0011124E25FFD4F408151816281738129
:101AA000848195810E94EB0780910C0290E0019661
:101AB0008770992780930C02D9CF0E94AC071092AF
:101AC0000D0210920C02EEE3F2E086E0DF011D92BF
:101AD0008A95E9F72C960FB6F894DEBF0FBECDBFFE
:101AE000DF91CF911F91089580914402859585954E
:101AF00085950895809144028770089590914402DD
:101B0000977081E009F480E008958091680208955B
:101B100090916802892B8093680208958095909136
:101B200068028923809368020895109268020895DC
:101B300090916702892B8093670208958095909118
:101B400067028923809367020895109267020895BF
:101B500090916602892B80936602089580959091FA
:101B600066028923809366020895109266020895A2
:101B700080914502089508950C94BB0D0C94BC0D02
:101B80009091C40292FD08C090914502981721F0EF
:101B9000809345020C94BE0D0895809145028823E0
:101BA00029F01092450280E00C94BE0D0895E0915A
:101BB0000201F0910301809168028083E0910201AB
:101BC000F0910301908180916702892B8083E091DD
:101BD0000201F0910301908180916602892B80833C
:101BE00080914502882381F0E0910201F091030188
:101BF0009081892B808380910201909103010E9442
:101C0000B21D81110E94CD0D8091020190910301BE
:101C10000C946C1D0C94BB0D9091C40292FD10C0ED
:101C200098E0899F90011124262B209344020E9462
:101C30006D08809144028595859585950C940A0ED2
:101C40000C946D081092440280E00C940A0E2091CE
:101C500044028095822380934402982F977099F4D0
:101C600030E0482F082E000C550B2417350759F08B
:101C70009091C40292FD07C08595859585950E9437
:101C80008E080C94220E08959091C40292FB222794
:101C900020F9281769F080FB92F99093C402809193
:101CA000C3029091C4020E94920E82E00C94270E0F
:101CB00008958091C40282FB882780F991E08927EA
:101CC0000C94440E81E00C94440E80E00C94440E7D
:101CD0006FEF7FEF80E090E00C94052780E090E0CC
:101CE0000E94E12621E0893E9E4F09F020E0822FEC
:101CF000089582E090E00C94D32683E090E00C9469
:101D0000D326CF9384E090E00E94D326C82F82E2AE
:101D100090E00E94D3262C2F30E0A901582BCA0155
:101D2000CF910895CF93C92F682F84E090E00E944F
:101D3000E7266C2F82E290E0CF910C94E726AB016E
:101D4000BC018FE090E00C94F926AB01BC0183E16B
:101D500090E00C94F92660E070E0CB010C94A50EA5
:101D600060E070E0CB010E949F0E0C94AB0E69EE18
:101D70007EEF80E090E00E94052760E082E090E046
:101D80000E94E72660E083E090E00E94E726109240
:101D900008021092090210920A0210920B0260E0EF
:101DA00084E090E00E94E72660E082E290E00E94FA
:101DB000E72660E085E090E00E94E72660E086E0AC
:101DC00090E00E94E7266FEF87E090E00E94E72610
:101DD00040E050E0BA0188E090E00E94F92660E01F
:101DE0008DE090E00E94E72640E050E0BA0188E1F3
:101DF00090E00E94F92660E087E190E00E94E726EB
:101E000040E050E0BA018CE190E00E94F92660E0E9
:101E100070E080E290E00E94052740E050E0BA01C7
:101E200088E190E00E94F9260C94B00E0C94B70E55
:101E3000682F8EE090E00C94E7260E94101F6093BC
:101E40007C0270937D0280937E0290937F02609368
:101E500078027093790280937A0290937B020895BE
:101E600085B7806885BF85B7806885BF089581E0A4
:101E700008950C94370F08950C943B0F0C943B0F6E
:101E80000C943E0F0C943B0F0C94420F0C943B0FA0
:101E90000E94300F84E292E10E94561D0E94460F7C
:101EA0000C94440F0E943C0F0C943B0F0E94FB1EAD
:101EB0000E9424130E9445190C94400F6F927F9248
:101EC0008F929F92AF92BF92CF92DF92EF92FF924A
:101ED0000F931F93CF93DF93CDB7DEB72A970FB63B
:101EE000F894DEBF0FBECDBF0E94391381110E944E
:101EF0001D0F3AE6832E32E0932E00E010E0C02E54
:101F0000802F0E9465125C01F401619071904F0175
:101F10006826792661147104B1F40F5F1F4F0730F2
:101F2000110569F78FEF89838A831B820E94041F42
:101F30008160782F9D838C8349815A816B818D814B
:101F40000E9423043AC08091800281FD0E946E129B
:101F5000D12CEE24E394F12CC3018E219F21892BF7
:101F600029F10E94390F8823A9F0DE82CF82AE20AA
:101F7000BF2081E0AB2809F480E088870E94041F1D
:101F80008160782F9A8789874E815F8168858A85ED
:101F90000E942304000F111FF801E659FD4F8081B4
:101FA0009181E826F926F182E08207C0D394EE0CF5
:101FB000FF1CFEE0DF12D0CFB0CF0E9489190E9433
:101FC000601D909169028917D1F00E94601D809375
:101FD00069022A960FB6F894DEBF0FBECDBFDF911F
:101FE000CF911F910F91FF90EF90DF90CF90BF9016
:101FF000AF909F908F907F906F900C941A042A96C8
:102000000FB6F894DEBF0FBECDBFDF91CF911F9109
:102010000F91FF90EF90DF90CF90BF90AF909F9087
:102020008F907F906F90089580E090E008950895DC
:1020300022E6829FC0011124FC012EE0729FE00D78
:10204000F11D1124E60FF11DEE0FFF1FE450FF4FAD
:10205000859194910895880F991FFC01EC57FD4FCD
:10206000859194910895CF93DF930E944D11EC01D7
:10207000811520E5920708F041C0811540E49407DE
:1020800008F0CBC0803E910520F5803C910508F01A
:10209000B8C0883A910570F4853A910508F0A8C057
:1020A0008130910509F4A1C008F4EBC0049708F051
:1020B000EBC0E7C08F3B910508F0E3C0885AC82FFA
:1020C000D0E0CC0FDD1FCB5ADE4F8881998194641C
:1020D000DCC0811550E2950750F4C11581E0D807A6
:1020E00008F0D2C0C83ED10508F4CEC0CAC08115E0
:1020F00020E3920708F08AC09F7085C0811545E5EE
:10210000940708F046C0811554E5950708F09DC076
:10211000C11582E5D80718F5C11521E5D20708F0E9
:102120007FC0CE01F4E096958795FA95E1F7282FC8
:1021300023703C2F337081E090E002C0880F991F1C
:102140003A95E2F79C68922B2C2F2F7026952695B6
:1021500040E2249F90011124822B932B96C09E0174
:10216000237033279C2F96959695C115D34508F07B
:102170005CC041E050E002C0440F551F2A95E2F7D1
:1021800080E2989F90011124CA01822B932B9C68B6
:102190007CC0811559E5950798F4C11588E5D807E5
:1021A00008F058C0C11526E5D20708F06AC08C2F88
:1021B0000E94E1118F7190E0982F8827906265C08E
:1021C00081154AE5940708F44AC09056811590425B
:1021D00008F057C08D2F8F710E94E1119E013327A7
:1021E00030628F71A901582B4AC081E090E04DC048
:1021F000855AC82FD0E0CD57DE4F888190E090649B
:1022000044C0805C91090E942B103FC09927D3FFE6
:1022100002C0986C3AC0906C38C09F70906A35C00C
:102220009C2F8827816F906A30C041E050E002C047
:10223000440F551F2A95E2F780E2989F90011124E0
:10224000CA01822B932B9A6820C0982F8827846F0D
:10225000906A1BC09C2F8827806F906A16C08F7071
:102260000E94E1119E0194E0369527959A95E1F739
:102270002F7030E0322F22273069A901482BCA0184
:1022800004C080E090E001C0CE01DF91CF910895BD
:102290000E9418100E94331008958238910569F148
:1022A000B0F48133910509F46DC048F48932910589
:1022B00009F463C08A32910509F469C00895853331
:1022C000910509F455C089339105B9F00895833E0D
:1022D000910569F138F4803E9105B1F0823E910597
:1022E00009F10895863E9105A9F1873E9105B9F15E
:1022F000843E910509F064C023C02091C30220FDF3
:102300004FC021FD4DC008958091C30280FD44C09F
:102310008091C40280FF44C08091C30284FD42C00A
:1023200083EE4DC08091C30282FF38C0F5CF80910B
:10233000C30282FD33C08091C40280FD31C0ECCF66
:102340008091C40281FF32C08091C30284FD2AC003
:1023500087EE35C08091C30283FF26C0F5CF809100
:10236000C30283FD21C08091C40281FD1FC0ECCF58
:102370008091C30285FD1CC01DC08091C30285FDF4
:1023800019C016C08091C30286FD16C017C0809187
:10239000C30286FD13C010C089E311C082EE0FC0D6
:1023A00080EE0DC080E00BC086EE09C084EE07C051
:1023B00089E205C085E303C08AE201C081E390E0C1
:1023C00008959091C30292FF0DC0282F28712830E4
:1023D00019F4877F846006C0282F2471243011F4FB
:1023E0008B7F886093FF0DC0282F2871283119F446
:1023F000877E846106C0282F2471243111F48B7EDE
:1024000088612091C40220FF0DC0382F3871383008
:1024100019F4877F816006C0382F3171313011F493
:102420008E7F886021FF0DC0282F2871283119F474
:10243000877E816106C0282F2171213111F48E7EA3
:10244000886194FD877E089580E008950C94680E5D
:102450000E9439132FEF86E791E021508040904091
:10246000E1F700C000000E94391380E00E9465126D
:1024700080FF04C00E9426120C94511F08950C94F2
:1024800028120E946E0E811102C00E94160F0E9437
:10249000790E809380020E94810E9093C4028093F3
:1024A000C3020E943F120E947D0E682F70E080E000
:1024B00090E00E940D0860910402709105028091E5
:1024C0000602909107020C944508E82FF0E0EE0F09
:1024D000FF1FED52FD4F808191810895089580EA9C
:1024E0008A95F1F7089500C008950C946F1208952D
:1024F0000C9477120C9478120C942503F894E82F1E
:10250000E295EF70F0E031A1282F2F7081E090E08C
:1025100001C0880F2A95EAF7982F9095932391A3ED
:1025200092A1892B82A3789408950F931F93CF9340
:10253000DF93C4E9D1E089918F3F11F00E947E12B0
:1025400081E0CB39D807B9F7C6E8D1E004E911E05A
:1025500089918F3F11F00E947E120C171D07C1F761
:10256000DF91CF911F910F910895BF92CF92DF928B
:10257000EF92FF920F931F93CF93DF938C01C62F9F
:10258000D0E0CE018C569E4F6C01FC0190819F3FA4
:1025900009F450C0B62EF894E92FE295EF70F0E000
:1025A00081A19F7021E030E001C0220F9A95EAF7E7
:1025B000822B81A382A12095282322A378940E94B4
:1025C0007312E6E8F1E044E951E021E030E0E12C6B
:1025D000F12C61916F3F89F0A62FA295AF70B0E00A
:1025E00090968C9190E06F7002C0959587956A9552
:1025F000E2F780FD02C0C90102C080E090E0E82A55
:10260000F92A220F331F4E175F0719F7F601808151
:102610008F3F11F00E947E1261E0E114F10409F491
:1026200060E08B2D0E947512CC0FDD1FC00FD11FF3
:10263000F982E882DF91CF911F910F91FF90EF9087
:10264000DF90CF90BF9008950E9495128EE0E3ED49
:10265000F2E0DF01982F1D929A95E9F7E5ECF2E0A0
:10266000DF011D928A95E9F787E00E9484130C949C
:102670009203FF920F931F93CF93DF93CDB7DEB7F3
:102680002E970FB6F894DEBF0FBECDBF8E010F5F41
:102690001F4F8EE0F80111928A95E9F7F12C6F2D0A
:1026A000C8010E94B512F394F7E0FF12F8CF4EE094
:1026B00050E0B80185EC92E00E94C626FF24F39416
:1026C000009709F4F12C892B41F08EE0F801A5EC7C
:1026D000B2E001900D928A95E1F72F2D47E063ED6E
:1026E00072E085EC92E00E9485130E9498038F2D82
:1026F0002E960FB6F894DEBF0FBECDBFDF91CF91FF
:102700001F910F91FF9008950895FF920F931F93CB
:10271000CF93DF93F82E092F162FD72FC42F222304
:1027200049F081E0809383020E94041F909382020B
:1027300080938102809183028823D9F08091810265
:10274000909182020E941C1F059798F0EF2DF02FA8
:10275000A12FBD2F80E090E04C2F50E0841795070B
:1027600034F4219131912D933D930196F7CF10923E
:102770008302DF91CF911F910F91FF9008950E94E6
:10278000FE200E94560F0C940A210E940E210E94E6
:102790005E0F0C9428210E948A1E0E94E5200E9450
:1027A000480F0E94BF130E94C5130E94520FFBCF17
:1027B000EF92FF920F931F93CF93DF938B01682FBC
:1027C00011110AC0442329F0E82FF0E0E556FC4F30
:1027D0006491762F862F75C0212F30E0E82FF0E02E
:1027E000442321F0E556FC4FE491F0E046E0049FDD
:1027F000C0011124CFEFD0E0BE010E9438264BEA81
:102800004603C001479F900D1124800F911D800F3A
:10281000911D982F990F890FAE01421B530B4E9FAC
:10282000D0014F9FB00D5E9FB00D11249B2F189FBC
:10283000A0011124452F55278E01041B150B0E9F57
:10284000A0010F9F500D1E9F500D11247E01E81A0C
:10285000F108E29E8001E39E100DF29E100D1124FE
:10286000212F3327C21BD30BCE9F9001CF9F300D5A
:10287000DE9F300D112462307105A9F050F461150E
:10288000710571F061307105C1F47E2F8B2F952F8A
:1028900017C06430710569F048F06630710569F45D
:1028A0008B2F732F0CC07E2F832F0AC08E2F752F76
:1028B00007C08E2F7B2F932F03C0852F7B2F9E2F3A
:1028C000692FDF91CF911F910F91FF90EF900895A5
:1028D00041E00E94D813089508950E946814089555
:1028E000CF93DF93762FE901682F842F0E946D1418
:1028F000688379838A83DF91CF9108958091E10283
:10290000282F269530E02115310519F48170826059
:1029100005C02532310524F0817088648093E1027E
:10292000089588E090E00C94DB26CF92DF92EF923E
:10293000FF926B017C010E947E14B701A60188E022
:1029400090E0FF90EF90DF90CF900C94F926E1EEAD
:10295000F2E083E0808311828FEF8283838314828D
:1029600060817181828193810C9495148091E10240
:1029700080FF02C08695089580E008959091E50259
:10298000933018F49F5F9093E502882351F0609193
:10299000E1027091E2028091E3029091E4020C94D2
:1029A0009514089581E00C94BE149091E50299234A
:1029B00019F091509093E502882351F06091E10263
:1029C0007091E2028091E3029091E4020C949514DC
:1029D000089581E00C94D51470E00C94031B609171
:1029E00008018091E10280FF0AC08091070123E085
:1029F000829FC00111248A519D4F0C94EC14809148
:102A0000090190910A01891780F7E82FF0E09F01F2
:102A1000220F331FE20FF31FEA51FD4F1082118284
:102A200012828F5FF0CF9091E10290FF16C09091DB
:102A3000090120910A01921770F4E92FF0E0DF01FB
:102A4000AA0FBB1FEA0FFB1FEA51FD4F8083618372
:102A500042839F5FF0CF0C94EF140895CF93DF93E0
:102A600000D01F92CDB7DEB79091E10290FF0AC06F
:102A70009E012F5F3F4F0E9470144B816A818981B4
:102A80000E9413150F900F900F90DF91CF91089532
:102A9000CF93DF93EC01EC81F0E0EA56FD4F4491D7
:102AA000E1EEF2E0628181810E942E158C818F5FC0
:102AB0008C83DF91CF910895CF93DF93EC01E1EE0A
:102AC000F2E0438162818C810E942E158C818F5FA0
:102AD0008C83DF91CF9108950F931F93CF93DF9352
:102AE00000D01F92CDB7DEB78C0180918402811196
:102AF0000AC09E012F5F3F4F4FEF6FEF0E9470148F
:102B0000898180938402F8018481813051F028F01A
:102B1000823061F4409184020AC08091840240E0D6
:102B200007C06091840240E080E003C040E080E0A4
:102B300060E00E941315F801848190E0019663E043
:102B400070E00E944C2684830F900F900F90DF91CD
:102B5000CF911F910F910895AF92BF92CF92DF92C4
:102B6000EF92FF920F931F93CF93DF9300D01F92AA
:102B7000CDB7DEB7182FF62E042FE22E9091E1028A
:102B800090FF6DC0E92FE695AE2FB0E0A556BE4F81
:102B90008C91809390029E7F923061F49E012F5F12
:102BA0003F4F812F0E9470144B816A8189810E945E
:102BB000131543C0823019F40091E4023EC0863000
:102BC00019F41091E20239C08930D9F38931A9F59D
:102BD000E9518E2F8170D82EE695F0E0EA56FC4F31
:102BE000A590B490C12CBB2460910B01C61618F5BA
:102BF0002C2D30E0A29EC001A39E900DB29E900DA0
:102C0000112470E00E943826812FD11002C0860F57
:102C100001C0861B90910901290F311DA901440FA4
:102C2000551F240F351F2A513D4F402F6F2D0E94F5
:102C30007014C394D9CF0E94EF141093E202F09263
:102C4000E3020093E402EE2051F06091E102709102
:102C5000E2028091E3029091E4020E9495140F90A9
:102C60000F900F90DF91CF911F910F91FF90EF90F8
:102C7000DF90CF90BF90AF900895E1EEF2E09181A8
:102C8000282F4381628188E0890F0C94AC1581E084
:102C90000C943D16E1EEF2E09181282F4381628190
:102CA00088EF890F0C94AC1581E00C944A16E1EE84
:102CB000F2E0628128E0620F08F46FEF282F438171
:102CC00081810C94AC1581E00C945716E1EEF2E092
:102CD000628128E0621B08F460E0282F4381818133
:102CE0000C94AC1581E00C946616E1EEF2E04381A1
:102CF00028E0420F08F44FEF282F628181810C9465
:102D0000AC1581E00C947516E1EEF2E0438128E009
:102D1000421B08F440E0282F628181810C94AC159D
:102D200081E00C94841620E00C94AC15FF920F9374
:102D30001F93CF93DF93EC01F12C0FEF10E0609124
:102D40000B01F616F0F4809109012F2D30E0280FC9
:102D5000311DC901880F991F280F391F2A513D4F76
:102D600070E0C8010E944C26962F8C814091E402AD
:102D70006091E302F99E800D11240E947014F39477
:102D8000DECF0E94EF149A818C8190FF02C08F5F8A
:102D900001C081508C83DF91CF911F910F91FF90E3
:102DA0000895BF92CF92DF92EF92FF920F931F93FD
:102DB000CF93DF93FC01828180FF02C00FEF01C03F
:102DC00001E010E080910B01181708F040C08091DD
:102DD0000901C12ED12CE601C80FD11DCE01880FEB
:102DE000991FC80FD91FCA51DD4F188219821A8244
:102DF00034E0E32EF12CB12C809186028B0D8131D1
:102E000014F08F7005C087FF03C090910B01890FEC
:102E1000082E000C990BC816D90691F48091E40293
:102E20008E9DA0018F9D500D112455954795559568
:102E300047959E016091E3028091E2020E94701426
:102E4000B00EF1E0EF1AF108B9F61F5FBBCF0E9498
:102E5000EF1480918602013031F4811102C080911B
:102E60000B01815007C090E0019660910B0170E06A
:102E70000E944C2680938602DF91CF911F910F9183
:102E8000FF90EF90DF90CF90BF900895CF93809107
:102E9000090190910A01891770F4E82FF0E09F0171
:102EA000220F331FE20FF31FEA51FD4F10821182F0
:102EB00012828F5FF0CFC0E060910B01C617C0F5A2
:102EC000EC2FF0E070E0CF010E944C262091090128
:102ED000820F20918502022E000C330B90E0E21746
:102EE000F307CCF020910601022E000C330B2E17B5
:102EF0003F078CF09C01220F331F820F931F9C0110
:102F00002A513D4F4091E4026091E3028091E20238
:102F10000E9470140BC0FC01EE0FFF1F8E0F9F1F4D
:102F2000FC01EA51FD4F108211821282CF5FC4CFA3
:102F30000E94EF142091050180918502820F8093F9
:102F4000850290910601920F9093060119165CF488
:102F5000082E000C990B40910B0150E04150510993
:102F6000841795071CF0219520930501CF910895B2
:102F70008F929F92AF92BF92CF92DF92EF92FF9289
:102F80000F931F93CF93DF938C01FC014481C42FD7
:102F9000D0E09E01DE010E9490269B01AC010E94C0
:102FA000A6266B017C01E0E2F0E0EC1BFD0BA5E541
:102FB000B0E09B01AC010E94A6264B015C019F0181
:102FC000DF010E9488269B01AC010E94B1269B0173
:102FD000AC012C0D3D1D4E1D5F1DC501B4010E94AD
:102FE0006026C22FD22F2A3228F4F3E02F9F9001BF
:102FF00011240DC025E530E02C1B3109C901880FD3
:10300000991F280F391F37FF02C02F5F3F4F35959B
:103010002795C22FC095F12C85E5E82EED1A8091F9
:103020000B01F816C8F4F1FC02C08E2D01C08D2FE3
:10303000909109012F2D30E0290F311DA901440F76
:10304000551F240F351F2A513D4F4C2F6091E3022D
:103050000E947014F394E3CF0E94EF14F80184816E
:10306000811102C091E003C0803219F49FEF909368
:10307000040190910401890FF8018483DF91CF91BD
:103080001F910F91FF90EF90DF90CF90BF90AF9086
:103090009F908F9008950F931F93CF93DF93EC0130
:1030A00000E010E080910B01282F30E00217130799
:1030B00024F5909109019801290F311DA901440FB0
:1030C000551F240F351F2A513D4F869590E04C81A6
:1030D000081719071CF4442331F002C0411103C042
:1030E0004091E40201C040E06091E3028091E2027D
:1030F0000E9470140F5F1F4FD5CF0E94EF148C8178
:1031000090E00196817099278C83DF91CF911F9178
:103110000F910895E1EEF2E080818E7F80836081DF
:103120007181828193810E949514109291022FEFF8
:1031300080E792E0215080409040E1F700C000001D
:103140000C94EF14E1EEF2E080818E7F8083109288
:1031500091022FEF80E792E0215080409040E1F70C
:1031600000C000000C94EF141092910280918E0226
:1031700081110AC081E080938E028091E10281700A
:1031800080938D020C94A21808956091E1026695D7
:1031900070E04BE050E08CE091E00E94B926892B72
:1031A00019F481E0809391020E94041F9093880299
:1031B0008093870208959091E10290FF35C091704D
:1031C000811102C0926006C0853210F0986402C07E
:1031D000880F982B9093E102662351F06091E102F1
:1031E0007091E2028091E3029091E4020E949514B2
:1031F0006091E102669570E04BE050E08CE091E078
:103200000E94B926892B19F01092910202C00E94E7
:10321000C51881E080938A024091E4026091E30244
:103220008091E2020C9493160895682F9091E10228
:10323000969581E0890F853208F081E00C94DB18C7
:1032400081E00C941519682F9091E10296958FEF0B
:10325000890F09F484E20C94DB1881E00C942319A3
:1032600061E00C94DB18E1EEF2E080818160808304
:1032700086950C9430198091E10280FD0C948A1897
:103280000C94331960E00C94DB1880918F0281114B
:103290002EC00E946E0E811104C00E94160F0E9463
:1032A000A7140E9491146093E1027093E20280934C
:1032B000E3029093E4026E7F61F40E94A7140E94DF
:1032C00091146093E1027093E2028093E302909381
:1032D000E4020E947E14109291028091E10280FF2C
:1032E00003C086950E94421981E080938F02089561
:1032F000E1EEF2E080818160808386950C94421932
:1033000010928E0280918D0281110E9478190C9486
:10331000C5180F931F93CF93DF9380919102882359
:1033200009F485C080919002E091E102E695E81BE6
:10333000E0938902823049F4F0E0EE56FD4FE491CB
:10334000CE2FD0E008E415E149C0863049F4F0E022
:10335000E157FD4FE491CE2FD0E00CE515E13EC0E2
:10336000893051F4E695F0E0E457FD4FE491CE2F1B
:10337000D0E006E916E132C08F3051F4E695F0E076
:10338000E757FD4FE491CE2FD0E001ED16E126C0C6
:10339000853149F4F0E0EA57FD4FE491CE2FD0E0BB
:1033A00006E417E11BC0883181F0833239F4E4E888
:1033B000F2E0C591D4910CE615E110C0843251F4CD
:1033C000C4EFD1E00BE418E109C0C8E2D0E008EB9B
:1033D00017E104C0C0EDD7E00CE614E180918A0249
:1033E000882361F010928A020E94041F9093880241
:1033F0008093870210928C0210928B020E94041F0D
:10340000E0918702F09188028E1B9F0B8F3F9F47B0
:1034100070F4EC0FFD1FF0938802E093870287E8B9
:1034200092E0F801DF91CF911F910F910994DF9104
:10343000CF911F910F910895882311F0FA0101C0D7
:10344000FB010994CF93DF93C82FD62F0E94B614A7
:103450008C1740F00E94B6148D1720F4DF91CF91A5
:103460000C9420198C2FDF91CF910C9430191F935D
:10347000CF93DF93FB011281112309F4BCC0EC014F
:103480000E94850D8272CD3CFCE5DF0709F497C0F0
:1034900008F043C0C73CECE5DE0709F47CC0D8F473
:1034A000C43C9CE5D90709F46AC038F4C33CDC4548
:1034B00009F0A4C00E943B19A0C0C53C9CE5D907F7
:1034C00009F462C0C63CDC4509F098C044E556E109
:1034D00067E476E15DC0CA3CFCE5DF0709F465C03E
:1034E00070F4C83CECE5DE0709F45AC0C93CDC4581
:1034F00009F084C043E656E162E776E149C0CB3C7F
:103500009CE5D90709F456C0CC3CDC4509F076C0EF
:1035100049EE54E162ED74E13BC0C23DFCE5DF07DA
:1035200009F45AC098F4CF3C9CE5D90709F44EC081
:1035300008F44AC0C03DFCE5DF0709F44AC0C13DBC
:10354000DC4509F05BC06EE089E04EC0C53D9CE5FE
:10355000D90709F447C050F4C33DFCE5DF07F9F192
:10356000C43DDC4509F04AC088E142C0C63D9CE547
:10357000D907E9F1CE35DD4509F43FC03FC04DE242
:1035800059E160E279E104C040E259E16DE279E19C
:103590000E941C1A32C047E456E164E576E1F8CF98
:1035A00042E756E163E676E1F3CF40E956E161E8B0
:1035B00076E1EECF41E856E160E976E1E9CF42ED10
:1035C00054E169EE74E1E4CF81E012C065E082E08D
:1035D0000BC068E086E008C064E18FE005C067E1E9
:1035E00085E102C062E289E10E94221A06C083E2FC
:1035F0000E94301902C011E001C010E0812FDF915C
:10360000CF911F910895239A25B1277F35B1386056
:103610004FB7F894FC01CB01880F991F680F791FF1
:103620006E0F7F1FE617F70789F0819198E035B993
:10363000000000C087FF25B9880F000000C000C04F
:1036400000C025B900C09A9591F7ECCF4FBF8FE528
:1036500094E00197F1F700C000000895CF93DF9345
:10366000EC01FB018281882309F426C1C430FDE509
:10367000DF0760F4CB3F9CE5D90768F49E01225038
:103680003C452431310508F018C105C0C236EDE5CE
:10369000DE0709F012C10E94810E9093C40280934C
:1036A000C302C031FCE5DF0709F4CAC008F041C01D
:1036B000C8309CE5D90709F4A4C0F0F4C430FCE597
:1036C000DF0709F48CC068F4C2309CE5D90709F41F
:1036D00082C0C330DC4509F0E5C08091C30282603E
:1036E000DFC0C630FCE5DF0709F483C008F085C001
:1036F0008091C3028860D4C0CC309CE5D90709F41E
:1037000090C068F4CA30FCE5DF0709F47EC008F019
:1037100084C00E94AC078091C3028068C1C0CE30D3
:103720009CE5D90709F481C008F086C08091C302E6
:1037300094C0CD3FFCE5DF0709F47BC038F5C43108
:103740009CE5D90709F49AC058F4C231FCE5DF07BB
:1037500009F47AC008F07EC08091C3028F7BA0C0BC
:10376000CB3F9CE5D907F1F108F03FC0C531DC45FE
:1037700009F098C08091C30282FB222720F991E0D2
:10378000922790FB82F990FB83F98AC0C1308DE5C6
:10379000D80709F467C050F48091C402CF3FECE52C
:1037A000DE07C1F108F05BC08D7F65C0C3308DE5D9
:1037B000D80709F471C008F46DC0C236DD4509F0C0
:1037C00071C08091C30284FB222720F991E09227E7
:1037D00090FB84F965C08091C302816061C08091D3
:1037E000C30216C08091C40216C08091C4028260D8
:1037F00042C08091C302806153C08091C302806245
:103800004FC08091C30280644BC08091C302886026
:10381000846046C0826081602EC08091C3028E7F2A
:103820003FC08091C3028D7F3BC08091C302877FE0
:1038300037C08091C40214C08091C3028F7E30C013
:103840008091C3028F7D2CC00E94AC078091C3027F
:103850008F7726C08091C302877F8B7F21C08D7FA9
:103860008E7F09C08091C402982F909591708E7FB1
:10387000892B90FB81F98093C40214C00E94AC078D
:103880008091C30287FB222720F991E0922790FBC9
:1038900087F906C081E001C080E00E94180F02C0D5
:1038A0008093C3028091C3029091C4020E94920E41
:1038B0000E94AC0780E001C081E0DF91CF910895C4
:1038C000CF93DF9386319C4541F5EB010E94850D36
:1038D000982F8A812091020130910301882379F089
:1038E0009A7A81E009F480E080939202911102C0FB
:1038F00069E201C065E3C9010E94481E0AC08091C7
:103900009202811102C069E201C065E3C9010E940F
:10391000531E0E94D70D80E001C081E0DF91CF915E
:1039200008950F931F93CF93DF93C42FD22FFC01E1
:1039300082818823C9F0409395020E94041F9093CE
:1039400094028093930280E28C0F883008F057C075
:10395000C77081E001C0880FCA95EAF7DF91CF9167
:103960001F910F910C940D0580919502481330C062
:1039700080919302909194020E941C1F883C9105B3
:1039800038F510E21D0FCD17B9F080E28C0F8830AA
:1039900040F4C77081E001C0880FCA95EAF70E9421
:1039A0001405183028F581E09D2F977001C0880F0D
:1039B0009A95EAF70E940D05802F0E9404051830A1
:1039C000F0F4D77081E001C0880FDA95EAF70AC0F9
:1039D00080E28C0F883098F4C77081E001C0880FB6
:1039E000CA95EAF7DF91CF911F910F910C941405BE
:1039F000802FDF91CF911F910F910C940405DF91DF
:103A0000CF911F910F9108950F939C01CB01243FFB
:103A10004CE5340731F188F4293DFCE53F07D9F046
:103A20002A3D4CE5340779F1283D3C45A9F506E2ED
:103A300021EE41EE68ED7CE52BC0263FFCE53F071B
:103A4000E1F0A8F0273F3C4539F507E225EE46EEC8
:103A500067EF7CE51DC007E225EE45EE69ED7CE5EC
:103A600017C006E221EE40EE64EF7CE511C007E2EC
:103A700025EE44EE65EF7CE50BC006E221EE42EE5A
:103A800066EF7CE505C008E221E045EE6AED7CE5E5
:103A90000E94911C80E008C0FC018281882319F0FB
:103AA0001092950201C081E00F9108959093C10199
:103AB0008093C001089590939B0280939A02089589
:103AC000E0919A02F0919B02309721F00190F081F1
:103AD000E02D099480E00895E0919A02F0919B0214
:103AE000309799F020912301222359F02091C302AD
:103AF00027FF07C0DC012C9111962C93119726E02B
:103B00002C930280F381E02D09940895209198026E
:103B1000309199022817390771F090939902809398
:103B20009802E0919A02F0919B02309721F0068072
:103B3000F781E02D09940895209196023091970223
:103B40002817390771F09093970280939602E091BD
:103B50009A02F0919B02309721F00084F185E02DCC
:103B600009940895FC01329680912301882331F055
:103B70008091C30287FF02C09EE101C096E080E011
:103B8000915028F021912223D9F38F5FF9CF089526
:103B9000662351F1209123012223E9F02091C302F1
:103BA00027FF19C0462F4695469546954E31E0F4BD
:103BB000677021E030E002C0220F331F6A95E2F700
:103BC000FC01E40FF11D828190E02823392381E07C
:103BD000232B69F409C0FC013296089621916217E3
:103BE00029F0E817F907D1F780E0089581E00895FA
:103BF0009C01FC0132969FEF80E04191461789F0CD
:103C00009F3F19F4411101C0982F8F5F8630A9F7AB
:103C10009F3F39F0F901E90FF11D97FDFA95628395
:103C2000089508959C012A5F3F4FFC01428146138D
:103C300001C01282019682179307B9F70895262FC3
:103C40002695269526952E3168F4FC01E20FF11D8C
:103C5000677021E030E001C0220F6A95EAF78281A7
:103C6000282B22830895262F2695269526952E31DA
:103C700070F4FC01E20FF11D677021E030E001C03B
:103C8000220F6A95EAF720958281282322830895DE
:103C900020912301222329F02091C30227FD0C94B7
:103CA0001F1E0C94F81D20912301222329F020913E
:103CB000C30227FD0C94331E0C94121E2091230185
:103CC000FC013296222331F08091C30287FF02C0AB
:103CD0008EE101C086E0DF011D928A95E9F7089523
:103CE00008950C94701E83E080939C020C94711EC6
:103CF000811102C081E001C082E080939C020C949B
:103D0000711E0C94781E81E080939C020C94711EAD
:103D10000C94831E089580911E03843031F10E941B
:103D20009A0310929D0220E488E190E00FB6F89487
:103D3000A895809360000FBE2093600083B7817FB9
:103D4000846083BF83B7816083BF7894889583B78D
:103D50008E7F83BF0FB6F894A8958091600088612C
:103D600080936000109260000FBE089508950C9437
:103D7000B61ECF930E94B71E0E9439130E94B61E32
:103D8000C0E08C2F0E946512892B29F4CF5FC730C9
:103D9000C1F780E001C081E0CF9108950E94AC0797
:103DA0000C940C041F920F920FB60F9211248F9354
:103DB0009F93AF93BF9380919D02811113C0809117
:103DC000160390911703A0911803B091190341961F
:103DD000A11DB11D8093160390931703A0931803A0
:103DE000B0931903BF91AF919F918F910F900FBE28
:103DF0000F901F90189582E084BD93E095BD9AEFD7
:103E000097BD80936E0008952FB7F89480911603A4
:103E100090911703A0911803B09119032FBF089533
:103E20002FB7F894609116037091170380911803CF
:103E3000909119032FBF08959C014FB7F89480917A
:103E4000160390911703A0911803B09119034FBF67
:103E5000821B930B089578941F920F920FB60F92C6
:103E600011248F939F93AF93BF93809116039091EA
:103E70001703A0911803B09119030196A11DB11D5C
:103E80008093160390931703A0931803B09319031C
:103E9000BF91AF919F918F910F900FBE0F901F9088
:103EA000189581E08093E00080E28093D800109222
:103EB000C9008FE19EE40197F1F700C0000087E0A0
:103EC00090EBDC018093270390932803A0932903B0
:103ED000B0932A039CE088E10FB6F894A8958093EC
:103EE00060000FBE90936000FFCF8091C1020895E3
:103EF0000895CF93DF9320912301222339F020915D
:103F0000C30227FF03C060E222E002C068E021E0B4
:103F10002093E9002FEF3091E800215035FD06C0D5
:103F200035ED3A95F1F700002111F5CF2091E80029
:103F300025FF1DC0EC0180912301811105C040E0E7
:103F400050E068E070E003C070E040E050E0CE0177
:103F50000E949A218091E8008E778093E80080E2A9
:103F6000FE01A1EAB2E001900D928A95E1F7DF919E
:103F7000CF91089580939E027093A00260939F0258
:103F800080911E03843001F582E08093E9008FEF79
:103F90009091E800815095FD06C095ED9A95F1F756
:103FA00000008111F5CF8091E80085FF0DC040E051
:103FB00050E063E070E08EE992E00E949A218091E7
:103FC000E8008E778093E8000895BC0184E00C94AB
:103FD000BA1FBC0183E00C94BA1F089580911D03A1
:103FE000811109C00E942B230E9488238091E20046
:103FF00084608093E200089510921D0308950C944C
:10400000881E60911A0381E0611101C080E00C9468
:10401000731E90911E0381E0943009F080E060915E
:104020001A030C94781E42E061EC81E00E94A42205
:1040300042E261EC82E00E94A42290911E0381E0A2
:10404000943009F080E060911A030C94811E8091F5
:104050002003833009F461C030F4813071F0823084
:1040600009F49AC008958A3009F486C08B3009F4A7
:104070006CC0893009F0A8C020C080911F03813A2C
:1040800009F0A2C08091E800877F8093E8008091CA
:10409000230390912403892B21F460E281EA92E0CA
:1040A00003C060E080E090E070E00E94E521809134
:1040B000E8008B778093E800089580911F03813298
:1040C00009F082C08091230390912403029708F0A5
:1040D0007BC08091E800877F8093E8008091E800B2
:1040E00082FD05C080911E038111F8CF6DC0209123
:1040F000F3008091F20090E0922B029731F48091CE
:10410000F100813011F0863021F48091F10080932C
:10411000C1028091E8008B7753C080911F03813AE0
:1041200009F052C08091230390912403892B09F058
:104130004BC08091E800877F8093E8008091E80081
:1041400080FFFCCF8091230136C080911F03813214
:10415000D9F58091230390912403892BA9F58091AF
:10416000E800877F8093E8000E94D9228091210394
:10417000809323010C94AC0780911F03813221F5B9
:104180008091E800877F8093E8000E94D922809187
:1041900022038093C202089580911F03813AA1F403
:1041A0008091E800877F8093E8008091E80080FF9D
:1041B000FCCF8091C2028093F1008091E8008E775D
:1041C0008093E8000C94D922089584B7877F84BF38
:1041D0000FB6F894A8958091600088618093600084
:1041E000109260000FBE90E080E80FB6F8948093C4
:1041F0006100909361000FBE0C94831E0E942B23DC
:104200000E948823E2EEF0E08081846080837894CD
:104210000C941D2687E191E00C945B1D80911E0398
:104220008530A9F480911E03853079F40E948B1E9D
:1042300080911C038823B1F30E94B91E882391F357
:104240000E9484210E94AC07EDCF0C94CE1E0895ED
:1042500008950C942B21292F332723303105C9F0E1
:1042600060F42130310581F02230310509F044C07D
:104270008BE390E02DEB34E043C021323105E1F0D7
:104280002232310549F138C082E190E028EF34E074
:1042900037C099278130910549F028F0029761F5E0
:1042A000EBE9F4E005C0E9EBF4E002C0E9EAF4E090
:1042B000849190E09F0124C06115710541F0613047
:1042C0007105D1F489E090E028EE34E019C089E06E
:1042D00090E02FEC34E014C06115710541F06130BD
:1042E000710551F48DE690E02AE035E009C080E4E4
:1042F00090E027E735E004C080E090E020E030E087
:10430000FA0131832083089580E189BD82E189BD6E
:1043100009B400FEFDCF8091D8008F7D8093D80036
:104320008091E00082608093E0008091E00081FD58
:10433000FCCF0895CF92DF92EF92FF920F931F93DD
:10434000CF93DF93EC018B017A010E94F822811157
:1043500033C0E114F10439F0F70180819181081B29
:10436000190BC80FD91FC12CD12C0115110519F13A
:104370008091E80085FD16C08091E8008E778093DB
:10438000E800E114F10449F0F70180819181C80E41
:10439000D91ED182C08285E00FC00E94F8228823F6
:1043A00021F30AC089918093F10001501109FFEFB8
:1043B000CF1ADF0ADACF80E0DF91CF911F910F9102
:1043C000FF90EF90DF90CF900895209125033091DA
:1043D00026032617370748F06115710539F4209137
:1043E000E8002E772093E80001C0B901FC0120E02D
:1043F0006115710579F180911E038823F1F18530F3
:10440000F1F18091E80083FD3CC08091E80082FDDD
:104410002EC08091E80080FFEBCF2091F3008091C7
:10442000F20090E0922B6115710551F088309105F2
:1044300038F421912093F100615071090196F3CF76
:1044400021E0089709F020E08091E8008E778093C2
:10445000E800CECF2111CFCF0AC080911E03882360
:1044600061F0853061F08091E80083FD0AC08091A1
:10447000E80082FFF2CF80E0089582E0089583E0B3
:10448000089581E008952091250330912603261791
:10449000370748F06115710539F42091E8002E774F
:1044A0002093E80001C0B901FC0120E0611571050D
:1044B00091F180911E03882309F440C0853009F4EE
:1044C0003FC08091E80083FD3DC08091E80082FDFF
:1044D0002FC08091E80080FFE9CF2091F300809108
:1044E000F20090E0922B6115710559F0883091052A
:1044F00040F424912093F1003196615071090196A6
:10450000F2CF21E0089709F020E08091E8008E7753
:104510008093E800CBCF2111CCCF0AC080911E033D
:10452000882361F0853061F08091E80083FD0AC046
:104530008091E80082FFF2CF80E0089582E0089544
:1045400083E0089581E00895982F973068F590935F
:10455000E900981739F07091EC002091ED0050912E
:10456000F00003C0242F762F50E021FD02C09F5F92
:10457000ECCF3091EB003E7F3093EB003091ED00BB
:104580003D7F3093ED003091EB0031603093EB00D4
:104590007093EC002093ED005093F0002091EE001A
:1045A00027FDE5CF80E008958F708093E90081E0DA
:1045B000089580911F0387FF11C08091E80082FD5C
:1045C00005C080911E038111F8CF11C08091E800D1
:1045D0008B770BC080911E03882349F08091E800FF
:1045E00080FFF8CF8091E8008E778093E8000895EF
:1045F0002091E4003091E50095E64091EC00842F95
:10460000817040FF23C08091E80080FD1DC0809133
:104610001E03882399F0853099F08091EB0085FD89
:1046200011C04091E4005091E5002417350729F3AB
:10463000915011F09A01E1CF84E0089582E008954D
:1046400083E0089581E0089580E008954091E800B6
:1046500042FFDDCF08950E9499230E94A123E0EE3E
:10466000F0E0808181608083E8EDF0E080818F77E9
:10467000808319BCA7EDB0E08C918E7F8C938081F4
:104680008F7E808310921D0308950F931F93CF9305
:10469000DF930E9499230E94A123C8EDD0E0888176
:1046A0008F77888388818068888388818F7D8883DD
:1046B00019BC10921E0310921A0310921C03109240
:1046C0001B0300EE10E0F80180818B7F80838881DE
:1046D0008160888342E060E080E00E94A422E1EEF5
:1046E000F0E080818E7F8083E2EEF0E08081816067
:1046F0008083808188608083F80180818E7F8083C1
:10470000888180618883DF91CF911F910F910895F7
:10471000E8EDF0E080818F7E8083E7EDF0E080813E
:104720008160808384E082BF81E080931D030C94CC
:104730004523E8EDF0E080818E7F80831092E200D7
:1047400008951092DA001092E10008951F920F92DE
:104750000FB60F9211242F933F934F935F936F9354
:104760007F938F939F93AF93BF93EF93FF9380912A
:10477000E10082FF0BC08091E20082FF07C08091C0
:10478000E1008B7F8093E1000E941C268091DA007B
:1047900080FF1FC08091D80080FF1BC08091DA008D
:1047A0008E7F8093DA008091D90080FF0DC080E178
:1047B00089BD82E189BD09B400FEFDCF81E080930F
:1047C0001E030E94EE1F05C019BC10921E030E941A
:1047D000FC1F8091E10080FF19C08091E20080FF02
:1047E00015C08091E2008E7F8093E2008091E2000C
:1047F00080618093E2008091D80080628093D8002D
:1048000019BC85E080931E030E9401208091E10085
:1048100084FF30C08091E20084FF2CC080E189BD1C
:1048200082E189BD09B400FEFDCF8091D8008F7D63
:104830008093D8008091E1008F7E8093E100809189
:10484000E2008F7E8093E2008091E200816080939D
:10485000E20080911A03882311F084E007C0809160
:10486000E30087FD02C081E001C083E080931E0366
:104870000E9409208091E10083FF29C08091E2001D
:1048800083FF25C08091E100877F8093E10082E073
:1048900080931E0310921A038091E1008E7F809313
:1048A000E1008091E2008E7F8093E2008091E2003F
:1048B00080618093E20042E060E080E00E94A422F8
:1048C0008091F00088608093F0000E94FF1FFF91AC
:1048D000EF91BF91AF919F918F917F916F915F9178
:1048E0004F913F912F910F900FBE0F901F901895F1
:1048F0001F920F920FB60F9211242F933F934F9355
:104900005F936F937F938F939F93AF93BF93CF9357
:10491000DF93EF93FF93C091E900CF708091EC009B
:10492000D82FD17080FDD0E81092E9008091F0007E
:10493000877F8093F00078940E94BC241092E90055
:104940008091F00088608093F000CD2BCF70C093F1
:10495000E900FF91EF91DF91CF91BF91AF919F91CE
:104960008F917F916F915F914F913F912F910F9018
:104970000FBE0F901F9018951F93CF93DF93CDB765
:10498000DEB7AA970FB6F894DEBF0FBECDBFEFE13A
:10499000F3E08091F100819323E0E732F207C9F759
:1049A0000E9427208091E80083FF2EC180911F0381
:1049B00090912003492F50E04A30510508F024C15E
:1049C000FA01EC58FF4F0C948226803821F082388F
:1049D00009F01AC108C080911B0390911C03992310
:1049E00089F082600FC0809123038F70873008F0B8
:1049F0000BC18093E9008091EB0085FB882780F94B
:104A00001092E9009091E800977F9093E8008093DE
:104A1000F1001092F100D1C0282F2D7F09F0F4C0D1
:104A2000882319F0823061F0EFC08091210381303A
:104A300009F0EAC0933009F080E080931C032EC097
:104A40008091210381112AC0809123038F702FEF61
:104A5000280F263008F0D8C08093E9002091EB00A1
:104A600020FF1CC0933021F48091EB00806214C0C1
:104A70009091EB0090619093EB0021E030E0A90170
:104A800002C0440F551F8A95E2F74093EA00109246
:104A9000EA008091EB0088608093EB001092E900BF
:104AA0008091E800877F8093E8000E94D922ACC003
:104AB0008111AAC0109121031F778091E3008078B3
:104AC000812B8093E3008091E800877F8093E8004A
:104AD0000E94D9228091E80080FFFCCF8091E30002
:104AE00080688093E300111102C082E001C083E07E
:104AF00080931E0389C08058823008F085C0809161
:104B00002103909122038C3D53E0950779F583E0D2
:104B10008A838AE289834FB7F894DE01139620E0F6
:104B20003EE051E2E32FF0E050935700E49120FF84
:104B300003C0E295EF703F5FEF708E2F90E0EA3098
:104B400010F0C79601C0C0968D939D932F5F2431BE
:104B500049F74FBF8091E800877F8093E8006AE2C1
:104B600070E0CE0101960E94E52116C060912303FA
:104B700070912403AE014F5F5F4F0E942921BC0159
:104B8000892B09F441C09091E800977F9093E80049
:104B900089819A810E9443228091E8008B778093DB
:104BA000E80032C0803881F58091E800877F8093EB
:104BB000E80080911A038093F1008091E8008E77DD
:104BC00072CF811121C080912103909122039927F6
:104BD0000297D4F48091E800877F8093E800809169
:104BE000210380931A030E94D92280911A03811114
:104BF00006C08091E30087FD02C081E001C084E02F
:104C000080931E030E9413208091E80083FF0AC056
:104C10008091E800877F8093E8008091EB008062BC
:104C20008093EB00AA960FB6F894DEBF0FBECDBFFF
:104C3000DF91CF911F9108950895CF9380911E0326
:104C40008823A1F0C091E900CF709091EC00892FEA
:104C5000817090FD80E8C82B1092E9008091E800F7
:104C600083FD0E94BC24CF70C093E900CF910895CA
:104C7000AA1BBB1B51E107C0AA1FBB1FA617B70782
:104C800010F0A61BB70B881F991F5A95A9F780959E
:104C90009095BC01CD01089597FB072E16F4009462
:104CA00007D077FD09D00E94382607FC05D03EF4D6
:104CB000909581959F4F0895709561957F4F0895C8
:104CC000A1E21A2EAA1BBB1BFD010DC0AA1FBB1F10
:104CD000EE1FFF1FA217B307E407F50720F0A21B82
:104CE000B30BE40BF50B661F771F881F991F1A94EF
:104CF00069F760957095809590959B01AC01BD0119
:104D0000CF010895EE0FFF1F0590F491E02D099457
:104D10000E949026332312F48A1B9B0B0C94A1262D
:104D2000A29FB001B39FC001A39F700D811D1124EC
:104D3000911DB29F700D811D1124911D08950E9437
:104D40009026B7FF0895821B930B08950E9490262A
:104D5000A59F900DB49F900DA49F800D911D1124CF
:104D60000895B7FF0C94A6260E94A626821B930BDB
:104D70000895FC014150504030F001900616D1F7E3
:104D80003197CF010895882799270895FB01DC0109
:104D900004C08D910190801921F441505040C8F712
:104DA000881B990B0895F999FECF92BD81BDF89AA1
:104DB000992780B50895A6E1B0E044E050E00C9456
:104DC0000D27A8E1B0E042E050E00C940D27262F1B
:104DD000F999FECF92BD81BDF89A019700B40216F1
:104DE00039F01FBA20BD0FB6F894FA9AF99A0FBE9F
:104DF00008950396272F0E94E8260E94E726252F74
:104E00000E94E826242F0C94E8260196272F0E9462
:104E1000E8260C94E726DC01CB01FC01F999FECFD2
:104E200006C0F2BDE1BDF89A319600B40D92415032
:0A4E30005040B8F70895F894FFCF42
:104E3A00C8004602010102001000101001191A1BD5
:104E4A001C1D1E1F202122751F791FED1FE91FE55A
:104E5A001F781F01E200E900EA00B500B600B700BA
:104E6A00CD008301CC008A01920194012102230220
:104E7A0024022502260227022A02B300B4006F0088
:104E8A007000818283E200E900EA00B500B600B74B
:104E9A0000CD008301CC008A0192019401210223F2
:104EAA000224022502260227022A02B300B4006F56
:104EBA00007000818283F1F4F5F6F7363534979065
:104ECA0092969495C6F037679330910001020202D8
:104EDA00020606060909090909090F0F0F0F0F0F24
:104EEA001515151819191919191919191919232420
:00000001FF
