:100000000C9473010C94BA010C94BA010C94BA01CB
:100010000C94BA010C94BA010C94BA010C94BA0174
:100020000C94BA010C94BA010C94ED1D0C94BF1EF3
:100030000C940E190C94BA010C94BA010C94BA01E8
:100040000C94BA010C94BA010C94BA010C94BA0144
:100050000C94BA010C9467190C94BA010C94BA016F
:100060000C94BA010C94BA010C94BA010C94BA0124
:100070000C94BA010C94BA010C94BA010C94BA0114
:100080000C94BA010C94BA010C94BA010C94BA0104
:100090000C94BA010C94BA010C94BA010C94BA01F4
:1000A0000C94BA010C94BA010C94BA015D045D047D
:1000B00089048904F1040F05340634061A05AF05D6
:1000C000C005C0052406340634062D06D806D80619
:1000D000EA06EA06E106EA06EA06EA06D806D806CD
:1000E000E606EA06EA06E6062C1F531F4B20531FBE
:1000F0004B209F1FC21F4B201920282029001E00C3
:100100001F002000210022002B0014001A0008000C
:1001100015001700015104001600070009000A002D
:10012000E1001D001B00060019000500E000E200D0
:100130000151280035002C0035003A003B003C00FE
:100140003D003E00010001005200010001000100DD
:100150000100500051004F000100010001000100AA
:100160000100010001000100010001000100010087
:100170000100010010036D0061007800690070004B
:10018000610064000000160377006F006F007400C8
:100190007000610074006F006F00740000000403C1
:1001A000090409023B00020100A0FA090400000151
:1001B000030101000921110100012240000705810E
:1001C0000308000A090401000103000000092111CD
:1001D00001000122B6000705820320000A12010077
:1001E0000200000008EDFE60600100010200010550
:1001F000010902A10185020901A1000509190129CE
:1002000008150025019508750181020501093009CD
:10021000311581257F9502750881060938158125DC
:100220007F950175088106050C0A38021581257F26
:10023000950175088106C0C005010980A1018503EB
:1002400019012AB700150126B70095017510810024
:10025000C0050C0901A101850419012AA00215019C
:1002600026A002950175108100C005010906A101B3
:100270008506050719E029E7150025019508750190
:1002800081020507190029EF1500250195F0750178
:10029000810205081901290595057501910295014D
:1002A00075039101C005010906A101050719E0299F
:1002B000E7150025019508750181029501750881F2
:1002C000010507190029FF150026FF00950675088E
:1002D000810005081901290595057501910295010F
:1002E00075039101C00011241FBECFEFDAE0DEBF1D
:1002F000CDBF04B603FE27C080916F0290917002BB
:10030000A0917102B09172028730904BA740B04B20
:10031000D1F410926F02109270021092710210923A
:10032000720214BE84B7877F84BF0FB6F894A89575
:1003300080916000886180936000109260000FBE21
:10034000E0E0F8E3099511E0A0E0B1E0ECEFF1E4C2
:1003500002C005900D92A638B107D9F722E0A6E8B1
:10036000B1E001C01D92AF36B207E1F70E94BD12A5
:100370000C94FC200C94000081E0089581E0089525
:100380000C94BE0108950C94C2011F93CF93DF9388
:1003900000D000D01F92CDB7DEB749835A836B835C
:1003A0003091880189819A81311114C0662359F0F6
:1003B000222349F00E947E08182F682F89819A8194
:1003C0000E94250803C00E945108182F69817A8174
:1003D000812F04C00E947E0869817A810F900F905E
:1003E0000F900F900F90DF91CF911F910C941A0FE7
:1003F000FC01262F408151816281738184810C949C
:10040000C50181E00895CF93DF93EC0160E00E9485
:10041000F801BE01DF91CF910C94C3010E944711F6
:100420000E948C020C9481110C947D1180E00C943C
:100430008D0208950C9419020E94C6060E941A02A9
:100440002FEF84E39CE0215080409040E1F700C012
:1004500000000C948D190F931F93CF93DF938C01A1
:1004600061E00E94F801EC01B8010E94C0018823FC
:10047000F1F1B801CE010E9433178823C1F1B80110
:10048000CE010E945D15882391F1B801CE010E9432
:100490008F16882361F1F8018281882309F1CB3519
:1004A0008DE5D807C1F050F4C115FCE5DF0781F0F8
:1004B000CF3DDC45A9F40E94320E19C0CC35EDE5E4
:1004C000DE0761F0CD35DD4559F40E94750D08C099
:1004D0000E941C020CC00E947E0D02C00E94810D71
:1004E000C801DF91CF911F910F910C94BC0180E066
:1004F000DF91CF911F910F9108950C9419020E94E2
:100500008F170E948D020C947D0208950C94850231
:1005100081E008950C9488020895CF93C82F0E941B
:1005200086028C2F0E948A02CF910895CF93DF9389
:10053000CDB7DEB72B970FB6F894DEBF0FBECDBF99
:100540004F83588769877A878B8761110E94C10C16
:100550009E012F5F3F4F86E0F90111928A95E9F7DE
:1005600085E0FE013796D90101900D928A95E1F759
:1005700089819A814C815D81452B31F09F3F31F417
:1005800091E08F3F19F403C091E001C090E090FF2B
:1005900009C049815A816B817C818D819E810E9435
:1005A000E20B05C0C9010E9401028111F2CF2B9616
:1005B0000FB6F894DEBF0FBECDBFDF91CF91089587
:1005C000FC01808191810E94C0080895CF93882307
:1005D00009F4A4C0C82F8238C1F40E948F1781FD8E
:1005E0009DC069E380910201909103010E948518EA
:1005F0000E94F30C2FEF81EE94E021508040904058
:10060000E1F700C0000069E319C0833801F50E94DA
:100610008F1780FD83C063E58091020190910301F3
:100620000E9485180E94F30C2FEF81EE94E0215078
:1006300080409040E1F700C0000063E58091020136
:10064000909103010E949018CF910C94F30C843880
:10065000C1F40E948F1782FD61C067E4809102019E
:10066000909103010E9485180E94F30C2FEF81EEF8
:1006700094E0215080409040E1F700C0000067E422
:10068000DDCF8CEF8C0F813AD0F46C2F809102017A
:10069000909103010E940518882349F06C2F8091E6
:1006A0000201909103010E9490180E94F30C6C2F9C
:1006B00080910201909103010E948518C5CF80E2CC
:1006C0008C0F883048F4C77081E001C0880FCA954C
:1006D000EAF70E94A40CB8CFEBE5EC0FE33040F44E
:1006E000F0E0E95BFE4F808190E0CF910C94C3175E
:1006F000E8E5EC0FE73150F4F0E0EE0FFF1FE75EA6
:10070000FE4F80819181CF910C94D917CD3E30F06E
:100710008C2F0E944C13CF910C941E14CF910895EE
:10072000882309F464C0823879F40E948F1781FF0E
:100730005EC069E380910201909103010E948518D7
:100740000E94F30C69E310C08338B1F40E948F1744
:1007500080FF4DC063E580910201909103010E94EA
:1007600085180E94F30C63E58091020190910301CA
:100770000E9490180C94F30C843879F40E948F171F
:1007800082FF35C067E480910201909103010E94CD
:1007900085180E94F30C67E4E7CF9CEF980F913A1D
:1007A00010F4682FE1CF90E2980F983050F48770E2
:1007B00091E001C0990F8A95EAF7892F0E94AA0C4F
:1007C000D9CF9BE5980F933020F480E090E00C9413
:1007D000C31798E5980F973120F480E090E00C94CF
:1007E000D9178D3E20F00E94A7130C941E14089573
:1007F0001F93CF93DF93182FEB010E94E6022097FF
:1008000041F08FE99FE00197F1F700C000002197C8
:10081000F6CF812FDF91CF911F910C9490038933F4
:1008200019F060E070E002C060E570E00C94F8033D
:10083000882321F00E94A40C0C94F30C08958823C3
:1008400021F00E94AA0C0C94F30C0895CF92DF9231
:10085000EF92FF920F931F93CF93DF937C01162F9C
:10086000C72FFC01D281058102950F700E949A0C5E
:100870008823B9F0DD23A9F08C2F807F803421F00C
:1008800080E2810F883068F08091530282FD09C0B8
:1008900082E00E94430D0E949A0C91E0D82ED92646
:1008A00001C0D12CCC2EC2948FE0C8228C2D90E0B8
:1008B000FC01EA5AFF4F0C9493208C2F807FCF705D
:1008C000882311F0C295C07FDD2399F0CC2309F471
:1008D000A6C180E2810F883010F0111104C08C2F66
:1008E0000E94A40C03C08C2F0E94B40C0E94F30C35
:1008F00096C1812F0E949003CC2309F4B5C180E2F8
:10090000810F883038F1112329F18C2F0E94BA0C05
:1009100024C08C2F807FCF70803211F0C295C07FB1
:10092000112319F01130A1F13DC08091530282FFD3
:1009300017C0DD2349F0CC2329F08C2F0E94A40C92
:100940000E94F30C80E06CC180E00E949003CC23F5
:1009500009F48AC18C2F0E94AA0C0E94F30C84C156
:10096000DD2371F0002341F0013031F40E94D40CFA
:100970008C2B0E94DC0C78C10E94D40C8C2B1DC0E7
:10098000002319F0013009F46FC10E94E90C25C061
:10099000DD2321F0063008F067C10EC0053008F0F5
:1009A00063C11BC0DD2361F0002331F0F7018581B5
:1009B00080FF35C18F7085838C2F0E94180454C12D
:1009C000002359F0193309F03BC1FFEF27EE83E014
:1009D000F15020408040E1F731C18C2F0E941F046C
:1009E00043C18C2F86958695837019F0813061F014
:1009F0003BC1DD2321F0812F9C2F937002C080E04A
:100A000090E00E94C31738C1DD2321F0812F9C2F75
:100A1000937002C080E090E00E94D9172DC1812F11
:100A2000DD2319F00E944C1302C00E94A7130E94FC
:100A30001E1422C18C2F837009F045C0D11118C13A
:100A4000412F429546954770440F440F612F6F70B8
:100A5000862F90E0A0E0B0E0042E04C0880F991F1C
:100A6000AA1FBB1F0A94D2F714FF10C00FE010E0BA
:100A700020E030E004C0000F111F221F331F4A95F1
:100A8000D2F7009510952095309503C000E010E056
:100A90009801C695C695C370BC01CD01602B712B22
:100AA000822B932BC23049F058F4C13019F00E94C8
:100AB0003B07DEC00E942907DBC00E944D07D8C05B
:100AC0000E942707D5C0DD2319F08C2F817001C04B
:100AD0008695882309F4CCC0412F429546954770EE
:100AE000440F440F612F6F70862F90E0A0E0B0E0BC
:100AF000042E04C0880F991FAA1FBB1F0A94D2F7A7
:100B000014FF10C00FE010E020E030E004C0000F40
:100B1000111F221F331F4A95D2F70095109520957B
:100B2000309503C000E010E09801C695C695C370EB
:100B3000BC01CD01602B712B822B932BC23049F06D
:100B400058F4C13019F00E94000892C00E94EE07CC
:100B50008FC00E9412088CC00E94610789C0CF70AC
:100B6000DD2339F08C2F0E948707812F0E94180403
:100B70007FC0812F0E941F048C2F0E94A80778C07D
:100B8000123F21F128F4103F41F0113FC1F043C062
:100B9000133F19F1143F79F03EC0DD2341F00530D9
:100BA00008F062C08C2F8F710E94CD075DC00630A7
:100BB00008F05AC0F7CF8091530282FF18C0DD239E
:100BC00039F08C2F8F710E9487074EC0DD23C9F347
:100BD0008C2F8F710E94A80747C0DD2329F08C2F2E
:100BE0008F710E94720740C00E946D073DC0DD23D7
:100BF00049F0CF718C2F0E94870763E08C2F0E94F1
:100C0000280D32C081E00E94430D023068F182E07D
:100C10000E94430D29C0DD2331F0002391F2812F82
:100C20000E94E60221C0002399F2193349F49FEF94
:100C3000E7EEF3E09150E040F040E1F700C0000043
:100C4000812F0E94900310C04C2F4F70612FC7015D
:100C50000E94160F0E94EE080FC04C2F4F70612F9C
:100C6000C7010E94190F08C088EF8C0D843020F452
:100C70000E948F170E948D02DD20C9F00E94960C01
:100C800080FD15C0F70112820E94900C0E94870718
:100C9000C7010E9478060E94900CDF91CF911F91AE
:100CA0000F91FF90EF90DF90CF900C94A807DF9109
:100CB000CF911F910F91FF90EF90DF90CF9008950B
:100CC0000F931F93CF93DF93EC01688179818A8121
:100CD0000E94CB088C010E9424080E941507B801CD
:100CE000CE010E942604DF91CF911F910F910895AC
:100CF000CF93DF93EC01988189812B813C81232B59
:100D000031F08F3F31F481E09F3F19F403C081E05F
:100D100001C080E080FD1DC0CE010E942B02811128
:100D200010C00E949A0C8823A1F08A81882389F040
:100D30008091530282FD0DC082E0DF91CF910C942F
:100D4000430DCE010E946006CE01DF91CF910C943D
:100D50000302DF91CF91089580E090E00E94C317D5
:100D600080E090E00E94D9170E94C10C0E94D10C33
:100D70000E94F30C0E944F150C941E1480910201E6
:100D8000909103010E949B180C94AC060E94B10C38
:100D90000C94BE06E92FE295EF704E2F50E0FA0159
:100DA0003297EE30F105B0F4EA59FF4F0C949320DE
:100DB000803F91F018F4883E68F40EC0843F51F4EF
:100DC0000BC0883E48F0813F29F406C093FB88277A
:100DD00080F9089580E0089581E00895FC01808104
:100DE00091810E94C0080E94CA060895CF93DF93A4
:100DF00000D000D01F92CDB7DEB70F900F900F90AC
:100E00000F900F90DF91CF910895CF93DF9300D093
:100E100000D000D0CDB7DEB726960FB6F894DEBF6F
:100E20000FBECDBFDF91CF910895089508950C9422
:100E300016070C9417070E9419076093A10170937D
:100E4000A2018093A3019093A4010C94AC060C948E
:100E50001B070F931F930091A1011091A2012091F4
:100E6000A3013091A401602B712B822B932B1F9136
:100E70000F910C941B070F931F930091A1011091E8
:100E8000A2012091A3013091A40160237123822348
:100E900093231F910F910C941B070F931F930091A5
:100EA000A1011091A2012091A3013091A40160271A
:100EB0007127822793271F910F910C941B070C9485
:100EC00016070E945F0760939D0170939E018093B7
:100ED0009F019093A0010C94AC0660E070E0CB0100
:100EE0000C9461070F931F9341E050E060E070E0C5
:100EF0008A019B0104C0000F111F221F331F8A9516
:100F0000D2F7C901B8011F910F910C9461070F939B
:100F10001F9341E050E060E070E004C0440F551FB3
:100F2000661F771F8A95D2F780919D0190919E014F
:100F3000A0919F01B091A0018A019B01082B192B60
:100F40002A2B3B2BC901B8011F910F910C9461070B
:100F50000F931F9341E050E060E070E004C0440F45
:100F6000551F661F771F8A95D2F74095509560955B
:100F7000709580919D0190919E01A0919F01B091EB
:100F8000A0018A019B01082319232A233B23C901BD
:100F9000B8011F910F910C9461070F931F9341E0CB
:100FA00050E060E070E004C0440F551F661F771FDB
:100FB0008A95D2F780919D0190919E01A0919F0109
:100FC000B091A0018A019B01082719272A273B27F6
:100FD000C901B8011F910F910C9461070F931F93E2
:100FE00000919D0110919E0120919F013091A001DF
:100FF000602B712B822B932B1F910F910C94610707
:101000000F931F9300919D0110919E0120919F01CC
:101010003091A00160237123822393231F910F91AC
:101020000C9461070F931F9300919D0110919E01F5
:1010300020919F013091A00160277127822793277B
:101040001F910F910C9461070895292F220F920F81
:10105000990F890FE82FE695E695E695877051E0A0
:1010600001C0550F8A95EAF785E0E89FF001112449
:10107000E757FE4F20E030E070E04081CB01022EC8
:1010800002C0969587950A94E2F78170819584272E
:101090008523842781932F5F3F4F2530310569F7E2
:1010A0000895292F220F920F990F890F682F6695A7
:1010B00066956695982F977085E0689FB00111241A
:1010C00040E050E080E0FB01E40FF51FE757FE4FE2
:1010D000208130E0092E02C0369527950A94E2F768
:1010E00021703327042E01C0220F0A94EAF7822BC5
:1010F0004F5F5F4F4530510531F70895BF92CF9252
:10110000DF92EF92FF920F931F93CF93DF938C01A7
:10111000C0909D01D0909E01E0909F01F090A001B1
:101120008091A1019091A201A091A301B091A4018D
:10113000C82AD92AEA2AFB2ACFE1D0E0D701C60182
:101140000C2E04C0B695A795979587950A94D2F76B
:1011500080FD04C0219790F7B12C07C0BC2EB801C8
:101160008C2F0E9451100197A9F38B2DDF91CF9105
:101170001F910F91FF90EF90DF90CF90BF90089557
:10118000CF93DF93EC010E947E08BE010E945110B4
:10119000DF91CF9108951F93CF93DF93EB0190914F
:1011A0008801992321F0CB010E94C00813C0882335
:1011B00049F0CB010E947E08182F682FCE010E94B3
:1011C000250804C0CB010E945108182FBE01812FB1
:1011D0000E945110DF91CF911F910895EF92FF92DD
:1011E0000F931F93CF93DF938C01892B09F46CC06D
:1011F000F12CEE24E394E8012196F80184918437E0
:1012000040F4843008F051C0813081F0823019F10F
:101210005BC0853709F444C0A8F19CE7980F90376C
:1012200008F052C08F770E94900341C00E5F1F4F9D
:10123000FE01849190E2980F983050F48770FE2D53
:1012400001C0FF0F8A95EAF78F2F0E94C40C14C0CB
:101250000E94E6022DC00E5F1F4FFE01849190E2B6
:10126000980F983060F48770FE2D01C0FF0F8A95AB
:10127000EAF78F2F0E94CA0C0E94F30C19C00E943B
:10128000900316C00E5F1F4FFE01C491CC2381F066
:101290008FE99FE00197F1F700C00000C150F6CF41
:1012A0000E5F1F4FFE01F49003C00E94E6028E0104
:1012B0008F2D882309F49FCFEFE9FFE03197F1F7F5
:1012C00000C000008150F5CFDF91CF911F910F91A9
:1012D000FF90EF9008951F93CF93DF93C091A501E6
:1012E00016E08091A601C81799F0D0E01C9FF0018C
:1012F0001D9FF00D1124E955FE4F408151816281FF
:101300007381848195810E9405072196C770E9CF7A
:10131000DF91CF911F9108954091D7015091D8014D
:101320006091D9017091DA018091DB019091DC012B
:101330000C940507EF92FF920F931F93CF93DF93C7
:101340008091DC0182958F7009F065C08091D90190
:10135000882309F460C08091A501F090A601109146
:10136000D7010091D8016091DA017091DB0191E021
:101370001F3F09F090E0C0910001D0910101292F99
:1013800096E0E92E8F1509F446C06115710521F02C
:101390000F3F21F030E003C031E001C0322F90E078
:1013A00030FD36C0E89EF001E99EF00D1124DF010A
:1013B000A955BE4F11963C911197301329C03C910D
:1013C000311326C012963C911297311121C0139609
:1013D0004D915C911497461B570B4C175D07C0F459
:1013E0008091DC018F7080618093DC01E455FE4FB9
:1013F00080818F708061808387ED91E00E94780604
:10140000DF91CF911F910F91FF90EF900C946B099A
:1014100001968770B7CFDF91CF911F910F91FF9009
:10142000EF9008959F92AF92BF92CF92DF92EF928A
:10143000FF920F931F93CF93DF93CDB7DEB76197E2
:101440000FB6F894DEBF0FBECDBF8C0185E0F8016A
:10145000DE011D9601900D928A95E1F7D801129652
:10146000EC909091D701E091D8012091DA01309170
:10147000DB012115310531F0EF3F31F481E09F3F71
:1014800019F403C081E001C080E0B82FB1709B2E39
:1014900080FD47C1D8014C9111965C91119713962C
:1014A000AD90BC90149787EDC82E81E0D82EF090B7
:1014B000D901B501621B730B20910001309101012C
:1014C000FF2009F4D9C08091DC016217730708F08E
:1014D00095C0282F207F09F052C05E1313C0491316
:1014E00011C0FE2CE1100EC08F7080618093DC0172
:1014F0000E948C09C6010E9478068091DC01F801E7
:1015000085834DC1AB2831F05F3F31F481E04F3F1F
:1015100019F403C081E001C080E080FD03C081E0D8
:101520008E2502C080E090E0F82FF170FF2E80FF42
:101530001CC08091A5012091A60136E0821709F414
:101540000BC190E0389FF001399FF00D1124E9554F
:10155000FE4F6181561306C06081461303C062814D
:10156000E61203C001968770E9CFFE2CEE2009F445
:1015700016C18091DC0181608093DC0154C05E1350
:1015800006C0491304C0E11002C0F80199C0C801A7
:101590000E94EE06882361F1EE2051F12091DC01DA
:1015A000822F82958F7090E0029774F08091D7011E
:1015B0009091D80198878F831986BB86AA862C873D
:1015C000CE0107960E94780686E0F801A7EDB1E00B
:1015D00001900D928A95E1F70E949A090E948C0968
:1015E0000AC05E1711F1C8010E94EE0681112CC0DD
:1015F000C8010E947806FF24F394D1C0282F207FD1
:1016000081F77A2DB98AA88A6E2D89890E94F606FB
:1016100087ED91E00E94780686E0D6011D928A95BA
:10162000E9F70E948C09F12CBAC04913DCCFE11014
:10163000DACFF8018583C8010E94780686E0D601DA
:101640001D928A95E9F7ABC0EE2091F22091DC0162
:10165000822F82958F7090E002970CF4B5CF809125
:10166000D7019091D8019A8389831B82BD82AC8275
:101670002E83CE010196A6CF6217730708F044C0EF
:10168000FE2CEE2009F4B4CF5E1330C049132EC0F7
:101690002091DC0120FD21C0822F82958F70482F80
:1016A00050E041155105C9F0F80125834F3051052F
:1016B00041F08F5F982F9295907F822F8F70892BAA
:1016C0008583C8010E94780686E0F801A7EDB1E0A5
:1016D00001900D928A95E1F73CC086E0F801A7EDF4
:1016E000B1E001900D928A95E1F759C0C8010E94BE
:1016F000EE06811169CF8091DC0181608093DC016D
:10170000C8010E9478064BC07A2DB98AA88A6E2D2E
:1017100089890E94F60686E0D6011D928A95E9F72E
:1017200018C0EE2009F464CFC8010E94EE06F82E1E
:10173000882309F45DCF86E0F801A7EDB1E00190C0
:101740000D928A95E1F787ED91E00E94E0020E94F8
:101750009A090E948C0923C04D875E878D859E85DE
:101760000E94C008292F22952F70223028F49F70E4
:1017700039F0811105C00BC0243028F49F7049F462
:10178000805E883020F0C8010E9478069F2CF92CDA
:1017900006C0D80115969C91907F91F7F8CF8F2DB8
:1017A00061960FB6F894DEBF0FBECDBFDF91CF912B
:1017B0001F910F91FF90EF90DF90CF90BF90AF906F
:1017C0009F9008951F93CF93DF93CDB7DEB72C97EB
:1017D0000FB6F894DEBF0FBECDBF4F835887698721
:1017E0007A878B879C87CE0107960E94120A8823EE
:1017F000D1F09F8188852A853B85232B31F08F3F4F
:1018000031F481E09F3F19F403C081E001C080E022
:1018100080FD47C04F81588569857A858B859C8579
:101820000E9405073EC086E0FE013796DE01119654
:1018300001900D928A95E1F7FF81E8856A857B85A5
:101840006115710531F0EF3F31F481E0FF3F19F48C
:1018500003C081E001C080E080FD23C02091A6018B
:1018600030E0C9010196877099274091A50150E0A9
:1018700084179507F1F1F983EA837D836C8396E001
:10188000929FD001939FB00D1124A955BE4FFE0128
:10189000319601900D929A95E1F78093A6010E94EE
:1018A0006B0916E08091A5019091A601891771F14D
:1018B000189FC001112489559E4F0E94120A882347
:1018C00029F1E091A5011E9FF0011124E955FE4F79
:1018D0004081518162817381848195810E940507D5
:1018E0008091A50190E00196877099278093A501CA
:1018F000D9CF0E94C6061092A6011092A501E7ED6D
:10190000F1E086E0DF011D928A95E9F72C960FB68B
:10191000F894DEBF0FBECDBFDF91CF911F91089528
:101920008091DD0185958595859508958091DD01EE
:10193000877008959091DD01977081E009F480E04F
:10194000089580910102089590910102892B80935E
:1019500001020895809590910102892380930102EC
:10196000089510920102089590910002892B8093AE
:1019700000020895809590910002892380930002CF
:1019800008951092000208959091FF01892B809391
:10199000FF01089580959091FF0189238093FF01B5
:1019A00008951092FF0108958091DE010895089531
:1019B0000C94D70C0C94D80C9091530292FD08C053
:1019C0009091DE01981721F08093DE010C94DA0CDF
:1019D00008958091DE01882329F01092DE0180E0D5
:1019E0000C94DA0C0895E0910201F09103018091CA
:1019F00001028083E0910201F091030190818091C6
:101A00000002892B8083E0910201F0910301908113
:101A10008091FF01892B80838091DE01882381F0F2
:101A2000E0910201F09103019081892B80838091E4
:101A30000201909103010E94EF1781110E94E90CAD
:101A400080910201909103010C949B170C94D70C88
:101A50009091530292FD10C098E0899F900111244B
:101A6000262B2093DD010E9487078091DD0185955B
:101A7000859585950C94260D0C9487071092DD01B1
:101A800080E00C94260D2091DD01809582238093C7
:101A9000DD01982F977099F430E0482F082E000C44
:101AA000550B2417350759F09091530292FD07C04A
:101AB0008595859585950E94A8070C943E0D0895FF
:101AC0009091530292FB222720F9281769F080FB9E
:101AD00092F99093530280915202909153020E9486
:101AE000AE0D82E00C94430D08958091530282FB69
:101AF000882780F991E089270C94600D81E00C948F
:101B0000600D80E00C94600D6FEF7FEF80E090E05F
:101B10000C94E62080E090E00E94C22021E0893E03
:101B20009E4F09F020E0822F089582E090E00C940F
:101B3000BA2083E090E00C94BA20CF9384E090E048
:101B40000E94BA20C82F82E290E00E94BA202C2F77
:101B500030E0A901582BCA01CF910895CF93C92F26
:101B6000682F84E090E00E94C8206C2F82E290E011
:101B7000CF910C94C820AB01BC018FE090E00C9495
:101B8000DA20AB01BC0183E190E00C94DA2060E044
:101B900070E0CB010C94C10D60E070E0CB010E94BD
:101BA000BB0D0C94C70D69EE7EEF80E090E00E94C3
:101BB000E62060E082E090E00E94C82060E083E0E0
:101BC00090E00E94C8201092A1011092A2011092F0
:101BD000A3011092A40160E084E090E00E94C8207C
:101BE00060E082E290E00E94C82060E085E090E042
:101BF0000E94C82060E086E090E00E94C8206FEF5D
:101C000087E090E00E94C82040E050E0BA0188E000
:101C100090E00E94DA2060E08DE090E00E94C82011
:101C200040E050E0BA0188E190E00E94DA2060E0F4
:101C300087E190E00E94C82040E050E0BA018CE1CA
:101C400090E00E94DA2060E070E080E290E00E9484
:101C5000E62040E050E0BA0188E190E00E94DA20FE
:101C60000C94CC0D0C94D30D682F8EE090E00C9466
:101C7000C8200E944C1960930C0270930D0280934F
:101C80000E0290930F0260930802709309028093F2
:101C90000A0290930B02089585B7806885BF85B7C7
:101CA000806885BF089581E008950C94530E0895CF
:101CB0000C94570E0C94570E0C945A0E0C94570E0D
:101CC0000C945E0E0C94570E0E944C0E8DE291E126
:101CD0000E9485170E94620E0C94600E0E94580E9E
:101CE0000C94570E0E9437190E941E120C945C0E21
:101CF0009F92AF92BF92CF92DF92EF92FF920F939B
:101D00001F93CF93DF93CDB7DEB72A970FB6F89422
:101D1000DEBF0FBECDBF0E94331281110E94390E6B
:101D200083E0A82E82E0B82E00E010E0902E802FF5
:101D30000E946B11D82EF501C1905F01C826B1F445
:101D40000F5F1F4F0530110589F78FEF89838A8355
:101D50001B820E9440198160782F9D838C8349816A
:101D60005A816B818D810E9496022FC08091100252
:101D700081FD0E947111E12CFF24F3948C2D8F21A1
:101D8000F1F00E94550E882399F0EE829F82DF20A9
:101D900081E009F480E088870E9440198160782FF3
:101DA0009A8789874E815F8168858A850E9496021D
:101DB000F801ED5FFD4F8081F826F08206C0E394C4
:101DC000FF0CF6E0EF12DACFBBCF0E943C140E946A
:101DD0008F17909102028917B9F00E948F17809394
:101DE00002022A960FB6F894DEBF0FBECDBFDF9178
:101DF000CF911F910F91FF90EF90DF90CF90BF9008
:101E0000AF909F900C948D022A960FB6F894DEBF87
:101E10000FBECDBFDF91CF911F910F91FF90EF903B
:101E2000DF90CF90BF90AF909F90089580E090E0BA
:101E3000089508952EE1829FC0011124FC0126E03F
:101E4000729FE00DF11D1124E60FF11DEE0FFF1F33
:101E5000E450FF4F859194910895880F991FFC01DC
:101E6000EC58FE4F859194910895CF93DF930E9493
:101E70005610EC01811520E5920708F03FC081154E
:101E800040E4940708F0D2C0883E910500F5803EFA
:101E9000910508F002C1883A910570F4853A9105E0
:101EA00008F0A6C08130910509F49FC008F4F2C083
:101EB000049708F0F2C0EEC08F3B910508F4A1C072
:101EC000803C910508F4E6C0805C9109A5C08115AD
:101ED00050E2950760F4C11581E0D80708F0DDC035
:101EE000CD3ED10508F4D6C0CE019065D7C081158E
:101EF00020E3920708F093C09F708EC0811545E5DE
:101F0000940708F046C0811554E5950708F0A6C06F
:101F1000C11582E5D80718F5C11521E5D20708F0EB
:101F200088C0CE01F4E096958795FA95E1F7282FC1
:101F300023703C2F337081E090E002C0880F991F1E
:101F40003A95E2F79C68922B2C2F2F7026952695B8
:101F500040E2249F90011124822B932B9FC09E016D
:101F6000237033279C2F96959695C115D34508F07D
:101F700065C041E050E002C0440F551F2A95E2F7CA
:101F800080E2989F90011124CA01822B932B9C68B8
:101F900085C0811559E5950798F4C11588E5D807DE
:101FA00008F061C0C11526E5D20708F073C08C2F78
:101FB0000E94EA108F7190E0982F882790626EC07F
:101FC00081154AE5940708F453C090568115904254
:101FD00008F060C08D2F8F710E94EA109E01332798
:101FE00030628F71A901582B53C081E090E056C038
:101FF000855AC82FD0E0C858DE4F888190E09064A1
:102000004DC0885AC82FD0E0CC0FDD1FC65BDE4F15
:1020100088819981946442C00E942D0F3FC0992706
:10202000D3FF02C0986C3AC0906C38C09F70906A21
:1020300035C09C2F8827816F906A30C041E050E006
:1020400002C0440F551F2A95E2F780E2989F900145
:102050001124CA01822B932B9A6820C0982F8827BD
:10206000846F906A1BC09C2F8827806F906A16C06F
:102070008F700E94EA109E0194E0369527959A95FC
:10208000E1F72F7030E0322F22273069A901482B69
:10209000CA0104C080E090E001C0CE01DF91CF9181
:1020A00008950E941A0F0E94350F089582389105F5
:1020B00069F1B0F48133910509F46DC048F48932B7
:1020C000910509F463C08A32910509F469C0089545
:1020D0008533910509F455C089339105B9F0089508
:1020E000833E910569F138F4803E9105B1F0823E5E
:1020F000910509F10895863E9105A9F1873E910564
:10210000B9F1843E910509F064C023C020915202C8
:1021100020FD4FC021FD4DC008958091520280FDE9
:1021200044C08091530280FF44C08091520284FDDC
:1021300042C083EE4DC08091520282FF38C0F5CF7D
:102140008091520282FD33C08091530280FD31C0E4
:10215000ECCF8091530281FF32C08091520284FD06
:102160002AC087EE35C08091520283FF26C0F5CF8A
:102170008091520283FD21C08091530281FD1FC0D6
:10218000ECCF8091520285FD1CC01DC0809152028F
:1021900085FD19C016C08091520286FD16C017C079
:1021A0008091520286FD13C010C089E311C082EEF7
:1021B0000FC080EE0DC080E00BC086EE09C084EE3B
:1021C00007C089E205C085E303C08AE201C081E35C
:1021D00090E008959091520292FF0DC0282F28712F
:1021E000283019F4877F846006C0282F247124309A
:1021F00011F48B7F886093FF0DC0282F2871283140
:1022000019F4877E846106C0282F2471243111F4CB
:102210008B7E88612091530220FF0DC0382F3871CA
:10222000383019F4877F816006C0382F3171313022
:1022300011F48E7F886021FF0DC0282F287128316E
:1022400019F4877E816106C0282F2171213111F494
:102250008E7E886194FD877E089580E008950C94B9
:10226000840D0E9433128FE39CE90197F1F700C0BF
:1022700000000E94331280E00E946B1180FF04C0B6
:102280000E942F110C948D1908950C9431110E9405
:102290008A0D811102C00E94320E0E94950D80931A
:1022A00010020E949D0D90935302809352020E944F
:1022B00045110E94990D682F70E080E090E00E9427
:1022C000270760919D0170919E0180919F019091DF
:1022D000A0010C945F07E82FF0E0E75AFD4F8081E2
:1022E0000895089580EA8A95F1F7089500C0089549
:1022F0000C94721108950C947A110C947B110C9427
:102300007A110C947F11F894E82FE295EF70F0E0C9
:1023100031A1282F2F7081E090E001C0880F2A950D
:10232000EAF7982F9095932391A392A1892B82A3EA
:10233000789408950F931F93CF93DF93C1E8D1E072
:1023400089918F3F11F00E94831181E0C638D80730
:10235000B9F7CBE7D1E001E811E089918F3F11F0A7
:102360000E9483110C171D07C1F7DF91CF911F91B8
:102370000F910895CF92DF92EF92FF920F931F93E8
:10238000CF93DF938C01C62FD0E0CE018F579E4FA5
:102390007C01FC0190819F3F09F447C0D62EF89440
:1023A000E92FE295EF70F0E081A19F7021E030E02D
:1023B00001C0220F9A95EAF7822B81A382A1209572
:1023C000282322A378940E947611EBE7F1E041E8FC
:1023D00051E031E0C12C21912F3F89F0A22FA2952D
:1023E000AF70B0E090968C9190E02F7002C0959500
:1023F00087952A95E2F780FD02C0832F01C080E017
:10240000C82A330F4E175F0731F7F70180818F3FDE
:1024100011F00E94831161E0C11001C060E08D2DB8
:102420000E947811C00FD11FC882DF91CF911F91F8
:102430000F91FF90EF90DF90CF9008950E949A1136
:1024400085E0E9E5F2E0DF01982F1D929A95E9F722
:10245000E4E5F2E0DF011D928A95E9F785E00E944C
:102460007A120C940E02FF920F931F93CF93DF9377
:1024700000D000D01F92CDB7DEB78E010F5F1F4F87
:1024800085E0F80111928A95E9F7F12C6F2DC801CA
:102490000E94BA11F394F5E0FF12F8CF45E050E046
:1024A000B80184E592E00E94AD20FF24F3940097E8
:1024B00009F4F12C892B41F085E0F801A4E5B2E0A4
:1024C00001900D928A95E1F72F2D45E069E572E0C4
:1024D00084E592E00E947B120E9414028F2D0F90DF
:1024E0000F900F900F900F90DF91CF911F910F9150
:1024F000FF9008950895FF920F931F93CF93DF935A
:102500008C01F62ED72FC42F222349F081E080932F
:1025100013020E944019909312028093110280913D
:1025200013028823C1F080911102909112020E943F
:102530005819059780F0EF2DFD2FD8014C2F50E052
:10254000CD01801B910B841795071CF48D9181930D
:10255000F7CF10921302DF91CF911F910F91FF904F
:1025600008950E94451B0E94720E0C94511B0E94FC
:10257000551B0E94780E0C946F1B0E94C7180E9476
:102580002C1B0E94640E0E94B1120E94B7120E947E
:102590006E0EFBCF80911A0280FF0BC06091090183
:1025A00085E0689FB00111247595679575956795CD
:1025B0002BC081FF09C06091090185E0689FB001CF
:1025C00011247595679520C082FF07C060910901AD
:1025D00085E0689FB001112417C0909119029923DA
:1025E000D1F060910801961788F72091090185E0E4
:1025F000289F90011124929FA001939F500D1124B8
:1026000070E0CA010E947F206038710540F46115B6
:10261000710519F406C065E070E0862F08958FE714
:10262000089581E0089580911A0280FF08C06091AA
:10263000050170E0759567957595679521C081FFD7
:1026400006C06091050170E07595679519C082FF1D
:1026500004C06091050170E010C0909118029923A8
:1026600099F0609104019617A0F780910501899F68
:10267000C001112470E00E947F206038710540F491
:102680006115710519F406C061E070E0862F0895A8
:102690008FE7089581E008958D3E21F40E94CA12CB
:1026A000819504C08E3E29F40E94CA1280931E02B6
:1026B00008958F3E21F40E94CA12819504C0803F84
:1026C00029F40E94CA1280931D020895893F19F4CB
:1026D0000E94131305C08A3F31F40E9413138195A1
:1026E00080931F0208958B3F21F40E94131381955C
:1026F00004C08C3F29F40E94131380932002089594
:102700009FE0980F983078F421E030E0A90102C0F2
:10271000440F551F9A95E2F7CA0190911C02892B2C
:1027200080931C0208958D3F21F480911A028160EC
:102730000BC08E3F21F480911A02826005C08F3F4A
:1027400029F480911A02846080931A0208958D3EC4
:1027500039F490911E0297FF35C010921E0259C0A5
:102760008E3E29F490911E021916BCF32BC0909155
:102770001D028F3E29F497FF25C010921D0249C00B
:10278000803F19F41916CCF31DC090911F02893FA8
:1027900029F41916BCF410921F023BC08A3F19F4A9
:1027A00097FF10C0F8CF8B3F39F49091200297FF2C
:1027B00009C0109220022DC08C3F21F4909120027C
:1027C0001916BCF39FE0980F983080F421E030E0B8
:1027D000A90102C0440F551F9A95E2F7CA018095DE
:1027E00090911C02892380931C0213C08D3F21F419
:1027F00080911A028E7F0BC08E3F21F480911A02C5
:102800008D7F05C08F3F29F480911A028B7F8093C2
:102810001A0280911D02811106C080911E02811151
:1028200002C01092190280911F02811106C080918E
:102830002002811102C01092180208950E944019CE
:1028400020911D02211104C020911E02222321F09B
:10285000909317028093160220911F02211104C049
:1028600020912002222321F09093150280931402DC
:102870008BE192E00C94B517EF92FF920F931F93A8
:10288000CF93DF9300D000D000D0CDB7DEB786E085
:10289000EBE1F2E0DE01119601900D928A95E1F7ED
:1028A000E0901D02F0901E0200911F021091200284
:1028B00010921D0210921E0210921F02109220020E
:1028C000E11003C0FF2009F45DC0809116029091D1
:1028D00017020E945819AC0190911902992339F0FE
:1028E00020910A0130E02417350758F04BC02091A1
:1028F0000B018AE0289F900111242417350718F056
:1029000041C09F3F19F09F5F90931902EE2061F044
:102910000E94CA121E1414F09FEF01C091E0989F0C
:10292000902D112490931D02FF2061F00E94CA1285
:102930001F1414F09FEF01C091E0989F902D112477
:1029400090931E0230911D023323E1F020911E026C
:102950002223C1F045EB3403C0011124992319F05F
:1029600090931D0203C081E080931D0235EB230389
:10297000C0011124992319F090931E0203C081E035
:1029800080931E02011103C0112309F45DC08091E0
:102990001402909115020E945819AC0190911802EE
:1029A000992339F02091060130E02417350758F0BB
:1029B0004BC0209107018AE0289F90011124241721
:1029C000350718F041C09F3F19F09F5F90931802A0
:1029D000002361F00E941313101614F09FEF01C042
:1029E00091E0989F902D112490931F02112361F084
:1029F0000E941313111614F09FEF01C091E0989FED
:102A0000902D11249093200230911F023323E1F086
:102A1000209120022223C1F045EB3403C001112490
:102A2000992319F090931F0203C081E080931F0245
:102A300035EB2303C0011124992319F09093200250
:102A400003C081E08093200280911D0281110BC0A0
:102A500080911E02811107C080911F02811103C065
:102A60008091200281110E941E14EB82FC820D8352
:102A70001E8386E0FE013196ABE1B2E001900D923B
:102A80008A95E1F726960FB6F894DEBF0FBECDBF4C
:102A9000DF91CF911F910F91FF90EF900895EBE19F
:102AA000F2E086E0DF011D928A95E9F710921902A3
:102AB0001092180210921A020895CF93DF93EC013E
:102AC000FB018281882309F426C1C430FDE5DF07BC
:102AD00060F4CB3F9CE5D90768F49E0122503C4549
:102AE0002431310508F018C105C0C236EDE5DE0716
:102AF00009F012C10E949D0D9093530280935202DF
:102B0000C031FCE5DF0709F4CAC008F041C0C83095
:102B10009CE5D90709F4A4C0F0F4C430FCE5DF0754
:102B200009F48CC068F4C2309CE5D90709F482C06E
:102B3000C330DC4509F0E5C0809152028260DFC0FD
:102B4000C630FCE5DF0709F483C008F085C080913A
:102B500052028860D4C0CC309CE5D90709F490C0FB
:102B600068F4CA30FCE5DF0709F47EC008F084C0D1
:102B70000E94C606809152028068C1C0CE309CE59A
:102B8000D90709F481C008F086C08091520294C030
:102B9000CD3FFCE5DF0709F47BC038F5C4319CE587
:102BA000D90709F49AC058F4C231FCE5DF0709F4EB
:102BB0007AC008F07EC0809152028F7BA0C0CB3FCC
:102BC0009CE5D907F1F108F03FC0C531DC4509F0BB
:102BD00098C08091520282FB222720F991E092272F
:102BE00090FB82F990FB83F98AC0C1308DE5D8074C
:102BF00009F467C050F480915302CF3FECE5DE0743
:102C0000C1F108F05BC08D7F65C0C3308DE5D8078A
:102C100009F471C008F46DC0C236DD4509F071C019
:102C20008091520284FB222720F991E0922790FBA9
:102C300084F965C080915202816061C08091520226
:102C400016C08091530216C080915302826042C028
:102C500080915202806153C08091520280624FC0C5
:102C60008091520280644BC08091520288608460DF
:102C700046C0826081602EC0809152028E7F3FC02C
:102C8000809152028D7F3BC080915202877F37C076
:102C90008091530214C0809152028F7E30C0809187
:102CA00052028F7D2CC00E94C606809152028F77FF
:102CB00026C080915202877F8B7F21C08D7F8E7FBF
:102CC00009C080915302982F909591708E7F892B27
:102CD00090FB81F98093530214C00E94C606809134
:102CE000520287FB222720F991E0922790FB87F977
:102CF00006C081E001C080E00E94340E02C08093D3
:102D0000520280915202909153020E94AE0D0E9495
:102D1000C60680E001C081E0DF91CF910895CF9396
:102D2000DF9386319C4541F5EB010E94A10C982F61
:102D30008A812091020130910301882379F09A7AE7
:102D400081E009F480E080932102911102C069E2E0
:102D500001C065E3C9010E9485180AC08091210263
:102D6000811102C069E201C065E3C9010E949018A7
:102D70000E94F30C80E001C081E0DF91CF910895C3
:102D80000F931F93CF93DF93C42FD22FFC01828127
:102D90008823C9F0409324020E9440199093230293
:102DA0008093220280E28C0F883008F057C0C770F1
:102DB00081E001C0880FCA95EAF7DF91CF911F919A
:102DC0000F910C94180480912402481330C0809114
:102DD0002202909123020E945819883C910538F5EF
:102DE00010E21D0FCD17B9F080E28C0F883040F44F
:102DF000C77081E001C0880FCA95EAF70E941F04DE
:102E0000183028F581E09D2F977001C0880F9A95A2
:102E1000EAF70E941804802F0E940F041830F0F483
:102E2000D77081E001C0880FDA95EAF70AC080E226
:102E30008C0F883098F4C77081E001C0880FCA9564
:102E4000EAF7DF91CF911F910F910C941F04802F0F
:102E5000DF91CF911F910F910C940F04DF91CF91CF
:102E60001F910F9108950F939C01CB01243F4CE5D6
:102E7000340731F188F4293DFCE53F07D9F02A3DBC
:102E80004CE5340779F1283D3C45A9F506E221EEF1
:102E900041EE68ED7CE52BC0263FFCE53F07E1F005
:102EA000A8F0273F3C4539F507E225EE46EE67EFEF
:102EB0007CE51DC007E225EE45EE69ED7CE517C017
:102EC00006E221EE40EE64EF7CE511C007E225EE5C
:102ED00044EE65EF7CE50BC006E221EE42EE66EFC4
:102EE0007CE505C008E221E045EE6AED7CE50E9444
:102EF000C01680E008C0FC018281882319F010927E
:102F0000240201C081E00F9108959093870180937E
:102F10008601089590932A02809329020895E091F2
:102F20002902F0912A02309721F00190F081E02DE2
:102F3000099480E00895E0912902F0912A023097E7
:102F400099F020911801222359F02091520227FF75
:102F500007C0DC012C9111962C93119726E02C933D
:102F60000280F381E02D09940895E0912902F09107
:102F70002A02309739F022E0DC012C930480F5819D
:102F8000E02D0994089520912702309128022817F6
:102F9000390771F09093280280932702E09129026B
:102FA000F0912A02309721F00680F781E02D0994F4
:102FB000089520912502309126022817390771F0D3
:102FC0009093260280932502E0912902F0912A0233
:102FD000309721F00084F185E02D09940895FC01DB
:102FE000329680911801882331F08091520287FF38
:102FF00002C09EE101C096E080E0915028F021914E
:103000002223D9F38F5FF9CF0895662351F12091E0
:1030100018012223E9F02091520227FF19C0462F00
:103020004695469546954E31E0F4677021E030E0D4
:1030300002C0220F331F6A95E2F7FC01E40FF11D75
:10304000828190E02823392381E0232B69F409C091
:10305000FC01329608962191621729F0E817F907CA
:10306000D1F780E0089581E008959C01FC0132963B
:103070009FEF80E04191461789F09F3F19F441117D
:1030800001C0982F8F5F8630A9F79F3F39F0F90173
:10309000E90FF11D97FDFA956283089508959C014B
:1030A0002A5F3F4FFC014281461301C01282019604
:1030B00082179307B9F70895262F2695269526950A
:1030C0002E3168F4FC01E20FF11D677021E030E061
:1030D00001C0220F6A95EAF78281282B2283089586
:1030E000262F2695269526952E3170F4FC01E20FA9
:1030F000F11D677021E030E001C0220F6A95EAF708
:10310000209582812823228308952091180122236B
:1031100029F02091520227FD0C945C180C9435186C
:1031200020911801222329F02091520227FD0C94AE
:1031300070180C944F1820911801FC01329622232C
:1031400031F08091520287FF02C08EE101C086E01B
:10315000DF011D928A95E9F7089508950C94AD1842
:1031600083E080932B020C94AE18811102C081E0A1
:1031700001C082E080932B020C94AE180C94B51819
:1031800081E080932B020C94AE180C94C018089523
:1031900080916602843031F10E94160210922C0256
:1031A00020E488E190E00FB6F894A8958093600041
:1031B0000FBE2093600083B7817F846083BF83B795
:1031C000816083BF7894889583B78E7F83BF0FB665
:1031D000F894A895809160008861809360001092B7
:1031E00060000FBE089508950C94F318CF930E94C9
:1031F000F4180E9433120E94F318C0E08C2F0E9432
:103200006B11811104C0CF5FC530C1F701C081E0EF
:10321000CF9108950E94C6060C947F021F920F92D0
:103220000FB60F9211248F939F93AF93BF9380910A
:103230002C02811113C080915E0290915F02A091D7
:103240006002B09161024196A11DB11D80935E02A2
:1032500090935F02A0936002B0936102BF91AF911F
:103260009F918F910F900FBE0F901F90189582E045
:1032700084BD93E095BD9AEF97BD80936E0008954D
:103280002FB7F89480915E0290915F02A091600246
:10329000B09161022FBF08952FB7F89460915E023C
:1032A00070915F0280916002909161022FBF08953A
:1032B0009C014FB7F89480915E0290915F02A091BB
:1032C0006002B09161024FBF821B930B0895789406
:1032D0001F920F920FB60F9211248F939F93AF936B
:1032E000BF9380915E0290915F02A0916002B091C5
:1032F00061020196A11DB11D80935E0290935F0251
:10330000A0936002B0936102BF91AF919F918F91A2
:103310000F900FBE0F901F90189587E797E7909337
:103320000108809300089AE088E10FB6F894A89508
:10333000809360000FBE90936000FFCF8091500299
:103340000895089522E02093E9002FEF3091E800DE
:10335000215035FD06C035ED3A95F1F700002111F9
:10336000F5CF2091E80025FF0BC040E050E066E07B
:1033700070E00E94E11B8091E8008E778093E80066
:103380000895CF93DF9320911801222339F02091E3
:10339000520227FF03C060E222E002C068E021E0A1
:1033A0002093E9002FEF3091E800215035FD06C051
:1033B00035ED3A95F1F700002111F5CF2091E800A5
:1033C00025FF1DC0EC0180911801811105C040E06E
:1033D00050E068E070E003C070E040E050E0CE01F3
:1033E0000E94E11B8091E8008E778093E80080E2E4
:1033F000FE01A0E3B2E001900D928A95E1F7DF9122
:10340000CF91089580932D0270932F0260932E0226
:1034100080916602843001F582E08093E9008FEFAD
:103420009091E800815095FD06C095ED9A95F1F7D1
:1034300000008111F5CF8091E80085FF0DC040E0CC
:1034400050E063E070E08DE292E00E94E11B809129
:10345000E8008E778093E8000895BC0184E00C9426
:10346000021ABC0183E00C94021A8091650281115A
:1034700009C00E94721D0E94CF1D8091E2008460ED
:103480008093E20008951092650208950C94C51887
:103490006091620281E0611101C080E00C94B0187B
:1034A0009091660281E0943009F080E060916202C0
:1034B0000C94B51842E061EC81E00E94EB1C42E202
:1034C00061EC82E00E94EB1C9091660281E09430F6
:1034D00009F080E0609162020C94BE18809168024D
:1034E000833009F461C030F4813071F0823009F426
:1034F0009AC008958A3009F486C08B3009F46CC0F4
:10350000893009F0A8C020C080916702813A09F093
:10351000A2C08091E800877F8093E80080916B02D1
:1035200090916C02892B21F460E280E392E003C069
:1035300060E080E090E070E00E942C1C8091E80048
:103540008B778093E800089580916702813209F0BB
:1035500082C080916B0290916C02029708F07BC050
:103560008091E800877F8093E8008091E80082FDE9
:1035700005C0809166028111F8CF6DC02091F300E3
:103580008091F20090E0922B029731F48091F1004B
:10359000813011F0863021F48091F1008093500247
:1035A0008091E8008B7753C080916702813A09F0DF
:1035B00052C080916B0290916C02892B09F04BC034
:1035C0008091E800877F8093E8008091E80080FF89
:1035D000FCCF8091180136C0809167028132D9F505
:1035E00080916B0290916C02892BA9F58091E80083
:1035F000877F8093E8000E94201D8091690280935C
:1036000018010C94C60680916702813221F58091E1
:10361000E800877F8093E8000E94201D80916A0265
:1036200080935102089580916702813AA1F48091BC
:10363000E800877F8093E8008091E80080FFFCCF5E
:10364000809151028093F1008091E8008E77809301
:10365000E8000C94201D089584B7877F84BF0FB6BF
:10366000F894A89580916000886180936000109222
:1036700060000FBE90E080E80FB6F8948093610080
:10368000909361000FBE0C94C0180E94721D0E949E
:10369000CF1DE2EEF0E080818460808378940C940A
:1036A00064208CE091E00C948A178091660285304A
:1036B000A9F480916602853079F40E94C81880913F
:1036C00064028823B1F30E94F618882391F30E94C4
:1036D000CB1B0E94C606EDCF0C940A1908950895DD
:1036E0000C94721B292F332723303105C9F060F465
:1036F0002130310581F02230310509F044C08BE3DF
:1037000090E022EA31E043C021323105E1F022327B
:10371000310549F138C082E190E02DED31E037C04C
:1037200099278130910549F028F0029761F5E4E787
:10373000F1E005C0EEE9F1E002C0E6E8F1E08491D5
:1037400090E09F0124C06115710541F06130710561
:10375000D1F489E090E02DEC31E019C089E090E0EF
:1037600024EB31E014C06115710541F06130710541
:1037700051F486EB90E02FEE31E009C080E490E058
:1037800025EA32E004C080E090E020E030E0FA0179
:1037900031832083089580E189BD82E189BD09B428
:1037A00000FEFDCF8091D8008F7D8093D80080915E
:1037B000E00082608093E0008091E00081FDFCCF1A
:1037C0000895CF92DF92EF92FF920F931F93CF93C2
:1037D000DF93EC018B017A010E943F1D811133C000
:1037E000E114F10439F0F70180819181081B190B74
:1037F000C80FD91FC12CD12C0115110519F18091C9
:10380000E80085FD16C08091E8008E778093E8007F
:10381000E114F10449F0F70180819181C80ED91EAD
:10382000D182C08285E00FC00E943F1D882321F312
:103830000AC089918093F10001501109FFEFCF1A5E
:10384000DF0ADACF80E0DF91CF911F910F91FF90D7
:10385000EF90DF90CF90089520916D0230916E022D
:103860002617370748F06115710539F42091E800F3
:103870002E772093E80001C0B901FC0120E061151A
:10388000710579F1809166028823F1F18530F1F1BB
:103890008091E80083FD3CC08091E80082FD2EC04D
:1038A0008091E80080FFEBCF2091F3008091F2003F
:1038B00090E0922B6115710551F08830910538F434
:1038C00021912093F100615071090196F3CF21E01D
:1038D000089709F020E08091E8008E778093E80057
:1038E000CECF2111CFCF0AC080916602882361F02C
:1038F000853061F08091E80083FD0AC08091E80086
:1039000082FFF2CF80E0089582E0089583E0089579
:1039100081E0089520916D0230916E0226173707DD
:1039200048F06115710539F42091E8002E77209355
:10393000E80001C0B901FC0120E06115710591F1B9
:1039400080916602882309F440C0853009F43FC0A5
:103950008091E80083FD3DC08091E80082FD2FC08A
:103960008091E80080FFE9CF2091F3008091F20080
:1039700090E0922B6115710559F08830910540F463
:1039800024912093F1003196615071090196F2CF94
:1039900021E0089709F020E08091E8008E7780937D
:1039A000E800CBCF2111CCCF0AC0809166028823DA
:1039B00061F0853061F08091E80083FD0AC080915C
:1039C000E80082FFF2CF80E0089582E0089583E06E
:1039D000089581E00895982F973068F59093E90055
:1039E000981739F07091EC002091ED005091F000A3
:1039F00003C0242F762F50E021FD02C09F5FECCF43
:103A00003091EB003E7F3093EB003091ED003D7F35
:103A10003093ED003091EB0031603093EB00709308
:103A2000EC002093ED005093F0002091EE0027FD74
:103A3000E5CF80E008958F708093E90081E00895DC
:103A40008091670287FF11C08091E80082FD05C068
:103A5000809166028111F8CF11C08091E8008B77C8
:103A60000BC080916602882349F08091E80080FFB6
:103A7000F8CF8091E8008E778093E8000895209138
:103A8000E4003091E50095E64091EC00842F8170D0
:103A900040FF23C08091E80080FD1DC08091660238
:103AA000882399F0853099F08091EB0085FD11C055
:103AB0004091E4005091E5002417350729F3915017
:103AC00011F09A01E1CF84E0089582E0089583E047
:103AD000089581E0089580E008954091E80042FF54
:103AE000DDCF08950E94E01D0E94E81DE0EEF0E0A9
:103AF000808181608083E8EDF0E080818F77808332
:103B000019BCA7EDB0E08C918E7F8C9380818F7E65
:103B100080831092650208950F931F93CF93DF93D4
:103B20000E94E01D0E94E81DC8EDD0E088818F77DB
:103B3000888388818068888388818F7D888319BC89
:103B40001092660210926202109264021092630256
:103B500000EE10E0F80180818B7F80838881816096
:103B6000888342E060E080E00E94EB1CE1EEF0E040
:103B700080818E7F8083E2EEF0E0808181608083AF
:103B8000808188608083F80180818E7F8083888136
:103B900080618883DF91CF911F910F910895E8EDA7
:103BA000F0E080818F7E8083E7EDF0E080818160AE
:103BB000808384E082BF81E0809365020C948C1D39
:103BC000E8EDF0E080818E7F80831092E20008951E
:103BD0001092DA001092E10008951F920F920FB632
:103BE0000F9211242F933F934F935F936F937F9383
:103BF0008F939F93AF93BF93EF93FF938091E100D7
:103C000082FF0BC08091E20082FF07C08091E1003B
:103C10008B7F8093E1000E9463208091DA0080FF17
:103C20001FC08091D80080FF1BC08091DA008E7F7A
:103C30008093DA008091D90080FF0DC080E189BDBA
:103C400082E189BD09B400FEFDCF81E08093660268
:103C50000E94351A05C019BC109266020E94431AD0
:103C60008091E10080FF19C08091E20080FF15C0C3
:103C70008091E2008E7F8093E2008091E20080617B
:103C80008093E2008091D80080628093D80019BCB4
:103C900085E0809366020E94481A8091E10084FFCB
:103CA00030C08091E20084FF2CC080E189BD82E1B8
:103CB00089BD09B400FEFDCF8091D8008F7D80932F
:103CC000D8008091E1008F7E8093E1008091E20036
:103CD0008F7E8093E2008091E20081608093E20019
:103CE00080916202882311F084E007C08091E30094
:103CF00087FD02C081E001C083E0809366020E94DC
:103D0000501A8091E10083FF29C08091E20083FF77
:103D100025C08091E100877F8093E10082E080935D
:103D20006602109262028091E1008E7F8093E10032
:103D30008091E2008E7F8093E2008091E2008061BA
:103D40008093E20042E060E080E00E94EB1C809102
:103D5000F00088608093F0000E94461AFF91EF9176
:103D6000BF91AF919F918F917F916F915F914F9193
:103D70003F912F910F900FBE0F901F9018951F929B
:103D80000F920FB60F9211242F933F934F935F938F
:103D90006F937F938F939F93AF93BF93CF93DF9353
:103DA000EF93FF93C091E900CF708091EC00D82F82
:103DB000D17080FDD0E81092E9008091F000877FFB
:103DC0008093F00078940E94031F1092E900809184
:103DD000F00088608093F000CD2BCF70C093E90095
:103DE000FF91EF91DF91CF91BF91AF919F918F9113
:103DF0007F916F915F914F913F912F910F900FBEE7
:103E00000F901F9018951F93CF93DF93CDB7DEB718
:103E1000AA970FB6F894DEBF0FBECDBFE7E6F2E07B
:103E20008091F100819322E0EF36F207C9F70E94FA
:103E30006E1A8091E80083FF2EC1809167029091F5
:103E40006802492F50E04A30510508F024C1FA01B8
:103E5000EC58FF4F0C949320803821F0823809F001
:103E60001AC108C08091630290916402992389F07D
:103E700082600FC080916B028F70873008F00BC199
:103E80008093E9008091EB0085FB882780F91092F0
:103E9000E9009091E800977F9093E8008093F1000B
:103EA0001092F100D1C0282F2D7F09F0F4C0882393
:103EB00019F0823061F0EFC080916902813009F021
:103EC000EAC0933009F080E0809364022EC08091B4
:103ED000690281112AC080916B028F702FEF280F29
:103EE000263008F0D8C08093E9002091EB0020FF35
:103EF0001CC0933021F48091EB00806214C090913B
:103F0000EB0090619093EB0021E030E0A90102C04A
:103F1000440F551F8A95E2F74093EA001092EA0099
:103F20008091EB0088608093EB001092E900809113
:103F3000E800877F8093E8000E94201DACC08111BB
:103F4000AAC0109169021F778091E3008078812BCD
:103F50008093E3008091E800877F8093E8000E94CF
:103F6000201D8091E80080FFFCCF8091E3008068F5
:103F70008093E300111102C082E001C083E08093CE
:103F8000660289C08058823008F085C0809169023D
:103F900090916A028C3D53E0950779F583E08A831E
:103FA0008AE289834FB7F894DE01139620E03EE061
:103FB00051E2E32FF0E050935700E49120FF03C05B
:103FC000E295EF703F5FEF708E2F90E0EA3010F0D7
:103FD000C79601C0C0968D939D932F5F243149F7FA
:103FE0004FBF8091E800877F8093E8006AE270E02D
:103FF000CE0101960E942C1C16C060916B0270913C
:104000006C02AE014F5F5F4F0E94701BBC01892B99
:1040100009F441C09091E800977F9093E80089816E
:104020009A810E948A1C8091E8008B778093E80037
:1040300032C0803881F58091E800877F8093E80066
:10404000809162028093F1008091E8008E7772CFB8
:10405000811121C08091690290916A02992702978B
:10406000D4F48091E800877F8093E8008091690212
:10407000809362020E94201D80916202811106C01D
:104080008091E30087FD02C081E001C084E080935D
:1040900066020E945A1A8091E80083FF0AC080914C
:1040A000E800877F8093E8008091EB008062809336
:1040B000EB00AA960FB6F894DEBF0FBECDBFDF911E
:1040C000CF911F9108950895CF9380916602882320
:1040D000A1F0C091E900CF709091EC00892F817020
:1040E00090FD80E8C82B1092E9008091E80083FDE4
:1040F0000E94031FCF70C093E900CF91089597FBF2
:10410000072E16F4009407D077FD09D00E9499205D
:1041100007FC05D03EF4909581959F4F08957095CA
:1041200061957F4F0895EE0FFF1F0590F491E02DEC
:104130000994AA1BBB1B51E107C0AA1FBB1FA617EE
:10414000B70710F0A61BB70B881F991F5A95A9F740
:1041500080959095BC01CD010895FB01DC0104C060
:104160008D910190801921F441505040C8F7881B6F
:10417000990B0895F999FECF92BD81BDF89A9927C0
:1041800080B50895A8E1B0E042E050E00C94EE2044
:10419000262FF999FECF92BD81BDF89A019700B400
:1041A000021639F01FBA20BD0FB6F894FA9AF99AA0
:1041B0000FBE08950396272F0E94C9200E94C82091
:1041C000252F0E94C920242F0C94C9200196272F47
:1041D0000E94C9200C94C820DC01CB01FC01F99994
:1041E000FECF06C0F2BDE1BDF89A319600B40D9243
:0C41F00041505040B8F70895F894FFCFFC
:1041FC00C800DF012808641E140A321E9E19C1195A
:10420C00A219311A2D1AA11901E200E900EA00B530
:10421C0000B600B700CD008301CC008A0192019456
:10422C00012102230224022502260227022A02B3BC
:10423C0000B4006F007000818283E200E900EA00A4
:10424C00B500B600B700CD008301CC008A01920105
:10425C0094012102230224022502260227022A02AB
:10426C00B300B4006F007000818283F46697F5345C
:06427C003536323331F744
:00000001FF
