:100000000C9488020C94CF020C94CF020C94CF0273
:100010000C94CF020C94CF020C94CF020C94CF021C
:100020000C94CF020C94CF020C9462220C943423D3
:100030000C94B21C0C94CF020C94CF020C94CF02FF
:100040000C94CF020C94CF020C94CF020C94CF02EC
:100050000C94CF020C940B1D0C94CF020C94CF0285
:100060000C94CF020C94CF020C94CF020C94CF02CC
:100070000C94CF020C94CF020C94CF020C94CF02BC
:100080000C94CF020C94CF020C94CF020C94CF02AC
:100090000C94CF020C94CF020C94CF020C94CF029C
:1000A0000C94CF020C94CF020C94CF02FE05FE05F7
:1000B0002A062A069206B006D507D507BB065007C2
:1000C00061076107C507D507D507CE077908790805
:1000D0008B088B0882088B088B088B0879087908B5
:1000E00087088B088B088708A123C823C024C8234E
:1000F000C02414243724C0248E249D2429001E00EB
:100100001F002000210022002300240025002600DB
:1001100027002D002E002A00A8002B0014001A0032
:100120000800150017001C0018000C001200130036
:100130002F00300031004C00390004001600070089
:1001400009000A000B000D000E000F003300340000
:1001500028002A004B00E100E1001D001B00060002
:100160001900050011001000360037003800E500C6
:1001700052004D00E000E300E200A9002C00AA00BC
:100180002C0000002C000000E6000151500051003E
:100190004F0035003A003B003C003D003E003F0070
:1001A0004000410042004300440045000100AE0011
:1001B0000100010001000100010001000100010037
:1001C0000100010001000100010001000100010027
:1001D0000100010001000100010001000100010017
:1001E0000100010001000100010001000100010007
:1001F00001000100010001000100010001000100F7
:100200000100010001000100005C0100010001008B
:10021000AB000100AC000100000001000000010083
:10022000010001000100010044454255473A2064A5
:10023000697361626C65642E0A0044454255473A11
:1002400020656E61626C65642E0A004F6E6573688E
:100250006F743A206163746976653A2025640A00F8
:100260000A0025303258006B6579626F6172645FF5
:100270007365745F6C65643A20000A00253031367E
:1002800062003A200025303258000A722F63203075
:100290003132333435363738394142434445460AE2
:1002A00000290A002575002F002575005D2800250E
:1002B00064002000256400200025640020002564DF
:1002C000007C0025303258006D6F7573656B657961
:1002D000205B62746E7C782079207620685D2872BD
:1002E00065702F61636C293A205B000A002530326B
:1002F0005820006B6579626F6172645F7265706F20
:1003000072743A200064656C5F6B65795F62697432
:100310003A2063616E27742064656C3A2025303280
:10032000580A006164645F6B65795F6269743A20A2
:1003300063616E2774206164643A20253032580A64
:10034000005B735D005B575D005B535D005B525D5E
:10035000005B445D005B435D0018037A006F006F33
:10036000006D00360035005F006C006900740065A8
:1003700000000012036D0065006C006500740072DF
:10038000006900780000000403090409025B00030F
:100390000100A0FA09040000010301010009211174
:1003A0000100012240000705810308000A09040139
:1003B00000010300000009211101000122B600071D
:1003C00005820320000A090402000203000000095C
:1003D00021110100012222000705830320000107EB
:1003E00005030320000112010002000000086C80D8
:1003F00005000100010200010631FF0974A1010995
:1004000075150026FF0095207508810209761500F4
:1004100026FF00952075089102C005010902A1017F
:1004200085020901A1000509190129081500250106
:100430009508750181020501093009311581257F73
:1004400095027508810609381581257F9501750883
:100450008106050C0A38021581257F9501750881F2
:1004600006C0C005010980A101850319012AB70052
:10047000150126B700950175108100C0050C090112
:10048000A101850419012AA002150126A0029501E7
:1004900075108100C005010906A10185060507192F
:1004A000E029E71500250195087501810205071966
:1004B0000029EF1500250195F07501810205081945
:1004C000012905950575019102950175039101C0FA
:1004D00005010906A101050719E029E71500250115
:1004E00095087501810295017508810105071900BC
:1004F00029FF150026FF00950675088100050819DB
:10050000012905950575019102950175039101C0B9
:1005100011241FBECFEFDAE0DEBFCDBF04B603FE6D
:1005200027C08091CE029091CF02A091D002B091CD
:10053000D1028730904BA740B04BD1F41092CE023D
:100540001092CF021092D0021092D10214BE84B742
:10055000877F84BF0FB6F894A8958091600088616A
:1005600080936000109260000FBEE0E0F8E3099510
:1005700011E0A0E0B1E0ECEFFAE402C005900D92CA
:10058000AE3AB107D9F722E0AEEAB1E001C01D9260
:10059000AE3CB207E1F70E9424150C947C250C9424
:1005A0000000FF93EF93E091AE01F091AF0130971F
:1005B00009F00995EF91FF910895FC018591803034
:1005C00011F0EFDFFBCF0895FF27E0E230E247FFB5
:1005D0000CC0419597FF09C0EDE26095709580953C
:1005E0009095611D711D811D911D27FF02C02195F0
:1005F00030E350E2AA27660F771F881F991FAA1FB2
:10060000A41710F0A41B63955A95A9F7AA3008F017
:10061000A95FA05DAF93F395611571058105910503
:1006200041F7ED3211F4EF93F395F21718F43F937D
:10063000F395FBCF8F91B5DFFA95E1F70895E99136
:10064000F9918591803021F0853219F0AADFF9CF38
:10065000089520E0E89455915532C1F3503311F4D8
:10066000689455915A3348F4505390F3220F022E58
:10067000220F220F200D250FF4CF0EF42195899122
:100680009991533619F3533729F1533559F1BC0178
:1006900088279927E8945C3621F489919991689488
:1006A0005591543639F446EF7EF077FF0DC08FEF49
:1006B0009FEF0AC055374AE039F0583540E121F044
:1006C000523642E009F00895FF93EF937DDFEF91FA
:1006D000FF91B7CFFF93EF93FC0181918030B9F385
:1006E00060DFFBCFFF93EF9368DFF1CFDF93CF9312
:1006F000CDB7DEB72596A3DFCF91DF910895CF93D5
:10070000DF93D62F0E947819C82F882349F0D11182
:1007100002C08AEA01C089EA6AE070E00E94990595
:100720008C2FDF91CF91089581E0089581E00895A5
:100730000C94960308950C949A031F93CF93DF9320
:1007400000D000D01F92CDB7DEB749835A836B83A8
:100750003091B00189819A81311114C0662359F01A
:10076000222349F00E941D0A182F682F89819A813F
:100770000E94C60903C00E94F109182F69817A817D
:10078000812F04C00E941D0A69817A810F900F9009
:100790000F900F900F90DF91CF911F910C94271124
:1007A000FC01262F408151816281738184810C94E8
:1007B0009D0381E00895CF93DF93EC0160E00E94F8
:1007C000D003BE01DF91CF910C949B030E94521382
:1007D0000E94B3040C94D5130C94D11380E00C94B4
:1007E000B60408950C94F1030E9467080E94F20376
:1007F0002FEF84E39CE0215080409040E1F700C05F
:1008000000000C94311D0F931F93CF93DF938C0145
:1008100061E00E94D003EC01B8010E949803882394
:1008200009F45BC0B801CE010E94791A882309F44B
:1008300054C0B801CE010E944618882309F44DC067
:10084000B801CE010E94D519882309F446C0F801E9
:1008500082818823D9F1CF3D8CE5D80779F140F426
:10086000C115FCE5DF0791F0C130DC4591F02EC0E9
:10087000CC35EDE5DE0741F1CD35FDE5DF0709F1CA
:10088000CB35DD4519F50E94310F20C00E94F403DD
:1008900024C080915F02C82FC095C170C0FB80F951
:1008A00080935F02CC2329F08AE392E00E94DD026C
:1008B00014C088E292E00E94DD0210C00E94E50FA1
:1008C0000CC00E94280F02C00E94340FC801DF91A3
:1008D000CF911F910F910C949403C0E08C2FDF9166
:1008E000CF911F910F9108950C94F1030E94D51A96
:1008F0000E94B6040C9474048295982F937344E07C
:10090000949F900111248C7C86958695282B822FAC
:100910008575880F2A7A2695822B0895CF93DF93C9
:10092000D92F0E947C04C82F8D2F0E947C042C2F6D
:1009300030E0322F2227A901482BCA01DF91CF9145
:10094000089508950C94A10481E00895CF93C82FD1
:100950000E94A404882329F0C1FD02C08F9A01C01F
:100960008F98CF910895879A8F9A0895CF93C82F23
:100970000E94A2048C2F0E94A604CF910895CF93C9
:10098000DF93CDB7DEB72B970FB6F894DEBF0FBE5F
:10099000CDBF4F83588769877A878B8761110E9403
:1009A000600E9E012F5F3F4F86E0F90111928A95FC
:1009B000E9F785E0FE013796D90101900D928A95FD
:1009C000E1F789819A814C815D81452B31F09F3F10
:1009D00031F491E08F3F19F403C091E001C090E041
:1009E00090FF09C049815A816B817C818D819E81F4
:1009F0000E94810D05C0C9010E94D9038111F2CF67
:100A00002B960FB6F894DEBF0FBECDBFDF91CF910E
:100A10000895FC01808191810E945F0A0895CF931F
:100A2000882309F450C0C82F8CEF8C0F813AD0F482
:100A30006C2F80910201909103010E94861B8823F4
:100A400049F06C2F80910201909103010E94331CA8
:100A50000E94920E6C2F80910201909103010E94DE
:100A6000281C0CC080E28C0F883058F4C77081E0DD
:100A700001C0880FCA95EAF70E94430ECF910C94EB
:100A8000920EEBE5EC0FE33040F4F0E0E95BFE4F53
:100A9000808190E0CF910C94441BE8E5EC0FE731A6
:100AA00050F4F0E0EE0FFF1FE75EFE4F8081918172
:100AB000CF910C945A1BCD3E30F08C2F0E94B31571
:100AC000CF910C948516CF910895882389F19CEFDE
:100AD000980F913A40F4682F8091020190910301A0
:100AE0000E94331C0DC090E2980F983058F4877024
:100AF00091E001C0990F8A95EAF7892F0E94490E6B
:100B00000C94920E9BE5980F933020F480E090E0D7
:100B10000C94441B98E5980F973120F480E090E006
:100B20000C945A1B8D3E20F00E940E160C948516D4
:100B300008951F93CF93DF93182FEB010E940F05A9
:100B4000209741F08FE99FE00197F1F700C0000086
:100B50002197F6CF812FDF91CF911F910C946505DE
:100B6000893319F060E070E002C060E570E00C9439
:100B70009905882321F00E94430E0C94920E08954B
:100B8000882321F00E94490E0C94920E0895CF9272
:100B9000DF92EF92FF920F931F93CF93DF937C012D
:100BA000162FC72FFC01D281058102950F700E947C
:100BB000390E8823B9F0DD23A9F08C2F807F803493
:100BC00021F080E2810F883068F08091A80282FDD8
:100BD00009C082E00E94E20E0E94390E91E0D82EF8
:100BE000D92601C0D12CCC2EC2948FE0C8228C2DE6
:100BF00090E0FC01EA5AFF4F0C9413258C2F807F64
:100C0000CF70882311F0C295C07FDD2399F0CC23EB
:100C100009F4A6C180E2810F883010F0111104C0E0
:100C20008C2F0E94430E03C08C2F0E94530E0E94F3
:100C3000920E96C1812F0E946505CC2309F4B5C19F
:100C400080E2810F883038F1112329F18C2F0E9426
:100C5000590E24C08C2F807FCF70803211F0C29546
:100C6000C07F112319F01130A1F13DC08091A8027D
:100C700082FF17C0DD2349F0CC2329F08C2F0E947E
:100C8000430E0E94920E80E06CC180E00E946505D8
:100C9000CC2309F48AC18C2F0E94490E0E94920E27
:100CA00084C1DD2371F0002341F0013031F40E9452
:100CB000730E8C2B0E947B0E78C10E94730E8C2BBE
:100CC0001DC0002319F0013009F46FC10E94880E85
:100CD00025C0DD2321F0063008F067C10EC00530C5
:100CE00008F063C11BC0DD2361F0002331F0F70180
:100CF000858180FF35C18F7085838C2F0E94B90557
:100D000054C1002359F0193309F03BC1FFEF27EE1E
:100D100083E0F15020408040E1F731C18C2F0E94E8
:100D2000C00543C18C2F86958695837019F081305C
:100D300061F03BC1DD2321F0812F9C2F937002C015
:100D400080E090E00E94441B38C1DD2321F0812F18
:100D50009C2F937002C080E090E00E945A1B2DC12E
:100D6000812FDD2319F00E94B31502C00E940E16D8
:100D70000E94851622C18C2F837009F045C0D111C5
:100D800018C1412F429546954770440F440F612F7B
:100D90006F70862F90E0A0E0B0E0042E04C0880FB2
:100DA000991FAA1FBB1F0A94D2F714FF10C00FE0AF
:100DB00010E020E030E004C0000F111F221F331F9D
:100DC0004A95D2F7009510952095309503C000E024
:100DD00010E09801C695C695C370BC01CD01602B8B
:100DE000712B822B932BC23049F058F4C13019F08B
:100DF0000E94DC08DEC00E94CA08DBC00E94EE0828
:100E0000D8C00E94C808D5C0DD2319F08C2F81708E
:100E100001C08695882309F4CCC0412F42954695A0
:100E20004770440F440F612F6F70862F90E0A0E051
:100E3000B0E0042E04C0880F991FAA1FBB1F0A949C
:100E4000D2F714FF10C00FE010E020E030E004C043
:100E5000000F111F221F331F4A95D2F700951095DE
:100E60002095309503C000E010E09801C695C69526
:100E7000C370BC01CD01602B712B822B932BC23030
:100E800049F058F4C13019F00E94A10992C00E94A3
:100E90008F098FC00E94B3098CC00E94020989C0CB
:100EA000CF70DD2339F08C2F0E942809812F0E94FA
:100EB000B9057FC0812F0E94C0058C2F0E9449096F
:100EC00078C0123F21F128F4103F41F0113FC1F0EA
:100ED00043C0133F19F1143F79F03EC0DD2341F0C8
:100EE000053008F062C08C2F8F710E946E095DC0C2
:100EF000063008F05AC0F7CF8091A80282FF18C0D0
:100F0000DD2339F08C2F8F710E9428094EC0DD231C
:100F1000C9F38C2F8F710E94490947C0DD2329F046
:100F20008C2F8F710E94130940C00E940E093DC092
:100F3000DD2349F0CF718C2F0E94280963E08C2FAC
:100F40000E94C70E32C081E00E94E20E023068F1BA
:100F500082E00E94E20E29C0DD2331F0002391F2ED
:100F6000812F0E940F0521C0002399F2193349F403
:100F70009FEFE7EEF3E09150E040F040E1F700C072
:100F80000000812F0E94650510C04C2F4F70612F0B
:100F9000C7010E9423110E948D0A0FC04C2F4F7071
:100FA000612FC7010E94261108C088EF8C0D843084
:100FB00020F40E94D51A0E94B604DD20C9F00E94D8
:100FC000350E80FD15C0F70112820E942F0E0E947F
:100FD0002809C7010E9419080E942F0EDF91CF91A6
:100FE0001F910F91FF90EF90DF90CF900C944909E3
:100FF000DF91CF911F910F91FF90EF90DF90CF90F5
:1010000008950F931F93CF93DF93EC01688179814B
:101010008A810E946A0A8C010E94C5090E94B60852
:10102000B801CE010E94C705DF91CF911F910F91AA
:101030000895CF93DF93EC01988189812B813C81C6
:10104000232B31F08F3F31F481E09F3F19F403C02F
:1010500081E001C080E080FD1DC0CE010E9403043C
:10106000811110C00E94390E8823A1F08A81882343
:1010700089F08091A80282FD0DC082E0DF91CF91BE
:101080000C94E20ECE010E940108CE01DF91CF91B7
:101090000C94DB03DF91CF91089580E090E00E94F3
:1010A000441B80E090E00E945A1B0E94600E0E9448
:1010B000700E0E94920E0E9438180C948516809132
:1010C0000201909103010E943E1C0C944D080E9465
:1010D000500E0C945F08E92FE295EF704E2F50E010
:1010E000FA013297EE30F105B0F4EA59FF4F0C9453
:1010F0001325803F91F018F4883E68F40EC0843FB9
:1011000051F40BC0883E48F0813F29F406C093FBA0
:10111000882780F9089580E0089581E00895FC0112
:10112000808191810E945F0A0E946B080895CF938D
:10113000DF9300D000D01F92CDB7DEB70F900F9095
:101140000F900F900F90DF91CF910895CF93DF9381
:1011500000D000D000D0CDB7DEB726960FB6F894F9
:10116000DEBF0FBECDBFDF91CF91089508950895E2
:101170000C94B7080C94B8080E94BA086093E70171
:101180007093E8018093E9019093EA010C944D0873
:101190000C94BC080F931F930091E7011091E80194
:1011A0002091E9013091EA01602B712B822B932B66
:1011B0001F910F910C94BC080F931F930091E701AE
:1011C0001091E8012091E9013091EA016023712337
:1011D000822393231F910F910C94BC080F931F93AC
:1011E0000091E7011091E8012091E9013091EA01B5
:1011F00060277127822793271F910F910C94BC08B9
:101200000C94B7080E9400096093E3017093E40115
:101210008093E5019093E6010C944D0860E070E046
:10122000CB010C9402090F931F9341E050E060E062
:1012300070E08A019B0104C0000F111F221F331FA1
:101240008A95D2F7C901B8011F910F910C94020938
:101250000F931F9341E050E060E070E004C0440F42
:10126000551F661F771F8A95D2F78091E3019091F1
:10127000E401A091E501B091E6018A019B01082BF0
:10128000192B2A2B3B2BC901B8011F910F910C94EC
:1012900002090F931F9341E050E060E070E004C04A
:1012A000440F551F661F771F8A95D2F740955095BA
:1012B000609570958091E3019091E401A091E50122
:1012C000B091E6018A019B01082319232A233B23BD
:1012D000C901B8011F910F910C9402090F931F933C
:1012E00041E050E060E070E004C0440F551F661F0D
:1012F000771F8A95D2F78091E3019091E401A09144
:10130000E501B091E6018A019B01082719272A27E8
:101310003B27C901B8011F910F910C9402090F934B
:101320001F930091E3011091E4012091E5013091B8
:10133000E601602B712B822B932B1F910F910C9444
:1013400002090F931F930091E3011091E401209192
:10135000E5013091E60160237123822393231F91DD
:101360000F910C9402090F931F930091E3011091C8
:10137000E4012091E5013091E60160277127822781
:1013800093271F910F910C94020908952FE0929FCB
:10139000800D1124E82FE695E695E695877051E0DB
:1013A00001C0550F8A95EAF785E0E89FF001112406
:1013B000EF54FE4F20E030E070E04081CB01022E80
:1013C00002C0969587950A94E2F7817081958427EB
:1013D0008523842781932F5F3F4F2530310569F79F
:1013E00008952FE0929F800D1124682F66956695D1
:1013F0006695982F977085E0689FB001112440E0B2
:1014000050E080E0FB01E40FF51FEF54FE4F208118
:1014100030E0092E02C0369527950A94E2F7217034
:101420003327042E01C0220F0A94EAF7822B4F5F64
:101430005F4F4530510531F70895BF92CF92DF924B
:10144000EF92FF920F931F93CF93DF938C01C09085
:10145000E301D090E401E090E501F090E601809195
:10146000E7019091E801A091E901B091EA01C82A51
:10147000D92AEA2AFB2ACFE1D0E0D701C6010C2EF7
:1014800004C0B695A795979587950A94D2F780FDE5
:1014900004C0219790F7B12C07C0BC2EB8018C2F47
:1014A0000E945E120197A9F38B2DDF91CF911F91BE
:1014B0000F91FF90EF90DF90CF90BF900895CF9362
:1014C000DF93EC010E941D0ABE010E945E12DF91B3
:1014D000CF9108951F93CF93DF93EB019091B001CB
:1014E000992321F0CB010E945F0A13C0882349F0A1
:1014F000CB010E941D0A182F682FCE010E94C60939
:1015000004C0CB010E94F109182FBE01812F0E9457
:101510005E12DF91CF911F910895EF92FF920F938A
:101520001F93CF93DF938C01892B09F46CC0F12CAE
:10153000EE24E394E8012196F8018491843740F485
:10154000843008F051C0813081F0823019F15BC0E5
:10155000853709F444C0A8F19CE7980F903708F04C
:1015600052C08F770E94650541C00E5F1F4FFE017C
:10157000849190E2980F983050F48770FE2D01C04E
:10158000FF0F8A95EAF78F2F0E94630E14C00E9406
:101590000F052DC00E5F1F4FFE01849190E2980F42
:1015A000983060F48770FE2D01C0FF0F8A95EAF72E
:1015B0008F2F0E94690E0E94920E19C00E9465052D
:1015C00016C00E5F1F4FFE01C491CC2381F08FE93E
:1015D0009FE00197F1F700C00000C150F6CF0E5F09
:1015E0001F4FFE01F49003C00E940F058E018F2D46
:1015F000882309F49FCFEFE9FFE03197F1F700C0AE
:1016000000008150F5CFDF91CF911F910F91FF9096
:10161000EF9008951F93CF93DF93C091EB0116E0F5
:101620008091EC01C81799F0D0E01C9FF0011D9F3C
:10163000F00D1124E351FE4F40815181628173818D
:10164000848195810E94A6082196C770E9CFDF9119
:10165000CF911F91089540911D0250911E026091FB
:101660001F027091200280912102909122020C941D
:10167000A608EF92FF920F931F93CF93DF93809171
:10168000220282958F7009F065C080911F02882325
:1016900009F460C08091EB01F090EC0110911D0203
:1016A00000911E02609120027091210291E01F3F83
:1016B00009F090E0C0910001D0910101292F96E03E
:1016C000E92E8F1509F446C06115710521F00F3F11
:1016D00021F030E003C031E001C0322F90E030FD56
:1016E00036C0E89EF001E99EF00D1124DF01A35100
:1016F000BE4F11963C911197301329C03C91311384
:1017000026C012963C911297311121C013964D912B
:101710005C911497461B570B4C175D07C0F48091E2
:1017200022028F70806180932202EE50FE4F8081F2
:101730008F70806180838DE192E00E941908DF91B3
:10174000CF911F910F91FF90EF900C940A0B01968F
:101750008770B7CFDF91CF911F910F91FF90EF90DE
:1017600008959F92AF92BF92CF92DF92EF92FF9235
:101770000F931F93CF93DF93CDB7DEB761970FB66B
:10178000F894DEBF0FBECDBF8C0185E0F801DE010D
:101790001D9601900D928A95E1F7D8011296EC9072
:1017A00090911D02E0911E022091200230912102B1
:1017B0002115310531F0EF3F31F481E09F3F19F4FD
:1017C00003C081E001C080E0B82FB1709B2E80FD86
:1017D00047C1D8014C9111965C9111971396AD9029
:1017E000BC9014978DE1C82E82E0D82EF0901F0295
:1017F000B501621B730B2091000130910101FF20A4
:1018000009F4D9C0809122026217730708F095C0CD
:10181000282F207F09F052C05E1313C0491311C056
:10182000FE2CE1100EC08F708061809322020E9416
:101830002B0BC6010E94190880912202F8018583B2
:101840004DC1AB2831F05F3F31F481E04F3F19F4D7
:1018500003C081E001C080E080FD03C081E08E25EF
:1018600002C080E090E0F82FF170FF2E80FF1CC0D6
:101870008091EB012091EC0136E0821709F40BC155
:1018800090E0389FF001399FF00D1124E351FE4F95
:101890006181561306C06081461303C06281E6125F
:1018A00003C001968770E9CFFE2CEE2009F416C123
:1018B0008091220281608093220254C05E1306C090
:1018C000491304C0E11002C0F80199C0C8010E9488
:1018D0008F08882361F1EE2051F120912202822F9E
:1018E00082958F7090E0029774F080911D02909124
:1018F0001E0298878F831986BB86AA862C87CE0105
:1019000007960E94190886E0F801ADE1B2E0019067
:101910000D928A95E1F70E94390B0E942B0B0AC0A9
:101920005E1711F1C8010E948F0881112CC0C801F7
:101930000E941908FF24F394D1C0282F207F81F73B
:101940007A2DB98AA88A6E2D89890E9497088DE11F
:1019500092E00E94190886E0D6011D928A95E9F767
:101960000E942B0BF12CBAC04913DCCFE110DACF67
:10197000F8018583C8010E94190886E0D6011D92EE
:101980008A95E9F7ABC0EE2091F220912202822FD6
:1019900082958F7090E002970CF4B5CF80911D0274
:1019A00090911E029A8389831B82BD82AC822E8312
:1019B000CE010196A6CF6217730708F044C0FE2C33
:1019C000EE2009F4B4CF5E1330C049132EC020912D
:1019D000220220FD21C0822F82958F70482F50E077
:1019E00041155105C9F0F80125834F30510541F0EB
:1019F0008F5F982F9295907F822F8F70892B858390
:101A0000C8010E94190886E0F801ADE1B2E001903A
:101A10000D928A95E1F73CC086E0F801ADE1B2E0B5
:101A200001900D928A95E1F759C0C8010E948F0874
:101A3000811169CF80912202816080932202C801C6
:101A40000E9419084BC07A2DB98AA88A6E2D8989FF
:101A50000E94970886E0D6011D928A95E9F718C082
:101A6000EE2009F464CFC8010E948F08F82E882365
:101A700009F45DCF86E0F801ADE1B2E001900D928E
:101A80008A95E1F78DE192E00E9409050E94390BE9
:101A90000E942B0B23C04D875E878D859E850E94FB
:101AA0005F0A292F22952F70223028F49F7039F079
:101AB000811105C00BC0243028F49F7049F4805E6A
:101AC000883020F0C8010E9419089F2CF92C06C00C
:101AD000D80115969C91907F91F7F8CF8F2D619644
:101AE0000FB6F894DEBF0FBECDBFDF91CF911F912F
:101AF0000F91FF90EF90DF90CF90BF90AF909F90AD
:101B000008951F93CF93DF93CDB7DEB72C970FB611
:101B1000F894DEBF0FBECDBF4F83588769877A87A1
:101B20008B879C87CE0107960E94B10B8823D1F04A
:101B30009F8188852A853B85232B31F08F3F31F4A7
:101B400081E09F3F19F403C081E001C080E080FD87
:101B500047C04F81588569857A858B859C850E9411
:101B6000A6083EC086E0FE013796DE011196019080
:101B70000D928A95E1F7FF81E8856A857B8561157D
:101B8000710531F0EF3F31F481E0FF3F19F403C0FC
:101B900081E001C080E080FD23C02091EC0130E0B5
:101BA000C9010196877099274091EB0150E0841795
:101BB0009507F1F1F983EA837D836C8396E0929F28
:101BC000D001939FB00D1124A351BE4FFE01319659
:101BD00001900D929A95E1F78093EC010E940A0B17
:101BE00016E08091EB019091EC01891771F1189F3B
:101BF000C001112483519E4F0E94B10B882329F10B
:101C0000E091EB011E9FF0011124E351FE4F408152
:101C1000518162817381848195810E94A60880919F
:101C2000EB0190E00196877099278093EB01D9CF63
:101C30000E9467081092EC011092EB01EDE1F2E0D6
:101C400086E0DF011D928A95E9F72C960FB6F8948D
:101C5000DEBF0FBECDBFDF91CF911F910895809160
:101C60002302859585958595089580912302877037
:101C7000089590912302977081E009F480E008951F
:101C800080914702089590914702892B80934702E3
:101C90000895809590914702892380934702089583
:101CA00010924702089590914602892B8093460234
:101CB0000895809590914602892380934602089565
:101CC00010924602089590914502892B8093450217
:101CD0000895809590914502892380934502089547
:101CE00010924502089580912402089508950C945D
:101CF000760E0C94770E9091A80292FD08C09091F8
:101D00002402981721F0809324020C94790E0895F0
:101D100080912402882329F01092240280E00C9400
:101D2000790E0895E0910201F0910301809147023C
:101D30008083E0910201F09103019081809146023D
:101D4000892B8083E0910201F091030190818091C1
:101D50004502892B808380912402882381F0E091C1
:101D60000201F09103019081892B8083809102010F
:101D7000909103010E94701B81110E94880E809136
:101D80000201909103010C94E11A0C94760E90914B
:101D9000A80292FD10C098E0899F90011124262B83
:101DA000209323020E94280980912302859585951E
:101DB00085950C94C50E0C9428091092230280E09E
:101DC0000C94C50E209123028095822380932302D8
:101DD000982F977099F430E0482F082E000C550B7F
:101DE0002417350759F09091A80292FD07C08595F8
:101DF000859585950E9449090C94DD0E0895CF9331
:101E00009091A80292FB222720F92817F9F0C82FF9
:101E1000892FC0FB82F98093A8028091A70290913C
:101E2000A8020E94610F82E00E94E20E80915F0290
:101E300080FF0CC01F92CF938BE492E09F938F930F
:101E40000E9476030F900F900F900F90CF910895FE
:101E50008091A80282FB882780F991E089270C9461
:101E6000FF0E81E00C94FF0E80E00C94FF0E6FEFEC
:101E70007FEF80E090E00C94662580E090E00E9487
:101E8000422521E0893E9E4F09F020E0822F0895EF
:101E900082E090E00C943A2583E090E00C943A259F
:101EA000CF9384E090E00E943A25C82F82E290E030
:101EB0000E943A252C2F30E0A901582BCA01CF915E
:101EC0000895CF93C92F682F84E090E00E944825A1
:101ED0006C2F82E290E0CF910C944825AB01BC01BD
:101EE0008FE090E00C945A25AB01BC0183E190E0B7
:101EF0000C945A2560E070E0CB010C94740F60E004
:101F000070E0CB010E946E0F0C947A0F69EE7EEFA9
:101F100080E090E00E94662560E082E090E00E9410
:101F2000482560E083E090E00E9448251092E70198
:101F30001092E8011092E9011092EA0160E084E059
:101F400090E00E94482560E082E290E00E944825EF
:101F500060E085E090E00E94482560E086E090E047
:101F60000E9448256FEF87E090E00E94482540E0FE
:101F700050E0BA0188E090E00E945A2560E08DE0D0
:101F800090E00E94482540E050E0BA0188E190E0EE
:101F90000E945A2560E087E190E00E94482540E0D9
:101FA00050E0BA018CE190E00E945A2560E070E0B8
:101FB00080E290E00E94662540E050E0BA0188E1AE
:101FC00090E00E945A250C947F0F0C94860F682F86
:101FD0008EE090E00C9448250E94F01C60935B0218
:101FE00070935C0280935D0290935E02609357024F
:101FF000709358028093590290935A0208950E9458
:10200000F01C60935B0270935C0280935D0290937E
:102010005E02609353027093540280935502909332
:102020005602089585B7806885BF85B7806885BFEB
:10203000089581E008950C94191008950C941D10D2
:102040000C941D100C9420100C941D100C94241052
:102050000C941D100E9412108DE39FE10E94CB1A78
:102060000E9428100C9426100E941E100C941D1023
:102070000E94DB1C0E947D140E947A190C9422108D
:10208000CF93C82F80915F0282FF1EC080FF04C0E3
:1020900087E692E00E94DD0280915F0280FF0CC023
:1020A0001F92CF9382E692E09F938F930E947603D4
:1020B0000F900F900F900F9080915F0280FF04C0EF
:1020C00080E692E00E94DD028C2FCF910C94B60442
:1020D0006F927F928F929F92AF92BF92CF92DF9238
:1020E000EF92FF920F931F93CF93DF93CDB7DEB79D
:1020F0002A970FB6F894DEBF0FBECDBF0E94921490
:1021000081110E94EC0F39E4832E32E0932E00E01F
:1021100010E0C02E802F0E9476135C01F4016190C4
:1021200071904F016826792661147104B1F40F5F34
:102130001F4F0530110569F78FEF89838A831B8252
:102140000E94E41C8160782F9D838C8349815A8191
:102150006B818D810E94BF043AC080915F0281FD36
:102160000E947F13D12CEE24E394F12CC3018E2125
:102170009F21892B29F10E941B108823A9F0DE8260
:10218000CF82AE20BF2081E0AB2809F480E08887B1
:102190000E94E41C8160782F9A8789874E815F8135
:1021A00068858A850E94BF04000F111FF801E75B54
:1021B000FD4F80819181E826F926F182E08207C0F7
:1021C000D394EE0CFF1CFFE0DF12D0CFB0CF0E9403
:1021D0008A1981110E94FF0F0E9425170E94D51AAB
:1021E000909148028917D1F00E94D51A8093480235
:1021F0002A960FB6F894DEBF0FBECDBFDF91CF9108
:102200001F910F91FF90EF90DF90CF90BF90AF9014
:102210009F908F907F906F900C9440102A960FB6ED
:10222000F894DEBF0FBECDBFDF91CF911F910F910C
:10223000FF90EF90DF90CF90BF90AF909F908F90E6
:102240007F906F90089580E090E0089508952BE4CA
:10225000829FC0011124FC012FE0729FE00DF11D4F
:102260001124E60FF11DEE0FFF1FE450FF4F859183
:1022700094910895880F991FFC01E658FD4F8591B0
:1022800094910895CF93DF930E946312EC0181151E
:1022900020E5920708F03FC0811540E4940708F05C
:1022A000D2C0883E910500F5803E910508F002C13C
:1022B000883A910570F4853A910508F0A6C08130FE
:1022C000910509F49FC008F4F2C0049708F0F2C029
:1022D000EEC08F3B910508F4A1C0803C910508F445
:1022E000E6C0805C9109A5C0811550E2950760F4B5
:1022F000C11581E0D80708F0DDC0CD3ED10508F456
:10230000D6C0CE019065D7C0811520E3920708F0B2
:1023100093C09F708EC0811545E5940708F046C0B4
:10232000811554E5950708F0A6C0C11582E5D807C8
:1023300018F5C11521E5D20708F088C0CE01F4E0F8
:1023400096958795FA95E1F7282F23703C2F3370E7
:1023500081E090E002C0880F991F3A95E2F79C68EF
:10236000922B2C2F2F702695269540E2249F9001CA
:102370001124822B932B9FC09E01237033279C2F07
:1023800096959695C115D34508F065C041E050E09B
:1023900002C0440F551F2A95E2F780E2989F9001F2
:1023A0001124CA01822B932B9C6885C0811559E5A5
:1023B000950798F4C11588E5D80708F061C0C115E4
:1023C00026E5D20708F073C08C2F0E94F7128F7198
:1023D00090E0982F882790626EC081154AE5940797
:1023E00008F453C090568115904208F060C08D2FBC
:1023F0008F710E94F7129E01332730628F71A901FD
:10240000582B53C081E090E056C0855AC82FD0E0C9
:10241000C858DE4F888190E090644DC0885AC82F1C
:10242000D0E0CC0FDD1FC65BDE4F888199819464BC
:1024300042C00E943A113FC09927D3FF02C0986C56
:102440003AC0906C38C09F70906A35C09C2F882726
:10245000816F906A30C041E050E002C0440F551FC8
:102460002A95E2F780E2989F90011124CA01822BFD
:10247000932B9A6820C0982F8827846F906A1BC07E
:102480009C2F8827806F906A16C08F700E94F71269
:102490009E0194E0369527959A95E1F72F7030E0EC
:1024A000322F22273069A901482BCA0104C080E0DD
:1024B00090E001C0CE01DF91CF9108950E942711D5
:1024C0000E94421108958238910569F1B0F4813378
:1024D000910509F46DC048F48932910509F463C08F
:1024E0008A32910509F469C008958533910509F48C
:1024F00055C089339105B9F00895833E910569F17E
:1025000038F4803E9105B1F0823E910509F10895BD
:10251000863E9105A9F1873E9105B9F1843E91056A
:1025200009F064C023C02091A70220FD4FC021FD07
:102530004DC008958091A70280FD44C08091A802FB
:1025400080FF44C08091A70284FD42C083EE4DC04D
:102550008091A70282FF38C0F5CF8091A70282FD4B
:1025600033C08091A80280FD31C0ECCF8091A802D9
:1025700081FF32C08091A70284FD2AC087EE35C05A
:102580008091A70283FF26C0F5CF8091A70283FD2B
:1025900021C08091A80281FD1FC0ECCF8091A702CD
:1025A00085FD1CC01DC08091A70285FD19C016C005
:1025B0008091A70286FD16C017C08091A70286FDF4
:1025C00013C010C089E311C082EE0FC080EE0DC0B1
:1025D00080E00BC086EE09C084EE07C089E205C02A
:1025E00085E303C08AE201C081E390E00895909101
:1025F000A70292FF0DC0282F2871283019F4877F79
:10260000846006C0282F2471243011F48B7F8860E9
:1026100093FF0DC0282F2871283119F4877E84611B
:1026200006C0282F2471243111F48B7E88612091FB
:10263000A80220FF0DC0382F3871383019F4877F79
:10264000816006C0382F3171313011F48E7F88607F
:1026500021FF0DC0282F2871283119F4877E816150
:1026600006C0282F2171213111F48E7E886194FDDE
:10267000877E08950C94370F0E9492148FE39CE993
:102680000197F1F700C000000E94921480E00E94C0
:10269000761380FF04C00E943A130C94311D0895F4
:1026A0000C943C130E943D0F811102C00E94E50F63
:1026B0000E94480F80935F020E94500F9093A802DF
:1026C0008093A7020E9450130E944C0F682F70E065
:1026D00080E090E00E94C8086091E3017091E401FD
:1026E0008091E5019091E6010C940009E82FF0E05B
:1026F000EE0FFF1FED54FD4F808191810895CF9221
:10270000DF92EF92FF920F931F93CF93DF938AE8AC
:1027100092E00E94DD0283EBE82E82E0F82EC0E01A
:10272000D0E095E8C92E92E0D92E0CE712E0DF93B5
:10273000CF93DF92CF920E94760382E892E00E94CC
:10274000DD02F701819191917F010E948E049F9398
:102750008F931F930F930E9476038AE792E00E9463
:10276000DD0221968DB79EB708960FB6F8949EBFEE
:102770000FBE8DBFC530D105D1F6DF91CF911F912E
:102780000F91FF90EF90DF90CF90089580EA8A95A7
:10279000F1F7089500C008950C94C61308950C94A1
:1027A000CE130C94CF130C94CE130C94D313F89433
:1027B000E82FE295EF70F0E031A1282F2F7081E033
:1027C00090E001C0880F2A95EAF7982F90959323FF
:1027D00091A392A1892B82A3789408950F931F93BC
:1027E000CF93DF93CAE8D1E089918F3F11F00E9427
:1027F000D71381E0CF38D807B9F7CBE7D1E00AE8A3
:1028000011E089918F3F11F00E94D7130C171D071B
:10281000C1F7DF91CF911F910F910895BF92CF9291
:10282000DF92EF92FF920F931F93CF93DF938C0170
:10283000C62FD0E0CE0186579E4F6C01FC019081DF
:102840009F3F09F450C0B62EF894E92FE295EF703F
:10285000F0E081A19F7021E030E001C0220F9A9545
:10286000EAF7822B81A382A12095282322A37894C2
:102870000E94CA13EBE7F1E04AE851E021E030E0C2
:10288000E12CF12C61916F3F89F0A62FA295AF70DA
:10289000B0E090968C9190E06F7002C0959587950E
:1028A0006A95E2F780FD02C0C90102C080E090E0B5
:1028B000E82AF92A220F331F4E175F0719F7F6018E
:1028C00080818F3F11F00E94D71361E0E114F10481
:1028D00009F460E08B2D0E94CC13CC0FDD1FC00FDC
:1028E000D11FF982E882DF91CF911F910F91FF9064
:1028F000EF90DF90CF90BF9008950E94EE138AE092
:10290000E3EBF2E0DF01982F1D929A95E9F7E9EAEF
:10291000F2E0DF011D928A95E9F785E00E94DD145F
:102920000C94E603FF920F931F93CF93DF93CDB7E1
:10293000DEB72A970FB6F894DEBF0FBECDBF8E016B
:102940000F5F1F4F8AE0F80111928A95E9F7F12C89
:102950006F2DC8010E940E14F394F5E0FF12F8CF1A
:102960004AE050E0B80189EA92E00E942D25FF2458
:10297000F394009709F4F12C892B41F08AE0F801D7
:10298000A9EAB2E001900D928A95E1F72F2D45E07A
:1029900063EB72E089EA92E00E94DE140E94EC038D
:1029A0008F2D2A960FB6F894DEBF0FBECDBFDF91F4
:1029B000CF911F910F91FF9008950895FF920F936B
:1029C0001F93CF93DF93F82E092F162FD72FC42FE5
:1029D000222349F081E0809362020E94E41C9093DC
:1029E000610280936002809162028823D9F0809115
:1029F0006002909161020E94FC1C059798F0EF2DF7
:102A0000F02FA12FBD2F80E090E04C2F50E08417D5
:102A1000950734F4219131912D933D930196F7CF91
:102A200010926202DF91CF911F910F91FF90089554
:102A30000E94B91F0E9438100C94C51F0E94C91F24
:102A40000E9468100C94E71F0E946A1C0E94A01F3D
:102A50000E942A100E9418150E941E150E94341010
:102A6000FBCF8091690280FF0BC06091090185E076
:102A7000689FB001112475956795759567952BC072
:102A800081FF09C06091090185E0689FB0011124B0
:102A90007595679520C082FF07C06091090185E0A8
:102AA000689FB001112417C0909168029923D1F05A
:102AB00060910801961788F72091090185E0289F09
:102AC00090011124929FA001939F500D112470E05A
:102AD000CA010E94FF246038710540F46115710538
:102AE00019F406C065E070E0862F08958FE7089519
:102AF00081E008958091690280FF08C0609105011E
:102B000070E0759567957595679521C081FF06C042
:102B10006091050170E07595679519C082FF04C04A
:102B20006091050170E010C090916702992399F0BF
:102B3000609104019617A0F780910501899FC0015B
:102B4000112470E00E94FF246038710540F4611583
:102B5000710519F406C061E070E0862F08958FE7D3
:102B6000089581E008958D3E21F40E9431158195EC
:102B700004C08E3E29F40E94311580936D020895A1
:102B80008F3E21F40E943115819504C0803F29F4C5
:102B90000E94311580936C020895893F19F40E94B8
:102BA0007A1505C08A3F31F40E947A158195809389
:102BB0006E0208958B3F21F40E947A15819504C01E
:102BC0008C3F29F40E947A1580936F0208959FE04C
:102BD000980F983078F421E030E0A90102C0440F4A
:102BE000551F9A95E2F7CA0190916B02892B809349
:102BF0006B0208958D3F21F48091690281600BC0C2
:102C00008E3F21F480916902826005C08F3F29F4D4
:102C10008091690284608093690208958D3E39F441
:102C200090916D0297FF35C010926D0259C08E3E93
:102C300029F490916D021916BCF32BC090916C028F
:102C40008F3E29F497FF25C010926C0249C0803F47
:102C500019F41916CCF31DC090916E02893F29F426
:102C60001916BCF410926E023BC08A3F19F497FF0C
:102C700010C0F8CF8B3F39F490916F0297FF09C0D5
:102C800010926F022DC08C3F21F490916F021916A3
:102C9000BCF39FE0980F983080F421E030E0A90168
:102CA00002C0440F551F9A95E2F7CA018095909192
:102CB0006B02892380936B0213C08D3F21F48091B6
:102CC00069028E7F0BC08E3F21F4809169028D7F57
:102CD00005C08F3F29F4809169028B7F8093690240
:102CE00080916C02811106C080916D02811102C039
:102CF0001092680280916E02811106C080916F026D
:102D0000811102C010926702089580915F0283FFD3
:102D10007EC088EC92E00E94DD0280916B021F92DF
:102D20008F9383EC92E09F938F930E94760381ECC4
:102D300092E00E94DD0280916C02282F082E000C88
:102D4000330B3F938F938EEB92E09F938F930E9470
:102D500076038CEB92E00E94DD0280916D02282FB9
:102D6000082E000C330B3F938F9389EB92E09F93D7
:102D70008F930E94760387EB92E00E94DD028091A0
:102D80006E02282F082E000C330B3F938F9384EB99
:102D900092E09F938F930E94760382EB92E00E94D1
:102DA000DD0280916F02282F082E000C330B3F9319
:102DB0008F938FEA92E09F938F930E9476038CEA21
:102DC00092E00E94DD02809168021F928F9389EA4F
:102DD00092E09F938F930E94760387EA92E00E948D
:102DE000DD02809169021F928F9384EA92E09F93A3
:102DF0008F930E94760381EA92E00E94DD028DB7F4
:102E00009EB74C960FB6F8949EBF0FBE8DBF0E9422
:102E1000E41C20916C02211104C020916D02222338
:102E200021F0909366028093650220916E02211139
:102E300004C020916F02222321F0909364028093BA
:102E400063028AE692E00C94361BEF92FF920F9396
:102E50001F93CF93DF9300D000D000D0CDB7DEB763
:102E600086E0EAE6F2E0DE01119601900D928A9585
:102E7000E1F7E0906C02F0906D0200916E0210910B
:102E80006F0210926C0210926D0210926E021092FC
:102E90006F02E11003C0FF2009F45DC0809165025C
:102EA000909166020E94FC1CAC01909168029923EB
:102EB00039F020910A0130E02417350758F04BC053
:102EC00020910B018AE0289F9001112424173507D7
:102ED00018F041C09F3F19F09F5F90936802EE2069
:102EE00061F00E9431151E1414F09FEF01C091E0B3
:102EF000989F902D112490936C02FF2061F00E9406
:102F000031151F1414F09FEF01C091E0989F902D90
:102F1000112490936D0230916C023323E1F02091E3
:102F20006D022223C1F045EB3403C0011124992323
:102F300019F090936C0203C081E080936C0235EB32
:102F40002303C0011124992319F090936D0203C04B
:102F500081E080936D02011103C0112309F45DC06B
:102F600080916302909164020E94FC1CAC019091DC
:102F70006702992339F02091060130E024173507C4
:102F800058F04BC0209107018AE0289F900111243E
:102F90002417350718F041C09F3F19F09F5F9093A9
:102FA0006702002361F00E947A15101614F09FEF5B
:102FB00001C091E0989F902D112490936E021123EF
:102FC00061F00E947A15111614F09FEF01C091E094
:102FD000989F902D112490936F0230916E023323AD
:102FE000E1F020916F022223C1F045EB3403C001D0
:102FF0001124992319F090936E0203C081E080930D
:103000006E0235EB2303C0011124992319F090932C
:103010006F0203C081E080936F0280916C02811186
:103020000BC080916D02811107C080916E028111E9
:1030300003C080916F0281110E948516EB82FC8291
:103040000D831E8386E0FE013196AAE6B2E0019070
:103050000D928A95E1F726960FB6F894DEBF0FBE63
:10306000CDBFDF91CF911F910F91FF90EF90089509
:10307000EAE6F2E086E0DF011D928A95E9F7109218
:10308000680210926702109269020895CF93DF934D
:10309000EC01FB018281882309F426C1C430FDE5DF
:1030A000DF0760F4CB3F9CE5D90768F49E0122500E
:1030B0003C452431310508F018C105C0C236EDE5A4
:1030C000DE0709F012C10E94500F9093A80280936E
:1030D000A702C031FCE5DF0709F4CAC008F041C00F
:1030E000C8309CE5D90709F4A4C0F0F4C430FCE56D
:1030F000DF0709F48CC068F4C2309CE5D90709F4F5
:1031000082C0C330DC4509F0E5C08091A70282602F
:10311000DFC0C630FCE5DF0709F483C008F085C0D6
:103120008091A7028860D4C0CC309CE5D90709F40F
:1031300090C068F4CA30FCE5DF0709F47EC008F0EF
:1031400084C00E9467088091A7028068C1C0CE3009
:103150009CE5D90709F481C008F086C08091A702D8
:1031600094C0CD3FFCE5DF0709F47BC038F5C431DE
:103170009CE5D90709F49AC058F4C231FCE5DF0791
:1031800009F47AC008F07EC08091A7028F7BA0C0AE
:10319000CB3F9CE5D907F1F108F03FC0C531DC45D4
:1031A00009F098C08091A70282FB222720F991E0C4
:1031B000922790FB82F990FB83F98AC0C1308DE59C
:1031C000D80709F467C050F48091A802CF3FECE51E
:1031D000DE07C1F108F05BC08D7F65C0C3308DE5AF
:1031E000D80709F471C008F46DC0C236DD4509F096
:1031F00071C08091A70284FB222720F991E09227D9
:1032000090FB84F965C08091A702816061C08091C4
:10321000A70216C08091A80216C08091A802826001
:1032200042C08091A702806153C08091A702806252
:103230004FC08091A70280644BC08091A702886034
:10324000846046C0826081602EC08091A7028E7F1C
:103250003FC08091A7028D7F3BC08091A702877FEE
:1032600037C08091A80214C08091A7028F7E30C021
:103270008091A7028F7D2CC00E9467088091A702D1
:103280008F7726C08091A702877F8B7F21C08D7F9B
:103290008E7F09C08091A802982F909591708E7FA3
:1032A000892B90FB81F98093A80214C00E946708C3
:1032B0008091A70287FB222720F991E0922790FBBB
:1032C00087F906C081E001C080E00E94E70F02C0DC
:1032D0008093A7028091A7029091A8020E94610F9B
:1032E0000E94670880E001C081E0DF91CF910895DE
:1032F00081E008952198299A2098289A83B186958B
:103300008170189902C090E001C092E0892B8093EF
:1033100072020895E0917202EE0FEE0FE0937202D6
:1033200023B121FB882780F990E0189903C020E0A1
:1033300030E002C022E030E0822B932B8E2B809372
:1033400072028F70E82FF0E0E157FE4F908180917C
:103350007102890F8093710282305CF0809170025B
:103360008F5F8093700260E080E00E947F0321E025
:1033700001C020E0809171028F3F54F4809170026F
:1033800081508093700261E080E00E947F0321E021
:1033900080917102082E000C990B62E070E00E948F
:1033A000FF2480937102822F0895CF93DF9386319B
:1033B0009C4541F5EB010E94400E982F8A81209197
:1033C000020130910301882379F09A7A81E009F4AF
:1033D00080E080937302911102C069E201C065E34D
:1033E000C9010E94281C0AC080917302811102C089
:1033F00069E201C065E3C9010E94331C0E94920E7C
:1034000080E001C081E0DF91CF9108950F931F9379
:10341000CF93DF93C42FD22FFC0182818823C9F080
:10342000409376020E94E41C90937502809374028C
:1034300080E28C0F883008F057C0C77081E001C06F
:10344000880FCA95EAF7DF91CF911F910F910C94E5
:10345000B90580917602481330C080917402909132
:1034600075020E94FC1C883C910538F510E21D0F86
:10347000CD17B9F080E28C0F883040F4C77081E03E
:1034800001C0880FCA95EAF70E94C005183028F5D8
:1034900081E09D2F977001C0880F9A95EAF70E94EE
:1034A000B905802F0E94B0051830F0F4D77081E084
:1034B00001C0880FDA95EAF70AC080E28C0F8830E5
:1034C00098F4C77081E001C0880FCA95EAF7DF91D0
:1034D000CF911F910F910C94C005802FDF91CF9158
:1034E0001F910F910C94B005DF91CF911F910F9117
:1034F00008950F939C01CB01243F4CE5340731F133
:1035000088F4293DFCE53F07D9F02A3D4CE5340716
:1035100079F1283D3C45A9F506E221EE41EE68ED42
:103520007CE52BC0263FFCE53F07E1F0A8F0273FF4
:103530003C4539F507E225EE46EE67EF7CE51DC018
:1035400007E225EE45EE69ED7CE517C006E221EEC7
:1035500040EE64EF7CE511C007E225EE44EE65EF36
:103560007CE50BC006E221EE42EE66EF7CE505C08D
:1035700008E221E045EE6AED7CE50E94061A80E053
:1035800008C0FC018281882319F01092760201C0E4
:1035900081E00F9108959093AF018093AE0108955B
:1035A00090937C0280937B020895E0917B02F091DE
:1035B0007C02309721F00190F081E02D099480E0A9
:1035C0000895EF92FF921F93CF93DF93FC01A09198
:1035D0007B02B0917C02109709F442C080911801DF
:1035E000882341F08091A70287FF04C080818183F6
:1035F00086E08083EF011296ED91FC911397CE0146
:10360000099580915F0282FF2BC080FF04C083EF89
:1036100092E00E94DD0218E08DEEE82E82E0F82EA6
:1036200080915F0280FF0BC088811F928F93FF9271
:10363000EF920E9476030F900F900F900F90115011
:1036400021961111EDCF80915F0280FF09C08BEEB2
:1036500092E0DF91CF911F91FF90EF900C94DD02EB
:10366000DF91CF911F91FF90EF900895E0917B0241
:10367000F0917C02309739F022E0DC012C93048039
:10368000F581E02D099408952091790230917A0214
:103690002817390771F090937A0280937902E091AC
:1036A0007B02F0917C02309721F00680F781E02DBB
:1036B00009940895209177023091780228173907EC
:1036C00071F09093780280937702E0917B02F09101
:1036D0007C02309721F00084F185E02D0994089553
:1036E000FC01329680911801882331F08091A70265
:1036F00087FF02C09EE101C096E080E0915028F073
:1037000021912223D9F38F5FF9CF0895662351F1D8
:10371000209118012223E9F02091A70227FF19C068
:10372000462F4695469546954E31E0F4677021E068
:1037300030E002C0220F331F6A95E2F7FC01E40F6C
:10374000F11D828190E02823392381E0232B69F445
:1037500009C0FC01329608962191621729F0E817FA
:10376000F907D1F780E0089581E008959C01FC01FC
:1037700032969FEF80E04191461789F09F3F19F400
:10378000411101C0982F8F5F8630A9F79F3F39F014
:10379000F901E90FF11D97FDFA95628308950895E7
:1037A0009C012A5F3F4FFC014281461301C01282F7
:1037B000019682179307B9F70895262F2695269527
:1037C00026952E3170F4FC01E20FF11D677021E0A7
:1037D00030E001C0220F6A95EAF78281282B22830C
:1037E000089580915F0280FF0CC01F926F9383E267
:1037F00093E09F938F930E9476030F900F900F900A
:103800000F900895262F2695269526952E3178F42B
:10381000FC01E20FF11D677021E030E001C0220FD2
:103820006A95EAF720958281282322830895809162
:103830005F0280FF0CC01F926F9385E093E09F931F
:103840008F930E9476030F900F900F900F90089522
:1038500020911801222329F02091A70227FD0C9422
:10386000DD1B0C94B61B20911801222329F0209116
:10387000A70227FD0C94021C0C94D01B2091180168
:10388000FC013296222331F08091A70287FF02C00B
:103890008EE101C086E0DF011D928A95E9F7089567
:1038A00008950C94501C83E080937D020C94511C6D
:1038B000811102C081E001C082E080937D020C94FE
:1038C000511C0C94581C81E080937D020C94511C77
:1038D0000C94631C08958091C502843031F10E94DC
:1038E000EE0310927E0220E488E190E00FB6F89497
:1038F000A895809360000FBE2093600083B7817FFE
:10390000846083BF83B7816083BF7894889583B7D1
:103910008E7F83BF0FB6F894A89580916000886170
:1039200080936000109260000FBE089508950C947B
:10393000961CCF930E94971C0E9492140E94961C82
:10394000C0E08C2F0E947613892B29F4CF5FC530FD
:10395000C1F780E001C081E0CF9108950E9467081F
:103960000C9476041F920F920FB60F9211248F932E
:103970009F93AF93BF9380917E02811113C080917A
:10398000BD029091BE02A091BF02B091C0024196CB
:10399000A11DB11D8093BD029093BE02A093BF02F2
:1039A000B093C002BF91AF919F918F910F900FBEC6
:1039B0000F901F90189582E084BD93E095BD9AEF1B
:1039C00097BD80936E0008952FB7F8948091BD0243
:1039D0009091BE02A091BF02B091C0022FBF089586
:1039E0002FB7F8946091BD027091BE028091BF0222
:1039F0009091C0022FBF08959C014FB7F894809119
:103A0000BD029091BE02A091BF02B091C0024FBF13
:103A1000821B930B089578941F920F920FB60F920A
:103A200011248F939F93AF93BF938091BD02909188
:103A3000BE02A091BF02B091C0020196A11DB11DAE
:103A40008093BD029093BE02A093BF02B093C002C8
:103A5000BF91AF919F918F910F900FBE0F901F90CC
:103A6000189581E08093E00080E28093D800109266
:103A7000C9008FE19EE40197F1F700C0000087E0E4
:103A800090EBDC018093CE029093CF02A093D00202
:103A9000B093D1029CE088E10FB6F894A89580938A
:103AA00060000FBE90936000FFCF8091A502089543
:103AB000089522E02093E9002FEF3091E800215093
:103AC00035FD06C035ED3A95F1F700002111F5CF2F
:103AD0002091E80025FF0BC040E050E066E070E078
:103AE0000E9456208091E8008E778093E800089528
:103AF000CF93DF9320911801222339F02091A70260
:103B000027FF03C060E222E002C068E021E02093CA
:103B1000E9002FEF3091E800215035FD06C035ED6A
:103B20003A95F1F700002111F5CF2091E80025FF2B
:103B30001DC0EC0180911801811105C040E050E0EA
:103B400068E070E003C070E040E050E0CE010E9409
:103B500056208091E8008E778093E80080E2FE0195
:103B6000A5E8B2E001900D928A95E1F7DF91CF913F
:103B70000895809381027093830260938202809102
:103B8000C502843001F582E08093E9008FEF9091C7
:103B9000E800815095FD06C095ED9A95F1F700007B
:103BA0008111F5CF8091E80085FF0DC040E050E025
:103BB00063E070E081E892E00E9456208091E80086
:103BC0008E778093E8000895BC0184E00C94B91DC1
:103BD000BC0183E00C94B91D85E593E00E94DD02F1
:103BE0008091C402811109C00E94E7210E944422F1
:103BF0008091E20084608093E200089581E593E083
:103C00000E94DD021092C40208958DE493E00E94A8
:103C1000DD020C94681C89E493E00E94DD0260914F
:103C2000C10281E0611101C080E00C94531C85E465
:103C300093E00E94DD029091C50281E0943009F08A
:103C400080E06091C1020C94581C209180022F5F8B
:103C5000822F62E30E94F324992319F020938002BB
:103C600008951092800280918402882371F18091DE
:103C7000C502843041F58091E9008F702091EC00FD
:103C8000922F917020FD90E8892B93E09093E900AA
:103C90009091EB0090FF14C09091EE0097FF10C040
:103CA0009091E80095FF03C01092F100F9CF909138
:103CB000E80090FF05C09091E8009E779093E8009F
:103CC0008F708093E90010928402089542E061ECC5
:103CD00081E00E94602142E261EC82E00E9460216A
:103CE00042E261EC83E00E9460219091C50281E094
:103CF000943009F080E06091C1020C94611C8091C5
:103D0000C702833009F461C030F4813071F0823031
:103D100009F49AC008958A3009F486C08B3009F4FA
:103D20006CC0893009F0A8C020C08091C602813AD9
:103D300009F0A2C08091E800877F8093E80080911D
:103D4000CA029091CB02892B21F460E285E892E0CF
:103D500003C060E080E090E070E00E94A1208091CC
:103D6000E8008B778093E80008958091C602813245
:103D700009F082C08091CA029091CB02029708F0AC
:103D80007BC08091E800877F8093E8008091E80005
:103D900082FD05C08091C5028111F8CF6DC02091D0
:103DA000F3008091F20090E0922B029731F4809121
:103DB000F100813011F0863021F48091F100809380
:103DC000A5028091E8008B7753C08091C602813AAA
:103DD00009F052C08091CA029091CB02892B09F060
:103DE0004BC08091E800877F8093E8008091E800D5
:103DF00080FFFCCF8091180136C08091C6028132CD
:103E0000D9F58091CA029091CB02892BA9F58091B6
:103E1000E800877F8093E8000E9495218091C80286
:103E2000809318010C9467088091C602813221F5B5
:103E30008091E800877F8093E8000E94952180911F
:103E4000C9028093A60208958091C602813AA1F426
:103E50008091E800877F8093E8008091E80080FFF0
:103E6000FCCF8091A6028093F1008091E8008E77CC
:103E70008093E8000C94952108959FB7F8941092D0
:103E800084029FBF9091C502943009F057C0909171
:103E9000E9009F703091EC00232F217030FD20E865
:103EA000922B23E02093E9002091EB0020FF43C0F8
:103EB0002091EE0027FF3FC020917F02222321F0B6
:103EC0002091E80025FF37C010927F0226E0309154
:103ED000E80035FD15C03091C502343061F53091F0
:103EE000EB0035FD28C0215021F481E080937F0252
:103EF00022C0EFE9FFE03197F1F700C00000E7CF03
:103F00008093F1008091E80085FD0AC08091E8006F
:103F100080FFFCCF8091E8008E778093E80006C098
:103F20008FB7F89421E0209384028FBF9F70909305
:103F3000E90080E008959F709093E9008FEF089565
:103F400084B7877F84BF0FB6F894A89580916000EE
:103F5000886180936000109260000FBE90E080E85E
:103F60000FB6F89480936100909361000FBE0C949B
:103F7000631C0E94E7210E944422E2EEF0E080816F
:103F80008460808378940C94D8248CE091E00C9425
:103F9000D01A8091C5028530C9F481E493E00E9473
:103FA000DD028091C502853079F40E946B1C8091FE
:103FB000C3028823B1F30E94991C882391F30E94C5
:103FC00040200E946708EDCF0C94AE1C0895089520
:103FD0000C94EA1F292F332723303105C9F060F4F0
:103FE0002130310581F02230310509F041C08BE5E7
:103FF00090E02BE833E040C021323105E1F022327D
:10400000310531F135C082E190E026EE33E034C075
:1040100099278130910549F028F0029749F5E9E5A3
:10402000F3E005C0E7E8F3E002C0E3E7F3E08491E2
:1040300090E09F0121C063307105D0F4660F771FB7
:10404000FB01E855FE4F2081318189E090E014C0EA
:104050006330710568F4FB01EE0FFF1FEE55FE4F54
:1040600020813181FB01E156FE4F808190E004C048
:1040700080E090E020E030E0FA0131832083089571
:1040800080E189BD82E189BD09B400FEFDCF809148
:10409000D8008F7D8093D8008091E000826080936B
:1040A000E0008091E00081FDFCCF0895CF92DF9287
:1040B000EF92FF920F931F93CF93DF93EC018B014D
:1040C0007A010E94B421811133C0E114F10439F066
:1040D000F70180819181081B190BC80FD91FC12CD2
:1040E000D12C0115110519F18091E80085FD16C04C
:1040F0008091E8008E778093E800E114F10449F0A4
:10410000F70180819181C80ED91ED182C08285E0DD
:104110000FC00E94B421882321F30AC089918093A3
:10412000F10001501109FFEFCF1ADF0ADACF80E06A
:10413000DF91CF911F910F91FF90EF90DF90CF9083
:1041400008952091CC023091CD022617370748F010
:104150006115710539F42091E8002E772093E8006D
:1041600001C0B901FC0120E06115710579F1809170
:10417000C5028823F1F18530F1F18091E80083FDDB
:104180003CC08091E80082FD2EC08091E80080FF55
:10419000EBCF2091F3008091F20090E0922B61151B
:1041A000710551F08830910538F421912093F10088
:1041B000615071090196F3CF21E0089709F020E0E2
:1041C0008091E8008E778093E800CECF2111CFCF89
:1041D0000AC08091C502882361F0853061F080912A
:1041E000E80083FD0AC08091E80082FFF2CF80E002
:1041F000089582E0089583E0089581E00895209174
:10420000CC023091CD022617370748F061157105B1
:1042100039F42091E8002E772093E80001C0B9011D
:10422000FC0120E06115710591F18091C5028823A0
:1042300009F440C0853009F43FC08091E80083FD57
:104240003DC08091E80082FD2FC08091E80080FF92
:10425000E9CF2091F3008091F20090E0922B61155C
:10426000710559F08830910540F424912093F100B4
:104270003196615071090196F2CF21E0089709F05B
:1042800020E08091E8008E778093E800CBCF211169
:10429000CCCF0AC08091C502882361F0853061F0DF
:1042A0008091E80083FD0AC08091E80082FFF2CF90
:1042B00080E0089582E0089583E0089581E0089504
:1042C000982F973068F59093E900981739F070911E
:1042D000EC002091ED005091F00003C0242F762FC8
:1042E00050E021FD02C09F5FECCF3091EB003E7F9C
:1042F0003093EB003091ED003D7F3093ED00309135
:10430000EB0031603093EB007093EC002093ED00F4
:104310005093F0002091EE0027FDE5CF80E0089556
:104320008F708093E90081E008958091C60287FF35
:1043300011C08091E80082FD05C08091C502811105
:10434000F8CF11C08091E8008B770BC08091C50237
:10435000882349F08091E80080FFF8CF8091E80041
:104360008E778093E80008952091E4003091E50075
:1043700095E64091EC00842F817040FF23C080912E
:10438000E80080FD1DC08091C502882399F085302A
:1043900099F08091EB0085FD11C04091E4005091AF
:1043A000E5002417350729F3915011F09A01E1CF68
:1043B00084E0089582E0089583E0089581E00895FF
:1043C00080E008954091E80042FFDDCF08950E940B
:1043D00055220E945D22E0EEF0E0808181608083C2
:1043E000E8EDF0E080818F77808319BCA7EDB0E025
:1043F0008C918E7F8C9380818F7E80831092C402FB
:1044000008950F931F93CF93DF930E9455220E942C
:104410005D22C8EDD0E088818F77888388818068AD
:10442000888388818F7D888319BC1092C502109281
:10443000C1021092C3021092C20200EE10E0F80115
:1044400080818B7F808388818160888342E060E007
:1044500080E00E946021E1EEF0E080818E7F808329
:10446000E2EEF0E0808181608083808188608083DB
:10447000F80180818E7F8083888180618883DF91CD
:10448000CF911F910F910895E8EDF0E080818F7E2C
:104490008083E7EDF0E080818160808384E082BFEB
:1044A00081E08093C4020C940122E8EDF0E0808169
:1044B0008E7F80831092E20008951092DA001092AD
:1044C000E10008951F920F920FB60F9211242F93BF
:1044D0003F934F935F936F937F938F939F93AF938C
:1044E000BF93EF93FF938091E10082FF0BC0809117
:1044F000E20082FF07C08091E1008B7F8093E100A2
:104500000E94251E8091DA0080FF1FC08091D80094
:1045100080FF1BC08091DA008E7F8093DA0080914B
:10452000D90080FF0DC080E189BD82E189BD09B459
:1045300000FEFDCF81E08093C5020E94EC1D05C006
:1045400019BC1092C5020E94FE1D8091E10080FFFF
:1045500019C08091E20080FF15C08091E2008E7F3B
:104560008093E2008091E20080618093E20080917C
:10457000D80080628093D80019BC85E08093C50282
:104580000E940B1E8091E10084FF30C08091E20008
:1045900084FF2CC080E189BD82E189BD09B400FEA1
:1045A000FDCF8091D8008F7D8093D8008091E1006D
:1045B0008F7E8093E1008091E2008F7E8093E20005
:1045C0008091E20081608093E2008091C1028823A3
:1045D00011F084E007C08091E30087FD02C081E014
:1045E00001C083E08093C5020E94171E8091E10004
:1045F00083FF29C08091E20083FF25C08091E10004
:10460000877F8093E10082E08093C5021092C1020F
:104610008091E1008E7F8093E1008091E2008E7FA7
:104620008093E2008091E20080618093E20042E0AA
:1046300060E080E00E9460218091F00088608093BB
:10464000F0000E94051EFF91EF91BF91AF919F91E5
:104650008F917F916F915F914F913F912F910F902B
:104660000FBE0F901F9018951F920F920FB60F92CA
:1046700011242F933F934F935F936F937F938F9367
:104680009F93AF93BF93CF93DF93EF93FF93C0912B
:10469000E900CF708091EC00D82FD17080FDD0E878
:1046A0001092E9008091F000877F8093F000789469
:1046B0000E9478231092E9008091F0008860809336
:1046C000F000CD2BCF70C093E900FF91EF91DF9107
:1046D000CF91BF91AF919F918F917F916F915F919A
:1046E0004F913F912F910F900FBE0F901F901895F3
:1046F0001F93CF93DF93CDB7DEB7AA970FB6F89489
:10470000DEBF0FBECDBFE6ECF2E08091F1008193F9
:1047100022E0EE3CF207C9F70E947F1E8091E8007C
:1047200083FF2EC18091C6029091C702492F50E0AD
:104730004A30510508F024C1FA01EC58FF4F0C949F
:104740001325803821F0823809F01AC108C0809101
:10475000C2029091C302992389F082600FC08091B8
:10476000CA028F70873008F00BC18093E9008091F6
:10477000EB0085FB882780F91092E9009091E80012
:10478000977F9093E8008093F1001092F100D1C0E0
:10479000282F2D7F09F0F4C0882319F0823061F0B2
:1047A000EFC08091C802813009F0EAC0933009F06F
:1047B00080E08093C3022EC08091C80281112AC07C
:1047C0008091CA028F702FEF280F263008F0D8C0D2
:1047D0008093E9002091EB0020FF1CC0933021F46E
:1047E0008091EB00806214C09091EB0090619093F7
:1047F000EB0021E030E0A90102C0440F551F8A956B
:10480000E2F74093EA001092EA008091EB008860A2
:104810008093EB001092E9008091E800877F8093FD
:10482000E8000E949521ACC08111AAC01091C80275
:104830001F778091E3008078812B8093E300809143
:10484000E800877F8093E8000E9495218091E8002E
:1048500080FFFCCF8091E30080688093E30011111A
:1048600002C082E001C083E08093C50289C0805805
:10487000823008F085C08091C8029091C9028C3DB9
:1048800053E0950779F583E08A838AE289834FB7FD
:10489000F894DE01139620E03EE051E2E32FF0E0D1
:1048A00050935700E49120FF03C0E295EF703F5F03
:1048B000EF708E2F90E0EA3010F0C79601C0C096DE
:1048C0008D939D932F5F243149F74FBF8091E8006E
:1048D000877F8093E8006AE270E0CE0101960E9433
:1048E000A12016C06091CA027091CB02AE014F5F49
:1048F0005F4F0E94E81FBC01892B09F441C09091D1
:10490000E800977F9093E80089819A810E94FF20B8
:104910008091E8008B778093E80032C0803881F581
:104920008091E800877F8093E8008091C1028093A6
:10493000F1008091E8008E7772CF811121C08091C3
:10494000C8029091C90299270297D4F48091E80097
:10495000877F8093E8008091C8028093C1020E9403
:1049600095218091C102811106C08091E30087FDED
:1049700002C081E001C084E08093C5020E94661EEF
:104980008091E80083FF0AC08091E800877F8093D0
:10499000E8008091EB0080628093EB00AA960FB64E
:1049A000F894DEBF0FBECDBFDF91CF911F91089568
:1049B000CF938091C5028823A1F0C091E900CF7008
:1049C0009091EC00892F817090FD80E8C82B1092A7
:1049D000E9008091E80083FD0E947823CF70C093A6
:1049E000E900CF910895991B79E004C0991F9617AB
:1049F00008F0961B881F7A95C9F78095089597FB54
:104A0000072E16F4009407D077FD09D00E941925CF
:104A100007FC05D03EF4909581959F4F08957095C1
:104A200061957F4F0895EE0FFF1F0590F491E02DE3
:104A30000994AA1BBB1B51E107C0AA1FBB1FA617E5
:104A4000B70710F0A61BB70B881F991F5A95A9F737
:104A500080959095BC01CD010895FB01DC0104C057
:104A60008D910190801921F441505040C8F7881B66
:104A7000990B0895F999FECF92BD81BDF89A9927B7
:104A800080B50895A8E1B0E042E050E00C946E25B6
:104A9000262FF999FECF92BD81BDF89A019700B4F7
:104AA000021639F01FBA20BD0FB6F894FA9AF99A97
:104AB0000FBE08950396272F0E9449250E9448257E
:104AC000252F0E944925242F0C9449250196272F34
:104AD0000E9449250C944825DC01CB01FC01F99981
:104AE000FECF06C0F2BDE1BDF89A319600B40D923A
:0C4AF00041505040B8F70895F894FFCFF3
:104AFC00C80025022808641E140A321E551D781D94
:104B0C00591DE81DE41D581D01E200E900EA00B53D
:104B1C0000B600B700CD008301CC008A019201944D
:104B2C00012102230224022502260227022A02B3B3
:104B3C0000B4006F007000818283E200E900EA009B
:104B4C00B500B600B700CD008301CC008A019201FC
:104B5C0094012102230224022502260227022A02A2
:104B6C00B300B4006F0070008182836793929190C0
:104B7C0037333266363534979694F0C695F1F40097
:104B8C00FF0100010000FFFF0000010001FF0040D9
:0E4B9C00B622D0041A04F8039D03B603CF031B
:00000001FF
