:100000000C9432020C9479020C9479020C947902CB
:100010000C9479020C9479020C9479020C94790274
:100020000C9479020C9479020C94CA240C949C25AB
:100030000C9403200C9479020C9479020C947902AC
:100040000C9479020C9479020C9479020C94790244
:100050000C9479020C945C200C9479020C94790233
:100060000C9479020C9479020C9479020C94790224
:100070000C9479020C9479020C9479020C94790214
:100080000C9479020C9479020C9479020C94790204
:100090000C9479020C9479020C9479020C947902F4
:1000A0000C9479020C9479020C9479023605360589
:1000B00068056805B505D305F406F406DE05730684
:1000C00084068406E406F406F406ED069407940715
:1000D000A607A6079D07A607A607A60794079407E5
:1000E000A207A607A607A20709263026282730263A
:1000F00028277C269F262827F62605277C004600F1
:100100007D002800A800000000047F3F1F64321417
:10011000643214783C1E1E140A0522232526282941
:100120002A2C2D2F3032333536383A3B3D3E404273
:10013000434547494A4C4E5051535557595A5C5EB6
:100140006062646668696B6D6F71737577797B7DCA
:100150007F81838587898A8C8E90929496989A9CC9
:100160009E9FA1A3A5A7A8AAACAEAFB1B3B4B6B8E1
:10017000B9BBBCBEBFC1C2C3C5C6C7C9CACBCCCD43
:10018000CED0D1D2D2D3D4D5D6D7D7D8D9D9DADA1E
:10019000DBDBDBDCDCDCDCDCDDDDDDDDDCDCDCDC9E
:1001A000DCDBDBDBDADAD9D9D8D7D7D6D5D4D3D2D2
:1001B000D2D1D0CECDCCCBCAC9C7C6C5C3C2C1BFB0
:1001C000BEBCBBB9B8B6B4B3B1AFAEACAAA8A7A514
:1001D000A3A19F9E9C9A98969492908E8C8A8987D0
:1001E0008583817F7D7B79777573716F6D6B6968AE
:1001F000666462605E5C5A5957555351504E4C4A82
:100200004947454342403E3D3B3A3836353332302C
:100210002F2D2C2A292826252322FFAA7F5540008E
:1002200001010101010101010102020202020202B7
:10023000020203030303030303030404040404048A
:100240000405050505050606060606070707070750
:1002500008080808090909090A0A0A0B0B0B0C0C03
:100260000C0D0D0D0E0E0E0F0F0F1010111111129F
:100270001213131414151516161717181819191A1E
:100280001A1B1B1C1D1D1E1E1F2020212222232481
:1002900024252626272829292A2B2C2D2D2E2F30C0
:1002A000313232333435363738393A3B3C3D3E3FD4
:1002B000404142434445464748494A4C4D4E4F50C1
:1002C000515354555658595A5B5D5E5F616264657F
:1002D0006668696B6C6D6F7072737577787A7B7D09
:1002E0007E8082838587888A8C8E8F91939596985D
:1002F0009A9C9EA0A2A3A5A7A9ABADAFB1B3B5B779
:10030000BABCBEC0C2C4C6C9CBCDCFD1D4D6D8DB4F
:10031000DDDFE2E4E7E9EBEEF0F3F5F8FAFDFF22CA
:10032000034C00750064006D0069006C00610020E2
:10033000004D006100630072006F00700061006496
:1003400000000012034B006500760069006E00207B
:10035000004D002E0000000403090409023B0002C6
:100360000100A0FA090400000103010100092111A4
:100370000100012240000705810308000A09040169
:10038000000103000000092111010001227B000788
:1003900005820320000A1201000200000008CC6957
:1003A000F66B01000102000105010902A1018502AD
:1003B0000901A10005091901290815002501950861
:1003C000750181020501093009311581257F9502EA
:1003D0007508810609381581257F95017508810604
:1003E000050C0A38021581257F950175088106C024
:1003F000C005010980A101850319012AB700150173
:1004000026B700950175108100C0050C0901A101F6
:10041000850419012AA002150126A0029501751074
:100420008100C005010906A101050719E029E715AA
:100430000025019508750181029501750881010566
:1004400007190029FF150026FF0095067508810091
:100450000508190129059505750191029501750396
:100460009101C00011241FBECFEFDAE0DEBFCDBF87
:1004700004B603FE27C080918C0290918D02A0915A
:100480008E02B0918F028730904BA740B04BD1F4D1
:1004900010928C0210928D0210928E0210928F0296
:1004A00014BE84B7877F84BF0FB6F894A895809157
:1004B0006000886180936000109260000FBEE0E0F1
:1004C000F8E3099511E0A0E0B1E0E8E6F0E502C04C
:1004D00005900D92A23CB107D9F722E0A2ECB1E061
:1004E00001C01D92AC38B207E1F70E9491120C9442
:1004F00032280C940000CF93DF9387988F98A8E25E
:10050000B1E04BE251E061E070E08D91E82FE295BF
:10051000EF70F0E021A18F70EB0102C0CC0FDD1F66
:100520008A95E2F7CE019C2F9095922391A392A1F8
:10053000892B82A34A175B0741F784988C9A81988C
:10054000899ADF91CF910895AF92BF92CF92DF92B7
:10055000EF92FF920F931F93CF93DF93C8E2D1E006
:10056000A4E6B2E067E672E0B12C01E010E07D01A4
:10057000AC901C929991E92FE295EF70F0E081A187
:100580009F70980101C0220F9A95EAF7822B81A3F0
:1005900082A1922F9095892382A380EA8A95F1F710
:1005A0008FB184FB442740F950E06A0181E0C826FE
:1005B0008C2D8170CC90D82EDC28DC92799902C0E9
:1005C00082E001C080E08D298D9381A1982391A3C1
:1005D00082A1282B22A381E0F70190819A1101C00A
:1005E00080E0B82A6A177B0711F6309169021092F1
:1005F00069029091C401292F220F2093C4019FB159
:10060000991F9927991F922B9093C40121E09F3F36
:1006100009F020E02093690281E0321301C080E0FC
:100620008B29DF91CF911F910F91FF90EF90DF9079
:10063000CF90BF90AF900895811107C0662311F04D
:1006400089EA01C08AEA0E94EC0481E0089581E011
:10065000089581E008950C94290308950C942D03C6
:100660001F93CF93DF9300D000D01F92CDB7DEB79A
:1006700049835A836B833091C50189819A813111F5
:1006800014C0662359F0222349F00E943409182F20
:10069000682F89819A810E94E10803C00E940A099B
:1006A000182F69817A81812F04C00E9434096981E1
:1006B0007A810F900F900F900F900F90DF91CF9154
:1006C0001F910C94CF0FFC01262F40815181628134
:1006D000738184810C94300381E00895CF93DF937C
:1006E000EC0160E00E946303BE01DF91CF910C94A6
:1006F0002E030E94FF110E94F1030C9431120C94FE
:100700002D1208950E9482070E9481032FEF84E337
:100710009CE0215080409040E1F700C000000C9424
:1007200082200F931F93CF93DF938C0161E00E948F
:100730006303EC01B8010E942B03882309F444C031
:10074000B801CE010E94581D8823F1F1B801CE01F5
:100750000E94AA1D8823C1F1B801CE010E94D51EB6
:10076000882391F1B801CE010E948E1B882361F18C
:10077000F8018281882309F1CB358DE5D807C1F0D6
:1007800050F4C115FCE5DF0781F0CF3DDC45A9F44D
:100790000E94CF0E19C0CC35EDE5DE0761F0CD35F6
:1007A000DD4559F40E94530D08C00E9482030CC01D
:1007B0000E945C0D02C00E945F0DC801DF91CF91C5
:1007C0001F910F910C94270380E0DF91CF911F912F
:1007D0000F91089508950C94EA0381E008950C9414
:1007E000ED030895CF93C82F0E94EB038C2F0E9436
:1007F000EF03CF910895CF93DF93CDB7DEB72B975B
:100800000FB6F894DEBF0FBECDBF4F835887698700
:100810007A878B8761110E94820D9E012F5F3F4F67
:1008200086E0F90111928A95E9F785E0FE01379695
:10083000D90101900D928A95E1F789819A814C81C5
:100840005D81452B31F09F3F31F491E08F3F19F4EA
:1008500003C091E001C090E090FF09C049815A8136
:100860006B817C818D819E810E94820C05C0C901B3
:100870000E946C038111F2CF2B960FB6F894DEBF65
:100880000FBECDBFDF91CF910895FC018081918192
:100890000E9476090895CF93882309F450C0C82F89
:1008A0008CEF8C0F813AD0F46C2F809100019091E5
:1008B00001010E94681F882349F06C2F809100017C
:1008C000909101010E94A01F0E94B40D6C2F809195
:1008D0000001909101010E949E1F0CC080E28C0FCC
:1008E000883058F4C77081E001C0880FCA95EAF7D4
:1008F0000E94650DCF910C94B40DEBE5EC0FE33045
:1009000040F4F0E0E75AFE4F808190E0CF910C94E4
:10091000301FE8E5EC0FE73150F4F0E0EE0FFF1F79
:10092000E55DFE4F80819181CF910C94461FCD3EB5
:1009300030F08C2F0E941E13CF910C94F013CF91A6
:100940000895882389F19CEF980F913A40F4682F1D
:1009500080910001909101010E94A01F0DC090E2C2
:10096000980F983058F4877091E001C0990F8A95DC
:10097000EAF7892F0E946B0D0C94B40D9BE5980F3C
:10098000933020F480E090E00C94301F98E5980FAD
:10099000973120F480E090E00C94461F8D3E20F0CB
:1009A0000E9479130C94F01308951F93CF93DF9353
:1009B000182FEB010E944B04209741F08FE99FE034
:1009C0000197F1F700C000002197F6CF812FDF914A
:1009D000CF911F910C94A104893319F060E070E06D
:1009E00002C060E570E00C94D504882321F00E94D9
:1009F000650D0C94B40D0895882321F00E946B0DB1
:100A00000C94B40D0895CF92DF92EF92FF920F9362
:100A10001F93CF93DF937C01062FC72FFC01D28158
:100A2000158112951F700E943A0D882399F0DD23DD
:100A300089F08C2F807F803421F080E2800F883015
:100A400048F082E00E94040E0E943A0D91E0D82EF8
:100A5000D92601C0D12CCC2EC2948FE0C8228C2D77
:100A600090E0FC01EA5AFF4F0C94A6278C2F807F60
:100A7000CF70882311F0C295C07FDD2399F0CC237D
:100A800009F48DC180E2800F883010F0011104C09C
:100A90008C2F0E94650D03C08C2F0E94750D0E9443
:100AA000B40D7DC1802F0E94A104CC2309F49CC108
:100AB00080E2800F883010F0011104C08C2F0E945A
:100AC0006B0D03C08C2F0E947B0D0E94B40D8CC156
:100AD0008C2F807FCF70803211F0C295C07F0023B1
:100AE00019F00130C9F022C0DD2371F0112341F06B
:100AF000113031F40E94950D8C2B0E949D0D74C114
:100B00000E94950D8C2B1DC0112319F0113009F492
:100B10006BC10E94AA0D25C0DD2321F0163008F01C
:100B200063C10EC0153008F05FC11BC0DD2361F04A
:100B3000112331F0F701858180FF31C18F708583EA
:100B40008C2F0E94F50450C1112359F0093309F08C
:100B500037C1FFEF27EE83E0F15020408040E1F7FE
:100B60002DC18C2F0E94FC043FC18C2F8695869549
:100B7000837019F0813061F037C1DD2321F0802FBF
:100B80009C2F937002C080E090E00E94301F34C11F
:100B9000DD2321F0802F9C2F937002C080E090E035
:100BA0000E94461F29C1802FDD2319F00E941E13C9
:100BB00002C00E9479130E94F0131EC18C2F837013
:100BC00009F045C0D11114C1402F42954695477098
:100BD000440F440F602F6F70862F90E0A0E0B0E0CC
:100BE000042E04C0880F991FAA1FBB1F0A94D2F7B6
:100BF00004FF10C00FE010E020E030E004C0000F60
:100C0000111F221F331F4A95D2F70095109520958A
:100C1000309503C000E010E09801C695C695C370FA
:100C2000BC01CD01602B712B822B932BC23049F07C
:100C300058F4C13019F00E94F707DAC00E94E507A6
:100C4000D7C00E940908D4C00E94E307D1C0DD23A9
:100C500019F08C2F817001C08695882309F4C8C0D3
:100C6000402F429546954770440F440F602F6F7098
:100C7000862F90E0A0E0B0E0042E04C0880F991FFA
:100C8000AA1FBB1F0A94D2F704FF10C00FE010E0A8
:100C900020E030E004C0000F111F221F331F4A95CF
:100CA000D2F7009510952095309503C000E010E034
:100CB0009801C695C695C370BC01CD01602B712B00
:100CC000822B932BC23049F058F4C13019F00E94A6
:100CD000BC088EC00E94AA088BC00E94CE0888C0A3
:100CE0000E941D0885C0CF70DD2339F08C2F0E9433
:100CF0004308802F0E94F5047BC0802F0E94FC04D3
:100D00008C2F0E94640874C0023F01F128F4003F58
:100D100041F0013FA1F03FC0033FF9F0043F39F13A
:100D20003AC0DD2341F0153008F05EC08C2F8F7182
:100D30000E94890859C0163008F056C0F7CFDD234D
:100D400039F08C2F8F710E9443084EC0DD23C9F308
:100D50008C2F8F710E94640847C0DD2329F08C2FEF
:100D60008F710E942E0840C00E9429083DC0DD23DB
:100D700049F0CF718C2F0E94430863E08C2F0E94B2
:100D8000E90D32C081E00E94040E123068F182E069
:100D90000E94040E29C0DD2331F0112391F2802F2F
:100DA0000E944B0421C0112399F2093349F49FEFAB
:100DB000E7EEF3E09150E040F040E1F700C00000C2
:100DC000802F0E94A10410C04C2F4F70602FC701CC
:100DD0000E94CB0F0E94A4090FC04C2F4F70602FB0
:100DE000C7010E94CE0F08C088EF8C0D843020F41C
:100DF0000E940B1F0E94F203DD20C9F00E94360DF5
:100E000080FD15C0F70112820E94300D0E94430838
:100E1000C7010E9438070E94300DDF91CF911F91CA
:100E20000F91FF90EF90DF90CF900C946408DF91CA
:100E3000CF911F910F91FF90EF90DF90CF90089589
:100E40000F931F93CF93DF93EC01688179818A819F
:100E50000E9481098C010E94E0080E94D107B8011C
:100E6000CE010E940305DF91CF911F910F9108954C
:100E7000CF93DF93EC01988189812B813C81232BD7
:100E800031F08F3F31F481E09F3F19F403C081E0DE
:100E900001C080E080FD19C0CE010E949103811144
:100EA0000CC00E943A0D882381F08A81882369F062
:100EB00082E0DF91CF910C94040ECE010E942007B6
:100EC000CE01DF91CF910C946E03DF91CF91089505
:100ED00080E090E00E94301F80E090E00E94461F7A
:100EE0000E94820D0E94920D0E94B40D0E94211555
:100EF0000C94F01380910001909101010E94A21FB7
:100F00000C9468070E94720D0C947A07E92FE29501
:100F1000EF704E2F50E0FA013297EE30F105B0F449
:100F2000EA59FF4F0C94A627803F91F018F4883EB1
:100F300068F40EC0843F51F40BC0883E48F0813FF6
:100F400029F406C093FB882780F9089580E008956E
:100F500081E00895FC01808191810E9476090E94C0
:100F600086070895CF93DF9300D000D01F92CDB7AE
:100F7000DEB70F900F900F900F900F90DF91CF91F1
:100F80000895CF93DF9300D000D000D0CDB7DEB767
:100F900026960FB6F894DEBF0FBECDBFDF91CF917E
:100FA0000895089508950C94D2070C94D3070E94D5
:100FB000D5076093CF017093D0018093D1019093B6
:100FC000D2010C9468070C94D7070F931F930091DC
:100FD000CF011091D0012091D1013091D201602B2D
:100FE000712B822B932B1F910F910C94D7070F938A
:100FF0001F930091CF011091D0012091D101309128
:10100000D20160237123822393231F910F910C94AB
:10101000D7070F931F930091CF011091D00120911A
:10102000D1013091D20160277127822793271F9128
:101030000F910C94D7070C94D2070E941B08609361
:10104000CB017093CC018093CD019093CE010C9491
:10105000680760E070E0CB010C941D080F931F93AC
:1010600041E050E060E070E08A019B0104C0000FA5
:10107000111F221F331F8A95D2F7C901B8011F9192
:101080000F910C941D080F931F9341E050E060E016
:1010900070E004C0440F551F661F771F8A95D2F772
:1010A0008091CB019091CC01A091CD01B091CE0166
:1010B0008A019B01082B192B2A2B3B2BC901B80154
:1010C0001F910F910C941D080F931F9341E050E066
:1010D00060E070E004C0440F551F661F771F8A95BB
:1010E000D2F740955095609570958091CB01909185
:1010F000CC01A091CD01B091CE018A019B010823C2
:1011000019232A233B23C901B8011F910F910C9485
:101110001D080F931F9341E050E060E070E004C0B1
:10112000440F551F661F771F8A95D2F78091CB0118
:101130009091CC01A091CD01B091CE018A019B018B
:10114000082719272A273B27C901B8011F910F91AA
:101150000C941D080F931F930091CB011091CC01AB
:101160002091CD013091CE01602B712B822B932BDE
:101170001F910F910C941D080F931F930091CB01A9
:101180001091CC012091CD013091CE0160237123CB
:10119000822393231F910F910C941D080F931F938B
:1011A0000091CB011091CC012091CD013091CE0165
:1011B00060277127822793271F910F910C941D0898
:1011C0000895990F890FE82FE695E695E6958770C3
:1011D00051E001C0550F8A95EAF785E0E89FF001DC
:1011E0001124EA53FE4F20E030E070E04081CB0153
:1011F000022E02C0969587950A94E2F78170819538
:1012000084278523842781932F5F3F4F2530310525
:1012100069F70895990F890F682F66956695669509
:10122000982F977085E0689FB001112440E050E04E
:1012300080E0FB01E40FF51FEA53FE4F208130E010
:10124000092E02C0369527950A94E2F721703327BC
:10125000042E01C0220F0A94EAF7822B4F5F5F4FE2
:101260004530510531F70895BF92CF92DF92EF924A
:10127000FF920F931F93CF93DF938C01C090CB010C
:10128000D090CC01E090CD01F090CE018091CF01C3
:101290009091D001A091D101B091D201C82AD92A50
:1012A000EA2AFB2ACFE1D0E0D701C6010C2E04C008
:1012B000B695A795979587950A94D2F780FD04C0B7
:1012C000219790F7B12C07C0BC2EB8018C2F0E943B
:1012D00006110197A9F38B2DDF91CF911F910F91EB
:1012E000FF90EF90DF90CF90BF900895CF93DF9362
:1012F000EC010E943409BE010E940611DF91CF91DA
:1013000008951F93CF93DF93EB019091C50199232B
:1013100021F0CB010E94760913C0882349F0CB014C
:101320000E943409182F682FCE010E94E10804C0E2
:10133000CB010E940A09182FBE01812F0E940611BD
:10134000DF91CF911F910895EF92FF920F931F931A
:10135000CF93DF938C01892B09F46CC0F12CEE2420
:10136000E394E8012196F8018491843740F48430B5
:1013700008F051C0813081F0823019F15BC08537AF
:1013800009F444C0A8F19CE7980F903708F052C0C8
:101390008F770E94A10441C00E5F1F4FFE01849110
:1013A00090E2980F983050F48770FE2D01C0FF0F27
:1013B0008A95EAF78F2F0E94850D14C00E944B0476
:1013C0002DC00E5F1F4FFE01849190E2980F983060
:1013D00060F48770FE2D01C0FF0F8A95EAF78F2F0A
:1013E0000E948B0D0E94B40D19C00E94A10416C06A
:1013F0000E5F1F4FFE01C491CC2381F08FE99FE067
:101400000197F1F700C00000C150F6CF0E5F1F4FEB
:10141000FE01F49003C00E944B048E018F2D88239F
:1014200009F49FCFEFE9FFE03197F1F700C000002A
:101430008150F5CFDF91CF911F910F91FF90EF90E9
:1014400008951F93CF93DF93C091D30116E080914D
:10145000D401C81799F0D0E01C9FF0011D9FF00D3A
:101460001124EB52FE4F408151816281738184814E
:1014700095810E94C1072196C770E9CFDF91CF9176
:101480001F91089540910502509106026091070254
:10149000709108028091090290910A020C94C10790
:1014A0000F931F93CF93DF9380910A0282958F70E1
:1014B00009F05DC080910702882309F458C080912B
:1014C000D3011091D4016091050270910602C09180
:1014D0000802D091090291E06F3F09F090E0292FB6
:1014E00006E0811709F443C0209721F07F3F21F0E7
:1014F00030E003C031E001C0322F90E030FD34C055
:10150000089FF001099FF00D1124DF01AB52BE4F7F
:1015100011963C911197371327C03C91361324C084
:1015200012963C91129731111FC013964D915C9108
:1015300014974C1B5D0B483C5105B0F480910A0296
:101540008F70806180930A02E652FE4F80818F7017
:101550008061808385E092E00E943807DF91CF911F
:101560001F910F910C94210A01968770BACFDF91D9
:10157000CF911F910F9108959F92AF92BF92CF92FA
:10158000DF92EF92FF920F931F93CF93DF93CDB72C
:10159000DEB761970FB6F894DEBF0FBECDBF8C01EA
:1015A00085E0F801DE011D9601900D928A95E1F724
:1015B000F801E280909105026091060220910802F4
:1015C000309109022115310531F06F3F31F481E08E
:1015D0009F3F19F403C081E001C080E0F82FF17053
:1015E0009F2E80FD3FC1F80140815181A380B480CE
:1015F00085E0C82E82E0D82EF0900702F501E21BAC
:10160000F30BFF2009F4D9C080910A02E83CF105F0
:1016100008F095C0282F207F09F052C0561313C040
:10162000491311C0FE2CE1100EC08F7080618093B1
:101630000A020E94420AC6010E94380780910A02EB
:10164000F80185834CC1AB2831F05F3F31F481E074
:101650004F3F19F403C081E001C080E080FD03C06A
:1016600081E08E2502C080E090E0F82FF170FF2E1F
:1016700080FF1CC08091D3012091D40136E08217F5
:1016800009F40BC190E0389FF001399FF00D11244F
:10169000EB52FE4F6181561306C06081461303C0B2
:1016A0006281E61203C001968770E9CFFE2CEE201E
:1016B00009F415C180910A02816080930A0254C026
:1016C000561306C0491304C0E11002C0F80199C0C6
:1016D000C8010E94AA07882361F1EE2051F12091F0
:1016E0000A02822F82958F7090E0029774F08091A9
:1016F00005029091060298878F831986BB86AA8679
:101700002C87CE0107960E94380786E0F801A5E0F5
:10171000B2E001900D928A95E1F70E94500A0E9472
:10172000420A0AC0561711F1C8010E94AA07811186
:101730002CC0C8010E943807FF24F394D0C0282F82
:10174000207F81F77A2DB98AA88A6E2D89890E9417
:10175000B20785E092E00E94380786E0F601119218
:101760008A95E9F70E94420AF12CB9C04913DCCFEF
:10177000E110DACFF8018583C8010E94380786E0BE
:10178000F60111928A95E9F7AAC0EE2091F2209114
:101790000A02822F82958F7090E002970CF4B5CFE9
:1017A00080910502909106029A8389831B82BD82F3
:1017B000AC822E83CE010196A6CFE83CF10508F05D
:1017C00044C0FE2CEE2009F4B4CF561330C04913A8
:1017D0002EC020910A0220FD21C0822F82958F7099
:1017E000482F50E041155105C9F0F80125834F30CD
:1017F000510541F08F5F982F9295907F822F8F70C7
:10180000892B8583C8010E94380786E0F801A5E08E
:10181000B2E001900D928A95E1F73CC086E0F801B4
:10182000A5E0B2E001900D928A95E1F758C0C80199
:101830000E94AA07811169CF80910A02816080937A
:101840000A02C8010E9438074AC07A2DB98AA88ABC
:101850006E2D89890E94B20786E0F60111928A9561
:10186000E9F718C0EE2009F464CFC8010E94AA0766
:10187000F82E882309F45DCF86E0F801A5E0B2E0F8
:1018800001900D928A95E1F785E092E00E9445046F
:101890000E94500A0E94420A22C04D875E878D85B1
:1018A0009E850E947609292F22952F70223028F4D8
:1018B0009F7039F0811105C00BC0243028F49F704F
:1018C00049F4805E883020F0C8010E9438079F2CC0
:1018D000F92C05C0F8019581907F99F7F9CF8F2DEC
:1018E00061960FB6F894DEBF0FBECDBFDF91CF91EA
:1018F0001F910F91FF90EF90DF90CF90BF90AF902E
:101900009F9008951F93CF93DF93CDB7DEB72C97A9
:101910000FB6F894DEBF0FBECDBF4F8358876987DF
:101920007A878B879C87CE0107960E94BC0A882302
:10193000D1F09F8188852A853B85232B31F08F3F0D
:1019400031F481E09F3F19F403C081E001C080E0E1
:1019500080FD47C04F81588569857A858B859C8538
:101960000E94C1073EC086E0FE013796DE01119657
:1019700001900D928A95E1F7FF81E8856A857B8564
:101980006115710531F0EF3F31F481E0FF3F19F44B
:1019900003C081E001C080E080FD23C02091D4011C
:1019A00030E0C9010196877099274091D30150E03A
:1019B00084179507F1F1F983EA837D836C8396E0C0
:1019C000929FD001939FB00D1124AB52BE4FFE01E8
:1019D000319601900D929A95E1F78093D4010E947F
:1019E000210A16E08091D3019091D401891771F1F9
:1019F000189FC00111248B529E4F0E94BC0A88235D
:101A000029F1E091D3011E9FF0011124EB52FE4F0A
:101A10004081518162817381848195810E94C107D7
:101A20008091D30190E00196877099278093D3012C
:101A3000D9CF0E9482071092D4011092D301E5E021
:101A4000F2E086E0DF011D928A95E9F72C960FB649
:101A5000F894DEBF0FBECDBFDF91CF911F910895E7
:101A600080910B02859585958595089580910B024F
:101A70008770089590910B02977081E009F480E0DF
:101A800008959091630292FB222720F9281751F0C4
:101A900080FB92F9909363028091620290916302BD
:101AA0000C944B0E08958091630282FB882780F985
:101AB00091E089270C94410D81E00C94410D80E068
:101AC0000C94410D80911702089590911702892B73
:101AD000809317020895809590911702892380932F
:101AE0001702089510921702089590911602892BFB
:101AF0008093160208958095909116028923809311
:101B00001602089510921602089590911502892BDD
:101B100080931502089580959091150289238093F2
:101B20001502089510921502089580910C020895EF
:101B300008950C94980D0C94990D9091630292FD68
:101B400008C090910C02981721F080930C020C941D
:101B50009B0D089580910C02882329F010920C02AD
:101B600080E00C949B0D0895E0910001F09101013B
:101B7000809117028083E0910001F0910101908132
:101B800080911602892B8083E0910001F091010180
:101B9000908180911502892B808380910C0288238B
:101BA00081F0E0910001F09101019081892B808307
:101BB00080910001909101010E945C1F81110E949F
:101BC000AA0D80910001909101010C94171F0C94B3
:101BD000980D9091630292FD10C098E0899F90014A
:101BE0001124262B20930B020E94430880910B02A4
:101BF0008595859585950C94E70D0C944308109276
:101C00000B0280E00C94E70D20910B02809582235B
:101C100080930B02982F977041F430E0482F082EE4
:101C2000000C550B2417350721F49091630292FFA5
:101C300007C08595859585950E9464080C94FF0DD5
:101C400008956FEF7FEF80E090E00C941C2880E017
:101C500090E00E94F82721E0893E9E4F09F020E0A5
:101C6000822F089582E090E00C94EA2783E090E0D0
:101C70000C94EA27CF9384E090E00E94EA27C82FD3
:101C800082E290E00E94EA272C2F30E0A901582B35
:101C9000CA01CF910895CF93C92F682F84E090E0B7
:101CA0000E94FE276C2F82E290E0CF910C94FE27D9
:101CB000AB01BC018FE090E00C941028AB01BC019B
:101CC00083E190E00C94102860E070E0CB010C946C
:101CD0005E0E60E070E0CB010E94580E0C94640E22
:101CE00069EE7EEF80E090E00E941C2860E082E0D8
:101CF00090E00E94FE2760E083E090E00E94FE27D3
:101D00001092CF011092D0011092D1011092D20105
:101D100060E084E090E00E94FE2760E082E290E0D4
:101D20000E94FE2760E085E090E00E94FE2760E0D0
:101D300086E090E00E94FE276FEF87E090E00E942F
:101D4000FE2740E050E0BA0188E090E00E941028B1
:101D500060E08DE090E00E94FE2740E050E0BA0194
:101D600088E190E00E94102860E087E190E00E9406
:101D7000FE2740E050E0BA018CE190E00E9410287C
:101D800060E070E080E290E00E941C2840E050E0BB
:101D9000BA0188E190E00E9410280C94690E0C941E
:101DA000700E682F8EE090E00C94FE270E94412078
:101DB0006093240270932502809326029093270259
:101DC0006093200270932102809322029093230259
:101DD00008950E944120609324027093250280930D
:101DE00026029093270260931C0270931D02809339
:101DF0001E0290931F02089585B7806885BF85B73E
:101E0000806885BF089581E008950C94030F0895BC
:101E10000C94070F0C94070F0C940A0F0C94070FE7
:101E20000C940E0F0C94070F0E94FC0E82EE91E1B1
:101E30000E94A6200E94120F0C94100F0E94080FFF
:101E40000C94070F0E942C200E9433120E949C1AAF
:101E50000E94871C0C940C0FBF92CF92DF92EF92DE
:101E6000FF920F931F93CF93DF93CDB7DEB72A97DF
:101E70000FB6F894DEBF0FBECDBF0E94471281118E
:101E80000E94D60E99E1C92E92E0D92E00E010E012
:101E9000B02E802F0E942312E82EF601F1906F01E0
:101EA000F82679F18091280281FD0E942912F0FC28
:101EB00007C0F1FE26C0DD24D39482E0F82E03C0D3
:101EC000D12CFF24F3940E94050F882399F0DE8221
:101ED000BF82EF2081E009F480E088870E943520EE
:101EE0008160782F9A8789874E815F8168858A858E
:101EF0000E94FB03F801E75EFD4F8081F826F08227
:101F000016C00F5F1F4F0330110509F0C1CF8FEFCF
:101F100089838A831B820E9435208160782F9D836C
:101F20008C8349815A816B818D810E94FB030E94C1
:101F3000E01A0E94981C81110E94E90E0E940E1462
:101F40000E940B1F909118028917A9F00E940B1F85
:101F5000809318022A960FB6F894DEBF0FBECDBF4D
:101F6000DF91CF911F910F91FF90EF90DF90CF9075
:101F7000BF900C94F2032A960FB6F894DEBF0FBE02
:101F8000CDBFDF91CF911F910F91FF90EF90DF9028
:101F9000CF90BF90089580E090E00895089590E07C
:101FA000FC01EE0FFF1FE80FF91FE70FF11DEE0F09
:101FB000FF1FE60FF11DEE0FFF1FE450FF4F85914D
:101FC00094910895880F991FFC01E85FFE4F859159
:101FD00094910895CF93DF930E940B11EC0181152A
:101FE00020E5920708F03FC0811540E4940708F00F
:101FF000D2C0883E910500F5803E910508F002C1EF
:10200000883A910570F4853A910508F0A6C08130B0
:10201000910509F49FC008F4F2C0049708F0F2C0DB
:10202000EEC08F3B910508F4A1C0803C910508F4F7
:10203000E6C0805C9109A5C0811550E2950760F467
:10204000C11581E0D80708F0DDC0CD3ED10508F408
:10205000D6C0CE019065D7C0811520E3920708F065
:1020600093C09F708EC0811545E5940708F046C067
:10207000811554E5950708F0A6C0C11582E5D8077B
:1020800018F5C11521E5D20708F088C0CE01F4E0AB
:1020900096958795FA95E1F7282F23703C2F33709A
:1020A00081E090E002C0880F991F3A95E2F79C68A2
:1020B000922B2C2F2F702695269540E2249F90017D
:1020C0001124822B932B9FC09E01237033279C2FBA
:1020D00096959695C115D34508F065C041E050E04E
:1020E00002C0440F551F2A95E2F780E2989F9001A5
:1020F0001124CA01822B932B9C6885C0811559E558
:10210000950798F4C11588E5D80708F061C0C11596
:1021100026E5D20708F073C08C2F0E949F118F71A3
:1021200090E0982F882790626EC081154AE5940749
:1021300008F453C090568115904208F060C08D2F6E
:102140008F710E949F119E01332730628F71A90108
:10215000582B53C081E090E056C0855AC82FD0E07C
:10216000C657DE4F888190E090644DC0885AC82FD2
:10217000D0E0CC0FDD1FC45ADE4F88819981946472
:1021800042C00E94E20F3FC09927D3FF02C0986C63
:102190003AC0906C38C09F70906A35C09C2F8827D9
:1021A000816F906A30C041E050E002C0440F551F7B
:1021B0002A95E2F780E2989F90011124CA01822BB0
:1021C000932B9A6820C0982F8827846F906A1BC031
:1021D0009C2F8827806F906A16C08F700E949F1175
:1021E0009E0194E0369527959A95E1F72F7030E09F
:1021F000322F22273069A901482BCA0104C080E090
:1022000090E001C0CE01DF91CF9108950E94CF0FE1
:102210000E94EA0F08958238910569F1B0F4813384
:10222000910509F46DC048F48932910509F463C041
:102230008A32910509F469C008958533910509F43E
:1022400055C089339105B9F00895833E910569F130
:1022500038F4803E9105B1F0823E910509F1089570
:10226000863E9105A9F1873E9105B9F1843E91051D
:1022700009F064C023C02091620220FD4FC021FDFF
:102280004DC008958091620280FD44C08091630238
:1022900080FF44C08091620284FD42C083EE4DC045
:1022A0008091620282FF38C0F5CF8091620282FD88
:1022B00033C08091630280FD31C0ECCF8091630216
:1022C00081FF32C08091620284FD2AC087EE35C052
:1022D0008091620283FF26C0F5CF8091620283FD68
:1022E00021C08091630281FD1FC0ECCF809162020A
:1022F00085FD1CC01DC08091620285FD19C016C0FD
:102300008091620286FD16C017C08091620286FD30
:1023100013C010C089E311C082EE0FC080EE0DC063
:1023200080E00BC086EE09C084EE07C089E205C0DC
:1023300085E303C08AE201C081E390E008959091B3
:10234000620292FF0DC0282F2871283019F4877F70
:10235000846006C0282F2471243011F48B7F88609C
:1023600093FF0DC0282F2871283119F4877E8461CE
:1023700006C0282F2471243111F48B7E88612091AE
:10238000630220FF0DC0382F3871383019F4877F71
:10239000816006C0382F3171313011F48E7F886032
:1023A00021FF0DC0282F2871283119F4877E816103
:1023B00006C0282F2171213111F48E7E886194FD91
:1023C000877E089580E008950C94210E0E944712A4
:1023D0002FEF86E791E0215080409040E1F700C068
:1023E00000000E94471280E00E94231280FF04C078
:1023F0000E94E4110C94822008950C94E6110E942E
:10240000270E811102C00E94CF0E0E94320E8093CF
:1024100028020E943A0E90936302809362020E9407
:10242000FD110E94360E682F70E080E090E00E945F
:10243000E3076091CB017091CC018091CD01909127
:10244000CE010C941B08E82FF0E0E959FD4F808184
:102450000895089508950C942A120C942B120C944C
:102460002A120C942F120E947B02A4E6B2E01C9266
:10247000E7E6F2E0108211961C92119711821296F3
:102480001C92128283E00E945A120C947903CF931B
:1024900084E692E00E94A402C82F282F43E067E65A
:1024A00072E084E692E00E945B120E947F038C2F10
:1024B000CF9108950895FF920F931F93CF93DF93C9
:1024C0008C01F62ED72FC42F222349F081E0809370
:1024D0002B020E94352090932A028093290280913A
:1024E0002B028823C1F08091290290912A020E9438
:1024F0004D20059780F0EF2DFD2FD8014C2F50E097
:10250000CD01801B910B841795071CF48D9181934D
:10251000F7CF10922B02DF91CF911F910F91FF9077
:1025200008950E94A91F0E9407220E9420220E9453
:1025300032220E941E0FFBCF8091320280FF0BC01F
:102540006091070185E0689FB0011124759567953A
:10255000759567952BC081FF09C06091070185E0E3
:10256000689FB00111247595679520C082FF07C050
:102570006091070185E0689FB001112417C0909118
:1025800031029923D1F060910601961788F72091C6
:10259000070185E0289F90011124929FA001939F3D
:1025A000500D112470E0CA010E9470276038710537
:1025B00040F46115710519F406C065E070E0862FDE
:1025C00008958FE7089581E008958091320280FF99
:1025D00008C06091030170E07595679575956795E2
:1025E00021C081FF06C06091030170E07595679579
:1025F00019C082FF04C06091030170E010C0909187
:102600003002992399F0609102019617A0F780910A
:102610000301899FC001112470E00E947027603877
:10262000710540F46115710519F406C061E070E0B0
:10263000862F08958FE7089581E008958D3E21F457
:102640000E949C12819504C08E3E29F40E949C1227
:102650008093360208958F3E21F40E949C1281954A
:1026600004C0803F29F40E949C1280933502089593
:10267000893F19F40E94E51205C08A3F31F40E9497
:10268000E51281958093370208958B3F21F40E94D3
:10269000E512819504C08C3F29F40E94E5128093D5
:1026A000380208959FE0980F983078F421E030E0E8
:1026B000A90102C0440F551F9A95E2F7CA019091F3
:1026C0003402892B8093340208958D3F21F4809148
:1026D000320281600BC08E3F21F480913202826011
:1026E00005C08F3F29F480913202846080933202CA
:1026F00008958D3E39F49091360297FF35C01092BF
:10270000360259C08E3E29F4909136021916BCF358
:102710002BC0909135028F3E29F497FF25C010926F
:10272000350249C0803F19F41916CCF31DC09091B1
:102730003702893F29F41916BCF4109237023BC0C6
:102740008A3F19F497FF10C0F8CF8B3F39F490916E
:10275000380297FF09C0109238022DC08C3F21F437
:10276000909138021916BCF39FE0980F983080F4CE
:1027700021E030E0A90102C0440F551F9A95E2F70D
:10278000CA0180959091340289238093340213C04A
:102790008D3F21F4809132028E7F0BC08E3F21F459
:1027A000809132028D7F05C08F3F29F480913202E3
:1027B0008B7F8093320280913502811106C0809117
:1027C0003602811102C010923102809137028111CC
:1027D00006C080913802811102C010923002089523
:1027E0000E94352020913502211104C0209136022B
:1027F000222321F090932F0280932E022091370202
:10280000211104C020913802222321F090932D023F
:1028100080932C0283E392E00C94221FEF92FF92AC
:102820000F931F93CF93DF9300D000D000D0CDB78C
:10283000DEB786E0E3E3F2E0DE01119601900D924F
:102840008A95E1F7E0903502F09036020091370268
:10285000109138021092350210923602109237020F
:1028600010923802E11003C0FF2009F45DC080918E
:102870002E0290912F020E944D20AC0190913102C6
:10288000992339F02091080130E02417350758F0DA
:102890004BC0209109018AE0289F90011124241740
:1028A000350718F041C09F3F19F09F5F90933102A8
:1028B000EE2061F00E949C121E1414F09FEF01C0E4
:1028C00091E0989F902D112490933502FF2061F0A4
:1028D0000E949C121F1414F09FEF01C091E0989F7A
:1028E000902D112490933602309135023323E1F07C
:1028F000209136022223C1F045EB3403C00111249C
:10290000992319F09093350203C081E0809335023A
:1029100035EB2303C0011124992319F0909336025B
:1029200003C081E080933602011103C0112309F432
:102930005DC080912C0290912D020E944D20AC012F
:1029400090913002992339F02091040130E024174E
:10295000350758F04BC0209105018AE0289F90016F
:1029600011242417350718F041C09F3F19F09F5FCD
:1029700090933002002361F00E94E512101614F0CB
:102980009FEF01C091E0989F902D11249093370202
:10299000112361F00E94E512111614F09FEF01C09F
:1029A00091E0989F902D1124909338023091370236
:1029B0003323E1F0209138022223C1F045EB3403A8
:1029C000C0011124992319F09093370203C081E0CC
:1029D0008093370235EB2303C0011124992319F0AA
:1029E0009093380203C081E08093380280913502D1
:1029F00081110BC080913602811107C0809137028E
:102A0000811103C08091380281110E94F013EB8282
:102A1000FC820D831E8386E0FE013196A3E3B2E0C3
:102A200001900D928A95E1F726960FB6F894DEBFD5
:102A30000FBECDBFDF91CF911F910F91FF90EF900F
:102A40000895E3E3F2E086E0DF011D928A95E9F75D
:102A50001092310210923002109232020895EF92D9
:102A6000FF920F931F93CF93DF938B01682F111168
:102A70000AC0442329F0E82FF0E0E15EFD4F6491A5
:102A8000762F862F75C0212F30E0E82FF0E0442309
:102A900021F0E15EFD4FE491F0E046E0049FC001CB
:102AA0001124CFEFD0E0BE010E945C274BEA460321
:102AB000C001479F900D1124800F911D800F911D23
:102AC000982F990F890FAE01421B530B4E9FD001D7
:102AD0004F9FB00D5E9FB00D11249B2F189FA0013A
:102AE0001124452F55278E01041B150B0E9FA001A5
:102AF0000F9F500D1E9F500D11247E01E81AF10802
:102B0000E29E8001E39E100DF29E100D1124212FF4
:102B10003327C21BD30BCE9F9001CF9F300DDE9F7A
:102B2000300D112462307105A9F048F4611571056A
:102B300069F061307105C9F48B2F752F0DC06430B9
:102B4000710581F058F06630710579F47E2F8B2F76
:102B5000932F0DC0832F7B2F9E2F09C08E2F7B2F8D
:102B6000952F05C08E2F732F02C07E2F852F692FC2
:102B7000DF91CF911F910F91FF90EF90089541E069
:102B80000E942F15089508950E94BF150895CF93B0
:102B9000DF93762FE901682F842F0E94C415798373
:102BA00068838A83DF91CF91089580916A02282FEC
:102BB000269530E02115310519F48170826005C039
:102BC0002532310524F08170886480936A0208956B
:102BD00088E090E00C94F227CF92DF92EF92FF9280
:102BE0006B017C010E94D515B701A60188E090E039
:102BF000FF90EF90DF90CF900C941028EAE6F2E07F
:102C000083E0808311828FEF8283838314826081CB
:102C10007181828193810C94EC1580916A0280FF0E
:102C200002C08695089580E0089590916E029330D9
:102C300018F49F5F90936E02882351F060916A02AE
:102C400070916B0280916C0290916D020C94EC1566
:102C5000089581E00C94151690916E02992319F055
:102C6000915090936E02882351F060916A027091A6
:102C70006B0280916C0290916D020C94EC1508959A
:102C800081E00C942C1670E00C945A1C60910E019B
:102C900080916A0280FF0AC080910D0123E0829F2B
:102CA000C001112481599D4F0C94431680910F014E
:102CB00090911001891780F7E82FF0E09F01220F13
:102CC000331FE20FF31FE159FD4F11821082128270
:102CD0008F5FF0CF90916A0290FF16C090910F0124
:102CE00020911001921770F4E92FF0E0DF01AA0F94
:102CF000BB1FEA0FFB1FE159FD4F818360834283B5
:102D00009F5FF0CF0C9446160895CF93DF9300D0C9
:102D10001F92CDB7DEB790916A0290FF0AC09E0164
:102D20002F5F3F4F0E94C7154B8169818A810E94A6
:102D30006A160F900F900F90DF91CF910895CF9367
:102D4000DF93EC01EC81F0E0E65EFE4F4491EAE6B1
:102D5000F2E0628181810E9485168C818F5F8C8375
:102D6000DF91CF910895CF93DF93EC01EAE6F2E093
:102D7000438162818C810E9485168C818F5F8C8358
:102D8000DF91CF9108950F931F93CF93DF9300D0DE
:102D90001F92CDB7DEB78C018091390281110AC034
:102DA0009E012F5F3F4F4FEF6FEF0E94C7158A8143
:102DB00080933902F8018481813051F028F082300B
:102DC00061F4409139020AC08091390240E007C0A5
:102DD0006091390240E080E003C040E080E060E0C4
:102DE0000E946A16F801848190E0019663E070E029
:102DF0000E94702784830F900F900F90DF91CF91E6
:102E00001F910F910895AF92BF92CF92DF92EF92F0
:102E1000FF920F931F93CF93DF9300D01F92CDB7F4
:102E2000DEB7182FF62E042FE22E90916A0290FF43
:102E30006DC0E92FE695AE2FB0E0A357BE4F8C9141
:102E4000809345029E7F923061F49E012F5F3F4F39
:102E5000812F0E94C7154B8169818A810E946A1661
:102E600043C0823019F400916D023EC0863019F4DF
:102E700010916B0239C08930D9F38931A9F5E95134
:102E80008E2F8170D82EE695F0E0E65EFD4FA5907E
:102E9000B490C12CBB2460911101C61618F52C2DDD
:102EA00030E0A29EC001A39E900DB29E900D112411
:102EB00070E00E945C27812FD11002C0860F01C0F4
:102EC000861B90910F01290F311DA901440F551F39
:102ED000240F351F21593D4F402F6F2D0E94C715DC
:102EE000C394D9CF0E94461610936B02F0926C02E5
:102EF00000936D02EE2051F060916A0270916B02B6
:102F000080916C0290916D020E94EC150F900F90D1
:102F10000F90DF91CF911F910F91FF90EF90DF9075
:102F2000CF90BF90AF900895EAE6F2E09181282F0C
:102F30004381628188E0890F0C94031781E00C942F
:102F40009417EAE6F2E09181282F4381628188EFAD
:102F5000890F0C94031781E00C94A117EAE6F2E0C4
:102F6000628121E1620F08F46FEF282F4381818194
:102F70000C94031781E00C94AE17EAE6F2E062814C
:102F800021E1621B08F460E0282F438181810C94C9
:102F9000031781E00C94BD17EAE6F2E0438121E1DA
:102FA000420F08F44FEF282F628181810C940317A0
:102FB00081E00C94CC17EAE6F2E0438121E1421B68
:102FC00008F440E0282F628181810C94031781E08E
:102FD0000C94DB1720E00C940317FF920F931F93C0
:102FE000CF93DF93EC01F12C0FEF10E06091110112
:102FF000F616F0F480910F012F2D30E0280F311DCF
:10300000C901880F991F280F391F21593D4F70E0C2
:10301000C8010E947027962F8C8140916D026091AB
:103020006C02F99E800D11240E94C715F394DECF27
:103030000E9446169A818C8190FF02C08F5F01C06A
:1030400081508C83DF91CF911F910F91FF90089554
:10305000BF92CF92DF92EF92FF920F931F93CF9385
:10306000DF93FC01828180FF02C00FEF01C001E00D
:1030700010E080911101181708F040C080910F01F5
:10308000C12ED12CE601C80FD11DCE01880F991F8A
:10309000C80FD91FC159DD4F198218821A8234E036
:1030A000E32EF12CB12C80913B028B0D853014F076
:1030B000837005C087FF03C090911101890F082E0E
:1030C000000C990BC816D90691F480916D028E9D63
:1030D000A0018F9D500D1124559547955595479505
:1030E0009E0160916C0280916B020E94C715B00E28
:1030F000F1E0EF1AF108B9F61F5FBBCF0E94461648
:1031000080913B02013031F4811102C080911101A4
:10311000815007C090E001966091110170E00E941B
:10312000702780933B02DF91CF911F910F91FF9009
:10313000EF90DF90CF90BF900895CF9380910F01D3
:1031400090911001891770F4E82FF0E09F01220F91
:10315000331FE20FF31FE159FD4F118210821282DB
:103160008F5FF0CFC0E060911101C617C0F5EC2F62
:10317000F0E070E0CF010E94702720910F01820FD4
:1031800020913A02022E000C330B90E0E217F30775
:10319000CCF020910C01022E000C330B2E173F07B0
:1031A0008CF09C01220F331F820F931F9C01215929
:1031B0003D4F40916D0260916C0280916B020E94C4
:1031C000C7150BC0FC01EE0FFF1F8E0F9F1FFC01E8
:1031D000E159FD4F118210821282CF5FC4CF0E944D
:1031E000461620910B0180913A02820F80933A0299
:1031F00090910C01920F90930C0119165CF4082E1B
:10320000000C990B4091110150E041505109841775
:1032100095071CF0219520930B01CF9108958F9273
:103220009F92AF92BF92CF92DF92EF92FF920F9355
:103230001F93CF93DF938C01FC014481C42FD0E016
:103240009E01DE010E94B4279B01AC010E94CA27A7
:103250006B017C01E0E2F0E0EC1BFD0BA5E5B0E0CA
:103260009B01AC010E94CA274B015C019F01DF0159
:103270000E94AC279B01AC010E94D5279B01AC01A9
:103280002C0D3D1D4E1D5F1DC501B4010E948427FC
:10329000C22FD22F2A3228F4F3E02F9F900111245D
:1032A0000DC025E530E02C1B3109C901880F991F9D
:1032B000280F391F37FF02C02F5F3F4F35952795E5
:1032C000C22FC095F12C85E5E82EED1A80911101F1
:1032D000F816C8F4F1FC02C08E2D01C08D2F90911C
:1032E0000F012F2D30E0290F311DA901440F551F6B
:1032F000240F351F21593D4F4C2F60916C020E94C5
:10330000C715F394E3CF0E944616F801848181111A
:1033100002C091E003C0803219F49FEF90930A013C
:1033200090910A01890FF8018483DF91CF911F9159
:103330000F91FF90EF90DF90CF90BF90AF909F9054
:103340008F9008950F931F93CF93DF93EC0100E0CC
:1033500010E080911101282F30E00217130724F5A7
:1033600090910F019801290F311DA901440F551F9C
:10337000240F351F21593D4F869590E04C81081749
:1033800019071CF4442331F002C0411103C04091DD
:103390006D0201C040E060916C0280916B020E945E
:1033A000C7150F5F1F4FD5CF0E9446168C8190E046
:1033B0000196817099278C83DF91CF911F910F9196
:1033C0000895EAE6F2E080818E7F808360817181DA
:1033D000828193810E94EC15109246022FEF80E7C4
:1033E00092E0215080409040E1F700C000000C9432
:1033F0004616EAE6F2E080818E7F808310924602D4
:103400002FEF80E792E0215080409040E1F700C02C
:1034100000000C94461610924602809143028111DE
:103420000AC081E08093430280916A028170809398
:1034300042020C94F919089560916A02669570E051
:103440004BE050E082E191E00E94DD27892B19F4E6
:1034500081E0809346020E94352090933D02809344
:103460003C02089590916A0290FF35C091708111DD
:1034700002C0926006C0853210F0986402C0880FC6
:10348000982B90936A02662351F060916A027091C2
:103490006B0280916C0290916D020E94EC1560911C
:1034A0006A02669570E04BE050E082E191E00E9494
:1034B000DD27892B19F01092460202C00E941C1AC7
:1034C00081E080933F0240916D0260916C02809197
:1034D0006B020C94EA170895682F90916A029695F2
:1034E00081E0890F853208F081E00C94321A81E086
:1034F0000C946C1A682F90916A0296958FEF890F41
:1035000009F484E20C94321A81E00C947A1A61E096
:103510000C94321AEAE6F2E080818160808386951D
:103520000C94871A80916A0280FD0C94E1190C9426
:103530008A1A60E00C94321A8091440281112EC0E4
:103540000E94270E811104C00E94CF0E0E94FE151A
:103550000E94E81560936A0270936B0280936C027C
:1035600090936D026E7F61F40E94FE150E94E81533
:1035700060936A0270936B0280936C0290936D0269
:103580000E94D5151092460280916A0280FF03C006
:1035900086950E94991A81E0809344020895EAE694
:1035A000F2E080818160808386950C94991A109254
:1035B00043028091420281110E94CF1A0C941C1A7E
:1035C0000F931F93CF93DF9380914602882309F4D2
:1035D00085C080914502E0916A02E695E81BE09380
:1035E0003E02823049F4F0E0EA5EFE4FE491CE2FD5
:1035F000D0E00FE916E149C0863049F4F0E0ED5E15
:10360000FE4FE491CE2FD0E003EB16E13EC08930AF
:1036100051F4E695F0E0E05FFE4FE491CE2FD0E06C
:103620000DEE17E132C08F3051F4E695F0E0E35F24
:10363000FE4FE491CE2FD0E008E218E126C085319C
:1036400049F4F0E0E65FFE4FE491CE2FD0E00DE9C3
:1036500018E11BC0883181F0833239F4E8E0F1E0F1
:10366000C591D49103EC16E110C0843251F4C4EF3B
:10367000D1E002EA19E109C0C8E2D0E00FE019E1A7
:1036800004C0C0EDD7E003EC15E180913F02882330
:1036900061F010923F020E94352090933D0280938A
:1036A0003C0210924102109240020E943520E091AB
:1036B0003C02F0913D028E1B9F0B8F3F9F4770F4A1
:1036C000EC0FFD1FF0933D02E0933C028CE392E08F
:1036D000F801DF91CF911F910F910994DF91CF9164
:1036E0001F910F910895882311F0FA0101C0FB0189
:1036F0000994CF93DF93C82FD62F0E940D168C17F5
:1037000040F00E940D168D1720F4DF91CF910C949C
:10371000771A8C2FDF91CF910C94871A1F93CF9338
:10372000DF93FB011281112309F4BCC0EC010E945C
:10373000620D8272CD3CFCE5DF0709F497C008F00A
:1037400043C0C73CECE5DE0709F47CC0D8F4C43CB8
:103750009CE5D90709F46AC038F4C33CDC4509F09C
:10376000A4C00E94921AA0C0C53C9CE5D90709F4E8
:1037700062C0C63CDC4509F098C04BEA57E16EE9EF
:1037800077E15DC0CA3CFCE5DF0709F465C070F471
:10379000C83CECE5DE0709F45AC0C93CDC4509F039
:1037A00084C04AEB57E169EC77E149C0CB3C9CE52A
:1037B000D90709F456C0CC3CDC4509F076C040E49A
:1037C00056E169E276E13BC0C23DFCE5DF0709F462
:1037D0005AC098F4CF3C9CE5D90709F44EC008F4D0
:1037E0004AC0C03DFCE5DF0709F44AC0C13DDC45E5
:1037F00009F05BC06EE089E04EC0C53D9CE5D9078D
:1038000009F447C050F4C33DFCE5DF07F9F1C43DBE
:10381000DC4509F04AC088E142C0C63D9CE5D907B5
:10382000E9F1CE35DD4509F43FC03FC044E85AE137
:1038300067E77AE104C047E75AE164E87AE10E9469
:10384000731B32C04EE957E16BEA77E1F8CF49ECE0
:1038500057E16AEB77E1F3CF47EE57E168ED77E1A7
:10386000EECF48ED57E167EE77E1E9CF49E256E167
:1038700060E476E1E4CF81E012C065E082E00BC055
:1038800068E086E008C064E18FE005C067E185E19B
:1038900002C062E289E10E94791B06C083E20E94B5
:1038A000871A02C011E001C010E0812FDF91CF9193
:1038B0001F910895519A2BB12D7F3BB132604FB7C4
:1038C000F894FC01CB01880F991F680F791F6E0FC8
:1038D0007F1FE617F70789F0819198E03BB9000058
:1038E00000C087FF2BB9880F000000C000C000C0D7
:1038F0002BB900C09A9591F7ECCF4FBF8FE594E0BC
:103900000197F1F700C0000008950C941C038698FD
:103910008E9A85988D9A8FB186FB882780F97D993C
:1039200002C090E001C092E0892B80934902089583
:10393000E0914902EE0FEE0FE09349024FB146FBD2
:10394000882780F990E04FB145FB222720F930E02D
:1039500045FF02C022E030E0822B932B8E2B809318
:1039600049028F70E82FF0E0EE54FE4F9081809175
:103970004802890F8093480284305CF080914702AE
:103980008F5F8093470260E080E00E94851C21E009
:1039900001C020E0809148028D3F54F4809147029D
:1039A00081508093470261E080E00E94851C21E005
:1039B00080914802082E000C990B64E070E00E9490
:1039C000702780934802822F08950F931F93CF93FF
:1039D000DF93C42FD22FFC0182818823C9F040934A
:1039E0004C020E94352090934B0280934A0280E261
:1039F0008C0F883008F057C0C77081E001C0880F75
:103A0000CA95EAF7DF91CF911F910F910C94F504BD
:103A100080914C02481330C080914A0290914B0231
:103A20000E944D20883C910538F510E21D0FCD17FE
:103A3000B9F080E28C0F883040F4C77081E001C09B
:103A4000880FCA95EAF70E94FC04183028F581E037
:103A50009D2F977001C0880F9A95EAF70E94F50490
:103A6000802F0E94EC041830F0F4D77081E001C080
:103A7000880FDA95EAF70AC080E28C0F883098F454
:103A8000C77081E001C0880FCA95EAF7DF91CF9136
:103A90001F910F910C94FC04802FDF91CF911F9107
:103AA0000F910C94EC04DF91CF911F910F91089529
:103AB0000F939C01CB01243F4CE5340731F188F48E
:103AC000293DFCE53F07D9F02A3D4CE5340779F163
:103AD000283D3C45A9F506E221EE41EE68ED7CE586
:103AE0002BC0263FFCE53F07E1F0A8F0273F3C450F
:103AF00039F507E225EE46EE67EF7CE51DC007E2EB
:103B000025EE45EE69ED7CE517C006E221EE40EEBC
:103B100064EF7CE511C007E225EE44EE65EF7CE53D
:103B20000BC006E221EE42EE66EF7CE505C008E23E
:103B300021E045EE6AED7CE50E94E51C80E008C0CE
:103B4000FC018281882319F010924C0201C081E0AF
:103B50000F910895CF93DF93EC01FB0182818823BD
:103B600009F41FC1C230FCE5DF0708F41BC1C631F0
:103B70009CE5D90738F09E012B5F3C452930310583
:103B800008F010C10E943A0E909363028093620283
:103B9000C031ECE5DE0709F4C3C008F041C0C8300D
:103BA0008CE5D80709F49AC0F0F4C430ECE5DE07E0
:103BB00009F487C068F4C2308CE5D80709F477C0EF
:103BC000C330DC4509F0E3C080916202826076C0B8
:103BD000C630ECE5DE0709F46EC008F07BC08091CA
:103BE000620288606BC0CC308CE5D80709F485C0D0
:103BF00068F4CA30ECE5DE0709F474C008F079C057
:103C00000E94820780916202806858C0CE308CE5A5
:103C1000D80709F476C008F07FC0809162028BC09B
:103C2000CC3FECE5DE0709F44FC018F5C3318CE555
:103C3000D80709F47DC078F4C131ECE5DE0709F45A
:103C400073C0C231DC4509F0A2C00E948207809196
:103C500062028F7733C0C5318CE5D80709F472C092
:103C600008F486C0CB3FDC4509F091C08091630227
:103C70003EC0C115FDE5DF0709F45FC058F4CE3F33
:103C80009CE5D90709F444C008F43FC08091630261
:103C900082602DC0C230FDE5DF0709F475C008F46D
:103CA0005DC0C330DD4509F072C080E06EC0809118
:103CB0006202816003C0809162028061809362022F
:103CC00066C08091620211C080916302826080931D
:103CD00063025DC0809162028062F0CF80916202D7
:103CE0008064ECCF8091620288608460E7CF81605D
:103CF000EECF809162028E7FE1CF809162028D7F54
:103D0000DDCF80916202877FD9CF8091630218C096
:103D1000809163028D7FDBCF809162028F7ECECF58
:103D2000809162028F7DCACF809162028F7BC6CF65
:103D300080916202877F8B7FC1CF809163028D7FEC
:103D40008E7FC5CF8091620282FB222720F991E00D
:103D5000922790FB82F990FB83F9B0CF80916302A8
:103D6000982F909591708E7F892B90FB81F9AFCF22
:103D70000E9482078091620287FB222720F991E04E
:103D8000922790FB87F99ACF81E00E94D10E809113
:103D90006202909163020E944B0E0E94820780E0B3
:103DA00001C081E0DF91CF910895CF93DF938631F9
:103DB0009C4541F5EB010E94620D982F8A8120916C
:103DC000000130910101882379F09A7A81E009F4A9
:103DD00080E080934D02911102C069E201C065E369
:103DE000C9010E949E1F0AC080914D02811102C02C
:103DF00069E201C065E3C9010E94A01F0E94B40DE1
:103E000080E001C081E0DF91CF910895909353024B
:103E1000809352020895E0915202F091530230973C
:103E200021F00190F081E02D099480E00895E09167
:103E30005202F0915302309721F00280F381E02D7D
:103E400009940895E0915202F0915302309739F0AD
:103E500022E0DC012C930480F581E02D0994089583
:103E600020915002309151022817390771F0909338
:103E7000510280935002E0915202F0915302309728
:103E800021F00680F781E02D0994089520914E02DB
:103E900030914F022817390771F090934F028093A9
:103EA0004E02E0915202F0915302309721F00084CB
:103EB000F185E02D09940895FC01329697E080E0A9
:103EC000915029F021912223D9F38F5FF9CF0895E2
:103ED000662349F0FC01329608962191621729F079
:103EE000E817F907D1F780E0089581E008959C0173
:103EF000FC0132969FEF80E04191461789F09F3F89
:103F000019F4411101C0982F8F5F8630A9F79F3FA8
:103F100039F0F901E90FF11D97FDFA9562830895D3
:103F200008959C012A5F3F4FFC014281461301C066
:103F30001282019682179307B9F708950C94771FA0
:103F40000C94911F029626E0FC0111922A95E9F744
:103F50000895089508950C94AA1F0C94AA1FCF9356
:103F60000E94AD1F0E9447120E94AB1FC0E08C2F21
:103F70000E942312811104C0CF5FC330C1F701C07A
:103F800081E0CF9108950C94AA1F0C94C31F8091D7
:103F90008302843059F10E94C51F80E00E94F20321
:103FA0000E940B1A1092540220E488E190E00FB6B0
:103FB000F894A895809360000FBE2093600083B7AB
:103FC000817F846083BF83B7816083BF7894889545
:103FD00083B78E7F83BF0FB6F894A8958091600059
:103FE000886180936000109260000FBE08950C9469
:103FF000AA1F0E9482070E940B1F0E94F2030E94C8
:10400000D71A0C94F71F1F920F920FB60F9211241C
:104010008F939F93AF93BF9380915402811113C0EC
:1040200080917B0290917C02A0917D02B0917E02F2
:104030004196A11DB11D80937B0290937C02A093B9
:104040007D02B0937E02BF91AF919F918F910F90AF
:104050000FBE0F901F90189582E084BD93E095BD30
:104060009AEF97BD80936E0008952FB7F8948091D2
:104070007B0290917C02A0917D02B0917E022FBFC5
:1040800008952FB7F89460917B0270917C02809123
:104090007D0290917E022FBF08959C014FB7F89446
:1040A00080917B0290917C02A0917D02B0917E0272
:1040B0004FBF821B930B089578941F920F920FB6F7
:1040C0000F9211248F939F93AF93BF9380917B02A4
:1040D00090917C02A0917D02B0917E020196A11D7B
:1040E000B11D80937B0290937C02A0937D02B093DC
:1040F0007E02BF91AF919F918F910F900FBE0F9055
:104100001F90189581E08093E00080E28093D800B2
:104110001092C9008FE19EE40197F1F700C0000002
:1041200087E090EBDC0180938C0290938D02A0934A
:104130008E02B0938F029CE088E10FB6F894A895A8
:10414000809360000FBE90936000FFCF9093C301F7
:104150008093C20108958091600208959091830236
:10416000943031F580935502709357026093560254
:1041700082E08093E9008FEF9091E800815095FDF7
:1041800006C095ED9A95F1F700008111F5CF809169
:10419000E80085FF0DC040E050E063E070E085E599
:1041A00092E00E94BE228091E8008E778093E80022
:1041B0000895BC0184E00C94AE20BC0183E00C9413
:1041C000AE2022E02093E9002FEF3091E80021504B
:1041D00035FD06C035ED3A95F1F700002111F5CF18
:1041E0002091E80025FF0BC040E050E066E070E061
:1041F0000E94BE228091E8008E778093E8000895A7
:10420000CF93DF9321E02093E9002FEF3091E80076
:10421000215035FD06C035ED3A95F1F7000021112A
:10422000F5CF2091E80025FF14C0EC0140E050E0FC
:1042300068E070E00E94BE228091E8008E77809353
:10424000E80088E0FE01A8E5B2E001900D928A95B1
:10425000E1F7DF91CF91089580918202811109C029
:104260000E944F240E94AC248091E20084608093DD
:10427000E200089510928202089508950895089525
:1042800042E061EC81E00E94C82342E261EC82E0FE
:104290000C94C82380918502833009F460C030F407
:1042A000813071F0823009F499C008958A3009F4A0
:1042B00085C08B3009F46BC0893009F0A7C020C0DD
:1042C00080918402813A09F0A1C08091E800877F43
:1042D0008093E8008091880290918902892B21F4D3
:1042E00068E088E592E003C060E080E090E070E084
:1042F0000E9409238091E8008B778093E80008955D
:1043000080918402813209F081C08091880290916D
:104310008902029708F07AC08091E800877F809335
:10432000E8008091E80082FD05C080918302811140
:10433000F8CF6CC02091F3008091F20090E0922BB6
:10434000029729F48091F1008B7F813021F48091D4
:10435000F100809360028091E8008B7753C08091D8
:104360008402813A09F052C08091880290918902BA
:10437000892B09F04BC08091E800877F8093E8008B
:104380008091E80080FFFCCF8091270136C08091AA
:1043900084028132D9F58091880290918902892B1B
:1043A000A9F58091E800877F8093E8000E94FD23B3
:1043B00080918602809327010C9482078091840269
:1043C000813221F58091E800877F8093E8000E9488
:1043D000FD23809187028093610208958091840279
:1043E000813AA1F48091E800877F8093E800809172
:1043F000E80080FFFCCF809161028093F100809102
:10440000E8008E778093E8000C94FD23089584B72C
:10441000877F84BF0FB6F894A8958091600088616B
:1044200080936000109260000FBE90E080E80FB6AD
:10443000F89480936100909361000FBE0C94140F68
:104440000E944F240E94AC24E2EEF0E08081846060
:10445000808378940E9441270E94220F8DE191E091
:104460000C94061F809183028530A9F48091830209
:10447000853079F40E94C71F809181028823B1F3AF
:104480000E94AF1F882391F30E94A8220E948207F6
:10449000EDCF0E94F91F0C942C0F0C944F22292F62
:1044A000332723303105C9F060F42130310581F024
:1044B0002230310509F044C08BE390E02BE533E076
:1044C00043C021323105E1F02232310549F138C0D3
:1044D00082E190E026E933E037C0992781309105E9
:1044E00049F028F0029761F5EFE1F3E005C0E7E558
:1044F000F3E002C0E3E4F3E0849190E09F0124C084
:104500006115710541F061307105D1F489E090E0E9
:1045100026E833E019C089E090E02DE633E014C0CE
:104520006115710541F06130710551F48BE790E040
:1045300028EA33E009C080E490E023E234E004C0DC
:1045400080E090E020E030E0FA013183208308959C
:1045500080E189BD82E189BD09B400FEFDCF809173
:10456000D8008F7D8093D8008091E0008260809396
:10457000E0008091E00081FDFCCF0895CF92DF92B2
:10458000EF92FF920F931F93CF93DF93EC018B0178
:104590007A010E941C24811133C0E114F10439F026
:1045A000F70180819181081B190BC80FD91FC12CFD
:1045B000D12C0115110519F18091E80085FD16C077
:1045C0008091E8008E778093E800E114F10449F0CF
:1045D000F70180819181C80ED91ED182C08285E009
:1045E0000FC00E941C24882321F30AC08991809364
:1045F000F10001501109FFEFCF1ADF0ADACF80E096
:10460000DF91CF911F910F91FF90EF90DF90CF90AE
:10461000089520918A0230918B022617370748F0BF
:104620006115710539F42091E8002E772093E80098
:1046300001C0B901FC0120E06115710579F180919B
:1046400083028823F1F18530F1F18091E80083FD48
:104650003CC08091E80082FD2EC08091E80080FF80
:10466000EBCF2091F3008091F20090E0922B611546
:10467000710551F08830910538F421912093F100B3
:10468000615071090196F3CF21E0089709F020E00D
:104690008091E8008E778093E800CECF2111CFCFB4
:1046A0000AC080918302882361F0853061F0809197
:1046B000E80083FD0AC08091E80082FFF2CF80E02D
:1046C000089582E0089583E0089581E0089520919F
:1046D0008A0230918B022617370748F06115710561
:1046E00039F42091E8002E772093E80001C0B90149
:1046F000FC0120E06115710591F18091830288230E
:1047000009F440C0853009F43FC08091E80083FD82
:104710003DC08091E80082FD2FC08091E80080FFBD
:10472000E9CF2091F3008091F20090E0922B611587
:10473000710559F08830910540F424912093F100DF
:104740003196615071090196F2CF21E0089709F086
:1047500020E08091E8008E778093E800CBCF211194
:10476000CCCF0AC080918302882361F0853061F04C
:104770008091E80083FD0AC08091E80082FFF2CFBB
:1047800080E0089582E0089583E0089581E008952F
:10479000982F973068F59093E900981739F0709149
:1047A000EC002091ED005091F00003C0242F762FF3
:1047B00050E021FD02C09F5FECCF3091EB003E7FC7
:1047C0003093EB003091ED003D7F3093ED00309160
:1047D000EB0031603093EB007093EC002093ED0020
:1047E0005093F0002091EE0027FDE5CF80E0089582
:1047F0008F708093E90081E008958091840287FFA3
:1048000011C08091E80082FD05C080918302811172
:10481000F8CF11C08091E8008B770BC080918302A4
:10482000882349F08091E80080FFF8CF8091E8006C
:104830008E778093E80008952091E4003091E500A0
:1048400095E64091EC00842F817040FF23C0809159
:10485000E80080FD1DC080918302882399F0853097
:1048600099F08091EB0085FD11C04091E4005091DA
:10487000E5002417350729F3915011F09A01E1CF93
:1048800084E0089582E0089583E0089581E008952A
:1048900080E008954091E80042FFDDCF08950E9436
:1048A000BD240E94C524E0EEF0E080818160808319
:1048B000E8EDF0E080818F77808319BCA7EDB0E050
:1048C0008C918E7F8C9380818F7E80831092820268
:1048D00008950F931F93CF93DF930E94BD240E94EE
:1048E000C524C8EDD0E088818F778883888180686F
:1048F000888388818F7D888319BC109283021092EF
:104900007F02109281021092800200EE10E0F80106
:1049100080818B7F808388818160888342E060E032
:1049200080E00E94C823E1EEF0E080818E7F8083EA
:10493000E2EEF0E080818160808380818860808306
:10494000F80180818E7F8083888180618883DF91F8
:10495000CF911F910F910895E8EDF0E080818F7E57
:104960008083E7EDF0E080818160808384E082BF16
:1049700081E0809382020C946924E8EDF0E080816C
:104980008E7F80831092E20008951092DA001092D8
:10499000E10008951F920F920FB60F9211242F93EA
:1049A0003F934F935F936F937F938F939F93AF93B7
:1049B000BF93EF93FF938091E10082FF0BC0809142
:1049C000E20082FF07C08091E1008B7F8093E100CD
:1049D0000E9440278091DA0080FF1FC08091D8009C
:1049E00080FF1BC08091DA008E7F8093DA00809177
:1049F000D90080FF0DC080E189BD82E189BD09B485
:104A000000FEFDCF81E0809383020E942C2105C02F
:104A100019BC109283020E943A218091E10080FF2C
:104A200019C08091E20080FF15C08091E2008E7F66
:104A30008093E2008091E20080618093E2008091A7
:104A4000D80080628093D80019BC85E080938302EF
:104A50000E943E218091E10084FF30C08091E200FD
:104A600084FF2CC080E189BD82E189BD09B400FECC
:104A7000FDCF8091D8008F7D8093D8008091E10098
:104A80008F7E8093E1008091E2008F7E8093E20030
:104A90008091E20081608093E20080917F02882310
:104AA00011F084E007C08091E30087FD02C081E03F
:104AB00001C083E0809383020E943F218091E10046
:104AC00083FF29C08091E20083FF25C08091E1002F
:104AD000877F8093E10082E08093830210927F02BF
:104AE0008091E1008E7F8093E1008091E2008E7FD3
:104AF0008093E2008091E20080618093E20042E0D6
:104B000060E080E00E94C8238091F000886080937C
:104B1000F0000E943D21FF91EF91BF91AF919F91D5
:104B20008F917F916F915F914F913F912F910F9056
:104B30000FBE0F901F9018951F920F920FB60F92F5
:104B400011242F933F934F935F936F937F938F9392
:104B50009F93AF93BF93CF93DF93EF93FF93C09156
:104B6000E900CF708091EC00D82FD17080FDD0E8A3
:104B70001092E9008091F000877F8093F000789494
:104B80000E94E0251092E9008091F00088608093F7
:104B9000F000CD2BCF70C093E900FF91EF91DF9132
:104BA000CF91BF91AF919F918F917F916F915F91C5
:104BB0004F913F912F910F900FBE0F901F9018951E
:104BC0001F93CF93DF93CDB7DEB7AA970FB6F894B4
:104BD000DEBF0FBECDBFE4E8F2E08091F10081932B
:104BE00022E0EC38F207C9F70E944A218091E800E0
:104BF00083FF2EC18091840290918502492F50E05D
:104C00004A30510508F024C1FA01EC58FF4F0C94CA
:104C1000A627803821F0823809F01AC108C0809197
:104C2000800290918102992389F082600FC0809167
:104C300088028F70873008F00BC18093E900809163
:104C4000EB0085FB882780F91092E9009091E8003D
:104C5000977F9093E8008093F1001092F100D1C00B
:104C6000282F2D7F09F0F4C0882319F0823061F0DD
:104C7000EFC080918602813009F0EAC0933009F0DC
:104C800080E0809381022EC08091860281112AC02B
:104C9000809188028F702FEF280F263008F0D8C03F
:104CA0008093E9002091EB0020FF1CC0933021F499
:104CB0008091EB00806214C09091EB009061909322
:104CC000EB0021E030E0A90102C0440F551F8A9596
:104CD000E2F74093EA001092EA008091EB008860CE
:104CE0008093EB001092E9008091E800877F809329
:104CF000E8000E94FD23ACC08111AAC01091860279
:104D00001F778091E3008078812B8093E30080916E
:104D1000E800877F8093E8000E94FD238091E800EF
:104D200080FFFCCF8091E30080688093E300111145
:104D300002C082E001C083E08093830289C0805872
:104D4000823008F085C080918602909187028C3D68
:104D500053E0950779F583E08A838AE289834FB728
:104D6000F894DE01139620E03EE051E2E32FF0E0FC
:104D700050935700E49120FF03C0E295EF703F5F2E
:104D8000EF708E2F90E0EA3010F0C79601C0C09609
:104D90008D939D932F5F243149F74FBF8091E80099
:104DA000877F8093E8006AE270E0CE0101960E945E
:104DB000092316C06091880270918902AE014F5F8D
:104DC0005F4F0E944D22BC01892B09F441C0909194
:104DD000E800977F9093E80089819A810E94672379
:104DE0008091E8008B778093E80032C0803881F5AD
:104DF0008091E800877F8093E80080917F02809314
:104E0000F1008091E8008E7772CF811121C08091EE
:104E100086029091870299270297D4F48091E80046
:104E2000877F8093E8008091860280937F020E94B2
:104E3000FD2380917F02811106C08091E30087FDF0
:104E400002C081E001C084E0809383020E9440217F
:104E50008091E80083FF0AC08091E800877F8093FB
:104E6000E8008091EB0080628093EB00AA960FB679
:104E7000F894DEBF0FBECDBFDF91CF911F91089593
:104E80000895CF93809183028823A1F0C091E90017
:104E9000CF709091EC00892F817090FD80E8C82B35
:104EA0001092E9008091E80083FD0E94E025CF7018
:104EB000C093E900CF910895AA1BBB1B51E107C025
:104EC000AA1FBB1FA617B70710F0A61BB70B881F9A
:104ED000991F5A95A9F780959095BC01CD01089529
:104EE00097FB072E16F4009407D077FD09D00E9497
:104EF0005C2707FC05D03EF4909581959F4F08955F
:104F0000709561957F4F0895A1E21A2EAA1BBB1BD5
:104F1000FD010DC0AA1FBB1FEE1FFF1FA217B30785
:104F2000E407F50720F0A21BB30BE40BF50B661F9B
:104F3000771F881F991F1A9469F76095709580955F
:104F400090959B01AC01BD01CF010895EE0FFF1FAD
:104F50000590F491E02D09940E94B427332312F4B4
:104F60008A1B9B0B0C94C527A29FB001B39FC00165
:104F7000A39F700D811D1124911DB29F700D811D85
:104F80001124911D08950E94B427B7FF0895821B34
:104F9000930B08950E94B427A59F900DB49F900D88
:104FA000A49F800D911D11240895B7FF0C94CA276A
:104FB0000E94CA27821B930B0895FC014150504068
:104FC00030F001900616D1F73197CF010895882768
:104FD00099270895F999FECF92BD81BDF89A992736
:104FE00080B50895A6E1B0E044E050E00C94242898
:104FF000A8E1B0E042E050E00C942428262FF99973
:10500000FECF92BD81BDF89A019700B4021639F027
:105010001FBA20BD0FB6F894FA9AF99A0FBE0895F8
:105020000396272F0E94FF270E94FE27252F0E940C
:10503000FF27242F0C94FF270196272F0E94FF277C
:105040000C94FE27DC01CB01FC01F999FECF06C0D0
:10505000F2BDE1BDF89A319600B40D924150504036
:08506000B8F70895F894FFCFA2
:105068000D022808641E140A321E01010200040001
:10507800040401191A1B1C1D1E1F202122AB20002D
:1050880021E120DD20D92001F067F7E200E900EAFC
:1050980000B500B600B700CD008301CC008A0192AC
:1050A8000194012102230224022502260227022A52
:1050B80002B300B4006F007000818283E200E9004F
:1050C800EA00B500B600B700CD008301CC008A0124
:1050D80092019401210223022402250226022702BA
:1050E8002A02B300B4006F007000818283000102BD
:1050F8000202020606060909090909090F0F0F0F1E
:105108000F0F151515181919191919191919191928
:10511800232400FF0100010000FFFF00000100013F
:02512800FF0086
:00000001FF
