:100000000C943F060C9486060C9486060C94860687
:100010000C9486060C9486060C9486060C94860630
:100020000C9486060C9486060C941B280C94ED28E0
:100030000C9495220C9486060C9486060C948606E5
:100040000C9486060C9486060C9486060C94860600
:100050000C9486060C94EE220C9486060C9486066C
:100060000C9486060C9486060C9486060C948606E0
:100070000C9486060C9486060C9486060C948606D0
:100080000C9486060C9486060C9486060C948606C0
:100090000C9486060C9486060C9486060C948606B0
:1000A0000C9486060C9486060C9486060F0A0F0A9A
:1000B000410A410A8E0AAC0ACD0BCD0BB70A4C0B94
:1000C0005D0B5D0BBD0BCD0BCD0BC60B6D0C6D0C25
:1000D0007F0C7F0C760C7F0C7F0C7F0C6D0C6D0CF5
:1000E0007B0C7F0C7F0C7B0C5A298129792A812972
:1000F000792ACD29F029792A472A562A0251E00087
:10010000E300E2002A0028002C420000000050001A
:10011000510052004F0002510000E1001D001B0081
:100120000600190005004D004C004E0011001000A3
:10013000360037003800E5000351040016000700C0
:1001400009000A004A004B000B000D000E000F00D2
:100150003300280000002B0014001A0008001500CE
:1001600017002F0030001C0018000C0012001300B4
:100170002A000000290035001E001F002000210079
:1001800022000152230024002500260027002D0014
:100190002E000100010001000100F10001006200D9
:1001A0000000000063005800010001000100000091
:1001B00001000100FD00FE00FF0001000100010040
:1001C0001E001F0020005800010001000100010076
:1001D000F200EF00EE00F00001000100210022001B
:1001E0002300570001000100010000000100010090
:1001F0000100ED000100010001002400250026009F
:100200005700010001000100000001000100010091
:100210000100010001000100005254005500560089
:1002200001000100010001000100010001000100C6
:100230004C0001000100000000000100010001006D
:1002400001000100000001002E022D002E002F02EF
:100250003002AC00AE00AB002F00300033003302A0
:100260003100010001001E021F02200221022202B1
:10027000AA00A90023022402250226022702010067
:10028000000035001E001F00200021002200010098
:100290000100230024002500260027004C00000058
:1002A000005C01003A003B003C003D003E000100C4
:1002B0003F0040004100420043004400450001006F
:1002C0000100010001000100010001000000000028
:1002D00001000100010001000100000001001D01FA
:1002E0001B010601190101000100010001000100CC
:1002F0004A0001004D00010001000100E000FA0089
:10030000E10001000100010001002A00500051003D
:100310004F004C000100000001000100F900010045
:1003200001000100010001000100500152004F01D5
:1003300001000100000001000100010001000100B6
:1003400001000100010001000100010001000100A5
:100350000100010044454255473A206469736162D7
:100360006C65642E0A0044454255473A20656E612B
:10037000626C65642E0A004F6E6573686F743A2074
:100380006163746976653A2025640A000A002530A5
:100390003258006B6579626F6172645F7365745F78
:1003A0006C65643A20000A002530313662003A203C
:1003B0000025303258000A722F6320303132333436
:1003C00035363738394142434445460A00313A0907
:1003D00064656C6179282A31306D73293A2025755E
:1003E0000A323A09696E74657276616C286D7329F8
:1003F0003A2025750A333A096D61785F7370656537
:10040000643A2025750A343A0974696D655F746F22
:100410005F6D61783A2025750A353A097768656518
:100420006C5F6D61785F73706565643A2025750A4D
:10043000363A09776865656C5F74696D655F746FDE
:100440005F6D61783A2025750A00703A097072690B
:100450006E742076616C7565730A643A097365740D
:100460002064656661756C74730A75703A092B3186
:100470000A646E3A092D310A6C743A092B31300A3C
:1004800072743A092D31300A4553432F713A09717C
:100490007569740A0A7370656564203D2064656C33
:1004A0007461202A206D61785F7370656564202A0D
:1004B0002028726570656174202F2074696D655FF6
:1004C000746F5F6D6178290A77686572652064656D
:1004D0006C74613A20637572736F723D25642C20D1
:1004E000776865656C3D25640A536565206874749A
:1004F000703A2F2F656E2E77696B6970656469613C
:100500002E6F72672F77696B692F4D6F7573655FFB
:100510006B6579730A004D3E20004D25753A2573B1
:100520003E20003F0A003D2025750A003F0A006476
:10053000656661756C74730A0025750A003F0A00D0
:100540000A092D2056616C756573202D0A00710A09
:10055000000A092D204D6F7573656B6579202D0A92
:10056000003F00433E20004C25640A000A092D206C
:10057000537461747573202D0A686F73745F6B65B3
:1005800079626F6172645F6C65647328293A202513
:100590003032580A6B6579626F6172645F70726F96
:1005A000746F636F6C3A20253032580A6B6579623C
:1005B0006F6172645F69646C653A20253032580A55
:1005C00074696D65725F72656164333228293A20FF
:1005D0002530386C580A000A092D20566572736957
:1005E0006F6E202D0A5649443A2030783732373220
:1005F00028526F6D696E526F6E696E2043616E6432
:10060000794B65797329205049443A20307830433A
:100610003243284B6174616E6136302072657631E9
:1006200029205645523A203078303030310A425530
:10063000494C443A20202853657020203520323020
:100640003231290A4F5054494F4E533A204C5546A7
:1006500041204D4F5553454B455920455854524123
:100660004B455920434F4E534F4C4520434F4D4D22
:10067000414E4420343039360A4743433A20352E20
:10068000342E30204156522D4C4942433A20322ECE
:10069000302E30204156525F415243483A20617615
:1006A00072350A000A092D20436F6E736F6C652046
:1006B0002D0A4553432F713A09717569740A6D3AD1
:1006C000096D6F7573656B65790A000A092D204DF8
:1006D00061676963202D0A443A09446562756720A1
:1006E0004D65737361676520546F67676C650A5861
:1006F0003A094D6174726978204465627567204DCE
:100700006F646520546F67676C65202D2053686F98
:1007100077206B65797072657373657320696E20DD
:100720006D617472697820677269640A4B3A094B8B
:100730006579626F61726420446562756720546FE9
:1007400067676C65202D2053686F77206B65797023
:1007500072657373207265706F72740A4D3A094442
:1007600065627567204D6F75736520546F67676CA0
:10077000650A563A0956657273696F6E0A533A09EB
:100780005374617475730A433A09416374697661FD
:10079000746520436F6E736F6C65204D6F64650ADE
:1007A00046312D4631303A095377697463682074B5
:1007B0006F204C6179657220302D39202846313008
:1007C000203D204C30290A302D393A09537769747D
:1007D000636820746F204C6179657220302D390A6E
:1007E00047524156453A0953776974636820746FDC
:1007F000204C6179657220302028616C7465726EBE
:10080000617465290A423A094A756D7020746F2037
:10081000426F6F746C6F616465720A4553433A09A5
:100820004A756D7020746F20426F6F746C6F6164D5
:1008300065722028616C7465726E617465290A4561
:100840003A095072696E7420454550524F4D2053FD
:10085000657474696E67730A4253504143453A099F
:10086000436C65617220454550524F4D0A006B65DF
:10087000796D61705F636F6E6669672E7261773A3A
:1008800020253032580A2E737761705F636F6E7463
:10089000726F6C5F636170736C6F636B3A20257568
:1008A0000A2E636170736C6F636B5F746F5F636F4D
:1008B0006E74726F6C3A2025750A2E737761705FC3
:1008C0006C63746C5F6C6775693A2025750A2E73CA
:1008D0007761705F7263746C5F726775693A202527
:1008E000750A2E737761705F6C616C745F6C6775ED
:1008F000693A2025750A2E737761705F72616C7496
:100900005F726775693A2025750A2E6E6F5F67758D
:10091000693A2025750A2E737761705F6772617678
:10092000655F6573633A2025750A2E737761705F82
:100930006261636B736C6173685F6261636B737038
:100940006163653A2025750A2E6E6B726F3A202519
:10095000750A0064656275675F636F6E6669672E0E
:100960007261773A20253032580A2E656E61626CCA
:10097000653A2025750A2E6D61747269783A2025D2
:10098000750A2E6B6579626F6172643A2025750A6B
:100990002E6D6F7573653A2025750A006565636F66
:1009A0006E6669673A0A64656661756C745F6C614E
:1009B0007965723A2025750A003F000A6D6F7573DC
:1009C000653A206F66660A000A6D6F7573653A2096
:1009D0006F6E0A000A6B6579626F6172643A206F0C
:1009E00066660A000A6B6579626F6172643A206F0D
:1009F0006E0A000A6D61747269783A206F66660A41
:100A0000000A6D61747269783A206F6E0A000A6498
:100A1000656275673A206F66660A000A64656275EA
:100A2000673A206F6E0A000A0A4A756D70696E6730
:100A300020746F20626F6F746C6F616465722E2E0C
:100A40002E2000433E2000436C656172696E672072
:100A5000454550524F4D0A00290A002575002F00C8
:100A60002575005D28002564002000256400200015
:100A700025640020002564007C0025303258006D7C
:100A80006F7573656B6579205B62746E7C78207915
:100A9000207620685D287265702F61636C293A208A
:100AA0005B000A002530325820006B6579626F6167
:100AB00072645F7265706F72743A20005B735D00E0
:100AC0004B6579626F6172642073746172742E0A6F
:100AD000005B575D005B535D005B525D005B445DF6
:100AE000005B435D001C034B006100740061006EFD
:100AF0000061003600300020007200650076003191
:100B00000000002A0352006F006D0069006E005261
:100B1000006F006E0069006E002000430061006EEF
:100B200000640079004B0065007900730000000448
:100B300003090409025B00030100A0FA0904000094
:100B400001030101000921110100012240000705F4
:100B5000810308000A0904010001030000000921C3
:100B600011010001227B000705820320000A09040D
:100B700002000203000000092111010001222200ED
:100B8000070583032000010705030320000112016C
:100B900000020000000872722C0C0100010200012A
:100BA0000631FF0974A1010975150026FF00952083
:100BB000750881020976150026FF009520750891B9
:100BC00002C005010902A10185020901A100050970
:100BD00019012908150025019508750181020501F3
:100BE000093009311581257F95027508810609387C
:100BF0001581257F950175088106050C0A380215B7
:100C000081257F950175088106C0C005010980A175
:100C100001850319012AB700150126B70095017552
:100C2000108100C0050C0901A101850419012AA049
:100C300002150126A002950175108100C005010969
:100C400006A101050719E029E7150025019508759A
:100C50000181029501750881010507190029FF1519
:100C60000026FF0095067508810005081901290571
:100C7000950575019102950175039101C00011243C
:100C80001FBECFEFDAE0DEBFCDBF04B603FE27C044
:100C90008091E6029091E702A091E802B091E9020A
:100CA0008730904BA740B04BD1F41092E6021092DF
:100CB000E7021092E8021092E90214BE84B7877F1F
:100CC00084BF0FB6F894A8958091600088618093E6
:100CD0006000109260000FBEE0E0F8E3099511E0BB
:100CE000A0E0B1E0EEE6F6E502C005900D92A83F67
:100CF000B107D9F722E0A8EFB1E001C01D92A63EEE
:100D0000B207E1F70E94EA180C94352B0C9400000E
:100D1000FF93EF93E091F801F091F901309709F01A
:100D20000995EF91FF910895FC018591803011F0B4
:100D3000EFDFFBCF0895FF27E0E230E247FF0CC072
:100D4000419597FF09C0EDE260957095809590956B
:100D5000611D711D811D911D27FF02C0219530E38A
:100D600050E2AA27660F771F881F991FAA1FA41792
:100D700010F0A41B63955A95A9F7AA3008F0A95F53
:100D8000A05DAF93F395611571058105910541F75C
:100D9000ED3211F4EF93F395F21718F43F93F395B6
:100DA000FBCF8F91B5DFFA95E1F70895E991F991BD
:100DB0008591803021F0853219F0AADFF9CF0895AE
:100DC00020E0E89455915532C1F3503311F4689402
:100DD00055915A3348F4505390F3220F022E220FAC
:100DE000220F200D250FF4CF0EF4219589919991B2
:100DF000533619F3533729F1533559F1BC0188277C
:100E00009927E8945C3621F48991999168945591D9
:100E1000543639F446EF7EF077FF0DC08FEF9FEF29
:100E20000AC055374AE039F0583540E121F05236D2
:100E300042E009F00895FF93EF937DDFEF91FF917A
:100E4000B7CFFF93EF93FC0181918030B9F360DF5E
:100E5000FBCFFF93EF9368DFF1CFDF93CF93CDB755
:100E6000DEB72596A3DFCF91DF91089581E0089545
:100E700081E008950C94380708950C943C071F9363
:100E8000CF93DF9300D000D01F92CDB7DEB7498358
:100E90005A836B833091FA0189819A81311114C090
:100EA000662359F0222349F00E94110E182F682F53
:100EB00089819A810E94BA0D03C00E94E50D182F06
:100EC00069817A81812F04C00E94110E69817A8123
:100ED0000F900F900F900F900F90DF91CF911F9177
:100EE0000C94E814FC01262F4081518162817381AA
:100EF00084810C943F0781E00895CF93DF93EC0148
:100F000060E00E947207BE01DF91CF910C943D0713
:100F10000E9413170E943D080C9496170C94921788
:100F200008950E945B0C0E9490072FEF84E39CE0E1
:100F3000215080409040E1F700C000000C94142341
:100F40000F931F93CF93DF938C0161E00E94720790
:100F5000EC01B8010E943A07882309F45BC0B8018C
:100F6000CE010E94AF1F882309F454C0B801CE01FE
:100F70000E940120882309F44DC0B801CE010E94CF
:100F80002C21882309F446C0F80182818823D9F1F5
:100F9000CF3D8CE5D80779F140F4C115FCE5DF07BA
:100FA00091F0C130DC4591F02EC0CC35EDE5DE0787
:100FB00041F1CD35FDE5DF0709F1CB35DD4519F50B
:100FC0000E944D1220C00E94910724C080918D0282
:100FD000C82FC095C170C0FB80F980938D02CC23CF
:100FE00029F086E693E00E94940614C084E593E01D
:100FF0000E94940610C00E94C0130CC00E944412AC
:1010000002C00E945012C801DF91CF911F910F9131
:101010000C943607C0E08C2FDF91CF911F910F9178
:1010200008958295982F937344E0949F9001112422
:101030008C7C86958695282B822F8575880F2A7A39
:101040002695822B0895CF93DF93D92F0E94110804
:10105000C82F8D2F0E9411082C2F30E0322F22270D
:10106000A901482BCA01DF91CF91089508950C94EE
:10107000360881E008950C9439080895CF93C82F5D
:101080000E9437088C2F0E943B08CF910895CF9380
:10109000DF93CDB7DEB72B970FB6F894DEBF0FBE48
:1010A000CDBF4F83588769877A878B8761110E94EC
:1010B00073129E012F5F3F4F86E0F90111928A95CE
:1010C000E9F785E0FE013796D90101900D928A95E6
:1010D000E1F789819A814C815D81452B31F09F3FF9
:1010E00031F491E08F3F19F403C091E001C090E02A
:1010F00090FF09C049815A816B817C818D819E81DD
:101100000E945F1105C0C9010E947B078111F2CFC7
:101110002B960FB6F894DEBF0FBECDBFDF91CF91F7
:101120000895FC01808191810E94530E0895CF9310
:10113000882309F4A9C0C82F8238C1F40E94622113
:1011400081FDA2C069E380910001909101010E949C
:1011500033220E94A5122FEF81EE94E021508040AF
:101160009040E1F700C0000069E319C0833801F541
:101170000E94622180FD88C063E58091000190910A
:1011800001010E9433220E94A5122FEF81EE94E00C
:10119000215080409040E1F700C0000063E580915D
:1011A0000001909101010E943522CF910C94A5126B
:1011B0008438C1F40E94622182FD66C067E4809198
:1011C0000001909101010E9433220E94A5122FEF8D
:1011D00081EE94E0215080409040E1F700C0000093
:1011E00067E4DDCF8CEF8C0F813AF8F48C2F0E94EE
:1011F000D01B811149C06C2F809100019091010199
:101200000E94FD21882349F06C2F8091000190916C
:1012100001010E9435220E94A5126C2F80910001CD
:10122000909101010E943322C0CF80E28C0F883060
:1012300048F4C77081E001C0880FCA95EAF70E94A0
:101240005612B3CFEBE5EC0FE33040F4F0E0ED5B8A
:10125000FE4F808190E0CF910C94C521E8E5EC0F22
:10126000E73150F4F0E0EE0FFF1FEB5EFE4F8081A0
:101270009181CF910C94DB21CD3E30F08C2F0E94D8
:10128000A91CCF910C947B1DCF910895882309F45C
:1012900064C0823879F40E94622181FF5EC069E3F4
:1012A00080910001909101010E9433220E94A512B9
:1012B00069E310C08338B1F40E94622180FF4DC001
:1012C00063E580910001909101010E9433220E9408
:1012D000A51263E580910001909101010E943522E1
:1012E0000C94A512843879F40E94622182FF35C0E3
:1012F00067E480910001909101010E9433220E94D5
:10130000A51267E4E7CF9CEF980F913A10F4682F8D
:10131000E1CF90E2980F983050F4877091E001C0CF
:10132000990F8A95EAF7892F0E945C12D9CF9BE525
:10133000980F933020F480E090E00C94C52198E55C
:10134000980F973120F480E090E00C94DB218D3EE3
:1013500020F00E94041D0C947B1D08951F93CF93D1
:10136000DF93182FEB010E949708209741F08FE937
:101370009FE00197F1F700C000002197F6CF812F81
:10138000DF91CF911F910C944609893319F060E0E9
:1013900070E002C060E570E00C94AE09882321F093
:1013A0000E9456120C94A5120895882321F00E94E1
:1013B0005C120C94A5120895CF92DF92EF92FF92E7
:1013C0000F931F93CF93DF937C01062FC72FFC0150
:1013D000D281158112951F700E941712882399F0EF
:1013E000DD2389F08C2F807F803421F080E2800F14
:1013F000883048F082E00E94F5120E94171291E0B6
:10140000D82ED92601C0D12CCC2EC2948FE0C82270
:101410008C2D90E0FC01EA5AFF4F0C94CC2A8C2FC3
:10142000807FCF70882311F0C295C07FDD2399F0B3
:10143000CC2309F48DC180E2800F883010F00111B7
:1014400004C08C2F0E94561203C08C2F0E9466127B
:101450000E94A5127DC1802F0E944609CC2309F469
:101460009CC180E2800F883010F0011104C08C2FE5
:101470000E945C1203C08C2F0E946C120E94A51265
:101480008CC18C2F807FCF70803211F0C295C07FCD
:10149000002319F00130C9F022C0DD2371F01123BF
:1014A00041F0113031F40E9486128C2B0E948E1272
:1014B00074C10E9486128C2B1DC0112319F01130AB
:1014C00009F46BC10E949B1225C0DD2321F0163068
:1014D00008F063C10EC0153008F05FC11BC0DD23EA
:1014E00061F0112331F0F701858180FF31C18F70E8
:1014F00085838C2F0E94CE0950C1112359F00933E6
:1015000009F037C1FFEF27EE83E0F1502040804023
:10151000E1F72DC18C2F0E94D5093FC18C2F8695F4
:101520008695837019F0813061F037C1DD2321F099
:10153000802F9C2F937002C080E090E00E94C52114
:1015400034C1DD2321F0802F9C2F937002C080E0F6
:1015500090E00E94DB2129C1802FDD2319F00E9439
:10156000A91C02C00E94041D0E947B1D1EC18C2F5D
:10157000837009F045C0D11114C1402F42954695A2
:101580004770440F440F602F6F70862F90E0A0E0EB
:10159000B0E0042E04C0880F991FAA1FBB1F0A9435
:1015A000D2F704FF10C00FE010E020E030E004C0EC
:1015B000000F111F221F331F4A95D2F70095109577
:1015C0002095309503C000E010E09801C695C695BF
:1015D000C370BC01CD01602B712B822B932BC230C9
:1015E00049F058F4C13019F00E94D00CDAC00E94C2
:1015F000BE0CD7C00E94E20CD4C00E94BC0CD1C06B
:10160000DD2319F08C2F817001C08695882309F4A1
:10161000C8C0402F429546954770440F440F602F35
:101620006F70862F90E0A0E0B0E0042E04C0880F19
:10163000991FAA1FBB1F0A94D2F704FF10C00FE026
:1016400010E020E030E004C0000F111F221F331F04
:101650004A95D2F7009510952095309503C000E08B
:1016600010E09801C695C695C370BC01CD01602BF2
:10167000712B822B932BC23049F058F4C13019F0F2
:101680000E94950D8EC00E94830D8BC00E94A70DF5
:1016900088C00E94F60C85C0CF70DD2339F08C2FF6
:1016A0000E941C0D802F0E94CE097BC0802F0E94BB
:1016B000D5098C2F0E943D0D74C0023F01F128F422
:1016C000003F41F0013FA1F03FC0033FF9F0043F6C
:1016D00039F13AC0DD2341F0153008F05EC08C2F9F
:1016E0008F710E94620D59C0163008F056C0F7CFB6
:1016F000DD2339F08C2F8F710E941C0D4EC0DD232D
:10170000C9F38C2F8F710E943D0D47C0DD2329F056
:101710008C2F8F710E94070D40C00E94020D3DC0AA
:10172000DD2349F0CF718C2F0E941C0D63E08C2FBC
:101730000E94DA1232C081E00E94F512123068F184
:1017400082E00E94F51229C0DD2331F0112391F2CD
:10175000802F0E94970821C0112399F2093349F480
:101760009FEFE7EEF3E09150E040F040E1F700C07A
:101770000000802F0E94460910C04C2F4F70602F30
:10178000C7010E94E4140E94810E0FC04C2F4F70BD
:10179000602FC7010E94E71408C088EF8C0D8430C9
:1017A00020F40E9462210E943E08DD20C9F00E94C0
:1017B000131280FD15C0F70112820E940D120E94C3
:1017C0001C0DC7010E94110C0E940D12DF91CF91D8
:1017D0001F910F91FF90EF90DF90CF900C943D0DF3
:1017E000DF91CF911F910F91FF90EF90DF90CF90FD
:1017F00008950F931F93CF93DF93EC016881798154
:101800008A810E945E0E8C010E94B90D0E94AA0C72
:10181000B801CE010E94DC09DF91CF911F910F9199
:101820000895CF93DF93EC01988189812B813C81CE
:10183000232B31F08F3F31F481E09F3F19F403C037
:1018400081E001C080E080FD19C0CE010E94A007A8
:1018500081110CC00E941712882381F08A8188238D
:1018600069F082E0DF91CF910C94F512CE010E94D5
:10187000F90BCE01DF91CF910C947D07DF91CF91D1
:10188000089580E090E00E94C52180E090E00E94F1
:10189000DB210E9473120E9483120E94A5120E94F3
:1018A0002E1F0C947B1D80910001909101010E94DC
:1018B00037220C94410C0E9463120C94530CE92FB4
:1018C000E295EF704E2F50E0FA013297EE30F105BD
:1018D000B0F4EA59FF4F0C94CC2A803F91F018F4F1
:1018E000883E68F40EC0843F51F40BC0883E48F037
:1018F000813F29F406C093FB882780F9089580E092
:10190000089581E00895FC01808191810E94530E29
:101910000E945F0C0895CF93DF9300D000D01F92F8
:10192000CDB7DEB70F900F900F900F900F90DF9113
:10193000CF910895CF93DF9300D000D000D0CDB7E2
:10194000DEB726960FB6F894DEBF0FBECDBFDF918F
:10195000CF910895089508950C94AB0C0C94AC0CA1
:101960000E94AE0C60933102709332028093330276
:10197000909334020C94410C0C94B00C0F931F9371
:1019800000913102109132022091330230913402E1
:10199000602B712B822B932B1F910F910C94B00C09
:1019A0000F931F9300913102109132022091330264
:1019B0003091340260237123822393231F910F916E
:1019C0000C94B00C0F931F930091310210913202CE
:1019D00020913302309134026027712782279327A8
:1019E0001F910F910C94B00C0C94AB0C0E94F40C52
:1019F00060932D0270932E0280932F0290933002F9
:101A00000C94410C60E070E0CB010C94F60C0F9349
:101A10001F9341E050E060E070E08A019B0104C048
:101A2000000F111F221F331F8A95D2F7C901B80179
:101A30001F910F910C94F60C0F931F9341E050E00F
:101A400060E070E004C0440F551F661F771F8A9541
:101A5000D2F780912D0290912E02A0912F02B09189
:101A600030028A019B01082B192B2A2B3B2BC90121
:101A7000B8011F910F910C94F60C0F931F9341E046
:101A800050E060E070E004C0440F551F661F771FF0
:101A90008A95D2F7409550956095709580912D026A
:101AA00090912E02A0912F02B09130028A019B01E9
:101AB000082319232A233B23C901B8011F910F9141
:101AC0000C94F60C0F931F9341E050E060E070E03F
:101AD00004C0440F551F661F771F8A95D2F7809167
:101AE0002D0290912E02A0912F02B09130028A0116
:101AF0009B01082719272A273B27C901B8011F91F5
:101B00000F910C94F60C0F931F9300912D021091DE
:101B10002E0220912F0230913002602B712B822BEC
:101B2000932B1F910F910C94F60C0F931F93009120
:101B30002D0210912E0220912F023091300260234D
:101B40007123822393231F910F910C94F60C0F9312
:101B50001F9300912D0210912E0220912F0230919F
:101B6000300260277127822793271F910F910C94D1
:101B7000F60C08952FE0929F800D1124E82FE69532
:101B8000E695E695877051E001C0550F8A95EAF712
:101B900085E0E89FF0011124E550FE4F20E030E0A1
:101BA00070E04081CB01022E02C0969587950A9481
:101BB000E2F78170819584278523842781932F5FA5
:101BC0003F4F2530310569F708952FE0929F800D32
:101BD0001124682F669566956695982F977085E015
:101BE000689FB001112440E050E080E0FB01E40F69
:101BF000F51FE550FE4F208130E0092E02C03695DA
:101C000027950A94E2F721703327042E01C0220F92
:101C10000A94EAF7822B4F5F5F4F4530510531F749
:101C20000895BF92CF92DF92EF92FF920F931F938E
:101C3000CF93DF938C01C0902D02D0902E02E090C4
:101C40002F02F09030028091310290913202A091E7
:101C50003302B0913402C82AD92AEA2AFB2ACFE1FA
:101C6000D0E0D701C6010C2E04C0B695A795979574
:101C700087950A94D2F780FD04C0219790F7B12C84
:101C800007C0BC2EB8018C2F0E941F160197A9F324
:101C90008B2DDF91CF911F910F91FF90EF90DF90EF
:101CA000CF90BF900895CF93DF93EC010E94110E67
:101CB000BE010E941F16DF91CF9108951F93CF930D
:101CC000DF93EB019091FA01992321F0CB010E945F
:101CD000530E13C0882349F0CB010E94110E182F18
:101CE000682FCE010E94BA0D04C0CB010E94E50D01
:101CF000182FBE01812F0E941F16DF91CF911F91D7
:101D00000895EF92FF920F931F93CF93DF938C016F
:101D1000892B09F46CC0F12CEE24E394E8012196A0
:101D2000F8018491843740F4843008F051C0813048
:101D300081F0823019F15BC0853709F444C0A8F105
:101D40009CE7980F903708F052C08F770E944609A1
:101D500041C00E5F1F4FFE01849190E2980F9830B2
:101D600050F48770FE2D01C0FF0F8A95EAF78F2F80
:101D70000E94761214C00E9497082DC00E5F1F4F5C
:101D8000FE01849190E2980F983060F48770FE2DE8
:101D900001C0FF0F8A95EAF78F2F0E947C120E94E4
:101DA000A51219C00E94460916C00E5F1F4FFE0102
:101DB000C491CC2381F08FE99FE00197F1F700C037
:101DC0000000C150F6CF0E5F1F4FFE01F49003C01C
:101DD0000E9497088E018F2D882309F49FCFEFE989
:101DE000FFE03197F1F700C000008150F5CFDF919F
:101DF000CF911F910F91FF90EF9008951F93CF9374
:101E0000DF93C091350216E080913602C81799F031
:101E1000D0E01C9FF0011D9FF00D1124E95CFD4FE7
:101E20004081518162817381848195810E949A0CE5
:101E30002196C770E9CFDF91CF911F91089540910E
:101E40006702509168026091690270916A02809104
:101E50006B0290916C020C949A0C0F931F93CF938A
:101E6000DF9380916C0282958F7009F05DC0809144
:101E70006902882309F458C0809135021091360216
:101E80006091670270916802C0916A02D0916B0202
:101E900091E06F3F09F090E0292F06E0811709F4E7
:101EA00043C0209721F07F3F21F030E003C031E0B4
:101EB00001C0322F90E030FD34C0089FF001099F2F
:101EC000F00D1124DF01A95CBD4F11963C911197D3
:101ED000371327C03C91361324C012963C911297B9
:101EE00031111FC013964D915C9114974C1B5D0BE3
:101EF000483C5105B0F480916C028F7080618093F2
:101F00006C02E45CFD4F80818F708061808387E686
:101F100092E00E94110CDF91CF911F910F910C94D0
:101F2000FE0E01968770BACFDF91CF911F910F916E
:101F300008959F92AF92BF92CF92DF92EF92FF925D
:101F40000F931F93CF93DF93CDB7DEB761970FB693
:101F5000F894DEBF0FBECDBF8C0185E0F801DE0135
:101F60001D9601900D928A95E1F7F801E28090911B
:101F700067026091680220916A0230916B0221151C
:101F8000310531F06F3F31F481E09F3F19F403C018
:101F900081E001C080E0F82FF1709F2E80FD3FC1ED
:101FA000F80140815181A380B48087E6C82E82E089
:101FB000D82EF0906902F501E21BF30BFF2009F423
:101FC000D9C080916C02E83CF10508F095C0282F3B
:101FD000207F09F052C0561313C0491311C0FE2CC4
:101FE000E1100EC08F70806180936C020E941F0F01
:101FF000C6010E94110C80916C02F80185834CC1CE
:10200000AB2831F05F3F31F481E04F3F19F403C05A
:1020100081E001C080E080FD03C081E08E2502C028
:1020200080E090E0F82FF170FF2E80FF1CC08091BF
:1020300035022091360236E0821709F40BC190E098
:10204000389FF001399FF00D1124E95CFD4F61814B
:10205000561306C06081461303C06281E61203C0B6
:1020600001968770E9CFFE2CEE2009F415C180910E
:102070006C02816080936C0254C0561306C04913F1
:1020800004C0E11002C0F80199C0C8010E94830C8D
:10209000882361F1EE2051F120916C02822F82950C
:1020A0008F7090E0029774F08091670290916802BF
:1020B00098878F831986BB86AA862C87CE010796C0
:1020C0000E94110C86E0F801A7E6B2E001900D92A3
:1020D0008A95E1F70E942D0F0E941F0F0AC0561724
:1020E00011F1C8010E94830C81112CC0C8010E940B
:1020F000110CFF24F394D0C0282F207F81F77A2D74
:10210000B98AA88A6E2D89890E948B0C87E692E095
:102110000E94110C86E0F60111928A95E9F70E945F
:102120001F0FF12CB9C04913DCCFE110DACFF80151
:102130008583C8010E94110C86E0F60111928A95F0
:10214000E9F7AAC0EE2091F220916C02822F8295CD
:102150008F7090E002970CF4B5CF80916702909158
:1021600068029A8389831B82BD82AC822E83CE0152
:102170000196A6CFE83CF10508F044C0FE2CEE2005
:1021800009F4B4CF561330C049132EC020916C020D
:1021900020FD21C0822F82958F70482F50E041157D
:1021A0005105C9F0F80125834F30510541F08F5F8B
:1021B000982F9295907F822F8F70892B8583C801ED
:1021C0000E94110C86E0F801A7E6B2E001900D92A2
:1021D0008A95E1F73CC086E0F801A7E6B2E00190FD
:1021E0000D928A95E1F758C0C8010E94830C8111B5
:1021F00069CF80916C02816080936C02C8010E945B
:10220000110C4AC07A2DB98AA88A6E2D89890E943C
:102210008B0C86E0F60111928A95E9F718C0EE2042
:1022200009F464CFC8010E94830CF82E882309F4B6
:102230005DCF86E0F801A7E6B2E001900D928A95A5
:10224000E1F787E692E00E9491080E942D0F0E941C
:102250001F0F22C04D875E878D859E850E94530E7D
:10226000292F22952F70223028F49F7039F0811188
:1022700005C00BC0243028F49F7049F4805E88307C
:1022800020F0C8010E94110C9F2CF92C05C0F80108
:102290009581907F99F7F9CF8F2D61960FB6F894BD
:1022A000DEBF0FBECDBFDF91CF911F910F91FF9089
:1022B000EF90DF90CF90BF90AF909F9008951F93C5
:1022C000CF93DF93CDB7DEB72C970FB6F894DEBF70
:1022D0000FBECDBF4F83588769877A878B879C87CE
:1022E000CE0107960E94990F8823D1F09F8188859F
:1022F0002A853B85232B31F08F3F31F481E09F3FCE
:1023000019F403C081E001C080E080FD47C04F8127
:10231000588569857A858B859C850E949A0C3EC07C
:1023200086E0FE013796DE01119601900D928A95A6
:10233000E1F7FF81E8856A857B856115710531F0DC
:10234000EF3F31F481E0FF3F19F403C081E001C0A9
:1023500080E080FD23C02091360230E0C901019663
:10236000877099274091350250E084179507F1F165
:10237000F983EA837D836C8396E0929FD001939FDB
:10238000B00D1124A95CBD4FFE01319601900D9254
:102390009A95E1F7809336020E94FE0E16E0809136
:1023A000350290913602891771F1189FC0011124EE
:1023B000895C9D4F0E94990F882329F1E091350295
:1023C0001E9FF0011124E95CFD4F40815181628123
:1023D0007381848195810E949A0C8091350290E0EE
:1023E00001968770992780933502D9CF0E945B0CA4
:1023F0001092360210923502E7E6F2E086E0DF0145
:102400001D928A95E9F72C960FB6F894DEBF0FBEA1
:10241000CDBFDF91CF911F91089580916D02859579
:1024200085958595089580916D02877008959091A6
:102430006D02977081E009F480E00895CF93909148
:10244000C00292FB222720F92817E1F0C82F892F1C
:10245000C0FB82F98093C0028091BF029091C002BC
:102460000E943C1380918D0280FF0CC01F92CF937D
:1024700087E793E09F938F930E942D070F900F9013
:102480000F900F90CF9108958091C00282FB882712
:1024900080F991E089270C941E1281E00C941E12A1
:1024A00080E00C941E128091790208959091790237
:1024B000892B8093790208958095909179028923E0
:1024C000809379020895109279020895909178028C
:1024D000892B8093780208958095909178028923C2
:1024E000809378020895109278020895909177026F
:1024F000892B8093770208958095909177028923A4
:1025000080937702089510927702089580916E0269
:10251000089508950C9489120C948A129091C00227
:1025200092FD08C090916E02981721F080936E0280
:102530000C948C12089580916E02882329F01092D9
:102540006E0280E00C948C120895E0910001F091ED
:102550000101809179028083E0910001F0910101F5
:10256000908180917802892B8083E0910001F09125
:102570000101908180917702892B808380916E0286
:10258000882381F0E0910001F09101019081892B75
:10259000808380910001909101010E94F1218111BD
:1025A0000E949B1280910001909101010C946E2178
:1025B0000C9489129091C00292FD10C098E0899FFE
:1025C00090011124262B20936D020E941C0D8091F6
:1025D0006D028595859585950C94D8120C941C0DEB
:1025E00010926D0280E00C94D81220916D028095BB
:1025F000822380936D02982F977041F430E0482F2A
:10260000082E000C550B2417350721F49091C002B9
:1026100092FF07C08595859585950E943D0D0C9488
:10262000F01208956FEF7FEF80E090E00C941F2B85
:1026300080E090E00E94FB2A21E0893E9E4F09F055
:1026400020E0822F089582E090E00C94F32A83E04A
:1026500090E00C94F32ACF9384E090E00E94F32A58
:10266000C82F82E290E00E94F32A2C2F30E0A901CB
:10267000582BCA01CF910895CF93C92F682F84E0BA
:1026800090E00E94012B6C2F82E290E0CF910C949D
:10269000012BAB01BC018FE090E00C94132BAB013C
:1026A000BC0183E190E00C94132B60E070E0CB015F
:1026B0000C944F1360E070E0CB010E9449130C941E
:1026C000551369EE7EEF80E090E00E941F2B60E0E2
:1026D00082E090E00E94012B60E083E090E00E94A5
:1026E000012B10923102109232021092330210929A
:1026F000340260E084E090E00E94012B60E082E21E
:1027000090E00E94012B60E085E090E00E94012BA8
:1027100060E086E090E00E94012B6FEF87E090E0A0
:102720000E94012B40E050E0BA0188E090E00E9456
:10273000132B60E08DE090E00E94012B40E050E020
:10274000BA0188E190E00E94132B60E087E190E0FD
:102750000E94012B40E050E0BA018CE190E00E9421
:10276000132B60E070E080E290E00E941F2B40E0BD
:1027700050E0BA0188E190E00E94132B0C945A13A8
:102780000C946113682F8EE090E00C94012B0E9452
:10279000D3226093890270938A0280938B02909374
:1027A0008C026093850270938602809387029093D7
:1027B0008802089585B7806885BF85B7806885BF22
:1027C000089581E008950C94E11308950C94E513A5
:1027D0000C94E5130C94E8130C94E5130C94EC138F
:1027E0000C94E5130E94DA1380EF94E20E943823E0
:1027F0000E94F0130C94EE130E94E6130C94E51360
:102800000E94BE220E9451180C94EA13CF93C82F45
:1028100080918D0282FF1EC080FF04C083E993E097
:102820000E94940680918D0280FF0CC01F92CF936E
:102830008EE893E09F938F930E942D070F900F9047
:102840000F900F9080918D0280FF04C08CE893E080
:102850000E9494068C2FCF910C943E086F927F9229
:102860008F929F92AF92BF92CF92DF92EF92FF92A0
:102870000F931F93CF93DF93CDB7DEB72A970FB691
:10288000F894DEBF0FBECDBF0E94641881110E9474
:10289000C7133BE7832E32E0932E00E010E0C02EFA
:1028A000802F0E9437175C01F401619071904F01F5
:1028B0006826792661147104B1F40F5F1F4F05304B
:1028C000110569F78FEF89838A831B820E94C722D3
:1028D0008160782F9D838C8349815A816B818D81A2
:1028E0000E9447083AC080918D0281FD0E944017E6
:1028F000D12CEE24E394F12CC3018E219F21892B4E
:1029000029F10E94E3138823A9F0DE82CF82AE2052
:10291000BF2081E0AB2809F480E088870E94C722AD
:102920008160782F9A8789874E815F8168858A8543
:102930000E944708000F111FF801E558FD4F8081E4
:102940009181E826F926F182E08207C0D394EE0C4B
:10295000FF1CFFE0DF12D0CFB0CF0E941B1E0E94F1
:10296000622190917A028917D1F00E9462218093AE
:102970007A022A960FB6F894DEBF0FBECDBFDF9164
:10298000CF911F910F91FF90EF90DF90CF90BF906C
:10299000AF909F908F907F906F900C9406142A9622
:1029A0000FB6F894DEBF0FBECDBFDF91CF911F9160
:1029B0000F91FF90EF90DF90CF90BF90AF909F90DE
:1029C0008F907F906F90089580E090E00895089533
:1029D0002BE4829FC0011124FC012FE0729FE00DC7
:1029E000F11D1124E60FF11DEE0FFF1FE450FF4F04
:1029F000859194910895880F991FFC01EA55FC4F29
:102A0000859194910895CF93DF930E942416EC0151
:102A1000811520E5920708F03FC0811540E4940736
:102A200008F0D2C0883E910500F5803E910508F07F
:102A300002C1883A910570F4853A910508F0A6C064
:102A40008130910509F49FC008F4F2C0049708F0A2
:102A5000F2C0EEC08F3B910508F4A1C0803C910507
:102A600008F4E6C0805C9109A5C0811550E2950785
:102A700060F4C11581E0D80708F0DDC0CD3ED10576
:102A800008F4D6C0CE019065D7C0811520E3920727
:102A900008F093C09F708EC0811545E5940708F03B
:102AA00046C0811554E5950708F0A6C0C11582E51A
:102AB000D80718F5C11521E5D20708F088C0CE0166
:102AC000F4E096958795FA95E1F7282F23703C2F2F
:102AD000337081E090E002C0880F991F3A95E2F7C9
:102AE0009C68922B2C2F2F702695269540E2249FD0
:102AF00090011124822B932B9FC09E0123703327BA
:102B00009C2F96959695C115D34508F065C041E078
:102B100050E002C0440F551F2A95E2F780E2989FCB
:102B200090011124CA01822B932B9C6885C08115CA
:102B300059E5950798F4C11588E5D80708F061C0F4
:102B4000C11526E5D20708F073C08C2F0E94B81675
:102B50008F7190E0982F882790626EC081154AE5AA
:102B6000940708F453C090568115904208F060C055
:102B70008D2F8F710E94B8169E01332730628F719E
:102B8000A901582B53C081E090E056C0855AC82F48
:102B9000D0E0CC58DE4F888190E090644DC0885AD8
:102BA000C82FD0E0CC0FDD1FCA5BDE4F8881998132
:102BB000946442C00E94FB143FC09927D3FF02C017
:102BC000986C3AC0906C38C09F70906A35C09C2F4A
:102BD0008827816F906A30C041E050E002C0440F06
:102BE000551F2A95E2F780E2989F90011124CA01AF
:102BF000822B932B9A6820C0982F8827846F906A25
:102C00001BC09C2F8827806F906A16C08F700E940F
:102C1000B8169E0194E0369527959A95E1F72F70A6
:102C200030E0322F22273069A901482BCA0104C0A5
:102C300080E090E001C0CE01DF91CF9108950E9425
:102C4000E8140E94031508958238910569F1B0F4E3
:102C50008133910509F46DC048F48932910509F476
:102C600063C08A32910509F469C0089585339105DE
:102C700009F455C089339105B9F00895833E910553
:102C800069F138F4803E9105B1F0823E910509F179
:102C90000895863E9105A9F1873E9105B9F1843EDC
:102CA000910509F064C023C02091BF0220FD4FC0F0
:102CB00021FD4DC008958091BF0280FD44C08091E8
:102CC000C00280FF44C08091BF0284FD42C083EEF9
:102CD0004DC08091BF0282FF38C0F5CF8091BF0206
:102CE00082FD33C08091C00280FD31C0ECCF809165
:102CF000C00281FF32C08091BF0284FD2AC087EEEE
:102D000035C08091BF0283FF26C0F5CF8091BF02FE
:102D100083FD21C08091C00281FD1FC0ECCF809156
:102D2000BF0285FD1CC01DC08091BF0285FD19C07A
:102D300016C08091BF0286FD16C017C08091BF02E9
:102D400086FD13C010C089E311C082EE0FC080EE73
:102D50000DC080E00BC086EE09C084EE07C089E29A
:102D600005C085E303C08AE201C081E390E00895D5
:102D70009091BF0292FF0DC0282F2871283019F4BE
:102D8000877F846006C0282F2471243011F48B7F44
:102D9000886093FF0DC0282F2871283119F4877E91
:102DA000846106C0282F2471243111F48B7E886140
:102DB0002091C00220FF0DC0382F3871383019F42F
:102DC000877F816006C0382F3171313011F48E7FDA
:102DD000886021FF0DC0282F2871283119F4877EC3
:102DE000816106C0282F2171213111F48E7E886106
:102DF00094FD877E08950C9412130E9464188FE34B
:102E00009CE90197F1F700C000000E94641880E07F
:102E10000E94371780FF04C00E94FB160C941423F5
:102E200008950C94FD160E941813811102C00E948F
:102E3000C0130E94231380938D020E942B13909342
:102E4000C0028093BF020E9411170E942713682FAF
:102E500070E080E090E00E94BC0C60912D027091C7
:102E60002E0280912F02909130020C94F40CE82FE6
:102E7000F0E0EE0FFF1FE553FD4F80819181089533
:102E8000CF92DF92EF92FF920F931F93CF93DF9336
:102E900086EB93E00E9494068BECE82E82E0F82EFD
:102EA000C0E0D0E091EBC92E93E0D92E08EA13E000
:102EB000DF93CF93DF92CF920E942D078EEA93E0AB
:102EC0000E949406F701819191917F010E9423084D
:102ED0009F938F931F930F930E942D0786EA93E091
:102EE0000E94940621968DB79EB708960FB6F89467
:102EF0009EBF0FBE8DBFC530D105D1F6DF91CF91FA
:102F00001F910F91FF90EF90DF90CF90089580EA8E
:102F10008A95F1F7089500C008950C9487170895D5
:102F20000C948F170C9490170C948F170C94941783
:102F3000F894E82FE295EF70F0E031A1282F2F7080
:102F400081E090E001C0880F2A95EAF7982F9095CC
:102F5000932391A392A1892B82A3789408950F9330
:102F60001F93CF93DF93C7E7D1E089918F3F11F093
:102F70000E94981781E0C638D807B9F7C6E8D1E0B3
:102F80000BE811E089918F3F11F00E9498170C1700
:102F90001D07C1F7DF91CF911F910F910895CF9237
:102FA000DF92FF920F931F93CF93DF93062F10E0D2
:102FB00009581E4FD8012C912F3F09F46AC0C62F23
:102FC000D92FF82EF894E22FE295EF70F0E031A1BE
:102FD0002F70CC24C394D12CC60101C0880F2A9530
:102FE000EAF7932F982B91A392A18095892382A32E
:102FF00078940E948B1796010C2E02C0220F331F6B
:103000000A94E2F7B9016095709596E8C92E91E0AF
:10301000D92EEF2DFD2FAF01465F5F4FD0E0D601D7
:10302000FD906D01BFEFFB16C9F08F2D82958F705B
:1030300090E0DC0190968C9190E0BF2DBF7002C0B3
:1030400095958795BA95E2F780FD08C080819181BA
:10305000822B932B91838083D1E006C08081918164
:1030600086239723918380833296E417F507B9F678
:10307000F80180818F3F11F00E9498176D2F8C2FDF
:10308000DF91CF911F910F91FF90DF90CF900C9423
:103090008D17DF91CF911F910F91FF90DF90CF900F
:1030A00008950E94AF17E1ECF2E0ABECB2E01192B0
:1030B00011921D921D9282E0EB3CF807C1F785E06A
:1030C0000E94AF180C948807FF920F931F93CF9321
:1030D000DF93CDB7DEB72A970FB6F894DEBF0FBEE9
:1030E000CDBF8E010F5F1F4F8AE0F80111928A95C4
:1030F000E9F7F12C6F2DC8010E94CF17F394FFE080
:10310000FF12F8CF4AE050E0B80181EC92E00E9453
:10311000E62AFF24F394009709F4F12C892B41F05F
:103120008AE0F801A1ECB2E001900D928A95E1F7F6
:103130002F2D45E06BEC72E081EC92E00E94B0181C
:103140000E948E078F2D2A960FB6F894DEBF0FBE11
:10315000CDBFDF91CF911F910F91FF9008950895FA
:10316000FF920F931F93CF93DF93F82E092F162F03
:10317000D72FC42F222349F081E0809390020E9430
:10318000C72290938F0280938E02809190028823B1
:10319000D9F080918E0290918F020E94DF220597D4
:1031A00098F0EF2DF02FA12FBD2F80E090E04C2F55
:1031B00050E08417950734F4219131912D933D937C
:1031C0000196F7CF10929002DF91CF911F910F914E
:1031D000FF9008950E943E220E9453250E946C2574
:1031E0000E9482250E94FC13FBCF809102011F9256
:1031F0008F93809103011F928F93809106011F92FC
:103200008F93809107011F928F93809108011F92E5
:103210008F93809109011F928F938DEC93E09F9380
:103220008F930E942D078DB79EB70E960FB6F89418
:103230009EBF0FBE8DBF0895883220F58E3108F0F5
:1032400068C08B3091F1C0F4873009F0BEC08EE1C8
:103250008093090182E3809308018AE0809307014B
:1032600084E18093060188E08093030188E28093E3
:1032700002018FE295E0C6C0833109F443C0843176
:1032800069F1A3C08F3409F49EC028F4893231F16A
:10329000883359F09AC0813531F008F4D4C08235B2
:1032A00009F4A7C092C08FEFA5C081E595E00E9408
:1032B00094060E94F5181F9281E08F931F9285E07B
:1032C0008F938AE494E09F938F930E942D070F9031
:1032D0000F900F900F900F900F9096C08EE495E096
:1032E0000E94940680919502882309F4AAC0109246
:1032F00095021092940210929302109292021092F0
:103300009102B1C080E495E00E9494060E94F518F5
:103310007BC08D5180939502833031F170F4813000
:10332000D1F0823009F03FC088E091E090939402A0
:103330008093930288E991E01FC0853059F108F12C
:10334000863089F582E091E0909394028093930215
:1033500083ED91E011C089E091E090939402809315
:1033600093028FE891E008C087E091E09093940287
:103370008093930284EA91E0909392028093910269
:1033800018C086E091E0909394028093930281EBC1
:1033900091E0F2CF83E091E09093940280939302C6
:1033A00080EC91E0E9CF109295028DE395E00E94C8
:1033B000940680919502882309F455C01F928F933B
:1033C00089E395E00DC08AE015C08CE295E01AC053
:1033D00097FF47C0108280811F928F9386E295E00D
:1033E0009F938F930E942D070F900F900F900F9037
:1033F0000BC081E0E0919302F0919402309729F59F
:1034000083E295E00E94940620919502222359F1CF
:103410008091910290919202009711F48BE891E0D3
:103420009F938F931F922F938AE195E09F938F93A1
:103430000E942D070F900F900F900F900F900F90FC
:1034400016C080E0089586EFD5CF2081082E000CAD
:10345000990B820F911D8F3F910509F00CF4B8CFA5
:103460008FEF8083B8CF86E195E00E94940681E0DB
:103470000895CF93C82F1F928F9387E695E09F936F
:103480008F930E942D0781E090E0A0E0B0E0BC01A6
:10349000CD0104C0660F771F881F991FCA95D2F708
:1034A0000E94BC0C0F900F900F900F90CF910C9436
:1034B0005B0CEF92FF920F931F93CF93DF938B31AF
:1034C00009F4EDC008F08EC08B3009F4B1C008F0EB
:1034D00078C0863009F4AFC020F4853009F4BDC04F
:1034E0004EC1873009F4C0C0883009F048C10E943D
:1034F00027131F928F938CE999E09F938F930E94DB
:103500002D070E94231383FB992790F91F929F9305
:1035100082FB992790F91F929F9381FB992790F93D
:103520001F929F93982F91701F929F931F928F933A
:1035300083E599E09F938F930E942D070E942B13A0
:1035400087FB222720F91F922F9386FB222720F941
:103550001F922F9385FB222720F91F922F9384FB24
:10356000222720F91F922F9383FB222720F91F92F5
:103570002F9382FB222720F91F922F9391FB222762
:1035800020F91F922F93292F21701F922F9381FBD7
:10359000222720F91F922F93282F21701F922F93FB
:1035A0009F938F938EE698E09F938F930E942D07B1
:1035B0008DB79EB788960FB6F8949EBF0FBE8DBF8D
:1035C00035C0803109F495C020F48E3009F47BC0F9
:1035D000D6C0863109F4A8C0893109F0D0C087ED82
:1035E00095E084C08A32E1F060F4873209F4C3C008
:1035F00028F48E3108F4C3C08D51BEC0893269F100
:10360000BEC0833448F48A3308F0B3C0853309F46C
:10361000B2C0883369F0B3C0833409F4ACC0AFC022
:1036200087E49AE00E9494060E94C013C1E0ACC0F7
:103630008BEC96E05BC080918D02817F8E7F8093C2
:103640008D0284EA96E00E94940683E49AE00E9448
:10365000940681E080939602E9CF87E29AE00E9487
:1036600094060E949107E2CF80918D02C82FC095E9
:10367000C170C0FB80F980938D02CC2329F08BE1CF
:103680009AE00E94940680C08EE09AE00E94940620
:1036900080918D02897F877F80938D02C7CF909123
:1036A0008D0291FBCC27C0F981E0C827892FC0FB90
:1036B00081F980938D02CC2319F081E09AE029C032
:1036C00083EF99E013C090918D0292FBCC27C0F953
:1036D00081E0C827892FC0FB82F980938D02CC231B
:1036E00019F084EE99E015C084ED99E00E949406EB
:1036F0009DCF90918D0293FBCC27C0F981E0C82724
:10370000892FC0FB83F980938D02CC2351F088EC84
:1037100099E00E94940680918D02816080938D02D1
:1037200033C08BEB99E0E2CF0E94D322162F072FF4
:10373000F82EE92ED091BE02C09114010E946221A0
:10374000EF92FF920F931F931F92DF931F92CF93DD
:103750001F928F938CE695E09F938F930E942D0785
:103760008DB79EB70C960FB6F8949EBF0FBE8DBF57
:103770005DCF895301C080E00E94391A57CF89EB91
:1037800099E00E949406C0E08C2FDF91CF911F91A9
:103790000F91FF90EF90089580E008950C94CC1B5A
:1037A000CF93C82F80919602813071F040F0823023
:1037B00009F045C08C2F0E941C1981E046C00E9470
:1037C00053128232F1F504C00E945312823261F426
:1037D0008C2F0E94CE1B811104C08C2F0E94591A7D
:1037E0002CC081E090E029C08C2F0E94CC1B81115D
:1037F00023C0C431C9F058F4CB3069F0C031B9F4FA
:1038000082E08093960288E30E941C1915C0C93299
:1038100059F0C83361F484EA96E00E94940683E686
:1038200095E00E94940608C0109296020CC081E6B2
:1038300095E00E94940607C081E0817006C0109256
:10384000960280E002C080E0F8CFCF910895809189
:103850009D0280FF0BC06091070185E0689FB00169
:10386000112475956795759567952BC081FF09C0E3
:103870006091070185E0689FB001112475956795F7
:1038800020C082FF07C06091070185E0689FB001FA
:10389000112417C090919C029923D1F060910601E8
:1038A000961788F72091070185E0289F9001112441
:1038B000929FA001939F500D112470E0CA010E94B5
:1038C000B82A6038710540F46115710519F406C015
:1038D00065E070E0862F08958FE7089581E00895F0
:1038E00080919D0280FF08C06091030170E0759592
:1038F00067957595679521C081FF06C060910301AA
:1039000070E07595679519C082FF04C0609103014E
:1039100070E010C090919B02992399F06091020190
:103920009617A0F780910301899FC001112470E0D0
:103930000E94B82A6038710540F46115710519F4C8
:1039400006C061E070E0862F08958FE7089581E05A
:1039500008958D3E21F40E94271C819504C08E3E5F
:1039600029F40E94271C8093A10208958F3E21F420
:103970000E94271C819504C0803F29F40E94271CC7
:103980008093A0020895893F19F40E94701C05C01D
:103990008A3F31F40E94701C81958093A2020895A1
:1039A0008B3F21F40E94701C819504C08C3F29F448
:1039B0000E94701C8093A30208959FE0980F983096
:1039C00078F421E030E0A90102C0440F551F9A9518
:1039D000E2F7CA0190919F02892B80939F0208957C
:1039E0008D3F21F480919D0281600BC08E3F21F4B8
:1039F00080919D02826005C08F3F29F480919D02D5
:103A0000846080939D0208958D3E39F49091A102C7
:103A100097FF35C01092A10259C08E3E29F49091B3
:103A2000A1021916BCF32BC09091A0028F3E29F47D
:103A300097FF25C01092A00249C0803F19F41916C3
:103A4000CCF31DC09091A202893F29F41916BCF451
:103A50001092A2023BC08A3F19F497FF10C0F8CF22
:103A60008B3F39F49091A30297FF09C01092A302F3
:103A70002DC08C3F21F49091A3021916BCF39FE056
:103A8000980F983080F421E030E0A90102C0440F83
:103A9000551F9A95E2F7CA01809590919F0289235C
:103AA00080939F0213C08D3F21F480919D028E7FF1
:103AB0000BC08E3F21F480919D028D7F05C08F3F0A
:103AC00029F480919D028B7F80939D028091A002BA
:103AD000811106C08091A102811102C010929C0246
:103AE0008091A202811106C08091A302811102C0BF
:103AF00010929B02089580918D0283FF7EC08FE714
:103B00009AE00E94940680919F021F928F938AE709
:103B10009AE09F938F930E942D0788E79AE00E9476
:103B200094068091A002282F082E000C330B3F939F
:103B30008F9385E79AE09F938F930E942D0783E7E9
:103B40009AE00E9494068091A102282F082E000C72
:103B5000330B3F938F9380E79AE09F938F930E945C
:103B60002D078EE69AE00E9494068091A202282FEB
:103B7000082E000C330B3F938F938BE69AE09F93B4
:103B80008F930E942D0789E69AE00E949406809107
:103B9000A302282F082E000C330B3F938F9386E649
:103BA0009AE09F938F930E942D0783E69AE00E94EC
:103BB000940680919C021F928F9380E69AE09F93D7
:103BC0008F930E942D078EE59AE00E9494068091C3
:103BD0009D021F928F938BE59AE09F938F930E9493
:103BE0002D0788E59AE00E9494068DB79EB74C9603
:103BF0000FB6F8949EBF0FBE8DBF0E94C7222091C2
:103C0000A002211104C02091A102222321F090934F
:103C10009A02809399022091A202211104C020915E
:103C2000A302222321F090939802809397028EE9B9
:103C300092E00C94B721EF92FF920F931F93CF93D2
:103C4000DF9300D000D000D0CDB7DEB786E0EEE93C
:103C5000F2E0DE01119601900D928A95E1F7E09075
:103C6000A002F090A1020091A2021091A302109272
:103C7000A0021092A1021092A2021092A302E110DF
:103C800003C0FF2009F45DC08091990290919A02CF
:103C90000E94DF22AC0190919C02992339F020917F
:103CA000080130E02417350758F04BC02091090176
:103CB0008AE0289F900111242417350718F041C08D
:103CC0009F3F19F09F5F90939C02EE2061F00E944D
:103CD000271C1E1414F09FEF01C091E0989F902DB7
:103CE00011249093A002FF2061F00E94271C1F1452
:103CF00014F09FEF01C091E0989F902D11249093B4
:103D0000A1023091A0023323E1F02091A1022223ED
:103D1000C1F045EB3403C0011124992319F09093AD
:103D2000A00203C081E08093A00235EB2303C00111
:103D30001124992319F09093A10203C081E080938C
:103D4000A102011103C0112309F45DC08091970203
:103D5000909198020E94DF22AC0190919B029923DE
:103D600039F02091040130E02417350758F04BC09A
:103D7000209105018AE0289F90011124241735071E
:103D800018F041C09F3F19F09F5F90939B02002362
:103D900061F00E94701C101614F09FEF01C091E0BA
:103DA000989F902D11249093A202112361F00E94FC
:103DB000701C111614F09FEF01C091E0989F902D98
:103DC00011249093A3023091A2023323E1F02091B9
:103DD000A3022223C1F045EB3403C001112499232F
:103DE00019F09093A20203C081E08093A20235EB08
:103DF0002303C0011124992319F09093A30203C057
:103E000081E08093A3028091A00281110BC0809178
:103E1000A102811107C08091A202811103C080918B
:103E2000A30281110E947B1DEB82FC820D831E8305
:103E300086E0FE013196AEE9B2E001900D928A95DE
:103E4000E1F726960FB6F894DEBF0FBECDBFDF9127
:103E5000CF911F910F91FF90EF900895EEE9F2E05E
:103E600086E0DF011D928A95E9F710929C0210927C
:103E70009B0210929D0208950F931F93CF93DF939F
:103E8000C42FD22FFC0182818823C9F04093A6025F
:103E90000E94C7229093A5028093A40280E28C0F17
:103EA000883008F057C0C77081E001C0880FCA95FC
:103EB000EAF7DF91CF911F910F910C94CE09809179
:103EC000A602481330C08091A4029091A5020E94DE
:103ED000DF22883C910538F510E21D0FCD17B9F0AF
:103EE00080E28C0F883040F4C77081E001C0880FF9
:103EF000CA95EAF70E94D509183028F581E09D2F70
:103F0000977001C0880F9A95EAF70E94CE09802F1A
:103F10000E94C5091830F0F4D77081E001C0880F05
:103F2000DA95EAF70AC080E28C0F883098F4C770FF
:103F300081E001C0880FCA95EAF7DF91CF911F9108
:103F40000F910C94D509802FDF91CF911F910F9184
:103F50000C94C509DF91CF911F910F9108950F9394
:103F60009C01CB01243F4CE5340731F188F4293D15
:103F7000FCE53F07D9F02A3D4CE5340779F1283DAF
:103F80003C45A9F506E221EE41EE68ED7CE52BC04B
:103F9000263FFCE53F07E1F0A8F0273F3C4539F517
:103FA00007E225EE46EE67EF7CE51DC007E225EE51
:103FB00045EE69ED7CE517C006E221EE40EE64EFC8
:103FC0007CE511C007E225EE44EE65EF7CE50BC011
:103FD00006E221EE42EE66EF7CE505C008E221E054
:103FE00045EE6AED7CE50E943C1F80E008C0FC01C4
:103FF0008281882319F01092A60201C081E00F91FE
:104000000895CF93DF93EC01FB018281882309F4AB
:104010001FC1C230FCE5DF0708F41BC1C6319CE5B7
:10402000D90738F09E012B5F3C452930310508F057
:1040300010C10E942B139093C0028093BF02C03125
:10404000ECE5DE0709F4C3C008F041C0C8308CE5D8
:10405000D80709F49AC0F0F4C430ECE5DE0709F49F
:1040600087C068F4C2308CE5D80709F477C0C33044
:10407000DC4509F0E3C08091BF02826076C0C630A3
:10408000ECE5DE0709F46EC008F07BC08091BF024A
:1040900088606BC0CC308CE5D80709F485C068F423
:1040A000CA30ECE5DE0709F474C008F079C00E945C
:1040B0005B0C8091BF02806858C0CE308CE5D80779
:1040C00009F476C008F07FC08091BF028BC0CC3F5E
:1040D000ECE5DE0709F44FC018F5C3318CE5D807CD
:1040E00009F47DC078F4C131ECE5DE0709F473C052
:1040F000C231DC4509F0A2C00E945B0C8091BF0276
:104100008F7733C0C5318CE5D80709F472C008F445
:1041100086C0CB3FDC4509F091C08091C0023EC013
:10412000C115FDE5DF0709F45FC058F4CE3F9CE5FB
:10413000D90709F444C008F43FC08091C0028260EE
:104140002DC0C230FDE5DF0709F475C008F45DC07D
:10415000C330DD4509F072C080E06EC08091BF02BF
:10416000816003C08091BF0280618093BF0266C0FE
:104170008091BF0211C08091C00282608093C00212
:104180005DC08091BF028062F0CF8091BF028064E9
:10419000ECCF8091BF0288608460E7CF8160EECF72
:1041A0008091BF028E7FE1CF8091BF028D7FDDCFF6
:1041B0008091BF02877FD9CF8091C00218C08091C3
:1041C000C0028D7FDBCF8091BF028F7ECECF8091EA
:1041D000BF028F7DCACF8091BF028F7BC6CF8091F7
:1041E000BF02877F8B7FC1CF8091C0028D7F8E7F82
:1041F000C5CF8091BF0282FB222720F991E0922750
:1042000090FB82F990FB83F9B0CF8091C002982F88
:10421000909591708E7F892B90FB81F9AFCF0E9492
:104220005B0C8091BF0287FB222720F991E0922747
:1042300090FB87F99ACF81E00E94C2138091BF0260
:104240009091C0020E943C130E945B0C80E001C070
:1042500081E0DF91CF910895CF93DF9386319C4524
:1042600041F5EB010E945312982F8A8120910001A1
:1042700030910101882379F09A7A81E009F480E095
:104280008093A702911102C069E201C065E3C901F0
:104290000E9433220AC08091A702811102C069E204
:1042A00001C065E3C9010E9435220E94A51280E089
:1042B00001C081E0DF91CF9108959093AD0280938A
:1042C000AC020895E091AC02F091AD02309721F07C
:1042D0000190F081E02D099480E00895EF92FF9223
:1042E0000F931F93CF93DF93E091AC02F091AD0257
:1042F0003097B1F18C010280F381E02D0995809116
:104300008D0282FF2DC080FF04C08AEA9AE00E94DD
:104310009406E80118E084EAE82E8AE0F82E8091FD
:104320008D0280FF0BC088811F928F93FF92EF92C6
:104330000E942D070F900F900F900F901150219613
:104340001111EDCF80918D0280FF0AC082EA9AE0C0
:10435000DF91CF911F910F91FF90EF900C949406F5
:10436000DF91CF911F910F91FF90EF900895E09111
:10437000AC02F091AD02309739F022E0DC012C93D1
:104380000480F581E02D099408952091AA023091CE
:10439000AB022817390771F09093AB028093AA0201
:1043A000E091AC02F091AD02309721F00680F781E8
:1043B000E02D099408952091A8023091A9022817B0
:1043C000390771F09093A9028093A802E091AC02A2
:1043D000F091AD02309721F00084F185E02D099431
:1043E0000895FC01329697E080E0915029F02191E8
:1043F0002223D9F38F5FF9CF0895662349F0FC019A
:10440000329608962191621729F0E817F907D1F73B
:1044100080E0089581E008959C01FC0132969FEFB1
:1044200080E04191461789F09F3F19F4411101C086
:10443000982F8F5F8630A9F79F3F39F0F901E90F78
:10444000F11D97FDFA956283089508959C012A5FF6
:104450003F4FFC014281461301C012820196821730
:104460009307B9F708950C940C220C942622029617
:1044700026E0FC0111922A95E9F708950895089520
:104480000C943F220C943F22CF930E9442220E9420
:1044900064180E944022C0E08C2F0E943717892B9D
:1044A00029F4CF5FC530C1F780E001C081E0CF9132
:1044B00008950C943F220C9459228091DD0284309F
:1044C00049F10E945B2280E00E943E081092AE02F9
:1044D00020E488E190E00FB6F894A89580936000FE
:1044E0000FBE2093600083B7817F846083BF83B752
:1044F000816083BF7894889583B78E7F83BF0FB622
:10450000F894A89580916000886180936000109273
:1045100060000FBE08950C943F220E945B0C0E9425
:1045200062210E943E080C948B221F920F920FB6BC
:104530000F9211248F939F93AF93BF938091AE02FC
:10454000811113C08091D5029091D602A091D7021B
:10455000B091D8024196A11DB11D8093D5029093D0
:10456000D602A093D702B093D802BF91AF919F918A
:104570008F910F900FBE0F901F90189582E084BD11
:1045800093E095BD9AEF97BD80936E0008952FB785
:10459000F8948091D5029091D602A091D702B09163
:1045A000D8022FBF08952FB7F8946091D50270916B
:1045B000D6028091D7029091D8022FBF08959C0116
:1045C0004FB7F8948091D5029091D602A091D7026E
:1045D000B091D8024FBF821B930B089578941F921D
:1045E0000F920FB60F9211248F939F93AF93BF93A7
:1045F0008091D5029091D602A091D702B091D802B5
:104600000196A11DB11D8093D5029093D602A0936F
:10461000D702B093D802BF91AF919F918F910F9025
:104620000FBE0F901F90189581E08093E00080E20C
:104630008093D8001092C9008FE19EE40197F1F7B2
:1046400000C0000087E090EBDC018093E6029093CD
:10465000E702A093E802B093E9029CE088E10FB67C
:10466000F894A895809360000FBE90936000FFCFF0
:104670009093F9018093F80108958091BD02089507
:104680009091DD02943031F58093B1027093B302C2
:104690006093B20282E08093E9008FEF9091E8008E
:1046A000815095FD06C095ED9A95F1F700008111B6
:1046B000F5CF8091E80085FF0DC040E050E063E059
:1046C00070E081EB92E00E940F268091E8008E77E7
:1046D0008093E8000895BC0184E00C944023BC0161
:1046E00083E00C94402322E02093E9002FEF3091E7
:1046F000E800215035FD06C035ED3A95F1F7000090
:104700002111F5CF2091E80025FF0BC040E050E0DB
:1047100066E070E00E940F268091E8008E7780931B
:10472000E8000895CF93DF9321E02093E9002FEF75
:104730003091E800215035FD06C035ED3A95F1F78E
:1047400000002111F5CF2091E80025FF14C0EC01F5
:1047500040E050E068E070E00E940F268091E800A1
:104760008E778093E80088E0FE01A5EBB2E001902F
:104770000D928A95E1F7DF91CF91089581EE9AE04D
:104780000E9494068091DC02811109C00E94A0273A
:104790000E94FD278091E20084608093E2000895EA
:1047A0008DED9AE00E9494061092DC02089589ED46
:1047B0009AE00C94940685ED9AE00C94940681EDB1
:1047C0009AE00C9494062091B0022F5F822F62E34E
:1047D0000E94AC2A992319F02093B00208951092F8
:1047E000B0028091B402882371F18091DD0284309F
:1047F00041F58091E9008F702091EC00922F91702B
:1048000020FD90E8892B93E09093E9009091EB00D4
:1048100090FF14C09091EE0097FF10C09091E800B7
:1048200095FF03C01092F100F9CF9091E80090FF3E
:1048300005C09091E8009E779093E8008F70809378
:10484000E9001092B402089542E061EC81E00E9418
:10485000192742E261EC82E00E94192742E261ECF2
:1048600083E00C9419278091DF02833009F460C043
:1048700030F4813071F0823009F499C008958A30A3
:1048800009F485C08B3009F46BC0893009F0A7C0EA
:1048900020C08091DE02813A09F0A1C08091E80039
:1048A000877F8093E8008091E2029091E302892B58
:1048B00021F468E085EB92E003C060E080E090E0E6
:1048C00070E00E945A268091E8008B778093E80080
:1048D00008958091DE02813209F081C08091E20268
:1048E0009091E302029708F07AC08091E800877FF8
:1048F0008093E8008091E80082FD05C08091DD0290
:104900008111F8CF6CC02091F3008091F20090E00B
:10491000922B029729F48091F1008B7F813021F452
:104920008091F1008093BD028091E8008B7753C0A5
:104930008091DE02813A09F052C08091E2029091AA
:10494000E302892B09F04BC08091E800877F8093B8
:10495000E8008091E80080FFFCCF8091140136C010
:104960008091DE028132D9F58091E2029091E302DA
:10497000892BA9F58091E800877F8093E8000E9449
:104980004E278091E002809314010C945B0C80917F
:10499000DE02813221F58091E800877F8093E80074
:1049A0000E944E278091E1028093BE02089580917B
:1049B000DE02813AA1F48091E800877F8093E800CD
:1049C0008091E80080FFFCCF8091BE028093F100CF
:1049D0008091E8008E778093E8000C944E2708952C
:1049E0009FB7F8941092B4029FBF9091DD0294306B
:1049F00009F057C09091E9009F703091EC00232F8F
:104A0000217030FD20E8922B23E02093E9002091D3
:104A1000EB0020FF43C02091EE0027FF3FC0209114
:104A2000AF02222321F02091E80025FF37C0109229
:104A3000AF0226E03091E80035FD15C03091DD026F
:104A4000343061F53091EB0035FD28C0215021F460
:104A500081E08093AF0222C0EFE9FFE03197F1F7E8
:104A600000C00000E7CF8093F1008091E80085FD51
:104A70000AC08091E80080FFFCCF8091E8008E772B
:104A80008093E80006C08FB7F89421E02093B40229
:104A90008FBF9F709093E90080E008959F7090937E
:104AA000E9008FEF089584B7877F84BF0FB6F8942D
:104AB000A8958091600088618093600010926000EA
:104AC0000FBE90E080E80FB6F89480936100909359
:104AD00061000FBE0C94F2130E94A0270E94FD27D4
:104AE000E2EEF0E080818460808378940E94912AD5
:104AF0000E9400148AE091E00E945D2180EC9AE01F
:104B00000C9494068091DD028530C9F48CEB9AE018
:104B10000E9494068091DD02853079F40E945D2226
:104B20008091DB028823B1F30E944422882391F311
:104B30000E94F9250E945B0CEDCF0E948D220C94FF
:104B40002E140C94A325292F332723303105C9F0C7
:104B500060F42130310581F02230310509F041C087
:104B60008BE590E023E33BE040C021323105E1F0EA
:104B70002232310531F135C082E190E02EE83BE090
:104B800034C099278130910549F028F0029749F502
:104B9000E5EEFAE005C0EFE2FBE002C0E3E0FBE097
:104BA000849190E09F0121C063307105D0F4660FBD
:104BB000771FFB01EF50FE4F2081318189E090E0AB
:104BC00014C06330710568F4FB01EE0FFF1FE5515F
:104BD000FE4F20813181FB01E851FE4F808190E042
:104BE00004C080E090E020E030E0FA0131832083CF
:104BF000089580E189BD82E189BD09B400FEFDCF41
:104C00008091D8008F7D8093D8008091E0008260F1
:104C10008093E0008091E00081FDFCCF0895CF9269
:104C2000DF92EF92FF920F931F93CF93DF93EC01EC
:104C30008B017A010E946D27811133C0E114F104C8
:104C400039F0F70180819181081B190BC80FD91F1A
:104C5000C12CD12C0115110519F18091E80085FDB9
:104C600016C08091E8008E778093E800E114F1048B
:104C700049F0F70180819181C80ED91ED182C0828E
:104C800085E00FC00E946D27882321F30AC0899117
:104C90008093F10001501109FFEFCF1ADF0ADACF3C
:104CA00080E0DF91CF911F910F91FF90EF90DF9007
:104CB000CF9008952091E4023091E502261737073E
:104CC00048F06115710539F42091E8002E772093A2
:104CD000E80001C0B901FC0120E06115710579F11E
:104CE0008091DD028823F1F18530F1F18091E800B7
:104CF00083FD3CC08091E80082FD2EC08091E800D9
:104D000080FFEBCF2091F3008091F20090E0922B96
:104D10006115710551F08830910538F42191209387
:104D2000F100615071090196F3CF21E0089709F075
:104D300020E08091E8008E778093E800CECF2111AB
:104D4000CFCF0AC08091DD02882361F0853061F009
:104D50008091E80083FD0AC08091E80082FFF2CFD5
:104D600080E0089582E0089583E0089581E0089549
:104D70002091E4023091E5022617370748F06115CB
:104D8000710539F42091E8002E772093E80001C0E6
:104D9000B901FC0120E06115710591F18091DD02FE
:104DA000882309F440C0853009F43FC08091E800B1
:104DB00083FD3DC08091E80082FD2FC08091E80016
:104DC00080FFE9CF2091F3008091F20090E0922BD8
:104DD0006115710559F08830910540F424912093B4
:104DE000F1003196615071090196F2CF21E00897E8
:104DF00009F020E08091E8008E778093E800CBCF27
:104E00002111CCCF0AC08091DD02882361F085306A
:104E100061F08091E80083FD0AC08091E80082FF84
:104E2000F2CF80E0089582E0089583E0089581E064
:104E30000895982F973068F59093E900981739F006
:104E40007091EC002091ED005091F00003C0242FF0
:104E5000762F50E021FD02C09F5FECCF3091EB0038
:104E60003E7F3093EB003091ED003D7F3093ED00BD
:104E70003091EB0031603093EB007093EC002093A5
:104E8000ED005093F0002091EE0027FDE5CF80E08B
:104E900008958F708093E90081E008958091DE028B
:104EA00087FF11C08091E80082FD05C08091DD027E
:104EB0008111F8CF11C08091E8008B770BC08091F1
:104EC000DD02882349F08091E80080FFF8CF8091CF
:104ED000E8008E778093E80008952091E4003091F7
:104EE000E50095E64091EC00842F817040FF23C0DF
:104EF0008091E80080FD1DC08091DD02882399F03B
:104F0000853099F08091EB0085FD11C04091E4005F
:104F10005091E5002417350729F3915011F09A01BB
:104F2000E1CF84E0089582E0089583E0089581E070
:104F3000089580E008954091E80042FFDDCF089594
:104F40000E940E280E941628E0EEF0E08081816029
:104F50008083E8EDF0E080818F77808319BCA7ED36
:104F6000B0E08C918E7F8C9380818F7E80831092B5
:104F7000DC0208950F931F93CF93DF930E940E28B6
:104F80000E941628C8EDD0E088818F7788838881B9
:104F90008068888388818F7D888319BC1092DD02A8
:104FA0001092D9021092DB021092DA0200EE10E0A9
:104FB000F80180818B7F808388818160888342E0D3
:104FC00060E080E00E941927E1EEF0E080818E7FB2
:104FD0008083E2EEF0E08081816080838081886060
:104FE0008083F80180818E7F8083888180618883BF
:104FF000DF91CF911F910F910895E8EDF0E080814E
:105000008F7E8083E7EDF0E080818160808384E0A3
:1050100082BF81E08093DC020C94BA27E8EDF0E0D7
:1050200080818E7F80831092E20008951092DA00D2
:105030001092E10008951F920F920FB60F92112463
:105040002F933F934F935F936F937F938F939F9390
:10505000AF93BF93EF93FF938091E10082FF0BC06A
:105060008091E20082FF07C08091E1008B7F8093F6
:10507000E1000E94E3238091DA0080FF1FC080914D
:10508000D80080FF1BC08091DA008E7F8093DA0009
:105090008091D90080FF0DC080E189BD82E189BD8A
:1050A00009B400FEFDCF81E08093DD020E94BE23A3
:1050B00005C019BC1092DD020E94D0238091E1004E
:1050C00080FF19C08091E20080FF15C08091E2004E
:1050D0008E7F8093E2008091E20080618093E20005
:1050E0008091D80080628093D80019BC85E08093BD
:1050F000DD020E94DB238091E10084FF30C08091BB
:10510000E20084FF2CC080E189BD82E189BD09B441
:1051100000FEFDCF8091D8008F7D8093D8008091D4
:10512000E1008F7E8093E1008091E2008F7E80938A
:10513000E2008091E20081608093E2008091D902D8
:10514000882311F084E007C08091E30087FD02C04E
:1051500081E001C083E08093DD020E94DF23809123
:10516000E10083FF29C08091E20083FF25C0809188
:10517000E100877F8093E10082E08093DD0210925E
:10518000D9028091E1008E7F8093E1008091E2005E
:105190008E7F8093E2008091E20080618093E20044
:1051A00042E060E080E00E9419278091F000886072
:1051B0008093F0000E94D723FF91EF91BF91AF91B0
:1051C0009F918F917F916F915F914F913F912F911F
:1051D0000F900FBE0F901F9018951F920F920FB651
:1051E0000F9211242F933F934F935F936F937F936D
:1051F0008F939F93AF93BF93CF93DF93EF93FF93DF
:10520000C091E900CF708091EC00D82FD17080FD63
:10521000D0E81092E9008091F000877F8093F00041
:1052200078940E9431291092E9008091F000886002
:105230008093F000CD2BCF70C093E900FF91EF91E8
:10524000DF91CF91BF91AF919F918F917F916F919E
:105250005F914F913F912F910F900FBE0F901F9034
:1052600018951F93CF93DF93CDB7DEB7AA970FB6EC
:10527000F894DEBF0FBECDBFEEEDF2E08091F100FD
:10528000819322E0E63EF207C9F70E943324809121
:10529000E80083FF2EC18091DE029091DF02492F4A
:1052A00050E04A30510508F024C1FA01EC58FF4F94
:1052B0000C94CC2A803821F0823809F01AC108C039
:1052C0008091DA029091DB02992389F082600FC00D
:1052D0008091E2028F70873008F00BC18093E90063
:1052E0008091EB0085FB882780F91092E90090916E
:1052F000E800977F9093E8008093F1001092F1000E
:10530000D1C0282F2D7F09F0F4C0882319F08230F6
:1053100061F0EFC08091E002813009F0EAC0933083
:1053200009F080E08093DB022EC08091E0028111C1
:105330002AC08091E2028F702FEF280F263008F0EC
:10534000D8C08093E9002091EB0020FF1CC093306F
:1053500021F48091EB00806214C09091EB00906189
:105360009093EB0021E030E0A90102C0440F551FEB
:105370008A95E2F74093EA001092EA008091EB00F0
:1053800088608093EB001092E9008091E800877FAD
:105390008093E8000E944E27ACC08111AAC01091F2
:1053A000E0021F778091E3008078812B8093E300F7
:1053B0008091E800877F8093E8000E944E278091CB
:1053C000E80080FFFCCF8091E30080688093E300D9
:1053D000111102C082E001C083E08093DD0289C028
:1053E0008058823008F085C08091E0029091E102FF
:1053F0008C3D53E0950779F583E08A838AE28983BF
:105400004FB7F894DE01139620E03EE051E2E32F1F
:10541000F0E050935700E49120FF03C0E295EF7055
:105420003F5FEF708E2F90E0EA3010F0C79601C01A
:10543000C0968D939D932F5F243149F74FBF809184
:10544000E800877F8093E8006AE270E0CE01019671
:105450000E945A2616C06091E2027091E302AE01EA
:105460004F5F5F4F0E94A125BC01892B09F441C009
:105470009091E800977F9093E80089819A810E943B
:10548000B8268091E8008B778093E80032C080389E
:1054900081F58091E800877F8093E8008091D902B0
:1054A0008093F1008091E8008E7772CF811121C046
:1054B0008091E0029091E10299270297D4F48091C3
:1054C000E800877F8093E8008091E0028093D90212
:1054D0000E944E278091D902811106C08091E3007D
:1054E00087FD02C081E001C084E08093DD020E945C
:1054F00024248091E80083FF0AC08091E800877F20
:105500008093E8008091EB0080628093EB00AA9684
:105510000FB6F894DEBF0FBECDBFDF91CF911F91C4
:105520000895CF938091DD028823A1F0C091E90016
:10553000CF709091EC00892F817090FD80E8C82B8E
:105540001092E9008091E80083FD0E943129CF701C
:10555000C093E900CF910895991B79E004C0991F89
:10556000961708F0961B881F7A95C9F780950895BD
:1055700097FB072E16F4009407D077FD09D00E9400
:10558000D22A07FC05D03EF4909581959F4F08954F
:10559000709561957F4F0895EE0FFF1F0590F49170
:1055A000E02D0994AA1BBB1B51E107C0AA1FBB1F1A
:1055B000A617B70710F0A61BB70B881F991F5A959F
:1055C000A9F780959095BC01CD010895FB01DC0100
:1055D00004C08D910190801921F441505040C8F7CA
:1055E000881B990B0895F999FECF92BD81BDF89A59
:1055F000992780B50895A8E1B0E042E050E00C940E
:10560000272B262FF999FECF92BD81BDF89A0197DD
:1056100000B4021639F01FBA20BD0FB6F894FA9AFA
:10562000F99A0FBE08950396272F0E94022B0E941D
:10563000012B252F0E94022B242F0C94022B019664
:10564000272F0E94022B0C94012BDC01CB01FC01C3
:10565000F999FECF06C0F2BDE1BDF89A319600B4CB
:0E5660000D9241505040B8F70895F894FFCFD6
:10566E006F022808641E140A321E3D2392237323F0
:10567E006F236B2301E200E900EA00B500B600B724
:10568E0000CD008301CC008A0192019401210223F6
:10569E000224022502260227022A02B300B4006F5A
:1056AE00007000818283E200E900EA00B500B600D6
:1056BE00B700CD008301CC008A0192019401210232
:1056CE00230224022502260227022A02B300B40076
:1056DE006F0070008182833733323130679192666A
:1056EE00363534949697F5F6F4F1903F3F3F006DC2
:1056FE006B5F64656C6179006D6B5F696E7465726A
:10570E0076616C006D6B5F6D61785F73706565645B
:10571E00006D6B5F74696D655F746F5F6D617800AE
:10572E006D6B5F776865656C5F6D61785F737065D3
:10573E006564006D6B5F776865656C5F74696D6538
:10574E005F746F5F6D617800407B223D0CC20BA0D1
:08575E000B450B5E0B770B00FD
:00000001FF
