:100000000C9482020C94C9020C94C9020C94C9028B
:100010000C94C9020C94C9020C94C9020C94C90234
:100020000C94C9020C94C9020C9462280C943629D1
:100030000C947F230C94C9020C94C9020C94C9023D
:100040000C94C9020C94C9020C94C9020C94C90204
:100050000C94C9020C94F2230C94C9020C94C902AA
:100060000C94C9020C94C9020C94C9020C94C902E4
:100070000C94C9020C94C9020C94C9020C94C902D4
:100080000C94C9020C94C9020C94C9020C94C902C4
:100090000C94C9020C94C9020C94C9020C94C902B4
:1000A0000C94C9020C94C9020C94C90229001E00C8
:1000B0001F0020002100220023002400250026002C
:1000C00027002D002E002A002B0014001A00080023
:1000D000150017001C0018000C00120013002F0060
:1000E00030002800390004001600070009000A004B
:1000F0000B000D000E000F00330034003200000032
:10010000E10064001D001B0006001900050011003D
:100110001000360037003800E5000000E000E30082
:10012000E2000000000000002C00000000000000C1
:10013000E600E7000151E40035003A003B003C00D6
:100140003D003E003F0040004100420043004400AB
:1001500045004C0001000100010001000100010008
:100160000100010046004700480052000100010064
:100170003900AA00AC00AE00AB00A90001004900A4
:100180004A004B0050004F00010000000100010038
:100190000100010001000100010001004C004D00C0
:1001A0004E005100010000000100010001000000AC
:1001B000000000000100000000000000010001003C
:1001C0000100010001000100010001000100010027
:1001D0000100010001000100010001000100010017
:1001E0000100010001000100010001000100010007
:1001F00001000100010001000100010001000100F7
:1002000001000100010001000100010001000100E6
:1002100001000100010000000100010001000100D7
:1002200001000100010001000100010001000100C6
:1002300001000000010001000100000000000000BA
:1002400001000000000000000100010001000100A9
:100250000100010001000100010001000100010096
:100260000100010001000100010001000100010086
:100270000100010001000100010001000100010076
:100280000100010001000100010001000100010066
:100290000100010001000100010001000100010056
:1002A0000100000001000100010001000100010047
:1002B0000100010001000100010001000100000037
:1002C000010001000100000000000000010000002A
:1002D0000000000001000100010001000001010117
:1002E00001010101010102020202020202020203F3
:1002F00003030303030303040404040404040505C3
:100300000505050606060606070707070708080885
:1003100008090909090A0A0A0B0B0B0C0C0C0D0D34
:100320000D0E0E0E0F0F0F101011111112121313CC
:100330001414151516161717181819191A1A1B1B45
:100340001C1D1D1E1E1F20202122222324242526A1
:1003500026272829292A2B2C2D2D2E2F30313232D9
:10036000333435363738393A3B3C3D3E3F404142E5
:10037000434445464748494A4C4D4E4F50515354CB
:10038000555658595A5B5D5E5F616264656668697F
:100390006B6C6D6F7072737577787A7B7D7E8082FF
:1003A000838587888A8C8E8F91939596989A9C9E48
:1003B000A0A2A3A5A7A9ABADAFB1B3B5B7BABCBE58
:1003C000C0C2C4C6C9CBCDCFD1D4D6D8DBDDDFE225
:1003D000E4E7E9EBEEF0F3F5F8FAFDFF0A0363005A
:1003E0006B003600300000001C03730065006E00D7
:1003F000730065006C0065007300730063006C009F
:100400006100790000000403090409023B000201B5
:1004100000A0FA09040000010301010009211101F3
:1004200000012240000705810308000A09040100B9
:100430000103000000092111010001226D000705E0
:10044000820320000A12010002000000084948014E
:100450000600000102000105010980A101850319C0
:10046000012AB700150126B700950175108100C05B
:10047000050C0901A101850419012AA00215012614
:10048000A002950175108100C005010906A1018532
:1004900006050719E029E715002501950875018172
:1004A000020507190029EF1500250195F075018156
:1004B0000205081901290595057501910295017537
:1004C000039101C005010906A101050719E029E70B
:1004D00015002501950875018102950175088101B6
:1004E0000507190029FF150026FF009506750881EC
:1004F00000050819012905950575019102950175F9
:10050000039101C011241FBECFEFDAE0DEBFCDBFE3
:1005100004B603FE27C080910D0590910E05A091B1
:100520000F05B09110058730904BA740B04BD1F428
:1005300010920D0510920E0510920F0510921005E5
:1005400014BE84B7877F84BF0FB6F894A8958091B6
:100550006000886180936000109260000FBEE0E050
:10056000F8E3099512E0A0E0B1E0EEEEF8E502C094
:1005700005900D92A43AB107D9F725E0A4EAB2E0BC
:1005800001C01D92AD30B207E1F70E9402120C9437
:100590003D2C0C94000081E0089581E008950C94B6
:1005A000CD0208950C94D1021F93CF93DF9300D016
:1005B00000D00F92CDB7DEB749835A836B83309159
:1005C000A60289819A8131111DC06623B9F02223C8
:1005D000A9F00E94AC08182F682F89819A810E9487
:1005E000580869817A81812F0F900F900F900F909A
:1005F0000F90DF91CF911F910C94720F0E9484088D
:10060000182FEFCF0E94AC0869817A81EDCFFC01F1
:10061000262F408151816281738184810C94D402A0
:1006200081E00895CF93DF93EC0160E00E9407031F
:10063000BE01DF91CF910C94D2020E947E100E94E5
:10064000AA030E94A91D0C94A3100C94A6100E944A
:10065000E51C80E00E94AB0381E00C940D1E089520
:1006600008950E9401070E9430032FEF84E39CE06D
:10067000215080409040E1F700C000000C94162407
:100680000F931F93CF93DF938C0161E00E940703C8
:10069000EC01B8010E94CF028823D9F1B801CE0144
:1006A0000E94B4218823A9F1B801CE010E94F41F51
:1006B000882379F1B801CE010E941E21882349F1D7
:1006C000B801CE010E942E1F882319F1F801828102
:1006D000882361F0CB35FDE5DF0721F170F4C1150A
:1006E000ECE5DE07A1F0CF3DDC45C9F0C801DF91A4
:1006F000CF911F910F910C94CB02CC358DE5D8078B
:10070000A1F0CD35DD4591F70E94D40CEFCF0E94CA
:10071000310380E0DF91CF911F910F9108950E94E6
:100720008E0DF7CF0E94DD0CE1CF0E94E00CDECFF2
:100730000C942F030E9410220E94AB0380E00E94C1
:100740000D1E0C94980308950C94A30381E0089562
:100750000C94A6030895CF93C82F0E94A4038C2F56
:10076000CF910C94A803CF93DF93CDB7DEB72B972F
:100770000FB6F894DEBF0FBECDBF4F835887698791
:100780007A878B8761110E942F0C1E821D8285E063
:10079000FE013796DE01119601900D928A95E1F7E0
:1007A0008C819D81892B89F449815A816B817C815F
:1007B0008D819E810E94500B2B960FB6F894DEBF60
:1007C0000FBECDBFDF91CF91089589819A81892392
:1007D0008F3F51F3CE0101960E9410038111E4CFA7
:1007E000EBCFFC01808191810C94EE08CF93C82F50
:1007F000882309F43FC08CEF8C0F813AA0F46C2F52
:1008000080910602909107020E947622882329F0A7
:100810008C2F0E94F10B0E94520C8C2F0E94EA0B2D
:10082000CF910C94520C80E28C0F883048F4C77042
:1008300081E001C0880FCA95EAF70E94120CF0CF40
:10084000EBE5EC0FE33040F4F0E0E45BFD4F80813A
:1008500090E0CF910C943622C85AC73158F4EC2F4F
:10086000F0E0EE0FFF1FE25EFD4F80819181CF919E
:100870000C944C22CF910895882329F19CEF980F76
:10088000913A20F40E94F10B0C94520C90E2980FD4
:10089000983050F4877091E001C0990F8A95EAF77B
:1008A000892F0E94180CF0CF9BE5980F933020F40D
:1008B00090E080E00C943622885A873120F490E052
:1008C00080E00C944C2208951F93CF93DF93182F50
:1008D000EB010E94F603209731F4812FDF91CF9135
:1008E0001F910C943C048FE99FE00197F1F700C041
:1008F00000002197F0CF70E060E0893311F460E5EB
:1009000070E00C946404882321F00E94120C0C9473
:10091000520C0895882321F00E94180C0C94520C5C
:100920000895BF92CF92DF92EF92FF920F931F93A1
:10093000CF93DF936C01D62FC72FFC011281F58076
:10094000F2949FE0F9220E94080CE82E8823B9F067
:10095000E12E1123A1F08C2F807F803421F080E2E2
:100960008D0F8830D0F08091FA0382FD16C082E0AE
:100970000E94A30C0E94080C91E0E82EE926BC2EF0
:10098000B2948FE0B822FBE0FB1508F468C0EB2DB1
:10099000F0E0E15CF34D0C94512BE12CF0CF0C2FE7
:1009A0000F70C07F11F00295007F112399F0002392
:1009B00059F080E28D0F883010F0D11107C0802FE0
:1009C0000E94120C0E94520C8D2F41C0802F0E9459
:1009D000220CF8CF8D2F0E943C04002309F43FC065
:1009E00080E28D0F883010F0D11104C0802F0E945A
:1009F000180C03C0802F0E94280C0E94520C2FC09C
:100A00000C2F0F70C07FC03211F00295007FDD23E4
:100A100081F0D13009F469C0112309F473C0FF20BB
:100A200009F469C0F601858180FFCECF8F70858380
:100A300062C08091FA0382FF38C0112359F000236D
:100A400029F0802F0E94120C0E94520C80E00E941C
:100A5000F60305C080E00E943C040111C7CFEB2DD6
:100A6000E850FF0B349720F40E9410220E94AB0341
:100A7000EE2009F467C10E94040C80FD63C1F601F9
:100A800012820E94FE0B0E94BC07C6010E94C30690
:100A90000E94FE0BDF91CF911F910F91FF90EF907D
:100AA000DF90CF90BF900C94DD07112389F0F110F7
:100AB00006C00E94350C802B0E948304D0CF21E019
:100AC000F212F7CF0E94350C802B0E943B0CC7CF4F
:100AD000F11006C00E94480C802F0E948A04BFCFEC
:100AE00031E0F31609F4BBCFF5CF112331F085E0E7
:100AF0008F1508F4B4CF802FDFCF94E09F1508F452
:100B0000AECFEACFFF2041F3D93349F4FFEF27EE10
:100B100033E0F15020403040E1F700C000008D2F5D
:100B20000E943C049CCF8C2F86958695837069F03B
:100B3000813009F094CF8D2F9C2F9370111102C03A
:100B400090E080E00E944C228ACF8D2F9C2F9370E2
:100B5000111102C090E080E00E94362280CF8C2FDD
:100B6000837009F041C011117ACF4D2F42954695FF
:100B70004770440F440F0D2F0F7010E030E020E05D
:100B8000042E04C0000F111F221F331F0A94D2F736
:100B900060E070E0CB01D4FF0FC06FE070E080E058
:100BA00090E004C0660F771F881F991F4A95D2F7FF
:100BB0006095709580959095C695C695C370602B8D
:100BC000712B822B932BC23049F058F4C13019F0AD
:100BD0000E946E0744CF0E945C0741CF0E948007AD
:100BE0003ECF0E945A073BCF8695112311F08C2FE0
:100BF0008170882309F433CF4D2F42954695477075
:100C0000440F440F0D2F0F7010E030E020E0042E51
:100C100004C0000F111F221F331F0A94D2F760E097
:100C200070E0CB01D4FF0FC06FE070E080E090E097
:100C300004C0660F771F881F991F4A95D2F76095E9
:100C4000709580959095C695C695C370602B712B55
:100C5000822B932BC23049F058F4C13019F00E9416
:100C60003308FDCE0E942108FACE0E944508F7CE37
:100C70000E949607F4CECF70112329F08C2F0E948A
:100C8000BC078D2F19CF8D2F0E948A048C2F0E94B4
:100C9000DD07E5CED23F51F160F4D03FB9F0D13F4E
:100CA00081F0112309F449C0F1108ECE8C2F8F7181
:100CB00021C0D33F11F1D43FA1F78091FA0382FF05
:100CC00026C08C2F8F71112311F314C0112349F00A
:100CD00084E08F1508F4C3CE8C2F8F710E9400081A
:100CE000BECE95E09F1508F4BACEF6CF8C2F8F714B
:100CF0001111CDCF0E94BC07B2CE112329F08C2F49
:100D00008F710E94A707ABCE0E94A207A8CE112325
:100D100049F0CF718C2F0E94BC0763E08C2F0E949A
:100D2000880C9DCE81E00E94A30CE1E0EF1508F055
:100D300096CE82E00E94A30C92CEF110E5CE8C2FCD
:100D40008F71A5CFDF91CF911F910F91FF90EF9001
:100D5000DF90CF90BF9008950F931F93CF93DF93B1
:100D6000EC01688179818A810E94F8088C010E94D7
:100D700057080E945907B801CE01DF91CF911F910A
:100D80000F910C949104CF93DF93EC018B819C81A4
:100D9000892B29F08881998189238F3F59F4DF912C
:100DA000CF910895CE010E94AC06CE01DF91CF9184
:100DB0000C941203CE010E9440038111F3CF0E94D4
:100DC000080C882361F38A81882349F38091FA0310
:100DD00082FDE5CF82E0DF91CF910C94A30C90E0EF
:100DE00080E00E94362290E080E00E944C220E9427
:100DF0002F0C0E94320C0C94520C0E94F80B0C9495
:100E0000EF060E941F0C0C94FD06E92FE295EF708F
:100E1000E250EE3070F4F0E0E55BF34D0C94512BB2
:100E2000803F19F020F4883E20F481E00895843F4B
:100E3000E1F380E00895883EC0F3813FD1F7F5CF1C
:100E400093FB882780F90895FC01808191810E949D
:100E5000EE080C940507CF93DF9300D000D00F92DB
:100E6000CDB7DEB70F900F900F900F900F90DF91DE
:100E7000CF910895CF93DF9300D000D000D0CDB7AD
:100E8000DEB726960FB6F894DEBF0FBECDBFDF915A
:100E9000CF91089508950C944A070E944B076093E0
:100EA000D8027093D9028093DA029093DB020C94FB
:100EB000EF0608950C944D070F931F930091D802ED
:100EC0001091D9022091DA023091DB02602B712B54
:100ED000822B932B1F910F910C944D070F931F930F
:100EE0000091D8021091D9022091DA023091DB02F0
:100EF00060237123822393231F910F910C944D073C
:100F00000F931F930091D8021091D9022091DA0219
:100F10003091DB0260277127822793271F910F9161
:100F20000C944D070C944A070C9492070E94940766
:100F30006093D4027093D5028093D6029093D70227
:100F40000C94EF0660E070E0CB010C9496070F93D1
:100F50001F9341E050E060E070E08A019B0104C013
:100F6000000F111F221F331F8A95D2F7C901B80144
:100F70001F910F910C9496070F931F9341E050E03F
:100F800060E070E004C0440F551F661F771F8A950C
:100F9000D2F78091D4029091D502A091D602B0915F
:100FA000D7028A019B01082B192B2A2B3B2BC90145
:100FB000B8011F910F910C9496070F931F9341E076
:100FC00050E060E070E004C0440F551F661F771FBB
:100FD0008A95D2F7CB01BA0160957095809590956E
:100FE0000091D4021091D5022091D6023091D702FF
:100FF00060237123822393231F910F910C949607F2
:101000000F931F9341E050E060E070E004C0440F94
:10101000551F661F771F8A95D2F78091D402909151
:10102000D502A091D602B091D7028A019B01082770
:1010300019272A273B27C901B8011F910F910C944A
:1010400096070F931F930091D4021091D50220911F
:10105000D6023091D702602B712B822B932B1F91DC
:101060000F910C9496070F931F930091D402109147
:10107000D5022091D6023091D702602371238223BA
:1010800093231F910F910C9496070F931F93009138
:10109000D4021091D5022091D6023091D702602758
:1010A0007127822793271F910F910C94960708951B
:1010B0002EE0929F800D1124982F977041E001C07F
:1010C000440F9A95EAF786958695869595E0899FCF
:1010D000F0011124E955FD4F90E080E070E051915E
:1010E000DF0111979B01082E02C0369527950A94BF
:1010F000E2F7217021952527242325272C9301969B
:101100008530910561F708952EE0929F800D11249E
:10111000982F977086958695869525E0829FF00199
:101120001124E955FD4F50E040E080E0219130E08E
:10113000092E02C0369527950A94E2F721703327CD
:10114000042E01C0220F0A94EAF7822B4F5F5F4FF3
:101150004530510559F70895BF92CF92DF92EF9233
:10116000FF920F931F93CF93DF938C01C090D40213
:10117000D090D502E090D602F090D7028091D802AC
:101180009091D902A091DA02B091DB02C82AD92A43
:10119000EA2AFB2ACFE1D0E0BC2ED701C6010C2EF3
:1011A00004C0B695A795979587950A94D2F780FDC8
:1011B0000EC0219788F7B12C8B2DDF91CF911F9115
:1011C0000F91FF90EF90DF90CF90BF900895B801FE
:1011D0008C2F0E94860F019761F3EECFCF93DF93A0
:1011E000EC010E94AC08BE01DF91CF910C94860FF8
:1011F0001F93CF93DF93EB019091A602992331F0D7
:10120000CB01DF91CF911F910C94EE08882379F0E8
:10121000CB010E94AC08182F682FCE010E945808FD
:10122000BE01812FDF91CF911F910C94860FCB01CE
:101230000E948408182FF4CF1F93CF93DF93C0919F
:10124000DC0216E08091DD028C1304C0DF91CF91A7
:101250001F910895D0E01C9FF0011D9FF00D1124F7
:10126000E252FD4F40815181628173818481958179
:101270000E943A072196C770E5CF40910E03509126
:101280000F036091100370911103809112039091EC
:1012900013030C943A07FF920F931F93CF93DF939E
:1012A00080911303807FD1F4809110038823B1F0E3
:1012B0008091DC021091DD0260910E0370910F03AA
:1012C000A0911103B0911203062F0723C0910402CD
:1012D000D091050296E0F92E181306C0DF91CF9148
:1012E0001F910F91FF90089590E0109711F00F3F1C
:1012F00019F401968770F0CFF89E9001F99E300D99
:101300001124F901E252FD4F41814713F2CF408190
:101310004613EFCF42814111ECCF438154814A1BE8
:101320005B0B4C175D0728F7809113038F7080616A
:1013300080931303F901ED51FD4F80818F7080611F
:1013400080838EE093E00E94C306DF91CF911F91CE
:101350000F91FF900C941C09AF92BF92CF92DF9235
:10136000EF92FF920F931F93CF93DF93CDB7DEB72A
:1013700061970FB6F894DEBF0FBECDBF8C0185E03C
:10138000F801DE011D9601900D928A95E1F7F801B2
:10139000E2808EE0C82E83E0D82E60911103709118
:1013A00012036115710509F45FC190910E0320913C
:1013B0000F03892F82238F3F09F456C14081518149
:1013C000A380B480F0901003F501E61BF70BBF017A
:1013D000E0910402F0910502FF2009F4F6C080912B
:1013E0001303382F307F6E177F0708F0AFC031111D
:1013F00079C0FE2C251323C0941321C0E1101FC017
:101400008F708061809313030E943D09C6010E9482
:10141000C30680911303F80185838F2D61960FB663
:10142000F894DEBF0FBECDBFDF91CF911F910F911A
:10143000FF90EF90DF90CF90BF90AF900895AB28D2
:1014400029F0842F85238F3F09F027C180E0F82FF2
:10145000F170DF2E80FF3CC08091DC022091DD0224
:1014600036E0821315C04D875E878D859E850E946C
:10147000EE08292F22952F702230F0F0243018F535
:101480009F70F1F0F8019581907FD1F4D12C1EC0AE
:1014900090E0389FF001399FF00D1124E252FD4F8A
:1014A0006181651306C06081641303C062816E119F
:1014B0000FC001968770D5CF9F7011F0882331F34C
:1014C000805E883018F3C8010E94C306FD2CA5CFAA
:1014D000EE2009F4A2CF809113038160809313035F
:1014E000F12C9BCF251306C0941304C0F801EE2005
:1014F00009F487C0C8010E942407882319F1EE204F
:1015000009F180911303803270F020910E03309125
:101510000F0338872F831986BB86AA868C87CE0156
:1015200007960E94C30686E0F801AEE0B3E00190A2
:101530000D928A95E1F70E944B090E943D09FF2414
:10154000F3946BCFC8010E94C306F9CF311113C0C9
:101550007A2DB98AA88A6E2D89890E942B078EE080
:1015600093E00E94C30686E0F60111928A95E9F79E
:101570000E943D09B5CF25130FC094130DC0E11093
:101580000BC0F8018583C8010E94C30686E0F601FE
:1015900011928A95E9F741CFC8010E942407882358
:1015A00089F2EE2079F280911303803208F4BBCFE8
:1015B00020910E0330910F033A8329831B82BD8251
:1015C000AC828E83CE010196ACCF6E177F0708F0F8
:1015D0003EC0FE2CEE2009F4B5CF25132AC094138B
:1015E00028C08091130380FD1BC0982F907FC1F00D
:1015F000F8018583903F31F0982F907F905F8F7036
:10160000892B8583C8010E94C30686E0F801AEE0FD
:10161000B3E001900D928A95E1F70E943D09FDCE5D
:1016200086E0F801AEE0B3E001900D928A95E1F713
:10163000F4CEC8010E942407811175CF8091130355
:10164000816080931303C8010E94C306E6CE7A2D01
:10165000B98AA88A6E2D89890E942B0786E0F60137
:1016600011928A95E9F7D9CFEE2009F46BCFC80122
:101670000E942407F82E882309F464CF86E0F8013D
:10168000AEE0B3E001900D928A95E1F78EE093E031
:101690000E94F1030E944B09C0CF81E08E25D7CE76
:1016A0001F93CF93DF93CDB7DEB72C970FB6F89487
:1016B000DEBF0FBECDBF4F83588769877A878B8780
:1016C0009C87CE0107960E94AC09882369F08A8521
:1016D0009B85892B39F04F815885842F85238F3F37
:1016E00009F071C016E05FC086E0FE013796DE01AA
:1016F000119601900D928A95E1F78A859B85892B39
:1017000089F38F81988589238F3F61F32091DD02D2
:1017100030E0C9010196877099274091DC02481793
:10172000190671F40E9401071092DD021092DC028A
:1017300086E0EEE0F3E0DF011D928A95E9F7D2CF73
:1017400096E0929FD001939FB00D1124A252BD4FFD
:10175000FE01319601900D929A95E1F78093DD029A
:101760000E941C09BFCF819FC001112482529D4F4E
:101770000E94AC098823E9F0E091DC021E9FF00191
:101780001124E252FD4F4081518162817381848135
:1017900095810E943A078091DC0290E00196877063
:1017A00099278093DC028091DC029091DD028913FD
:1017B000DACF2C960FB6F894DEBF0FBECDBFDF9107
:1017C000CF911F91089569857A858B859C850E94AC
:1017D0003A0788CF682F80910602909107020C94F7
:1017E000F622682F80910602909107020C94012343
:1017F00080910602909107020C940C2380911403AF
:101800008595859585950895809114038770089531
:1018100090911403977081E009F480E0089580911D
:101820003803089590913803892B809338030895E5
:1018300080959091380398239093380308951092DF
:101840003803089590913703892B809337030895C7
:1018500080959091370398239093370308951092C1
:101860003703089510923603089580911503089563
:1018700008950C94380C9091FA0392FD08C0909151
:101880001503981721F0809315030C94390C0895D3
:1018900080911503882329F01092150380E00C94A1
:1018A000390C0895E0910602F09107028091380307
:1018B0008083E0910602F0910702808190913703C6
:1018C000892B8083E0910602F0910702808190913C
:1018D0003603892B808390911503992381F0E09141
:1018E0000602F09107028081892B80838091060295
:1018F000909107020E94622281110E94480C8091FF
:101900000602909107020C941C2208950C94850CF9
:101910009091FA0392FD10C098E0899F90011124E4
:10192000622B609314030E94BC0780911403859579
:10193000859585950C94860C0C94BC071092140325
:1019400080E00C94860C90911403809589238093F9
:101950001403282F277091F4282F082E000C330B26
:101960009217130659F09091FA0392FD07C08595DE
:10197000859585950E94DD070C949E0C08959091A5
:10198000FA0392FB222720F9281769F080FB92F9CD
:101990009093FA038091F9039091FA030E940A0D43
:1019A00082E00C94A30C08958091FA0382FB8827AF
:1019B00080F991E089270C94BF0C81E00C94BF0C56
:1019C00080E00C94BF0C6FEF7FEF90E080E00C9410
:1019D000152C90E080E00E94E12B21E0893E9E4F93
:1019E00009F020E0822F089582E090E00C94D92B3A
:1019F00083E090E00C94D92BCF9384E090E00E9498
:101A0000D92BC82F82E290E00E94D92B982F8C2FDF
:101A1000CF910895CF93C92F682F84E090E00E9462
:101A2000F72B6C2F82E290E0CF910C94F72BAB0157
:101A3000BC018FE090E00C94092CAB01BC0183E168
:101A400090E00C94092C60E070E0CB010C941D0D2B
:101A500060E070E0CB010E94170D0C94230D69EE3D
:101A60007EEF90E080E00E94152C60E082E090E044
:101A70000E94F72B60E083E090E00E94F72B109229
:101A8000D8021092D9021092DA021092DB0260E0C2
:101A900084E090E00E94F72B60E082E290E00E94F8
:101AA000F72B60E085E090E00E94F72B60E086E095
:101AB00090E00E94F72B6FEF87E090E00E94F72BF9
:101AC00040E050E0BA0188E090E00E94092C60E01C
:101AD0008DE090E00E94F72B40E050E0BA0188E1F1
:101AE00090E00E94092C60E087E190E00E94F72BD3
:101AF00040E050E0BA018CE190E00E94092C70E0D7
:101B000060E080E290E00E94152C40E050E0BA01D5
:101B100088E190E00E94092C0C94280D0C942F0D64
:101B2000682F8EE090E00C94F72B0E94BB2360930B
:101B300048037093490380934A0390934B03609347
:101B4000440370934503809346039093470308959D
:101B500085B7806885BF85B7806885BF089508957B
:101B600008950C94AF0D08950C94B30D0E94A80D28
:101B700084E690E10E9406220E94B00D0C94B10D03
:101B800081E008950C94C00D089508950E94C40D3D
:101B90000C94C50D0E94A6230E945C110C94B40DF8
:101BA0008F929F92AF92BF92CF92DF92EF92FF926D
:101BB0000F931F93CF93DF93CDB7DEB72A970FB65E
:101BC000F894DEBF0FBECDBF0E94711181110E943B
:101BD000950D5AE3852E53E0952E10E000E0E02E9F
:101BE000802F0E94A8105C01F401C190D1904F0198
:101BF000C816D906B1F40F5F1F4F0530110579F7EC
:101C00008FEF89838A831B820E94AF238160782FA4
:101C10009D838C8349815A816B818D810E94B3039E
:101C20003DC080914C0381FD0E94B110C6018A2500
:101C30009B25F12CCC24C394D12C9C012C213D213B
:101C4000232B09F44BC00E94C20D95012C213D218C
:101C5000BB24B394232B09F4B12C882379F0FE82A2
:101C6000EF82B8860E94AF238160782F9A87898798
:101C70004E815F8168858A850E94B303000F111F22
:101C8000F801E65CFC4F80819181C826D926D1827B
:101C9000C0824B2D6F2D8E2D0E947E1B0E94E51C55
:101CA0000E941022909139038917F9F00E941022A6
:101CB000809339032A960FB6F894DEBF0FBECDBFCE
:101CC000DF91CF911F910F91FF90EF90DF90CF9018
:101CD000BF90AF909F908F900C94AB03F394CC0C7B
:101CE000DD1CFEE0FF12A9CF86CF2A960FB6F8942E
:101CF000DEBF0FBECDBFDF91CF911F910F91FF903F
:101D0000EF90DF90CF90BF90AF909F908F9008950D
:101D1000CF93DF930E948A0FEC01811522E5920791
:101D2000E8F5811531E5930708F0ACC0883E9105D0
:101D300010F5803E910570F5883A910570F4853A6A
:101D4000910508F078C08130910521F1009711F1DB
:101D5000049700F5D0E0C0E01DC08F3B9105D0F79F
:101D6000C85AD0E0CC0FDD1FC15BDD4F0990D88190
:101D7000C02DD4640FC0811540E5940708F066C0FB
:101D8000C11580E4D80708F05EC0CE019A95811590
:101D90009F4100F7CE01DF91CF910895811536E57F
:101DA000930718F5811545E5940708F083C0C11520
:101DB00084E5D80708F079C09C2F969596959E01EA
:101DC00023703327C115D34508F461C0C1E0D0E0CA
:101DD00002C0CC0FDD1F2A95E2F730E2939FC001CD
:101DE0001124C82BD92BDA68D5CFC1158AE5D807BD
:101DF00078F4C11599E5D90708F066C0C11528E542
:101E0000D20708F4A7CFDC2FCC27C06FD06AC2CF8F
:101E1000CE0190568115904208F09CCF8D2F8F7186
:101E20000E94211090E0982F882788279F719C019D
:101E30002C2BE90147C0C55AD0E0C358DD4FC881FB
:101E4000D0E0D064A7CFDF70D06AA4CFE4E096954D
:101E50008795EA95E1F783702C2F269526952370B8
:101E600040E2249F90011124382B8C2F8370C1E015
:101E7000D0E002C0CC0FDD1F8A95E2F7C22BD32B36
:101E8000DC6888CFD82FCC27C16FD06A83CFC1E060
:101E9000D0E002C0CC0FDD1F2A95E2F720E2929F2E
:101EA000C0011124C82BD92BEBCFDC2FCC27C46F5A
:101EB000D06A70CF0E942110C82FD0E0DC2FCC2731
:101EC000CC27DF71D06266CF8C2F8F700E942110DB
:101ED00034E0D695C7953A95E1F7CF709C2FEC0189
:101EE000D06958CF972F70E02EE0929F600D711D42
:101EF0001124FB0196E4899FE00DF11D1124EE0FE2
:101F0000FF1FE455FF4F8591949108950E94720F31
:101F10000C94880E82389105B1F1B0F481339105AB
:101F200009F475C048F48932910509F469C08A3210
:101F3000910509F473C008958533910509F459C0DA
:101F40008933910501F10895833E9105A9F138F493
:101F5000803E9105F9F0823E910549F10895863E53
:101F60009105A9F1873E9105C9F1843E910519F5C6
:101F70002091FA0321FF1FC08091F90384FD14C052
:101F800087EE90E008952091F9032370A1F080EE90
:101F900090E008952091F90320FD47C03091FA03A5
:101FA00030FF09C024FF44C090E080E004C02091CD
:101FB000F90322FDF7CF08952091F90322FD3BC0DC
:101FC0003091FA0330FDE3CF24FFF5CFEDCF209120
:101FD000F90323FFF0CF24FDE7CFD2CF2091F903FF
:101FE00023FD2CC03091FA0331FFEECF84EE90E058
:101FF00008952091F90325FFDECF89E290E008954E
:102000002091F90325FFD7CF85E390E00895209133
:10201000F90326FFD0CF8AE290E008952091F903DA
:1020200026FFC9CF81E390E0089589E390E0089509
:1020300083EE90E0089582EE90E0089586EE90E0C1
:1020400008959091F90392FF06C0282F2871283037
:10205000F9F4877F846093FF06C0282F2871283108
:10206000F1F4877E84612091FA0320FF06C0382FA7
:1020700038713830D9F4877F816021FF06C0282F5E
:1020800028712831D1F4877E816194FD877E08957F
:10209000282F24712430F9F68B7F8860DCCF282F1D
:1020A0002471243101F78B7E8861DDCF382F3171A7
:1020B000313019F78E7F8860E0CF282F21712131D0
:1020C00021F78E7E8861E1CF80E008950C94E30CC7
:1020D0000E9471118FE39CE90197F1F700C00000A5
:1020E0000E94711180E00E94A81080FF04C00E942D
:1020F00066100C94162408950C9468100E94E90C44
:10210000811102C00E948E0D0E94F40C80934C033A
:102110000E94FC0C9093FA038093F9030E947C10B8
:102120000E94F80C682F70E090E080E00E945A074F
:102130006091D4027091D5028091D6029091D7021D
:102140000C94940708950C94A21008950C94A51073
:10215000E82FF0E0EE0FFF1FEB5FFB4F80819181D6
:102160000895089580EA8A95F1F7089500C00895CA
:102170000C94B210F894E82FE295EF70F0E031A1E2
:10218000282F2F7081E090E001C0880F2A95EAF790
:10219000982F9095932391A392A1892B82A3789451
:1021A0000895CF93DF93CEE8D2E089918F3F11F06D
:1021B0000E94BA1082E0C339D807B9F7C0E8D2E06C
:1021C00089918F3F11F00E94BA1082E0CE38D80773
:1021D000B9F7DF91CF910895AF92BF92DF92EF925E
:1021E000FF920F931F93CF93DF938C01D62EC62FB0
:1021F000D0E0CE0182579D4F7C01FC0120812F3F12
:1022000009F44DC0F894E22FE295EF70F0E031A1AF
:102210002F7081E090E001C0880F2A95EAF7932F94
:10222000982B91A392A18095892382A378940E94F0
:10223000B610E0E8F2E04EE852E021E030E0B12CE8
:10224000A12C61916F3FA9F1A62FA295AF70B0E0CC
:1022500090968C9190E06F7002C0959587956A95E5
:10226000E2F780FD26C0C901A82AB92A220F331F30
:102270004E175F0731F7F70180818F3F11F00E9401
:10228000BA1061E0A114B10409F460E08D2D0E9440
:10229000B810CC0FDD1FC00FD11FB982A882DF910B
:1022A000CF911F910F91FF90EF90DF90BF90AF9073
:1022B000089590E080E0D8CF0E94D1108AE0E5E058
:1022C000F4E0DF01982F1D929A95E9F7EBEFF3E028
:1022D000DF011D928A95E9F785E00E94BC110C94FC
:1022E0001D03FF920F931F93CF93DF93CDB7DEB7FC
:1022F0002A970FB6F894DEBF0FBECDBF8E010F5FD9
:102300001F4F8AE0F80111928A95E9F7F12C6F2DA1
:10231000C8010E94EC10F394F5E0FF12F8CF4AE0F8
:1023200050E0B8018BEF93E00E94B32BFF24F394AD
:10233000009709F4F12C892B41F08AE0F801ABEF0A
:10234000B3E001900D928A95E1F72F2D45E065E00D
:1023500074E08BEF93E00E94BD110E9425038F2D46
:102360002A960FB6F894DEBF0FBECDBFDF91CF9196
:102370001F910F91FF9008950895FF920F931F935F
:10238000CF93DF93F82E092F162FD72FC42F222398
:1023900049F081E080934F030E94AF2390934E0356
:1023A00080934D0380914F038823A1F080914D03CA
:1023B00090914E030E94C723059760F0EF2DF02FF8
:1023C000A12FBD2F90E080E0D0E08C179D0744F056
:1023D00010924F03DF91CF911F910F91FF900895BD
:1023E000219131912D933D930196EFCF0E94BC2511
:1023F0000E94CA0D0C94C8250E94CC250E94D00DC5
:102400000C94E6250E9438230E94A3250E94B60D55
:102410000E94F6110E94FC110E94C60DFBCFEF92A4
:10242000FF920F931F93CF93DF93EB01E82FD1110E
:1024300010C0442321F0F0E0E452FD4FE4916E2FF0
:102440007E2F8E2FDF91CF911F910F91FF90EF90F4
:1024500008950D2F10E0282F30E0442329F0245256
:102460003D4FF901249130E0F6E0CF9FC0011124E7
:10247000EFEFF0E0BF010E94E82AAB018C2F90E063
:10248000880F991FA5E5A49FB001A59F700D112489
:10249000861B970B982F990F980FBF01601B710B2C
:1024A000629FD001639FB00D729FB00D11248B2FDE
:1024B0009D9FB0011124672F7727EF01C61BD70B13
:1024C000BE01629FE001639FD00D729FD00D112469
:1024D0007F01E91AF108E09EB001E19E700DF09EC7
:1024E000700D1124672F7727E61BF70BE29F800101
:1024F000E39F100DF29F100D1124E12F722F423037
:10250000510599F048F44115510569F041305105E4
:1025100081F0EB2F8D2F07C04430510569F080F01A
:1025200046305105B1F76E2F8DCFE22F7B2F812FD3
:10253000FACFE22F7D2FF7CFEB2F822F712FF3CF22
:102540007B2F822FED2FEFCF41E00C940F1230E064
:1025500020E0869F212D969F200D311D1124C90159
:102560000895AC018230910508F408959FEF413E33
:102570008EE1580740F49A0195E0369527959A9593
:10258000E1F798E0920F61E0E62FE90FFF27FF1FC8
:102590009F0135952795822F229FF001239FF00DF3
:1025A000F00D11244E175F0738F49FEF920F961726
:1025B00058F78FEF860F08952F3FE9F361E0620F20
:1025C000F6CFE82F86FDE0952E2F2F7086FD2F5F2A
:1025D000E695E695E695E670F0E0ED56FD4F9181C3
:1025E000929F902D212D112492959F702295207FEE
:1025F000922B2081920F87FD919580E8890F089595
:10260000E42FF0E0EE0FFF1FE65BFE4F408134EE5B
:10261000439F412D1124E82FF0E050E0445E5F4FCE
:10262000DA01A21BB1099D01B7FF03C031952195C5
:10263000310993E0220F331F9A95E1F7AF01421B56
:10264000530B9A0157FD20E0582F259F212D11246F
:10265000822F0895622F0895E42FF0E0EE0FFF1F00
:10266000E65BFE4F6081621B0895E42FF0E0EE0F01
:10267000FF1FE55BFE4F6081621B0895EF920F9391
:10268000972F23E0029FB0011124759567956E0D79
:10269000792F0F91EF9008950F931F9310E0F80199
:1026A000EE0FFF1FE65BFE4F9081905797FD9195CF
:1026B000000F111FF801E55BFE4F00810052110B66
:1026C0002003F001219FF00D112408E310E0091B05
:1026D000110997FD139540039001419F300D11247E
:1026E000E20FF31F9F01220F331F2E0F3F1F37FFF3
:1026F00002C021583F4F220F232F221F330B620F9E
:102700001F910F91089522E8241B08F420E0620F26
:102710000895EF92FF920F93970195E0099F200D86
:10272000311D11242F3F310519F010F02FEF30E04B
:102730002095382F320F08F43FEF832F0F91FF9031
:10274000EF900895EF92FF920F939701201B3109AC
:102750002F3F310519F010F02FEF30E0322F309578
:10276000482F430F08F44FEF842F620F0F91FF9013
:10277000EF900895EF92FF920F939701201B31097C
:102780002F3F310519F010F02FEF30E02095382F52
:10279000320F08F43FEF832F0F91FF90EF900895D1
:1027A000FC019B01AC0197FF04C044275527481B3F
:1027B000590BBA01620F731F37FD0FC0241B350B75
:1027C000C901A5E0880F991FAA95E1F70E94FC2A8C
:1027D00080E2861BF7FD81950895CB0165E0880FA7
:1027E000991F6A95E1F7BA01621B730B0E94FC2ADC
:1027F00080E6EFCFEF920F931F93CF93DF93D62F07
:10280000C72F182FC9010E19010F009729F480E86E
:1028100057FD05C080E003C0BA010E94D013081B19
:10282000202F219F212D1124822F6D2F7C2FDF91AE
:10283000CF911F910F91EF90089546E050E06CE129
:1028400070E08FE094E00E94E72B1092500308950F
:102850000F93CF93DF93D72FC82FC901009729F487
:1028600080E857FD05C080E003C0BA010E94D01384
:10287000602F680F7D2F8C2FDF91CF910F910895DE
:102880000C94A412EF92FF920F931F93CF93DF93B8
:102890009FEF980F41E0480FAFEFA60FE1E0E60F82
:1028A000082F10E0A61780F42EE0209FE001219F62
:1028B000D00D1124C158DC4FCA0FD11D288130E141
:1028C000230F08F42FEF2883262F30E05EE0509F7F
:1028D000E001519FD00D11248E0101581C4F780149
:1028E000020F131FE801588170E2570F08F45FEFE1
:1028F0005883EE3048F4E701CE0FD11D588170E1C6
:10290000570F08F45FEF5883453018F1C92FD0E016
:10291000A61708F459C04EE04C9FC0014D9F900D82
:10292000112481589C4FDC01A20FB31F2C9130E180
:10293000230F08F42FEF2C93EE3008F03EC0E80F81
:10294000F92FF11D20813DE0230F08F42FEF2083A4
:1029500034C050E0A61780F47EE0749FE001759FBC
:10296000D00D1124C158DC4FCA0FD11D78811DE054
:10297000710F08F47FEF78837EE0749FE001759F0C
:10298000D00D11248E0101581C4F7801020F131F26
:10299000E801488150E1450F08F44FEF4883EE30DD
:1029A00048F4E701CE0FD11D48815DE0450F08F4E2
:1029B0004FEF4883981708F4A9CFDF91CF911F916B
:1029C0000F91FF90EF9008954EE04C9FC0014D9FF6
:1029D000900D112481589C4FA80FB92FB11D4C9117
:1029E0005DE0450F08F44FEF4C9395CFEFE0F4E036
:1029F00081E2808380911B0290911C02A0911D02B4
:102A000081839283A3838FE784838FEF85830C94E4
:102A10001D1480E008950F931F93CF93DF93C82F69
:102A2000D62F8A010E9409159EE0C99FB00111248A
:102A30006C5F7E4F6D0F711DFB0190819F3F29F0F0
:102A4000F801E80FF11D90838F5FDF91CF911F9107
:102A50000F910895E091A102F091A2020994E091F2
:102A60009D02F0919E0209945F926F927F928F92E5
:102A70009F92AF92BF92CF92DF92EF92FF920F930D
:102A80001F93CF93DF935C014B01FC01C0818DE06C
:102A9000C89FC02D11241DE01C0FF12E1F3310F014
:102AA0003EE3F32E60911304669580911504909196
:102AB00016040E94A712582ED0E0CF15A0F081E096
:102AC0001E3308F080E0DF91CF911F910F91FF90AE
:102AD000EF90DF90CF90BF90AF909F908F907F90BE
:102AE0006F905F900895FE01EA53FE4F8081F501DB
:102AF00091818923C9F1CE01880F991F8C5F9E4F68
:102B0000FC01EA5BFF4F2081422F4057550B6A01C1
:102B1000895B9F4FFC018081282F2052330B3901A4
:102B2000449F9001459F300D300D1124669CC001DB
:102B3000679C900D900D1124820F931F0E94B1127B
:102B4000082F609110047091110480911204E52CFB
:102B50009301A601F40109950E944014462F282FE5
:102B6000672FCE010E942F152196A7CF6AEF73E140
:102B70000C9434156EE373E10C943415AF92BF924C
:102B8000CF92DF92EF92FF920F931F93CF93DF9339
:102B90006C017B01FC01C0818DE0C89FC02D112418
:102BA0001DE01C0FB12E1F3310F03EE3B32E6091D9
:102BB0001304669580911504909116040E94A71243
:102BC000A82ED0E0CB1578F081E01E3308F080E02D
:102BD000DF91CF911F910F91FF90EF90DF90CF90F9
:102BE000BF90AF900895FE01EA53FE4F8081F60139
:102BF0009181892311F1CE01880F991F8C5F9E4F1F
:102C0000FC01E95BFF4F20812052330B8A5B9F4F11
:102C1000FC0140814057550B6091100470911104E4
:102C2000809112040A2DF70109950E944014462F45
:102C3000282F672FCE010E942F152196C3CF68E25F
:102C400074E10C94BE15BF92CF92DF92EF92FF9287
:102C50000F931F93CF93DF937C018B01FC01C08105
:102C60008DE0C89FC02D11249DE0D92EDC0ECD2C07
:102C7000FEE3FD1510F48EE3C82E609113046695F3
:102C8000669521E0620F08F46FEF80911504909132
:102C900016040E94A712B82ED0E0CC1578F081E07F
:102CA0009DE39D1508F480E0DF91CF911F910F9176
:102CB000FF90EF90DF90CF90BF900895FE01EA5310
:102CC000FE4F8081F7019181892391F0609110047A
:102CD00070911104809112042B2D4C2FF80109954D
:102CE0000E944014462F282F672FCE010E942F15D7
:102CF0002196D3CF60E073E10C9423166AE273E16E
:102D00000C9423166CE273E10C94231665E373E1D3
:102D10000C9423167F928F929F92AF92BF92CF9284
:102D2000DF92EF92FF920F931F93CF93DF935C019B
:102D30006B01FC01C0818DE0C89FC02D11241DE0F6
:102D40001C0F912E1F3310F03EE3932E609113045D
:102D50006695669580911504909116040E94A712BD
:102D6000F82E80E48F0D0E94E11290E8892E880EE3
:102D70008F2D0E94E11220E8722E780ED0E0C91546
:102D800090F081E01E3308F080E0DF91CF911F9139
:102D90000F91FF90EF90DF90CF90BF90AF909F90FA
:102DA0008F907F900895FE01EA53FE4F8081F501D8
:102DB00091818923A1F06091100470911104809198
:102DC0001204EF2C0C2F272D482DF60109950E9497
:102DD0004014462F282F672FCE010E942F152196D1
:102DE000CECF6CE473E10C948A16AF92BF92CF926F
:102DF000DF92EF92FF920F931F93CF93DF938C019B
:102E00007B01FC01C0818DE0C89FC02D11242DE005
:102E1000B22EBC0EAB2CFEE3FB1510F49EE3A92EE4
:102E20002091130431E0230F08F42FEF30E050E03D
:102E300040E06FEF7FEF80E090E00E94322B69016D
:102E4000D0E02C2FCA1580F081E0FDE3FB1508F4DB
:102E500080E0DF91CF911F910F91FF90EF90DF9075
:102E6000CF90BF90AF900895FE01EA53FE4F80814E
:102E7000F8019181892311F1409119044150042EE8
:102E8000000C550B47FF1CC0C6016091130421E0E4
:102E9000620F08F46FEF0E94A712AC01609110045A
:102EA0007091110480911204F70109950E94401459
:102EB000462F282F672FCE010E942F152196C1CFB4
:102EC000FA01E75EFB4F818982130AC0FA01EE0F17
:102ED000FF1FE75EFB4F818D928D8C159D05A8F23B
:102EE00041505109CFCF63E873E10C94F5162F924E
:102EF0003F924F925F926F927F928F929F92AF928A
:102F0000BF92CF92DF92EF92FF920F931F93CF93D6
:102F1000DF93CDB7DEB72B970FB6F894DEBF0FBEA9
:102F2000CDBF8C832B015F834E83FB01F0818DE04D
:102F3000F89F802D11248983835F8A838B838F334D
:102F400010F02EE32B83309119043D839981892F52
:102F500090E09B878A87880F991FFC01E65BFE4FF4
:102F60006F01FC818F2F90E09C012F5F3F4F3987CD
:102F70002887EB81FA85FE17F0F081E02A812E3355
:102F800008F080E02B960FB6F894DEBF0FBECDBFE1
:102F9000DF91CF911F910F91FF90EF90DF90CF9035
:102FA000BF90AF909F908F907F906F905F904F9069
:102FB0003F902F900895EA85FB85EA53FE4F80816C
:102FC000F2019181892301F12090100430901104C5
:102FD00028853985275E3B4F39013C81398310E0D4
:102FE00029813D812317C8F020911204129F112DD1
:102FF0001124B101812F0E944014462F282F672FE2
:103000008A859B850E942F158A859B8501969B87C3
:103010008A8792E0C90ED11CACCFF30181913F01A8
:10302000F601A080A81ABB088180F3018781881A65
:103030009908AA9C9001AB9C300D300D1124889CFE
:10304000C001899C900D900D1124820F931F0E9446
:10305000B112082F6091130421E0620F08F46FEFA2
:10306000F301EE0FFF1FE951F440858996890E9414
:10307000A7127C019401A501B101812FEE81FF818E
:1030800009951B01F981FF5FF983182FA9CF49E842
:1030900053E1BC0180E00C94771742EA53E1BC0194
:1030A00080E00C9477174AEB53E1BC0180E00C946C
:1030B0007717BF92CF92DF92EF92FF920F931F93F9
:1030C000CF93DF937C01FC01C0818DE0C89FC02DB0
:1030D00011241DE01C0F012F1F3308F00EE3609137
:1030E000100470911104809112040E944014D62E95
:1030F000C72EB82ED0E0C01770F081E01E3308F064
:1031000080E0DF91CF911F910F91FF90EF90DF90C2
:10311000CF90BF900895FE01EA53FE4F8081F701E2
:103120009181892331F02B2D4D2D6C2DCE010E94E4
:103130002F152196E0CF8F929F92AF92BF92CF92A0
:10314000DF92EF92FF920F931F93CF93DF937C0157
:10315000FC01C0818DE0C89FC02D11241DE01C0F13
:10316000012F1F3308F00EE3C0901104D090120419
:10317000D09110046D2F7C2D8D2D0E944014B62E01
:10318000A72E982E609113046D0F7C2D8D2D0E941B
:103190004014D62EC72E882ED0E0C01788F081E0CC
:1031A0001E3308F080E0DF91CF911F910F91FF90C7
:1031B000EF90DF90CF90BF90AF909F908F90089549
:1031C000FE01EA53FE4F9081F7018181892359F076
:1031D000282D4D2D6C2D90FD03C0292D4B2D6A2DD2
:1031E000CE010E942F152196D8CFBF92CF92DF92A9
:1031F000EF92FF920F931F93CF93DF937C01FC011B
:10320000C0818DE0C89FC02D11241DE01C0FD12E60
:103210001F3310F09EE3D92EC0901104B090120419
:103220002091130400E4029F012D1124D0E0CD155C
:1032300070F081E01E3308F080E0DF91CF911F91A4
:103240000F91FF90EF90DF90CF90BF900895FE0117
:10325000EA53FE4F8081F70191818923B9F0FE0185
:10326000EE0FFF1FE55BFE4F808182958F706091AE
:103270001004809F600D11247C2D8B2D0E94401422
:10328000462F282F672FCE010E942F152196CFCFD2
:10329000BF92CF92DF92EF92FF920F931F93CF9343
:1032A000DF938C01FC01C0818DE0C89FC02D1124EB
:1032B0005DE0F52EFC0EDF2CFEE3FF1510F44EE36F
:1032C000D42EC0901104B09012042091130430E465
:1032D000E32E3E2D329F312D1124E32ED0E0CD156B
:1032E00078F081E03DE33F1508F480E0DF91CF9175
:1032F0001F910F91FF90EF90DF90CF90BF900895B6
:10330000FE01EA53FE4F8081F80191818923D9F0B3
:10331000FE01EE0FFF1FE65BFE4F6081E69EB001EF
:10332000112495E0759567959A95E1F780911004C1
:10333000680F7C2D8B2D0E944014462F282F672F5D
:10334000CE010E942F152196CACFBF92CF92DF9255
:10335000EF92FF920F931F93CF93DF938C01FC01A9
:10336000C0818DE0C89FC02D11249DE0F92EFC0E78
:10337000EF2CFEE3FF1510F48EE3E82ED09010043E
:10338000D0911104C0901204609113046695669563
:10339000669580911504909116040E94A7120E94D0
:1033A000E112805887FD8195880F282F3C2D239F9F
:1033B000212D1124822F6D2D7D2F0E944014D62E99
:1033C000C72EB82ED0E0CE1578F081E02DE32F1572
:1033D00008F480E0DF91CF911F910F91FF90EF9063
:1033E000DF90CF90BF900895FE01EA53FE4F808199
:1033F000F8019181892331F02B2D4D2D6C2DCE01BB
:103400000E942F152196DFCFDF92EF92FF920F934C
:103410001F93CF93DF938C01FC01EA53FE4F808111
:10342000682381F1D0901104D0911204C09110044E
:10343000EC2EF12C0E94A32B282FC7018C549F4FF8
:1034400068E671E00E94FC2A8E199F0997FD039699
:10345000959587959595879523706C2F289F600D7E
:1034600011247D2D8D2F0E944014462F282F672F69
:10347000C801DF91CF911F910F91FF90EF90DF90E6
:103480000C942F15DF91CF911F910F91FF90EF902A
:10349000DF900895DF92EF92FF920F931F93CF93E7
:1034A000DF938C01FC01C281C11125C0609113041E
:1034B00020E1620F08F46FEF8091150490911604DB
:1034C0000E94A7126AE070E00E94E82A892B51F45A
:1034D0000E94A32B6EE370E00E94FC2AF801618138
:1034E0000E94041A8C2FDF91CF911F910F91FF90B2
:1034F000EF90DF900895C0818DE0C89FC02D11240A
:103500008DE0D82EDC0E8D2DFEE3FD1508F48EE344
:10351000D0E0E82EF12CCE15DF0534F0C1E0FDE35C
:10352000FD1500F7C0E0DECFF8016181CE010E94F9
:10353000041A2196F0CFE0919F02F091A002099425
:103540002F923F924F925F926F927F928F929F92B3
:10355000AF92BF92CF92DF92EF92FF920F931F93A1
:10356000CF93DF93CDB7DEB729970FB6F894DEBFC0
:103570000FBECDBF6C01DC010C918DE0089F002DCA
:103580001124BDE0B00FB9874B2EB73410F086E49C
:10359000482EF6018281882361F040E060E080E0FF
:1035A0000E949B1AEFE7F3E086E4DF011D928A9503
:1035B000E9F7F6018081811115C08091C6039091D1
:1035C000C7030E94C72321E08931910508F420E058
:1035D0002093C503499730F00E94AF239093C7030F
:1035E0008093C60310E0512C9E012F5F3F4F39019D
:1035F00004151505F4F081E0F985F63408F080E053
:1036000029960FB6F894DEBF0FBECDBFDF91CF91E4
:103610001F910F91FF90EF90DF90CF90BF90AF90F0
:103620009F908F907F906F905F904F903F902F90E2
:103630000895C80165E070E00E94FC2A5B014C011E
:103640003EE0389FF001399FF00D1124E158FC4F06
:10365000E60FF71F3080A3010E940B15282E73017F
:103660008E2D86198215C0F08091C503882389F0BC
:10367000232D31E0231B08F420E0AEE0A89DC0011B
:10368000A99D900D112481589C4FA80EB91EF501DB
:1036900020830F5F1F4FACCFD701EC91F0E0EA53CE
:1036A000FE4F8081F6019181892321F1232D35E59B
:1036B000231B08F420E06AEA621B709111042AEAD5
:1036C000332D230F08F42FEF30911204822F880F2F
:1036D000820F8E5F282F239F212D1124822F0E947D
:1036E0004014462FD7019C91282F672F892F90E0F7
:1036F0000E942F15BFEFEB1AFB0AB2CFAF92BF9219
:10370000DF92EF92FF920F931F93CF93DF93CDB78A
:10371000DEB728970FB6F894DEBF0FBECDBFE82EF8
:10372000D62E142F0E94C00D882309F455C0F12C09
:10373000112341F0AE014F5F5F4F6D2D8E2D0E9422
:103740000B15F82E0F2D10E080915103800F912F53
:10375000911D09976CF188E090E05C01A01AB10A14
:10376000B8016E5A7C4FA50182E593E00E94C02B00
:10377000B801665A7C4FA5018AE593E00E94C02BF0
:10378000A501440F551FB801660F771F66597C4F7E
:103790008AE693E00E94C02BB8016E597C4FA501C8
:1037A00082E693E00E94C02B88E08F19809351033A
:1037B00010915103DE01119640E0842F810FF41225
:1037C0001BC08093510380910F048C7F8C3321F4B4
:1037D0006D2D8E2D0E94421428960FB6F894DEBFF0
:1037E0000FBECDBFDF91CF911F910F91FF90EF9052
:1037F000DF90BF90AF9008955D91252F30E090E06D
:10380000BC016F5A7C4FF901EE0FFF1FE65BFE4FC4
:103810000081FB010183220F331FF901E55BFE4F9D
:103820002081FB012187518B880F991FFC01EF5AE2
:10383000FC4F128E118E4F5FC0CFCF93C82F809157
:103840000C028C1323C090910F04937020910D02F1
:1038500030E081E09217130609F480E081708093D4
:103860000B028091140490910A02981739F080930A
:103870000A0240E060E080E00E949B1AC43188F4B4
:10388000EC2FF0E0E75AF34D0C94512B81E0E6CF9A
:1038900080910B02882359F040E060E080E00E94B4
:1038A0009B1A80E004C089E092E00E945918909130
:1038B00009029F5F9093090281110CC082E08093FE
:1038C000080280910B02811105C0C11103C083E081
:1038D00080930802CF91089589E092E00E949B189E
:1038E000E6CF89E092E00E94F518E1CF89E092E00E
:1038F0000E944819DCCF89E092E00E94A519D7CF39
:1039000089E092E00E947A16D2CF89E092E00E948C
:10391000B615CDCF89E092E00E947E16C8CF89E02F
:1039200092E00E948216C3CF89E092E00E94861640
:10393000BECF89E092E00E94BA15B9CF89E092E04B
:103940000E941F16B4CF89E092E00E94F116AFCF1B
:1039500089E092E00E944A1AAACF89E092E00E9490
:10396000A01AA5CF89E092E00E947317A0CF89E04A
:1039700092E00E9447189BCF89E092E00E944D1888
:1039800096CF89E092E00E94531891CF0895089550
:103990000E94C61C0C94C71C08950895CF93DF9312
:1039A000FC01C0818DE0C89FC02D1124D3EFDC0F36
:1039B000CF3308F0CEE36C2F8D2F0E94CC1C6C2FE0
:1039C0008D2FDF91CF910C94CD1C4F925F926F920F
:1039D0007F928F929F92AF92BF92CF92DF92EF929F
:1039E000FF92CF9360917A0370917B0380917C0367
:1039F00090917D030E94D6236B017C010E94BB2322
:103A00004B015C0180927A0390927B03A0927C032D
:103A1000B0927D03A0915103E1E5F3E08A2F90E09D
:103A20004FEF5FEF60E070E04C195D096E097F09B0
:103A3000A9132AC08093510380917E03C0E08111B5
:103A400008C080910F04C82FC37019F0C82FC69505
:103A5000C69580910802813009F440C0882339F16D
:103A6000823009F453C0833009F45BC0CF91FF90DA
:103A7000EF90DF90CF90BF90AF909F908F907F900E
:103A80006F905F904F900895218D328D2901712C98
:103A9000612C441555056605770520F481509F5F1C
:103AA0003296C6CF2C0D3D1D328F218FF8CF10924C
:103AB00009028092150490921604A0921704B09205
:103AC000180489E2E1E5F3E0A9E1B4E001900D9288
:103AD0008A95E1F781E080930802C8CF8C2F0E947D
:103AE0001D1CCC2319F20E94C81C89E092E0CF91E2
:103AF000FF90EF90DF90CF90BF90AF909F908F900E
:103B00007F906F905F904F900C94CE1CC0930C02EE
:103B100080910F04837080930D020E942A1583E028
:103B2000DACF8091500381110E941D146091150419
:103B30007091160480911704909118040E94D62366
:103B4000603171058105910508F490CF109208024B
:103B50008DCFE0919B02F0919C020995109219047F
:103B60008FEF9FEF9093330480933204909335044A
:103B700080933404909337048093360490933904EF
:103B80008093380490933B0480933A0490933D04CF
:103B900080933C0490933F0480933E0490934104AF
:103BA000809340041092510390936B0380936A03B7
:103BB00090936D0380936C0390936F0380936E03D7
:103BC00090937103809370039093730380937203B7
:103BD0009093750380937403909377038093760397
:103BE00090937903809378030E94E90C811104C0BB
:103BF0000E948E0D0E94F61446E050E06CE170E0E9
:103C00008FE094E00E94C92B1092500380910F0422
:103C10008C7F11F40C94F6140895CF93C82F882349
:103C200091F080917E0381110EC00E941D1C1092A4
:103C30000C0280910F04837080930D020E942A155C
:103C400083E080930802C0937E03CF910895EFE054
:103C5000F4E0908121E092279083109208029091E5
:103C60005003892B80935003089581E00C94271E04
:103C700090910F04937061F081110BC09460909348
:103C80000F041092080280915003862B80935003FA
:103C90000895843110F09C64F2CF880F880F982B20
:103CA000EECF61E00C94381E682F90910F0496952A
:103CB000969581E0890F843108F081E00C94381EDC
:103CC00081E00C94541E682F90910F049695969560
:103CD0008FEF890F09F483E10C94381E81E00C9476
:103CE000631E90910F04937071F0809310046093A1
:103CF0001104413A08F040EA4093120480915003C5
:103D0000822B809350030895AFE0B4E01196EC91BC
:103D10001197F0E0282F13964C91139712966C91FF
:103D2000CF0108960C94711E81E00C94841EEFE084
:103D3000F4E09181282F43816281E92FE850FF0B45
:103D4000CF010C94711E81E00C94971EEFE0F4E01B
:103D5000628120E1620F08F46FEF9181282F438187
:103D6000892F90E00C94711E81E00C94A61EEFE068
:103D7000F4E0628120E1621B08F460E09181282F69
:103D80004381892F90E00C94711E81E00C94B71E42
:103D9000EFE0F4E0438120E1420F08F44FEF91811E
:103DA000282F6281892F90E00C94711E81E00C9481
:103DB000C81EEFE0F4E0438120E1421B08F440E03C
:103DC0009181282F6281892F90E00C94711E81E0EF
:103DD0000C94D91E8093130480915003862B8093FA
:103DE000500308952091130430E1230F08F42FEFBE
:103DF000682F822F0C94EA1E81E00C94F21E209111
:103E0000130430E1231B08F420E0682F822F0C9468
:103E1000EA1E81E00C94FF1E0895FC01EE0FFF1FC7
:103E2000E80FF91FEE5BFB4F618340832283089507
:103E3000E2E4F4E0818360834283339694E0EC3FD4
:103E4000F907C1F708956EE370E082E494E00C9402
:103E5000C81FFA01811101C0FB0109940F931F9340
:103E6000CF938C01FB01C281CC2309F48FC00E9447
:103E70000F0C82720B3CFCE51F0709F472C060F561
:103E8000063CECE51E0709F458C080F4043C9CE5B0
:103E9000190709F448C008F04BC0033C1C4509F45D
:103EA0003FC08C2FCF911F910F910895083C9CE546
:103EB000190709F44CC008F445C0093CFCE51F078C
:103EC00009F44AC047EE5EE166ED7EE10A3C1C451E
:103ED00041F70E94291F1EC0003DECE51E0709F4B2
:103EE00053C080F40D3C9CE5190709F444C0F0F17F
:103EF0000E3CFCE51F0709F443C00F3C1C4589F646
:103F000085E03FC0073D9CE5190730F48CE0023D99
:103F10001C45B8F1C0E0C5CF0E351D45D9F3C1CF62
:103F20000E94351EF7CF4EE65EE160E67EE1D1CF1E
:103F300040E65EE16EE67EE1CCCF43EA5EE164E915
:103F40007EE1C7CF44E95EE163EA7EE1C2CF45ECA2
:103F50005EE164EB7EE1BDCF44EB5EE165EC7EE1CA
:103F6000B8CF46ED5EE167EE7EE1B3CF49E05FE1B9
:103F70006CEF7EE1AECF4CEF5EE169E07FE1A9CF6F
:103F800081E00E94511EC6CF89E0FBCFC1E089CFFE
:103F9000219A45B14D7F55B15260EFB7F8949B011E
:103FA000220F331F260F371F280F391F28173907F5
:103FB00041F4EFBF8FE594E00197F1F700C00000F6
:103FC0000895DC016D91CD0178E055B9000000C085
:103FD00067FF45B9660F000000C000C000C045B9CA
:103FE00000C07A9591F7E2CFCF93DF93EC01FB010C
:103FF0008281882309F420C1C430FDE5DF07C8F5BC
:10400000CB3F9CE5D90730F49E0122503C4524313A
:10401000310598F50E94FC0C9093FA038093F90304
:10402000C031FCE5DF0709F4E0C008F061C0C8302A
:104030009CE5D90709F4CBC088F5C430FCE5DF075F
:1040400009F4B3C0E8F4C2309CE5D90709F4A7C06D
:104050008091F9038260C330DC4509F4A3C08091EC
:10406000F9039091FA030E940A0D0E94010780E073
:1040700004C0C236EDE5DE0769F2DF91CF91089505
:104080008091F9038061C630FCE5DF0709F48AC03E
:1040900008F48FC08091F903806284C08091F90395
:1040A0008D7FCC309CE5D90709F47CC070F48091F9
:1040B000F9038C60CA30FCE5DF0709F473C008F42B
:1040C0008AC08091F9038E7F6DC08091F903877F4C
:1040D000CE309CE5D90709F465C08091F9038B7F48
:1040E000CF30DC4508F45EC08091F9038F7E5AC062
:1040F000CD3FFCE5DF0709F474C040F5C4319CE511
:10410000D90709F48AC058F4C231FCE5DF0709F485
:1041100074C008F46EC08091F903837F43C0CB3F25
:104120009CE5D90709F449C008F04DC0C531DC450C
:1041300009F095CF8091F90382FB992790F921E04E
:10414000922790FB82F990FB83F92CC0C1308DE55A
:10415000D80709F458C088F48091FA038360CF3FF0
:10416000ECE5DE0769F18091FA038D7FC115DD452D
:1041700038F18091FA038C7F23C0C3308DE5D807D6
:1041800009F458C008F452C0C236DD4509F067CFC3
:104190009091F903892F8F7E94FF806103C08091F5
:1041A000F90381608093F9035ACF8091F903846009
:1041B000F9CF8091F9038860F5CF8091FA0381608F
:1041C0008093FA034CCF8091FA038260F9CF8091FB
:1041D000F9038064E7CF0E9401078091F9038068AA
:1041E000E1CF8091FA038E7FEBCF8091F9038F7D31
:1041F000D9CF8091F9038F7BD5CF0E9401078091A1
:10420000F9038F77CFCF8091FA03982F9095917013
:104210008E7F892B90FB81F9D3CF0E94010790916B
:10422000F903892F97FB87F98058BCCF81E00E9462
:10423000900D15CF80E0FBCF81E01FCFCF93DF93B0
:10424000EB0186319C4511F50E940F0C9A81992350
:1042500099F08A7A91E009F490E09093C803811173
:1042600009C089E20E94EA0B0E94520C80E0DF91B3
:10427000CF91089585E3F6CF8091C803811104C0E2
:1042800089E20E94F10BF0CF85E3FBCF81E0EFCF15
:104290000F931F93CF93DF93C42FD22FFC01828102
:1042A0008823C9F04093CB030E94AF239093CA03A5
:1042B0008093C90380E28C0F883008F050C0C7702B
:1042C00081E001C0880FCA95EAF7DF91CF911F9175
:1042D0000F910C9483041091CB03141335C080917B
:1042E000C9039091CA030E94C723883C910560F5D9
:1042F000C0E2CD0F1D17B9F080E2810F883040F485
:10430000177081E001C0880F1A95EAF70E948A04AD
:10431000C83048F481E09D2F977001C0880F9A95AE
:10432000EAF70E948304802F0E947B04C830B8F40F
:10433000D77081E001C0880FDA95EAF7DF91CF915D
:104340001F910F910C948A0480E28C0F883038F40E
:10435000C77081E001C0880FCA95EAF7EFCFDF91FF
:10436000CF911F910F9108950F939C01CB01243F92
:104370004CE5340759F1A8F4293DFCE53F0701F16C
:104380002A3D4CE53407D1F1283D3C4591F406E245
:1043900021EE41EE68ED7CE50E94482180E00F911E
:1043A0000895263FFCE53F07E9F0B0F0273F3C4584
:1043B000F9F0FC018281882339F11092CB03EFCF11
:1043C00007E225EE45EE69ED7CE5E6CF06E221EE5B
:1043D00040EE64EF7CE5E0CF07E225EE44EE65EFCA
:1043E0007CE5DACF06E221EE42EE66EF7CE5D4CF43
:1043F00007E225EE46EE67EF7CE5CECF08E221E04E
:1044000045EE6AED7CE5C8CF81E0C9CF9093A50267
:104410008093A40208959093D1038093D0030895CC
:10442000E091D003F091D103309721F00190F08119
:10443000E02D099480E00895E091D003F091D1033C
:10444000309799F020911A02222359F02091F90314
:1044500027FF07C0DC012C9111962C93119726E0C1
:104460002C930280F381E02D099408952091CE03CE
:104470003091CF032817390771F09093CF038093C1
:10448000CE03E091D003F091D103309721F0068064
:10449000F781E02D099408952091CC033091CD034C
:1044A0002817390771F09093CD038093CC03E091E6
:1044B000D003F091D103309721F00084F185E02DF5
:1044C00009940895FC01329680911A02882321F004
:1044D0008091F9039EE187FF96E080E0915008F417
:1044E000089521912223D1F38F5FF8CF662301F144
:1044F00020911A022223F1F02091F90327FF1AC01C
:10450000462F4695469546954E3190F4677021E0CA
:1045100030E002C0220F331F6A95E2F7840F911D2D
:10452000FC01828190E02823392381E0232B69F468
:1045300080E00895FC01329608962191261721F01B
:10454000E817F907D1F7F4CF81E008959C01FC0149
:1045500032969FEF80E04191461751F09F3F19F44A
:10456000411101C0982F8F5F8630A9F79F3F09F452
:104570000895290F311D97FD3A95F9016283089539
:10458000FC01329608962191261303C0DF01119792
:104590001C92E817F907B9F70895E62FE695E69516
:1045A000E695EE3168F4E80FF92FF11D677021E010
:1045B00030E001C0220F6A95EAF78281822B828364
:1045C0000895E62FE695E695E695EE3170F4E80F4E
:1045D000F92FF11D677021E030E001C0220F6A95CC
:1045E000EAF72095828128232283089520911A02D8
:1045F000222329F02091F90327FD0C94CD220C945D
:10460000A62220911A02222329F02091F90327FDE6
:104610000C94E1220C94C022FC01329680911A0283
:10462000882351F08091F90387FF06C08EE1DF01F6
:104630001D928A95E9F7089586E0F9CF08950C94C4
:104640001E23811105C081E08093D2030C941F23A7
:1046500082E0FACF83E08093D2030C941F230C9462
:10466000212381E08093D2030C941F230C943123E7
:10467000089580910405843031F10E94270310923F
:10468000D30388E190E020E40FB6F894A8958093D6
:1046900060000FBE2093600083B7817F846083BF7A
:1046A00083B7816083BF7894889583B78E7F83BFFB
:1046B0000FB6F894A895809160008861809360009F
:1046C000109260000FBE089508950895CF930E9440
:1046D00064230E9471110E946523C0E08C2F0E9408
:1046E000A810892B31F4CF5FC530C1F780E0CF919E
:1046F000089581E0FCCF0E9401070C949A031F9259
:104700001FB61F9211248F939F93AF93BF938091F5
:10471000D303811113C08091FC049091FD04A091FA
:10472000FE04B091FF044196A11DB11D8093FC04CD
:104730009093FD04A093FE04B093FF04BF91AF914A
:104740009F918F911F901FBE1F90189582E084BD8E
:1047500093E095BD9AEF97BD80936E0008952FB7B3
:10476000F8948091FC049091FD04A091FE04B09116
:10477000FF042FBF08952FB7F8946091FC04709147
:10478000FD048091FE049091FF042FBF08959C01C9
:104790004FB7F8948091FC049091FD04A091FE0421
:1047A000B091FF044FBF821B930B0895CF92DF920D
:1047B000EF92FF922FB7F894C090FC04D090FD04C4
:1047C000E090FE04F090FF042FBFA7019601261B86
:1047D000370B480B590BCA01B901FF90EF90DF90DE
:1047E000CF90089578941F921FB61F9211248F9333
:1047F0009F93AF93BF938091FC049091FD04A0918F
:10480000FE04B091FF040196A11DB11D8093FC042C
:104810009093FD04A093FE04B093FF04BF91AF9169
:104820009F918F911F901FBE1F90189581E08093DC
:10483000E00080E28093D8001092C9008FE19EE4EE
:104840000197F1F700C0000087E090EBDC01809356
:104850000D0590930E05A0930F05B093100588E108
:104860009CE00FB6F894A895809360000FBE9093DB
:104870006000FFCF8091F70308950895CF93DF93F1
:10488000EC0180911A028823B1F18091F90387FF2E
:1048900032C060E282E08093E9008FEF9091E800FF
:1048A000815095FD06C095ED9A95F1F700008111B4
:1048B000F5CF8091E80085FF1BC080911A0270E05F
:1048C00050E040E0811104C050E040E068E070E05A
:1048D000CE010E9457268091E8008E778093E800F1
:1048E00080E2FE01A7EDB3E001900D928A95E1F719
:1048F000DF91CF91089568E081E0CDCF8093D4031C
:104900007093D6036093D50380910405843001F53C
:1049100082E08093E9008FEF9091E800815095FD4F
:1049200006C095ED9A95F1F700008111F5CF8091C1
:10493000E80085FF0DC050E040E063E070E084EDEA
:1049400093E00E9457268091E8008E778093E800DC
:104950000895BC0184E00C947E24BC0183E00C9497
:104960007E24089580910305811109C00E94E727E4
:104970000E9444288091E20084608093E2000895C0
:104980001092030508950C9431236091000581E095
:10499000611101C080E00C942A239091040581E00C
:1049A000943009F080E0609100050C942F2342E0E0
:1049B00061EC81E00E94632742E261EC82E00E94A8
:1049C00063279091040581E0943009F080E06091C4
:1049D00000050C94212380910605833009F460C002
:1049E00030F48130C9F1823009F49CC008958A30D6
:1049F00009F488C08B3009F46EC0893009F04FC0CB
:104A000080910505813209F04AC080910905909195
:104A10000A05029708F043C08091E800877F8093E1
:104A2000E8008091E80082FF36C09091F300809109
:104A3000F200029731F48091F100813011F086305C
:104A400021F48091F1008093F7038091E8008B7747
:104A50008093E8000C94972780910505813AF9F43A
:104A60008091E800877F8093E8008091090590910C
:104A70000A05892B61F460E287ED93E070E00E9403
:104A8000A6268091E8008B778093E800089560E087
:104A900090E080E0F3CF809104058111C2CF0895AA
:104AA00080910505813AD9F78091090590910A0511
:104AB000892BA9F78091E800877F8093E800809197
:104AC000E80080FFFCCF80911A028093F100809172
:104AD000E8008E77BDCF80910505813201F7809186
:104AE000090590910A05892BD1F68091E800877F0E
:104AF0008093E8000E9497278091070580931A020F
:104B00000C94010780910505813249F68091E800F7
:104B1000877F8093E8000E94972780910805809303
:104B2000F803089580910505813A09F0B8CF809186
:104B3000E800877F8093E8008091E80080FFFCCF49
:104B40008091F803C2CF84B7877F84BF0FB6F894F3
:104B5000A895809160008861809360001092600049
:104B60000FBE80E890E00FB6F894809361009093B8
:104B700061000FBE0C9436230E94E7270E94442850
:104B8000E2EEF0E080818460808378940C94CD2AFA
:104B90008EE092E00C940B22809104058530A9F4FC
:104BA00080910405853011F00C947B230E943923F9
:104BB000809102058823A1F30E946623882381F354
:104BC0000E9441260E940107EBCF089508950C949E
:104BD000E925292F33272330310519F168F42130D5
:104BE000310509F444C02230310509F445C090E094
:104BF00080E030E020E025C02132310549F1223249
:104C00003105A9F780E490E024EC34E061157105EA
:104C1000C1F08DE690E027E534E06130710589F060
:104C2000E6CF99278130910581F0009729F002970E
:104C3000F1F6ECEDF3E002C0E6E0F4E0849190E000
:104C40009F01FA01318320830895E8EEF3E0F6CF67
:104C500089E090E02CE134E06115710591F389E081
:104C600090E025E334E06130710559F3C0CF82E173
:104C700090E025E434E0E5CF8BE390E02AE034E0F7
:104C8000E0CF80E189BD82E189BD09B400FEFDCF9E
:104C90008091D8008F7D8093D8008091E000826061
:104CA0008093E0008091E00081FDFCCF0895AF92F9
:104CB000BF92CF92DF92FF920F931F93CF93DF9318
:104CC0006C01EB018A010E94B627F82E811123C0E6
:104CD0000115110539F0F80180819181C81BD90BAC
:104CE000C80ED91EB12CA12C2097A9F08091E80004
:104CF00085FD22C08091E8008E778093E800011541
:104D00001105A1F0F80180819181A80EB91EB18230
:104D1000A08285E0F82E8F2DDF91CF911F910F910A
:104D2000FF90DF90CF90BF90AF9008950E94B6277C
:104D30008823D1F2F82EEFCFF60181916F01809395
:104D4000F1002197FFEFAF1ABF0ACECFFC0180918F
:104D50000B0590910C0586179707A0F0611571055A
:104D600029F49091E8009E779093E80090E0611517
:104D7000710551F4911108C08091E80082FF34C0A0
:104D800080E00895BC01F2CF809104058823C1F131
:104D90008530C1F18091E80083FD30C08091E8004A
:104DA00082FDEACF8091E80080FFE1CF8091F3009F
:104DB0002091F200382F6115710519F02830310566
:104DC00058F091E02830310509F090E02091E8009A
:104DD0002E772093E800CBCF81918093F100615032
:104DE00071092F5F3F4FE7CF80910405882341F081
:104DF000853041F08091E80083FFBECF81E00895C7
:104E000082E0089583E00895FC0180910B05909164
:104E10000C0586179707A0F06115710529F480919C
:104E2000E8008E778093E80090E06115710551F4F9
:104E3000911108C08091E80082FF35C080E008959C
:104E4000BC01F2CF809104058823C9F18530C9F1F6
:104E50008091E80083FD31C08091E80082FDEACFB7
:104E60008091E80080FFE1CF8091F3002091F20073
:104E7000382F6115710519F02830310558F091E08F
:104E80002830310509F090E08091E8008E7780931A
:104E9000E800CBCF84918093F10031966150710985
:104EA0002F5F3F4FE6CF80910405882341F0853086
:104EB00041F08091E80083FFBDCF81E0089582E05A
:104EC000089583E00895982F973028F08F7080938D
:104ED000E90081E008959093E900242F762F50E0B7
:104EE000981731F07091EC002091ED005091F00096
:104EF00021FD02C09F5FE8CF3091EB003E7F3093F1
:104F0000EB003091ED003D7F3093ED003091EB00F0
:104F100031603093EB007093EC002093ED005093E0
:104F2000F0002091EE0027FDE5CF80E0089580910C
:104F3000050587FF13C08091E80082FF06C08091BD
:104F4000E8008B778093E80004C08091040581110C
:104F5000F2CF0895809104058823D9F38091E80069
:104F600080FFF8CF8091E8008E77ECCF2091E400AD
:104F70003091E50095E6A9012091EC00822F817027
:104F800020FF06C08091E80080FF06C080E0089501
:104F90002091E80022FD1AC080910405882389F041
:104FA000853089F08091EB0085FD0FC02091E400F1
:104FB0003091E50042175307F9F29150E1F684E091
:104FC000089582E0089583E0089581E008950E94A5
:104FD00055280E945D28E0EEF0E0808181608083AA
:104FE000E8EDF0E080818F77808319BCA7EDB0E019
:104FF0008C918E7F8C9380818F7E808310920305AD
:1050000008950F931F93CF93DF930E9455280E941A
:105010005D28C8EDD0E088818F778883888180689B
:10502000888388818F7D888319BC10920405109233
:105030000005109202051092010500EE10E0F80143
:1050400080818B7F808388818160888342E060E0FB
:1050500080E00E946327E1EEF0E080818E7F808314
:10506000E2EEF0E0808181608083808188608083CF
:10507000F80180818E7F8083888180618883DF91C1
:10508000CF911F910F910895E8EDF0E080818F7E20
:105090008083E7EDF0E080818160808384E082BFDF
:1050A00081E0809303050C940128E8EDF0E0808115
:1050B0008E7F80831092E20008951092DA001092A1
:1050C000E10008951F920F920FB60F9211242F93B3
:1050D0003F934F935F936F937F938F939F93AF9380
:1050E000BF93EF93FF938091E10082FF0BC080910B
:1050F000E20082FF07C08091E1008B7F8093E10096
:105100000E94CC2A8091DA0080FF19C08091D800DB
:1051100080FF15C08091DA008E7F8093DA00809145
:10512000D90080FF96C080E189BD82E189BD09B4C4
:1051300000FEFDCF81E0809304050E94B22480919F
:10514000E10080FF19C08091E20080FF15C08091CE
:10515000E2008E7F8093E2008091E2008061809384
:10516000E2008091D80080628093D80019BC85E06D
:10517000809304050E94C5248091E10084FF2BC028
:105180008091E20084FF27C080E189BD82E189BD72
:1051900089B5982F917080FFFBCF8091D8008F7DCB
:1051A0008093D8008091E1008F7E8093E100809110
:1051B000E2008F7E8093E2008091E2008160809324
:1051C000E20080910005882309F449C084E08093BF
:1051D00004050E94CD248091E10083FF29C08091C5
:1051E000E20083FF25C08091E100877F8093E1008A
:1051F00082E080930405109200058091E1008E7F8B
:105200008093E1008091E2008E7F8093E2008091A4
:10521000E20080618093E20042E060E080E00E9472
:1052200063278091F00088608093F0000E94C3247F
:10523000FF91EF91BF91AF919F918F917F916F916E
:105240005F914F913F912F910F900FBE0F901F9044
:10525000189519BC109204050E94C02470CF80914B
:10526000E30087FD93E090930405B3CF1F920F9264
:105270000FB60F9211242F933F934F935F936F9329
:105280007F938F939F93AF93BF93CF93DF93EF93CE
:10529000FF93D091E900DF708091EC00C82FC170BE
:1052A00080FDC0E81092E9008091F000877F809334
:1052B000F00078940E947A291092E9008091F00021
:1052C00088608093F000CD2BCF70C093E900FF91F0
:1052D000EF91DF91CF91BF91AF919F918F917F918E
:1052E0006F915F914F913F912F910F900FBE0F9053
:1052F0001F9018951F93CF93DF93CDB7DEB7AA9772
:105300000FB6F894DEBF0FBECDBF85E095E02091CB
:10531000F100FC012193CF01F5E08D309F07B9F733
:105320000E94EB248091E80083FF1EC18091050557
:10533000909106059A3008F017C1E92FF0E0E35983
:10534000F34D0C94512B803899F0823809F00CC140
:10535000809109058F70873008F006C18093E900BD
:105360008091EB0085FB882780F91092E90006C048
:105370008091010590910205911182609091E80061
:10538000977F9093E8008093F1001092F100809154
:10539000E8008E77E5C0882309F4D3C0823009F095
:1053A000E3C0809107058111D6C0809109058F70F7
:1053B0002FEF280F263008F0D7C08093E900209106
:1053C000EB0020FFC8C0933031F48091EB00806285
:1053D0008093EB00C0C09091EB0090619093EB0044
:1053E00021E030E001C0220F8A95EAF72093EA001D
:1053F0001092EA008091EB008860EACF8111B4C07E
:10540000109107051F778091E3008078812B8093AE
:10541000E3008091E800877F8093E8000E9497274F
:105420008091E80080FFFCCF8091E300806880934A
:10543000E30082E0111183E08093040595C0805859
:10544000823008F091C080910705909108058C3D4D
:1054500023E09207A1F583E08A838AE289834FB72C
:10546000F894DE01139620E03EE051E2E32FF0E0F5
:1054700050935700E49120FF03C0E295EF703F5F27
:10548000EF708E2F90E0EA30C0F0C7968D939D9319
:105490002F5F243159F74FBF8091E800877F8093B9
:1054A000E8006AE270E0CE0101960E94A626809193
:1054B000E8008B778093E80057C0C096E7CF6091F3
:1054C000090570910A05AE014F5F5F4F0E94E72505
:1054D000BC01892B09F448C09091E800977F909314
:1054E000E80089819A810E940427E1CF8038E1F5A4
:1054F0008091E800877F8093E80080910005809389
:10550000F10045CF811130C090910705923060F5D0
:105510008091E800877F8093E800909300050E94C7
:10552000972780910005882311F084E005C08091C1
:10553000E30087FDFACF81E0809304050E94D72421
:1055400013C080910705813079F481E0933009F030
:1055500080E0809302051092E9008091E800877F47
:105560008093E8000E9497278091E80083FF0AC09B
:105570008091E800877F8093E8008091EB00806253
:105580008093EB00AA960FB6F894DEBF0FBECDBF96
:10559000DF91CF911F9108950895CF9380910405D5
:1055A0008823A1F0C091E900CF709091EC00892F81
:1055B000817090FD80E8C82B1092E9008091E8008E
:1055C00083FD0E947A29CF70C093E900CF9108959E
:1055D000AA1BBB1B51E107C0AA1FBB1FA617B70719
:1055E00010F0A61BB70B881F991F5A95A9F7809535
:1055F0009095BC01CD01089597FB072E16F40094F9
:1056000007D077FD09D00E94E82A07FC05D03EF4B8
:10561000909581959F4F0895709561957F4F08955E
:10562000A1E21A2EAA1BBB1BFD010DC0AA1FBB1FA6
:10563000EE1FFF1FA217B307E407F50720F0A21B18
:10564000B30BE40BF50B661F771F881F991F1A9485
:1056500069F760957095809590959B01AC01BD01AF
:10566000CF010895052E97FB1EF400940E94492B4C
:1056700057FD07D00E94102B07FC03D04EF40C946A
:10568000492B50954095309521953F4F4F4F5F4F97
:10569000089590958095709561957F4F8F4F9F4F9E
:1056A0000895EE0FFF1F0590F491E02D09948F925D
:1056B0009F92AF92BF92CF92DF92EF92FF92CF93E1
:1056C000DF93EC01688179818A819B816115710585
:1056D0008105910521F464E279ED8BE597E02DE1F8
:1056E00033EF41E050E00E94322B49015A019B0107
:1056F000AC01A7EAB1E40E941B2C6B017C01ACEE6B
:10570000B4EFA50194010E94292CDC01CB018C0D82
:105710009D1DAE1DBF1DB7FF03C00197A109B04875
:1057200088839983AA83BB839F77DF91CF91FF9072
:10573000EF90DF90CF90BF90AF909F908F900895A3
:105740000E94572B089580E091E00E94572B089506
:10575000B0E0A0E08093000190930101A0930201CA
:10576000B09303010895FB01DC0104C08D91019009
:10577000801921F441505040C8F7881B990B0895B7
:10578000FB01DC0102C001900D9241505040D8F75E
:105790000895DC01CB01FC01F999FECF06C0F2BDF2
:1057A000E1BDF89A319600B40D9241505040B8F7DF
:1057B0000895F999FECF92BD81BDF89A992780B5D9
:1057C0000895A8E1B0E042E050E00C94CB2BDC015E
:1057D000A40FB51F4150504048F0CB01840F951FD6
:1057E0002E910E94F82B41505040D0F70895262F5B
:1057F000F999FECF92BD81BDF89A019700B40216C7
:1058000039F01FBA20BD0FB6F894FA9AF99A0FBE74
:1058100008950396272F0E94F82B0E94F72B252F1F
:105820000E94F82B242F0C94F82B0196272F0E940E
:10583000F82B0C94F72B0E942E2CA59F900DB49F53
:10584000900DA49F800D911D11240895B7FF0C9415
:105850001B2C0E941B2C821B930B0895A29FB0014E
:10586000B39FC001A39F700D811D1124911DB29F94
:10587000700D811D1124911D0895F894FFCFCF0460
:10588000CF040005000593052F052F052F05AF0553
:105890003B064A064A0610071007190719071B0797
:1058A0001907190719071007100720071907190703
:1058B0002007481C531C6C1C711C761C7B1C801C14
:1058C000851C8A1C8F1C941C991C9E1CA31CA81C44
:1058D000AD1CB21CB71CBC1CC11CA329CB29B42A0B
:0E58E000CB29B42AFE291F2AB42A762A822A4E
:1058EE0001000000000102030405060708090A0B67
:1058FE000C0D1B1A191817161514131211100F0E62
:10590E001C1D1E1F202122232425262728FF353467
:10591E00333231302F2E2D2C2B2A29FF363738FFDC
:10592E00FFFF39FFFFFF3A3B3C3D00001100220014
:10593E00340045005600670079008A009B00AC00D9
:10594E00BE00CF00D700E018D710C610B410A410B8
:10595E009210811070105F104E103C102B101A1008
:10596E00001000201E202F20412051206320742083
:10597E0085209620A820B920CA20DC20CF30BE304A
:10598E00AC309B308A307930673056304530343009
:10599E002230113000300040114022406740AC40B0
:1059AE00BE40CF40E0400104040404040404040497
:1059BE00040404010104040404040404040404049F
:1059CE000401010404040404040404040404040192
:1059DE000404040404040404040404010101010485
:1059EE0001010101C80016030300FF00FFFF3A2466
:1059FE003E24B124AD24A9243D240100FFA0E200E1
:105A0E00E900EA00B500B600B700CD008301CC0076
:105A1E008A01920194012102230224022502260208
:105A2E0027022A02B300B4006F007000818283E265
:105A3E0000E900EA00B500B600B700CD008301CC46
:105A4E00008A0192019401210223022402250226DA
:105A5E000227022A02B300B4006F00700081828315
:105A6E00F0959392919067663635349796943332CB
:105A7E00F1F4F5003131295A1B750A0C1F0D1F1850
:045A8E001F231F00B3
:00000001FF
