:100000000C94A9010C94F0010C94F0010C94F001F3
:100010000C94F0010C94F0010C94F0010C94F0019C
:100020000C94F0010C94F0010C94E31A0C94B51BA1
:100030000C9425160C94F0010C94F0010C94F00132
:100040000C94F0010C94F0010C94F0010C94F0016C
:100050000C94F0010C947E160C94F0010C94F001B9
:100060000C94F0010C94F0010C94F0010C94F0014C
:100070000C94F0010C94F0010C94F0010C94F0013C
:100080000C94F0010C94F0010C94F0010C94F0012C
:100090000C94F0010C94F0010C94F0010C94F0011C
:1000A0000C94F0010C94F0010C94F00171047104B3
:1000B000A304A304F0042406240624060E05A305C5
:1000C000B405B4051406240624061D06C006C006A1
:1000D000D206D206C906D206D206D206C006C0068D
:1000E000CE06D206D206CE06221C491C411D491C52
:1000F000411D951CB81C411D0F1D1E1D29001E0011
:100100001F002000210022002300240025002600DB
:1001100027002D002E002A004B002B0000001400A9
:100120001A000800150017001C0018000C0012002F
:1001300013002F0030004E00E00000000400160005
:10014000070009000A000B000D000E000F0033002D
:10015000340032004F00E10064001D001B00060067
:1001600019000500110010003600370038000000AB
:10017000E50052003900E300E2000000000000004A
:100180002C00000000000000E60001515000280093
:10019000510035003A003B003C003D003E003F006E
:1001A0004000410042004300440044004C004A002B
:1001B0000100000001000100010001000100010038
:1001C0000100010001000100010001004D000100DB
:1001D0000000010001000100010001000100010018
:1001E0000100010001000100010001000100010007
:1001F00001000100010001000100010001000100F7
:1002000001000100010001000100005C010001008B
:1002100000000000000001000000000000000100DC
:100220000100010028000100100363007900630051
:100230006C006F0070007300000018037700650009
:100240007300740066006F007800740072006F0025
:10025000740000000403090409023B00020100A02D
:10026000FA09040000010301010009211101000144
:100270002240000705810308000A09040100010368
:10028000000000092111010001226D000705820311
:1002900020000A1201000200000008FF21660A0186
:1002A000000102000105010980A101850319012A4D
:1002B000B700150126B700950175108100C0050C27
:1002C0000901A101850419012AA002150126A00235
:1002D000950175108100C005010906A1018505057C
:1002E0000719E029E7150025019508750181020528
:1002F00007190029EF1500250195F0750181020508
:10030000081901290595057501910295017503915B
:1003100001C005010906A101050719E029E715003B
:100320002501950875018102950175088101050770
:10033000190029FF150026FF0095067508810005A4
:10034000081901290595057501910295017503911B
:1003500001C011241FBECFEFDAE0DEBFCDBF04B66F
:1003600003FE27C080918C0290918D02A0918E0295
:10037000B0918F028730904BA740B04BD1F41092D0
:100380008C0210928D0210928E0210928F0214BE77
:1003900084B7877F84BF0FB6F894A89580916000DA
:1003A000886180936000109260000FBEE0E0F8E387
:1003B000099511E0A0E0B1E0E8E9FBE302C0059097
:1003C0000D92A438B107D9F722E0A4E8B1E001C04A
:1003D0001D92AC38B207E1F70E948D120C94CA1D31
:1003E0000C94000081E0089581E008950C94F401DC
:1003F00008950C94F8011F93CF93DF9300D000D0A1
:100400001F92CDB7DEB749835A836B833091860143
:1004100089819A81311114C0662359F0222349F051
:100420000E946408182F682F89819A810E940D0804
:1004300003C00E943808182F69817A81812F04C077
:100440000E94640869817A810F900F900F900F903D
:100450000F90DF91CF911F910C94F70EFC01262F86
:10046000408151816281738184810C94FB0181E020
:100470000895CF93DF93EC0160E00E942E02BE014D
:10048000DF91CF910C94F9010E9406110E94B502F0
:100490000C9443110C943F1108950E94AE060E94E3
:1004A0004C022FEF84E39CE0215080409040E1F724
:1004B00000C000000C94A4160F931F93CF93DF93FA
:1004C0008C0161E00E942E02EC01B8010E94F6014D
:1004D0008823F1F1B801CE010E940B138823C1F1EA
:1004E000B801CE010E945D13882391F1B801CE01BD
:1004F0000E948814882361F1F8018281882309F120
:10050000CB358DE5D807C1F050F4C115FCE5DF0708
:1005100081F0CF3DDC45A9F40E94F90D19C0CC351E
:10052000EDE5DE0761F0CD35DD4559F40E94830C21
:1005300008C00E944D020CC00E948C0C02C00E9498
:100540008F0CC801DF91CF911F910F910C94F20194
:1005500080E0DF91CF911F910F91089508950C9441
:10056000AE0281E008950C94B1020895CF93C82F94
:100570000E94AF028C2F0E94B302CF910895CF93B7
:10058000DF93CDB7DEB72B970FB6F894DEBF0FBE63
:10059000CDBF4F83588769877A878B8761110E9407
:1005A000B20C9E012F5F3F4F86E0F90111928A95B0
:1005B000E9F785E0FE013796D90101900D928A9501
:1005C000E1F789819A814C815D81452B31F09F3F14
:1005D00031F491E08F3F19F403C091E001C090E045
:1005E00090FF09C049815A816B817C818D819E81F8
:1005F0000E94B20B05C0C9010E9437028111F2CFDF
:100600002B960FB6F894DEBF0FBECDBFDF91CF9112
:100610000895FC01808191810E94A6080895CF93DE
:10062000882309F49CC0C82F8238C1F40E94BE14EC
:1006300081FD95C069E380910001909101010E94C4
:10064000A6150E94E40C2FEF81EE94E0215080402B
:100650009040E1F700C0000069E319C0833801F55C
:100660000E94BE1480FD7BC063E5809100019091E3
:1006700001010E94A6150E94E40C2FEF81EE94E088
:10068000215080409040E1F700C0000063E5809178
:100690000001909101010E94B115CF910C94E40CDE
:1006A0008438C1F40E94BE1482FD59C067E4809171
:1006B0000001909101010E94A6150E94E40C2FEF09
:1006C00081EE94E0215080409040E1F700C00000AE
:1006D00067E4DDCF8CEF8C0F813AD0F46C2F8091E2
:1006E0000001909101010E942615882349F06C2F8A
:1006F00080910001909101010E94B1150E94E40CCB
:100700006C2F80910001909101010E94A615C5CF28
:1007100080E28C0F883048F4C77081E001C0880FF8
:10072000CA95EAF70E94950CB8CFEBE5EC0FE330E1
:1007300040F4F0E0E55CFE4F808190E0CF910C94B6
:10074000E414C85AC73158F4EC2FF0E0EE0FFF1F45
:10075000E35FFE4F80819181CF910C94FA14CF9189
:100760000895882309F45BC0682F823879F40E94C9
:10077000BE1481FF54C069E3809100019091010192
:100780000E94A6150E94E40C69E310C08338B1F4FE
:100790000E94BE1480FF43C063E5809100019091E8
:1007A00001010E94A6150E94E40C63E580910001FE
:1007B000909101010E94B1150C94E40C843879F4F5
:1007C0000E94BE1482FF2BC067E4809100019091CB
:1007D00001010E94A6150E94E40C67E4E7CF8CEFAC
:1007E000860F813A18F380E2860F883048F46770EC
:1007F00081E001C0880F6A95EAF70E949B0CDCCF6C
:100800008BE5860F833020F480E090E00C94E414B4
:10081000685A673120F480E090E00C94FA1408954F
:100820001F93CF93DF93182FEB010E940F032097A4
:1008300041F08FE99FE00197F1F700C00000219798
:10084000F6CF812FDF91CF911F910C94B1038933A3
:1008500019F060E070E002C060E570E00C941004F4
:10086000882321F00E94950C0C94E40C08958823B1
:1008700021F00E949B0C0C94E40C0895CF92DF921F
:10088000EF92FF920F931F93CF93DF937C01062F7C
:10089000C72FFC01D281158112951F700E946A0C2E
:1008A000882399F0DD2389F08C2F807F803421F01C
:1008B00080E2800F883048F082E00E94340D0E9470
:1008C0006A0C91E0D82ED92601C0D12CCC2EC2942E
:1008D0008FE0C8228C2D90E0FC01EA5AFF4F0C9467
:1008E000751D8C2F807FCF70882311F0C295C07F3B
:1008F000DD2399F0CC2309F482C180E2800F883097
:1009000010F0011104C08C2F0E94950C03C08C2F95
:100910000E94A50C0E94E40C72C1802F0E94B103BA
:10092000CC2309F491C180E2800F883010F00111CE
:1009300004C08C2F0E949B0C03C08C2F0E94AB0C18
:100940000E94E40C81C18C2F807FCF70803211F027
:10095000C295C07F002319F00130C9F022C0DD2309
:1009600071F0112341F0113031F40E94C50C8C2B31
:100970000E94CD0C69C10E94C50C8C2B1DC0112397
:1009800019F0113009F460C10E94DA0C25C0DD2392
:1009900021F0163008F058C10EC0153008F054C1CF
:1009A0001BC0DD2361F0112331F0F701858180FF49
:1009B00026C18F7085838C2F0E94300445C111237E
:1009C00059F0093309F02CC1FFEF27EE83E0F15015
:1009D00020408040E1F722C18C2F0E94370434C1AF
:1009E0008C2F86958695837019F0813061F02CC12B
:1009F000DD2321F0802F9C2F937002C080E090E0D7
:100A00000E94E41429C1DD2321F0802F9C2F9370D4
:100A100002C080E090E00E94FA141EC18C2F837007
:100A200009F045C0D11114C1402F42954695477039
:100A3000440F440F602F6F70862F90E0A0E0B0E06D
:100A4000042E04C0880F991FAA1FBB1F0A94D2F757
:100A500004FF10C00FE010E020E030E004C0000F01
:100A6000111F221F331F4A95D2F70095109520952C
:100A7000309503C000E010E09801C695C695C3709C
:100A8000BC01CD01602B712B822B932BC23049F01E
:100A900058F4C13019F00E942307DAC00E941107F0
:100AA000D7C00E943507D4C00E940F07D1C0DD23F4
:100AB00019F08C2F817001C08695882309F4C8C075
:100AC000402F429546954770440F440F602F6F703A
:100AD000862F90E0A0E0B0E0042E04C0880F991F9C
:100AE000AA1FBB1F0A94D2F704FF10C00FE010E04A
:100AF00020E030E004C0000F111F221F331F4A9571
:100B0000D2F7009510952095309503C000E010E0D5
:100B10009801C695C695C370BC01CD01602B712BA1
:100B2000822B932BC23049F058F4C13019F00E9447
:100B3000E8078EC00E94D6078BC00E94FA0788C0C3
:100B40000E94490785C0CF70DD2339F08C2F0E94A9
:100B50006F07802F0E9430047BC0802F0E943704D3
:100B60008C2F0E94900774C0023F01F128F4003FCF
:100B700041F0013FA1F03FC0033FF9F0043F39F1DC
:100B80003AC0DD2341F0153008F05EC08C2F8F7124
:100B90000E94B50759C0163008F056C0F7CFDD23C4
:100BA00039F08C2F8F710E946F074EC0DD23C9F37F
:100BB0008C2F8F710E94900747C0DD2329F08C2F66
:100BC0008F710E945A0740C00E9455073DC0DD2327
:100BD00049F0CF718C2F0E946F0763E08C2F0E9429
:100BE000190D32C081E00E94340D123068F182E0AC
:100BF0000E94340D29C0DD2331F0112391F2802FA2
:100C00000E940F0321C0112399F2093349F49FEF89
:100C1000E7EEF3E09150E040F040E1F700C0000063
:100C2000802F0E94B10310C04C2F4F70602FC7015E
:100C30000E94F30E0E94D4080FC04C2F4F70602FFB
:100C4000C7010E94F60E08C088EF8C0D843020F496
:100C50000E94BE140E94B602DD20C9F00E94660CFC
:100C600080FD15C0F70112820E94600C0E946F0780
:100C7000C7010E9468060E94600CDF91CF911F910E
:100C80000F91FF90EF90DF90CF900C949007DF9141
:100C9000CF911F910F91FF90EF90DF90CF9008952B
:100CA0000F931F93CF93DF93EC01688179818A8141
:100CB0000E94B1088C010E940C080E94FD06B80138
:100CC000CE010E943E04DF91CF911F910F910895B4
:100CD000CF93DF93EC01988189812B813C81232B79
:100CE00031F08F3F31F481E09F3F19F403C081E080
:100CF00001C080E080FD19C0CE010E945C0281111C
:100D00000CC00E946A0C882381F08A81882369F0D4
:100D100082E0DF91CF910C94340DCE010E945006F9
:100D2000CE01DF91CF910C943902DF91CF910895DC
:100D300080E090E00E94E41480E090E00E94FA14C9
:100D40000E94B20C0E94C20C0C94E40C8091000131
:100D5000909101010E94BC150C9498060E94A20C6F
:100D60000C94A606E92FE295EF704E2F50E0FA01A1
:100D70003297EE30F105B0F4EA59FF4F0C94751D2F
:100D8000803F91F018F4883E68F40EC0843F51F41F
:100D90000BC0883E48F0813F29F406C093FB8827AA
:100DA00080F9089580E0089581E00895FC01808134
:100DB00091810E94A6080E94B2060895CF93DF9306
:100DC00000D000D01F92CDB7DEB70F900F900F90DC
:100DD0000F900F90DF91CF910895CF93DF9300D0C4
:100DE00000D000D0CDB7DEB726960FB6F894DEBFA0
:100DF0000FBECDBFDF91CF910895089508950C9453
:100E0000FE060C94FF060E9401076093BD017093DB
:100E1000BE018093BF019093C0010C9498060C947E
:100E200003070F931F930091BD011091BE01209104
:100E3000BF013091C001602B712B822B932B1F912E
:100E40000F910C9403070F931F930091BD01109114
:100E5000BE012091BF013091C00160237123822324
:100E600093231F910F910C9403070F931F930091ED
:100E7000BD011091BE012091BF013091C0016027DA
:100E80007127822793271F910F910C9403070C94CD
:100E9000FE060E9447076093B9017093BA018093E0
:100EA000BB019093BC010C94980660E070E0CB010C
:100EB0000C9449070F931F9341E050E060E070E00D
:100EC0008A019B0104C0000F111F221F331F8A9546
:100ED000D2F7C901B8011F910F910C9449070F93E4
:100EE0001F9341E050E060E070E004C0440F551FE4
:100EF000661F771F8A95D2F78091B9019091BA0148
:100F0000A091BB01B091BC018A019B01082B192B58
:100F10002A2B3B2BC901B8011F910F910C94490753
:100F20000F931F9341E050E060E070E004C0440F75
:100F3000551F661F771F8A95D2F74095509560958B
:100F400070958091B9019091BA01A091BB01B091C7
:100F5000BC018A019B01082319232A233B23C901D1
:100F6000B8011F910F910C9449070F931F9341E013
:100F700050E060E070E004C0440F551F661F771F0B
:100F80008A95D2F78091B9019091BA01A091BB01E5
:100F9000B091BC018A019B01082719272A273B270A
:100FA000C901B8011F910F910C9449070F931F932A
:100FB0000091B9011091BA012091BB013091BC019F
:100FC000602B712B822B932B1F910F910C9449074F
:100FD0000F931F930091B9011091BA012091BB01A9
:100FE0003091BC0160237123822393231F910F91C1
:100FF0000C9449070F931F930091B9011091BA0106
:101000002091BB013091BC01602771278227932773
:101010001F910F910C94490708952FE0929F800D26
:101020001124E82FE695E695E695877051E001C01A
:10103000550F8A95EAF785E0E89FF0011124E957FA
:10104000FE4F20E030E070E04081CB01022E02C074
:10105000969587950A94E2F7817081958427852378
:10106000842781932F5F3F4F2530310569F708951D
:101070002FE0929F800D1124682F669566956695E6
:10108000982F977085E0689FB001112440E050E0F0
:1010900080E0FB01E40FF51FE957FE4F208130E0AF
:1010A000092E02C0369527950A94E2F7217033275E
:1010B000042E01C0220F0A94EAF7822B4F5F5F4F84
:1010C0004530510531F70895BF92CF92DF92EF92EC
:1010D000FF920F931F93CF93DF938C01C090B901C0
:1010E000D090BA01E090BB01F090BC018091BD01AD
:1010F0009091BE01A091BF01B091C001C82AD92A28
:10110000EA2AFB2ACFE1D0E0D701C6010C2E04C0A9
:10111000B695A795979587950A94D2F780FD04C058
:10112000219790F7B12C07C0BC2EB8018C2F0E94DC
:1011300027100197A9F38B2DDF91CF911F910F916C
:10114000FF90EF90DF90CF90BF900895CF93DF9303
:10115000EC010E946408BE010E942710DF91CF912C
:1011600008951F93CF93DF93EB019091860199230C
:1011700021F0CB010E94A60813C0882349F0CB01BF
:101180000E946408182F682FCE010E940D0804C029
:10119000CB010E943808182FBE01812F0E94271012
:1011A000DF91CF911F910895EF92FF920F931F93BC
:1011B000CF93DF938C01892B09F46CC0F12CEE24C2
:1011C000E394E8012196F8018491843740F4843057
:1011D00008F051C0813081F0823019F15BC0853751
:1011E00009F444C0A8F19CE7980F903708F052C06A
:1011F0008F770E94B10341C00E5F1F4FFE018491A3
:1012000090E2980F983050F48770FE2D01C0FF0FC8
:101210008A95EAF78F2F0E94B50C14C00E940F0325
:101220002DC00E5F1F4FFE01849190E2980F983001
:1012300060F48770FE2D01C0FF0F8A95EAF78F2FAB
:101240000E94BB0C0E94E40C19C00E94B10316C09E
:101250000E5F1F4FFE01C491CC2381F08FE99FE008
:101260000197F1F700C00000C150F6CF0E5F1F4F8D
:10127000FE01F49003C00E940F038E018F2D88237E
:1012800009F49FCFEFE9FFE03197F1F700C00000CC
:101290008150F5CFDF91CF911F910F91FF90EF908B
:1012A00008951F93CF93DF93C091C10116E0809101
:1012B000C201C81799F0D0E01C9FF0011D9FF00DEE
:1012C0001124ED53FE4F40815181628173818481ED
:1012D00095810E94ED062196C770E9CFDF91CF91ED
:1012E0001F9108954091F3015091F4016091F5012F
:1012F0007091F6018091F7019091F8010C94ED0640
:101300000F931F93CF93DF938091F80182958F7095
:1013100009F05DC08091F501882309F458C08091DF
:10132000C1011091C2016091F3017091F401C0916B
:10133000F601D091F70191E06F3F09F090E0292F7D
:1013400006E0811709F443C0209721F07F3F21F088
:1013500030E003C031E001C0322F90E030FD34C0F6
:10136000089FF001099FF00D1124DF01AD53BE4F1E
:1013700011963C911197371327C03C91361324C026
:1013800012963C91129731111FC013964D915C91AA
:1013900014974C1B5D0B483C5105B0F48091F8014B
:1013A0008F7080618093F801E853FE4F80818F70C9
:1013B0008061808383EF91E00E946806DF91CF9186
:1013C0001F910F910C94510901968770BACFDF914C
:1013D000CF911F910F9108959F92AF92BF92CF929C
:1013E000DF92EF92FF920F931F93CF93DF93CDB7CE
:1013F000DEB761970FB6F894DEBF0FBECDBF8C018C
:1014000085E0F801DE011D9601900D928A95E1F7C5
:10141000F801E2809091F3016091F4012091F601CE
:101420003091F7012115310531F06F3F31F481E042
:101430009F3F19F403C081E001C080E0F82FF170F4
:101440009F2E80FD3FC1F80140815181A380B4806F
:1014500083EFC82E81E0D82EF090F501F501E21B54
:10146000F30BFF2009F4D9C08091F801E83CF105A5
:1014700008F095C0282F207F09F052C0561313C0E2
:10148000491311C0FE2CE1100EC08F708061809353
:10149000F8010E947209C6010E9468068091F80155
:1014A000F80185834CC1AB2831F05F3F31F481E016
:1014B0004F3F19F403C081E001C080E080FD03C00C
:1014C00081E08E2502C080E090E0F82FF170FF2EC1
:1014D00080FF1CC08091C1012091C20136E08217BB
:1014E00009F40BC190E0389FF001399FF00D1124F1
:1014F000ED53FE4F6181561306C06081461303C051
:101500006281E61203C001968770E9CFFE2CEE20BF
:1015100009F415C18091F80181608093F80154C0ED
:10152000561306C0491304C0E11002C0F80199C067
:10153000C8010E94D606882361F1EE2051F1209166
:10154000F801822F82958F7090E0029774F080915D
:10155000F3019091F40198878F831986BB86AA8640
:101560002C87CE0107960E94680686E0F801A3EF5B
:10157000B1E001900D928A95E1F70E9480090E94E6
:1015800072090AC0561711F1C8010E94D6068111CE
:101590002CC0C8010E946806FF24F394D0C0282FF5
:1015A000207F81F77A2DB98AA88A6E2D89890E94B9
:1015B000DE0683EF91E00E94680686E0F601119254
:1015C0008A95E9F70E947209F12CB9C04913DCCF62
:1015D000E110DACFF8018583C8010E94680686E031
:1015E000F60111928A95E9F7AAC0EE2091F22091B6
:1015F000F801822F82958F7090E002970CF4B5CF9E
:101600008091F3019091F4019A8389831B82BD82BA
:10161000AC822E83CE010196A6CFE83CF10508F0FE
:1016200044C0FE2CEE2009F4B4CF561330C0491349
:101630002EC02091F80120FD21C0822F82958F704D
:10164000482F50E041155105C9F0F80125834F306E
:10165000510541F08F5F982F9295907F822F8F7068
:10166000892B8583C8010E94680686E0F801A3EFF4
:10167000B1E001900D928A95E1F73CC086E0F80157
:10168000A3EFB1E001900D928A95E1F758C0C8012F
:101690000E94D606811169CF8091F8018160809304
:1016A000F801C8010E9468064AC07A2DB98AA88A42
:1016B0006E2D89890E94DE0686E0F60111928A95D8
:1016C000E9F718C0EE2009F464CFC8010E94D606DD
:1016D000F82E882309F45DCF86E0F801A3EFB1E08E
:1016E00001900D928A95E1F783EF91E00E94090342
:1016F0000E9480090E94720922C04D875E878D85F5
:101700009E850E94A608292F22952F70223028F44A
:101710009F7039F0811105C00BC0243028F49F70F0
:1017200049F4805E883020F0C8010E9468069F2C32
:10173000F92C05C0F8019581907F99F7F9CF8F2D8D
:1017400061960FB6F894DEBF0FBECDBFDF91CF918B
:101750001F910F91FF90EF90DF90CF90BF90AF90CF
:101760009F9008951F93CF93DF93CDB7DEB72C974B
:101770000FB6F894DEBF0FBECDBF4F835887698781
:101780007A878B879C87CE0107960E94EC09882375
:10179000D1F09F8188852A853B85232B31F08F3FAF
:1017A00031F481E09F3F19F403C081E001C080E083
:1017B00080FD47C04F81588569857A858B859C85DA
:1017C0000E94ED063EC086E0FE013796DE011196CE
:1017D00001900D928A95E1F7FF81E8856A857B8506
:1017E0006115710531F0EF3F31F481E0FF3F19F4ED
:1017F00003C081E001C080E080FD23C02091C201D0
:1018000030E0C9010196877099274091C10150E0ED
:1018100084179507F1F1F983EA837D836C8396E061
:10182000929FD001939FB00D1124AD53BE4FFE0186
:10183000319601900D929A95E1F78093C2010E9432
:10184000510916E08091C1019091C201891771F18F
:10185000189FC00111248D539E4F0E94EC098823CC
:1018600029F1E091C1011E9FF0011124ED53FE4FBB
:101870004081518162817381848195810E94ED064E
:101880008091C10190E00196877099278093C101F2
:10189000D9CF0E94AE061092C2011092C101E3EFAF
:1018A000F1E086E0DF011D928A95E9F72C960FB6EC
:1018B000F894DEBF0FBECDBFDF91CF911F91089589
:1018C0008091F90185958595859508958091F90117
:1018D000877008959091F901977081E009F480E094
:1018E00008959091660292FB222720F9281751F063
:1018F00080FB92F990936602809165029091660256
:101900000C94750D08958091660282FB882780F9FA
:1019100091E089270C94710C81E00C94710C80E0AB
:101920000C94710C80911D02089590911D02892BD9
:1019300080931D020895809590911D0289238093C4
:101940001D02089510921D02089590911C02892B8A
:1019500080931C020895809590911C0289238093A6
:101960001C02089510921C02089590911B02892B6D
:1019700080931B020895809590911B028923809388
:101980001B02089510921B0208958091FA01089598
:1019900008950C94C80C0C94C90C9091660292FDA9
:1019A00008C09091FA01981721F08093FA010C94E5
:1019B000CB0C08958091FA01882329F01092FA0146
:1019C00080E00C94CB0C0895E0910001F0910101AE
:1019D00080911D028083E0910001F09101019081CE
:1019E00080911C02892B8083E0910001F09101011C
:1019F000908180911B02892B80838091FA0188233A
:101A000081F0E0910001F09101019081892B8083A8
:101A100080910001909101010E94101581110E9496
:101A2000DA0C80910001909101010C94CA140C947D
:101A3000C80C9091660292FD10C098E0899F9001B9
:101A40001124262B2093F9010E946F078091F90140
:101A50008595859585950C94170D0C946F071092BC
:101A6000F90180E00C94170D2091F90180958223F3
:101A70008093F901982F977041F430E0482F082E99
:101A8000000C550B2417350721F49091660292FF44
:101A900007C08595859585950E9490070C942F0D1C
:101AA000089580E090E00E94901D21E0893E9E4FC5
:101AB00009F020E0822F089582E090E00C94881DC8
:101AC00083E090E00C94881DCF9384E090E00E9426
:101AD000881DC82F82E290E00E94881D2C2F30E0E4
:101AE000A901582BCA01CF910895CF93C92F682F10
:101AF00084E090E00E94961D6C2F82E290E0CF91EE
:101B00000C94961DAB01BC018FE090E00C94A81DD5
:101B1000AB01BC0183E190E00C94A81D60E070E093
:101B2000CB010C94880D60E070E0CB010E94820D27
:101B30000C948E0D69EE7EEF80E090E00E94B41D63
:101B400060E082E090E00E94961D60E083E090E01B
:101B50000E94961D1092BD011092BE011092BF010D
:101B60001092C00160E084E090E00E94961D60E069
:101B700082E290E00E94961D60E085E090E00E9485
:101B8000961D60E086E090E00E94961D6FEF87E072
:101B900090E00E94961D40E050E0BA0188E090E09D
:101BA0000E94A81D60E08DE090E00E94961D40E03C
:101BB00050E0BA0188E190E00E94A81D60E087E152
:101BC00090E00E94961D40E050E0BA018CE190E068
:101BD0000E94A81D60E070E080E290E00E94B41DC9
:101BE00040E050E0BA0188E190E00E94A81D0C940A
:101BF000930D0C949A0D682F8EE090E00C94961D36
:101C00000E94631660932D0270932E0280932F0220
:101C1000909330026093290270932A0280932B02E2
:101C200090932C02089585B7806885BF85B780683A
:101C300085BF089581E008950C941A0E08950C94C0
:101C40001E0E0C941E0E0C94210E0C941E0E0C9461
:101C5000250E0C941E0E0E94130E83E091E10E944B
:101C6000C8160E94290E0C94270E0E941F0E0C9479
:101C70001E0E0E944E160E94F4110C94230E6F92B9
:101C80007F928F929F92AF92BF92CF92DF92EF920C
:101C9000FF920F931F93CF93DF93CDB7DEB72A97B1
:101CA0000FB6F894DEBF0FBECDBF0E9407128111A0
:101CB0000E94000E3FE1832E32E0932E00E010E000
:101CC000C02E802F0E942A115C01F4016190719056
:101CD0004F016826792661147104B1F40F5F1F4F1C
:101CE0000530110569F78FEF89838A831B820E9473
:101CF00057168160782F9D838C8349815A816B812F
:101D00008D810E94BF023AC08091310281FD0E9404
:101D10003311D12CEE24E394F12CC3018E219F21A9
:101D2000892B29F10E941C0E8823A9F0DE82CF8224
:101D3000AE20BF2081E0AB2809F480E088870E94B4
:101D400057168160782F9A8789874E815F816885D1
:101D50008A850E94BF02000F111FF801E15EFD4F4E
:101D600080819181E826F926F182E08207C0D39430
:101D7000EE0CFF1CFFE0DF12D0CFB0CF0E94BE14EC
:101D800090911E028917D1F00E94BE1480931E020A
:101D90002A960FB6F894DEBF0FBECDBFDF91CF916C
:101DA0001F910F91FF90EF90DF90CF90BF90AF9079
:101DB0009F908F907F906F900C94B6022A960FB6EA
:101DC000F894DEBF0FBECDBFDF91CF911F910F9171
:101DD000FF90EF90DF90CF90BF90AF909F908F904B
:101DE0007F906F90089580E090E0089508952BE42F
:101DF000829FC0011124FC012FE0729FE00DF11DB4
:101E00001124E60FF11DEE0FFF1FE450FF4F8591E7
:101E100094910895880F991FFC01E85DFD4F85910D
:101E200094910895CF93DF930E942C10EC018115BB
:101E300020E5920708F041C0811540E4940708F0BE
:101E4000CBC0803E910520F5803C910508F0B8C0DC
:101E5000883A910570F4853A910508F0A8C0813060
:101E6000910509F4A1C008F4EBC0049708F0EBC099
:101E7000E7C08F3B910508F0E3C0885AC82FD0E037
:101E8000CC0FDD1FC25CDE4F888199819464DCC079
:101E9000811550E2950750F4C11581E0D80708F08C
:101EA000D2C0C83ED10508F4CEC0CAC0811520E317
:101EB000920708F08AC09F7085C0811545E5940798
:101EC00008F046C0811554E5950708F09DC0C1157E
:101ED00082E5D80718F5C11521E5D20708F07FC0C3
:101EE000CE01F4E096958795FA95E1F7282F2370B7
:101EF0003C2F337081E090E002C0880F991F3A9523
:101F0000E2F79C68922B2C2F2F702695269540E2A5
:101F1000249F90011124822B932B96C09E01237045
:101F200033279C2F96959695C115D34508F05CC034
:101F300041E050E002C0440F551F2A95E2F780E2CD
:101F4000989F90011124CA01822B932B9C687CC01E
:101F5000811559E5950798F4C11588E5D80708F06B
:101F600058C0C11526E5D20708F06AC08C2F0E9420
:101F7000C0108F7190E0982F8827906265C08115FE
:101F80004AE5940708F44AC090568115904208F03B
:101F900057C08D2F8F710E94C0109E013327306271
:101FA0008F71A901582B4AC081E090E04DC0855A3D
:101FB000C82FD0E0C459DE4F888190E0906444C0BF
:101FC000805C91090E940A0F3FC09927D3FF02C08D
:101FD000986C3AC0906C38C09F70906A35C09C2F46
:101FE0008827816F906A30C041E050E002C0440F02
:101FF000551F2A95E2F780E2989F90011124CA01AB
:10200000822B932B9A6820C0982F8827846F906A20
:102010001BC09C2F8827806F906A16C08F700E940B
:10202000C0109E0194E0369527959A95E1F72F70A0
:1020300030E0322F22273069A901482BCA0104C0A1
:1020400080E090E001C0CE01DF91CF9108950E9421
:10205000F70E0E94120F08958238910569F1B0F4CD
:102060008133910509F46DC048F48932910509F472
:1020700063C08A32910509F469C0089585339105DA
:1020800009F455C089339105B9F00895833E91054F
:1020900069F138F4803E9105B1F0823E910509F175
:1020A0000895863E9105A9F1873E9105B9F1843ED8
:1020B000910509F064C023C02091650220FD4FC046
:1020C00021FD4DC008958091650280FD44C080913E
:1020D000660280FF44C08091650284FD42C083EEA9
:1020E0004DC08091650282FF38C0F5CF80916502B6
:1020F00082FD33C08091660280FD31C0ECCF8091BB
:10210000660281FF32C08091650284FD2AC087EE9D
:1021100035C08091650283FF26C0F5CF80916502AE
:1021200083FD21C08091660281FD1FC0ECCF8091AC
:10213000650285FD1CC01DC08091650285FD19C02A
:1021400016C08091650286FD16C017C08091650299
:1021500086FD13C010C089E311C082EE0FC080EE6F
:102160000DC080E00BC086EE09C084EE07C089E296
:1021700005C085E303C08AE201C081E390E00895D1
:102180009091650292FF0DC0282F2871283019F414
:10219000877F846006C0282F2471243011F48B7F40
:1021A000886093FF0DC0282F2871283119F4877E8D
:1021B000846106C0282F2471243111F48B7E88613C
:1021C0002091660220FF0DC0382F3871383019F485
:1021D000877F816006C0382F3171313011F48E7FD6
:1021E000886021FF0DC0282F2871283119F4877EBF
:1021F000816106C0282F2171213111F48E7E886102
:1022000094FD877E089580E0089508950E94510D01
:10221000811102C00E94F90D0E945C0D8093310271
:102220000E94640D90936602809365020E940511DE
:102230000E94600D682F70E080E090E00E940F0720
:102240006091B9017091BA018091BB019091BC017C
:102250000C944707E82FF0E0EE0FFF1FEF58FD4FFB
:10226000808191810895089580EA8A95F1F7089513
:1022700000C008950C94341108950C943C110C94F2
:102280003D110C943C110C944111F894E82FE29507
:10229000EF70F0E031A1282F2F7081E090E001C0B5
:1022A000880F2A95EAF7982F9095932391A392A1EE
:1022B000892B82A3789408950F931F93CF93DF9374
:1022C000CEE7D1E089918F3F11F00E94451181E066
:1022D000C338D807B9F7CFE6D1E00EE711E089910E
:1022E0008F3F11F00E9445110C171D07C1F7DF91B8
:1022F000CF911F910F910895AF92BF92CF92DF922D
:10230000EF92FF920F931F93CF93DF938C01C62F11
:10231000D0E0CE0182589E4F6C01DC019C919F3F22
:1023200009F457C0B62EF894E92FE295EF70F0E06B
:1023300081A19F7021E030E001C0220F9A95EAF759
:10234000822B81A382A12095282322A378940E9426
:102350003811EFE6F1E020E030E0E12CF12C41E033
:1023600050E081918F3FC1F0A82FA295AF70B0E0EF
:1023700090966C9170E08F70DB0102C0B595A795C7
:102380008A95E2F7A0FD08C0CA01022E02C0880F9C
:10239000991F0A94E2F702C080E090E0E82AF92A47
:1023A0002F5F3F4F2F303105E1F6F60180818F3FDF
:1023B00011F00E94451161E0E114F10409F460E0BC
:1023C0008B2D0E943A11CC0FDD1FC00FD11FF98257
:1023D000E882DF91CF911F910F91FF90EF90DF90F6
:1023E000CF90BF90AF9008950E945C11E7E6F2E0B5
:1023F000A1E7B2E0119211921D921D9282E0E137A5
:10240000F807C1F785E00E9452120C944402FF9233
:102410000F931F93CF93DF93CDB7DEB72A970FB6F5
:10242000F894DEBF0FBECDBF8E010F5F1F4F8AE055
:10243000F80111928A95E9F7F12C6F2DC8010E94DD
:102440007C11F394F5E0FF12F8CF4AE050E0B801B8
:1024500087E692E00E947B1DFF24F394009709F425
:10246000F12C892B41F08AE0F801A7E6B2E0019057
:102470000D928A95E1F72F2D45E061E772E087E63E
:1024800092E00E9453120E944A028F2D2A960FB6A4
:10249000F894DEBF0FBECDBFDF91CF911F910F919A
:1024A000FF9008950895FF920F931F93CF93DF93AA
:1024B000F82E092F162FD72FC42F222349F081E0A1
:1024C000809334020E945716909333028093320215
:1024D000809134028823D9F08091320290913302A6
:1024E0000E946F16059798F0EF2DF02FA12FBD2FAA
:1024F00080E090E04C2F50E08417950734F4219150
:1025000031912D933D930196F7CF10923402DF91D4
:10251000CF911F910F91FF9008950E94CE150E94B8
:1025200020180E9439180E944B180E94350EFBCFCC
:102530000F931F93CF93DF93C42FD22FFC0182817F
:102540008823C9F0409337020E94571690933602B1
:102550008093350280E28C0F883008F057C0C77036
:1025600081E001C0880FCA95EAF7DF91CF911F91F2
:102570000F910C94300480913702481330C0809141
:102580003502909136020E946F16883C910538F50D
:1025900010E21D0FCD17B9F080E28C0F883040F4A7
:1025A000C77081E001C0880FCA95EAF70E9437041E
:1025B000183028F581E09D2F977001C0880F9A95FB
:1025C000EAF70E943004802F0E9427041830F0F4AC
:1025D000D77081E001C0880FDA95EAF70AC080E27F
:1025E0008C0F883098F4C77081E001C0880FCA95BD
:1025F000EAF7DF91CF911F910F910C943704802F50
:10260000DF91CF911F910F910C942704DF91CF910F
:102610001F910F9108950F939C01CB01243F4CE52E
:10262000340731F188F4293DFCE53F07D9F02A3D14
:102630004CE5340779F1283D3C45A9F506E221EE49
:1026400041EE68ED7CE52BC0263FFCE53F07E1F05D
:10265000A8F0273F3C4539F507E225EE46EE67EF47
:102660007CE51DC007E225EE45EE69ED7CE517C06F
:1026700006E221EE40EE64EF7CE511C007E225EEB4
:1026800044EE65EF7CE50BC006E221EE42EE66EF1C
:102690007CE505C008E221E045EE6AED7CE50E949C
:1026A000981280E008C0FC018281882319F0109202
:1026B000370201C081E00F910895CF93DF93EC01C1
:1026C000FB018281882309F41FC1C230FCE5DF07CA
:1026D00008F41BC1C6319CE5D90738F09E012B5F79
:1026E0003C452930310508F010C10E94640D9093DB
:1026F000660280936502C031ECE5DE0709F4C3C0D1
:1027000008F041C0C8308CE5D80709F49AC0F0F44D
:10271000C430ECE5DE0709F487C068F4C2308CE50C
:10272000D80709F477C0C330DC4509F0E3C08091D5
:102730006502826076C0C630ECE5DE0709F46EC043
:1027400008F07BC08091650288606BC0CC308CE55E
:10275000D80709F485C068F4CA30ECE5DE0709F44F
:1027600074C008F079C00E94AE068091650280684E
:1027700058C0CE308CE5D80709F476C008F07FC089
:10278000809165028BC0CC3FECE5DE0709F44FC0B9
:1027900018F5C3318CE5D80709F47DC078F4C13150
:1027A000ECE5DE0709F473C0C231DC4509F0A2C0D4
:1027B0000E94AE06809165028F7733C0C5318CE5EB
:1027C000D80709F472C008F486C0CB3FDC4509F095
:1027D00091C0809166023EC0C115FDE5DF0709F496
:1027E0005FC058F4CE3F9CE5D90709F444C008F413
:1027F0003FC08091660282602DC0C230FDE5DF07D8
:1028000009F475C008F45DC0C330DD4509F072C03D
:1028100080E06EC080916502816003C08091650296
:1028200080618093650266C08091650211C08091CD
:1028300066028260809366025DC08091650280625C
:10284000F0CF809165028064ECCF80916502886052
:102850008460E7CF8160EECF809165028E7FE1CF0B
:10286000809165028D7FDDCF80916502877FD9CF12
:102870008091660218C0809166028D7FDBCF8091C7
:1028800065028F7ECECF809165028F7DCACF809109
:1028900065028F7BC6CF80916502877F8B7FC1CF1A
:1028A000809166028D7F8E7FC5CF8091650282FB0D
:1028B000222720F991E0922790FB82F990FB83F97F
:1028C000B0CF80916602982F909591708E7F892B62
:1028D00090FB81F9AFCF0E94AE068091650287FB25
:1028E000222720F991E0922790FB87F99ACF81E087
:1028F0000E94FB0D80916502909166020E94750D09
:102900000E94AE0680E001C081E0DF91CF91089582
:10291000CF93DF9386319C4541F5EB010E94920CE9
:10292000982F8A812091000130910101882379F04C
:102930009A7A81E009F480E080933802911102C014
:1029400069E201C065E3C9010E94A6150AC0809131
:102950003802811102C069E201C065E3C9010E9429
:10296000B1150E94E40C80E001C081E0DF91CF91BD
:10297000089590933E0280933D020895E0913D02B8
:10298000F0913E02309721F00190F081E02D099402
:1029900080E00895E0913D02F0913E02309799F079
:1029A00020910C01222359F02091650227FF07C0D6
:1029B000DC012C9111962C93119725E02C93028029
:1029C000F381E02D0994089520913B0230913C025F
:1029D0002817390771F090933C0280933B02E091F5
:1029E0003D02F0913E02309721F00680F781E02D04
:1029F000099408952091390230913A022817390735
:102A000071F090933A0280933902E0913D02F09187
:102A10003E02309721F00084F185E02D099408955D
:102A2000FC01329680910C01882331F0809165027F
:102A300087FF02C09EE101C096E080E0915028F03F
:102A400021912223D9F38F5FF9CF0895662351F1A5
:102A500020910C012223E9F02091650227FF19C083
:102A6000462F4695469546954E31E0F4677021E035
:102A700030E002C0220F331F6A95E2F7FC01E40F39
:102A8000F11D828190E02823392381E0232B69F412
:102A900009C0FC01329608962191621729F0E817C7
:102AA000F907D1F780E0089581E008959C01FC01C9
:102AB00032969FEF80E04191461789F09F3F19F4CD
:102AC000411101C0982F8F5F8630A9F79F3F39F0E1
:102AD000F901E90FF11D97FDFA95628308950895B4
:102AE0009C012A5F3F4FFC014281461301C01282C4
:102AF000019682179307B9F70895262F26952695F4
:102B000026952E3168F4FC01E20FF11D677021E07B
:102B100030E001C0220F6A95EAF78281282B2283D8
:102B20000895262F2695269526952E3170F4FC01C2
:102B3000E20FF11D677021E030E001C0220F6A95BD
:102B4000EAF72095828128232283089520910C01A1
:102B5000222329F02091650227FD0C947D150C9409
:102B6000561520910C01222329F02091650227FDA2
:102B70000C9491150C94701520910C01FC01329667
:102B8000222331F08091650287FF02C08EE101C0EF
:102B900086E0DF011D928A95E9F70895089508956A
:102BA0000C94CF150C94CF15CF930E94D2150E9490
:102BB00007120E94D015C0E08C2F0E942A11892B89
:102BC00029F4CF5FC530C1F780E001C081E0CF912B
:102BD00008950C94CF150C94E915809183028430EC
:102BE00049F10E94EB1580E00E94B60210923F026C
:102BF00020E488E190E00FB6F894A89580936000F7
:102C00000FBE2093600083B7817F846083BF83B74A
:102C1000816083BF7894889583B78E7F83BF0FB61A
:102C2000F894A8958091600088618093600010926C
:102C300060000FBE08950C94CF150E94AE060E944E
:102C4000BE140E94B6020C941B161F920F920FB670
:102C50000F9211248F939F93AF93BF9380913F0264
:102C6000811113C080917B0290917C02A0917D0222
:102C7000B0917E024196A11DB11D80937B0290937D
:102C80007C02A0937D02B0937E02BF91AF919F9191
:102C90008F910F900FBE0F901F90189582E084BD0A
:102CA00093E095BD9AEF97BD80936E0008952FB77E
:102CB000F89480917B0290917C02A0917D02B0916A
:102CC0007E022FBF08952FB7F89460917B02709118
:102CD0007C0280917D0290917E022FBF08959C011D
:102CE0004FB7F89480917B0290917C02A0917D0275
:102CF000B0917E024FBF821B930B089578941F9270
:102D00000F920FB60F9211248F939F93AF93BF939F
:102D100080917B0290917C02A0917D02B0917E0215
:102D20000196A11DB11D80937B0290937C02A0931C
:102D30007D02B0937E02BF91AF919F918F910F90D2
:102D40000FBE0F901F90189581E08093E00080E205
:102D50008093D8001092C9008FE19EE40197F1F7AB
:102D600000C0000087E090EBDC0180938C02909320
:102D70008D02A0938E02B0938F029CE088E10FB683
:102D8000F894A895809360000FBE90936000FFCFE9
:102D90009093850180938401089580916302089542
:102DA00090918302943031F58093400270934202F7
:102DB0006093410282E08093E9008FEF9091E800F8
:102DC000815095FD06C095ED9A95F1F700008111AF
:102DD000F5CF8091E80085FF0DC040E050E063E052
:102DE00070E080E492E00E94D7188091E8008E772E
:102DF0008093E8000895BC0184E00C94D016BC01D7
:102E000083E00C94D016CF93DF9320910C01222302
:102E100039F02091650227FF03C060E222E002C082
:102E200068E021E02093E9002FEF3091E800215085
:102E300035FD06C035ED3A95F1F700002111F5CFCB
:102E40002091E80025FF1DC0EC0180910C0181114B
:102E500005C040E050E068E070E003C070E040E092
:102E600050E0CE010E94D7188091E8008E778093C1
:102E7000E80080E2FE01A3E4B2E001900D928A95A1
:102E8000E1F7DF91CF910895089580918202811139
:102E900009C00E94681A0E94C51A8091E2008460ED
:102EA0008093E20008951092820208950895089593
:102EB000089542E061EC81E00E94E11942E261EC98
:102EC00082E00C94E11980918502833009F460C09E
:102ED00030F4813071F0823009F499C008958A305D
:102EE00009F485C08B3009F46BC0893009F0A7C0A4
:102EF00020C080918402813A09F0A1C08091E8004D
:102F0000877F8093E8008091880290918902892BC5
:102F100021F460E283E492E003C060E080E090E0AE
:102F200070E00E9422198091E8008B778093E8007E
:102F3000089580918402813209F081C080918802D5
:102F400090918902029708F07AC08091E800877F0B
:102F50008093E8008091E80082FD05C080918302A3
:102F60008111F8CF6CC02091F3008091F20090E0C5
:102F7000922B029729F48091F1008B7F813021F40C
:102F80008091F100809363028091E8008B7753C0B9
:102F900080918402813A09F052C080918802909118
:102FA0008902892B09F04BC08091E800877F8093CC
:102FB000E8008091E80080FFFCCF80910C0136C0D2
:102FC000809184028132D9F58091880290918902A2
:102FD000892BA9F58091E800877F8093E8000E9403
:102FE000161A8091860280930C010C94AE06809193
:102FF0008402813221F58091E800877F8093E80088
:103000000E94161A8091870280936402089580912D
:103010008402813AA1F48091E800877F8093E800E0
:103020008091E80080FFFCCF809164028093F100E2
:103030008091E8008E778093E8000C94161A08952A
:1030400084B7877F84BF0FB6F894A89580916000FD
:10305000886180936000109260000FBE90E080E86D
:103060000FB6F89480936100909361000FBE0C94AA
:103070002B0E0E94681A0E94C51AE2EEF0E08081D1
:103080008460808378940E945A1D0E94390E82E0E9
:1030900091E00C94B914809183028530A9F4809159
:1030A0008302853079F40E94ED1580918102882396
:1030B000B1F30E94D415882391F30E94C1180E9495
:1030C000AE06EDCF0E941D160C943F0E0C946818AE
:1030D000292F332723303105C9F060F42130310521
:1030E00081F02230310509F044C08BE390E028E5FF
:1030F00032E043C021323105E1F02232310549F19D
:1031000038C082E190E023E932E037C0992781306E
:10311000910549F028F0029761F5E8E2F2E005C078
:10312000E4E5F2E002C0EAE3F2E0849190E09F017E
:1031300024C06115710541F061307105D1F489E059
:1031400090E023E832E019C089E090E02AE632E01E
:1031500014C06115710541F06130710551F48DE6BF
:1031600090E025EA32E009C080E490E022E133E01B
:1031700004C080E090E020E030E0FA013183208359
:10318000089580E189BD82E189BD09B400FEFDCFCB
:103190008091D8008F7D8093D8008091E00082607C
:1031A0008093E0008091E00081FDFCCF0895CF92F4
:1031B000DF92EF92FF920F931F93CF93DF93EC0177
:1031C0008B017A010E94351A811133C0E114F10498
:1031D00039F0F70180819181081B190BC80FD91FA5
:1031E000C12CD12C0115110519F18091E80085FD44
:1031F00016C08091E8008E778093E800E114F10416
:1032000049F0F70180819181C80ED91ED182C08218
:1032100085E00FC00E94351A882321F30AC08991E6
:103220008093F10001501109FFEFCF1ADF0ADACFC6
:1032300080E0DF91CF911F910F91FF90EF90DF9091
:10324000CF90089520918A0230918B02261737077C
:1032500048F06115710539F42091E8002E7720932C
:10326000E80001C0B901FC0120E06115710579F1A8
:10327000809183028823F1F18530F1F18091E8009B
:1032800083FD3CC08091E80082FD2EC08091E80063
:1032900080FFEBCF2091F3008091F20090E0922B21
:1032A0006115710551F08830910538F42191209312
:1032B000F100615071090196F3CF21E0089709F000
:1032C00020E08091E8008E778093E800CECF211136
:1032D000CFCF0AC080918302882361F0853061F0EE
:1032E0008091E80083FD0AC08091E80082FFF2CF60
:1032F00080E0089582E0089583E0089581E00895D4
:1033000020918A0230918B022617370748F0611509
:10331000710539F42091E8002E772093E80001C070
:10332000B901FC0120E06115710591F180918302E2
:10333000882309F440C0853009F43FC08091E8003B
:1033400083FD3DC08091E80082FD2FC08091E800A0
:1033500080FFE9CF2091F3008091F20090E0922B62
:103360006115710559F08830910540F4249120933E
:10337000F1003196615071090196F2CF21E0089772
:1033800009F020E08091E8008E778093E800CBCFB1
:103390002111CCCF0AC080918302882361F085304F
:1033A00061F08091E80083FD0AC08091E80082FF0F
:1033B000F2CF80E0089582E0089583E0089581E0EF
:1033C0000895982F973068F59093E900981739F091
:1033D0007091EC002091ED005091F00003C0242F7B
:1033E000762F50E021FD02C09F5FECCF3091EB00C3
:1033F0003E7F3093EB003091ED003D7F3093ED0048
:103400003091EB0031603093EB007093EC0020932F
:10341000ED005093F0002091EE0027FDE5CF80E015
:1034200008958F708093E90081E00895809184026F
:1034300087FF11C08091E80082FD05C08091830262
:103440008111F8CF11C08091E8008B770BC080917B
:103450008302882349F08091E80080FFF8CF8091B3
:10346000E8008E778093E80008952091E400309181
:10347000E50095E64091EC00842F817040FF23C069
:103480008091E80080FD1DC080918302882399F01F
:10349000853099F08091EB0085FD11C04091E400EA
:1034A0005091E5002417350729F3915011F09A0146
:1034B000E1CF84E0089582E0089583E0089581E0FB
:1034C000089580E008954091E80042FFDDCF08951F
:1034D0000E94D61A0E94DE1AE0EEF0E08081816040
:1034E0008083E8EDF0E080818F77808319BCA7EDC1
:1034F000B0E08C918E7F8C9380818F7E8083109240
:10350000820208950F931F93CF93DF930E94D61AE0
:103510000E94DE1AC8EDD0E088818F778883888189
:103520008068888388818F7D888319BC109283028C
:1035300010927F02109281021092800200EE10E041
:10354000F80180818B7F808388818160888342E05D
:1035500060E080E00E94E119E1EEF0E080818E7F82
:103560008083E2EEF0E080818160808380818860EA
:103570008083F80180818E7F808388818061888349
:10358000DF91CF911F910F910895E8EDF0E08081D8
:103590008F7E8083E7EDF0E080818160808384E02E
:1035A00082BF81E0809382020C94821AE8EDF0E001
:1035B00080818E7F80831092E20008951092DA005D
:1035C0001092E10008951F920F920FB60F921124EE
:1035D0002F933F934F935F936F937F938F939F931B
:1035E000AF93BF93EF93FF938091E10082FF0BC0F5
:1035F0008091E20082FF07C08091E1008B7F809381
:10360000E1000E94591D8091DA0080FF1FC0809167
:10361000D80080FF1BC08091DA008E7F8093DA0093
:103620008091D90080FF0DC080E189BD82E189BD14
:1036300009B400FEFDCF81E0809383020E9445170C
:1036400005C019BC109283020E9453178091E100BB
:1036500080FF19C08091E20080FF15C08091E200D8
:103660008E7F8093E2008091E20080618093E2008F
:103670008091D80080628093D80019BC85E0809347
:1036800083020E9457178091E10084FF30C080912F
:10369000E20084FF2CC080E189BD82E189BD09B4CC
:1036A00000FEFDCF8091D8008F7D8093D80080915F
:1036B000E1008F7E8093E1008091E2008F7E809315
:1036C000E2008091E20081608093E20080917F02BD
:1036D000882311F084E007C08091E30087FD02C0D9
:1036E00081E001C083E0809383020E94581780919B
:1036F000E10083FF29C08091E20083FF25C0809113
:10370000E100877F8093E10082E080938302109242
:103710007F028091E1008E7F8093E1008091E20042
:103720008E7F8093E2008091E20080618093E200CE
:1037300042E060E080E00E94E1198091F000886042
:103740008093F0000E945617FF91EF91BF91AF91C7
:103750009F918F917F916F915F914F913F912F91A9
:103760000F900FBE0F901F9018951F920F920FB6DB
:103770000F9211242F933F934F935F936F937F93F7
:103780008F939F93AF93BF93CF93DF93EF93FF9369
:10379000C091E900CF708091EC00D82FD17080FDEE
:1037A000D0E81092E9008091F000877F8093F000CC
:1037B00078940E94F91B1092E9008091F0008860D3
:1037C0008093F000CD2BCF70C093E900FF91EF9173
:1037D000DF91CF91BF91AF919F918F917F916F9129
:1037E0005F914F913F912F910F900FBE0F901F90BF
:1037F00018951F93CF93DF93CDB7DEB7AA970FB677
:10380000F894DEBF0FBECDBFE4E8F2E08091F10096
:10381000819322E0EC38F207C9F70E946317809188
:10382000E80083FF2EC18091840290918502492F88
:1038300050E04A30510508F024C1FA01EC58FF4F1E
:103840000C94751D803821F0823809F01AC108C027
:103850008091800290918102992389F082600FC04B
:10386000809188028F70873008F00BC18093E90047
:103870008091EB0085FB882780F91092E9009091F8
:10388000E800977F9093E8008093F1001092F10098
:10389000D1C0282F2D7F09F0F4C0882319F0823081
:1038A00061F0EFC080918602813009F0EAC0933068
:1038B00009F080E0809381022EC080918602811100
:1038C0002AC0809188028F702FEF280F263008F0D1
:1038D000D8C08093E9002091EB0020FF1CC09330FA
:1038E00021F48091EB00806214C09091EB00906114
:1038F0009093EB0021E030E0A90102C0440F551F76
:103900008A95E2F74093EA001092EA008091EB007A
:1039100088608093EB001092E9008091E800877F37
:103920008093E8000E94161AACC08111AAC01091C1
:1039300086021F778091E3008078812B8093E300DB
:103940008091E800877F8093E8000E94161A80919A
:10395000E80080FFFCCF8091E30080688093E30063
:10396000111102C082E001C083E08093830289C00C
:103970008058823008F085C080918602909187023D
:103980008C3D53E0950779F583E08A838AE2898349
:103990004FB7F894DE01139620E03EE051E2E32FAA
:1039A000F0E050935700E49120FF03C0E295EF70E0
:1039B0003F5FEF708E2F90E0EA3010F0C79601C0A5
:1039C000C0968D939D932F5F243149F74FBF80910F
:1039D000E800877F8093E8006AE270E0CE010196FC
:1039E0000E94221916C06091880270918902AE016E
:1039F0004F5F5F4F0E946618BC01892B09F441C0DC
:103A00009091E800977F9093E80089819A810E94C5
:103A100080198091E8008B778093E80032C080386D
:103A200081F58091E800877F8093E80080917F0294
:103A30008093F1008091E8008E7772CF811121C0D0
:103A4000809186029091870299270297D4F4809101
:103A5000E800877F8093E8008091860280937F0250
:103A60000E94161A80917F02811106C08091E300A6
:103A700087FD02C081E001C084E0809383020E9440
:103A800059178091E80083FF0AC08091E800877F82
:103A90008093E8008091EB0080628093EB00AA960F
:103AA0000FB6F894DEBF0FBECDBFDF91CF911F914F
:103AB00008950895CF93809183028823A1F0C09147
:103AC000E900CF709091EC00892F817090FD80E823
:103AD000C82B1092E9008091E80083FD0E94F91B39
:103AE000CF70C093E900CF910895EE0FFF1F0590AE
:103AF000F491E02D0994FB01DC0104C08D9101904B
:103B0000801921F441505040C8F7881B990B089543
:103B1000F999FECF92BD81BDF89A992780B5089595
:103B2000A8E1B0E042E050E00C94BC1D262FF999CA
:103B3000FECF92BD81BDF89A019700B4021639F00C
:103B40001FBA20BD0FB6F894FA9AF99A0FBE0895DD
:103B50000396272F0E94971D0E94961D252F0E94D5
:103B6000971D242F0C94971D0196272F0E94971DB7
:103B70000C94961DDC01CB01FC01F999FECF06C027
:103B8000F2BDE1BDF89A319600B40D92415050401B
:083B9000B8F70895F894FFCF87
:103B9800FB01CD1603174417FF16FB1601E200E9D7
:103BA80000EA00B500B600B700CD008301CC008A5A
:103BB80001920194012102230224022502260227F0
:103BC800022A02B300B4006F007000818283E20011
:103BD800E900EA00B500B600B700CD008301CC00CB
:103BE8008A0192019401210223022402250226025D
:103BF80027022A02B300B4006F0070008182839309
:103C0800929596363132336667F7F6F4F5F191906E
:043C18009734F000ED
:00000001FF
