:100000000C94FD010C941C020C941C020C941C0218
:100010000C941C020C941C020C941C020C941C02E8
:100020000C941C020C941C020C94941E0C946A1FD9
:100030000C94AD190C941C020C941C020C941C0220
:100040000C941C020C941C020C941C020C941C02B8
:100050000C941C020C94061A0C941C020C941C02A6
:100060000C941C020C941C020C941C020C941C0298
:100070000C941C020C941C020C941C020C941C0288
:100080000C941C020C941C020C941C020C941C0278
:100090000C941C020C941C02C904C904FB04FB044C
:1000A00048056605870687067105060617061706C2
:1000B0007706870687068006270727073907390747
:1000C0003007390739073907270727073507390761
:1000D00039073507DB1F0220FA200220FA204E20C4
:1000E0007120FA20C820D7203A003B0029001E00CA
:1000F0001F002000210022002300240025002600EC
:1001000027002D002E002A00530047000000015157
:100110003C003D002B0014001A00080015001700D9
:100120001C0018000C00120013002F0030002800E3
:100130005F006000610055003E003F00E0000400E9
:100140001600070009000A000B000D000E000F004A
:100150003300340000005C005D005E0056000000CB
:1001600040004100E1001D001B00060019000500D1
:1001700011001000360037003800E500310059004A
:100180005A005B005700000042004300E2003500C7
:100190000000000000002C00000000000000000033
:1001A0000000000039006200000063000000000051
:1001B00001000100005C01000100010001000100DC
:1001C0000100010001000100010001000100010027
:1001D0000100010000000100010001000100010018
:1001E0000100010001000100010001000100010007
:1001F00001000100010001000100010001000100F7
:1002000001000100010001000100010001000100E6
:1002100001000100010001000100010000000100D7
:1002200001000100010000000100010001000100C7
:1002300001000100010001000100010001000100B6
:1002400001000100010001000100010001000000A7
:100250000100010001000100000000000000010099
:10026000000000000000000000000000010001008C
:10027000000001000000000014035A002D003100AE
:1002800035003000200050004300420000002203EF
:1002900062006C0069006E0064006100730073000E
:1002A00061007300730069006E003100310031009D
:1002B00000000403090409023B00020100A0FA093E
:1002C0000400000103010100092111010001224085
:1002D000000705810308000A09040100010300006A
:1002E0000009211101000122B60007058203200048
:1002F0000A1201000200000008EDFE60600100012A
:1003000002000105010902A10185020901A1000500
:1003100009190129081500250195087501810205B3
:1003200001093009311581257F950275088106097B
:10033000381581257F950175088106050C0A38025C
:100340001581257F950175088106C0C005010980CA
:10035000A101850319012AB700150126B7009501EF
:1003600075108100C0050C0901A101850419012A3D
:10037000A002150126A002950175108100C005019B
:100380000906A1018505050719E029E715002501E2
:100390009508750181020507190029EF150025014F
:1003A00095F075018102050819012905950575016A
:1003B0009102950175039101C005010906A101058E
:1003C0000719E029E71500250195087501810295B7
:1003D00001750881010507190029FF150026FF0096
:1003E000950675088100050819012905950575010F
:1003F0009102950175039101C00011241FBECFEF3A
:10040000D0E2DEBFCDBF11E0A0E0B1E0E0E6F3E472
:1004100000E00BBF02C007900D92A039B107D9F7D9
:1004200022E0A0E9B1E001C01D92A23DB207E1F7D0
:100430000E9472130C94AE210C94000081E0089588
:1004400081E008950C94200208950C9424021F93D7
:10045000CF93DF9300D000D01F92CDB7DEB7498392
:100460005A836B833091920189819A81311114C032
:10047000662359F0222349F00E94CB08182F682FD9
:1004800089819A810E94740803C00E949F08182FD6
:1004900069817A81812F04C00E94CB0869817A81A9
:1004A0000F900F900F900F900F90DF91CF911F91B1
:1004B0000C949C0FFC01262F408151816281738135
:1004C00084810C94270281E00895CF93DF93EC019F
:1004D00060E00E945A02BE01DF91CF910C94250288
:1004E0000E94C9110E94F6020C9409120C94051284
:1004F00008950E9415070E9478022FEF84E39CE084
:10050000215080409040E1F700C000000C942C1A6C
:100510000F931F93CF93DF938C0161E00E945A02E7
:10052000EC01B8010E9422028823F1F1B801CE014A
:100530000E9483168823C1F1B801CE010E94D5160E
:10054000882391F1B801CE010E940018882361F13F
:10055000F8018281882309F1CB358DE5D807C1F0F8
:1005600050F4C115FCE5DF0781F0CF3DDC45A9F46F
:100570000E94660E19C0CC35EDE5DE0761F0CD3581
:10058000DD4559F40E94EA0C08C00E9479020CC0B3
:100590000E94F30C02C00E94F60CC801DF91CF91BB
:1005A0001F910F910C941E0280E0DF91CF911F915B
:1005B0000F91089508950C94DA0281E00895CF9385
:1005C000C82F0E94DD02882379F0C0FF02C0779A0D
:1005D00001C07798C1FF02C0289A01C02898C2FFC5
:1005E00002C0769A01C07698CF9108956F9A779855
:1005F000209A28986E9A76980895CF93C82F0E94D3
:10060000DB028C2F0E94DF02CF910895CF93DF93FE
:10061000CDB7DEB72B970FB6F894DEBF0FBECDBFB8
:100620004F83588769877A878B8761110E94190DDC
:100630009E012F5F3F4F86E0F90111928A95E9F7FD
:1006400085E0FE013796D90101900D928A95E1F778
:1006500089819A814C815D81452B31F09F3F31F436
:1006600091E08F3F19F403C091E001C090E090FF4A
:1006700009C049815A816B817C818D819E810E9454
:10068000190C05C0C9010E9463028111F2CF2B969B
:100690000FB6F894DEBF0FBECDBFDF91CF910895A6
:1006A000FC01808191810E940D090895CF938823D8
:1006B00009F4A4C0C82F8238C1F40E94361881FD05
:1006C0009DC069E380910001909101010E942C1965
:1006D0000E944B0D2FEF81EE94E02150804090401E
:1006E000E1F700C0000069E319C0833801F50E94FA
:1006F000361880FD83C063E580910001909101016F
:100700000E942C190E944B0D2FEF81EE94E0215096
:1007100080409040E1F700C0000063E58091000157
:10072000909101010E943719CF910C944B0D8438A0
:10073000C1F40E94361882FD61C067E48091000117
:10074000909101010E942C190E944B0D2FEF81EE18
:1007500094E0215080409040E1F700C0000067E441
:10076000DDCF8CEF8C0F813AD0F46C2F809100019B
:10077000909101010E94AC18882349F06C2F809160
:100780000001909101010E9437190E944B0D6C2FBE
:1007900080910001909101010E942C19C5CF80E247
:1007A0008C0F883048F4C77081E001C0880FCA956B
:1007B000EAF70E94FC0CB8CFEBE5EC0FE33040F415
:1007C000F0E0ED5BFE4F808190E0CF910C946A18D1
:1007D000E8E5EC0FE73150F4F0E0EE0FFF1FEB5EC1
:1007E000FE4F80819181CF910C948018CD3E30F0E6
:1007F0008C2F0E94FF13CF910C94D114CF910895A8
:10080000882309F464C0823879F40E94361881FF85
:100810005EC069E380910001909101010E942C1952
:100820000E944B0D69E310C08338B1F40E94361862
:1008300080FF4DC063E580910001909101010E940D
:100840002C190E944B0D63E58091000190910101EC
:100850000E9437190C944B0D843879F40E94361895
:1008600082FF35C067E480910001909101010E94F0
:100870002C190E944B0D67E4E7CF9CEF980F913A3B
:1008800010F4682FE1CF90E2980F983050F4877001
:1008900091E001C0990F8A95EAF7892F0E94020D15
:1008A000D9CF9BE5980F933020F480E090E00C9432
:1008B0006A1898E5980F973120F480E090E00C9446
:1008C00080188D3E20F00E945A140C94D114089583
:1008D0001F93CF93DF93182FEB010E9456032097AD
:1008E00041F08FE99FE00197F1F700C000002197E8
:1008F000F6CF812FDF91CF911F910C9400048933A3
:1009000019F060E070E002C060E570E00C946804EB
:10091000882321F00E94FC0C0C944B0D0895882331
:1009200021F00E94020D0C944B0D0895CF92DF929E
:10093000EF92FF920F931F93CF93DF937C01062FCB
:10094000C72FFC01D281158112951F700E94D10C16
:10095000882399F0DD2389F08C2F807F803421F06B
:1009600080E2800F883048F082E00E949B0D0E9458
:10097000D10C91E0D82ED92601C0D12CCC2EC29416
:100980008FE0C8228C2D90E0FC01E45BFF4F0C94BB
:1009900042218C2F807FCF70882311F0C295C07FB9
:1009A000DD2399F0CC2309F48DC180E2800F8830DB
:1009B00010F0011104C08C2F0E94FC0C03C08C2F7E
:1009C0000E940C0D0E944B0D7DC1802F0E940004DF
:1009D000CC2309F49CC180E2800F883010F0011113
:1009E00004C08C2F0E94020D03C08C2F0E94120D98
:1009F0000E944B0D8CC18C2F807FCF70803211F004
:100A0000C295C07F002319F00130C9F022C0DD2358
:100A100071F0112341F0113031F40E942C0D8C2B18
:100A20000E94340D74C10E942C0D8C2B1DC011230B
:100A300019F0113009F46BC10E94410D25C0DD236E
:100A400021F0163008F063C10EC0153008F05FC108
:100A50001BC0DD2361F0112331F0F701858180FF98
:100A600031C18F7085838C2F0E94880450C111235F
:100A700059F0093309F037C1FFEF27EE83E0F15059
:100A800020408040E1F72DC18C2F0E948F043FC190
:100A90008C2F86958695837019F0813061F037C16F
:100AA000DD2321F0802F9C2F937002C080E090E026
:100AB0000E946A1834C1DD2321F0802F9C2F93708F
:100AC00002C080E090E00E94801829C1802FDD23C1
:100AD00019F00E94FF1302C00E945A140E94D11400
:100AE0001EC18C2F837009F045C0D11114C1402F55
:100AF000429546954770440F440F602F6F70862FC4
:100B000090E0A0E0B0E0042E04C0880F991FAA1F57
:100B1000BB1F0A94D2F704FF10C00FE010E020E0E2
:100B200030E004C0000F111F221F331F4A95D2F777
:100B3000009510952095309503C000E010E09801D5
:100B4000C695C695C370BC01CD01602B712B822B5D
:100B5000932BC23049F058F4C13019F00E948A0733
:100B6000DAC00E947807D7C00E949C07D4C00E94B8
:100B70007607D1C0DD2319F08C2F817001C08695D6
:100B8000882309F4C8C0402F429546954770440F0A
:100B9000440F602F6F70862F90E0A0E0B0E0042E2D
:100BA00004C0880F991FAA1FBB1F0A94D2F704FF25
:100BB00010C00FE010E020E030E004C0000F111F73
:100BC000221F331F4A95D2F7009510952095309536
:100BD00003C000E010E09801C695C695C370BC0143
:100BE000CD01602B712B822B932BC23049F058F42E
:100BF000C13019F00E944F088EC00E943D088BC082
:100C00000E94610888C00E94B00785C0CF70DD23B4
:100C100039F08C2F0E94D607802F0E9488047BC059
:100C2000802F0E948F048C2F0E94F70774C0023F10
:100C300001F128F4003F41F0013FA1F03FC0033F24
:100C4000F9F0043F39F13AC0DD2341F0153008F0E6
:100C50005EC08C2F8F710E941C0859C0163008F09E
:100C600056C0F7CFDD2339F08C2F8F710E94D60745
:100C70004EC0DD23C9F38C2F8F710E94F70747C048
:100C8000DD2329F08C2F8F710E94C10740C00E9484
:100C9000BC073DC0DD2349F0CF718C2F0E94D607E1
:100CA00063E08C2F0E94800D32C081E00E949B0D7A
:100CB000123068F182E00E949B0D29C0DD2331F0E3
:100CC000112391F2802F0E94560321C0112399F223
:100CD000093349F49FEFE7EEF3E09150E040F04034
:100CE000E1F700C00000802F0E94000410C04C2FCC
:100CF0004F70602FC7010E94980F0E943B090FC0E0
:100D00004C2F4F70602FC7010E949B0F08C088EFC7
:100D10008C0D843020F40E9436180E94FD02DD20E4
:100D2000C9F00E94CD0C80FD15C0F70112820E940F
:100D3000C70C0E94D607C7010E94CB060E94C70CB1
:100D4000DF91CF911F910F91FF90EF90DF90CF90A7
:100D50000C94F707DF91CF911F910F91FF90EF90C7
:100D6000DF90CF9008950F931F93CF93DF93EC0103
:100D7000688179818A810E9418098C010E94730818
:100D80000E946407B801CE010E949604DF91CF91C2
:100D90001F910F910895CF93DF93EC019881898182
:100DA0002B813C81232B31F08F3F31F481E09F3F39
:100DB00019F403C081E001C080E080FD19C0CE01BC
:100DC0000E94880281110CC00E94D10C882381F0FE
:100DD0008A81882369F082E0DF91CF910C949B0D8A
:100DE000CE010E94B306CE01DF91CF910C94650233
:100DF000DF91CF91089580E090E00E946A1880E032
:100E000090E00E9480180E94190D0E94290D0E94F6
:100E10004B0D0E9402160C94D11480910001909108
:100E200001010E9442190C94FB060E94090D0C94CA
:100E30000D07E92FE295EF704E2F50E0FA0132973F
:100E4000EE30F105B0F4E45AFF4F0C944221803F9C
:100E500091F018F4883E68F40EC0843F51F40BC042
:100E6000883E48F0813F29F406C093FB882780F92B
:100E7000089580E0089581E00895FC0180819181CA
:100E80000E940D090E9419070895CF93DF9300D0A7
:100E900000D01F92CDB7DEB70F900F900F900F903C
:100EA0000F90DF91CF910895CF93DF9300D000D0C2
:100EB00000D0CDB7DEB726960FB6F894DEBF0FBED2
:100EC000CDBFDF91CF910895089508950C946507E3
:100ED0000C9466070E9468076093D8017093D9014B
:100EE0008093DA019093DB010C94FB060C946A0763
:100EF0000F931F930091D8011091D9012091DA012D
:100F00003091DB01602B712B822B932B1F910F9162
:100F10000C946A070F931F930091D8011091D90187
:100F20002091DA013091DB01602371238223932326
:100F30001F910F910C946A070F931F930091D80192
:100F40001091D9012091DA013091DB0160277127DE
:100F5000822793271F910F910C946A070C946507C1
:100F60000E94AE076093D4017093D5018093D6019F
:100F70009093D7010C94FB0660E070E0CB010C94D9
:100F8000B0070F931F9341E050E060E070E08A01EA
:100F90009B0104C0000F111F221F331F8A95D2F737
:100FA000C901B8011F910F910C94B0070F931F93C3
:100FB00041E050E060E070E004C0440F551F661F40
:100FC000771F8A95D2F78091D4019091D501A09195
:100FD000D601B091D7018A019B01082B192B2A2B2E
:100FE0003B2BC901B8011F910F910C94B0070F93CF
:100FF0001F9341E050E060E070E004C0440F551FD3
:10100000661F771F8A95D2F7409550956095709529
:101010008091D4019091D501A091D601B091D701D2
:101020008A019B01082319232A233B23C901B80104
:101030001F910F910C94B0070F931F9341E050E064
:1010400060E070E004C0440F551F661F771F8A954B
:10105000D2F78091D4019091D501A091D601B091A1
:10106000D7018A019B01082719272A273B27C90195
:10107000B8011F910F910C94B0070F931F9300912B
:10108000D4011091D5012091D6013091D701602B68
:10109000712B822B932B1F910F910C94B0070F9300
:1010A0001F930091D4011091D5012091D601309168
:1010B000D70160237123822393231F910F910C94F6
:1010C000B0070F931F930091D4011091D501209187
:1010D000D6013091D70160277127822793271F916E
:1010E0000F910C94B007089524E1929F800D112474
:1010F000E82FE695E695E695877051E001C0550F1B
:101100008A95EAF785E0E89FF0011124ED56FE4F3D
:1011100020E030E070E04081CB01022E02C09695C5
:1011200087950A94E2F78170819584278523842727
:1011300081932F5F3F4F2530310569F7089524E1F2
:10114000929F800D1124682F669566956695982F5D
:10115000977085E0689FB001112440E050E080E086
:10116000FB01E40FF51FED56FE4F208130E0092E04
:1011700002C0369527950A94E2F721703327042E92
:1011800001C0220F0A94EAF7822B4F5F5F4F453070
:10119000510531F70895BF92CF92DF92EF92FF92FF
:1011A0000F931F93CF93DF938C01C090D401D09005
:1011B000D501E090D601F090D7018091D8019091AF
:1011C000D901A091DA01B091DB01C82AD92AEA2A13
:1011D000FB2ACFE1D0E0D701C6010C2E04C0B695A2
:1011E000A795979587950A94D2F780FD04C021971B
:1011F00090F7B12C07C0BC2EB8018C2F0E94D310E1
:101200000197A9F38B2DDF91CF911F910F91FF9043
:10121000EF90DF90CF90BF900895CF93DF93EC01D4
:101220000E94CB08BE010E94D310DF91CF91089598
:101230001F93CF93DF93EB0190919201992321F0BB
:10124000CB010E940D0913C0882349F0CB010E94F5
:10125000CB08182F682FCE010E94740804C0CB0160
:101260000E949F08182FBE01812F0E94D310DF918A
:10127000CF911F910895EF92FF920F931F93CF93F9
:10128000DF938C01892B09F46CC0F12CEE24E394DC
:10129000E8012196F8018491843740F4843008F005
:1012A00051C0813081F0823019F15BC0853709F47B
:1012B00044C0A8F19CE7980F903708F052C08F7790
:1012C0000E94000441C00E5F1F4FFE01849190E216
:1012D000980F983050F48770FE2D01C0FF0F8A954B
:1012E000EAF78F2F0E941C0D14C00E9456032DC0D8
:1012F0000E5F1F4FFE01849190E2980F983060F4CA
:101300008770FE2D01C0FF0F8A95EAF78F2F0E948C
:10131000220D0E944B0D19C00E94000416C00E5FE2
:101320001F4FFE01C491CC2381F08FE99FE001970C
:10133000F1F700C00000C150F6CF0E5F1F4FFE0155
:10134000F49003C00E9456038E018F2D882309F468
:101350009FCFEFE9FFE03197F1F700C00000815027
:10136000F5CFDF91CF911F910F91FF90EF900895EE
:101370001F93CF93DF93C091DC0116E08091DD01D4
:10138000C81799F0D0E01C9FF0011D9FF00D1124AB
:10139000E252FE4F40815181628173818481958147
:1013A0000E9454072196C770E9CFDF91CF911F911A
:1013B000089540910E0250910F02609110027091B9
:1013C000110280911202909113020C9454070F9312
:1013D0001F93CF93DF938091130282958F7009F052
:1013E0005DC080911002882309F458C08091DC010F
:1013F0001091DD0160910E0270910F02C0911102F7
:10140000D091120291E06F3F09F090E0292F06E0A1
:10141000811709F443C0209721F07F3F21F030E08D
:1014200003C031E001C0322F90E030FD34C0089F8E
:10143000F001099FF00D1124DF01A252BE4F119659
:101440003C911197371327C03C91361324C0129654
:101450003C91129731111FC013964D915C911497D6
:101460004C1B5D0B483C5105B0F4809113028F700A
:10147000806180931302ED51FE4F80818F708061F7
:1014800080838EE092E00E94CB06DF91CF911F9186
:101490000F910C94B80901968770BACFDF91CF9164
:1014A0001F910F9108959F92AF92BF92CF92DF92BA
:1014B000EF92FF920F931F93CF93DF93CDB7DEB7D9
:1014C00061970FB6F894DEBF0FBECDBF8C0185E0EB
:1014D000F801DE011D9601900D928A95E1F7F80161
:1014E000E28090910E0260910F02209111023091E2
:1014F00012022115310531F06F3F31F481E09F3F39
:1015000019F403C081E001C080E0F82FF1709F2E34
:1015100080FD3FC1F80140815181A380B4808EE0FD
:10152000C82E82E0D82EF0901002F501E21BF30BDA
:10153000FF2009F4D9C080911302E83CF10508F0BE
:1015400095C0282F207F09F052C0561313C04913AD
:1015500011C0FE2CE1100EC08F70806180931302C9
:101560000E94D909C6010E94CB0680911302F8019E
:1015700085834CC1AB2831F05F3F31F481E04F3FB0
:1015800019F403C081E001C080E080FD03C081E068
:101590008E2502C080E090E0F82FF170FF2E80FFD2
:1015A0001CC08091DC012091DD0136E0821709F436
:1015B0000BC190E0389FF001399FF00D1124E252E9
:1015C000FE4F6181561306C06081461303C06281DD
:1015D000E61203C001968770E9CFFE2CEE2009F4D5
:1015E00015C18091130281608093130254C0561379
:1015F00006C0491304C0E11002C0F80199C0C80137
:101600000E943D07882361F1EE2051F120911302E1
:10161000822F82958F7090E0029774F080910E0275
:1016200090910F0298878F831986BB86AA862C8794
:10163000CE0107960E94CB0686E0F801AEE0B2E04C
:1016400001900D928A95E1F70E94E7090E94D9095D
:101650000AC0561711F1C8010E943D0781112CC024
:10166000C8010E94CB06FF24F394D0C0282F207F0E
:1016700081F77A2DB98AA88A6E2D89890E9445073B
:101680008EE092E00E94CB0686E0F60111928A95E8
:10169000E9F70E94D909F12CB9C04913DCCFE11058
:1016A000DACFF8018583C8010E94CB0686E0F601F7
:1016B00011928A95E9F7AAC0EE2091F220911302C7
:1016C000822F82958F7090E002970CF4B5CF8091B5
:1016D0000E0290910F029A8389831B82BD82AC8295
:1016E0002E83CE010196A6CFE83CF10508F044C058
:1016F000FE2CEE2009F4B4CF561330C049132EC08F
:101700002091130220FD21C0822F82958F70482FD7
:1017100050E041155105C9F0F80125834F305105BE
:1017200041F08F5F982F9295907F822F8F70892B39
:101730008583C8010E94CB0686E0F801AEE0B2E0E6
:1017400001900D928A95E1F73CC086E0F801AEE089
:10175000B2E001900D928A95E1F758C0C8010E944D
:101760003D07811169CF809113028160809313023C
:10177000C8010E94CB064AC07A2DB98AA88A6E2D6C
:1017800089890E94450786E0F60111928A95E9F75A
:1017900018C0EE2009F464CFC8010E943D07F82E5E
:1017A000882309F45DCF86E0F801AEE0B2E0019055
:1017B0000D928A95E1F78EE092E00E9450030E941C
:1017C000E7090E94D90922C04D875E878D859E85D5
:1017D0000E940D09292F22952F70223028F49F7026
:1017E00039F0811105C00BC0243028F49F7049F4F2
:1017F000805E883020F0C8010E94CB069F2CF92C17
:1018000005C0F8019581907F99F7F9CF8F2D6196EA
:101810000FB6F894DEBF0FBECDBFDF91CF911F9101
:101820000F91FF90EF90DF90CF90BF90AF909F907F
:1018300008951F93CF93DF93CDB7DEB72C970FB6E4
:10184000F894DEBF0FBECDBF4F83588769877A8774
:101850008B879C87CE0107960E94530A8823D1F07C
:101860009F8188852A853B85232B31F08F3F31F47A
:1018700081E09F3F19F403C081E001C080E080FD5A
:1018800047C04F81588569857A858B859C850E94E4
:1018900054073EC086E0FE013796DE0111960190A6
:1018A0000D928A95E1F7FF81E8856A857B85611550
:1018B000710531F0EF3F31F481E0FF3F19F403C0CF
:1018C00081E001C080E080FD23C02091DD0130E097
:1018D000C9010196877099274091DC0150E0841777
:1018E0009507F1F1F983EA837D836C8396E0929FFB
:1018F000D001939FB00D1124A252BE4FFE0131962C
:1019000001900D929A95E1F78093DD010E94B8094C
:1019100016E08091DC019091DD01891771F1189F2B
:10192000C001112482529E4F0E94530A882329F13C
:10193000E091DC011E9FF0011124E252FE4F408134
:10194000518162817381848195810E9454078091C5
:10195000DC0190E00196877099278093DC01D9CF54
:101960000E9415071092DD011092DC01EEE0F2E01A
:1019700086E0DF011D928A95E9F72C960FB6F89460
:10198000DEBF0FBECDBFDF91CF911F910895809133
:101990001402859585958595089580911402877028
:1019A000089590911402977081E009F480E0089501
:1019B0009091980292FB222720F9281751F080FB82
:1019C00092F99093980280919702909198020C94CA
:1019D000E20D08958091980282FB882780F991E0BA
:1019E00089270C94D80C81E00C94D80C80E00C94DE
:1019F000D80C80913802089590913802892B8093F9
:101A00003802089580959091380289238093380296
:101A1000089510923802089590913702892B80938F
:101A20003702089580959091370289238093370279
:101A3000089510923702089590913602892B809371
:101A4000360208958095909136028923809336025C
:101A50000895109236020895809115020895089510
:101A60000C942F0D0C94300D9091980292FD08C0AB
:101A700090911502981721F0809315020C94320D65
:101A8000089580911502882329F01092150280E0B4
:101A90000C94320D0895E0910001F09101018091C4
:101AA00038028083E0910001F091010190818091E2
:101AB0003702892B8083E0910001F0910101908130
:101AC00080913602892B808380911502882381F0D2
:101AD000E0910001F09101019081892B8083809138
:101AE0000001909101010E94961881110E94410D00
:101AF00080910001909101010C9442180C942F0DDB
:101B00009091980292FD10C098E0899F9001112455
:101B1000262B209314020E94D607809114028595EB
:101B2000859585950C947E0D0C94D6071092140221
:101B300080E00C947E0D2091140280958223809386
:101B40001402982F977041F430E0482F082E000CB3
:101B5000550B2417350721F49091980292FF07C086
:101B60008595859585950E94F7070C94960D0895A7
:101B70006FEF7FEF80E090E00C94982180E090E0A0
:101B80000E94742121E0893E9E4F09F020E0822FBF
:101B9000089582E090E00C946C2183E090E00C9436
:101BA0006C21CF9384E090E00E946C21C82F82E2E8
:101BB00090E00E946C212C2F30E0A901582BCA0123
:101BC000CF910895CF93C92F682F84E090E00E94B1
:101BD0007A216C2F82E290E0CF910C947A21AB01B4
:101BE000BC018FE090E00C948C21AB01BC0183E13F
:101BF00090E00C948C2160E070E0CB010C94F50D2A
:101C000060E070E0CB010E94EF0D0C94FB0D69EEDB
:101C10007EEF80E090E00E94982160E082E090E01A
:101C20000E947A2160E083E090E00E947A21109285
:101C3000D8011092D9011092DA011092DB0160E014
:101C400084E090E00E947A2160E082E290E00E94CD
:101C50007A2160E085E090E00E947A2160E086E0F1
:101C600090E00E947A216FEF87E090E00E947A2155
:101C700040E050E0BA0188E090E00E948C2160E0F2
:101C80008DE090E00E947A2140E050E0BA0188E1C6
:101C900090E00E948C2160E087E190E00E947A2130
:101CA00040E050E0BA018CE190E00E948C2160E0BD
:101CB00070E080E290E00E94982140E050E0BA019C
:101CC00088E190E00E948C210C94000E0C94070E89
:101CD000682F8EE090E00C947A210E94EB196093BB
:101CE0005202709353028093540290935502609372
:101CF0004E0270934F0280935002909351020895C8
:101D000085B7806885BF85B7806885BF089581E005
:101D100008950C94870E08950C948B0E0C948B0EE2
:101D20000C948E0E0C948B0E0C94920E0C948B0EC5
:101D30000E94800E8FEA91E10E945E1A0E94960E28
:101D40000C94940E0E948C0E0C948B0E0E94D6194B
:101D50000E94D312E7E9F2E080818068808380915D
:101D60009702909198020E94E20D0C94900E2F928F
:101D70003F924F925F926F927F928F929F92AF921B
:101D8000BF92CF92DF92EF92FF920F931F93CF9368
:101D9000DF93CDB7DEB72C970FB6F894DEBF0FBE3A
:101DA000CDBF0E94EA1281110E946D0E8AE392E07B
:101DB0009C878B8700E010E0302E802F0E94ED1171
:101DC0002B013C01EB85FC8581919191A191B19111
:101DD000FC87EB875301420188269926AA26BB2659
:101DE00081149104A104B104B1F40F5F1F4F0530B9
:101DF000110511F78FEF89838A831B820E94DF19F7
:101E00008160782F9D838C8349815A816B818D817C
:101E10000E9406034EC08091560281FD0E94F91176
:101E2000212CC12CD12C7601C394D501C4018C2165
:101E30009D21AE21BF21892B8A2B8B2B89F10E94FA
:101E4000890E8823C9F02E823F824C205D206E20AF
:101E50007F2081E045284628472809F480E08887CC
:101E60000E94DF198160782F9A8789874E815F8170
:101E700068858A850E940603000F111F000F111F3D
:101E8000F801E65CFD4F80819181A281B381C82673
:101E9000D926EA26FB26C082D182E282F38209C0DB
:101EA0002394CC0CDD1CEE1CFF1CF4E12F12BDCFE3
:101EB0009CCF0E94EF140E94361890913902891726
:101EC000F1F00E943618809339022C960FB6F894E0
:101ED000DEBF0FBECDBFDF91CF911F910F91FF905D
:101EE000EF90DF90CF90BF90AF909F908F907F90BA
:101EF0006F905F904F903F902F900C94FD022C9626
:101F00000FB6F894DEBF0FBECDBFDF91CF911F910A
:101F10000F91FF90EF90DF90CF90BF90AF909F9088
:101F20008F907F906F905F904F903F902F9008958B
:101F300080E090E00895089524E6829FC001112476
:101F4000FC0124E1729FE00DF11D1124E60FF11D4B
:101F5000EE0FFF1FE851FF4F859194910895880F70
:101F6000991FFC01E858FD4F859194910895CF93F6
:101F7000DF930E94D810EC01811520E5920708F04C
:101F80003FC0811540E4940708F0D2C0883E910517
:101F900000F5803E910508F002C1883A910570F481
:101FA000853A910508F0A6C08130910509F49FC0DB
:101FB00008F4F2C0049708F0F2C0EEC08F3B910520
:101FC00008F4A1C0803C910508F4E6C0805C91094A
:101FD000A5C0811550E2950760F4C11581E0D807CE
:101FE00008F0DDC0CD3ED10508F4D6C0CE01906525
:101FF000D7C0811520E3920708F093C09F708EC070
:10200000811545E5940708F046C0811554E595070C
:1020100008F0A6C0C11582E5D80718F5C11521E55D
:10202000D20708F088C0CE01F4E096958795FA951E
:10203000E1F7282F23703C2F337081E090E002C03D
:10204000880F991F3A95E2F79C68922B2C2F2F70DE
:102050002695269540E2249F90011124822B932BF4
:102060009FC09E01237033279C2F96959695C1158E
:10207000D34508F065C041E050E002C0440F551F51
:102080002A95E2F780E2989F90011124CA01822BE1
:10209000932B9C6885C0811559E5950798F4C11567
:1020A00088E5D80708F061C0C11526E5D20708F019
:1020B00073C08C2F0E946C118F7190E0982F88272D
:1020C00090626EC081154AE5940708F453C090569B
:1020D0008115904208F060C08D2F8F710E946C11A5
:1020E0009E01332730628F71A901582B53C081E0C4
:1020F00090E056C0855AC82FD0E0CC58DE4F88817A
:1021000090E090644DC0885AC82FD0E0CC0FDD1FFE
:10211000CA5BDE4F88819981946442C00E94AF0FF0
:102120003FC09927D3FF02C0986C3AC0906C38C06A
:102130009F70906A35C09C2F8827816F906A30C04D
:1021400041E050E002C0440F551F2A95E2F780E2BB
:10215000989F90011124CA01822B932B9A6820C06A
:10216000982F8827846F906A1BC09C2F8827806FC8
:10217000906A16C08F700E946C119E0194E0369593
:1021800027959A95E1F72F7030E0322F222730699A
:10219000A901482BCA0104C080E090E001C0CE0133
:1021A000DF91CF9108950E949C0F0E94B70F089570
:1021B0008238910569F1B0F48133910509F46DC05D
:1021C00048F48932910509F463C08A32910509F413
:1021D00069C008958533910509F455C08933910587
:1021E000B9F00895833E910569F138F4803E910578
:1021F000B1F0823E910509F10895863E9105A9F15D
:10220000873E9105B9F1843E910509F064C023C071
:102210002091970220FD4FC021FD4DC0089580916F
:10222000970280FD44C08091980280FF44C0809155
:10223000970284FD42C083EE4DC08091970282FFD9
:1022400038C0F5CF8091970282FD33C0809198020B
:1022500080FD31C0ECCF8091980281FF32C0809127
:10226000970284FD2AC087EE35C08091970283FFD4
:1022700026C0F5CF8091970283FD21C080919802FE
:1022800081FD1FC0ECCF8091970285FD1CC01DC051
:102290008091970285FD19C016C08091970286FD36
:1022A00016C017C08091970286FD13C010C089E345
:1022B00011C082EE0FC080EE0DC080E00BC086EE34
:1022C00009C084EE07C089E205C085E303C08AE245
:1022D00001C081E390E008959091970292FF0DC0B4
:1022E000282F2871283019F4877F846006C0282F92
:1022F0002471243011F48B7F886093FF0DC0282F48
:102300002871283119F4877E846106C0282F247132
:10231000243111F48B7E88612091980220FF0DC03A
:10232000382F3871383019F4877F816006C0382F14
:102330003171313011F48E7F886021FF0DC0282F5C
:102340002871283119F4877E816106C0282F2171F8
:10235000213111F48E7E886194FD877E089580E09E
:1023600008950C94B80D0E94EA128FE39CE901973E
:10237000F1F700C000000E94EA1280E00E94ED1117
:1023800060FF04C00E94B1110C942C1A08950C94A3
:10239000B3110E94BE0D811102C00E94660E0E9400
:1023A000C90D809356020E94D10D9093980280939C
:1023B00097020E94C7110E94CD0D682F70E080E047
:1023C00090E00E9476076091D4017091D5018091D0
:1023D000D6019091D7010C94AE0724E0829FC001F2
:1023E0001124FC01E355FD4F60817181828193814D
:1023F0000895089580EA8A95F1F7089500C0089538
:102400000C94FA1108950C9402120C9403120C947B
:1024100002120C940712F894E82FE295EF70F0E0A6
:1024200031A1282F2F7081E090E001C0880F2A95FC
:10243000EAF7982F9095932391A392A1892B82A3D9
:10244000789408950F931F93CF93DF93CBE8D1E057
:1024500089918F3F11F00E940B1281E0C039D8079B
:10246000B9F7C7E7D1E00BE811E089918F3F11F090
:102470000E940B120C171D07C1F7DF91CF911F911E
:102480000F9108954F925F926F927F928F929F92D9
:10249000AF92BF92DF92EF92FF920F931F93CF9371
:1024A000DF938C01C62FD0E0CE0185579E4F7C0173
:1024B000DC019C919F3F09F466C0D62EF894E92F69
:1024C000E295EF70F0E081A19F7021E030E001C063
:1024D000220F9A95EAF7822B81A382A120952823C7
:1024E00022A378940E94FE11E7E7F1E020E030E0BB
:1024F000812C912C5401412C512C32014394819117
:102500008F3FD9F0A82FA295AF70B0E090964C9174
:1025100050E08F70DA0102C0B595A7958A95E2F771
:10252000A0FD0BC0D301C201022E04C0880F991F69
:10253000AA1FBB1F0A94D2F703C080E090E0DC0121
:10254000882A992AAA2ABB2A2F5F3F4F24313105B6
:10255000B1F6F70180818F3F11F00E940B1261E00C
:1025600081149104A104B10409F460E08D2D0E944E
:102570000012CC0FDD1FCC0FDD1FC00FD11F8882D2
:102580009982AA82BB82DF91CF911F910F91FF9018
:10259000EF90DF90BF90AF909F908F907F906F9063
:1025A0005F904F9008950E942212E9E9F2E0ADEAAF
:1025B000B2E011921192119211921D921D921D92F0
:1025C0001D9282E0ED3AF807A1F785E00E943513ED
:1025D0000C947002FF920F931F93CF93DF93CDB7AC
:1025E000DEB764970FB6F894DEBF0FBECDBF8E0185
:1025F0000F5F1F4F84E1F80111928A95E9F7F12CE2
:102600006F2DC8010E944212F394F5E0FF12F8CF3B
:1026100044E150E0B80189E992E00E945F21FF2483
:10262000F394009709F4F12C892B41F084E1F8012F
:10263000A9E9B2E001900D928A95E1F72F2D45E0CE
:102640006DEA72E089E992E00E9436130E947602F8
:102650008F2D64960FB6F894DEBF0FBECDBFDF910D
:10266000CF911F910F91FF9008950895FF920F93BE
:102670001F93CF93DF93F82ED92F8B01C42F2223E2
:1026800049F081E0809359020E94DF19909358022B
:1026900080935702809159028823F1F0809157026C
:1026A000909158020E94F7190597B0F0EF2DFD2F79
:1026B000D80180E090E04C2F50E08417950754F447
:1026C00001911191219131910D931D932D933D9382
:1026D0000196F3CF10925902DF91CF911F910F9184
:1026E000FF9008950E9454190E94D21B0E94EB1B78
:1026F0000E94FD1B0E94A20EFBCF8091600280FF12
:102700000BC06091070185E0689FB00111247595A9
:102710006795759567952BC081FF09C0609107018A
:1027200085E0689FB00111247595679520C082FFF0
:1027300007C06091070185E0689FB001112417C0B0
:1027400090915F029923D1F060910601961788F766
:102750002091070185E0289F90011124929FA001FC
:10276000939F500D112470E0CA010E942E21603801
:10277000710540F46115710519F406C065E070E05B
:10278000862F08958FE7089581E008958091600273
:1027900080FF08C06091030170E07595679575959D
:1027A000679521C081FF06C06091030170E07595B7
:1027B000679519C082FF04C06091030170E010C0EA
:1027C00090915E02992399F0609102019617A0F70B
:1027D00080910301899FC001112470E00E942E2185
:1027E0006038710540F46115710519F406C061E0A7
:1027F00070E0862F08958FE7089581E008958D3E5B
:1028000021F40E947D13819504C08E3E29F40E941C
:102810007D138093640208958F3E21F40E947D13FE
:10282000819504C0803F29F40E947D138093630248
:102830000895893F19F40E94C61305C08A3F31F4F8
:102840000E94C61381958093650208958B3F21F401
:102850000E94C613819504C08C3F29F40E94C613C0
:102860008093660208959FE0980F983078F421E0F5
:1028700030E0A90102C0440F551F9A95E2F7CA0142
:1028800090916202892B8093620208958D3F21F41A
:102890008091600281600BC08E3F21F480916002C4
:1028A000826005C08F3F29F480916002846080932C
:1028B000600208958D3E39F49091640297FF35C00F
:1028C0001092640259C08E3E29F490916402191648
:1028D000BCF32BC0909163028F3E29F497FF25C073
:1028E0001092630249C0803F19F41916CCF31DC041
:1028F00090916502893F29F41916BCF41092650283
:102900003BC08A3F19F497FF10C0F8CF8B3F39F4D2
:102910009091660297FF09C0109266022DC08C3F0D
:1029200021F4909166021916BCF39FE0980F98303D
:1029300080F421E030E0A90102C0440F551F9A95B0
:10294000E2F7CA0180959091620289238093620226
:1029500013C08D3F21F4809160028E7F0BC08E3FAB
:1029600021F4809160028D7F05C08F3F29F4809112
:1029700060028B7F8093600280916302811106C0A8
:1029800080916402811102C010925F028091650201
:10299000811106C080916602811102C010925E0210
:1029A00008950E94DF1920916302211104C0209133
:1029B0006402222321F090935D0280935C022091B7
:1029C0006502211104C020916602222321F0909318
:1029D0005B0280935A0281E692E00C945C18EF92BD
:1029E000FF920F931F93CF93DF9300D000D000D0BE
:1029F000CDB7DEB786E0E1E6F2E0DE0111960190A8
:102A00000D928A95E1F7E0906302F09064020091E4
:102A10006502109166021092630210926402109295
:102A2000650210926602E11003C0FF2009F45DC048
:102A300080915C0290915D020E94F719AC01909127
:102A40005F02992339F02091080130E024173507FF
:102A500058F04BC0209109018AE0289F9001112471
:102A60002417350718F041C09F3F19F09F5F9093DE
:102A70005F02EE2061F00E947D131E1414F09FEFA0
:102A800001C091E0989F902D112490936302FF2044
:102A900061F00E947D131F1414F09FEF01C091E0BC
:102AA000989F902D112490936402309163023323F8
:102AB000E1F0209164022223C1F045EB3403C00110
:102AC0001124992319F09093630203C081E080934D
:102AD000630235EB2303C0011124992319F090936D
:102AE000640203C081E080936402011103C01123DA
:102AF00009F45DC080915A0290915B020E94F7191F
:102B0000AC0190915E02992339F02091040130E0EC
:102B10002417350758F04BC0209105018AE0289F03
:102B2000900111242417350718F041C09F3F19F078
:102B30009F5F90935E02002361F00E94C6131016FF
:102B400014F09FEF01C091E0989F902D1124909375
:102B50006502112361F00E94C613111614F09FEF55
:102B600001C091E0989F902D1124909366023091BE
:102B700065023323E1F0209166022223C1F045EB88
:102B80003403C0011124992319F09093650203C006
:102B900081E08093650235EB2303C0011124992362
:102BA00019F09093660203C081E0809366028091E1
:102BB000630281110BC080916402811107C0809172
:102BC0006502811103C08091660281110E94D114B7
:102BD000EB82FC820D831E8386E0FE013196A1E626
:102BE000B2E001900D928A95E1F726960FB6F8941F
:102BF000DEBF0FBECDBFDF91CF911F910F91FF9030
:102C0000EF900895E1E6F2E086E0DF011D928A95FB
:102C1000E9F710925F0210925E021092600208952E
:102C20000F931F93CF93DF93C42FD22FFC01828188
:102C30008823C9F0409369020E94DF1990936802CB
:102C40008093670280E28C0F883008F057C0C7700D
:102C500081E001C0880FCA95EAF7DF91CF911F91FB
:102C60000F910C94880480916902481330C08091C0
:102C70006702909168020E94F719883C910538F527
:102C800010E21D0FCD17B9F080E28C0F883040F4B0
:102C9000C77081E001C0880FCA95EAF70E948F04CF
:102CA000183028F581E09D2F977001C0880F9A9504
:102CB000EAF70E948804802F0E947F041830F0F405
:102CC000D77081E001C0880FDA95EAF70AC080E288
:102CD0008C0F883098F4C77081E001C0880FCA95C6
:102CE000EAF7DF91CF911F910F910C948F04802F01
:102CF000DF91CF911F910F910C947F04DF91CF91C1
:102D00001F910F9108950F939C01CB01243F4CE537
:102D1000340731F188F4293DFCE53F07D9F02A3D1D
:102D20004CE5340779F1283D3C45A9F506E221EE52
:102D300041EE68ED7CE52BC0263FFCE53F07E1F066
:102D4000A8F0273F3C4539F507E225EE46EE67EF50
:102D50007CE51DC007E225EE45EE69ED7CE517C078
:102D600006E221EE40EE64EF7CE511C007E225EEBD
:102D700044EE65EF7CE50BC006E221EE42EE66EF25
:102D80007CE505C008E221E045EE6AED7CE50E94A5
:102D9000101680E008C0FC018281882319F010928F
:102DA000690201C081E00F910895CF93DF93EC0198
:102DB000FB018281882309F41FC1C230FCE5DF07D3
:102DC00008F41BC1C6319CE5D90738F09E012B5F82
:102DD0003C452930310508F010C10E94D10D909377
:102DE000980280939702C031ECE5DE0709F4C3C076
:102DF00008F041C0C8308CE5D80709F49AC0F0F457
:102E0000C430ECE5DE0709F487C068F4C2308CE515
:102E1000D80709F477C0C330DC4509F0E3C08091DE
:102E20009702826076C0C630ECE5DE0709F46EC01A
:102E300008F07BC08091970288606BC0CC308CE535
:102E4000D80709F485C068F4CA30ECE5DE0709F458
:102E500074C008F079C00E941507809197028068BD
:102E600058C0CE308CE5D80709F476C008F07FC092
:102E7000809197028BC0CC3FECE5DE0709F44FC090
:102E800018F5C3318CE5D80709F47DC078F4C13159
:102E9000ECE5DE0709F473C0C231DC4509F0A2C0DD
:102EA0000E941507809197028F7733C0C5318CE55A
:102EB000D80709F472C008F486C0CB3FDC4509F09E
:102EC00091C0809198023EC0C115FDE5DF0709F46D
:102ED0005FC058F4CE3F9CE5D90709F444C008F41C
:102EE0003FC08091980282602DC0C230FDE5DF07AF
:102EF00009F475C008F45DC0C330DD4509F072C047
:102F000080E06EC080919702816003C0809197023B
:102F100080618093970266C08091970211C0809172
:102F200098028260809398025DC0809197028062CF
:102F3000F0CF809197028064ECCF809197028860F7
:102F40008460E7CF8160EECF809197028E7FE1CFE2
:102F5000809197028D7FDDCF80919702877FD9CFB7
:102F60008091980218C0809198028D7FDBCF80916C
:102F700097028F7ECECF809197028F7DCACF8091AE
:102F800097028F7BC6CF80919702877F8B7FC1CFBF
:102F9000809198028D7F8E7FC5CF8091970282FBB2
:102FA000222720F991E0922790FB82F990FB83F988
:102FB000B0CF80919802982F909591708E7F892B39
:102FC00090FB81F9AFCF0E9415078091970287FB94
:102FD000222720F991E0922790FB87F99ACF81E090
:102FE0000E94680E80919702909198020E94E20DD3
:102FF0000E94150780E001C081E0DF91CF91089524
:10300000CF93DF9386319C4541F5EB010E94F90C8B
:10301000982F8A812091000130910101882379F055
:103020009A7A81E009F480E080936A02911102C0EB
:1030300069E201C065E3C9010E942C190AC08091B0
:103040006A02811102C069E201C065E3C9010E9400
:1030500037190E944B0D80E001C081E0DF91CF91D4
:1030600008959093700280936F020895E0916F022B
:10307000F0917002309721F00190F081E02D0994D9
:1030800080E00895E0916F02F0917002309799F01E
:1030900020911401222359F02091970227FF07C0A5
:1030A000DC012C9111962C93119725E02C93028032
:1030B000F381E02D09940895E0916F02F091700280
:1030C000309739F022E0DC012C930480F581E02D6B
:1030D0000994089520916D0230916E0228173907E6
:1030E00071F090936E0280936D02E0916F02F09107
:1030F0007002309721F00680F781E02D0994089541
:1031000020916B0230916C022817390771F090936F
:103110006C0280936B02E0916F02F0917002309725
:1031200021F00084F185E02D09940895FC01329688
:1031300080911401882331F08091970287FF02C0AB
:103140009EE101C096E080E0915028F02191222379
:10315000D9F38F5FF9CF0895662351F120911401BF
:103160002223E9F02091970227FF19C0462F4695A8
:10317000469546954E31E0F4677021E030E002C09C
:10318000220F331F6A95E2F7FC01E40FF11D8281E3
:1031900090E02823392381E0232B69F409C0FC0146
:1031A000329608962191621729F0E817F907D1F7AE
:1031B00080E0089581E008959C01FC0132969FEF24
:1031C00080E04191461789F09F3F19F4411101C0F9
:1031D000982F8F5F8630A9F79F3F39F0F901E90FEB
:1031E000F11D97FDFA956283089508959C012A5F69
:1031F0003F4FFC014281461301C0128201968217A3
:103200009307B9F70895262F2695269526952E31F2
:1032100068F4FC01E20FF11D677021E030E001C0AD
:10322000220F6A95EAF78281282B22830895262FA0
:103230002695269526952E3170F4FC01E20FF11D9E
:10324000677021E030E001C0220F6A95EAF720950F
:10325000828128232283089520911401222329F0BA
:103260002091970227FD0C9403190C94DC182091EF
:103270001401222329F02091970227FD0C9417199D
:103280000C94F61820911401FC013296222331F09F
:103290008091970287FF02C08EE101C086E0DF01C6
:1032A0001D928A95E9F70895089508950C9455198B
:1032B0000C945519CF930E9458190E94EA120E944B
:1032C0005619C0E08C2F0E94ED11672B682B692BDB
:1032D00029F4CF5FC530B1F780E001C081E0CF9124
:1032E00008950C9455190C9471198091C902843079
:1032F00049F10E94731980E00E94FD021092710250
:1033000020E488E190E00FB6F894A89580936000DF
:103310000FBE2093600083B7817F846083BF83B733
:10332000816083BF7894889583B78E7F83BF0FB603
:10333000F894A89580916000886180936000109255
:1033400060000FBE08950C9455190E9415070E9445
:1033500036180E94FD020C94A3191F920F920FB60B
:103360000F9211248F939F93AF93BF93809171021B
:10337000811113C08091C1029091C202A091C30239
:10338000B091C4024196A11DB11D8093C1029093DA
:10339000C202A093C302B093C402BF91AF919F91A8
:1033A0008F910F900FBE0F901F90189582E084BDF3
:1033B00093E095BD9AEF97BD80936E0008952FB767
:1033C000F8948091C1029091C202A091C302B09181
:1033D000C4022FBF08952FB7F8946091C102709175
:1033E000C2028091C3029091C4022FBF08959C0134
:1033F0004FB7F8948091C1029091C202A091C3028C
:10340000B091C4024FBF821B930B089578941F9212
:103410000F920FB60F9211248F939F93AF93BF9388
:103420008091C1029091C202A091C302B091C402E6
:103430000196A11DB11D8093C1029093C202A09379
:10344000C302B093C402BF91AF919F918F910F902F
:103450000FBE0F901F901895F89481E08093E000C4
:1034600080E28093D800E9ECF0E010828FE19EE4E6
:103470000197F1F700C000001DBA109268001CBC53
:1034800010BE1FBA10927A0010926E0010926F0058
:10349000109270001092710010821092BC0011B84E
:1034A00014B817B81AB81DB810BA12B815B818B8A9
:1034B0001BB81EB811BA0C9400FE089590939101A8
:1034C0008093900108958091950208959091C9028A
:1034D000943031F58093720270937402609373029A
:1034E00082E08093E9008FEF9091E800815095FD94
:1034F00006C095ED9A95F1F700008111F5CF809106
:10350000E80085FF0DC040E050E063E070E082E736
:1035100092E00E94891C8091E8008E778093E800F9
:103520000895BC0184E00C94661ABC0183E00C94FD
:10353000661A22E02093E9002FEF3091E800215035
:1035400035FD06C035ED3A95F1F700002111F5CFB4
:103550002091E80025FF0BC040E050E066E070E0FD
:103560000E94891C8091E8008E778093E80008957E
:10357000CF93DF9320911401222339F020919702F9
:1035800027FF03C060E222E002C068E021E0209350
:10359000E9002FEF3091E800215035FD06C035EDF0
:1035A0003A95F1F700002111F5CF2091E80025FFB1
:1035B0001DC0EC0180911401811105C040E050E074
:1035C00068E070E003C070E040E050E0CE010E948F
:1035D000891C8091E8008E778093E80080E2FE01EC
:1035E000A5E7B2E001900D928A95E1F7DF91CF91C6
:1035F00008958091C802811109C00E94161E0E9480
:10360000781E8091E20084608093E2000895109219
:10361000C802089508950895089542E061EC81E09C
:103620000E948F1D42E261EC82E00C948F1D80911C
:10363000CB02833009F45EC030F4813071F0823007
:1036400009F497C008958A3009F483C08B3009F4D7
:1036500069C0893009F0A5C020C08091CA02813AB2
:1036600009F09FC08091E800877F8093E8008091F7
:10367000CE029091CF02892B21F460E285E792E09F
:1036800003C060E080E090E070E00E94D41C809174
:10369000E8008B778093E80008958091CA02813218
:1036A00009F07FC08091CE029091CF02029708F07E
:1036B00078C08091E800877F8093E8008091E800DF
:1036C00082FD05C08091C9028111F8CF6AC0809146
:1036D000F2009091F300029729F48091F1008B7F22
:1036E000813021F48091F100809395028091E8006F
:1036F0008B7753C08091CA02813A09F052C0809101
:10370000CE029091CF02892B09F04BC08091E80046
:10371000877F8093E8008091E80080FFFCCF809154
:10372000140136C08091CA028132D9F58091CE024F
:103730009091CF02892BA9F58091E800877F809333
:10374000E8000E94C41D8091CC02809314010C9467
:1037500015078091CA02813221F58091E800877FA8
:103760008093E8000E94C41D8091CD028093960250
:1037700008958091CA02813AA1F48091E800877F80
:103780008093E8008091E80080FFFCCF8091960252
:103790008093F1008091E8008E778093E8000C948C
:1037A000C41D089584B7877F84BF0FB6F894A89589
:1037B00080916000886180936000109260000FBE6D
:1037C00090E080E80FB6F8948093610090936100D8
:1037D0000FBE0C94980E0E94161E0E94781EE2EEF8
:1037E000F0E080818460808378940E9413210E949D
:1037F000A60E8AE091E00C9431188091C9028530C0
:10380000A9F48091C902853079F40E9475198091DC
:10381000C7028823B1F30E945A19882391F30E94AA
:10382000731C0E941507EDCF0E94A5190C94B70ECA
:103830000C941A1C292F332723303105C9F060F46A
:103840002130310581F02230310509F044C08BE38D
:1038500090E026EB32E043C021323105E1F0223224
:10386000310549F138C082E190E021EF32E037C004
:1038700099278130910549F028F0029761F5E8E732
:10388000F2E005C0E2EBF2E002C0EEE8F2E0849183
:1038900090E09F0124C06115710541F06130710510
:1038A000D1F489E090E021EE32E019C089E090E0A7
:1038B00028EC32E014C06115710541F061307105EA
:1038C00051F486EB90E023E033E009C080E490E01F
:1038D00029EB33E004C080E090E020E030E0FA0122
:1038E00031832083089584E189BD86E189BD09B4CF
:1038F00000FEFDCF8091D8008F7D8093D80080910D
:10390000E00082608093E0008091E00081FDFCCFC8
:103910000895CF92DF92EF92FF920F931F93CF9370
:10392000DF93EC018B017A010E94E31D811133C00A
:10393000E114F10439F0F70180819181081B190B22
:10394000C80FD91FC12CD12C0115110519F1809177
:10395000E80085FD16C08091E8008E778093E8002E
:10396000E114F10449F0F70180819181C80ED91E5C
:10397000D182C08285E00FC00E94E31D882321F31D
:103980000AC089918093F10001501109FFEFCF1A0D
:10399000DF0ADACF80E0DF91CF911F910F91FF9086
:1039A000EF90DF90CF9008952091D0023091D10216
:1039B0002617370748F06115710539F42091E800A2
:1039C0002E772093E80001C0B901FC0120E06115C9
:1039D000710569F18091C9028823E1F18530E1F137
:1039E0008091E80083FD3AC08091E80082FD2CC000
:1039F0008091E80080FFEBCF8091F2009091F3007E
:103A00006115710551F08830910538F421912093AA
:103A1000F100615071090196F3CF21E0089709F098
:103A200020E08091E8008E778093E800D0CF2111CC
:103A3000D1CF0AC08091C902882361F0853061F03E
:103A40008091E80083FD0AC08091E80082FFF2CFF8
:103A500080E0089582E0089583E0089581E008956C
:103A60002091D0023091D1022617370748F0611516
:103A7000710539F42091E8002E772093E80001C009
:103A8000B901FC0120E06115710581F18091C90245
:103A9000882309F43EC0853009F43DC08091E800D8
:103AA00083FD3BC08091E80082FD2DC08091E8003D
:103AB00080FFE9CF8091F2009091F30061157105CC
:103AC00059F08830910540F424912093F10031960B
:103AD000615071090196F2CF21E0089709F020E0CA
:103AE0008091E8008E778093E800CDCF2111CECF72
:103AF0000AC08091C902882361F0853061F080910D
:103B0000E80083FD0AC08091E80082FFF2CF80E0E8
:103B1000089582E0089583E0089581E00895982F44
:103B2000973068F59093E900981739F07091EC00A0
:103B30002091ED005091F00003C0242F762F50E02B
:103B400021FD02C09F5FECCF3091EB003E7F3093B0
:103B5000EB003091ED003D7F3093ED003091EB00B4
:103B600031603093EB007093EC002093ED005093A4
:103B7000F0002091EE0027FDE5CF80E008958F70E2
:103B80008093E90081E008958091CA0287FF11C007
:103B90008091E80082FD05C08091C9028111F8CFB3
:103BA00011C08091E8008B770BC08091C9028823F7
:103BB00049F08091E80080FFF8CF8091E8008E778F
:103BC0008093E80008952091E4003091E50095E6A7
:103BD0004091EC00842F817040FF23C08091E80069
:103BE00080FD1DC08091C902882399F0853099F02D
:103BF0008091EB0085FD11C04091E4005091E500FB
:103C00002417350729F3915011F09A01E1CF84E090
:103C1000089582E0089583E0089581E0089580E0AA
:103C200008954091E80042FFDDCF08950E94871E6D
:103C30000E948F1EE0EEF0E0808181608083E8EDDD
:103C4000F0E080818F77808319BCA7EDB0E08C9184
:103C50008E7F8C9380818F7E80831092C80208951E
:103C60000F931F93CF93DF930E94871E0E948F1E96
:103C7000C8EDD0E088818F778883888180688883C9
:103C800088818F7D8883E7EDF0E080818068808384
:103C900019BC1092C9021092C5021092C70210926C
:103CA000C60200EE10E0F80180818B7F808388815E
:103CB0008160888342E060E080E00E948F1DE1EE39
:103CC000F0E080818E7F8083E2EEF0E08081816091
:103CD0008083808188608083F80180818E7F8083EB
:103CE000888180618883DF91CF911F910F91089522
:103CF000E8EDF0E080818F7E8083E7EDF0E0808169
:103D00008160808381E08093C8020C94301EE8EDCE
:103D1000F0E080818C7F80831092E2000895109201
:103D2000DA001092E10008951F920F920FB60F92E1
:103D300011240BB60F922F933F934F935F936F9382
:103D40007F938F939F93AF93BF93EF93FF93809154
:103D5000E10082FF0BC08091E20082FF07C08091EA
:103D6000E1008B7F8093E1000E9412218091DA00B4
:103D700080FF1FC08091D80080FF1BC08091DA00B7
:103D80008E7F8093DA008091D90080FF0DC084E19E
:103D900089BD86E189BD09B400FEFDCF81E0809335
:103DA000C9020E94F91A05C019BC1092C9020E94EA
:103DB000071B8091E10080FF19C08091E20080FF25
:103DC00015C08091E2008E7F8093E2008091E20036
:103DD00080618093E2008091D80080628093D80057
:103DE00019BC85E08093C9020E940B1B8091E10001
:103DF00084FF30C08091E20084FF2CC084E189BD43
:103E000086E189BD09B400FEFDCF8091D8008F7D89
:103E10008093D8008091E1008F7E8093E1008091B3
:103E2000E2008F7E8093E2008091E20081608093C7
:103E3000E2008091C502882311F084E007C08091E0
:103E4000E30087FD02C081E001C083E08093C902E6
:103E50000E940C1B8091E10083FF29C08091E20049
:103E600083FF25C08091E100877F8093E10082E09D
:103E70008093C9021092C5028091E1008E7F8093E9
:103E8000E1008091E2008E7F8093E2008091E20069
:103E900080618093E20042E060E080E00E948F1D3C
:103EA0008091F00088608093F0000E940A1BFF91CF
:103EB000EF91BF91AF919F918F917F916F915F91A2
:103EC0004F913F912F910F900BBE0F900FBE0F900F
:103ED0001F9018951F920F920FB60F9211240BB6D8
:103EE0000F922F933F934F935F936F937F938F9393
:103EF0009F93AF93BF93CF93DF93EF93FF93C091C3
:103F0000E900CF708091EC00D82FD17080FDD0E80F
:103F10001092E9008091F000877F8093F000789400
:103F20000E94B21F1092E9008091F0008860809397
:103F3000F000CD2BCF70C093E900FF91EF91DF919E
:103F4000CF91BF91AF919F918F917F916F915F9131
:103F50004F913F912F910F900BBE0F900FBE0F907E
:103F60001F9018951F93CF93DF93CDB7DEB7AA9715
:103F70000FB6F894DEBF0FBECDBFEAECF2E0809141
:103F8000F100819322E0E23DF207C9F70E94171B7E
:103F90008091E80083FF2EC18091CA029091CB02EC
:103FA000492F50E04A30510508F024C1FA01E65982
:103FB000FF4F0C944221803821F0823809F01AC159
:103FC00008C08091C6029091C702992389F082604F
:103FD0000FC08091CE028F70873008F00BC18093A4
:103FE000E9008091EB0085FB882780F91092E900B9
:103FF0009091E800977F9093E8008093F1001092F1
:10400000F100D1C0282F2D7F09F0F4C0882319F0CA
:10401000823061F0EFC08091CC02813009F0EAC0BB
:10402000933009F080E08093C7022EC08091CC02CB
:1040300081112AC08091CE028F702FEF280F263079
:1040400008F0D8C08093E9002091EB0020FF1CC04D
:10405000933021F48091EB00806214C09091EB00CA
:1040600090619093EB0021E030E0A90102C0440F81
:10407000551F8A95E2F74093EA001092EA0080917A
:10408000EB0088608093EB001092E9008091E800DB
:10409000877F8093E8000E94C41DACC08111AAC034
:1040A0001091CC021F778091E3008078812B809360
:1040B000E3008091E800877F8093E8000E94C41DA0
:1040C0008091E80080FFFCCF8091E30080688093BE
:1040D000E300111102C082E001C083E08093C902B5
:1040E00089C08058823008F085C08091CC029091C0
:1040F000CD028C3D53E0950779F583E08A838AE20F
:1041000089834FB7F894DE01139620E03EE051E238
:10411000E32FF0E050935700E49120FF03C0E295B5
:10412000EF703F5FEF708E2F90E0EA3010F0C7968F
:1041300001C0C0968D939D932F5F243149F74FBFE7
:104140008091E800877F8093E8006AE270E0CE010A
:1041500001960E94D41C16C06091CE027091CF02CD
:10416000AE014F5F5F4F0E94181CBC01892B09F400
:1041700041C09091E800977F9093E80089819A81EF
:104180000E94301D8091E8008B778093E80032C058
:10419000803881F58091E800877F8093E8008091E6
:1041A000C5028093F1008091E8008E7772CF811173
:1041B00021C08091CC029091CD0299270297D4F42E
:1041C0008091E800877F8093E8008091CC02809303
:1041D000C5020E94C41D8091C502811106C0809154
:1041E000E30087FD02C081E001C084E08093C90242
:1041F0000E940D1B8091E80083FF0AC08091E800B7
:10420000877F8093E8008091EB0080628093EB00D1
:10421000AA960FB6F894DEBF0FBECDBFDF91CF9147
:104220001F9108950895CF938091C9028823A1F02A
:10423000C091E900CF709091EC00892F817090FDC2
:1042400080E8C82B1092E9008091E80083FD0E946D
:10425000B21FCF70C093E900CF91089597FB072E4E
:1042600016F4009407D077FD09D00E944B2107FC7B
:1042700005D03EF4909581959F4F08957095619576
:104280007F4F0895EE0FFF1F0024001C0BBE079008
:10429000F691E02D0994AA1BBB1B51E107C0AA1F90
:1042A000BB1FA617B70710F0A61BB70B881F991FD7
:1042B0005A95A9F780959095BC01CD010895FB0111
:1042C000DC0104C08D910190801921F441505040CF
:1042D000C8F7881B990B0895F999FECF92BD81BD4F
:1042E000F89A992780B50895A8E1B0E042E050E03F
:1042F0000C94A021262FF999FECF92BD81BDF89A8A
:10430000019700B4021639F01FBA20BD0FB6F89419
:10431000FA9AF99A0FBE08950396272F0E947B21DF
:104320000E947A21252F0E947B21242F0C947B212F
:104330000196272F0E947B210C947A21DC01CB016E
:10434000FC01F999FECF06C0F2BDE1BDF89A3196A5
:1043500000B40D9241505040B8F70895F894FFCF43
:1043600016022808641E140A321E631AB81A991A13
:10437000951A911A01E200E900EA00B500B600B70B
:1043800000CD008301CC008A019201940121022317
:104390000224022502260227022A02B300B4006F7B
:1043A000007000818283E200E900EA00B500B600F7
:1043B000B700CD008301CC008A0192019401210253
:1043C000230224022502260227022A02B300B40097
:1043D0006F00700081828390919293949597C0674B
:1043E000666564F0F1F2F3F4F5F6F763626160C1BB
:00000001FF
