:100000000C949A010C94E1010C94E1010C94E1012F
:100010000C94E1010C94E1010C94E1010C94E101D8
:100020000C94E1010C94E1010C94591D0C942B1ECD
:100030000C9485180C94E1010C94E1010C94E101FD
:100040000C94E1010C94AC130C94E1010C94E101CB
:100050000C94D0130C94DE180C94E1010C94E10183
:100060000C94E1010C94E1010C94E1010C94E10188
:100070000C94E1010C94E1010C94E1010C94E10178
:100080000C94E1010C94E1010C94E1010C94E10168
:100090000C94E1010C94E1010C94E1010C94E10158
:1000A0000C94E1010C94E1010C94E10107040704B4
:1000B000330433049B04D305D305D305B9044E059B
:1000C0005F055F05C305D305D305CC05730673062D
:1000D000850685067C0685068506850673067306F5
:1000E0008106850685068106981EBF1EB71FBF1EA6
:1000F000B71F0B1F2E1FB71F851F941F29001E003F
:100100001F002000210022002300240025002600DB
:1001100027002D002E0031002B0014001A000800CB
:10012000150017001C0018000C00120013002F000F
:1001300030002A00E00004001600070009000A0051
:100140000B000D000E000F003300340000002800EB
:10015000E10000001D001B00060019000500110051
:1001600010003600370038000151E5000000E200C1
:100170000151000000002C000000000000003500CC
:100180000000E700E600000001003A003B003C00F0
:100190003D003E003F00400041004200430044005B
:1001A000450001003900BC5CC15C01000100145C29
:1001B00001000100460047004800520001004C00C9
:1001C0000100AA00A900A800010001005500540088
:1001D0004A004B0050004F000000010001000000E9
:1001E000AC00AE00AB0001000100570056004D000E
:1001F0004E0051000100010001000100010000005B
:100200000000010000000000000049000100AD00F6
:10021000010001000E036B00630036003000730024
:1002200065000000100355006E006B006E006F004B
:1002300077006E0000000403090409023B0002017C
:1002400000A0FA09040000010301010009211101C5
:1002500000012240000705810308000A090401008B
:100260000103000000092111010001226D000705B2
:10027000820320000A1201000200000008EDFE00C7
:100280000001000102000105010980A10185031997
:10029000012AB700150126B700950175108100C02D
:1002A000050C0901A101850419012AA002150126E6
:1002B000A002950175108100C005010906A1018504
:1002C00006050719E029E715002501950875018144
:1002D000020507190029EF1500250195F075018128
:1002E0000205081901290595057501910295017509
:1002F000039101C005010906A101050719E029E7DD
:100300001500250195087501810295017508810187
:100310000507190029FF150026FF009506750881BD
:1003200000050819012905950575019102950175CA
:10033000039101C011241FBECFEFDAE0DEBFCDBFB5
:1003400004B603FE27C080918B0290918C02A0918D
:100350008D02B0918E028730904BA740B04BD1F404
:1003600010928B0210928C0210928D0210928E02CB
:1003700014BE84B7877F84BF0FB6F894A895809188
:100380006000886180936000109260000FBEE0E022
:10039000F8E3099511E0A0E0B1E0E4E4F1E402C083
:1003A00005900D92A638B107D9F722E0A6E8B1E092
:1003B00001C01D92AB38B207E1F70E947B120C948A
:1003C000A0200C940000229A0895CF93C82F0E9479
:1003D000CC02882329F0C1FD02C02A9A01C02A98C4
:1003E000CF91089581E0089581E008950C94F4017F
:1003F00008950C94F8011F93CF93DF9300D000D0A1
:100400001F92CDB7DEB749835A836B833091880141
:1004100089819A81311114C0662359F0222349F051
:100420000E941708182F682F89819A810E94C0079F
:1004300003C00E94EB07182F69817A81812F04C0C5
:100440000E94170869817A810F900F900F900F908A
:100450000F90DF91CF911F910C94CD0EFC01262FB0
:10046000408151816281738184810C94FB0181E020
:100470000895CF93DF93EC0160E00E942E02BE014D
:10048000DF91CF910C94F9010E94F3100E94CE02EB
:100490000E94D1140C94E3010C942C1180E00E9472
:1004A000051480E00C94CF0208950C9454020E942D
:1004B00061060E9455022FEF84E39CE021508040AA
:1004C0009040E1F700C000000C9404190F931F93B3
:1004D000CF93DF938C0161E00E942E02EC01B80102
:1004E0000E94F601882309F444C0B801CE010E949D
:1004F00075138823F1F1B801CE010E94B716882345
:10050000C1F1B801CE010E94E114882391F1B80134
:10051000CE010E941316882361F1F801828188239D
:1005200009F1CB358DE5D807C1F050F4C115FCE5D4
:10053000DF0781F0CF3DDC45A9F40E94CB0D19C047
:10054000CC35EDE5DE0761F0CD35DD4559F40E948F
:100550000E0D08C00E9457020CC00E94170D02C069
:100560000E941A0DC801DF91CF911F910F910C9439
:10057000F20180E0DF91CF911F910F9108950C94CB
:1005800054020E9499120E9413170E94CF020C94E9
:10059000BF0208950C94C90281E008950895CF9395
:1005A000C82F0E94CA028C2F0E94E501CF910895A6
:1005B000CF93DF93CDB7DEB72B970FB6F894DEBF9E
:1005C0000FBECDBF4F83588769877A878B876111AC
:1005D0000E945A0C9E012F5F3F4F86E0F901119255
:1005E0008A95E9F785E0FE013796D90101900D92D1
:1005F0008A95E1F789819A814C815D81452B31F0A3
:100600009F3F31F491E08F3F19F403C091E001C0A6
:1006100090E090FF09C049815A816B817C818D8176
:100620009E810E947B0B05C0C9010E943702811187
:10063000F2CF2B960FB6F894DEBF0FBECDBFDF9181
:10064000CF910895FC01808191810E9459080895FD
:10065000CF93882309F448C0C82F8CEF8C0F813AC0
:10066000D0F46C2F80910201909103010E947B17BE
:10067000882349F06C2F80910201909103010E9420
:1006800006180E948C0C6C2F80910201909103013E
:100690000E94FB170CC080E28C0F883058F4C770A2
:1006A00081E001C0880FCA95EAF70E943D0CCF9106
:1006B0000C948C0CEBE5EC0FE33040F4F0E0E15CE3
:1006C000FE4F808190E0CF910C943917C85AC73102
:1006D00058F4EC2FF0E0EE0FFF1FEF5EFE4F80812D
:1006E0009181CF910C944F17CF910895882349F1B0
:1006F000682F8CEF860F813A38F480910201909137
:1007000003010E9406180CC080E2860F883050F466
:10071000677081E001C0880F6A95EAF70E94430C78
:100720000C948C0C8BE5860F833020F480E090E0F5
:100730000C943917685A673120F480E090E00C94EB
:100740004F1708951F93CF93DF93182FEB010E944B
:100750002803209741F08FE99FE00197F1F700C04F
:1007600000002197F6CF812FDF91CF911F910C943C
:100770007603893319F060E070E002C060E570E054
:100780000C94A203882321F00E943D0C0C948C0C45
:100790000895882321F00E94430C0C948C0C08953A
:1007A000CF92DF92EF92FF920F931F93CF93DF933D
:1007B0007C01162FC72FFC01D281058102950F7095
:1007C0000E94330C8823B9F0DD23A9F08C2F807FA1
:1007D000803421F080E2810F883068F080916402DB
:1007E00082FD09C082E00E94DC0C0E94330C91E083
:1007F000D82ED92601C0D12CCC2EC2948FE0C8228D
:100800008C2D90E0FC01EA5AFF4F0C9431208C2F84
:10081000807FCF70882311F0C295C07FDD2399F0CF
:10082000CC2309F49BC180E2810F883010F01111B4
:1008300004C08C2F0E943D0C03C08C2F0E944D0CD5
:100840000E948C0C8BC1812F0E947603CC2309F46B
:10085000AAC180E2810F883038F1112329F18C2F51
:100860000E94530C24C08C2F807FCF70803211F0F7
:10087000C295C07F112319F01130A1F13DC08091C4
:10088000640282FF17C0DD2349F0CC2329F08C2FAE
:100890000E943D0C0E948C0C80E061C180E00E94AF
:1008A0007603CC2309F47FC18C2F0E94430C0E9455
:1008B0008C0C79C1DD2371F0002341F0013031F45B
:1008C0000E946D0C8C2B0E94750C6DC10E946D0CEA
:1008D0008C2B1DC0002319F0013009F464C10E9463
:1008E000820C25C0DD2321F0063008F05CC10EC06B
:1008F000053008F058C11BC0DD2361F0002331F042
:10090000F701858180FF2AC18F7085838C2F0E941B
:10091000C20349C1002359F0193309F030C1FFEF78
:1009200027EE83E0F15020408040E1F726C18C2F74
:100930000E94C90338C18C2F86958695837019F063
:10094000813061F030C1DD2321F0812F9C2F937025
:1009500002C080E090E00E9439172DC1DD2321F014
:10096000812F9C2F937002C080E090E00E944F176F
:1009700022C18C2F837009F045C0D11118C1412FBD
:10098000429546954770440F440F612F6F70862F34
:1009900090E0A0E0B0E0042E04C0880F991FAA1FC9
:1009A000BB1F0A94D2F714FF10C00FE010E020E044
:1009B00030E004C0000F111F221F331F4A95D2F7E9
:1009C000009510952095309503C000E010E0980147
:1009D000C695C695C370BC01CD01602B712B822BCF
:1009E000932BC23049F058F4C13019F00E94D6065A
:1009F000DEC00E94C406DBC00E94E806D8C00E9488
:100A0000C206D5C0DD2319F08C2F817001C08695F8
:100A1000882309F4CCC0412F429546954770440F76
:100A2000440F612F6F70862F90E0A0E0B0E0042E9D
:100A300004C0880F991FAA1FBB1F0A94D2F714FF86
:100A400010C00FE010E020E030E004C0000F111FE4
:100A5000221F331F4A95D2F70095109520953095A7
:100A600003C000E010E09801C695C695C370BC01B4
:100A7000CD01602B712B822B932BC23049F058F49F
:100A8000C13019F00E949B0792C00E9489078FC055
:100A90000E94AD078CC00E94FC0689C0CF70DD2388
:100AA00039F08C2F0E942207812F0E94C2037FC041
:100AB000812F0E94C9038C2F0E94430778C0123FE8
:100AC00021F128F4103F41F0113FC1F043C0133F22
:100AD00019F1143F79F03EC0DD2341F0053008F0F4
:100AE00062C08C2F8F710E9468075DC0063008F0CD
:100AF0005AC0F7CF8091640282FF18C0DD2339F01D
:100B00008C2F8F710E9422074EC0DD23C9F38C2FDA
:100B10008F710E94430747C0DD2329F08C2F8F710E
:100B20000E940D0740C00E9408073DC0DD2349F028
:100B3000CF718C2F0E94220763E08C2F0E94C10C82
:100B400032C081E00E94DC0C023068F182E00E9439
:100B5000DC0C29C0DD2331F0002391F2812F0E94AB
:100B6000280321C0002399F2193349F49FEFE7EEDF
:100B7000F3E09150E040F040E1F700C00000812F29
:100B80000E94760310C04C2F4F70612FC7010E9446
:100B9000C90E0E9487080FC04C2F4F70612FC701EC
:100BA0000E94CC0E08C088EF8C0D843020F40E9487
:100BB00013170E94CF02DD20C9F00E942F0C80FD88
:100BC00015C0F70112820E94290C0E942207C7015A
:100BD0000E9417060E94290CDF91CF911F910F915F
:100BE000FF90EF90DF90CF900C944307DF91CF916F
:100BF0001F910F91FF90EF90DF90CF9008950F938A
:100C00001F93CF93DF93EC01688179818A810E94E1
:100C100064088C010E94BF070E94B006B801CE0193
:100C20000E94D003DF91CF911F910F910895CF9330
:100C3000DF93EC01988189812B813C81232B31F05A
:100C40008F3F31F481E09F3F19F403C081E001C080
:100C500080E080FD1DC0CE010E946602811110C09F
:100C60000E94330C8823A1F08A81882389F0809127
:100C7000640282FD0DC082E0DF91CF910C94DC0C08
:100C8000CE010E94FF05CE01DF91CF910C94390275
:100C9000DF91CF91089580E090E00E94391780E0C5
:100CA00090E00E944F170E945A0C0E946A0C0C940C
:100CB0008C0C80910201909103010E9411180C94F8
:100CC0004B060E944A0C0C945906E92FE295EF70EE
:100CD0004E2F50E0FA013297EE30F105B0F4EA59A8
:100CE000FF4F0C943120803F91F018F4883E68F457
:100CF0000EC0843F51F40BC0883E48F0813F29F478
:100D000006C093FB882780F9089580E0089581E06C
:100D10000895FC01808191810E9459080E94650616
:100D20000895CF93DF9300D000D01F92CDB7DEB7E8
:100D30000F900F900F900F900F90DF91CF9108952B
:100D4000CF93DF9300D000D000D0CDB7DEB726968A
:100D50000FB6F894DEBF0FBECDBFDF91CF910895DF
:100D6000089508950C94B1060C94B2060E94B4063E
:100D70006093BA017093BB018093BC019093BD0155
:100D80000C944B060C94B6060F931F930091BA0176
:100D90001091BB012091BC013091BD01602B712BE2
:100DA000822B932B1F910F910C94B6060F931F93D8
:100DB0000091BA011091BB012091BC013091BD019D
:100DC00060237123822393231F910F910C94B60605
:100DD0000F931F930091BA011091BB012091BC01A8
:100DE0003091BD0160277127822793271F910F91B2
:100DF0000C94B6060C94B1060E94FA066093B601F4
:100E00007093B7018093B8019093B9010C944B068D
:100E100060E070E0CB010C94FC060F931F9341E05F
:100E200050E060E070E08A019B0104C0000F111FD8
:100E3000221F331F8A95D2F7C901B8011F910F9164
:100E40000C94FC060F931F9341E050E060E070E0CB
:100E500004C0440F551F661F771F8A95D2F78091F3
:100E6000B6019091B701A091B801B091B9018A0182
:100E70009B01082B192B2A2B3B2BC901B8011F9171
:100E80000F910C94FC060F931F9341E050E060E03B
:100E900070E004C0440F551F661F771F8A95D2F774
:100EA00040955095609570958091B6019091B701ED
:100EB000A091B801B091B9018A019B0108231923BF
:100EC0002A233B23C901B8011F910F910C94FC0602
:100ED0000F931F9341E050E060E070E004C0440FC6
:100EE000551F661F771F8A95D2F78091B6019091A2
:100EF000B701A091B801B091B9018A019B010827FF
:100F000019272A273B27C901B8011F910F910C947B
:100F1000FC060F931F930091B6011091B701209129
:100F2000B8013091B901602B712B822B932B1F914B
:100F30000F910C94FC060F931F930091B601109132
:100F4000B7012091B8013091B90160237123822348
:100F500093231F910F910C94FC060F931F93009104
:100F6000B6011091B7012091B8013091B901602705
:100F70007127822793271F910F910C94FC060895E7
:100F80002EE0929F800D1124E82FE695E695E695D8
:100F9000877051E001C0550F8A95EAF785E0E89F18
:100FA000F0011124E757FE4F20E030E070E040816F
:100FB000CB01022E02C0969587950A94E2F78170C4
:100FC000819584278523842781932F5F3F4F253088
:100FD000310569F708952EE0929F800D1124682F46
:100FE000669566956695982F977085E0689FB00125
:100FF000112440E050E080E0FB01E40FF51FE757CB
:10100000FE4F208130E0092E02C0369527950A94C4
:10101000E2F721703327042E01C0220F0A94EAF769
:10102000822B4F5F5F4F4530510531F70895BF92D6
:10103000CF92DF92EF92FF920F931F93CF93DF93A4
:101040008C01C090B601D090B701E090B801F0904B
:10105000B9018091BA019091BB01A091BC01B091FE
:10106000BD01C82AD92AEA2AFB2ACFE1D0E0D7015C
:10107000C6010C2E04C0B695A795979587950A943E
:10108000D2F780FD04C0219790F7B12C07C0BC2E89
:10109000B8018C2F0E94FD0F0197A9F38B2DDF91D2
:1010A000CF911F910F91FF90EF90DF90CF90BF9065
:1010B0000895CF93DF93EC010E941708BE010E94B0
:1010C000FD0FDF91CF9108951F93CF93DF93EB0135
:1010D00090918801992321F0CB010E94590813C0F7
:1010E000882349F0CB010E941708182F682FCE01E2
:1010F0000E94C00704C0CB010E94EB07182FBE015D
:10110000812F0E94FD0FDF91CF911F910895EF92E3
:10111000FF920F931F93CF93DF938C01892B09F4D8
:101120006CC0F12CEE24E394E8012196F80184913F
:10113000843740F4843008F051C0813081F082302F
:1011400019F15BC0853709F444C0A8F19CE7980FFA
:10115000903708F052C08F770E94760341C00E5F2F
:101160001F4FFE01849190E2980F983050F48770E1
:10117000FE2D01C0FF0F8A95EAF78F2F0E945D0CAC
:1011800014C00E9428032DC00E5F1F4FFE018491E2
:1011900090E2980F983060F48770FE2D01C0FF0F29
:1011A0008A95EAF78F2F0E94630C0E948C0C19C05D
:1011B0000E94760316C00E5F1F4FFE01C491CC2320
:1011C00081F08FE99FE00197F1F700C00000C15066
:1011D000F6CF0E5F1F4FFE01F49003C00E9428035C
:1011E0008E018F2D882309F49FCFEFE9FFE031971F
:1011F000F1F700C000008150F5CFDF91CF911F9132
:101200000F91FF90EF9008951F93CF93DF93C091BC
:10121000BE0116E08091BF01C81799F0D0E01C9F75
:10122000F0011D9FF00D1124E054FE4F40815181CB
:1012300062817381848195810E94A0062196C77086
:10124000E9CFDF91CF911F9108954091F001509126
:10125000F1016091F2017091F3018091F40190919C
:10126000F5010C94A006EF92FF920F931F93CF937A
:10127000DF938091F50182958F7009F065C08091B0
:10128000F201882309F460C08091BE01F090BF0193
:101290001091F0010091F1016091F3017091F4015E
:1012A00091E01F3F09F090E0C0910001D091010151
:1012B000292F96E0E92E8F1509F446C061157105B6
:1012C00021F00F3F21F030E003C031E001C0322FA8
:1012D00090E030FD36C0E89EF001E99EF00D11244B
:1012E000DF01A054BE4F11963C911197301329C0D5
:1012F0003C91311326C012963C911297311121C0B6
:1013000013964D915C911497461B570B4C175D0734
:10131000C0F48091F5018F7080618093F501EB53EB
:10132000FE4F80818F708061808380EF91E00E940A
:101330001706DF91CF911F910F91FF90EF900C94C2
:10134000040901968770B7CFDF91CF911F910F915C
:10135000FF90EF9008959F92AF92BF92CF92DF924D
:10136000EF92FF920F931F93CF93DF93CDB7DEB72A
:1013700061970FB6F894DEBF0FBECDBF8C0185E03C
:10138000F801DE011D9601900D928A95E1F7D801D2
:101390001296EC909091F001E091F1012091F3010F
:1013A0003091F4012115310531F0EF3F31F481E046
:1013B0009F3F19F403C081E001C080E0B82FB170F5
:1013C0009B2E80FD47C1D8014C9111965C911197DD
:1013D0001396AD90BC90149780EFC82E81E0D82E64
:1013E000F090F201B501621B730B20910001309166
:1013F0000101FF2009F4D9C08091F501621773073C
:1014000008F095C0282F207F09F052C05E1313C04A
:10141000491311C0FE2CE1100EC08F7080618093C3
:10142000F5010E942509C6010E9417068091F50169
:10143000F80185834DC1AB2831F05F3F31F481E085
:101440004F3F19F403C081E001C080E080FD03C07C
:1014500081E08E2502C080E090E0F82FF170FF2E31
:1014600080FF1CC08091BE012091BF0136E0821731
:1014700009F40BC190E0389FF001399FF00D112461
:10148000E054FE4F6181561306C06081461303C0CD
:101490006281E61203C001968770E9CFFE2CEE2030
:1014A00009F416C18091F50181608093F50154C063
:1014B0005E1306C0491304C0E11002C0F80199C0D0
:1014C000C8010E948906882361F1EE2051F1209124
:1014D000F501822F82958F7090E0029774F08091D1
:1014E000F0019091F10198878F831986BB86AA86B7
:1014F0002C87CE0107960E94170686E0F801A0EF20
:10150000B1E001900D928A95E1F70E9433090E94A3
:1015100025090AC05E1711F1C8010E9489068111D0
:101520002CC0C8010E941706FF24F394D1C0282FB5
:10153000207F81F77A2DB98AA88A6E2D89890E9429
:10154000910680EF91E00E94170686E0D6011D9279
:101550008A95E9F70E942509F12CBAC04913DCCF1E
:10156000E110DACFF8018583C8010E94170686E0F2
:10157000D6011D928A95E9F7ABC0EE2091F2209139
:10158000F501822F82958F7090E002970CF4B5CF11
:101590008091F0019091F1019A8389831B82BD8231
:1015A000AC822E83CE010196A6CF6217730708F096
:1015B00044C0FE2CEE2009F4B4CF5E1330C04913B2
:1015C0002EC02091F50120FD21C0822F82958F70C1
:1015D000482F50E041155105C9F0F80125834F30DF
:1015E000510541F08F5F982F9295907F822F8F70D9
:1015F000892B8583C8010E94170686E0F801A0EFB9
:10160000B1E001900D928A95E1F73CC086E0F801C7
:10161000A0EFB1E001900D928A95E1F759C0C801A1
:101620000E948906811169CF8091F50181608093C4
:10163000F501C8010E9417064BC07A2DB98AA88A05
:101640006E2D89890E94910686E0D6011D928A95A9
:10165000E9F718C0EE2009F464CFC8010E9489069A
:10166000F82E882309F45DCF86E0F801A0EFB1E001
:1016700001900D928A95E1F780EF91E00E9422039C
:101680000E9433090E94250923C04D875E878D85FE
:101690009E850E945908292F22952F70223028F408
:1016A0009F7039F0811105C00BC0243028F49F7061
:1016B00049F4805E883020F0C8010E9417069F2CF4
:1016C000F92C06C0D80115969C91907F91F7F8CF20
:1016D0008F2D61960FB6F894DEBF0FBECDBFDF91A0
:1016E000CF911F910F91FF90EF90DF90CF90BF901F
:1016F000AF909F9008951F93CF93DF93CDB7DEB740
:101700002C970FB6F894DEBF0FBECDBF4F8358871E
:1017100069877A878B879C87CE0107960E94AB09E1
:101720008823D1F09F8188852A853B85232B31F042
:101730008F3F31F481E09F3F19F403C081E001C085
:1017400080E080FD47C04F81588569857A858B850B
:101750009C850E94A0063EC086E0FE013796DE0111
:10176000119601900D928A95E1F7FF81E8856A85CF
:101770007B856115710531F0EF3F31F481E0FF3F6A
:1017800019F403C081E001C080E080FD23C02091F6
:10179000BF0130E0C9010196877099274091BE01D1
:1017A00050E084179507F1F1F983EA837D836C8318
:1017B00096E0929FD001939FB00D1124A054BE4F8C
:1017C000FE01319601900D929A95E1F78093BF0149
:1017D0000E94040916E08091BE019091BF01891713
:1017E00071F1189FC001112480549E4F0E94AB09D3
:1017F000882329F1E091BE011E9FF0011124E054DD
:10180000FE4F4081518162817381848195810E9464
:10181000A0068091BE0190E0019687709927809381
:10182000BE01D9CF0E9461061092BF011092BE0185
:10183000E0EFF1E086E0DF011D928A95E9F72C9652
:101840000FB6F894DEBF0FBECDBFDF91CF911F91D1
:1018500008958091F60185958595859508958091E7
:10186000F601877008959091F601977081E009F470
:1018700080E0089580911A02089590911A02892BB0
:1018800080931A020895809590911A02892380937B
:101890001A02089510921A02089590911902892B44
:1018A000809319020895809590911902892380935D
:1018B0001902089510921902089590911802892B27
:1018C000809318020895809590911802892380933F
:1018D000180208951092180208958091F701089552
:1018E00008950C94700C0C94710C9091640292FD0C
:1018F00008C09091F701981721F08093F7010C949C
:10190000730C08958091F701882329F01092F70154
:1019100080E00C94730C0895E0910201F0910301B2
:1019200080911A028083E0910201F091030190817D
:1019300080911902892B8083E0910201F0910301CB
:10194000908180911802892B80838091F7018823F0
:1019500081F0E0910201F09103019081892B808355
:1019600080910201909103010E94651781110E94EC
:10197000820C80910201909103010C941F170C942A
:10198000700C9091640292FD10C098E0899F9001C4
:101990001124262B2093F6010E9422078091F60144
:1019A0008595859585950C94BF0C0C942207109213
:1019B000F60180E00C94BF0C2091F6018095822303
:1019C0008093F601982F977099F430E0482F082EF5
:1019D000000C550B2417350759F09091640292FDC5
:1019E00007C08595859585950E9443070C94D70C73
:1019F00008959091640292FB222720F9281769F03C
:101A000080FB92F99093640280916302909164024A
:101A10000E94470D82E00C94DC0C089580916402D2
:101A200082FB882780F991E089270C94F90C81E0EA
:101A30000C94F90C80E00C94F90C6FEF7FEF80E0D0
:101A400090E00C948A2080E090E00E94662021E0E3
:101A5000893E9E4F09F020E0822F089582E090E0B9
:101A60000C945E2083E090E00C945E20CF9384E0A1
:101A700090E00E945E20C82F82E290E00E945E20EB
:101A80002C2F30E0A901582BCA01CF910895CF9394
:101A9000C92F682F84E090E00E946C206C2F82E2B6
:101AA00090E0CF910C946C20AB01BC018FE090E0F2
:101AB0000C947E20AB01BC0183E190E00C947E206D
:101AC00060E070E0CB010C945A0D60E070E0CB0157
:101AD0000E94540D0C94600D69EE7EEF80E090E062
:101AE0000E948A2060E082E090E00E946C2060E02A
:101AF00083E090E00E946C201092BA011092BB012A
:101B00001092BC011092BD0160E084E090E00E9460
:101B10006C2060E082E290E00E946C2060E085E052
:101B200090E00E946C2060E086E090E00E946C20D3
:101B30006FEF87E090E00E946C2040E050E0BA0137
:101B400088E090E00E947E2060E08DE090E00E94BE
:101B50006C2040E050E0BA0188E190E00E947E20D5
:101B600060E087E190E00E946C2040E050E0BA0124
:101B70008CE190E00E947E2060E070E080E290E0E6
:101B80000E948A2040E050E0BA0188E190E00E9483
:101B90007E200C94650D0C946C0D682F8EE090E007
:101BA0000C946C200E94C31860932A0270932B023D
:101BB00080932C0290932D0260932602709327024B
:101BC0008093280290932902089585B7806885BF85
:101BD00085B7806885BF089581E008950C94EC0D69
:101BE00008950C94F00D0C94F00D0C94F30D0C94DE
:101BF000F00D0C94F70D0C94F00D0E94E50D89ED9D
:101C000090E10E9409170E94FB0D0C94F90D0E94AF
:101C1000F10D0C94F00D0E94AE180E94D4110E9498
:101C200099120C94F50D6F927F928F929F92AF92C2
:101C3000BF92CF92DF92EF92FF920F931F93CF93B9
:101C4000DF93CDB7DEB72A970FB6F894DEBF0FBE8D
:101C5000CDBF0E94E91181110E94D20D3CE1832E7B
:101C600032E0932E00E010E0C02E802F0E9417116A
:101C70005C01F401619071904F016826792661142E
:101C80007104B1F40F5F1F4F0530110569F78FEF35
:101C900089838A831B820E94B7188160782F9D8375
:101CA0008C8349815A816B818D810E94D8023AC010
:101CB00080912E0281FD0E942011D12CEE24E3940C
:101CC000F12CC3018E219F21892B29F10E94EE0D59
:101CD0008823A9F0DE82CF82AE20BF2081E0AB282E
:101CE00009F480E088870E94B7188160782F9A876E
:101CF00089874E815F8168858A850E94D802000F9E
:101D0000111FF801E45EFD4F80819181E826F926DC
:101D1000F182E08207C0D394EE0CFF1CFEE0DF12DC
:101D2000D0CFB0CF0E94D0140E94131790911B0205
:101D30008917D1F00E94131780931B022A960FB6C1
:101D4000F894DEBF0FBECDBFDF91CF911F910F91F1
:101D5000FF90EF90DF90CF90BF90AF909F908F90CB
:101D60007F906F900C94CF022A960FB6F894DEBF46
:101D70000FBECDBFDF91CF911F910F91FF90EF90DC
:101D8000DF90CF90BF90AF909F908F907F906F909B
:101D9000089580E090E00895089526E4829FC001B0
:101DA0001124FC012EE0729FE00DF11D1124E60FBD
:101DB000F11DEE0FFF1FE450FF4F859194910895A0
:101DC000880F991FFC01EC5EFD4F85919491089559
:101DD000CF93DF930E940210EC01811520E592075A
:101DE00008F041C0811540E4940708F0CBC0803E64
:101DF000910520F5803C910508F0B8C0883A91051E
:101E000070F4853A910508F0A8C08130910509F475
:101E1000A1C008F4EBC0049708F0EBC0E7C08F3B0B
:101E2000910508F0E3C0885AC82FD0E0CC0FDD1F21
:101E3000CE5BDE4F888199819464DCC0811550E2CD
:101E4000950750F4C11581E0D80708F0D2C0C83E0C
:101E5000D10508F4CEC0CAC0811520E3920708F06E
:101E60008AC09F7085C0811545E5940708F046C07B
:101E7000811554E5950708F09DC0C11582E5D80786
:101E800018F5C11521E5D20708F07FC0CE01F4E0B6
:101E900096958795FA95E1F7282F23703C2F33709C
:101EA00081E090E002C0880F991F3A95E2F79C68A4
:101EB000922B2C2F2F702695269540E2249F90017F
:101EC0001124822B932B96C09E01237033279C2FC5
:101ED00096959695C115D34508F05CC041E050E059
:101EE00002C0440F551F2A95E2F780E2989F9001A7
:101EF0001124CA01822B932B9C687CC0811559E563
:101F0000950798F4C11588E5D80708F058C0C115A1
:101F100026E5D20708F06AC08C2F0E9496108F71B8
:101F200090E0982F8827906265C081154AE5940754
:101F300008F44AC090568115904208F057C08D2F82
:101F40008F710E9496109E01332730628F71A90114
:101F5000582B4AC081E090E04DC0855AC82FD0E090
:101F6000C059DE4F888190E0906444C0805C910944
:101F70000E94E00E3FC09927D3FF02C0986C3AC080
:101F8000906C38C09F70906A35C09C2F8827816FF5
:101F9000906A30C041E050E002C0440F551F2A95BE
:101FA000E2F780E2989F90011124CA01822B932BC3
:101FB0009A6820C0982F8827846F906A1BC09C2F36
:101FC0008827806F906A16C08F700E9496109E01BD
:101FD00094E0369527959A95E1F72F7030E0322FEF
:101FE00022273069A901482BCA0104C080E090E093
:101FF00001C0CE01DF91CF9108950E94CD0E0E94C5
:10200000E80E08958238910569F1B0F481339105A5
:1020100009F46DC048F48932910509F463C08A322D
:10202000910509F469C008958533910509F455C0F7
:1020300089339105B9F00895833E910569F138F42B
:10204000803E9105B1F0823E910509F10895863EEA
:102050009105A9F1873E9105B9F1843E910509F0FA
:1020600064C023C02091630220FD4FC021FD4DC0FC
:1020700008958091630280FD44C08091640280FFD6
:1020800044C08091630284FD42C083EE4DC08091C4
:10209000630282FF38C0F5CF8091630282FD33C0B6
:1020A0008091640280FD31C0ECCF8091640281FF99
:1020B00032C08091630284FD2AC087EE35C08091D2
:1020C000630283FF26C0F5CF8091630283FD21C0A8
:1020D0008091640281FD1FC0ECCF8091630285FD79
:1020E0001CC01DC08091630285FD19C016C080917F
:1020F000630286FD16C017C08091630286FD13C07F
:1021000010C089E311C082EE0FC080EE0DC080E0E8
:102110000BC086EE09C084EE07C089E205C085E3E6
:1021200003C08AE201C081E390E0089590916302C8
:1021300092FF0DC0282F2871283019F4877F846002
:1021400006C0282F2471243011F48B7F886093FF00
:102150000DC0282F2871283119F4877E846106C0AC
:10216000282F2471243111F48B7E88612091640220
:1021700020FF0DC0382F3871383019F4877F816007
:1021800006C0382F3171313011F48E7F886021FF05
:102190000DC0282F2871283119F4877E816106C06F
:1021A000282F2171213111F48E7E886194FD877E64
:1021B000089580E008950C941D0D0E94E9118FE3AD
:1021C0009CE90197F1F700C000000E94E91180E04E
:1021D0000E94171180FF04C00E94DB100C940419A8
:1021E00008950C94DD100E94230D811102C00E94FD
:1021F000CB0D0E942E0D80932E020E94360D9093DF
:102200006402809363020E94F1100E94320D682FD5
:1022100070E080E090E00E94C2066091B60170918B
:10222000B7018091B8019091B9010C94FA06E82F9A
:10223000F0E0EE0FFF1FE159FD4F8081918108957D
:10224000089580EA8A95F1F7089500C008950C94E6
:10225000211108950C9429110C942A11F894E82F57
:10226000E295EF70F0E031A1282F2F7081E090E02F
:1022700001C0880F2A95EAF7982F9095932391A390
:1022800092A1892B82A3789408950F931F93CF93E3
:10229000DF93C1E8D1E089918F3F11F00E942E11A8
:1022A00081E0C638D807B9F7C3E7D1E001E811E00B
:1022B00089918F3F11F00E942E110C171D07C1F755
:1022C000DF91CF911F910F910895BF92CF92DF922E
:1022D000EF92FF920F931F93CF93DF938C01C62F42
:1022E000D0E0CE018F579E4F6C01FC0190819F3F43
:1022F00009F450C0B62EF894E92FE295EF70F0E0A3
:1023000081A19F7021E030E001C0220F9A95EAF789
:10231000822B81A382A12095282322A378940E9456
:102320002511E3E7F1E041E851E021E030E0E12C64
:10233000F12C61916F3F89F0A62FA295AF70B0E0AC
:1023400090968C9190E06F7002C0959587956A95F4
:10235000E2F780FD02C0C90102C080E090E0E82AF7
:10236000F92A220F331F4E175F0719F7F6018081F4
:102370008F3F11F00E942E1161E0E114F10409F485
:1023800060E08B2D0E942711CC0FDD1FC00FD11FE5
:10239000F982E882DF91CF911F910F91FF90EF902A
:1023A000DF90CF90BF9008950E9445118AE0EFE63C
:1023B000F2E0DF01982F1D929A95E9F7E5E6F2E049
:1023C000DF011D928A95E9F785E00E9434120C9492
:1023D0004402FF920F931F93CF93DF93CDB7DEB7E5
:1023E0002A970FB6F894DEBF0FBECDBF8E010F5FE8
:1023F0001F4F8AE0F80111928A95E9F7F12C6F2DB1
:10240000C8010E946511F394F5E0FF12F8CF4AE08D
:1024100050E0B80185E692E00E945120FF24F39439
:10242000009709F4F12C892B41F08AE0F801A5E628
:10243000B2E001900D928A95E1F72F2D45E06FE60D
:1024400072E085E692E00E9435120E944C028F2DC8
:102450002A960FB6F894DEBF0FBECDBFDF91CF91A5
:102460001F910F91FF9008950895FF920F931F936E
:10247000CF93DF93F82E092F162FD72FC42F2223A7
:1024800049F081E0809331020E94B71890933002A6
:1024900080932F02809131028823D9F080912F02FE
:1024A000909130020E94CF18059798F0EF2DF02FF1
:1024B000A12FBD2F80E090E04C2F50E084179507AE
:1024C00034F4219131912D933D930196F7CF1092E1
:1024D0003102DF91CF911F910F91FF9008950E94DB
:1024E000B11A0E940B0E0C94BD1A0E94C11A0E94D0
:1024F000130E0C94DB1A0E943D180E94981A0E9439
:10250000FD0D0E946F120E9475120E94070EFBCFF4
:1025100086E090E00C945E20682F86E090E00C94BA
:102520006C208091790284708163809379020C948D
:102530008C120E94230D811104C00E94CB0D0E94B9
:1025400091120E94881280937902282F2695269551
:10255000269530E02730310524F087708063809322
:1025600079028091790280FF04C0869586958695D0
:1025700001C080E00C94051420917902822F869589
:1025800086958695482F50E04630510554F48F5F6C
:10259000982F990F990F990F822F8770892B80930D
:1025A0007902809179028160809379020E948C1275
:1025B000809179028695869586950C940514809174
:1025C0007902982F969596959695A1F0915E990F20
:1025D000990F990F8770892B80937902887F91E0FA
:1025E00009F490E08091790290FB80F98093790260
:1025F0000E948C12809179028695869586950C941E
:1026000005148091790280FD13C081608093790266
:10261000813019F489E080937902809179020E94D7
:102620008C12809179028695869586950C94051476
:1026300008958091790280FF08C08E7F809379028F
:102640000E948C1280E00C94051408958091790208
:1026500080FD0C9419130C94011390917902892F29
:102660008695869586958F5F8F719770873038F441
:10267000880F880F880F892B8093790202C090936E
:10268000790280917902887F91E009F490E080914D
:10269000790290FB80F9809379020E948C128091DC
:1026A00079028695869586950C940514873008F0F6
:1026B00086E0909179029770282F220F220F220F27
:1026C000922B90937902987F21E009F420E0909179
:1026D000790220FB90F9909379020C9405140E94E2
:1026E0005613809179020C948C129C01FB0182811B
:1026F000882349F12E3BFCE53F07C9F040F42C3B11
:10270000ECE53E0769F02D3B3C4561F00895203C27
:102710009CE5390791F070F0213C3C4589F0089523
:1027200086E001C080E00E946F1380E008950E945F
:10273000DF12FBCF0E94BC12F8CF0E942613F5CF08
:102740000E942D13F2CF81E00895859A8D98089507
:102750008D9A08958D9808951F920F920FB60F923B
:1027600011242F933F934F935F936F937F938F9396
:102770009F93AF93BF93EF93FF930E94AA13FF9190
:10278000EF91BF91AF919F918F917F916F915F91E9
:102790004F913F912F910F900FBE0F901F90189562
:1027A0001F920F920FB60F9211242F933F934F93C6
:1027B0005F936F937F938F939F93AF93BF93EF93A9
:1027C000FF9320918800309189008091860090913C
:1027D00087006AEF70E00E94FB1F6B5F7F4F6217FC
:1027E000730710F40E94A813FF91EF91BF91AF916E
:1027F0009F918F917F916F915F914F913F912F9119
:102800000F900FBE0F901F9018958F929F92AF92CE
:10281000BF92CF92DF92EF92FF920F931F93CF93CD
:10282000DF93C82F8730A8F4811114C080918800ED
:1028300090918900892B51F080916F008D7F80935A
:102840006F0080916F008E7F80936F000E94AA13AB
:1028500011C0C6E08091880090918900892B51F4C5
:1028600080916F00826080936F0080916F00816023
:1028700080936F00A0918600B09187002C2F30E0EC
:102880000E94372026E030E040E050E00E940F2018
:102890000027122F232F342F012F122F232F3327FE
:1028A00080918600909187006CE070E00E94FB1F91
:1028B0006017710730F0C80169E070E00E94FB1FEB
:1028C0005EC08091860090918700E0908600F09035
:1028D0008700E0918600F0918700C6E0D0E0BE015D
:1028E0000E94FB1F060F171F211D311D48015901B2
:1028F00085E0880C991CAA1CBB1C8A95D1F7C701DE
:10290000BE010E94FB1F6F01E12CF12CA701960173
:10291000260F371F411D511DC501B4010E940F2014
:1029200069017A01E0918600F0918700CA01B9013E
:102930000E94EB1F9B01AC01DF010E9446209B011E
:10294000AC01C701B6010E94EB1FDC01CB012FE0F7
:10295000B695A795979587952A95D1F7009186000A
:102960001091870020E030E0081719072A073B077D
:1029700028F46091860070918700CB01BC017093B0
:10298000890060938800DF91CF911F910F91FF9094
:10299000EF90DF90CF90BF90AF909F908F90089571
:1029A00008950E94A51382E08093800089E18093BE
:1029B00081008FEF9FEF90938700809386000C94A7
:1029C0009912CF93DF93EC01FB018281882309F4F4
:1029D00026C1C430FDE5DF0760F4CB3F9CE5D90795
:1029E00068F49E0122503C452431310508F018C19D
:1029F00005C0C236EDE5DE0709F012C10E94360DB2
:102A00009093640280936302C031FCE5DF0709F410
:102A1000CAC008F041C0C8309CE5D90709F4A4C079
:102A2000F0F4C430FCE5DF0709F48CC068F4C23070
:102A30009CE5D90709F482C0C330DC4509F0E5C044
:102A4000809163028260DFC0C630FCE5DF0709F4D5
:102A500083C008F085C0809163028860D4C0CC3008
:102A60009CE5D90709F490C068F4CA30FCE5DF079B
:102A700009F47EC008F084C00E9461068091630260
:102A80008068C1C0CE309CE5D90709F481C008F048
:102A900086C08091630294C0CD3FFCE5DF0709F456
:102AA0007BC038F5C4319CE5D90709F49AC058F4C5
:102AB000C231FCE5DF0709F47AC008F07EC08091DE
:102AC00063028F7BA0C0CB3F9CE5D907F1F108F0F2
:102AD0003FC0C531DC4509F098C08091630282FB9C
:102AE000222720F991E0922790FB82F990FB83F94D
:102AF0008AC0C1308DE5D80709F467C050F48091D1
:102B00006402CF3FECE5DE07C1F108F05BC08D7FCA
:102B100065C0C3308DE5D80709F471C008F46DC0F5
:102B2000C236DD4509F071C08091630284FB222723
:102B300020F991E0922790FB84F965C080916302AF
:102B4000816061C08091630216C08091640216C0EA
:102B500080916402826042C080916302806153C0B0
:102B60008091630280624FC08091630280644BC099
:102B7000809163028860846046C0826081602EC05C
:102B8000809163028E7F3FC0809163028D7F3BC046
:102B900080916302877F37C08091640214C0809166
:102BA00063028F7E30C0809163028F7D2CC00E94B3
:102BB0006106809163028F7726C080916302877FD0
:102BC0008B7F21C08D7F8E7F09C080916402982FFA
:102BD000909591708E7F892B90FB81F98093640290
:102BE00014C00E9461068091630287FB222720F9AE
:102BF00091E0922790FB87F906C081E001C080E058
:102C00000E94CD0D02C08093630280916302909177
:102C100064020E94470D0E94610680E001C081E0CD
:102C2000DF91CF910895CF93DF9386319C4541F595
:102C3000EB010E943A0C982F8A8120910201309179
:102C40000301882379F09A7A81E009F480E0809387
:102C50003202911102C069E201C065E3C9010E941C
:102C6000FB170AC080913202811102C069E201C0E3
:102C700065E3C9010E9406180E948C0C80E001C027
:102C800081E0DF91CF9108950F931F93CF93DF934E
:102C9000C42FD22FFC0182818823C9F040933502D2
:102CA0000E94B718909334028093330280E28C0F15
:102CB000883008F057C0C77081E001C0880FCA95FE
:102CC000EAF7DF91CF911F910F910C94C20380918D
:102CD0003502481330C080913302909134020E9433
:102CE000CF18883C910538F510E21D0FCD17B9F0CB
:102CF00080E28C0F883040F4C77081E001C0880FFB
:102D0000CA95EAF70E94C903183028F581E09D2F83
:102D1000977001C0880F9A95EAF70E94C203802F2E
:102D20000E94B9031830F0F4D77081E001C0880F19
:102D3000DA95EAF70AC080E28C0F883098F4C77001
:102D400081E001C0880FCA95EAF7DF91CF911F910A
:102D50000F910C94C903802FDF91CF911F910F9198
:102D60000C94B903DF91CF911F910F9108950F93A8
:102D70009C01CB01243F4CE5340731F188F4293D17
:102D8000FCE53F07D9F02A3D4CE5340779F1283DB1
:102D90003C45A9F506E221EE41EE68ED7CE52BC04D
:102DA000263FFCE53F07E1F0A8F0273F3C4539F519
:102DB00007E225EE46EE67EF7CE51DC007E225EE53
:102DC00045EE69ED7CE517C006E221EE40EE64EFCA
:102DD0007CE511C007E225EE44EE65EF7CE50BC013
:102DE00006E221EE42EE66EF7CE505C008E221E056
:102DF00045EE6AED7CE50E94441680E008C0FC01C7
:102E00008281882319F01092350201C081E00F9170
:102E100008959093870180938601089590933B02D3
:102E200080933A020895E0913A02F0913B02309784
:102E300021F00190F081E02D099480E00895E09167
:102E40003A02F0913B02309799F020911001222331
:102E500059F02091630227FF07C0DC012C911196E5
:102E60002C93119726E02C930280F381E02D099496
:102E7000089520913802309139022817390771F0EE
:102E80009093390280933802E0913A02F0913B022C
:102E9000309721F00680F781E02D09940895209164
:102EA0003602309137022817390771F090933702B4
:102EB00080933602E0913A02F0913B02309721F084
:102EC0000084F185E02D09940895FC0132968091EB
:102ED0001001882331F08091630287FF02C09EE1D8
:102EE00001C096E080E0915028F021912223D9F38F
:102EF0008F5FF9CF0895662351F1209110012223AD
:102F0000E9F02091630227FF19C0462F46954695A8
:102F100046954E31E0F4677021E030E002C0220FA8
:102F2000331F6A95E2F7FC01E40FF11D828190E006
:102F30002823392381E0232B69F409C0FC01329650
:102F400008962191621729F0E817F907D1F780E078
:102F5000089581E008959C01FC0132969FEF80E086
:102F60004191461789F09F3F19F4411101C0982FF4
:102F70008F5F8630A9F79F3F39F0F901E90FF11D06
:102F800097FDFA956283089508959C012A5F3F4F4B
:102F9000FC014281461301C01282019682179307F9
:102FA000B9F70895262F2695269526952E3168F493
:102FB000FC01E20FF11D677021E030E001C0220F3B
:102FC0006A95EAF78281282B22830895262F269579
:102FD000269526952E3170F4FC01E20FF11D6770E5
:102FE00021E030E001C0220F6A95EAF72095828146
:102FF00028232283089520911001222329F0209173
:10300000630227FD0C94D2170C94AB17209110018A
:10301000222329F02091630227FD0C94E6170C94DB
:10302000C51720911001FC013296222331F08091C6
:10303000630287FF02C08EE101C086E0DF011D92BE
:103040008A95E9F7089508950C94231883E08093F6
:103050003C020C942418811102C081E001C082E07E
:1030600080933C020C9424180C942B1881E08093DC
:103070003C020C9424180C94361808958091820216
:10308000843031F10E944E0210923D0220E488E12A
:1030900090E00FB6F894A895809360000FBE20933F
:1030A000600083B7817F846083BF83B7816083BF03
:1030B0007894889583B78E7F83BF0FB6F894A895D0
:1030C00080916000886180936000109260000FBE64
:1030D000089508950C946918CF930E946A180E946D
:1030E000E9110E946918C0E08C2F0E941711892BEA
:1030F00029F4CF5FC530C1F780E001C081E0CF91F6
:1031000008950E9461060C94C1021F920F920FB69F
:103110000F9211248F939F93AF93BF9380913D02A1
:10312000811113C080917A0290917B02A0917C0260
:10313000B0917D024196A11DB11D80937A029093BA
:103140007B02A0937C02B0937D02BF91AF919F91CF
:103150008F910F900FBE0F901F90189582E084BD45
:1031600093E095BD9AEF97BD80936E0008952FB7B9
:10317000F89480917A0290917B02A0917C02B091A8
:103180007D022FBF08952FB7F89460917A02709155
:103190007B0280917C0290917D022FBF08959C015B
:1031A0004FB7F89480917A0290917B02A0917C02B3
:1031B000B0917D024FBF821B930B089578941F92AC
:1031C0000F920FB60F9211248F939F93AF93BF93DB
:1031D00080917A0290917B02A0917C02B0917D0255
:1031E0000196A11DB11D80937A0290937B02A0935A
:1031F0007C02B0937D02BF91AF919F918F910F9010
:103200000FBE0F901F90189581E08093E00080E240
:103210008093D8001092C9008FE19EE40197F1F7E6
:1032200000C0000087E090EBDC0180938B0290935C
:103230008C02A0938D02B0938E029CE088E10FB6C1
:10324000F894A895809360000FBE90936000FFCF24
:103250008091610208950895CF93DF93209110012A
:10326000222339F02091630227FF03C060E222E0AD
:1032700002C068E021E02093E9002FEF3091E800E0
:10328000215035FD06C035ED3A95F1F700002111CA
:10329000F5CF2091E80025FF1DC0EC0180911001C1
:1032A000811105C040E050E068E070E003C070E0CC
:1032B00040E050E0CE010E944D1B8091E8008E77E7
:1032C0008093E80080E2FE01A1E4B2E001900D925B
:1032D0008A95E1F7DF91CF91089580933E02709334
:1032E000400260933F0280918202843001F582E0C7
:1032F0008093E9008FEF9091E800815095FD06C022
:1033000095ED9A95F1F700008111F5CF8091E800D5
:1033100085FF0DC040E050E063E070E08EE392E096
:103320000E944D1B8091E8008E778093E8000895FD
:10333000BC0184E00C946D19BC0183E00C946D1900
:10334000089580918102811109C00E94DE1C0E94B3
:103350003B1D8091E20084608093E200089510920A
:10336000810208950C943B1860917E0281E0611106
:1033700001C080E00C9426189091820281E0943084
:1033800009F080E060917E020C942B1842E061EC21
:1033900081E00E94571C42E261EC82E00E94571CCF
:1033A0009091820281E0943009F080E060917E0289
:1033B0000C94341880918402833009F461C030F495
:1033C000813071F0823009F49AC008958A3009F48E
:1033D00086C08B3009F46CC0893009F0A8C020C0C9
:1033E00080918302813A09F0A2C08091E800877F32
:1033F0008093E8008091870290918802892B21F4C4
:1034000060E281E492E003C060E080E090E070E080
:103410000E94981B8091E8008B778093E8000895C4
:1034200080918302813209F082C08091870290915D
:103430008802029708F07BC08091E800877F809324
:10344000E8008091E80082FD05C080918202811130
:10345000F8CF6DC02091F3008091F20090E0922BA4
:10346000029731F48091F100813011F0863021F41F
:103470008091F100809361028091E8008B7753C0C6
:1034800080918302813A09F052C080918702909125
:103490008802892B09F04BC08091E800877F8093D8
:1034A000E8008091E80080FFFCCF8091100136C0D9
:1034B000809183028132D9F58091870290918802B0
:1034C000892BA9F58091E800877F8093E8000E940E
:1034D0008C1C80918502809310010C946106809170
:1034E0008302813221F58091E800877F8093E80094
:1034F0000E948C1C809186028093620208958091C4
:103500008302813AA1F48091E800877F8093E800EC
:103510008091E80080FFFCCF809162028093F100EF
:103520008091E8008E778093E8000C948C1C0895BD
:1035300084B7877F84BF0FB6F894A8958091600008
:10354000886180936000109260000FBE90E080E878
:103550000FB6F89480936100909361000FBE0C94B5
:1035600036180E94DE1C0E943B1DE2EEF0E08081D6
:103570008460808378940C94D01F84E091E00C9454
:103580000E17809182028530A9F4809182028530E5
:1035900079F40E943E18809180028823B1F30E9442
:1035A0006C18882391F30E94371B0E946106EDCFAF
:1035B0000C948118089508950C94DE1A292F33274E
:1035C00023303105C9F060F42130310581F022301B
:1035D000310509F044C08BE390E02AE332E043C0B8
:1035E00021323105E1F02232310549F138C082E162
:1035F00090E025E732E037C099278130910549F006
:1036000028F0029761F5E4E1F2E005C0E6E3F2E0BC
:1036100002C0E4E2F2E0849190E09F0124C06115D1
:10362000710541F061307105D1F489E090E025E643
:1036300032E019C089E090E02CE432E014C061155A
:10364000710541F06130710551F48DE690E027E895
:1036500032E009C080E490E024EF32E004C080E072
:1036600090E020E030E0FA0131832083089580E18A
:1036700089BD82E189BD09B400FEFDCF8091D800EB
:103680008F7D8093D8008091E00082608093E0007D
:103690008091E00081FDFCCF0895CF92DF92EF9200
:1036A000FF920F931F93CF93DF93EC018B017A016D
:1036B0000E94AB1C811133C0E114F10439F0F70111
:1036C00080819181081B190BC80FD91FC12CD12CE7
:1036D0000115110519F18091E80085FD16C0809152
:1036E000E8008E778093E800E114F10449F0F701D7
:1036F00080819181C80ED91ED182C08285E00FC021
:103700000E94AB1C882321F30AC089918093F100A9
:1037100001501109FFEFCF1ADF0ADACF80E0DF9105
:10372000CF911F910F91FF90EF90DF90CF90089570
:103730002091890230918A022617370748F06115D7
:10374000710539F42091E8002E772093E80001C03C
:10375000B901FC0120E06115710579F180918202C7
:103760008823F1F18530F1F18091E80083FD3CC0C0
:103770008091E80082FD2EC08091E80080FFEBCFB1
:103780002091F3008091F20090E0922B6115710579
:1037900051F08830910538F421912093F100615067
:1037A00071090196F3CF21E0089709F020E080919C
:1037B000E8008E778093E800CECF2111CFCF0AC0EA
:1037C00080918202882361F0853061F08091E80069
:1037D00083FD0AC08091E80082FFF2CF80E0089567
:1037E00082E0089583E0089581E0089520918902A0
:1037F00030918A022617370748F06115710539F4B0
:103800002091E8002E772093E80001C0B901FC0167
:1038100020E06115710591F180918202882309F4FD
:1038200040C0853009F43FC08091E80083FD3DC071
:103830008091E80082FD2FC08091E80080FFE9CFF1
:103840002091F3008091F20090E0922B61157105B8
:1038500059F08830910540F424912093F10031967D
:10386000615071090196F2CF21E0089709F020E03C
:103870008091E8008E778093E800CBCF2111CCCFE8
:103880000AC080918202882361F0853061F08091C6
:10389000E80083FD0AC08091E80082FFF2CF80E05B
:1038A000089582E0089583E0089581E00895982FB7
:1038B000973068F59093E900981739F07091EC0013
:1038C0002091ED005091F00003C0242F762F50E09E
:1038D00021FD02C09F5FECCF3091EB003E7F309323
:1038E000EB003091ED003D7F3093ED003091EB0027
:1038F00031603093EB007093EC002093ED00509317
:10390000F0002091EE0027FDE5CF80E008958F7054
:103910008093E90081E008958091830287FF11C0C0
:103920008091E80082FD05C0809182028111F8CF6C
:1039300011C08091E8008B770BC0809182028823B0
:1039400049F08091E80080FFF8CF8091E8008E7701
:103950008093E80008952091E4003091E50095E619
:103960004091EC00842F817040FF23C08091E800DB
:1039700080FD1DC080918202882399F0853099F0E6
:103980008091EB0085FD11C04091E4005091E5006D
:103990002417350729F3915011F09A01E1CF84E003
:1039A000089582E0089583E0089581E0089580E01D
:1039B00008954091E80042FFDDCF08950E944C1D1C
:1039C0000E94541DE0EEF0E0808181608083E8ED8C
:1039D000F0E080818F77808319BCA7EDB0E08C91F7
:1039E0008E7F8C9380818F7E8083109281020895D8
:1039F0000F931F93CF93DF930E944C1D0E94541D81
:103A0000C8EDD0E088818F7788838881806888833B
:103A100088818F7D888319BC1092820210927E0269
:103A20001092800210927F0200EE10E0F801808177
:103A30008B7F808388818160888342E060E080E0C2
:103A40000E94571CE1EEF0E080818E7F8083E2EEE1
:103A5000F0E0808181608083808188608083F801CC
:103A600080818E7F8083888180618883DF91CF9180
:103A70001F910F910895E8EDF0E080818F7E8083A3
:103A8000E7EDF0E080818160808384E082BF81E0A7
:103A9000809381020C94F81CE8EDF0E080818E7F29
:103AA00080831092E20008951092DA001092E100F3
:103AB00008951F920F920FB60F9211242F933F93E8
:103AC0004F935F936F937F938F939F93AF93BF9326
:103AD000EF93FF938091E10082FF0BC08091E200A1
:103AE00082FF07C08091E1008B7F8093E1000E94FC
:103AF000CF1F8091DA0080FF1FC08091D80080FF27
:103B00001BC08091DA008E7F8093DA008091D9000B
:103B100080FF0DC080E189BD82E189BD09B400FE4E
:103B2000FDCF81E0809382020E94A11905C019BCDB
:103B3000109282020E94AF198091E10080FF19C0AB
:103B40008091E20080FF15C08091E2008E7F80931B
:103B5000E2008091E20080618093E2008091D800D1
:103B600080628093D80019BC85E0809382020E9415
:103B7000B4198091E10084FF30C08091E20084FF9D
:103B80002CC080E189BD82E189BD09B400FEFDCF72
:103B90008091D8008F7D8093D8008091E1008F7E46
:103BA0008093E1008091E2008F7E8093E20080911B
:103BB000E20081608093E20080917E02882311F010
:103BC00084E007C08091E30087FD02C081E001C06E
:103BD00083E0809382020E94BC198091E10083FF00
:103BE00029C08091E20083FF25C08091E100877F9A
:103BF0008093E10082E08093820210927E028091A5
:103C0000E1008E7F8093E1008091E2008E7F8093BF
:103C1000E2008091E20080618093E20042E060E097
:103C200080E00E94571C8091F00088608093F00033
:103C30000E94B219FF91EF91BF91AF919F918F9127
:103C40007F916F915F914F913F912F910F900FBE98
:103C50000F901F9018951F920F920FB60F9211247C
:103C60002F933F934F935F936F937F938F939F9384
:103C7000AF93BF93CF93DF93EF93FF93C091E9008E
:103C8000CF708091EC00D82FD17080FDD0E81092D9
:103C9000E9008091F000877F8093F00078940E9483
:103CA0006F1E1092E9008091F00088608093F00010
:103CB000CD2BCF70C093E900FF91EF91DF91CF91B1
:103CC000BF91AF919F918F917F916F915F914F9134
:103CD0003F912F910F900FBE0F901F9018951F933B
:103CE000CF93DF93CDB7DEB7AA970FB6F894DEBFB8
:103CF0000FBECDBFE3E8F2E08091F100819322E0B6
:103D0000EB38F207C9F70E94DA198091E80083FFC7
:103D10002EC18091830290918402492F50E04A3055
:103D2000510508F024C1FA01EC58FF4F0C943120E2
:103D3000803821F0823809F01AC108C080917F02D2
:103D400090918002992389F082600FC08091870250
:103D50008F70873008F00BC18093E9008091EB00F1
:103D600085FB882780F91092E9009091E800977F01
:103D70009093E8008093F1001092F100D1C0282FB9
:103D80002D7F09F0F4C0882319F0823061F0EFC074
:103D900080918502813009F0EAC0933009F080E01B
:103DA000809380022EC08091850281112AC080916B
:103DB00087028F702FEF280F263008F0D8C080932D
:103DC000E9002091EB0020FF1CC0933021F480918A
:103DD000EB00806214C09091EB0090619093EB0037
:103DE00021E030E0A90102C0440F551F8A95E2F797
:103DF0004093EA001092EA008091EB008860809383
:103E0000EB001092E9008091E800877F8093E80042
:103E10000E948C1CACC08111AAC0109185021F7732
:103E20008091E3008078812B8093E3008091E8000B
:103E3000877F8093E8000E948C1C8091E80080FFBF
:103E4000FCCF8091E30080688093E300111102C0F1
:103E500082E001C083E08093820289C08058823072
:103E600008F085C080918502909186028C3D53E0D8
:103E7000950779F583E08A838AE289834FB7F894BE
:103E8000DE01139620E03EE051E2E32FF0E0509394
:103E90005700E49120FF03C0E295EF703F5FEF70A1
:103EA0008E2F90E0EA3010F0C79601C0C0968D9337
:103EB0009D932F5F243149F74FBF8091E800877FA2
:103EC0008093E8006AE270E0CE0101960E94981BA0
:103ED00016C06091870270918802AE014F5F5F4FFC
:103EE0000E94DC1ABC01892B09F441C09091E800C2
:103EF000977F9093E80089819A810E94F61B8091B8
:103F0000E8008B778093E80032C0803881F580919B
:103F1000E800877F8093E80080917E028093F10023
:103F20008091E8008E7772CF811121C08091850247
:103F30009091860299270297D4F48091E800877FB8
:103F40008093E8008091850280937E020E948C1C01
:103F500080917E02811106C08091E30087FD02C03E
:103F600081E001C084E0809382020E94C6198091A2
:103F7000E80083FF0AC08091E800877F8093E80013
:103F80008091EB0080628093EB00AA960FB6F894C4
:103F9000DEBF0FBECDBFDF91CF911F910895089571
:103FA000CF93809182028823A1F0C091E900CF7065
:103FB0009091EC00892F817090FD80E8C82B1092C1
:103FC000E9008091E80083FD0E946F1ECF70C093CE
:103FD000E900CF910895DB018F939F930E944620C3
:103FE000BF91AF91A29F800D911DA39F900DB29F95
:103FF000900D11240895AA1BBB1B51E107C0AA1FF5
:10400000BB1FA617B70710F0A61BB70B881F991F79
:104010005A95A9F780959095BC01CD010895A1E22C
:104020001A2EAA1BBB1BFD010DC0AA1FBB1FEE1F32
:10403000FF1FA217B307E407F50720F0A21BB30B7D
:10404000E40BF50B661F771F881F991F1A9469F7F9
:1040500060957095809590959B01AC01BD01CF0155
:104060000895EE0FFF1F0590F491E02D0994A29F93
:10407000B001B39FC001A39F700D811D1124911D3C
:10408000B29F700D811D1124911D08950E9437204B
:10409000A59F900DB49F900DA49F800D911D11249C
:1040A0000895FB01DC0104C08D910190801921F479
:1040B00041505040C8F7881B990B0895F999FECFDD
:1040C00092BD81BDF89A992780B50895A8E1B0E026
:1040D00042E050E00C949220262FF999FECF92BD39
:1040E00081BDF89A019700B4021639F01FBA20BDBD
:1040F0000FB6F894FA9AF99A0FBE08950396272FEF
:104100000E946D200E946C20252F0E946D20242F7C
:104110000C946D200196272F0E946D200C946C202A
:10412000DC01CB01FC01F999FECF06C0F2BDE1BD77
:10413000F89A319600B40D9241505040B8F7089566
:04414000F894FFCF21
:10414400C800F80128192C19A0199C1998192B19C1
:1041540001E200E900EA00B500B600B700CD008333
:1041640001CC008A01920194012102230224022538
:1041740002260227022A02B300B4006F00700081F5
:104184008283E200E900EA00B500B600B700CD0082
:104194008301CC008A0192019401210223022402AA
:1041A4002502260227022A02B300B4006F00700021
:1041B400818283F0F1C66766369431373534979639
:0641C400339091929395E7
:00000001FF
